:020000040000FA
:10000000402D0020C1030000C9030000CB03000005
:10001000CD030000CF030000D1030000000000006A
:10002000000000000000000000000000D3030000FA
:10003000D503000000000000D7030000D903000032
:100040001D080000DB030000C90B0000DB030000FB
:10005000DB030000DB030000DB0300008508000079
:10006000DB030000A10B0000B50B0000DB03000068
:10007000DB030000DB030000DB030000DB03000008
:10008000DB03000075080000DB030000F10700003F
:10009000DB030000DB030000DB030000DB030000E8
:1000A000DB030000DB030000DB030000DB030000D8
:1000B000DB030000DB030000000000000000000084
:1000C000DB030000DB030000DB030000DB030000B8
:1000D000DB030000DB030000DB030000DB030000A8
:1000E000DB030000DB030000DB0300000000000076
:1000F00000000000DB03000000000000DB03000044
:1001000000000000000000000000000000000000EF
:1001100000000000000000000000000000000000DF
:1001200000000000000000000000000000000000CF
:1001300000000000000000000000000000000000BF
:1001400000000000000000000000000000000000AF
:10015000000000000000000000000000000000009F
:10016000000000000000000000000000000000008F
:10017000000000000000000000000000000000007F
:10018000000000000000000000000000000000006F
:10019000000000000000000000000000000000005F
:1001A000000000000000000000000000000000004F
:1001B000000000000000000000000000000000003F
:1001C000000000000000000000000000000000002F
:1001D000000000000000000000000000000000001F
:1001E000000000000000000000000000000000000F
:1001F00000000000000000000000000000000000FF
:10020000DFF80CD000F0A8FA00480047FD340000E9
:10021000402D002030B450E8012F93B2C48923440C
:100220008489A34228BF1B1B0489A34202BFBFF3DA
:100230002F8F002007E0C3EA020340E80134002CBE
:10024000E9D14FF001000A6030BC704750E8012F3F
:10025000C2EA024240E801210029F7D1704730B4D8
:1002600050E8022F1FFAA2F3C488A34202BFBFF3D3
:100270002F8F00200DE0C48923448489A34228BF26
:100280001B1BC2EA034340E80234002CE8D14FF0C4
:1002900001000A6030BC704750E8022FC2EA2242D7
:1002A00040E802210029F7D17047034653E8022FA6
:1002B000D988B2EB324F4FF0000017BF92B241EA3B
:1002C000014142EA014104E05A68B2EB324F08BFF3
:1002D000012043E80212002AE8D1704730B40446F6
:1002E00054E8000F0D4644E80053002BF8D1156088
:1002F00030BC704730B4044654E8000F40EA0105B2
:1003000044E80053002BF7D1156030BC704730B47F
:10031000044654E8000F00EA010544E80053002BAE
:10032000F7D1156030BC704730B4044654E8000F74
:1003300080EA010544E80053002BF7D1156030BC7A
:10034000704730B4044654E8000F00EB010544E860
:100350000053002BF7D1156030BC704730B4044611
:1003600054E8000FA0EB010544E80053002BF7D13F
:10037000156030BC704770B404464FF0000054E87C
:10038000006F0D68AE4207BF44E80023012044E837
:1003900000630E60002B1CBF0020F0E770BC7047AC
:1003A00030B4044654E8000F88422CBF451A054675
:1003B00044E80053002BF5D1156030BC70470000B5
:1003C0000648804706480047FEE7FEE7FEE7FEE7EF
:1003D000FEE7FEE7FEE7FEE7FEE7FEE7CD090000E9
:1003E0000102000000487047E47400002DE9FE435C
:1003F000994615468846074601AC022942D3002D8E
:1004000040D000200290A8F101004FF0FF3600908C
:1004100022E000FB057201FB057011464A46904739
:10042000002805DC54F82600304444F8260013E088
:1004300060682A4600FB057154F8040C00FB057047
:1004400007E00B7890F800C001F801CB00F8013B01
:10045000521E002AF5D1764254F8040C6168884295
:10046000D7DC4B462A463846FFF7C0FF54F8040C49
:100470004B46A8EB0001401C00FB05702A46491EB4
:10048000FFF7B4FFBDE8FE8310B5431A934209D2CB
:100490008318881803E010F8011D03F8011D521E8F
:1004A000F9D210BD40EA01039B0703D009E008C957
:1004B000121F08C0042AFAD203E011F8013B00F829
:1004C000013B521EF9D210BDD2B201E000F8012B5F
:1004D000491EFBD270470022F6E710B513460A46C4
:1004E00004461946FFF7F0FF204610BD421C10F8E5
:1004F000011B0029FBD1801A704710B5002200E0D3
:10050000521C835C8C5CA34201D1002BF8D1D8B281
:10051000E1B2401A10BD034611F8012B00F8012B7F
:10052000002AF9D11846704730B505460020034629
:1005300000E05B1C934205D2EC5CC85C201A01D140
:10054000002CF6D130BD2DE9FE4F81EA030404F002
:10055000004421F0004100944FF0000B23F00043D1
:1005600050EA01045ED052EA03045BD0C3F30A549C
:10057000C1F30A552C44A4F2F3340194A0FB0254B5
:10058000C1F3130141F48011C3F3130343F4801347
:1005900001FB024400FB034E840A970A44EA81549B
:1005A00047EA8357A4FB076802958D0A05FB078578
:1005B0004FEA932C04FB0C542705029D4FEA065882
:1005C00047EA1637B5EB08056EEB070C870E920E5F
:1005D00047EA811742EA8312A7FB0201B6EB0B013F
:1005E00064EB00042B0D43EA0C335E1844EB1C5003
:1005F000DA465146E7FB0201C5F313044FEA0B3319
:1006000043EA14534FEA0432019C43EA0603A4F17F
:100610000C040294009CCDE900B400F04FF803B044
:10062000BDE8F08F00200146F9E70EB5C10F80EA62
:10063000E0700844CA07002140F233438DE80E0001
:100640000A460B4600F03AF803B000BDC1F30A5267
:1006500010B5C1F3130140F2FF3341F480119A4207
:1006600001DA002010BD40F233439A42A2F2334235
:1006700003DC524200F003F810BD904010BD202A68
:1006800004DB203A21FA02F00021704721FA02F33C
:10069000D040C2F12002914008431946704710B57E
:1006A000141E73F1000408DA401C41F10001921895
:1006B0005B411A4301D120F0010010BD2DE9F04D3E
:1006C00092469B4611B1B1FA81F202E0B0FA80F293
:1006D0002032904600F052F804460F4640EA0A00E5
:1006E00041EA0B0153465A46084313D0114653EAD8
:1006F000010019D0C8F140025046FFF7C0FF05467F
:100700000E4650465946424600F038F8084305D098
:10071000012004E020463946BDE8F08D0020054365
:1007200046EAE0762C4337430A986305E40AA0EBD7
:1007300008000022FD0A44EA47540A3002D500208E
:100740000146E9E7010510196941DDE9084500198D
:100750006941BDE8F04DA2E7064C074D06E0E068B0
:1007600040F0010394E8070098471034AC42F6D3F8
:10077000FFF74AFD487E0000687E0000202A04DB67
:10078000203A00FA02F1002070479140C2F12003A4
:1007900020FA03F319439040704770B58C1810F895
:1007A000015B15F0070301D110F8013B2A1106D1B6
:1007B00010F8012B03E010F8016B01F8016B5B1ED0
:1007C000F9D12B0705D40023521E0DD401F8013BAB
:1007D000FAE710F8013BCB1A921C03E013F8015B17
:1007E00001F8015B521EF9D5A142D8D3002070BD9B
:1007F00010B50121080201F095FB02214FF482702F
:1008000001F090FB04214FF4847001F08BFBBDE8F4
:10081000104008214FF4867001F084BB70B54FF48E
:100820008076304603F06CFE114CB50560B1304661
:1008300003F06DFE0120C5F80803607920B901209E
:1008400060712168002088474FF48276304603F0BB
:1008500057FE00280AD0304603F059FE0220C5F8A2
:1008600008032168BDE870400120084770BD000002
:10087000EC00002002490248091F09680068084787
:10088000480100202DE9FE434FF48278404605F0F0
:1008900015F84C4F00254C4C012600B3404605F09E
:1008A00015F894F82E0010B194F82F10D1B18DF8EE
:1008B0000050616801912189ADF80810E26832B1F9
:1008C000218B618362602181E56010B102E02574B3
:1008D00000E03E6021686846884784F82F5094F80D
:1008E0002E0060B34FF48077384604F0E7FF30B352
:1008F000384604F0EBFF628B94F82D108A420AD937
:10090000A2EB010080B260832289A2EB0000626842
:1009100002EB400005E007D1E06828B184F82F60C1
:10092000658304F0B9FF04E08A4202D184F82F60A5
:100930006583404604F0CAFF2248001D06604FF45C
:100940008877384604F0BAFF48B1384604F0BEFF55
:10095000257402208DF800002168684688474FF40E
:100960008A77384604F0AAFF28B1384604F0AEFF73
:100970002574BDE8FE834FF000484FF48C79676919
:100980001DE000BFB7FA87F028FA00F109EB8005F7
:100990008F43284604F092FF88B1284604F096FF62
:1009A000A5F58C75E8088DF8040045F38000401C1F
:1009B0008DF800608DF80500216868468847002F93
:1009C000E0D1D6E7007000407406002070B54FF00B
:1009D00080520124D2E94C100023082906D1CD060B
:1009E000C5F80C31C5F810315E4D2B60082955D182
:1009F0005D4D2D685D4E35605B4D2D1D2D68361D9E
:100A00003560594D08352D68361D3560564D0C350D
:100A10002D68361D3560544D10352D68361D3560F6
:100A2000514D14352D68361D35604F4D18352D68E4
:100A30004E4E203635604C4D1C352D68361D3560C8
:100A4000494D20352D68361D3560474D24352D68BC
:100A5000361D3560444D28352D68361D3560424DB4
:100A60002C352D68361D35603F4D30352D683F4E95
:100A7000403635603C4D34352D68361D35603A4D75
:100A800038352D68361D3560374D3C352D68361D9F
:100A90003560354D40352D68361D3560082904D147
:100AA000050002D1334E324D3560082904D10500CE
:100AB00002D1314EFB253560082908D1050006D149
:100AC00092F858622D4A156866F3030515600829E7
:100AD00004D1020002D12A4D8A012A60082906D1D8
:100AE00028480168C90702D06FF00101016026485B
:100AF000016841F470010160BFF34F8FBFF36F8F46
:100B00004FF01021D1F80002002803DBD1F80402D5
:100B1000002822DA1D4A14601D480468002CFCD00D
:100B20001224C1F800420568002DFCD0C1F804422F
:100B300001680029FCD0136001680029FCD0BFF3D4
:100B40004F8F11487C380168124A01F4E06111436B
:100B50000160BFF34F8F00BFFDE710490E480860EA
:100B600070BD0000380500400404001020C500409E
:100B7000488103008C56004018F50040E40E004008
:100B8000409602400004004088ED00E004E501408A
:100B900000E401400400FA050090D003FC010020AD
:100BA00004220249024802F093B90000A406002082
:100BB0000090004004220249024802F089B9000076
:100BC000B006002000A00040014800680047000077
:100BD000FC00002002E008C8121F08C1002AFAD158
:100BE00070477047002001E001C1121F002AFBD1AD
:100BF0007047000072B604F00DFB00BF04F0B0F8BF
:100C00000028FBD1144D154915486A88081AC408F4
:100C10002AB1012000EB044012A104F0DBF91448D2
:100C20000068C00700D000BE6888022805D30220F3
:100C300000EB04400FA104F0CDF9BFF34F8F0C4837
:100C4000E43801680F4A01F4E06111430160BFF329
:100C50004F8F00BFFDE7000070020020687F00009A
:100C6000C87E0000466174616C206572726F72000C
:100C7000F0ED00E053797374656D207265736574EF
:100C8000000000000400FA050EB500210091CDE936
:100C900001106A4644F20100FFF7ACFF0EBD0000F0
:100CA000014801F038BD0000100100203AB1006891
:100CB0000129426100D00021016100207047072016
:100CC0007047000038B51148082358224168009148
:100CD0000F49006802F0E0FD002815D10D4A694671
:100CE0000D4801F01DFD04000ED101210A4801F05C
:100CF0009CFD0123094A1946074801F0E4FC064916
:100D0000012008390870204638BD000058700000E6
:100D10000C070020C564000010010020FFFF7F00C9
:100D200070B5044690F820000D4608B1002070BD53
:100D3000A26101F0ABFE401941F10001C4E90201DA
:100D4000206900B125612146BDE87040002005F012
:100D500093BE0146002081F82000012005F08CBEE2
:100D600000F002B800F008B872B602480168491CE9
:100D7000016070474001002003490868401E086078
:100D800000D162B6704700004001002070B50546F2
:100D900008680C46411C04D003F08CFE206803F068
:100DA0003CFE6068411C02D0002103F024FE29684B
:100DB000A069C1F82405607D227D29681043C1F82F
:100DC0006C05D4E900122868C0F81425C0F80C1589
:100DD000207D012814D1A068411C02D0002103F01D
:100DE0000AFEE068411C04D003F064FEE06803F0F2
:100DF00014FED4E902122868C0F80825C0F81015BE
:100E000070BD70B5054608680C46411C04D003F05F
:100E10005BFE206803F00BFE6068411C02D00021DD
:100E200003F0F2FD2968A069C1F82405607D217DE9
:100E30002A680843C2F86C05D4E900122868C0F893
:100E40000C15C0F81425207D012814D1A068411C80
:100E500002D0002103F0D8FDE068411C04D003F06B
:100E600033FEE06803F0E3FDD4E902122868C0F81D
:100E70000825C0F8101570BDF0B500220D4BCA60F2
:100E8000C1E901230C4B0D4D1446EE1A0A600CE02B
:100E900003EB0215EF683F79FF2F05D0A04202D186
:100EA000A8680860F0BD641C521CB2EB161FEFD39B
:100EB000F0BD0000FC720000A87E0000C87E0000AB
:100EC0002DE9FC410646C0074FF000050ED0104F3B
:100ED00000240122385D009500231146019503F09E
:100EE0002DFD641C042CF4D300F024F8B0070DD5BC
:100EF000074E0024361D0022305D03230095114665
:100F0000019503F01BFD641C042CF4D3BDE8FC81A7
:100F1000487000000249085C012103F0E9BD0000AF
:100F2000487000000249085C002103F0E1BD0000A8
:100F30004870000010B500242046FFF7EBFF641C4A
:100F4000042CF9D310BD00002DE9F0470546861C9E
:100F500091460F464FF0010A0020FFF701FF1B4C9E
:100F600004F21C4860683860D4E90101184F401A47
:100F70003968081A0EE00121404602F0D8FC02F060
:100F8000CBF90146404602F0D2FCD4E90101401AF7
:100F90003968081A401C8642EDD8B9F1000F03D019
:100FA000052065F3891002E0062065F39F50616813
:100FB0003A68114004EB8101C860606830446060A9
:100FC0000020FFF7CFFE5046BDE8F0871C09002047
:100FD0008001002070B50D4604460A2902D10D217A
:100FE000FFF7F8FFA0682268411CA1601554D4E9FE
:100FF0000101814204D32046BDE8704003F0A5BB47
:1010000070BD0000044881684068814201D1012020
:1010100070470020704700001C0900200348017F32
:10102000B1FA81F1C1F11F014176704764070020D8
:1010300070B5816804468A7F002A4DD0C87F002899
:101040004AD0121A0844D5B200F120016A1C1F30A0
:10105000FFF71AFAA068C17F491EC177A068817F97
:10106000491E81778DB308221C49206903F060FB7B
:10107000204602F0E9FB8178C078814211D1A06856
:1010800017A2C17F431808212046203302F0F0FF49
:10109000204600F013F929462046BDE8704001F0D3
:1010A00005BA204600F01EF9204600F007F9A068B6
:1010B0000BA2C17F431808212046203302F0D8FF3D
:1010C0002046BDE8704000F003B92069BDE87040DB
:1010D000044A03A103F02CBB70BD0000B81200004D
:1010E000257300003172000070B504468068827F6D
:1010F000C17F521A12F0FF053AD0084400F12101D5
:101100002A462030FFF7C0F9A068817F491E817709
:10111000204602F099FB8178C078814214D1A06802
:1011200014A2C17F431808212046203302F0A0FFFB
:10113000114A10A1206903F0FBFA6D1EE9B22046A6
:10114000BDE8704001F0B2B9204600F0CBF820466F
:1011500000F0B4F8A06807A2C17F43180821204618
:10116000203302F085FF2046BDE8704000F0B0B8A3
:1011700070BD000025730000357200002DE9F041BC
:10118000044680680F46D0F84811C27F11F001066E
:10119000817FA1EB0203DDB20BD07F2901D3002DAB
:1011A0007ED0A068C17F0844002180F8207066B11D
:1011B00013E07F297CD2002DF3D0831803F12001A6
:1011C0002A46481CFFF760F9EBE7A068827F521CB3
:1011D000D2B28277A068203281544DB3204602F00B
:1011E00033FB8178C07881420ED1A06831A2C17FE3
:1011F000431808212046203302F03AFFA81BC1B251
:10120000204601F053F921E0204600F06BF8A06879
:1012100028A2C17F431808212046203302F028FF6E
:10122000204600F055F80121204601F019FA0DE0A2
:101230003EB1A068827F521CD2B28277A068203271
:1012400081543A461CA1206903F072FAA168C87F54
:10125000401CC877204601F016F90028204603D02C
:10126000BDE8F04101F02EB901F0FDFB00281FD0D0
:10127000204602F0E9FA0546C078A978401A401ED7
:10128000C1B2204601F0A0F8204601F01BF9E87831
:10129000A978401AC1B2204601F0EEF9287800E0A2
:1012A00006E0401EC1B22046BDE8F04101F0D8B9C9
:1012B000BDE8F08125730000256300000069024A43
:1012C00002A103F035BA0000297200002573000066
:1012D0000069024A024903F02BBA000023720000A1
:1012E000CC1200000069024A024903F021BA000052
:1012F00020720000CC1200002DE9F04F4FF00009E1
:1013000095B005464F464C4600F0BEFD284601F01C
:10131000E9FC284601F064F8284601F0B4F810B959
:10132000284601F0CFF8AA680C2301A90EA82032A4
:1013300002F064F903460E9840B15BB149A2022164
:10134000284602F095FE15B0BDE8F08F284601F062
:10135000B9F8F8E7494848490026A1EB00080DF123
:10136000040A834613E008D345A0009049A2022155
:101370002846019B02F07CFEE5E70BEBC6046068A3
:1013800001685AF82900FFF7B8F818B1761CB6EBD7
:10139000D80FE8D94FF000000F90A9684860886026
:1013A000C86008616168C86828B14AC9AA68C2E90A
:1013B0000360C2E90113606809F101044FF00006FF
:1013C000D0F808800E98844235D25AF8240033A110
:1013D000FFF793F840B35AF8240031A1FFF78DF8D6
:1013E00010B310A832460090761C0FAB2146404641
:1013F00000F006FDFEB10F98E8B101685AF824002C
:10140000FFF77BF80028DDD10F98C16839B190E86B
:101410004810AA682746C2E903C1C2E9013600267E
:10142000641CD0F80880CDE7A868D0F8481141F0D6
:101430000201C0F84811A868036933B10E980AEB9D
:101440008702C11B2846984704E017A202212846BC
:1014500002F00EFEA868D0F8481121F00201C0F891
:10146000481170E76E6F74207465726D696E6174F7
:1014700065643A2025630A00A87E0000687E0000AB
:101480003A20636F6D6D616E64206E6F7420666FBD
:10149000756E6400257325730A0000002D68000036
:1014A0002D2D68656C700000506C6561736520734C
:1014B000706563696679206120737562636F6D6D15
:1014C000616E642E0A0000008068D0F84801C0F305
:1014D000C00070472DE9F0410446C0688EB00D464B
:1014E000406800263246006801A903F071FF18B178
:1014F00000200EB0BDE8F0816DB1019803F048FF07
:10150000A168D1F83801401CC1F8380100F007008B
:1015100001287AD10126204602F096F90546807806
:10152000012804D9401EC1B2204601F0A5F8287850
:10153000012804D9401EC1B2204600F0B7FF204662
:10154000FFF7BCFE2EB132A20221204602F090FD30
:101550005BE04FF000080023082202A9019803F085
:1015600026FF04980590BDF80C00ADF81800BDF8F2
:101570000E00ADF81A008DF81D800298082700F0C3
:101580000300012802D0022818D032E002983B461E
:10159000860AC0F3C2008DF81C00029808A9C0F3A7
:1015A0008315AA00019803F002FF2069009005ABA3
:1015B0002A4608A9304603F041FE1AE00298850D3C
:1015C000C0F3C2008DF81C00082D01D22E4600E0A9
:1015D00008263B46324608A9019803F0E8FE374446
:1015E000AD1B05AA314608A8236903F007FD002DAD
:1015F000EAD1019803F0CCFEE068002201A940681E
:10160000006803F0E5FE0028A5D0012071E7000086
:101610004C6F7374206C6F6773202D20696E63723A
:1016200065617365206C6F67206261636B656E64D2
:101630002071756575652073697A652E0A00000052
:1016400030B4406804682469A44630BC60472DE982
:10165000FC41002604460127019601AB01226946A0
:101660002046FFF7EDFF0198002836D09DF80000D6
:101670007F28F2D803F0ABFEA068417821B10129A0
:101680006FD002296ED18DE09DF800500D2D09D04C
:101690000A2D07D0D0F84821002161F38D12C0F83F
:1016A000482122E0D0F84811C1F3871129B1D0F8C0
:1016B0004811C1F38711A94217D1D0F8481165F339
:1016C0008D11C0F84811A068817F41B12046FFF715
:1016D00013FE0221204600F0F5F8BDE8FC81C0F8B9
:1016E0004461204600F0EEFEF3E7092D1ED004DC35
:1016F000002DB2D0082D04D121E01B2D12D07F2D5A
:1017000026D0FEF76FFE0068405D10F03E0FA4D0BB
:101710002046FFF7D9FE30B39DF800102046FFF7B2
:101720002DFD9AE7A1680120487096E72046FFF753
:10173000CBFE002891D0204600F0DEF88DE7204651
:10174000FFF7C2FE002888D02046FFF771FC84E72F
:101750002046FFF7B9FE0028E3D02046FFF7C4FC7F
:101760007BE716E019E0A1689DF80020887F7F28BC
:10177000D7D2C87F0B18401CC87783F82020A068F8
:10178000C17F084480F82060A168887F401C88776A
:1017900063E79DF800105B2901D0002100E00221E1
:1017A00041705AE7002141702046FFF78DFE002866
:1017B00093D09DF80000422840D01BDC33287CD019
:1017C00012DC312872D03228ABD1A16803204870D6
:1017D000A068D0F84811D0F8482127EA010161F348
:1017E0000002C0F8482138E7342856D0412898D163
:1017F000012124E0462853D01BDC432823D0442871
:101800008FD1204602F020F805460078A979491CBE
:10181000884202D1A978012987D001284FF001011F
:1018200020462FD000F042FEA168C87F401EC87736
:1018300013E748283DD04C2889D1C9E7002120462C
:1018400001F03EF909E7204601F0FEFF0546007869
:101850006978884203D1A978EA78914298D0697969
:1018600088424FF00101204606D100F0ADFD6979B4
:10187000204600F01BFE01E000F0F2FEA168C87FE8
:10188000401CD4E700F0F8FE6979204600F0E8FE3D
:10189000A068C17F491EC177DFE6A16803204870B8
:1018A000204600F09DFDD8E607E0FFE7A168032091
:1018B0004870204600F0BDFDCFE6A16803204870C7
:1018C00046E700008268022911700CD1826800216D
:1018D00082F820108268D1778268917702A2032172
:1018E000036802F0C5BB704725730000002801D0D3
:1018F000FEF7FCBD704700002DE9F04F05460020C3
:10190000A7B007461590064620900690A868817FEC
:10191000C1F17F01C9B25FEA010970D0C27F00F155
:101920002001A030FEF7B0FDA8680024C17F084464
:1019300080F8A040FEF756FD21900168A8680C23AE
:10194000C27F0244D27F895CC0F84441AA6801F09A
:10195000010A07A916A8A03201F050FE0798FFF768
:10196000C5FF00F0FF08A34617941894169818B105
:101970005044401EB0426CD8BAF1000F01D0002094
:1019800005E007A850F82600FFF7B0FFC0B2804678
:10199000002419A822460090641C17AB3146584613
:1019A00000F02EFA179800286CD0016807A842466C
:1019B00050F8260001F0AFFA0028EAD018987F1CF2
:1019C000F0B117980068FFF791FF0699C0B28842FE
:1019D00000D90690B9F1000F2ED022A8009018ABC4
:1019E00031465846159A00F00BFA17980168189876
:1019F00001EB08020168002001EB080316E08DE00E
:101A0000601E209017980068FFF770FFC0B2069024
:101A1000A0EB080048450FDAC0B20CE013F800C094
:101A2000614506D1401C10F0FF0010D0115C002968
:101A3000F4D1814500D98146601E15901798189001
:101A4000A7D266A20421284602F012FB1AE0FF206A
:101A5000EFE7002419A822460090641C17AB31461A
:101A6000584600F0CDF9ECB31798002856D001681D
:101A700007A850F82600FEF740FD0028EAD1179885
:101A8000D0F808B0BBF1000F09D0179838B11699FB
:101A9000761CF6B201EB0A008642FFF467AF002F16
:101AA0003CD0012F43D000212846069A04F040FC88
:101AB000209C0DF11C0A19A822460090641C17AB4B
:101AC0003146584600F09CF91798424601685AF88A
:101AD000260001F020FA40B117987F1E069A01688F
:101AE000284600E01DE004F023FC002FE3D146A2CD
:101AF000032128462B6802F0BBFAAB6843A20821F9
:101B00002846203302F0B4FA284600F073FD1898F6
:101B10004A4601682846414400F028FA27B0BDE84B
:101B2000F08F2EA20421284602F0A2FAF6E79BF8D5
:101B3000000038B119A8009018AB31465846159AE4
:101B400000F05EF918980068FFF7D0FE404506D017
:101B500018984A4601682846414400F007FA21983F
:101B6000A9680268C87F0B1893F82030D25CD207AE
:101B700015D0897F8842D1D2284601F065FE84784D
:101B8000A868C17F491CC177284601F05DFE8078B6
:101B9000A0421FD10121284600F062FDBEE7D1F826
:101BA0004801C00711D0D1F8480120F00100C1F868
:101BB000480120212846FFF7E1FAA868D0F848112B
:101BC00041F00101C0F84811A8E720212846FFF79D
:101BD000D5FAA3E7284600F075FC9FE75461622020
:101BE00066756E6374696F6E3A20636F6D6D616EBA
:101BF000647320636F756E746572206F76657266AC
:101C00006C6F7765642E0A000A2573002573000047
:101C1000002806D08868D0F8481141F02001C0F8AB
:101C20004811704770B5044640680D4690F828008A
:101C300030B1A0680068FFF78CF808B108280CD113
:101C4000012685B1606902F067FD616800220831F4
:101C5000606902F01DFD08B1062070BD606880F863
:101C60002960002070BD606890F8280048B9074AD4
:101C70000021A068FFF71AF86168002881F8286041
:101C8000F0D12046BDE8704004F0F8BCE1690000E6
:101C900070B5044640680D460260606800224360EB
:101CA000606880F82820606880F829206068202219
:101CB0000830FEF7E9FB2C61074A2946606902F00B
:101CC000E7FC050005D1E06803F0BAFD206903F0E8
:101CD000B7FD284670BD0000056B00001A60C068A3
:101CE0001A4603F0EBBC10B50446406902F014FD3F
:101CF000A0680068BDE81040FFF72BB87CB51A60FB
:101D0000044600691A4603F017FD050025D16069F5
:101D1000134A0178515C19B1001D04F077FA02E012
:101D20000C3004F0D7F8C0B9FF20009001236A46B8
:101D300001A9206903F04CFD78B900980199C2B25D
:101D4000606902F0D9FC0546606890F8290020B16E
:101D50001DB92069009903F028FD28467CBD0000CC
:101D6000D80000202DE9F8431E4615468846074650
:101D700000241BE0786808EB04016B460268D2F887
:101D80000CC02A46E047009804442D1A70B9B86880
:101D9000017803290AD000BFD0F848118906FBD585
:101DA000D0F8481121F02001C0F84811002DE1D1F0
:101DB000002E01D000983060BDE8F88370B5084C63
:101DC000050009D010342168002907D00868206078
:101DD000496828468847F6E70834F4E770BD0000F4
:101DE00060060020054A012120B1012805D191702B
:101DF000FFF7E4BF51700020FAE77047600600204B
:101E00002DE9F05F1C460A9E15464FF0000959B1B6
:101E100080B3017839B3426831462846904730682C
:101E2000D8B12660BDE8F09F14491548A1EB000821
:101E3000B5EBD80F11D2DFF84CA00026834609E09D
:101E40000BEBC607786801685AF82500FEF755FBCA
:101E500030B1761CB6EBD80FF2D3C4F80090E1E7AE
:101E600078682060DEE7406800EB0210016809B185
:101E70001860D7E7FFE7C3F80090D3E7A87E00001B
:101E8000687E0000000200202DE9F04185680646CA
:101E9000002495F82000002811D0A046FEF7A2FAF1
:101EA0000746006804F1200104F10104695CE4B212
:101EB000415CC90705D0002CF4D185F82080BDE82D
:101EC000F081641E14F0FF040FD0A87F021B04F100
:101ED0002000291805F12000521CFEF7D5FAB16840
:101EE000887F001B8877B168C877B2683D68937FA8
:101EF000D0181F300446002102E0491CC9B2401E20
:101F00000778EF5DFF07F8D18442D8D05B1A203301
:101F100002F80380B268907F401A9077B168C87762
:101F2000CDE7000010B5044608482258002A0CD01E
:101F3000D0F80403084208D0204602F0F1FA044920
:101F400020464968BDE81040084710BD00300140F8
:101F5000F400002010B5D0E90234D1E90220D11AF2
:101F6000A04101D3012010BD002010BD2DE9F0419A
:101F70000446806815460F46827FC17F531A2A4463
:101F8000DEB27F2A37D8002D35D0084400F1200179
:101F900005F120021044721CFEF776FAA0682A466A
:101FA000C17F084439462030FEF76EFAA068203021
:101FB000FFF79CFCA16811A28877A068C17F431835
:101FC00008212046203302F053F8A068C17F29443D
:101FD000C177204600F057FA18B9204600F043FDBB
:101FE00010B1204600F06EFA002E04D02046BDE865
:101FF000F04100F0FFBABDE8F08100002573000059
:102000002DE9F05F534C5549554B534EC91A227870
:10201000C908002770884FF005084FF01E0A04F128
:10202000100904F1180B08EB0145062A28D2DFE855
:1020300002F0270319294F5E032804D32846012202
:1020400048A102F0CBFF00204946431E4FEA0B0295
:1020500041F8207042F82030401C0228F8DB0220B2
:10206000207033E0E16800290AD1032804D3284610
:10207000022244A102F0B2FFC4F80CA00320207099
:10208000BDE8F09FE0680028FAD10420207002F03B
:10209000CBFA40B17088032803D3284644A102F04C
:1020A00099FF2770ECE702F0B9FA0028FBD170889D
:1020B00003280BD3284649A102F08CFF708803281F
:1020C00004D3284603224DA102F088FF0F200CE024
:1020D000E1680029D4D1032804D32846042229A189
:1020E00002F07CFF84F800805046E060C8E7E068BA
:1020F0000028C5D1277002F097FA40B170880328F4
:10210000BED32846BDE8F05F29A102F063BF02F00C
:1021100085FA0028FBD17088032803D328462FA115
:1021200002F058FFD9F80020DBF80030D9F804009D
:102130001A445208DBF80410626008444308A360A4
:10214000708803289CD32846BDE8F05F33A102F0D5
:102150004CBF00005400002070020020687F000087
:10216000C87E00005B535445503A2025645D2054DE
:102170006F75636820626F746820706164732E0AE3
:10218000000000005B535445503A2025645D204D0B
:102190006561737572656D656E74207374617274B8
:1021A00065643A20776169742033730A0000000087
:1021B00053656E736F722042757379202D20636FA3
:1021C0006E66696775726174696F6E207465726D91
:1021D000696E617465642E0A000000002D3E206D5A
:1021E0006561737572656D656E742066696E69737D
:1021F000686564204F4B2E0A000000005B53544575
:10220000503A2025645D2052656C656173652062DB
:102210006F746820706164732E0A00000A4E65773F
:10222000207468726573686F6C64733A0A09414977
:102230004E31203D2025640A0941494E37203D207A
:1022400025640A4D6F64756C652072656164792E32
:102250000A000000012904D9136807A2022101F035
:1022600007BF0C490A781AB10BA2042101F000BF84
:10227000012008707047000025733A20746F6F20AA
:102280006D616E7920706172616D65746572730A3B
:102290000000000054000020636F6E66696775726D
:1022A0006174696F6E20616C7265616479206F6E14
:1022B000676F696E670A000038B5114C0546E07E0D
:1022C00002F00CFC607E04EB40000581ADF800508C
:1022D000607E8DF80200207F627E0121914088435C
:1022E000207702D1207607490860616868468847F0
:1022F000207F002803D0FEF791FE02F095F938BD4B
:102300006407002000750040144A83781178012B7F
:1023100010D0022B0ED0072B1FD1032919D005296D
:1023200017D00088916888424FF002000CD300BF9C
:10233000FEF7F8BD032909D0052907D000885168A8
:1023400088424FF00000F3D2FEF7E4BD0088002180
:1023500001E00088012100F0FBBA70475400002022
:1023600008B5002000901A208DF800000549684645
:1023700002F030F908B1FEF787FC822002F01CF968
:1023800008BD00000923000010B502F04DF9002837
:102390000FD00848408803280BD307480749BDE8F9
:1023A0001040401AC008052101EB004004A102F0D2
:1023B00011BE10BD70020020687F0000C87E0000C2
:1023C000427573792E000000002904D00A46006986
:1023D00001A102F0ADB970471B5B2564420000000B
:1023E00070B5054601F030FA0446007861788842FD
:1023F00003D1A078E17888421AD0E178A0788142B0
:1024000004D9081AC1B22846FFF7DEFF20786178A8
:10241000884205D9401AC1B2284600F047F804E0C6
:10242000081AC1B2284600F01BF9A868817FC1775D
:1024300070BD70B5054601F007FA04460178807951
:10244000401C814202D1A07801281BD0A07801282D
:1024500004D9401EC1B2284600F00EF92078A179B7
:10246000884206D9401A401EC1B2284600F01EF824
:1024700005E0081A401CC1B2284600F0F1F8A9682E
:102480000020C87770BD10B504460068FFF72EFA2B
:102490000146A068C27F407E1144B1FBF0F200FB10
:1024A000121008B1002010BD012010BD002904D079
:1024B0000A46006901A102F03BB970471B5B256425
:1024C00044000000006901A102F032B90A000000D6
:1024D0002DE9FC47002604468DF8046080683546E7
:1024E000B146B0468021A030FDF7F5FF4049206994
:1024F00002F01EF9206902F028F900276B4601223C
:1025000001A92046FFF79CF80098D8B19DF8040077
:102510001B2806D0A16891F8A0101B29EED15228E3
:102520001FD0A26808F1A001505408F1010000F08A
:10253000FF08B8F1090F0AD9A168042081F8A0901A
:10254000BDE8FC872A494FF6C01010318847009833
:102550000028D3D17F1CBFB2B7F57A7FCED30D2030
:10256000EEE7A16808F1A0004A4601F80090A168D2
:1025700091F8A1005B2803D081F8A0200B20DFE7B1
:1025800002206FF02F0309E005EB850503EB4505FD
:10259000401C3D44C0B2ADB2802808D200F1A00773
:1025A000CF5D3B2FF0D1401CC0B2802809D30C2056
:1025B000C6E700BF06EB860603EB46063E44B6B20E
:1025C000F1E700F1A007CF5D002FF3D1FA20FA2E3A
:1025D00001D9087500E00E75FA2D02D9A168887539
:1025E00001E0A0688575A06880F8A0200020A7E71A
:1025F0004172000070B5054601F026F90446807866
:10260000E178884201D1012600E000262846FFF744
:102610003AFF18B9284600F026FA10B12846FFF70D
:1026200051FF1EB160782178401A12E0E078A1785D
:10263000401AC1B2284600F01FF82078617888421D
:1026400006D9401AC1B22846BDE8704000F008B86B
:10265000081AC1B22846BDE87040FFF727BF000046
:10266000002904D00A46006901A102F061B8704750
:102670001B5B256443000000002904D00A46006962
:1026800001A102F055B870471B5B256441000000B2
:1026900010B50021024801F060F980F3100010BD70
:1026A000380D00204FF480328A400168C1F8482379
:1026B0000068C0F8082370474FF4A07202EB810154
:1026C00089B200F03AB92DE9F04105460E464FF4C3
:1026D000A07000EB860081B228684FF48034B440CB
:1026E000984622F07F47C0F808432868C0F848435E
:1026F000286803F0CBF8286800EB8600C0F8407526
:102700002868C0F84443B8F1000F02D02868C0F828
:102710000443BDE8F0810068D0F80405704700006C
:1027200070B54379274C2A4D44F823204279231D64
:1027300003EBC202254C1679234A121BD40846B17A
:102740006888082602283AD3022000EB044021A121
:1027500033E006680A88C6F8082590F904208978CD
:10276000002A4FEA411104DB02F1E02282F8001452
:1027700005E002F00F0202F1E02282F8141D90F948
:1027800004100122002909DB01F01F0602FA06F6F7
:102790004909890001F1E021C1F800614179002671
:1027A00003EBC1010A71417943F8310068880328BD
:1027B00005D3032000EB04400FA102F00BFC3046D0
:1027C00070BD000044010020387F0000C87E00007A
:1027D0005802002052544320696E7374616E636521
:1027E00020616C726561647920696E697469616CDD
:1027F000697A65642E0000005254433A20696E697C
:102800007469616C697A65642E00000090F90400B7
:10281000002809DB00F01F020121914040098000DF
:1028200000F1E020C0F8001270470A46022100F0D3
:102830007BB84FF4827100F080B80068012101601C
:10284000704700680121416070472DE9F05F07463D
:102850000C464FF4A07000EB84001FFA80FA386831
:102860004FF48036A6409B4622F07F45C0F848636F
:102870003868C0F808633868D0F8048500EB840233
:10288000D2F84095C2F840855146386802F0FEFF04
:10289000A9EB080020F07F40012806D1102003F0AA
:1028A000A9F85146386802F0F1FF3868D0F804857D
:1028B000C0F84463A5EB080121F07F413868012985
:1028C00000EB840010D0C0F840553868D0F80415EB
:1028D0006FF07F4C6A1A521E22F07F42ACEB0B0362
:1028E000934217D362B118E06D1CC0F84055102018
:1028F00003F080F83868D0F8040540450AD10CE0B0
:1029000000EB84006D1CC0F840553868D0F8040511
:10291000884202D00D20BDE8F09F012231463846A2
:1029200000F002F80020F6E70368C3F84413002A19
:1029300002D00068C0F80413704710B50068425810
:102940001AB102F0A3FF012010BD002010BD00004D
:10295000074A52F82130834201D242F82100044A4A
:10296000083252F82130834201D942F821007047E1
:10297000640000202DE9F05F17460E00814670D0FC
:1029800013B1F9B2FFF76CFE0024FDF72BFD824670
:10299000006800E0641C315D415CC907FAD1002584
:1029A0003046FEF7A3FFD9F80810001B4A7ED11B62
:1029B000814228D306EB040805E000BF18F8051093
:1029C0000A290CD06D1C8542F8D33119D9F81000B2
:1029D00001F0AEFE4846BDE8F05FFFF773BDD9F8E1
:1029E000100001F0B2FE414600232A464846FFF798
:1029F000B9F92C444846641CFFF764FDF9B2484617
:102A0000FFF72EFEE1E78B46DAF8001006EB04082C
:102A100018F805000B5CDB0702D0AB460A2804D08F
:102A2000E819904201D26D1CF2E7D9F8100001F0CC
:102A30008CFE414600235A464846FFF793F95C4412
:102A4000DAF8000000E0641C315D415CC907FAD18E
:102A50004846FFF737FDF9B24846FFF701FE9EE70B
:102A6000FFE7BDE8F09F10B504460068FEF73EFFA3
:102A70000146A068827F407E1144B1FBF0F200FB6A
:102A8000121008B1002010BD012010BD10B50B4878
:102A9000FFF741FE094A083AD2E90434C018D2E9E6
:102AA000063244F10001C31A71EB020204D24FF066
:102AB0008072801841F1000110BD0000100100205B
:102AC000FEB5002604460096019602968068E9B39A
:102AD000D0E950128A4272D0D0F83C0100286ED062
:102AE0002046FFF7A6FCA068D0F84451002D69D01D
:102AF000002309226946284602F059FCA1689DF886
:102B000008500098C1F84401A06800230922D0F8B9
:102B10004401694602F04BFCA1689DF80820092396
:102B2000D1F844012031521C02F041FCA1689DF80B
:102B30000800C877A1689DF8080088779DF808000C
:102B4000A84202D22046FEF7B9FB00E00BE0A368E2
:102B50002BA208212046203301F08AFA2046FFF7F5
:102B600092FC68BB43E0D0F84401002847D02046DF
:102B7000FFF75FFCA06800230922D0F844016946F2
:102B800002F015FCA0680199C0F84411A068002962
:102B9000857FB9D1A030FEF7A9FE0028A06805D036
:102BA00000F1A0012030FDF7B6FC01E080F82060C4
:102BB000A0682030FEF79AFE8DF80800B6E71EE008
:102BC0001AE0FFE72030FEF791FE10F0FF05A06845
:102BD000D0F83C11C0F84411A06805D000F12001E4
:102BE000A030FDF798FC8FE780F8A0608CE72046C6
:102BF000FFF739FF002802D02046FFF763FCFEBD37
:102C000025730000FEB50D46816804460026D1F804
:102C10003C0138B300230922694602F0C8FB019544
:102C2000A06800230922D0F83C01694602F0C7FBE6
:102C30000196A068D0F83C110091807F8DF80800C3
:102C4000A068C0F83C51002309226946284602F0DA
:102C5000B6FBA168092328468A7F2031521C02F066
:102C6000AEFBFEBDC1F83C51A068C0F840510096D3
:102C70000196A068807F8DF80800E4E7FEB5044661
:102C80008068D0F84061002E28D0002309226946D0
:102C9000304602F08CFBA16801980025C1F8400184
:102CA000009501952B46092269463046029502F0AF
:102CB00086FB304602F04DFBA168D1F8400170B1AF
:102CC00000230922694602F072FB0095A0680023E8
:102CD0000922D0F84001694602F071FBFEBDC1F83F
:102CE0003C51FEBDFEB5044680682030FEF7FEFD77
:102CF00010F0FF05A0684FF00006C0F8446133D023
:102D0000A068D0F83C01E0B100230922694602F036
:102D10004EFB9DF80820AA4213D1A068092300F1B8
:102D2000A001D0F83C01521C02F041FBA06800F168
:102D3000A0012030FDF7E1FB0028A06880F8A0602A
:102D400012D000260A352946606902F0D2FA010045
:102D5000204604D003B0BDE8F040FFF753BFFFF7B3
:102D60008DFF761C082EEED3FEBD00002DE9FC5F22
:102D70000E008346DDE90C47C6F1000098469246F6
:102D8000814600D40846012503E000BF90FBFAF01D
:102D90006D1C5045FADAA84500D9454624B1002EED
:102DA00001DB780700D5641EB80702D5B8F1000F23
:102DB0000AD0F80708D13CB1A54205D220215846D7
:102DC000641EFEF707F9F6E7002E02DA4E462D21C3
:102DD00002E0780703D52B215846FEF7FBF807F0F1
:102DE000030002280BD1B8F1000F08D13CB1A54275
:102DF00005D230215846641EFEF7ECF8F6E7CDE91F
:102E00000047434652463146584604F031F8BDE883
:102E1000FC9F000070B50D46044600684FF48871B1
:102E200002F0A4FD4FF49071206802F09FFD4FF472
:102E30009271206802F09AFD4FF4A271206802F0AE
:102E400095FD4FF4AC71206802F090FD20681249A6
:102E5000C0F804132068690740F30730090E002802
:102E600004DB00F1E02080F8001405E000F00F0022
:102E700000F1E02080F8141D206840F3073000289E
:102E800009DB00F01F02012191404009800000F1A0
:102E9000E020C0F8001170BD10034200024600207F
:102EA0001268530713D502F00300012802D002284C
:102EB0000CD105E0C2F383100B68801C184404E0B9
:102EC0000223086803EB9252104408600120704707
:102ED0002DE9F041174688460646002417E000BF5A
:102EE0004FF4A07000EB84054FF480307159A0407E
:102EF00059B1D6F80413014207D02946304602F0F2
:102F000019FDD8E9002128469047641CE4B2BC4270
:102F1000E6D3BDE8F08110B5FDF706FB08B100204F
:102F200010BD012010BD0268134602E08A4204D0A1
:102F30001268002AFAD10B6001607047014B00F063
:102F4000CDBD000009310000014B00F0C7BD0000FD
:102F5000D5320000014B00F0C1BD0000DD320000A1
:102F6000014B00F0BBBD0000BD3300007CB5144632
:102F70000546012902D001F0E1F938B102B0284636
:102F8000BDE870400022114601F09AB8616805A0C2
:102F9000CDE9000109A202212846236801F068F862
:102FA0007CBD000020756E6B6E6F776E2070617255
:102FB000616D657465723A200000000025733A2542
:102FC0007325730D0A0000002DE9FC41074601F04E
:102FD000B5F938B102B03846BDE8F04100221146DB
:102FE00001F06EB81248134E801B050900241AE048
:102FF00006EB0410C2681179FF2903D0527942B15F
:103000000DA207E083680EA20821384601F030F8CF
:1030100008E013A2CDE90021836814A208213846F4
:1030200001F026F8641CAC42E2D3BDE8FC8100004C
:10303000C87E0000A87E0000656E61626C65640059
:1030400025730D0A092D205374617475733A206439
:10305000656163746976617465640D0A0D0A000028
:1030600064697361626C65640000000025730D0A79
:10307000092D205374617475733A2025730D0A0964
:103080002D2049443A2025640D0A0D0A0000000055
:1030900010B5044601F052F930B120460022BDE8D7
:1030A0001040114601F00CB82046BDE8104002A2C5
:1030B000022100F0DDBF00004E6F74207375707048
:1030C0006F727465642E0D0A0000000010B504468E
:1030D00001F034F930B120460022BDE8104011461D
:1030E00000F0EEBF2046BDE8104002A2022100F031
:1030F000BFBF00004E6F7420737570706F7274657F
:10310000642E0D0A000000002DE9FF4FC86881B051
:103110001D46007917004FF00006009057D0072297
:1031200045A12868FDF700FA78B1082244A1286873
:10313000FDF7FAF900282FD02B6843A2019805B0BB
:103140000221BDE8F04F00F093BF012F02D0022F03
:1031500008D008E0019805B041A2BDE8F04F022177
:1031600000F086BF0126DFF8108100240A2258F8FB
:1031700024106868FDF7D8F910B1641C052CF5D34C
:10318000052C06D004F0FF090224002E51D00024A3
:1031900019E03AA26B68D1E7012F4FF00009F6D091
:1031A000012446E04A462146009800F013FB48B946
:1031B0000021204602F020F8034638A2022101989F
:1031C00000F056FF641C01F0C1FFA042EAD805B030
:1031D000BDE8F08F4FF0000A55F824B001F0B6FFBB
:1031E0008046002609E00021304602F005F8202242
:1031F0005946FDF799F958B1761C4645F3D3464533
:1032000008D04A465146009800F0E4FA30B10FE089
:10321000B246F4E755F8243029A205E000215046D3
:1032200001F0EAFF03461DA20221019800F020FFF1
:10323000641CBC42CED3CAE7656E61626C65000057
:1032400064697361626C6500556E6B6E6F776E209A
:103250006F7074696F6E3A2025730D0A00000000CC
:1032600042616420706172616D6574657220636F84
:10327000756E742E0D0A000084010020556E6B6E71
:103280006F776E207365766572697479206C6576E8
:10329000656C3A2025730D0A000000004C657665C8
:1032A0006C20756E617661696C61626C6520666F19
:1032B00072206D6F64756C653A2025730D0A0000ED
:1032C000556E6B6E6F776E206D6F64756C653A2509
:1032D000730D0A00C968012048717047C968002051
:1032E0004871704730B41346C4680A46214630BC62
:1032F000FFF70ABFC0680121C06841717047C0680C
:103300000021C0684171704730B41346C4680A4652
:10331000214630BC00F052B82DE9FF410026244878
:1033200000F0FFFA2248001F074600F0FAFA214C8D
:103330002149A06800900D6800E000986946284087
:1033400004EB80000C30FFF7A9FD0028F5D101AA9D
:10335000009901EA050304EB8303491CDB6842F88A
:103360002030401C00910228F2D3019800F00300A5
:1033700001280BD0022810D10198032101EB9050B5
:103380000099BDF80A6001EB900005E00198BDF8D6
:103390000A60C0F3831008440090384600F0BEFA7B
:1033A00008B10098A06004B03046BDE8F08100008C
:1033B000340D00201C090020800100202DE9FE4F63
:1033C0008846824601F0C2FE0746D8F80C004079D4
:1033D00020B922A20221504600F04AFE24A327A2CF
:1033E0000821504600F044FE2CA20821504600F06F
:1033F0003FFE00242DE000BFD8F80C0001231A4640
:1034000005792146284601F0ABFE814600230122C2
:103410002146284601F0A4FE0546032801D20646AF
:1034200000E003260121204601F0E6FE0346AE42FD
:1034300001D22AA200E028A2294850F8261050F80C
:1034400029008DE8070027A20821504600F010FE51
:10345000641CBC42D0D3BDE8FE8F00004C6F677384
:10346000206172652068616C746564210D0A00003A
:103470006D6F64756C655F6E616D6500252D343010
:1034800073207C2063757272656E74207C20627577
:10349000696C742D696E200D0A0000002D2D2D2DF4
:1034A0002D2D2D2D2D2D2D2D2D2D2D2D2D2D2D2D4C
:1034B0002D2D2D2D2D2D2D2D2D2D2D2D2D2D2D2D3C
:1034C0002D2D2D2D2D2D2D2D2D2D2D2D2D2D2D2D2C
:1034D0002D2D2D2D2D2D0D0A000000002A0000009D
:1034E00084010020252D343073207C20252D377356
:1034F000207C20257325730D0A0000008AB04FF44C
:103500008041002001F0D2FD08B1FDF7BDFB012094
:10351000FDF7D6FC01F00EF8002410B1FDF7B4FB66
:1035200002E0002001F024F8FDF7CCFB08B1FDF724
:10353000ABFB2022204901A8FCF7A6FF0620019042
:1035400008200290032000901B4801238DF81840AA
:103550001A4601A9183800F0F7FE08B1FDF794FBF0
:103560001548183800F0A8FF08B1FDF78DFB144886
:103570001449124D401AC0086A88052101EB004425
:10358000032A03D3204610A101F024FDFEF7E8FE34
:103590006888032803D32046174901F01BFD03F078
:1035A00037F900BF01F0DCFB0348183800F04AFF90
:1035B000FEF726FD30BFF5E718700000700200200E
:1035C000687F0000C87E00004361706163697469B0
:1035D00076652073656E73696E67206472697665BF
:1035E00072206578616D706C6520737461727465AA
:1035F000642E200A00000000E87400002DE9FF4F4F
:103600004FF0000881B014468B468146C246C0F890
:1036100000802578002D71D0FCF7E4FE0090006852
:10362000405DC00702D004F801AB84E0D9F8000087
:103630008300401CC9F800004BF8034015E02678D1
:10364000002E78D0B8F1000F05D1222E10D0272EF1
:103650000ED05C2E1ED0B04514D12046FEF746F9A0
:103660000246611C2046FCF70FFF4FF00008E6E71A
:103670002046FEF73BF90246611C2046FCF704FF9A
:10368000B046DCE7B8F1000F50D05C2E61D1607815
:10369000404508D12046FEF729F90246611C204624
:1036A000FCF7F2FE55E030281CD100270225605DB2
:1036B000A0F13001072906D86D1C41EAC701EDB21F
:1036C000CFB2052DF3D3022D0CD92046FEF70EF90B
:1036D000421B61192046491E921CFCF7D5FE04F8D6
:1036E000017BACE778281ED100270225605DA0F1A0
:1036F0003001092903D841EA07100DE021E0A0F1CB
:103700006101052901D8573804E0A0F141010529DC
:1037100007D8373840EA07106D1CEDB2C7B2042D48
:10372000E4D3022DD1D8B8F1000F12D1009800686F
:10373000805DC0070DD0D9F8001004988142FFF4D5
:1037400068AFD9F8002040464BF822A005B0BDE88C
:10375000F08F641C73E72DE9F047C5881E1DB6FB8A
:10376000F5F78946B6FBF5F1044605FB176C407981
:1037700016686843DDF820A0F718001F874200D9BB
:10378000C61A166001E02468491E0029FBD1A5EB8A
:103790000C078846B74216D818E004EB0C00001D51
:1037A00009EB0803BAF1000F3A4602D00146184669
:1037B00000E01946FCF768FE2468F61B4FF0000C89
:1037C000B844B54201D9374600E02F46002EE4D177
:1037D000BDE8F08770B5144600230D4606461A462C
:1037E00001F0BEFC844201D9002070BD224629466A
:1037F000304601F0D9FC012070BD000030B5024612
:1038000051B101F0A3FC0021074C08E034F821304D
:103810001568AB4202D11160002030BD491C8142C5
:10382000F4D3052030BD00002002002010B50C4666
:103830000021E16061600349A160012101F0DCFC2D
:10384000206010BDF472000070B58468006804F157
:103850001405FEF74BF8C1B2A971E07F6A790844FC
:10386000B0FBF2F302FB13035B1C2B70E07F0844F8
:10387000B0FBF2F35B1CAB70A07F0844B0FBF2F32B
:103880005B1CEB70A07F0844B0FBF2F102FB11015E
:10389000491C6970284670BD10B531B1B2FBF3F414
:1038A00003FB14241CB1092010BD0E2010BD0160C3
:1038B0000021416081608281C381084610BD70B5DE
:1038C0000C460546FCF7A6FC002802D02188286893
:1038D000084470BD10B50A8849888A4203D1FCF7B4
:1038E000DBFC012010BD002010BD70B50C46054664
:1038F000FCF7B5FC002802D061882868084470BD38
:1039000010B50A8849888A4203D1FCF79FFC012040
:1039100010BD002010BD002100F00FB8002100F004
:1039200012B8012100F01EB8012100F011B808B54D
:103930006A46FCF706FD009808BD08B56A46FCF724
:10394000E6FC009808BD08B56A46FCF7E0FC08BD37
:1039500008B56A46FCF7CEFC08BD08B56A46FCF718
:10396000BDFC08BD08B56A46FCF7C4FC009808BD5C
:1039700008B56A46FCF7F2FC009808BD70B504462D
:1039800000252846FDF7ECF9216862680868904236
:103990000ED9401E08600178238BE26801FB0325E5
:1039A000227A2168101AC0B20A79824200D20871C4
:1039B0000020FDF7D7F9284670BD70B505460C46C6
:1039C0000020FDF7CDF9E868298B201AB0FBF1F152
:1039D0002A681068431C13600170BDE87040002025
:1039E000FDF7C0B910B530B1017A42680368891A91
:1039F000C9B21A6006E00E2010BD03681A68541C94
:103A00001C601170491EC9B2F7D200680021017113
:103A1000084610BD2DE9F0470646806888B0D0F80A
:103A20004801C0F3400038B108B03046BDE8F04767
:103A30000022114600F044BB012907D908B03046E6
:103A4000BDE8F0471DA2022100F012BB2049DFF8BB
:103A500084A0A1EB0A001C21B0FBF1F5002428E0B2
:103A6000C4EBC4010AEB81034FF000091F68D3E9DE
:103A700001103A793F78411AB3F81880C01B5B698E
:103A8000C0B2642712FB07F7B7FBF1FC642710FBF9
:103A900007F7B7FBF1F7CDE90621CDE9041CCDE925
:103AA00002700D4A08213046CDE9008900F0E0FAA5
:103AB000641CAC42D4D308B0BDE8F08742616420F6
:103AC000617267756D656E7420636F756E7400004A
:103AD000A87F0000707F0000F87500002DE9FF5FEF
:103AE0008B46164814499A46091A0F09914652F80E
:103AF000046C0025804607E008EB05143046A168F9
:103B0000FCF7FBFC18B16D1CBD42F5D30BE02100A6
:103B100009D0009804B04B465A46D446BDE8F04F51
:103B20005DF804EB6047009804B03346BDE8F05FF1
:103B300003A2022100F09CBAC87E0000A87E00000B
:103B4000496E76616C6964206261636B656E643A8C
:103B50002025730D0A00000070B515468268D2F862
:103B60004841C4F3400424B11A46294600F0A8FA9B
:103B700005E031B1536804A2022100F079FA012076
:103B800070BD002070BD000025733A2077726F6E03
:103B90006720706172616D6574657220636F756E08
:103BA000740A000010B5044602290CD1A068D0F8B0
:103BB0004801C0F3400030B120460022BDE810406B
:103BC000114600F07DBA064A06A1206900F0B0FD5A
:103BD000034A2069BDE81040093202A100F0A8BDE7
:103BE0003D72000025730000012907D0022909D188
:103BF0008168D1F84811C1F3400119B10022114682
:103C000000F05EBA01A2022100F032BA506C656188
:103C100073652073706563696679206120737562CE
:103C2000636F6D6D616E642E0A0000001CB5012982
:103C300005D002290BD014D94FF0010112E002B0D7
:103C40004FF00002BDE81040114600F039BA536849
:103C500008A1CDE9001313680CA2022100F008FAB4
:103C60001CBD002102B00023BDE810401A46FFF73A
:103C700073BF000020756E6B6E6F776E207061727F
:103C8000616D657465723A200000000025733A2565
:103C90007325730A0000000010B50446012901D005
:103CA000012100E0002100231A46FFF755FF0028FC
:103CB00009D1A168C1F83801E06840680068BDE832
:103CC000104001F0E4BB10BD3EB50546012901D00E
:103CD000012100E0002100231A46FFF73DFF0028E4
:103CE00018D1E86840680468204601F0CDFBC0B2F6
:103CF000642110FB01F2A168B2FBF1F2D2B2009292
:103D0000CDE90101A86804A20021D0F83831284685
:103D100000F0AEF93EBD00004C6F7374206C6F670D
:103D2000733A2025750A4D6178206C6F6720717594
:103D3000657565207574696C697A6174696F6E3A2E
:103D40002025752525205B25752F25755D0A00002A
:103D50007CB514460546012903D0022908D001216B
:103D600007E002B00022BDE87040114600F0A8B99B
:103D7000002100231A46FFF7EFFE002809D16168F1
:103D800004A0CDE9000109A202212846236800F021
:103D90006FF97CBD20756E6B6E6F776E20706172EF
:103DA000616D657465723A200000000025733A2544
:103DB0007325730A0000000010B50446012901D0E4
:103DC000012100E0002100231A46FFF7C5FE00286C
:103DD00006D1A068D0F8481121F00401C0F84811BC
:103DE00010BD10B50446012901D0012100E00021D9
:103DF00000231A46FFF7B0FE002806D1A068D0F8CD
:103E0000481141F00401C0F8481110BD7CB51446BA
:103E10000D460646022901D9012100E000210023B8
:103E20001A46FFF799FE002811D1022D05D0304621
:103E3000FDF74AFB60B10BA30BE061680AA0CDE976
:103E400000010FA202213046236800F011F97CBD69
:103E50000EA302B03046BDE870400DA2002100F074
:103E600007B900006F6E000020756E6B6E6F776E85
:103E700020706172616D657465723A200000000007
:103E800025733A257325730A000000006F666600EB
:103E90004563686F207374617475733A2025730AE3
:103EA0000000000010B50446012901D0012100E006
:103EB000002100231A46FFF74FFE002806D1A06814
:103EC000D0F8481121F00801C0F8481110BD10B514
:103ED0000446012901D0012100E0002100231A46F7
:103EE000FFF73AFE002806D1A068D0F8481141F04B
:103EF0000801C0F8481110BD7FB50446012901D062
:103F0000012100E0002100231A46FFF725FE0028CA
:103F100027D1A0680026D0F84051F5B101E0082E65
:103F20001BD20023092201A9284601F040FA9DF87E
:103F30000C20A16809232846A031521C01F037FA51
:103F4000A0683346A0300090029D761C05A2002197
:103F5000204600F08DF8002DE1D1A168002081F805
:103F6000A0007FBD5B2533645D2025730A0000003F
:103F70007CB515460446012903D0022917D9012131
:103F800016E0A16801F11802193102F0BFFC002807
:103F90001ED0A16850200FA24876A168182008768C
:103FA00002B02046BDE87040042100F061B8002155
:103FB00000231A46FFF7D0FD002809D1696814A034
:103FC000CDE9000118A2022120462B6800F050F82C
:103FD0007CBD00004E6F20726573706F6E7365203C
:103FE00066726F6D20746865207465726D696E61AC
:103FF0006C2C20617373756D6564203830783234B1
:104000002073637265656E2073697A650A0000002B
:1040100020756E6B6E6F776E20706172616D657466
:1040200065723A200000000025733A257325730A53
:104030000000000010B50446012901D0012100E074
:10404000002100231A46FFF787FD00280AD1064AFF
:1040500006A1206900F06CFBA16850204876A16899
:104060001820087610BD000056720000257300006D
:104070000FB438B5044607A80090A068D0F84821CE
:10408000520717D5C27E8A4214D0B0F81B50204682
:1040900002F066FF6A462069069900F062FBE9B209
:1040A000204602F05DFF290A204602F03BFF38BCA3
:1040B0005DF814FB6A462069069900F052FBF6E7AA
:1040C0002DE9F04F804689B017460C468648FDF72B
:1040D0000DFC054684483638FDF708FC281A1FFAFF
:1040E00080F9814881A223380090D8F8080008217F
:1040F00043684046FFF7BCFFD8F808004068FDF76A
:10410000F5FB054678482338FDF7F0FB284482B2DA
:10411000D8F80800002381684046FEF72BFC75A202
:1041200000214046FFF7A4FF0FB304B300251CE0B5
:1041300005EB450A04EB8A0BDBF80400FDF7D6FB20
:10414000064654F82A00FDF7D1FB311849450BD932
:10415000DBF80400FDF7CAFB064654F82A00FDF719
:10416000C5FB30441FFA80F96D1CBD42E0D35E48A8
:104170003638FDF7BBFB4844801C1FFA80F95A48CB
:1041800000904B465EA208214046FFF771FF09F1FF
:10419000030086B20790002332465BA14046FEF73B
:1041A000E9FB002C52D000254EE000BF05EB450A8C
:1041B00004EB8A0B54F82A00DBF804306BB350B3DD
:1041C000494956A23639CDE9001008214046FFF78B
:1041D0004FFF09F102000090DBF80400FDF786FBB9
:1041E000064654F82A00FDF781FB06443E4836385F
:1041F000FDF77CFB31180098401A801EC1B2404682
:10420000FEF72EFA3A224849D8F8100000F090FA4A
:104210000098401C0AE0009301E040B100904B463A
:1042200037A208214046FFF723FF079886B2DBF844
:10423000081029B1002332464046FEF79BFB02E0FE
:104240004046FEF73FF96D1CBD42AFD3D8F80800D9
:10425000C068002845D0814600200446064603ADCC
:1042600002903246761C02AB012148460095FDF7CC
:10427000C7FD029850B10068FDF738FBA042F0D9A5
:1042800002980068FDF732FB84B2EAE7012E28D0DD
:1042900026A200214046FFF7EBFE00263246761CA0
:1042A00002AB012148460095FDF7AAFD02980028BF
:1042B00017D0A11C8FB2006800903B4610A20821C5
:1042C0004046FFF7D5FE0298FF1CBAB2416821B103
:1042D00000234046FEF74EFBE0E74046FEF7F2F8CB
:1042E000DCE709B0BDE8F08F5C7200002573257330
:1042F000000000004F7074696F6E733A0A0000008E
:104300002020252D2A733A0053686F7720636F6D44
:104310006D616E642068656C702E0000202025732E
:104320002573257300000000B81200005375626306
:104330006F6D6D616E64733A0A0000008068D0F89A
:104340004801C0F3400070472DE9F0411E46054684
:10435000069F00F013F804000DD166B13946E868F5
:1043600000F0DAFB002802DA0420BDE8F081E868FA
:104370000121C06841712046F7E7000070B504468E
:10438000C068154623464068846060680268166805
:10439000254AB047002845D1606900F0F7FF0028A2
:1043A00040D1A168C1F83C01A168C1F840014FF4B7
:1043B000A671A068FCF78FF8A068D0F8481141F00A
:1043C0002001C0F84811A068D0F8481165F38201B7
:1043D000C0F84811A068D0F8481141F00801C0F8B1
:1043E0004811A1680120124B0870A1685020114AA1
:1043F0004876A1681820087600210C48D21A06E0F9
:1044000003EBC1046468246840F82140491CB1EB07
:10441000D20FF5D3072A04D9D108074B0422FBF7A2
:10442000E5FF002070BD0000111C0000000200200C
:10443000687E0000A87E0000056900000023FDF7EB
:1044400091BC000010B504468068102100F5A470EE
:10445000FFF788FAA0680078F8B101281DD002287B
:104460001BD12046FDF7F3F800212046FDF732F876
:1044700098B110A2032120462368FFF7F9FD2046DA
:10448000FDF722F848B1A3680AA20821204620338C
:10449000FFF7EEFD2046FEF7ADF8206900F055F974
:1044A000A068BDE810406FF0100100F5A470FFF7A0
:1044B00044BA00002573000070B504468068007897
:1044C000012801D0082070BD606801688A68002159
:1044D000904705000FD10821204602F041FD01213F
:1044E000204602F01FFD05A1206900F021F90221FC
:1044F0002046FDF7E7F9284670BD00000A0A0000D3
:1045000000F180400068002800D00120704708B505
:1045100000F18040002101600068009008BD0000AB
:10452000034908B50844002202600068009008BDF5
:104530000030014070B50C4C0125207808B185266B
:104540000BE00020A06060602061E060074801F09F
:1045500031FA064601F018FA257001F00DFA00B1A3
:10456000A570304670BD000060060020E51D00000B
:1045700070B5104D0446A87838B114B161680120B7
:1045800088470020FCF7ECFB0CE00020FCF7E8FB80
:1045900024B1084821461030FEF7C5FCE86808B988
:1045A00001F018FAE868401CE860BDE8704000209F
:1045B000FCF7D8BB60060020054901220A760222DA
:1045C0000A708A7E02438A760020087670470000CF
:1045D0006407002038B50D46D8B1D5B10E4C002186
:1045E00021760078E0760090684600F055FA009A4F
:1045F000032100EB8200C0F80017E07E00F06EFAA5
:10460000656002F0A5F8002802D10120207000208A
:1046100038BD072038BD0000640700200148007E37
:10462000704700006407002038B5154CA07E28B301
:10463000207F012550B913480560207E08B1112064
:1046400038BD2576A07E2077FCF7E8FC607E0E4919
:10465000401CC0B2C8710D490022C1F81425C1F830
:104660001005E07E0090684600F016FA00998D4033
:10467000C0F80C5501F0D2FA0028E1D1002038BD75
:1046800064070020007500405601002000700040C3
:10469000F0B505460478154889B0164640F8242040
:1046A000124A08690832A2F10C0742F82400487F38
:1046B000385520226846FBF7E7FE04942878385CDA
:1046C00048B10EB10A4A00E000226946281D01F0F7
:1046D00079FC09B0F0BD0EB1064A00E0002269463F
:1046E00005F10C0001F0B8FAF3E70000DC0000204F
:1046F0002D6D0000756B000030B40378054CE35C51
:104700001BB130BC001D01F02BBD30BC0C3001F0E2
:104710008DBB0000D80000200178044A515C11B123
:10472000001D01F081BD0C3001F0E4BBD800002079
:104730000FB408B50399002904D004AA00926A4670
:1047400000F00FF801B05DF814FB10B58268044664
:10475000002A05D0D4E90403216898470020A0600E
:1047600010BD2DE9FC4791460C00804676D014F828
:10477000011B39B125290ED04046FCF72BFC2078CF
:104780000028F4D198F80C00002867D04046BDE816
:10479000FC47FFF7DABF0020012221782B291BD02C
:1047A0002D2902D0302908D102E040F0010001E0BB
:1047B00040F00200641C002AEFD100252A290ED007
:1047C0002178A1F130020A2A11D205EB850201EB12
:1047D0004205641C303DF1E740F00400EAE7D9F8F7
:1047E00000100B1DC9F800300968641C0D442178C5
:1047F00000232E290BD114F8011FA1F130020A2A3F
:1048000005D203EB830201EB4203303BF3E76C2953
:104810000DD068290BD0692921D00BDC252918D0AF
:10482000582931D063290ED0642915D117E014F826
:10483000011FECE7702969D0732932D075291BD08C
:10484000782909D120E0D9F80000011DC9F800102D
:1048500001784046FCF7BEFB641C90E76CE0D9F899
:1048600000100A1DC9F800200968CDE900500A228D
:104870004046FEF77BFAEFE7D9F800100A1DC9F8A9
:10488000002009680A2206E0D9F800100A1DC9F8BC
:10489000002009681022CDE90050404602F0E8FAF5
:1048A000DAE7D9F8001000270A1DC9F800200E68C1
:1048B000C00705D112E04046761C7F1CFCF78AFB3E
:1048C00031780029F7D104E0202140466D1EFCF725
:1048D00081FBBD42C0D9002DF6D1BDE74EB13046B7
:1048E000FBF704FE074604E0202140466D1EFCF75E
:1048F00071FBBD4206D9002DF6D103E04046761C7F
:10490000FCF768FB31780029F8D1A5E7D9F8000059
:10491000011DC9F80010056830214046FCF75AFB1C
:1049200078214046FCF756FB08200021CDE9000124
:10493000034610222946B0E7BDE8FC872DE9FF4178
:104940001C46DDE90A7815460E46684600F07AF8FE
:1049500046EA450141EA840141EA072242EA084168
:10496000009A00EB8200C0F80017BDE8FF812DE936
:10497000FF411C46DDE90A7815460E46684600F000
:104980006FF846EA450141EA840141EA072242EA1A
:104990000841009A00EB8200C0F80017BDE8FF81D3
:1049A0002DE9FF411C46DDE90A7815460E466846AA
:1049B00000F064F846EA450141EA840141EA072231
:1049C00042EA0841009A00EB8200C0F80017BDE8F7
:1049D000FF811CB5002100910B4601220191FFF7D8
:1049E000C6FF1CBD1CB5002100910B4601220191A0
:1049F000FFF7D6FF1CBD1CB500220B4600921146E6
:104A00000192FFF7B4FF1CBD1CB500220B460092BB
:104A100011460192FFF7C4FF1CBD1CB50021009197
:104A20000B46012201911146FFF7A1FF1CBD1CB5E9
:104A3000002100910B46012201911146FFF7B0FFC2
:104A40001CBD00000168202902D24FF0A040704731
:104A500001F01F0101600148704700000003005091
:104A60000168202902D24FF0A040704701F01F01D9
:104A700001600148704700000003005001682029D0
:104A800002D24FF0A040704701F01F0101600148C1
:104A900070470000000300500168202902D24FF047
:104AA000A040704701F01F010160014870470000FD
:104AB0000003005001B56846FFF7D2FF009A0121BC
:104AC0009140C0F8081508BD01B56846FFF7D6FF4C
:104AD000009A01219140C0F8081508BD01B568464B
:104AE000FFF7DAFF009A01219140C0F8081508BDD0
:104AF00038B501240090684631B1FFF7A3FF009953
:104B00008C40C0F8084538BDFFF79CFF00998C40E9
:104B1000C0F80C4538BD00002DE9F041054620489D
:104B20000E460024D0F8103419460AE0CA681179FC
:104B3000A14205D1641C0A2CF6DB4FF0FF342BE0B8
:104B400011680029F2D1611C26D0E9680C71D0F8F7
:104B5000101459B1C968EA6809681160D0F81004E6
:104B6000C06805600027DFF83C8011E0C0F81054F1
:104B7000E96800200860F5E708EBC700C279B24297
:104B800000D33246E8683946007900F00DFB7F1CFF
:104B900000F0DCFAB842EFD82046BDE8F081000012
:104BA0001C090020C87E0000406801218068FCF7D5
:104BB00091BC10B540688468606801688A6801210A
:104BC000904718B10420A168087010BD0320FAE7CF
:104BD0002DE9F3414468A668B068007804281ED027
:104BE000032807D0002501A9206800F05BFC85F0B0
:104BF000010709E00125F6E739463046FCF76AFC73
:104C000001A9206800F04EFC0028F5D1019800F0C1
:104C1000B9FB002D03D000213046FCF75BFCBDE85A
:104C2000FC81F0B595B01C4615460F4608461A9E05
:104C300000F0A8FB182109A8FBF74DFC0E96CDE962
:104C400009540023082203A9384600F0B0FB059858
:104C50000690BDF81000ADF81C00BDF81200ADF8CC
:104C60001E0000208DF821000398082600F00300A4
:104C7000012802D0022818D032E003983346850A72
:104C8000C0F3C2008DF8200003980FA9C0F383146D
:104C9000A200384600F08BFB09A8009006AB224624
:104CA0000FA9284600F0CAFA1AE00398840DC0F351
:104CB000C2008DF82000082C01D2254600E008250E
:104CC00033462A460FA9384600F071FB2E44641B78
:104CD00009AB06AA29460FA800F090F9002CEAD1EA
:104CE000384600F055FB15B0F0BD7047084810B5C8
:104CF0000178084A515C19B1001D01F095FA02E0F3
:104D00000C3001F0F7F8BDE81040002001F050BF72
:104D100064010020D800002008B5034A0092402317
:104D2000024AFFF77EFF08BDA1670000840700204C
:104D30000A4A012902EBC00007D0022907D0032943
:104D400007D0042907D000207047022070470420B4
:104D5000704700797047407970470000C87E0000B6
:104D60002DE9FF5FFCF74EF918B1002004B0BDE853
:104D7000F09F8C4C0020C4F81804BFF34F8F8A4971
:104D8000A06800900D684FF00009284004EB8000F7
:104D90000CE000BFD4F8180470B961680098814233
:104DA00001D8A160E1E7284004EB80000C3069469F
:104DB000FEF774F80028EDD1002001A9A046009A62
:104DC00002EA050308EB8303521CDB6841F820303C
:104DD000401C00920228F2D3019800F00300022840
:104DE00002D0012850D0BEE001985022810D8A46A1
:104DF000B2EB905F00D850210C4664F39F50C0F393
:104E0000C20701900831694800F073FA0600EAD041
:104E100000F0B8FA4B46082201A9304600F0CFFA5C
:104E2000009909F1080B2940681A8000001D84428E
:104E300023D95C4D0C3530B1C2B208EB8101201A88
:104E400091460C3104E02946E2B2002591462846FD
:104E5000C4B25B46304600F0B2FA0BEB09032DB149
:104E6000224629464FEA060000F0A9FA00990AF105
:104E7000030001EB900000903DE008EB81015B46F0
:104E8000224630460C31EFE70198C0F38310062824
:104E900000D30620019960F38911C1F38310C1F397
:104EA000C207801C01918100404800F022FA0600F0
:104EB00059D000F067FA4B46082201A9304600F0AD
:104EC0007EFA09F1080900240FE000984B4600EA39
:104ED0000501401C08EB81010090042230460C3192
:104EE00000F06DFA09F10409641C0198C0F3831005
:104EF000A042EAD8B6B3D8F81044D8F8180445460A
:104F0000F8B1304600F044FA46E0E0684179012902
:104F100015D10179BDF80800254A01EB410152F88D
:104F2000200007228A401040C840052F00D10327E7
:104F3000B84204D322682046314612689047E068A0
:104F40000468002CE1D1304600F022FA0020FBF783
:104F500007FFD5F8180408B90098A8600020FBF7EF
:104F600001FF19E0FFE7D8F8104405E0216820466A
:104F700089688847E0680468002CF7D10D484088AC
:104F8000022809D30C480D49401AC008022101EB40
:104F900000400BA100F01EF8FCF734F880F001008F
:104FA000E4E600001C090020800100208C7F000046
:104FB0007402002070020020687F0000C87E00009C
:104FC0004261636B656E647320666C7573686564BB
:104FD0000000000000231A4601F04ABC08B5012376
:104FE00000926A4601F044FC08BD1CB5CDE90023DF
:104FF00002236A4601F03CFC1CBD00002DE9F0478D
:105000000E4680461C469246082940D894F80C90DB
:10501000002020731946104601F0F0F90025B54232
:1050200006D218F805201BA12046FFF781FB03E0FC
:105030001AA12046FFF77CFB6D1C082DEFD318A1A9
:105040002046FFF775FB0025B54212D218F805700F
:105050007E2F08D8FBF7C6F90068C05D10F03E0F40
:1050600001D03A4600E02E220EA12046FFF760FB59
:1050700003E00DA12046FFF75BFB6D1C082DE3D379
:1050800001222146504601F09BF984F80C90BDE8BE
:10509000F08700002025303278000000202020001A
:1050A0007C00000025630000200000002DE9F0478F
:1050B0001F494FF000081F4881F8008000F066F992
:1050C000002832D11C4800F0BBFB1C49DFF870906F
:1050D000DFF870A0A1EB0900C608002414E0002747
:1050E0003D460CE0AC4209D059F8340059F835106F
:1050F0001422FBF719FA002800DD7F1C6D1CB54255
:10510000F0D32AF82470641CB442E8D3002041464E
:1051100054460D4D06E000BF04EB8002518045F877
:105120002010401CB042F7D30020BDE8F0870000FB
:105130001C0900208C7F000004730000707F0000B9
:10514000C87E0000200200207402002002480349AB
:10515000401AC00870470000707F0000C87E000041
:105160007FB505461146002401A873B1FEF746FB42
:1051700098B90B480199072250F8210005EB450129
:105180008A401040C840C4B207E0FEF737FB20B9A0
:105190000448019900EBC100847904B0204670BD39
:1051A00074020020C87E000070B5114B00EB400077
:1051B00003EB81040F4B02F0070203EB810107238D
:1051C00003FA00F60D688240B5432A4300200A60C6
:1051D0004FEA000103FA01F51540CD40ADB285421A
:1051E00000D92846C91C0A29F4D3608070BD00008C
:1051F000200200207402002013B56846FEF7FEFA74
:1052000008B100201CBD0248009950F831001CBDB7
:10521000C87E000070B508480125D0F8104405701C
:1052200007E0E06845712168204649688847E068E2
:105230000468002CF5D170BD1C0900202DE9FF4742
:1052400081460C9D00200C462F7B287398461646FD
:105250002946184601F0D2F8072E42D2DFE806F0C0
:1052600004090F161F2A360049462846FFF760FA40
:1052700037E0494628462268FFF75AFA31E0D4E978
:10528000002349462846FFF753FA2AE0A068009019
:10529000D4E9002349462846FFF74AFA21E0D4E939
:1052A0000201CDE90001D4E9002349462846FFF771
:1052B0003FFA16E004F1080007C88DE80700D4E9BA
:1052C000002349462846FFF733FA0AE004F10800B4
:1052D0000FC88DE80F00D4E9002349462846FFF7A0
:1052E00027FA00222946404601F06AF82F73BDE8EC
:1052F000FF872DE9F041058B80462D1F4819C01C02
:10530000B0FBF5F0C6B24046FEF738FB041E19D0DC
:105310000020207101206071E58000272546761E5F
:10532000C4F800800BE04046FEF728FB60B16179CD
:10533000491C6171286005467F1CC0F80080B74297
:10534000F1D32046BDE8F081204600F002F80020AD
:10535000F8E72DE9F041457901466B1E002201E096
:105360000968521C9A42FBD30F680146002605E0EB
:1053700038460C68FEF721FB2146761CAE42F7D377
:10538000BDE8F0810121001DFEF7D1BAFEF72ABB6E
:1053900010B504460121001DFEF7EAFA10F0FF0FD8
:1053A00004D12046BDE81040FFF7D3BF10BD1CB5A7
:1053B00001920122009201AAFEF7CDF91CBD1CB595
:1053C00001920022009201AAFEF7C5F91CBD7047A8
:1053D0002DE9F0410446002790460E463846FBF77B
:1053E000BFFC204600F038F830B105270020FBF75D
:1053F000B9FC3846BDE8F08120680568B8F1000FB7
:1054000005D10168204600F046F821680860E2688E
:10541000012A0CD0022A0ED0042A11D06068082A72
:1054200013D005FB02013046FBF72EF8DEE760687B
:10543000405D3070DAE7606830F815003080D5E7FD
:10544000606850F825003060D0E700EBC500D0E977
:105450000010C6E90010C9E7016808684968884279
:1054600001D1012070470020704701680A6849682F
:105470008068884201D9491C00E00021914201D195
:1054800001207047002070470068806870470068FE
:105490000021816070478068884201D9481C7047AC
:1054A000002070472DE9F04104464FF000080E46F9
:1054B0004046FBF755FC2046FFF7D7FF070009D011
:1054C000207C38B14FF004080020FBF74BFC40462D
:1054D000BDE8F0812068456841682046FFF7DBFFA2
:1054E0002168486037B1206801682046FFF7D3FF84
:1054F00021680860E268012A14D0022A16D0042A22
:1055000019D0082A1CD06068314605FB0200FAF762
:10551000BBFF204600F0CAFF21688A688242D3D2CE
:105520008860D1E7616830784855F2E76168308873
:1055300021F81500EDE76168306841F82500E8E7DB
:10554000D6E90001626802EBC502C2E90001E0E7AA
:105550002DE9F04F8146806889B0D0F84801C0F34A
:10556000400038B109B04846BDE8F04F002211466E
:10557000FEF7A6BD012907D909B04846BDE8F04F9E
:105580001DA20221FEF774BD2049DFF884B0A1EB13
:105590000B001C21B0FBF1F8002526E0C5EBC5018E
:1055A0000BEB81042068D4E9026A8768204600F08A
:1055B0003FF86421794364224243B1FBF6F1B2FB28
:1055C000F6F26369247CACB112A400BFCDE9066495
:1055D000CDF800A00597CDE90120CDE90361104A7F
:1055E00008214846FEF744FD6D1C4545D6D309B059
:1055F000BDE8F08F0BA4E9E7426164206172677532
:105600006D656E7420636F756E740000C47F00005A
:10561000A87F00004E6F206F766572666C6F770012
:105620006C7900004F766572666C6F770000000041
:1056300010B504460020FBF793FB204600F036FF30
:1056400004460020FBF78EFB204610BD2DE9F041FB
:105650001F0015460E46044606D0A068FEF764F902
:1056600010B11120BDE8F081A068D0E90331606875
:10567000A3EB010C421C944507D10020286017B110
:10568000A068FEF748F90020ECE703EA000201EA0F
:105690000007BA4201D3831A01E0181A0B1A2868CE
:1056A0005B1C984200D203462B6020681044306097
:1056B000A0682A68C1681144C160E4E72DE9F0419F
:1056C0000546806817468846001DFEF72DF910B183
:1056D0001120BDE8F081A868816800690C1A38685B
:1056E000A04200D204463C60AA68696810699268CA
:1056F00008400A40824201D9161A01E00E1A761CAF
:10570000B44208D92968324601444046FAF7BCFE43
:10571000A41B0020B0442968224601444046FAF701
:10572000B3FEA8683A68016911440161A868001DC8
:10573000FEF7F1F80020CCE72DE9F04105461746C9
:1057400088468068FEF7F0F810B11120BDE8F081BE
:10575000A86881680069081A69680C1A3868641CAE
:10576000A04200D204463C60A8686968806808408E
:105770000E1A761CB44208D92968324608444146BC
:10578000FAF782FEA41B0020B04429682246084490
:105790004146FAF779FEA8683A6881681144816049
:1057A000A868FEF7B8F80020D0E710B582689468C2
:1057B0001369E41AA14201D9042010BD19441161F2
:1057C000826851618068001DFEF7A5F8002010BDB9
:1057D0002DE9F0411E0014460F46054607D0A86883
:1057E000001DFEF7A1F810B11120BDE8F081A868F6
:1057F000816840690A1A09D06B68184019408142D3
:105800000DD9266896420AD9226010E00020206057
:105810001EB1A868001DFEF77EF80020E5E7814272
:1058200005D8191A2268491C8A4200D921602968C2
:1058300008443860A8682268416911444161ECE776
:10584000826800219160826811618268516182687A
:10585000D1608268516080680160704770B582686D
:10586000456894681369E31AEB1A5B1C994201D9E5
:10587000042070BD214491608268D1608068FEF789
:105880004DF808B1002070BD082070BD08B5002299
:1058900042504058009008BD024A1060101D01603F
:1058A000704700002C760040030103481844C0F8FC
:1058B0001425C0F810157047007000400249405888
:1058C000002800D00120704700700040034908B54F
:1058D0000844002202600068009008BD007000408B
:1058E00070B50D460646446804E0B2682946904704
:1058F00018B1246820680028F7D120682860256046
:1059000070BD40680068704741680868002801D091
:1059100002680A60704702460020526806E08B4227
:1059200003D108681060012070471A461368002BE5
:10593000F5D1704708B5002242504058009008BD8C
:105940004058002800D00120704708B5002242507E
:105950004058009008BDD0F80403084000D0012052
:1059600070474058002800D00120704708B5002239
:1059700042504058009008BD02480068002800D0FE
:10598000012070470004014008480068012110F020
:10599000010F06D14FF0E020C02280F800248430AF
:1059A000C1670349012008607047000000E100E082
:1059B000180500400649024600200B790BB18520EE
:1059C00070470A6001220A7100224A717047000084
:1059D000EC00002010B54FF48270FEF798FD022015
:1059E0004107C1F8040302490120086010BD00000E
:1059F00008000040002802D0014980010847704794
:105A0000717000000121B1EB507F01D1012070477E
:105A10000020704770B50D4600F03CFD04000FD02B
:105A20000020FBF79DF9207920B10020FBF79AF9BF
:105A3000112070BD0120256020710020FBF792F934
:105A4000002070BD10B500F025FD002802D0002117
:105A50000160017110BD00002DE9F041254C0646A2
:105A600012200D46C4F808032348017C022918D0EF
:105A7000027C01464FF4807891F82E10012A12D052
:105A80000222C4F80423012707744660058100221E
:105A9000C26021B3458390F82D103046FFF7FCFE1D
:105AA00025E0122002E0C2682AB10220C4F80403F3
:105AB0001120BDE8F081C660058361B947463846CC
:105AC000FFF7FCFE0028FAD03846FFF7FFFE294614
:105AD0003046FFF7E1FE0220C4F8040307E0294640
:105AE0003046FFF7D9FE4046FFF7F0FE2760002062
:105AF000DFE700000070004074060020204A10B567
:105B0000137C0BB1112010BD02EB40031C7F1CB9AC
:105B100012F82D4F641C1470CA791A770A7A5A77D2
:105B20000A784B78302402F0030204EA03131A4384
:105B30008B784FF4E06404EA03231A43CB784FF4E4
:105B4000805404EA03331A430B794FF4E02404EA47
:105B500003431A434B794FF4801404EA03531A4366
:105B60008B79240104EA0363064C1A4304EB001307
:105B7000C3F818250A7AC979FFF796FE002010BDF0
:105B800074060020007000402DE9F0411F4C0546CE
:105B900094F82C0010B10820BDE8F08144F8101BE7
:105BA0001B4928780860091D68780860E878A077A4
:105BB000012727770020207060776060154EE0771E
:105BC0006FF00040C6F808034FF48270FFF77EFEC6
:105BD000B015FFF77BFE4FF48A70FFF777FEA878C9
:105BE0000D49400181F800048020C91FC1F800015F
:105BF0000220C6F80403A07F10B10120C6F80403F8
:105C00000348F03807600020C6E700007406002053
:105C1000F07500400070004007E000E008490020F7
:105C20000A7C012A01D00820704791F82E30054ADD
:105C300001210BB111607047024A121DFAE7000002
:105C400074060020007000400149024800F0D8BFEF
:105C5000BC060020002000402DE9F04105460079F7
:105C600016460F4600EB40012D4A01EBC00102EB46
:105C7000810494F82A1011B10820BDE8F081294967
:105C800051F820102868FFF7C5FE08B11120F4E78D
:105C900039462846FBF77AF866603869206030009C
:105CA0004FF001062FD03F7F4FF48E712868FFF729
:105CB0004CFE4FF4A2712868FFF747FE28681A4986
:105CC000C0F8041328684FEA471140F30730002852
:105CD00004DB00F1E02080F8001405E000F00F0084
:105CE00000F1E02080F8141D286840F307300028F8
:105CF00009DB00F01F0106FA01F14009800000F104
:105D0000E020C0F8001128680421C0F80015002028
:105D1000A061E06184F8290044F8140FA675ACE78F
:105D2000BC06002050700000800002002DE9F05FEA
:105D3000054600794FF4017600EB400303EBC00009
:105D4000344B03EB80040020636813B12B68C3F865
:105D50000863A3694FF000096BB1E06938B160686E
:105D600010B12868C0F804631120BDE8F09FE2611B
:105D70000120216105E0C4F82490A261E160C4F82B
:105D80001C9094F82910014302D1284600F065FCCC
:105D900060680028286803D0C0F804630020E4E7A6
:105DA0004FF4A2763146FFF7D0FDB2464FF4927B16
:105DB00059462868FFF7C4FD06464FF484712868E9
:105DC000FFF7BEFD804651462868FFF7B9FD07463C
:105DD00048EA07003043EBD056EA070007D12146D6
:105DE000286800F00BFCA169606A8142E0D8C4F821
:105DF00018900EB10320B8E70FB10F20B5E794F863
:105E0000291001200029296801D00860C6E74860F0
:105E1000C4E70000BC06002001684FF40172C1F81D
:105E20000823006801214160704700002DE9F05F00
:105E3000054600790B4600EB400101EBC000244908
:105E400001EB8004284600F045F810B11120BDE8B0
:105E5000F09F62614FF00009C4F82090A36084F8BD
:105E600028904FF48E784E4641462868FFF76DFD26
:105E700028684FF0010AC0F808A02146286800F001
:105E800017FE606808BBD5F800B067690FE000BF77
:105E900094F8280008B10F2615E041465846FFF750
:105EA0004FFD0028F4D02146584600F001FE206A3C
:105EB000B842F2D3574641462868FFF741FD002813
:105EC000F9D02868C760C4F814903046BFE70000D6
:105ED000BC060020007900EB400101EBC000044942
:105EE00001EB80004069002800D0012070470000CD
:105EF000BC0600202DE9F047044600794FF0000968
:105F000000EB400101EBC000284901EB800720684D
:105F1000C0F800957868B0B120682549C0F808132A
:105F2000206840F3073000280DDB00F01F0201213C
:105F300091404009800000F1E020C0F88011BFF3DB
:105F40004F8FBFF36F8F2068D0F80C25D0F81485E1
:105F5000D0F80865D0F810554FF0FF31C0F814158F
:105F6000C0F80C152068C0F80815C0F81015501CB2
:105F700002D01046FEF72DFDB8F1FF3F02D040469B
:105F8000FEF727FD681C02D02846FEF722FD701C94
:105F900002D03046FEF71DFD2068FFF753FD87F85D
:105FA0002A90C7F80490BDE8F0870000BC060020E6
:105FB000840202000149024800F0D0BEE806002039
:105FC000002000402DE9F0410546164600790F46B5
:105FD000154A00EBC00102EB810494F8201011B1C6
:105FE0000820BDE8F081114951F820102868FFF71A
:105FF00011FD08B11120F4E739462846FAF701FFF0
:106000006660386920601EB1397F2846FCF702FFC0
:1060100028680821C0F800150020A061E0616061D7
:10602000012184F82010DCE7E8060020547000000D
:106030002DE9F05F044600790E4600EBC001DFF861
:10604000F0A017460AEB81053046FFF7DBFCB0B144
:1060500068684FF000084FF4047910B12168C1F866
:106060000893A8694FF0000B80B1E86948B16868EF
:1060700010B12068C0F804931120BDE8F09F1020F3
:10608000FBE7EF614FF001082E6102E0EE60C5E929
:10609000067B00254FF488712068FFF767FC4FF4FA
:1060A000A2712068FFF762FC2068C0F83465C0F870
:1060B00038752068B8F1000F12D0D0F8001241F006
:1060C0002001C0F800122079D04600EBC0010AEB95
:1060D0008100406838B12068C0F804932846CCE7B6
:1060E00001210160EFE74FF4887A4FF4A27951461D
:1060F0002068FFF736FC074649462068FFF731FC69
:1061000006464FF492712068FFF72BFC014647EAE0
:1061100006000843EBD0227902EBC20308EB8302AE
:10612000C2F818B001B10325002ED7D00F25D5E74E
:10613000E80600200179094A01EBC10102EB810167
:10614000C96931B10168D1F8002222F02002C1F8FA
:10615000002200680121416070470000E80600202D
:106160002DE9F04704460E460079274900EBC000B0
:1061700001EB800517463046FFF744FC30B120465E
:1061800000F044F820B11120BDE8F0871020FBE7B3
:106190006F61AE604FF490774FF000083946206889
:1061A000FFF7E4FB4FF4AC7631462068FFF7DEFBE7
:1061B0002068AA686969C0F84425C0F848152068B5
:1061C0004FF00109C0F808906868D0B9BA46514646
:1061D0002068FFF7C6FB074631462068FFF7C1FB82
:1061E0000743F4D010B14FF00F0808E02068C0F862
:1061F0000C9031462068FFF7B4FB0028F9D000204E
:1062000068614046C0E70000E806002000790549C3
:1062100000EBC00001EB80004069002800D00120A5
:1062200070470000E80600202DE9F0470646007997
:106230003D4900EBC00001EB800534686868012728
:10624000A8B13A49C4F80813306840F30730002871
:106250000DDB00F01F0107FA01F14009800000F199
:10626000E020C0F88011BFF34F8FBFF36F8FD4F8D9
:10627000000220F02000C4F80002A8694FF4A278C0
:1062800020B141462046FFF771FB67604FF4AC79BF
:1062900049462046FFF76AFBE760474649462046E5
:1062A000FFF75FFB0028F9D0A86928B139462046DE
:1062B000FFF757FB0028F1D04FF0000AC4F800A503
:1062C0003068D0F80C25D0F81495D0F80885D0F8AF
:1062D00010754FF0FF31C0F80C15C0F81415306878
:1062E000C0F80815C0F81015501C02D01046FEF773
:1062F00079FBB9F1FF3F02D04846FEF773FB781CEB
:1063000002D03846FEF76EFBB8F1FF3F02D04046A0
:10631000FEF768FB2046FFF795FB85F820A0C5F83F
:1063200004A0BDE8F0870000E8060020100342004A
:106330002DE9F84317460C0005462BD0DFF8708096
:106340004646D8F80000FBF7D1FA3844C7B23068A7
:10635000FBF7CCFAA968497E081AB0FBF7F0C6B281
:106360002046FBF7C3FAA968381AC7B2487FB0FBCA
:10637000F6F206FB1202401C487782B123460DA2BA
:1063800007212846FDF774FE39462846BDE8F84344
:10639000FCF766B9A96800204877BDE8F883009447
:1063A00005A207212846D8F80030FDF761FEEBE78B
:1063B00050010020257300000A257325730000009A
:1063C00010B50C46017A052908D0407A38B1084842
:1063D00008A102682046FEF7ABF900E01AB106A159
:1063E0002046FEF7A5F92046BDE81040FEF7ADB9FE
:1063F000D8010020257300000D0A000038B5C388BD
:106400000D46044633B114A0009015A216A12846EB
:10641000FEF78EF9217A05291CD0607A48B1A08850
:10642000FEF786FC164951F8202016A12846FEF7F3
:106430007FF9A0880021FEF7DFFE03461049207A8D
:10644000143951F8202001B02846BDE830400EA193
:10645000FEF76EB938BD00001B5B306D0000000018
:106460001B5B313B33316D0025734C6F67732064C8
:10647000726F70706564202825642925730D0A00E9
:10648000D8010020257300003C25733E2025733A77
:10649000200000000349884201D1034870470020D2
:1064A0007047000000200040FC00002001680A68DE
:1064B0004968914201D3881A70478068801A08445D
:1064C000401C704770B50546FCF7B3F9134C40B15A
:1064D000D4E904024FF08071411842F10000C4E990
:1064E000041000212846FCF7E7F830B1606820B1BD
:1064F000606800F03BFA0020606001212846FCF74C
:10650000DBF818B1FCF7C2FAC4E90601284600F02E
:1065100075FA2846BDE8704000F034B80801002044
:1065200070B5054600200C460870FCF7AFFAD5E9B7
:106530000223101A63EB010300263146361A9941F3
:1065400012DAB0F5350F03D3FAF7AAFB0B4942185C
:106550004FF4960300210A48FCF777F910B10D2893
:1065600006D009E0012070BD00210548FCF79AF82B
:10657000284600F0FBF92070002070BDFFFFB4003A
:1065800010010020F8B51B4C074600261A48FFF7FB
:10659000B8F9D8B1616879B1D0E902106268D2E97E
:1065A0000232C91A904121D2606890F8200018B1D7
:1065B00061681148FFF794F900F024F9054669462F
:1065C000FFF7AEFF98B1606840B10AE0606800284C
:1065D0000CD13846BDE8F840FCF733B93846FCF733
:1065E0002CF965609DF800000028CFD1F8BD6660E9
:1065F000CCE70000080100206070000070B505467F
:1066000088690C4600284FF4847128460AD0FFF7A9
:106610009CF9D5F81805626AE1688854606A401CE4
:10662000606270BDFFF791F9D5F8180570BD1FB510
:1066300001238DF80030CDE90121D0E90012684630
:1066400090471FBD1FB501238DF80030CDE9012112
:10665000D0E90012684690471FBD10B50446006897
:106660004FF49271FFF771F94FF484712068FFF7CE
:106670006CF920680121016010BD00007CB5044662
:10668000FF20009001236A4601A9E068FEF7DEFFC3
:10669000002819D1009A002A16D060690B4D019983
:1066A0000378D2B2EB5C1BB1001DFFF7C1FC02E026
:1066B0000C30FFF73BFB002806D1A068224640F2D1
:1066C00066610068FAF72CFB7CBD0000D800002052
:1066D00010B504461548C07EFEF700FA0121606837
:1066E000FFF7BAF96068B0F90000F9F79EFF9FED77
:1066F000101B53EC112BF9F726FF9FED0F1B53ECEA
:10670000112BF9F720FF9FED0E1B53EC112BF9F71E
:106710001AFF9FED0D1B53EC112BF9F714FFF9F73E
:1067200095FFBDE8104080B2FBF7C6BD64070020AE
:10673000333333333333E33F0000000000408F40F6
:106740000000000000000840000000000000503F72
:106750000E4910B5032088700D490E48FFF714FA52
:1067600070B90D48C07EFEF7B9F908490020FFF75F
:10677000C5F928B905480121801EFFF76DF908B158
:10678000032010BD05490020086010BD56010020FF
:10679000D16600007C720000640700200075004094
:1067A00070B50D4C0020D2B22070201D0B4D037827
:1067B000EB5C1BB1001DFFF7D3FC02E00C30FFF7D0
:1067C00035FB08B1FAF760FA6078002802D021782A
:1067D0000029FAD070BD000060010020D800002020
:1067E0000022CA604A60054A8A60052803D2044A2A
:1067F00052F8200000E0002008607047F4720000AA
:10680000980100200148FFF77FB800006070000089
:1068100010B5144A01211448FAF748FA08B1FAF7FA
:1068200033FA114C0022241F40F266616068FAF7C7
:1068300077FA08B1FAF728FA0B480C4A0121001F31
:10684000FAF734FA08B1FAF71FFA002240F23331AE
:106850002068FAF765FA002803D0BDE81040FAF77F
:1068600013BA10BDCD690000FC6F00008923000041
:106870002DE9F84F074621489146884605681E468F
:10688000012269461846FAF75FFBDFF874A060B38F
:10689000009800210446801C0AE000BF00EA0502BF
:1068A00059F821C00AEB8202401C491CC2F80CC0F6
:1068B000B142F3D34FEA1749FBF7EAFE611C2940C6
:1068C0000AEB810149EA00422C40CA600AEB8401CC
:1068D000C86867F3C50066F3891068F39F2020F04D
:1068E0000300401C20F00400C8609AF8000001E09A
:1068F000FEF736FA0028FBD1BDE8F88F80010020B2
:106900001C09002009680068F9F7F7BD2DE9F0417E
:1069100015460E460446FBF7DBFD78B9A068FA2160
:10692000077D90F816802046FBF79AFEFA21204654
:10693000FBF74AFD2046FBF7CBFD10B10620BDE872
:10694000F081A068007D3070A068807D287030786C
:10695000C01BC1B22046FBF7A9FD2978A1EB0800B6
:10696000C1B22046FBF788FE0020E8E770B5044678
:1069700014480025007810B30CB394F82000F0B14F
:10698000FCF784F8D4E90223801A994112D32069D4
:10699000002608B984F82060D4E9051088472069EA
:1069A00068B194F8201051B1D4E902211018714156
:1069B000C4E9020121460448FEF792FF012528465A
:1069C00070BD000008010020607000000348C1682D
:1069D000002902D0C168491EC160704754000020E0
:1069E0004069054A0178515C11B1001DFFF7A2BB57
:1069F0000C30FFF711BA0000D8000020F8B51C4C8D
:106A000069462068FCF771FF00260127194D2CE02C
:106A1000017821B101290ED002291ED116E041686A
:106A200091F82020CAB981F82070416810480830D8
:106A3000FEF756FF11E041686868814201D16E603F
:106A40000BE00B480830FEF766FF06E0FFF7DAFEC2
:106A500010B180F82060F9E72F7069462068FCF7D4
:106A600039FF69462068FCF740FF0028D0D1F8BD07
:106A70005870000008010020F8B50B4C0D46064682
:106A800069462068FCF71BFF58B1067045606946EF
:106A90002068FCF735FF10B10448FBF7B7FE002073
:106AA000F8BD0420F8BD000058700000100100205F
:106AB00070B50C4605464FF48E71FEF746FF216A0D
:106AC000A068415C206A401C2062C5F81C1570BD9E
:106AD0001FB500228DF8002002918168019142616A
:106AE000D0E90012684690471FBD1FB500228DF8FF
:106AF00000200291816801914261D0E9001268464C
:106B000090471FBD7CB5FF260546009600780C46D1
:106B1000B8B1012806D0022812D1297AE068FEF720
:106B20009DFE0AE0297AE068FEF798FE287A20B1F7
:106B30006068D0E90021002090472046FFF79EFDC5
:106B40007CBD297A2069FEF730FE009601236A4653
:106B500001A92069FEF73CFE009820B1C2B260692D
:106B60000199FDF7C9FD6068D0E900210120904737
:106B70007CBD00001FB50A4601788DF80010416801
:106B80000191017A8DF80810C0680390044850F80C
:106B90002210083850F82220684690471FBD000098
:106BA000E4000020014901200870704760010020C6
:106BB00010B588B0044620220E496846F9F764FCF7
:106BC00006200090C01F0190029003904FF0EB70E0
:106BD00006900CB1084A00E0002269460748FDF71C
:106BE00057FD08B1FAF750F80448001F447008B088
:106BF00010BD0000D4720000A56B000064010020ED
:106C00002DE9FF470C4605464FF40071FEF7A3FE41
:106C100001274FF40178002618B34FF492794946C2
:106C20002846FEF78DFEE0B149462846FEF78DFE68
:106C3000C5F8088394F8290000B96F6002208DF828
:106C40000000D5F88004C5F880040390A069029084
:106C5000E0680190A661E661D4E9001268469047B9
:106C600028E004212846FEF776FE18B34FF484711D
:106C70002846FEF765FEE8B121462846FFF7BEFC30
:106C8000616AA069884215D1E06938B1E268616A39
:106C9000A0612069E6616662E06008E094F829007E
:106CA00000B96F60C5F80883A661E268616A204692
:106CB000FFF7BDFC4FF48E7841462846FEF740FEB4
:106CC00080B16069216A814202D294F8280028B319
:106CD00041462846FEF739FE606918B161692046D1
:106CE000FFF7F6FE4FF4A27841462846FEF728FE4D
:106CF000002818D041462846FEF727FE94F82900C0
:106D000000B12F60A06900280DD0A661E268616A19
:106D100004B02046BDE8F047FFF789BC214628466D
:106D2000FFF7C6FEDEE7BDE8FF8700001FB50A4695
:106D300001788DF8001041680191017A8DF80810F2
:106D4000C0680390044850F82210083850F82220F8
:106D5000684690471FBD0000E40000202DE9FF4178
:106D60000C464FF4927705463946FEF7FAFD0026A9
:106D7000B8B139462846FEF7F9FD02208DF800002B
:106D8000D5F88004C5F880040390D5F83C0502903E
:106D9000E0680190A661E661D4E900126846904778
:106DA00023E04FF4887739462846FEF7DAFDE0B154
:106DB00039462846FEF7DAFDD5F83C15A069884229
:106DC00013D1E06960B1E268D5F8000220F020003C
:106DD000C5F80002E069A0612069E661E06001E0B9
:106DE000A661E2682046FFF72DFC4FF4A2773946F2
:106DF0002846FEF7B6FD68B139462846FEF7B6FDCF
:106E0000A06938B1A661E661D5F83C152046E26874
:106E1000FFF718FC4FF4907631462846FEF7A1FDA7
:106E200060B131462846FEF7A1FD0120E8606069A7
:106E300020B1D5F84C152046FFF757FE4FF4AC763D
:106E400031462846FEF78DFD00280ED031462846F3
:106E5000FEF78CFD6069002807D0D5F84C1504B00A
:106E60002046BDE8F041FFF740BEBDE8FF810000CD
:106E70002DE9F05F8346DDE90A4A994690460D46C2
:106E80000846012703E000BFB0FBF8F07F1C404537
:106E9000FAD2B94500D94F465FEACA7012D18CB117
:106EA0005FEA8A7002D5B9F1000F01D0202607E011
:106EB000302605E031465846641EFAF78BF80CB1CF
:106EC000A742F7D35FF00106B9F1010F02D9A9F18A
:106ED000010903E0B5FBF6F0404502D306FB08F6D6
:106EE000F2E7DFF83C9000BFB5FBF6F000FB16556B
:106EF00019F800105846FAF76DF8B6FBF8F6002EB0
:106F0000F2D15FEACA7009D0002C07D0A74205D29F
:106F100020215846641EFAF75DF8F5E7BDE8F09FBA
:106F2000807200001CB5002913D08268127F8A424B
:106F30000FD008A3D3E90023CDE9002301F12F02EC
:106F40008DF803208268117700696A4603A1FDF776
:106F5000EFFB1CBD1B5B34006D00000025730000BF
:106F60001CB5826899B1D27E8A420FD00CA2D2E9B8
:106F70000032CDE9003201F12F028DF80520826840
:106F8000D17600696A4608A1FDF7D2FB1CBDD17617
:106F9000006902B0054ABDE8104003A1FDF7C8BB77
:106FA0001B5B313B33006D00257300002D72000028
:106FB00000000020C80200203F000000080300205D
:106FC000200300200F00000030030020000000001C
:106FD00000200040000000000020004000000000F1
:106FE0006872000048030020B06F0000C06F00000E
:106FF000B46F0000CC6F000078000020A0000020DB
:1070000064750000E06F000074030020A87E00009B
:1070100028000020707F0000FFFFFFFFFFFFFFFF41
:10702000FFFFFFFFFFFFFFFF000000000000000068
:107030000000D6010601000098750000747500007C
:1070400000000000552200000D0E0F100B0C181947
:10705000495C0000B55F0000280100200100060027
:10706000000000003C010020551F0000000000004F
:107070000338FDD870470000000000008070000059
:10708000C8750000A475000000000000153A00005B
:1070900000000000000000000000000000000000F0
:1070A000D0750000D875000078700000153A000017
:1070B000D14B0000B34B0000A94B000000000000C2
:1070C000C4700000B8760000A07600000000000048
:1070D000B93D0000BC76000088760000000000008A
:1070E000E33D000000000000000000000000000080
:1070F0000000000000000000FC700000B8760000F6
:10710000C076000000000000A53E0000BC76000034
:107110001C77000000000000CF3E000000000000CF
:10712000000000000000000000000000000000005F
:1071300034710000887700005C77000000000000D8
:10714000993C0000907700003077000000000000BC
:10715000C93C00000000000000000000000000002A
:1071600000000000000000006C710000DC770000EF
:10717000BC770000BC700000513D0000D4770000D7
:1071800098770000F47000000D3E0000E4770000E6
:10719000AC7700002C7100002D3C000000000000C6
:1071A00000000000000000000000000000000000DF
:1071B000B471000030780000EC770000000000009F
:1071C000354000000000000000000000000000004A
:1071D000000000004878000038780000000000003F
:1071E000A53B000074780000507800006471000036
:1071F000E93B00008C780000787800000000000077
:10720000F93E00003479000094780000AC71000071
:10721000713F0000000000000000000000000000BE
:107220001B37001B38002C20001B5B4A001B5B6DCA
:1072300000082008001B5B4B00202D20001B5B4832
:10724000001B5B366E001B5B324A00000000000032
:107250000338FDD870471B5B3F336C002D682C2032
:107260002D2D68656C700000911C0000E71C00006B
:10727000251C0000FD1C0000DD1C000001000600B4
:10728000303132333435363738394142434445465C
:107290000000000098720000C875000040790000EE
:1072A0000000000051550000000000000000000038
:1072B000000000000000000064790000D8750000A4
:1072C0009072000051550000194D0000ED4C000077
:1072D000EB4C0000FFFFFFFFFFFFFFFFFFFFFFFF83
:1072E000FFFFFFFF00000000000000000000D601CB
:1072F00006010000010000002D3800000000000021
:1073000018730000840800207F000000040900209A
:1073100001000000E1670000087B0000947A000093
:10732000F47200003D2F0000007B0000107A000086
:10733000107300003D2F0000307B0000107B000028
:1073400000000000492F0000447B0000207B00006B
:1073500000000000552F0000C8750000347B0000BD
:1073600000000000612F000000000000000000008D
:10737000000000000000000001000000790E000085
:107380000000000088730000B47B00004C7B00000C
:107390000000000091300000BC7B0000807B0000FA
:1073A00000000000CD3000000000000000000000E0
:1073B000000000000000000000000000C07300009A
:1073C000F87B0000C47B0000787300000000000020
:1073D000007C0000087C00008073000000000000BA
:1073E000087B0000947A0000F4720000E53200008F
:1073F000007B0000107A000010730000E5320000EE
:10740000307B0000107B000000000000F53200001F
:10741000447B0000207B000000000000FF320000E1
:10742000247C0000E07B000000000000C92F000069
:10743000C8750000347B0000000000000933000024
:10744000000000000000000000000000000000003C
:10745000347C0000387C0000B87300006D2F000001
:107460000040404040404040404041414141414057
:10747000404040404040404040404040404040400C
:10748000400502020202020202020202020202029B
:1074900002202020202020202020200202020202A0
:1074A00002029090909090901010101010101010F8
:1074B0001010101010101010101010100202020204
:1074C0000202888888888888080808080808080848
:1074D0000808080808080808080808080202020244
:1074E0004000000061740000506C656173652065A8
:1074F0007865637574653A2022636F6E6669677597
:1075000072652220636F6D6D616E6420746F2073ED
:107510006574207468726573686F6C64732E0A49B1
:107520006E206F7264657220746F207365652061D0
:107530006C6C20617661696C61626C6520636F6D53
:107540006D616E647320706C656173652070726527
:107550007373207468652054616220627574746F5F
:107560006E2E0A00756172745F636C693A7E242026
:10757000000000005468726573686F6C6473206368
:107580006F6E66696775726174696F6E20636F6D87
:107590006D616E642E000000636F6E6669677572C0
:1075A000650000005072696E7420737461747573A5
:1075B000206F662062616C6C6F6320696E7374610A
:1075C0006E6365732E000000737461747573000040
:1075D00062616C6C6F630000436F6D6D616E64730C
:1075E00020666F722042414C4C4F43206D616E61AA
:1075F00067656D656E74000025730D0A092D2045C1
:107600006C656D656E742073697A653A092564202E
:107610002B202564206279746573206F6620646571
:1076200062756720696E666F726D6174696F6E0D49
:107630000A092D2055736167653A092575252520AE
:10764000282575206F7574206F6620257520656C60
:10765000656D656E7473290D0A092D204D61786979
:107660006D756D3A092575252520282575206F75BE
:1076700074206F6620257520656C656D656E74736A
:10768000290D0A0D0A000000456E61626C652063D9
:107690006F6C6F7265642073796E7461782E000070
:1076A00044697361626C6520636F6C6F72656420FE
:1076B00073796E7461782E006F6666006F6E0000DD
:1076C00044697361626C6520434C49206563686F4F
:1076D0002E204172726F777320616E642062757420
:1076E000746F6E733A204261636B73706163652CD3
:1076F0002044656C6574652C20456E642C20486FB1
:107700006D652C20496E7365727420617265206E00
:107710006F742068616E646C65642E00456E6162F2
:107720006C6520434C49206563686F2E00000000A3
:1077300047657420434C492073746174697374699C
:10774000637320666F7220746865204C6F6767658D
:1077500072206D6F64756C652E0000005265736554
:107760007420434C49207374617469737469637342
:1077700020666F7220746865204C6F6767657220A1
:107780006D6F64756C652E00726573657400000022
:1077900073686F7700000000546F67676C65204363
:1077A0004C49206563686F2E00000000434C49205F
:1077B000737461746973746963732E00546F6767BF
:1077C0006C6520636F6C6F7265642073796E746191
:1077D000782E00006563686F00000000636F6C6FB7
:1077E00072730000737461747300000041737375E9
:1077F0006D65203830206368617273207363726531
:10780000656E20776964746820616E642073656EAC
:107810006420746869732073657474696E6720747A
:107820006F20746865207465726D696E616C2E00DE
:1078300064656661756C7400436C65617220736386
:107840007265656E2E000000636C65617200000059
:1078500055736566756C2C206E6F7420556E697853
:107860002D6C696B6520434C4920636F6D6D616EB3
:1078700064732E00636C6900436F6D6D616E6420EC
:10788000686973746F72792E000000006869737400
:107890006F727900436F6E736F6C652067657473E8
:1078A000207465726D696E616C2073637265656EBC
:1078B0002073697A65206F7220617373756D6573CB
:1078C00020383020696E20636173652074686520FC
:1078D000726561646F7574206661696C732E2049EE
:1078E00074206D75737420626520657865637574A6
:1078F00065642061667465722065616368207465E3
:10790000726D696E616C2077696474682063686168
:107910006E676520746F20656E7375726520636F86
:107920007272656374207465787420646973706C16
:1079300061792E00726573697A650000202000006D
:107940005072696E7420737461747573206F662051
:10795000717565756520696E7374616E6365732EEC
:1079600000000000717565756500000025730D0A43
:10797000092D20456C656D656E742073697A653AD2
:107980000925640D0A092D2055736167653A09259B
:1079900075252520282575206F7574206F66202594
:1079A0007520656C656D656E7473290D0A092D204F
:1079B0004D6178696D756D3A092575252520282555
:1079C00075206F7574206F6620257520656C656D58
:1079D000656E7473290D0A092D204D6F64653A098F
:1079E0000925730D0A0D0A006E6F6E650000000018
:1079F0007761726E696E670064656275670000008A
:107A0000696E666F000000006572726F72000000A0
:107A1000276C6F6720656E61626C65203C6C6576D3
:107A2000656C3E203C6D6F64756C655F303E202E4A
:107A30002E2E20203C6D6F64756C655F6E3E272096
:107A4000656E61626C6573206C6F67732075702062
:107A5000746F20676976656E206C6576656C206949
:107A60006E20737065636966696564206D6F647507
:107A70006C65732028616C6C206966206E6F206DC8
:107A80006F64756C6573207370656369666965649E
:107A9000292E0000276C6F672064697361626C6532
:107AA000203C6D6F64756C655F303E202E2E203C4F
:107AB0006D6F64756C655F6E3E27206469736162EB
:107AC0006C6573206C6F677320696E2073706563DB
:107AD0006966696564206D6F64756C6573202861E3
:107AE0006C6C206966206E6F206D6F64756C6573B9
:107AF00020737065636966696564292E0000000063
:107B0000656E61626C65000064697361626C65003A
:107B1000526573756D65206C6F6767696E670000ED
:107B200048616C74206C6F6767696E6700000000C5
:107B3000676F00004C6F67676572207374617475BE
:107B40007300000068616C74000000004C6F616499
:107B500020636F6E66696775726174696F6E2073FA
:107B6000746F72656420696E206E6F6E2D766F6C17
:107B70006174696C65206D656D6F72792E0000000F
:107B800053746F72652063757272656E7420636FD3
:107B90006E66696775726174696F6E20696E206EBA
:107BA0006F6E2D766F6C6174696C65206D656D6F9D
:107BB00072792E006C6F61640000000073746F7244
:107BC000650000004C6F67676572206261636B65DA
:107BD0006E647320636F6D6D616E64732E000000C0
:107BE0004C69737473206C6F6767657220626163A0
:107BF0006B656E64732E00006261636B656E64007A
:107C0000636F6E66696700004D616E616765206C29
:107C10006F6767657220636F6E66696775726174FE
:107C2000696F6E006C6973745F6261636B656E642B
:107C3000730000006C6F6700436F6D6D616E64735D
:107C400020666F7220636F6E74726F6C6C696E6702
:107C5000206C6F67676572001B5B313B33306D00D2
:107C60001B5B306D000000001B5B313B33316D004E
:107C70001B5B313B33326D001B5B313B33336D009B
:107C80001B5B313B33346D001B5B313B33356D0087
:107C90001B5B313B33366D001B5B313B33376D0073
:107CA0006170705F74696D65722E6D5F636C695F82
:107CB000756172745F7472616E73706F72745F74E9
:107CC000696D65720000000071756575652E6D5FE8
:107CD000636C695F756172745F6C6F675F6261632B
:107CE0006B656E645F7175657565000062616C6CD3
:107CF0006F632E6D5F636C695F756172745F636D36
:107D0000645F686973745F6D656D6F626A0000001F
:107D10006170705F74696D65722E6D5F74696D65F9
:107D2000725F30006170705F74696D65722E6D5F97
:107D300074696D65725F31006D5F636C695F756159
:107D400072745F6C6F675F6261636B656E645F71B5
:107D500075657565000000006D5F636C695F756136
:107D600072745F6C6F675F6261636B656E64000065
:107D70006D5F636C695F756172745F636D645F688A
:107D80006973745F6D656D6F626A0000636C6F6329
:107D90006B000000434C4F434B000000434F4D50DD
:107DA00000000000505049005052530053414144DC
:107DB0004300000054494D455200000055415254C3
:107DC0000000000055415254450000006170705F92
:107DD00074696D657200000061746669666F2E6D6E
:107DE0005F7265715F6669666F000000636C695F52
:107DF00075617274000000007077725F6D676D745A
:107E000000000000736F72746C69737400000000EE
:107E1000756172745F6C6F675F6261636B656E64DE
:107E20000000000062616C6C6F632E6C6F675F6DA9
:107E3000656D706F6F6C0000617070006C6F675FD4
:107E40006D656D706F6F6C00C47F000000000020D6
:107E5000C80200009A07000048800000C802002005
:107E6000782A0000E40B00000000000038700000D9
:107E700000000000A070000000000000D4710000AD
:107E800000000000E471000000000000F471000038
:107E9000000000000472000000000000B872000042
:107EA0000000000050740000B0700000400000208E
:107EB000587D00004C000020C87200000000000047
:107EC000107E000078010020A07C0000000000036C
:107ED000C87C000000000003EC7C000000000003F0
:107EE000107D000000000003247D0000000000035E
:107EF0008C7D000000000000947D00000000000068
:107F00009C7D000000000000A47D00000000000037
:107F1000A87D000000000000AC7D00000000000013
:107F2000B47D000000000000BC7D000000000000E7
:107F3000C47D000000000000CC7D000000000000B7
:107F4000D87D000000000003EC7D00000000000070
:107F5000F87D000000000000047E0000000000002A
:107F6000247E000000000003387E000000000303B0
:107F7000D0000020C8000020D0000020E004002035
:107F800028020020707D000030000000B4010020B5
:107F9000AC010020B4010020C40700206C020020C6
:107FA0003C7E000018000000D4040020C004002023
:107FB000040000000400000001000000387D000003
:107FC00024020020011C1320028220139404C320E9
:107FD000172270233D44E3A87F72FF4B5203040134
:107FE000349A2C78011C0A253028012D15100140E7
:107FF000110221040A155C7C833C792202B2011231
:1080000020BA4008315AFF041AE83423087A2AF0CB
:108010003C19081AF8082904291429102920391CA8
:10802000011BE94023607C1A58041A68041A700482
:108030001A78041A80041A88041A90041A980411F1
:0880400004C890D00300000009
:0400000500000201F4
:00000001FF
