:020000040000FA
:10000000B8220020150200001D0200001F0200009F
:100010002102000023020000250200000000000071
:1000200000000000000000000000000027020000A7
:1000300029020000000000002B0200002D02000039
:100040002F0200002F020000010400002F02000018
:100050002F0200002F0200002F0200002F020000DC
:100060002F0200002F0200002F0200002F020000CC
:100070002F0200002F0200002F0200002F020000BC
:100080002F0200002F0200002F0200002F020000AC
:100090002F0200002F0200002F0200002F0200009C
:1000A0002F0200002F0200002F0200002F0200008C
:1000B0002F0200002F0200000000000000000000DE
:1000C0002F0200002F0200002F0200002F0200006C
:1000D0002F0200002F0200002F0200002F0200005C
:1000E0002F020000000000000000000000000000DF
:1000F000000000002F020000000000002F0200009E
:1001000000000000000000000000000000000000EF
:1001100000000000000000000000000000000000DF
:1001200000000000000000000000000000000000CF
:1001300000000000000000000000000000000000BF
:1001400000000000000000000000000000000000AF
:10015000000000000000000000000000000000009F
:10016000000000000000000000000000000000008F
:10017000000000000000000000000000000000007F
:10018000000000000000000000000000000000006F
:10019000000000000000000000000000000000005F
:1001A000000000000000000000000000000000004F
:1001B000000000000000000000000000000000003F
:1001C000000000000000000000000000000000002F
:1001D000000000000000000000000000000000001F
:1001E000000000000000000000000000000000000F
:1001F00000000000000000000000000000000000FF
:10020000DFF80CD000F02AF8004800476D08000025
:10021000B82200200648804706480047FEE7FEE770
:10022000FEE7FEE7FEE7FEE7FEE7FEE7FEE7FEE7A6
:10023000810200000102000040EA01039B0703D095
:1002400009E008C9121F08C0042AFAD203E011F815
:10025000013B00F8013B521EF9D27047064C074D96
:1002600006E0E06840F0010394E807009847103486
:10027000AC42F6D3FFF7C8FF181500003815000090
:1002800030B54FF080500123D0E94C1000220D29E9
:1002900006D18C07C4F80C21C4F810214E4C226002
:1002A0000D2955D14D4C24684D4D2C604B4C241DCF
:1002B00024682D1D2C60494C083424682D1D2C60A9
:1002C000464C0C3424682D1D2C60444C103424689A
:1002D0002D1D2C60414C143424682D1D2C603F4C86
:1002E000183424683E4D20352C603C4C1C34246866
:1002F0002D1D2C60394C203424682D1D2C60374C6A
:10030000243424682D1D2C60344C283424682D1D81
:100310002C60324C2C3424682D1D2C602F4C303432
:1003200024682F4D40352C602C4C343424682D1D0E
:100330002C602A4C383424682D1D2C60274C3C340A
:1003400024682D1D2C60254C403424682D1D2C6004
:100350000D2906D123480168C90702D06FF00101B9
:1003600001602148016841F470010160BFF34F8FC3
:10037000BFF36F8F4FF01021D1F80002002803DB8C
:10038000D1F80402002822DA184C236018480368C8
:10039000002BFCD01223C1F800320568002DFCD0E0
:1003A000C1F8043201680029FCD0226001680029EC
:1003B000FCD0BFF34F8F0C487C3801680D4A01F424
:1003C000E06111430160BFF34F8F00BFFDE70B49B0
:1003D0000948086030BD00003805004004040010E2
:1003E00020C500400004004088ED00E004E5014025
:1003F00000E401400400FA050090D0034000002012
:10040000014800680047000014000020014A02492A
:1004100000F013B8D50700003C00002002E008C837
:10042000121F08C1002AFAD170477047002001E06E
:1004300001C1121F002AFBD170472DE9F041164679
:100440000F460446002503E03946B047641C6D1C86
:1004500020780028F8D12846BDE8F08172B6094816
:100460000068C00700D000BEBFF34F8F0548E438D6
:100470000168054A01F4E06111430160BFF34F8F49
:1004800000BFFDE7F0ED00E00400FA050EB5002125
:100490000091CDE901106A4644F20100FFF7DEFF4A
:1004A0000EBD10B58268C368934203D000F07FF997
:1004B000002010BD052010BD29B112B1531E1342FA
:1004C00003D0092070470E2070470160838000210F
:1004D0008160C1600846704710B58268C3689A1A87
:1004E00083889A4203D800F06CF9002010BD0420E4
:1004F00010BD000070B50A4E01460A48B578FFF7F6
:10050000D0FF04464DB10020B070711C0122C81DFF
:1005100000F02EFA08B1FFF7B9FF204670BD0000C9
:100520001C00002094020020F0B5244E89B01F4624
:100530000D00044672603FD0A888296882B2204826
:10054000FFF7BAFF002835D1A889A96882B21C48F4
:100550001030FFF7B1FF00282CD12022194968463E
:10056000FFF76AFE60690690207C00B101208DF8DB
:1005700014008DF81C70607C00B10E208DF8150001
:10058000E0680290A0680390206801906068009085
:100590000A480D4A6946083000F0B6F9002809D12A
:1005A000B0702068401C05D004490122491CC81DB8
:1005B00000F0DEF909B0F0BD0720FBE71C000020C9
:1005C00094020020F81400008D11000010B50146BF
:1005D0001048FFF781FF040019D10F480F4A017836
:1005E000515C19B1001D00F045FD02E00C3000F037
:1005F0001BFC60B9084907480839FFF752FF30B9BA
:10060000054901220839044800F0C2F90446204691
:1006100010BD0000A40200202400002000000020E3
:1006200000F002B800F008B872B602480168491C30
:10063000016070473800002003490868401E0860C8
:1006400000D162B6704700003800002070B5054642
:1006500008680C46411C04D000F046FA206800F0FF
:1006600004FA6068411C02D0002100F0ECF929680E
:10067000A069C1F82405607D227D29681043C1F876
:100680006C05D4E900122868C0F81425C0F80C15D0
:10069000207D012814D1A068411C02D0002100F067
:1006A000D2F9E068411C04D000F01EFAE06800F0C6
:1006B000DCF9D4E902122868C0F80825C0F8101542
:1006C00070BD70B5054608680C46411C04D000F0AA
:1006D00015FA206800F0D3F96068411C02D00021AF
:1006E00000F0BAF92968A069C1F82405607D217D70
:1006F0002A680843C2F86C05D4E900122868C0F8DB
:100700000C15C0F81425207D012814D1A068411CC7
:1007100002D0002100F0A0F9E068411C04D000F0F4
:10072000EDF9E06800F0ABF9D4E902122868C0F8EE
:100730000825C0F8101570BD2DE9FC410646C0071C
:100740004FF000050ED0104F00240122385D0095B7
:1007500000231146019500F02BF9641C042CF4D3FE
:1007600000F01CF8B0070DD5074E0024361D0022FE
:10077000305D032300951146019500F019F9641CC2
:10078000042CF4D3BDE8FC81E81400000249085CA5
:10079000012100F0BDB90000E814000010B50024EC
:1007A0002046FFF7F3FF641C042CF9D310BD8268C8
:1007B00083881A4003689A5C0A708168491C8160CA
:1007C0007047C26883881A4003689954C168491CFD
:1007D000C160704710B50446C0B2FFF7F7FE20466F
:1007E00010BD000070B50D46044600684FF48871D6
:1007F00000F0B7F94FF49071206800F0B2F94FF4AF
:100800009271206800F0ADF94FF4A271206800F0F9
:10081000A8F94FF4AC71206800F0A3F920681249E0
:10082000C0F804132068690740F30730090E002858
:1008300004DB00F1E02080F8001405E000F00F0078
:1008400000F1E02080F8141D206840F307300028F4
:1008500009DB00F01F02012191404009800000F1F6
:10086000E020C0F8001170BD100342008AB00120E2
:10087000FFF762FF182216496846FFF7DDFC1548AE
:10088000069015494FF48070CDE9070109900723C0
:10089000124A06A96846FFF747FE08B1FFF7F6FDC2
:1008A0000FA0FFF7B3FD06A8FFF724FE0028FAD13A
:1008B0009DF81800FFF78AFE0028F9D19DF818006E
:1008C000712801D05128EED10CA0FFF79FFDFEE763
:1008D000D014000044000020440100207B110000DF
:1008E0000D0A55415254206578616D706C65207316
:1008F0007461727465642E0D0A000000200D0A45B3
:10090000786974210D0A0000F0B505460478154891
:1009100089B0164640F82420124A08690832A2F12C
:100920000C0742F82400487F385520226846FFF71C
:1009300083FC04942878385C48B10EB10A4A00E080
:1009400000226946281D00F087FA09B0F0BD0EB1FB
:10095000064A00E00022694605F10C0000F030F97B
:10096000F3E70000040000208D13000031120000A6
:1009700030B40378054CE35C1BB130BC001D00F0C3
:10098000A1BA30BC0C3000F085B900000000002096
:1009900030B40378054CE35C1BB130BC001D00F0A3
:1009A00013BB30BC0C3000F0EBB90000000000209D
:1009B0002DE9FF411C46DDE90A7815460E466846DA
:1009C00000F068F846EA450141EA840141EA07225D
:1009D00042EA0841009A00EB8200C0F80017BDE827
:1009E000FF812DE9FF411C46DDE90A7815460E46D8
:1009F000684600F05DF846EA450141EA840141EAB3
:100A0000072242EA0841009A00EB8200C0F8001772
:100A1000BDE8FF812DE9FF411C46DDE90A78154656
:100A20000E46684600F052F846EA450141EA840164
:100A300041EA072242EA0841009A00EB8200C0F82E
:100A40000017BDE8FF811CB500220B46009211463D
:100A50000192FFF7C6FF1CBD1CB500220B46009299
:100A600011460192FFF7D6FF1CBD1CB50021009175
:100A70000B46012201911146FFF7B3FF1CBD1CB5C7
:100A8000002100910B46012201911146FFF7C2FFA0
:100A90001CBD00000168202902D24FF0A040704721
:100AA00001F01F0101600148704700000003005081
:100AB0000168202902D24FF0A040704701F01F01C9
:100AC00001600148704700000003005001682029C0
:100AD00002D24FF0A040704701F01F0101600148B1
:100AE000704700000003005001B56846FFF7E0FFC3
:100AF000009A01219140C0F8081508BD01B568466B
:100B0000FFF7E4FF009A01219140C0F8081508BDE5
:100B100038B501240090684631B1FFF7BBFF00995A
:100B20008C40C0F8084538BDFFF7B4FF00998C40F1
:100B3000C0F80C4538BD4058002800D0012070474F
:100B400008B5002242504058009008BDD0F8040378
:100B5000084000D0012070474058002800D00120F4
:100B6000704708B5002242504058009008BD01214E
:100B7000B1EB507F01D1012070470020704770B564
:100B80000D4600F085FA04000FD00020FFF748FD65
:100B9000207920B10020FFF745FD112070BD012014
:100BA000256020710020FFF73DFD002070BD000092
:100BB0000149024800F054BB4402002000200040DC
:100BC0002DE9F0410546007916460F4600EB40013D
:100BD0002D4A01EBC00102EB810494F82A1011B1F7
:100BE0000820BDE8F081294951F820102868FFF756
:100BF000C6FF08B11120F4E739462846FFF726FD65
:100C000066603869206030004FF001062FD03F7FCA
:100C10004FF48E712868FFF793FF4FF4A271286894
:100C2000FFF78EFF28681A49C0F8041328684FEAB6
:100C3000471140F30730002804DB00F1E02080F882
:100C4000001405E000F00F0000F1E02080F8141D12
:100C5000286840F30730002809DB00F01F0106FA7E
:100C600001F14009800000F1E020C0F8001128687F
:100C70000421C0F800150020A061E06184F829007B
:100C800044F8140FA675ACE744020020F0140000ED
:100C9000800002002DE9F05F054600794FF40176EF
:100CA00000EB400303EBC000344B03EB8004002057
:100CB000636813B12B68C3F80863A3694FF0000998
:100CC0006BB1E06938B1606810B12868C0F804639E
:100CD0001120BDE8F09FE2610120216105E0C4F828
:100CE0002490A261E160C4F81C9094F8291001439B
:100CF00002D1284600F007FA60680028286803D06F
:100D0000C0F804630020E4E74FF4A2763146FFF711
:100D100017FFB2464FF4927B59462868FFF70BFF46
:100D200006464FF484712868FFF705FF8046514658
:100D30002868FFF700FF074648EA07003043EBD07A
:100D400056EA070007D12146286800F0ADF9A169ED
:100D5000606A8142E0D8C4F818900EB10320B8E769
:100D60000FB10F20B5E794F8291001200029296858
:100D700001D00860C6E74860C4E7000044020020D4
:100D80002DE9F05F054600790B4600EB400101EBD1
:100D9000C000244901EB8004284600F045F810B15A
:100DA0001120BDE8F09F62614FF00009C4F8209067
:100DB000A36084F828904FF48E784E464146286808
:100DC000FFF7BEFE28684FF0010AC0F808A02146D0
:100DD000286800F0A8F9606808BBD5F800B067691A
:100DE0000FE000BF94F8280008B10F2615E0414637
:100DF0005846FFF7A0FE0028F4D02146584600F0E0
:100E000092F9206AB842F2D3574641462868FFF764
:100E100092FE0028F9D02868C760C4F814903046C4
:100E2000BFE7000044020020007900EB400101EB25
:100E3000C000044901EB80004069002800D0012077
:100E400070470000440200200149024800F0B6BA91
:100E500070020020002000402DE9F04105461646B2
:100E600000790F46154A00EBC00102EB810494F8AB
:100E7000201011B10820BDE8F081114951F820106F
:100E80002868FFF77CFE08B11120F4E739462846B0
:100E9000FFF717FC6660386920601EB1397F28466D
:100EA000FFF7A0FC28680821C0F800150020A06109
:100EB000E0616061012184F82010DCE7700200200D
:100EC000F41400002DE9F05F044600790E4600EBB3
:100ED000C001DFF8F0A017460AEB81053046FFF7A6
:100EE00046FEB0B168684FF000084FF4047910B1C5
:100EF0002168C1F80893A8694FF0000B80B1E86938
:100F000048B1686810B12068C0F804931120BDE8AA
:100F1000F09F1020FBE7EF614FF001082E6102E027
:100F2000EE60C5E9067B00254FF488712068FFF765
:100F300018FE4FF4A2712068FFF713FE2068C0F876
:100F40003465C0F838752068B8F1000F12D0D0F8B9
:100F5000001241F02001C0F800122079D04600EBC9
:100F6000C0010AEB8100406838B12068C0F80493E2
:100F70002846CCE701210160EFE74FF4887A4FF46F
:100F8000A27951462068FFF7E7FD074649462068E9
:100F9000FFF7E2FD06464FF492712068FFF7DCFD93
:100FA000014647EA06000843EBD0227902EBC20370
:100FB00008EB8302C2F818B001B10325002ED7D088
:100FC0000F25D5E7700200202DE9F04704460E46B4
:100FD0000079274900EBC00001EB80051746304639
:100FE000FFF7C5FD30B1204600F044F820B11120D4
:100FF000BDE8F0871020FBE76F61AE604FF490779B
:101000004FF0000839462068FFF7ABFD4FF4AC768F
:1010100031462068FFF7A5FD2068AA686969C0F815
:101020004425C0F8481520684FF00109C0F8089021
:101030006868D0B9BA4651462068FFF78DFD07466B
:1010400031462068FFF788FD0743F4D010B14FF018
:101050000F0808E02068C0F80C9031462068FFF7C0
:101060007BFD0028F9D0002068614046C0E7000001
:10107000700200200079054900EBC00001EB800000
:101080004069002800D00120704700007002002055
:101090000349884201D1034870470020704700008F
:1010A000002000401400002070B5054688690C46F9
:1010B00000284FF4847128460AD0FFF741FDD5F887
:1010C0001805626AE1688854606A401C606270BDFD
:1010D000FFF736FDD5F8180570BD1FB501238DF853
:1010E0000030CDE90121D0E90012684690471FBDCC
:1010F0001FB501238DF80030CDE90121D0E90012A0
:10110000684690471FBD10B5044600684FF49271C1
:10111000FFF716FD4FF484712068FFF711FD20687A
:101120000121016010BD70B50C4605464FF48E716B
:10113000FFF706FD216AA068415C206A401C20621E
:10114000C5F81C1570BD1FB500228DF80020029156
:10115000816801914261D0E90012684690471FBD45
:101160001FB500228DF80020029181680191426133
:10117000D0E90012684690471FBD0178022901D0CE
:10118000012902D14068FFF781B970477CB5017829
:10119000254DA1B301290BD002291DD18DF80010D6
:1011A000C068691C01900122C81DFFF7E1FB30E017
:1011B000017A59B1406801781C48FFF78DF91B4C42
:1011C000012650B18DF8006001900DE01649012212
:1011D000491CC81DFFF7CCFB7CBDA068E1688142BB
:1011E00005D000208DF80000696868468847A0682F
:1011F000E168081AA1888842E8D9AE707CBDFFE793
:101200000A4809491030FFF74CF930B103208DF836
:101210000000696868468847F0E70349012201F148
:101220000800FFF7B5FBE9E71C000020940200204E
:101230001FB50A4601788DF8001041680191017AC6
:101240008DF80810C0680390044850F82210083840
:1012500050F82220684690471FBD00000C00002077
:101260002DE9FF470C4605464FF40071FFF76EFC71
:1012700001274FF40178002618B34FF492794946BC
:101280002846FFF758FCE0B149462846FFF758FCCE
:10129000C5F8088394F8290000B96F6002208DF822
:1012A0000000D5F88004C5F880040390A06902907E
:1012B000E0680190A661E661D4E9001268469047B3
:1012C00028E004212846FFF741FC18B34FF484714D
:1012D0002846FFF730FCE8B121462846FFF7E4FE38
:1012E000616AA069884215D1E06938B1E268616A33
:1012F000A0612069E6616662E06008E094F8290078
:1013000000B96F60C5F80883A661E268616A20468B
:10131000FFF7E3FE4FF48E7841462846FFF70BFCBB
:1013200080B16069216A814202D294F8280028B312
:1013300041462846FFF704FC606918B16169204600
:10134000FFF701FF4FF4A27841462846FFF7F3FB71
:10135000002818D041462846FFF7F2FB94F82900F0
:1013600000B12F60A06900280DD0A661E268616A13
:1013700004B02046BDE8F047FFF7AFBE214628463F
:10138000FFF7D1FEDEE7BDE8FF8700001FB50A4684
:1013900001788DF8001041680191017A8DF80810EC
:1013A000C0680390044850F82210083850F82220F2
:1013B000684690471FBD00000C0000202DE9FF414A
:1013C0000C464FF4927705463946FFF7C5FB0026D9
:1013D000B8B139462846FFF7C4FB02208DF800005B
:1013E000D5F88004C5F880040390D5F83C05029038
:1013F000E0680190A661E661D4E900126846904772
:1014000023E04FF4887739462846FFF7A5FBE0B183
:1014100039462846FFF7A5FBD5F83C15A069884258
:1014200013D1E06960B1E268D5F8000220F0200035
:10143000C5F80002E069A0612069E661E06001E0B2
:10144000A661E2682046FFF753FE4FF4A2773946C3
:101450002846FFF781FB68B139462846FFF781FB34
:10146000A06938B1A661E661D5F83C152046E2686E
:10147000FFF73EFE4FF4907631462846FFF76CFBAF
:1014800060B131462846FFF76CFB0120E8606069D7
:1014900020B1D5F84C152046FFF762FE4FF4AC762C
:1014A00031462846FFF758FB00280ED03146284623
:1014B000FFF757FB6069002807D0D5F84C1504B03A
:1014C0002046BDE8F041FFF74BBEBDE8FF810000BC
:1014D00008000000060000000500000007000000F2
:1014E0000000000000E0D7010D0E0F100B0C1819C2
:1014F000B10B0000490E0000FFFFFFFFFFFFFFFFE1
:10150000FFFFFFFFFFFFFFFF0000000000000000E3
:101510000000D60106010000381500000000002080
:10152000440000001C0400007C1500004400002062
:10153000742200002C0400000000000000000000E5
:10154000000000000000000000000000000000009B
:10155000000000000000000000000000000000008B
:1015600000200040000000000020004000000000BB
:0C15700000000000000000000090D0030C
:0400000500000201F4
:00000001FF
