:020000040000FA
:1000000010810020110400001904000031020000DA
:100010001D0400001F040000210400000000000077
:1000200000000000000000000000000023040000A9
:10003000250400000000000027040000290400003F
:100040002D2800002B040000492A00002B0400008A
:100050002B0400002B040000612500002B0400008D
:100060002B0400002B0400002B0400002B040000D4
:100070002B0400003D2800002B0400002B0400008E
:100080002B040000652800002B0400002B04000056
:100090002B0400002B0400002B0400002B040000A4
:1000A0002B0400002B0400002B0400002B04000094
:1000B0002B0400002B0400000000000000000000E2
:1000C0002B0400002B0400002B0400002B04000074
:1000D0002B0400002B0400002B0400002B04000064
:1000E0002B0400002B040000E908000000000000C1
:1000F000000000002B040000000000002B040000A2
:1001000000000000000000000000000000000000EF
:1001100000000000000000000000000000000000DF
:1001200000000000000000000000000000000000CF
:1001300000000000000000000000000000000000BF
:1001400000000000000000000000000000000000AF
:10015000000000000000000000000000000000009F
:10016000000000000000000000000000000000008F
:10017000000000000000000000000000000000007F
:10018000000000000000000000000000000000006F
:10019000000000000000000000000000000000005F
:1001A000000000000000000000000000000000004F
:1001B000000000000000000000000000000000003F
:1001C000000000000000000000000000000000002F
:1001D000000000000000000000000000000000001F
:1001E000000000000000000000000000000000000F
:1001F00000000000000000000000000000000000FF
:10020000DFF80CD000F0D6F900480047297900004B
:100210001081002000B583B002900091019244F259
:10022000010071466A4602F07DFD03B000BD00008A
:10023000094B1EF0040F1CBFEFF309801847EFF3C2
:1002400008800649064A884201D8904202D88D4665
:100250004FF0000018470000052600001081002024
:100260001061002030B450E8012F93B2C4892344B8
:100270008489A34228BF1B1B0489A34202BFBFF38A
:100280002F8F002007E0C3EA020340E80134002C6E
:10029000E9D14FF001000A6030BC704750E8012FEF
:1002A000C2EA024240E801210029F7D1704730B488
:1002B00050E8022F1FFAA2F3C488A34202BFBFF383
:1002C0002F8F00200DE0C48923448489A34228BFD6
:1002D0001B1BC2EA034340E80234002CE8D14FF074
:1002E00001000A6030BC704750E8022FC2EA224287
:1002F00040E802210029F7D17047034653E8022F56
:10030000D988B2EB324F4FF0000017BF92B241EAEA
:10031000014142EA014104E05A68B2EB324F08BFA2
:10032000012043E80212002AE8D1704730B40446A5
:1003300054E8000F0D4644E80053002BF8D1156037
:1003400030BC704730B4044654E8000F40EA010561
:1003500044E80053002BF7D1156030BC704730B42F
:10036000044654E8000F00EA010544E80053002B5E
:10037000F7D1156030BC704730B4044654E8000F24
:1003800080EA010544E80053002BF7D1156030BC2A
:10039000704730B4044654E8000F00EB010544E810
:1003A0000053002BF7D1156030BC704730B40446C1
:1003B00054E8000FA0EB010544E80053002BF7D1EF
:1003C000156030BC704770B404464FF0000054E82C
:1003D000006F0D68AE4207BF44E80023012044E8E7
:1003E00000630E60002B1CBF0020F0E770BC70475C
:1003F00030B4044654E8000F88422CBF451A054625
:1004000044E80053002BF5D1156030BC7047000064
:100410000648804706480047FEE7FEE7FEE7FEE79E
:10042000FEE7FEE7FEE7FEE7FEE7FEE775280000D1
:100430000102000000487047F44801002DE9FE4326
:10044000994615468846074601AC022942D3002D3D
:1004500040D000200290A8F101004FF0FF3600903C
:1004600022E000FB057201FB057011464A469047E9
:10047000002805DC54F82600304444F8260013E038
:1004800060682A4600FB057154F8040C00FB0570F7
:1004900007E00B7890F800C001F801CB00F8013BB1
:1004A000521E002AF5D1764254F8040C6168884245
:1004B000D7DC4B462A463846FFF7C0FF54F8040CF9
:1004C0004B46A8EB0001401C00FB05702A46491E64
:1004D000FFF7B4FFBDE8FE8310B5441A034694420B
:1004E00009D28418114403E011F8013D04F8013DDC
:1004F000521EF9D210BD40EA0104A40703D009E05E
:1005000010C9121F10C3042AFAD203E011F8014BDC
:1005100003F8014B521EF9D210BDD2B201E000F82F
:10052000012B491EFBD270470022F6E710B5134697
:100530000A4604461946FFF7F0FF204610BD421C4C
:1005400010F8011B0029FBD1801A704710B500225A
:1005500000E0521C835C8C5CA34201D1002BF8D1DB
:10056000D8B2E1B2401A10BD034611F8012B00F8D1
:10057000012B002AF9D11846704730B505460020F6
:10058000034600E05B1C934205D2EC5CC85C201A79
:1005900001D1002CF6D130BD10B54843044602F01D
:1005A000AFFA002805D00021002C02D0641E0155AE
:1005B000FAE710BD064C074D06E0E06840F0010385
:1005C00094E8070098471034AC42F6D3FFF71CFEBE
:1005D000BC6C0100DC6C010070B58C1810F8015B7C
:1005E00015F0070301D110F8013B2A1106D110F8CC
:1005F000012B03E010F8016B01F8016B5B1EF9D1D0
:100600002B0705D40023521E0DD401F8013BFAE755
:1006100010F8013BCB1A921C03E013F8015B01F8C0
:10062000015B521EF9D5A142D8D3002070BD000055
:100630002DE9F04383B09DF834609DF838400028E0
:1006400000F09D8001290F4626D852B30C9941B382
:10065000002B59D1C6F10F035FFA83F80F9B0546B3
:1006600023BB231F0C2B12D8E30710D4C6F10D03B4
:10067000DBB2062B0BD8B8F1030F40F2F980062E3F
:1006800005D9C8F10F039E42019200F089808F4C7A
:10069000204603B0BDE8F0838D4C204603B0BDE892
:1006A000F0838C4C204603B0BDE8F083012BF8D1D9
:1006B000097B03292DD90729E9D8102CE7D801A3F4
:1006C00053F824F0990700008F0600008F06000001
:1006D0008F060000950700008F0600008F060000BF
:1006E0008F060000910700008F0600008F060000B3
:1006F0008F0600008F0600008F0600008F060000A6
:100700008F0600009D070000734C204603B0BDE833
:10071000F083102CBBD801A353F824F08D07000000
:100720008F0600008F0600008F060000890700007A
:100730008F0600008F0600008F0600007B07000078
:100740008F0600008F0600008F0600008F06000055
:100750008F0600008F0600008F0600006107000072
:1007600003230D2E93D1994240F08C800B994FEAD0
:10077000C80331FA03F384D089E70223F1E7574C29
:10078000204603B0BDE8F0830123EAE72346E8E70B
:100790000623E6E70523E4E70423E2E70723E0E78F
:1007A0009821284601F03AFA019A012300204FF0DF
:1007B000030C11461022C5E90D33AB626862286351
:1007C000C5F820C0A81801F025FA1021284601F02C
:1007D00025FA0A9B85F8846085F88540C5F8807005
:1007E00005F18609002B4BD195F986302CB1023CDE
:1007F00004EBD4746410E40064B2C6F10E07FFB2D7
:100800003B431C4305F187000C9985F8864032462E
:1008100001F000FA4246B8F1030F94BFC8F110008E
:100820000C20042A28BF04220BA9484400F074F9C4
:10083000494600221023284600F006FD10220446F7
:10084000294605F14C0001F0E5F9ECB90A9BB3F536
:100850007F4F21D26BBBEB670C9985F85C703246F9
:1008600005F15D0001F0D6F9012385F86B3014E73E
:100870000B994FEAC80331FA03F33FF400AF06E7E0
:100880004023B3E7164C08E7A4F57104042C19D8EB
:10089000144B53F8244000E74FF6FF63A5F86C3083
:1008A00004220AA905F16E0000F036F90A9B06330E
:1008B000D1E702220AA905F16C0000F02DF90A9B8C
:1008C0000233C8E74FF47504E7E600BF0C15F000EB
:1008D0000315F0000D15F0000115F0000015F000F3
:1008E0001115F000846A01000B490C4B0C4A4FF0C3
:1008F000FF3008601B68BFF35B8F52E8001F42E8BF
:1009000000300028F9D1BFF35B8F9942F3D1BFF3D8
:100910005F8F044A1360704704BA025000BA025055
:100920000441002008BA025088B3F8B50E4651B30E
:10093000144632B30546C06F38B3824221D202F169
:1009400010073F1A974228BF1746801A05F16C031B
:1009500018443A4601F05EF9E21BF119284600F00E
:100960007FFD58B1A0F57100042816D8042814D8CA
:10097000DFE800F0050311090F000948F8BD094838
:10098000F8BD0948F8BD0948F8BD0948F8BD054853
:1009900070470848F8BD0848F8BD4FF47500F8BD29
:1009A0001115F0000015F0000715F0000515F00016
:1009B0000E15F0000615F0000315F000F8B5069EC0
:1009C000002847D004460798002800F08E800029B0
:1009D00043D0002E00F08B80002B43D094F884701D
:1009E0009942C7F10F07FFB203D042D9981881424C
:1009F00042D322B1204600F085FD0546F8B9022316
:100A0000D4F88020236200232363626204F15C0136
:100A10001022204601F0FEF8C7F1100020443946AC
:100A200001F0FCF8D4F880305BBB1023324604F1AF
:100A30004C01204600F008FC0546002848D0A5F5EA
:100A40007105042D55D8042D53D8DFE805F00317A0
:100A50003F083C00284D2846F8BD002AB9D0274D54
:100A60002846F8BD7ABB94F88470C7F10F07FFB22F
:100A7000C5E788188342BCD2214DECE7214D2846BA
:100A8000F8BD04F186073846102101F0C7F894F844
:100A900085203146384601F0BDF83A4639461023E4
:100AA000204600F0D1FB05460028C8D194F88520E7
:100AB000394604F14C0001F095F8D0B9079A94F842
:100AC00085301370C7E7104D2846F8BD0F4DC2E7BB
:100AD00094F885107018C1F1100101F09FF8079A81
:100AE00094F8853013702846F8BD094DB3E7094DD9
:100AF000B1E74FF47505AEE70015F0000515F000FD
:100B00000815F0001115F0000615F0000315F000AF
:100B10000C15F0000D15F0003AB10A44013812F836
:100B2000013D00F8013F8A42F9D10020704700BF23
:100B300070B5002849D00D46002943D0244E044604
:100B40004FF0FF31306801F089F890BB002001F0D0
:100B5000B1F850BB20462A46012101F049FA04466B
:100B6000012001F0A7F8B8B9306801F091F850B948
:100B7000012001F09FF808B9204670BD154800F02B
:100B8000D7FF204670BD144800F0D2FF012001F0CD
:100B900091F80028F0D0F1E70E4800F0C9FF306866
:100BA00001F076F80028E3D0EDE70C4800F0C0FF34
:100BB000D0E70B4800F0BCFF002001F07BF80028D4
:100BC000C8D0F2E7074C204670BD074C204670BDE8
:100BD00014810020446A01002C6A0100646A01004B
:100BE000146A0100200CF000250CF00000284CD005
:100BF000F0B50D4689B0002938D00446E42101F053
:100C00000DF801A9204600F089FD10B1204809B077
:100C1000F0BD204F4FF0FF31386801F01FF880BB66
:100C2000002001F047F840BB01A92A46204600F009
:100C3000C7FA0646012001F03DF8D0B9386801F046
:100C400027F878B9002EE1D12046E42100F0E6FF34
:100C500029462046FFF76CFF0F4B002818BF1846A7
:100C600009B0F0BD0D4800F063FFEBE70C4809B098
:100C7000F0BD0C4800F05CFFE0E70B4800F058FFC7
:100C8000D2E70A4800F054FFCAE70948704700BF9E
:100C9000110CF00014810020120CF0002C6A0100ED
:100CA000200CF000446A0100646A0100146A01002B
:100CB000250CF0002DE9F041002800F081801D4650
:100CC000036A072B0F46044616D055B9032B0FD1E4
:100CD000036B6BB9C0E90F55C0E9115500F13C0732
:100CE00010252B4639462046BDE8F04100F0ACBA4D
:100CF0002E463046BDE8F081436B002B37D1B5F569
:100D0000805F39D215B9236B002B35D167484FF07E
:100D1000FF3100F0A3FF002840F09780002000F092
:100D2000C9FF002840F09980614B01221A60236AB4
:100D3000032B23DC002B23DA5E4E5F4A1368002B63
:100D4000FCD15B495D4A0B60106840F0400000F048
:100D500077FE012000F0AEFF00287AD1534800F062
:100D600097FF0028C5D0564800F0E2FEC1E7012BEE
:100D7000C8D1B5F5803FC5D3524EBAE7072BDBD1BA
:100D8000636A012B78D8636B012B57D8A36B012BB7
:100D900000F28480204600F0BFF806460028CCD13F
:100DA000A36A012B6AD033F0020271D0236A013B9F
:100DB000062B13D8DFE803F00944091212120900C8
:100DC0004FF471063046BDE8F0813F4B22681A604F
:100DD00062685A60A2689A60E268DA603B493C4AFD
:100DE00001230B601560002D3BD1226B0AB9394AF3
:100DF0001360314B1E68002EFCD1236A013B062B89
:100E00009BD801A252F823F0250E0000450E0000E9
:100E1000250E00003B0D00003B0D00003B0D0000C7
:100E2000250E0000284A2C4B126822601A68626066
:100E30005A68A26008331B68E3607EE7274E7CE7B0
:100E4000274BC3E7264A274BEEE7274800F070FE02
:100E500064E7264800F06CFE80E7254800F068FE55
:100E600062E7636B012B1BD0224A234B17601020D3
:100E70001D6000F0EDFDBCE7204E5EE7204B2269CF
:100E80001A6062695A60A2699A60E269DA608DE765
:100E90001C491D4A0B600123136087E71B4E4CE77A
:100EA0001B4A1C4B176040201D60E2E72481002094
:100EB00010B802500100F10010B9025004BA0250FB
:100EC000386B01000500F10040B402507CB40250C0
:100ED000BCB4025024B5025044B402500300F100E7
:100EE00060B4025064B40250206B0100E06A01005B
:100EF000006B010030BC025034BC02500200F10013
:100F000000B4025038BA025078B402500400F10024
:100F100028BC02502CBC025038B5224B224A012179
:100F2000054619601368002BFCD1204A1368002B7A
:100F3000FCD11F4A1368002BFCD11E4A1368002BFA
:100F4000FCD11D4B1C68002CFCD14FF0FF3000F091
:100F50006BFD2B6A23F00403032B184B18680CBF9E
:100F600020F0400020F0800000F06AFD144B0022C9
:100F70001A602B6A23F00402032A18BF6C6A114A14
:100F80004FEA830318BF04F0010403F01C031C4361
:100F900014602B6A072B02D10B4B01221A60002030
:100FA00038BD00BF00B9025070B4025020BD0250DD
:100FB00020BC025038BD025038BC025004BA025066
:100FC000BCB40250C0B402507CB40250002861D0BE
:100FD0002DE9F0414C1EB4F5047F27D233B32AB378
:100FE000CD00012B05F1FF3E30D000218C460F468D
:100FF0000E4603F1FF384C0901F01F0550F824405C
:101000001F2D24FA05F418BF04F0010421B90126AC
:10101000B44631462746EEE7B34213D0A74201D18A
:101020000CF1010C464504D1624502D21A48BDE8D4
:10103000F0813C4601318E4506F10106EAD20020DE
:10104000BDE8F08100264FF0010CF3E70026B4461E
:1010500037463446610904F01F0350F821101F2B56
:1010600021FA03F118BF01F001013CB15FB98C45D1
:1010700001D0614608E00136614605E001263446AC
:101080008C460127E6E73E46B242CFD30134AC425C
:10109000F6D1D4E700487047370CF10030B585B081
:1010A00004460D46104803924FF0FF3100F0D6FD84
:1010B000039A68B9204600950123002100F0C8FA80
:1010C0000446094800F0E4FD38B9204605B030BDBB
:1010D000064800F02DFD039AECE7054800F028FDD6
:1010E000204605B030BD00BF24810020B06A010059
:1010F000C86A01000B6802E0082B0B6006D8426842
:1011000013424FEA4303F7D000207047004870476E
:10111000310CF1000138072805D8DFE800F00A0E8D
:10112000041204040406094870478B698B60002090
:101130007047CB688B60002070470B698B60002084
:1011400070474B698B600020704700BF310CF10085
:1011500030B4DDE90234049D02940024CDE9035447
:1011600030BC01F021B800BFF0B4C900002401F187
:10117000FF3C2646274606E09F4216D001266545DD
:1011800019D82C461F46630904F01F0150F823307C
:101190001F2923FA01F304F1010518BF03F001032D
:1011A000002CE9D101263546EBE701369642E6D11F
:1011B0000248F0BC70470020F0BC7047360CF100CC
:1011C00010B586B005AB0124CDE9012400930022BF
:1011D00004AB00F0E9FF06B010BD00BF084B094AA0
:1011E000002119601368002BFCD107480749084A01
:1011F00003604FF480604FF0FF3308601360704766
:101200002CB1025010B90250C4B1025008BA0250B9
:1012100008B1025038B504464FF4806000F018FC65
:10122000054D06480649074A00232B6003600B68FA
:101230002360136038BD00BFC8B102502CB102500A
:1012400004B1025008B10250002800F0BF80F8B588
:101250001D46436B0E4617460446002B35D0012B26
:1012600002D1B5F5803F33D265484FF0FF3100F031
:10127000F5FC002857D1002000F01CFD00284ED1BD
:10128000604B01221A60236A032B28DC002B28DA2A
:101290005D4A1368002BFCD15A4A1360236A23F07D
:1012A0000403032B594B18680CBF40F0400040F07A
:1012B000800000F0C5FB012000F0FCFC002836D1C6
:1012C0004F4800F0E5FC28B9F8BDB5F5805FCBD3F9
:1012D0004F48F8BD4F4800F02BFC0020F8BD072B0D
:1012E000D6D1636A012BD3D8636B012BD0D8A36B03
:1012F000012BCDD82046FFF70FFE0028C8D1A36AE6
:10130000012B6CD033F0020263D0236A5A1E062AE6
:101310001BD8DFE802F0104B101A1A1A10003E48D2
:1013200000F006FCACE73D4800F002FCA3E73C48B7
:1013300000F0FEFBC4E73B4B22681A6062685A600B
:10134000A2689A60E268DA60236A23F00403032B40
:1013500031D0A36B012B4CD0334A344B1760202083
:101360001D60636B012B2CD0314A324B16601D601F
:1013700000F06EFB244A1368002BFCD1236A013B6A
:10138000062B10D8DFE803F00414040F0F0F04003D
:10139000244A294B126822601A6862605A68A26067
:1013A00008331B68E3600123236371E7234BC3E722
:1013B000224A234BEEE7636B012B01D01020D3E7C9
:1013C0004020204A204B16601D60D1E74FF4710089
:1013D00070471E491E4A0B600123136095E71D4BA1
:1013E00022691A6062695A60A2699A60E269DA60E9
:1013F0008BE7194A194B176080201D60B1E700BFC9
:101400002481002010B8025010B9025004BA0250D2
:101410000500F100386B0100006B0100206B01003A
:10142000E06A010040B4025030BD025034BD0250A9
:1014300030BC025034BC025044B4025060B402507C
:1014400064B4025028BC02502CBC025038BA02507E
:1014500078B4025000B4025028BD02502CBD025096
:101460002DE9F04700F1860A04460F465046102148
:1014700016464FF0000800F0D1FB0323C4E90838FA
:1014800004F16C01424620461023FFF7DDFE04F113
:101490004C09054621464846102200F0BBFB2DB9F9
:1014A00006F00F0536F00F0603D1A5B92846BDE8B2
:1014B000F0874246394633462046FFF7C5FE1022E4
:1014C00080462146484600F0A5FBB8F1000F16D132
:1014D0003744002DEAD02A463946504600F09AFBA0
:1014E0005146102300222046FFF7AEFE2146054656
:1014F0001022484600F08EFB2846BDE8F08745469E
:10150000D4E700BF2DE9F04132F00F0482B002F0C1
:101510000F0580460E461F4604D16DB9284602B01D
:10152000BDE8F08100220092224600F02DF830BB89
:1015300026442744002DF1D008F1860420461021CE
:1015400000F06CFB31462A46204600F063FB009514
:10155000404623462146102200F016F8064620B1E8
:101560000546284602B0BDE8F0812A4638462146A5
:1015700000F050FB3546284602B0BDE8F081054634
:10158000284602B0BDE8F0812DE9F843D0F880503C
:1015900004460F4616469846DDB9032300F14C0970
:1015A000C0E9083505634946102200F033FB2A469E
:1015B000334639462046FFF747FE054610B1284618
:1015C000BDE8F88348461022214600F023FBD4F8FA
:1015D000805065620023022204F15C0922622363C9
:1015E00049461022204600F015FB33464246394654
:1015F0002046FFF729FE05460028E0D14846102284
:10160000214600F007FBD4F88030012BD7D103230B
:1016100004F14C07C4E908352563394610222046F9
:1016200000F0F8FA089B63B9414633460022204691
:10163000FFF70AFE214605461022384600F0EAFA76
:10164000BDE7C3F1100108EB030000F0E7FAEBE798
:10165000F8B5069E002E33D001292FD8012B31D8A2
:101660001C4C074600251C4825600468002CFCD152
:101670001A4D2C68002CFCD1194D2C68002CFCD183
:10168000184D2C68002CFCD1174D2C68002CFCD177
:10169000012B19D01548164B026020201E6001292D
:1016A0000BBF144B144B154A154A17601E6000F00F
:1016B000CFF9144B18680028FCD1F8BD1248F8BDCA
:1016C0001248F8BD1248F8BD1248134B0260802042
:1016D0001E60E4E700B9025070B4025020BD025011
:1016E00020BC025038BD025038BC025030BD025000
:1016F00034BD02502CBC025034BC025028BC0250F5
:1017000030BC025010B902500200F4000100F40095
:101710000300F40028BD02502CBD025030B5042255
:1017200085B00123C0F8D0200B6068460023CDE9C6
:101730000033CDE902330C4600F036FB0546C8B94C
:10174000DDE90030DDE90212E360003BC4E9040199
:1017500018BF0123A26108B143F0020309B143F0AD
:1017600004030AB143F00803002228466360A26024
:1017700005B030BD014800F0DBF9E1E7506B010036
:1017800038B349B31AB338B512F00F051BD1046A48
:1017900024F00404032C01D003B31D4613462A464B
:1017A000FFF752FD58B1A0F57100052818D805289B
:1017B00016D8DFE800F005030A0303080A4838BD1D
:1017C0004FF4700038BD094838BD094838BD074896
:1017D00070474FF47000704706487047064838BDA0
:1017E0004FF4750038BD00BF0200F0000A00F000A1
:1017F0000600F0000800F0000900F000F8B5079FAF
:1018000048B30E460546002A35D0994239D8002FF4
:1018100041D02B6A23F00401032906991FD0002927
:1018200032D03968B14233D3300703D0012B1CD8F2
:10183000EB6A23B311463346069A2846FFF73AFA75
:10184000044660B3A0F57104052C37D8DFE804F036
:101850000310251010174FF470042046F8BDA9B1ED
:1018600039680F2914D93107E4D0032BE2D1DFE71F
:10187000144C2046F8BD0029C9D0134CEDE7134C99
:10188000EBE7134C2046F8BD002ED3D0114CE4E713
:10189000114C2046F8BD114CDFE7114CDDE72B6AF7
:1018A00023F00403032B01D03E60D6E706982946B7
:1018B000102200F0AFF910233B60CEE74FF475041F
:1018C000CBE700BF0200F0000800F0000A00F000C3
:1018D0000C00F0000900F0000D00F0001100F00015
:1018E0000600F00028B108B54C2100F097F900205F
:1018F00008BD4FF47000704798B108B5026A0B46F6
:10190000511E022907D853B101461022184600F093
:1019100081F9002008BD072AF5D0034808BD034817
:1019200008BD4FF4700070470200F0000100F000A5
:1019300078B3032A70B50E461546044601D9052A28
:101940001CD1012E18D8ABB9022D19D0052D17D0F6
:101950004C21204600F062F9052D88BF4FF0FF3280
:1019600013D900200123C4E90826C4E90B00C4E907
:101970000D3370BD094870BD094870BD094870BD80
:1019800056B94C21204600F049F9074B53F8252061
:10199000E7E74FF470007047044870BD0E00F00098
:1019A0000600F0000200F000986A01001200F0004A
:1019B00070B108B5036A013B022B05D831B1102282
:1019C00000F028F9002008BD034808BD034808BD01
:1019D0004FF47000704700BF0200F0000100F000FB
:1019E000C8B110B50C4682B18CB9082B0DD1536823
:1019F000102B0ED1136843B101238362D2E9001288
:101A0000103000F007F9204610BD044810BD04480E
:101A100010BD044810BD4FF4700070470400F00082
:101A20000500F0000300F000014B1860704700BF94
:101A300008BA0250014B0020186070470441002092
:101A4000014B1860704700BF04BA02500020704775
:101A500010B5044682B0C0B1124A134BC1431160A5
:101A60001B680193019B18420AD1104A20BFBFF3A3
:101A70005B8F1368BFF35B8F0193019B2342F5D00B
:101A80000B4B1C60019802B010BD0A4800F050F8E2
:101A9000044A054B4FF0FF3111601B680193019B15
:101AA000E3E700BF04BA025000BA0250044100202C
:101AB00008BA0250806B010008B5FFF7C7FFBDE808
:101AC000084000F045B900BF10B500F045F8A0B9D6
:101AD000FFF7B0FF20B1032400F03AF9204610BD13
:101AE00000F0E8F8034680B90D4A1268120EF02A99
:101AF00006D00524FFF7AAFFEEE70424204610BD18
:101B00000849094A0968914201D00624F2E7074AC8
:101B10000120136000F0CEF804460028DED0E8E78C
:101B200028B9025024BA02500000E0200CBA02503A
:101B3000BFF34F8F0549064BCA6802F4E0621343B6
:101B4000CB60BFF34F8F00BFFDE700BF00ED00E0AB
:101B50000400FA05704700BF08B5184800F062F8A5
:101B600098B9174800F05EF8B8B9164800F05AF86E
:101B7000D8B9154B124A15481A6000F053F8C0B98D
:101B8000134B124A1A60002008BD1248FFF7D0FF1D
:101B90000B4800F047F80028E7D00F48FFF7C8FFD0
:101BA000084800F03FF80028E3D00C48FFF7C0FFDA
:101BB000DFE70B48FFF7BCFFE2E700BF248100200E
:101BC0001881002020810020148100201C81002029
:101BD00010810020B06B0100CC6B0100086C01008B
:101BE000E86B0100A2B1013A30B401398518421EF8
:101BF000002012F8013F11F8014F954283EA0403D7
:101C000040EA0300F5D1003818BF012030BC70470E
:101C100010467047FEF760BCFEF788BC0A460021FC
:101C2000FEF784BC10B5044610B10020206010BD42
:101C30000248FFF77DFF0020206010BD286C0100E6
:101C400010B5044610B10020206010BD0248FFF717
:101C50006FFF0020206010BD286C010010B5044605
:101C600080B10123BFF35B8F54E8002F44E80031BB
:101C70000029F9D1BFF35B8F012AF3D0BFF35F8F47
:101C8000002010BD0148FFF753FFEAE74C6C01004C
:101C900010B5044620B1BFF35F8F0020206010BD57
:101CA0000348FFF745FFBFF35F8F0020206010BDA2
:101CB0006C6C010038B54FF0FF3104461E48FFF749
:101CC000CDFF08BB1D4A54B11368C3B1012B1CD012
:101CD000013B1360BDE838401748FFF7D9BF1068D3
:101CE00058B9174C174B18490125C4F800554FF443
:101CF00080645C600B68002BFCD101301060BDE893
:101D000038400D48FFF7C4BF38BD0F490B68002BA2
:101D1000FCD10B480B49C0F800354FF48063C1F883
:101D20008430BFF34F8FBFF36F8F084B6FF07E414E
:101D300019601368CCE700BF208100200841002013
:101D400000A0025000E100E010B9025004BA0250B5
:101D500008B5FFF7FFFE0F48FFF772FF04210D489B
:101D6000FFF75CFF0C48FFF76BFF0B480421FFF700
:101D700055FF0A48FFF764FF40B90948FFF760FFC5
:101D8000BDE8084006480421FFF748BF0548FFF7B3
:101D9000CFFEF2E72481002018810020208100205E
:101DA0001C810020086C010000234FF4FA714FF4ED
:101DB0007A72C0E900228160C3601846704700BF94
:101DC0002DE9F04F864C80469E460F4694460FCC38
:101DD000B7B00DF11C0A55460FC594E80F0004F189
:101DE000100685E80F000FCE0FAD0FC596E80F0067
:101DF000303485E80F000FCC17AD0FC50FCC0FC5E1
:101E000094E80F00D8F8D040CDF80CE0042C85E819
:101E10000F0001D0082C6BD1409A231DB2EB830F29
:101E20004FEA830B03D06F4837B0BDE8F08F07EB64
:101E30000C019CFA8CF30CF118060CF109003B60C4
:101E40009BFA8BF5802326F00F06321A7D6038440A
:101E50000B720021FFF7E0FE409B1B09ABF1100B5A
:101E600000F0BB80042C47D0DDF80C90CDF808B012
:101E70004B4617ADB1464FF0000823ACBB461E469B
:101E800024E0029FCDF814A00697FFF7A9FD0346B2
:101E90002946204610353BBBFFF78AFD84464FF0AC
:101EA000100E4B465A4649462046BCF1000F1BD146
:101EB0000DEB0E07CDE90067CDF810E0FFF79EFCB3
:101EC000103688B9409BB8EB131F58D2002319462F
:101ED00002222046FFF72CFD014608F101080823E5
:101EE00005AA20460029CCD03F4837B0BDE8F08F86
:101EF0003E4837B0BDE8F08FDDF80C90CDF808B063
:101F000033460FAD4E464FF0000823ACBB46994612
:101F100026E0029FCDF814A00697FFF761FD034667
:101F2000294620461035002BDED1FFF741FD8446BF
:101F30004FF0100E4B465A4649462046BCF1000F62
:101F4000D2D10DEB0E07CDE90067CDF810E0FFF719
:101F500055FC10360028C7D1409BB8EB131F0ED29A
:101F60000023194602222046FFF7E2FC014608F151
:101F70000108082305AA20460029CAD0B4E7DDF8E5
:101F800008B0039D0023194601222046CDE9055BD8
:101F9000FFF7CEFC01460028A6D1082305AA20465B
:101FA000FFF71EFD00289FD105EB0B012046FFF730
:101FB000FFFC0146002897D1409A2846FFF72CFEE7
:101FC000409B009540A901912A4620461946FFF7FB
:101FD00015FC00283FF428AF86E723ACD1E700BF0B
:101FE000A4690100230CF000360CF000210CF00075
:101FF0002DE9F0438FB0884607A917460446FFF73E
:102000008DFB054600284ED1D4F8D050042D01D0C8
:10201000082D4ED1D4F8C4300C2B62D8B8F1000F83
:1020200045D02E1D760106AA04ABCDE900320297F9
:1020300007A905AB002220460596FFF789F800287E
:102040003CD1069B0498D4F8C42023F00303083342
:1020500004F18409184492004946FFF7DBFDD4F8E7
:10206000C400069A04992B1D9E0002EB8002009684
:102070004B4620460692FFF7A3FE054650B9B8F13D
:10208000010F33D0034622464946204600F050F85F
:10209000B0B105462046E421FFF7C0FD38464FF4B5
:1020A000BF51FFF7BBFD28460FB0BDE8F0836E01BE
:1020B000B9E71B4D28460FB0BDE8F083194DE9E79D
:1020C000D4F8D430012243F00103C4F8D430C4F86A
:1020D000CC2000234846C4F8C4304021FFF79EFDC1
:1020E000DCE7114D28460FB0BDE8F08331462046AD
:1020F000FFF794FD2B4622464946204600F018F88B
:102100000028C6D1D4F8D430084AC4F8CC8023F4CF
:10211000803343F00103C4F8D430C4F8DC20D8E79E
:10212000210CF000260CF000040CF000CDAB2301D4
:10213000F0B5054699B01F4600230E46144605A883
:1021400019460322D5F8D050FFF7F2FB38BB014601
:10215000AD00082303AA05A8CDE90345FFF740FC1D
:10216000E8B9611905A8FFF723FCC0B937B92346C0
:102170001022314605A8FFF703FB80B905F11003D3
:1021800002A9019100941946324605A80293FFF76F
:1021900035FB044B002818BF184619B0F0BD0148A4
:1021A00019B0F0BD360CF0002DE9F04F89B01D4696
:1021B000149BDDF84CA004460E4617464BB94FF071
:1021C0008053D3F8002C013200F0A980D3F800BC72
:1021D00008E04FF08053D3F80C2C013200F0A280BD
:1021E000D3F80CBC7C480AF5C1622A60129A00231D
:1021F0004FF0FF311360FFF731FD002840F086807B
:10220000764A774B77491060043219601368069359
:10221000069BD907FAD5714A714B002111601B68E2
:102220000793043213680793079BDB07FAD56C4BBF
:102230006D4A1B680793DDF81C9013680793079B92
:10224000D807FAD56448FFF723FD00285AD1654B1B
:10225000994540F0B680D4F8D43013F400790ED10B
:10226000D90512D52B68129A1B6813603BB1D4F8BC
:10227000D4309B055BD5484609B0BDE8F08FDFF848
:102280007C91484609B0BDE8F08F002F00F08780B0
:10229000564A574B1168B2681B689A4245D10A29C1
:1022A00043D194F8DB3005930AF5C26A0425002770
:1022B0004FF0805804A8FEF7ADFF0498820602D5BF
:1022C00010F01A0039D0D4F8D810059A0B0A03F48C
:1022D0007F030B4323F07F43082AC4F8D83077D01C
:1022E000149B4FEA420CCDE90073002205AB314646
:1022F0002046CDF814C000F089F800285FD1013DD8
:10230000D8D1B4E73B48FFF713FCA0E73A48DFF821
:10231000F090FFF70DFC484609B0BDE8F08F4FF094
:10232000900B5FE74FF4047B5CE7DFF8D890FEF793
:1023300055FF484609B0BDE8F08F129B5246C3F8DE
:1023400000B05946FEF7AAFE002838D1D8F8043C60
:10235000129A013318BFD8F8043C116808BF512302
:102360000293D8F8083C01332ED0D8F8083C0393E8
:102370004B1EB3F5047F0FD2029A02915046FEF72E
:10238000F3FE48B90299039A4FF480635046FEF772
:102390001DFE00283FF46BAF129B1F6093E723F0F4
:1023A0000F03C4F8D430149B0122CDE900933146C9
:1023B00005AB204600F02AF800283FF475AF8146AF
:1023C00055E7DFF83C9056E740F237330393CFE709
:1023D000DFF834904BE700BF2481002004BF025097
:1023E00000BF025012FA12FA08BF025038B1025070
:1023F00030B10250A46C01008C6C0100330CF00071
:10240000350CF000300CF100320CF100002877D0D0
:10241000F8B50C46002971D01D46002B6ED006463B
:1024200022B1012200232A60C0F8D8302B68002B8B
:1024300062D029462046FEF75DFE00285BD1286861
:102440002146FEF767FE002855D1364B3649374AFC
:1024500001271F609C460F60CCF80070A3681360D2
:1024600011688B42F8D1324F3249334A334B4FF027
:10247000000CC7F800C004270F600A2111606FF03C
:102480003A021A60079B012B4FF080533AD0D3F8E1
:10249000002C013243D0D3F8002C294BA3FB02328D
:1024A0001209A368274C2849284F03FB02F303EBCA
:1024B0004303DB039B092360254B2C680C601A60E7
:1024C000069A244C3A604FF48062226001224FF059
:1024D000FF3441F8C44C43F80C2CD6F8D8302A68A5
:1024E00023F07F4343EA0263C6F8D8302A6843EA00
:1024F0000223C6F8D830F8BD1748F8BD1748F8BD14
:1025000016487047D3F80C2C013206D0D3F80C2CA7
:102510000B4BA3FB0232FA40C3E71622C1E70622A7
:10252000BFE700BFC4B1025040B1025030B1025009
:102530002CB102500CB1025038B1025000B102501F
:10254000ABAAAAAAD8B10250CCB10250D0B1025065
:10255000D4B1025008BA0250310CF100350CF10030
:102560002DE9FC410025DFF8948000954FF480763A
:1025700001242F46019530460BF068F838B1D8F8A1
:102580000403204203D030460BF056F82543361D95
:1025900064007F1CB6B2082FEDD34FF4BE74204602
:1025A0000BF054F848B120460BF046F845F00045D2
:1025B0006A46022100200AF047FF15F0FF0F16D0EF
:1025C000012600242E420ED008EB8401D1F810051C
:1025D000D1F81015C0F30520094AC1F3014152F8A2
:1025E000242002B190477600641C082CEAD3002D09
:1025F00002DA68460DF036FABDE8FC810060004062
:10260000182100201CB582460BF0C6FB0BF04AF9DE
:102610000028FBD139485FEA0A05076839483A497A
:10262000374EA0EB01004FEAD0004FF0010808EB55
:10263000004470881ED0002821D0204633A1AA690A
:102640000BF06EFA7088002819D0D5E90201CDE9A7
:102650000001D5E90023204632A10BF079FA7088F9
:1026600068B1E8690090D5E9042320463BA10BF04E
:1026700066FA04E018B1204642A10BF04DFA1F485B
:10268000001D0068800705D5708818B120464A49AA
:102690000BF042FADFF82491002500BF08FA05F09C
:1026A000384208D059F825202AB1708818B1204640
:1026B00043A10BF035FA6D1C1A2DEFD3380608D55F
:1026C000708830B10D480C30026820463FA10BF0F5
:1026D00027FA380408D5708830B1084810300268ED
:1026E000204642A10BF01CFA0448C8300068C0071D
:1026F00000D000BE504600F087F8000028ED00E052
:10270000BC020020E46D01004C6D010048415244C0
:10271000204641554C54206174203078253038587B
:1027200000000000202052303A2020307825303838
:1027300058202052313A2020307825303858202037
:1027400052323A2020307825303858202052333AFF
:1027500020203078253038580000000020205231E9
:10276000323A2030782530385820204C523A2020F8
:1027700030782530385820205053523A2030782570
:1027800030385800537461636B2076696F6C6174E4
:10279000696F6E3A20737461636B20706F696E7439
:1027A0006572206F75747369646520737461636BFF
:1027B00020617265612E0000A853010028010020ED
:1027C00043617573653A2025732E00004D656D4D8C
:1027D000616E616765204661756C74204164647246
:1027E0006573733A2030782530385800427573206D
:1027F0004661756C7420416464726573733A20306D
:102800007825303858000000BFF34F8F0548016825
:10281000054A01F4E06111430160BFF34F8F00BF2F
:10282000FDE700000CED00E00400FA0510B50CF027
:10283000C7F9BDE810400CF02FB90000064882B07F
:102840000021016000680090044800680449C0B29B
:10285000496802B00847000000D1004008D5004098
:10286000D800002002490248091F0968006808478B
:102870002001002070B54FF080520124D2E94C10A5
:102880000023082906D1CD06C5F80C31C5F8103152
:102890005E4D2B60082955D15D4D2D685D4E35602C
:1028A0005B4D2D1D2D68361D3560594D08352D6841
:1028B000361D3560564D0C352D68361D3560544D2E
:1028C00010352D68361D3560514D14352D68361D77
:1028D00035604F4D18352D684E4E203635604C4DC5
:1028E0001C352D68361D3560494D20352D68361D47
:1028F0003560474D24352D68361D3560444D2835EB
:102900002D68361D3560424D2C352D68361D3560DD
:102910003F4D30352D683F4E403635603C4D3435A7
:102920002D68361D35603A4D38352D68361D3560B9
:10293000374D3C352D68361D3560354D40352D6899
:10294000361D3560082904D1050002D1334E324DC1
:102950003560082904D1050002D1314EFB253560D0
:10296000082908D1050006D192F858622D4A156849
:1029700066F303051560082904D1020002D12A4D2F
:102980008A012A60082906D128480168C90702D0AF
:102990006FF0010101602648016841F47001016097
:1029A000BFF34F8FBFF36F8F4FF01021D1F80002AC
:1029B000002803DBD1F80402002822DA1D4A146043
:1029C0001D480468002CFCD01224C1F800420568A0
:1029D000002DFCD0C1F8044201680029FCD013602E
:1029E00001680029FCD0BFF34F8F11487C38016883
:1029F000124A01F4E06111430160BFF34F8F00BF41
:102A0000FDE710490E48086070BD00003805004021
:102A10000404001020C50040488103008C5600408B
:102A200018F50040E40E00404096024000040040CB
:102A300088ED00E004E5014000E401400400FA05EF
:102A40000090D0034402002010B5054C206818B94E
:102A500004A12B2000F0B6FB2068BDE81040004721
:102A6000D00000202E2E5C2E2E5C2E2E5C2E2E5C96
:102A70002E2E5C2E2E5C2E2E5C2E2E5C6D6F6475C1
:102A80006C65735C6E7266785C647269766572738D
:102A90005C7372635C7072735C6E7266785F707286
:102AA000732E630030B528B1144C031F0020216839
:102AB0000A4605E0084630BD9A4203D810465268DF
:102AC000002AF9D1002800D041680BD00468A3EB9C
:102AD0000005A54204D11B681C440346046002E0C3
:102AE000436000E023603AB11C68D51AA54203D1C7
:102AF00015682C441C6052685A6030BD48020020A2
:102B00002DE9F04782460F4C10480D4E0E4F001B2A
:102B10004FF0000820F007054FF001090022114690
:102B2000504604F069FA002802D1306810B1002044
:102B3000BDE8F0873C60C4E90058C6F80090EDE7B6
:102B40004C020020144100204802002010610020A7
:102B500002E008C8121F08C1002AFAD17047704766
:102B6000002001E001C1121F002AFBD1704730B5DF
:102B70008B1A802181540121002403E05518491C3F
:102B80004455C9B29942F9D330BD30B58B1A0021F2
:102B9000DCB203E05518491C4455C9B29942F9D337
:102BA00030BD02680B685A40026042684B685A4068
:102BB000426082688B685A408260C268C9684A4035
:102BC000C260704770B58C1A0123002505E0D61845
:102BD00006445B1C06F8015CDBB2A342F7D3084451
:102BE00000F8014C70BD002301E08354521C8A425E
:102BF000FBD370477CB5DDE90645CDE9004505F01E
:102C000041F87CBDFEB508AF97E870008DE8700014
:102C100005F083F8FEBDFEB508AF97E870008DE8BB
:102C2000700005F0EDF8FEBD05F020B97CB5DDE9DA
:102C30000645CDE9004505F025F97CBD7CB5DDE90B
:102C4000065419B1012901D003487CBDCDE90054D7
:102C500005F040F97CBD0000009FFFFF10B54FF468
:102C60008C71012005F084FB040003D005F0C0F94D
:102C7000204610BD002010BD10B5044605F0B1F986
:102C80002046BDE8104006F093BA00002DE9F04759
:102C90000E4602C89708491C4FEA810805460024E1
:102CA00007E000BF06EB84000CF0DCFF45F82400D1
:102CB000641CBC42F6D34FF00109002626E000BF99
:102CC00005EB8400BE4250F8040C03D109F1010960
:102CD000002605E026B1062F10D9042E0BD00DE0FA
:102CE0004FEA30600B490DF073FB0B4A12F80910E4
:102CF00080EA016002E007490DF06AFBE11B55F82C
:102D00002110414045F82410641C761C4445D7D35B
:102D1000BDE8F087441101004412010005F06CB9D0
:102D200005F0D0B92DE9FE4314460F46804672B631
:102D30000BF032F80AF0B6FD0028FBD12448254AF2
:102D40006FF48041A0EB0200204E4FEAD0004FF01C
:102D5000010218EB010102EB00451ED07088012929
:102D600012D020B128463A461BA10AF0D9FE2048CD
:102D70000068C00700D000BE224603B03946404676
:102D8000BDE8F04300F062B80028F0D0D4E900328A
:102D9000284618A10AF0CBFEE9E770880028E6D0A3
:102DA000A0680BF0DFFD0346D4E90001CDE9001077
:102DB0000297284616A1A2680AF0D4FE708800285F
:102DC000D5D028461CA10AF0A7FED0E7D4020020E7
:102DD000146E01004C6D0100554E4B4E4F574E2066
:102DE0004641554C542061742030782530385800C5
:102DF000F0ED00E0415353455254494F4E204641B7
:102E0000494C45442061742025733A257500000023
:102E10004552524F52202575205B25735D20617409
:102E20002025733A25750D0A50432061743A2030ED
:102E30007825303878000000456E64206F66206584
:102E400072726F72207265706F72740008B5012320
:102E50008DF800309DF80030144B186059609A606E
:102E60006FF48041401807D001280FD1DA60D8688C
:102E700000689861D86807E01A611869806858612D
:102E800018690068986118694068D86118685868BE
:102E90009868D868186958699869D86972B600BF87
:102EA0009DF800000028FBD162B608BDD4210020A7
:102EB000014803F053B90000E800002070B5144643
:102EC0000E46050004D10BA14FF4027000F07AF910
:102ED0003CB12868012E44610AD000210161002024
:102EE00070BD04A140F2092000F06CF9072070BD0C
:102EF0000121F3E72E2E5C2E2E5C2E2E5C2E2E5CF6
:102F00002E2E5C2E2E5C2E2E5C2E2E5C636F6D7032
:102F10006F6E656E74735C6C696272617269657301
:102F20005C74696D65725C6170705F74696D657207
:102F3000322E630038B511480823582241680091A9
:102F40000F49006807F0B2F9002815D10D4A69460B
:102F50000D4803F007F904000ED101210A4803F0DF
:102F600004FA0123094A1946074803F0A9F806495B
:102F7000012008390870204638BD000030110100DA
:102F8000F421002049FF0000E8000020FFFF7F003F
:102F900070B516460D46040004D10DA14FF406701D
:102FA00000F010F994F8200008B1002070BDA6616F
:102FB00003F08EFD401941F10001C4E902012069CE
:102FC00000B125612146BDE8704000200DF062BBD4
:102FD0002E2E5C2E2E5C2E2E5C2E2E5C2E2E5C2E2B
:102FE0002E5C2E2E5C2E2E5C636F6D706F6E656E88
:102FF00074735C6C69627261726965735C74696D2B
:1030000065725C6170705F74696D6572322E630009
:1030100010B5040004D107A140F22E2000F0D2F830
:103020000020214684F82000BDE8104001200DF06A
:1030300031BB00002E2E5C2E2E5C2E2E5C2E2E5CC4
:103040002E2E5C2E2E5C2E2E5C2E2E5C636F6D70F1
:103050006F6E656E74735C6C6962726172696573C0
:103060005C74696D65725C6170705F74696D6572C6
:10307000322E630010B50CF0CFFD012803D00449B7
:103080001D2000F09FF8BDE8104000F013B80000CC
:103090008852010010B50CF0BFFD012803D004498F
:1030A0002B2000F08FF8BDE8104000F00BB80000B6
:1030B0008852010072B602480168491C01607047DD
:1030C0001801002003490868401E086000D162B65C
:1030D000704700001801002070B5054608680C46CE
:1030E000411C04D00AF094FA20680AF081F9606863
:1030F000411C02D000210AF069F92968A069C1F8D1
:103100002405607D227D29681043C1F86C05D4E94F
:1031100000122868C0F81425C0F80C15207D01287D
:1031200014D1A068411C02D000210AF04FF9E068D8
:10313000411C04D00AF06CFAE0680AF059F9D4E9AD
:1031400002122868C0F80825C0F8101570BD70B5C7
:10315000054608680C46411C04D00AF063FA206852
:103160000AF050F96068411C02D000210AF037F9DA
:103170002968A069C1F82405607D217D2A6808437B
:10318000C2F86C05D4E900122868C0F80C15C0F824
:103190001425207D012814D1A068411C02D00021F3
:1031A0000AF01DF9E068411C04D00AF03BFAE0681F
:1031B0000AF028F9D4E902122868C0F80825C0F8F6
:1031C000101570BD1CB56A46CDE90001002144F21E
:1031D0000200FFF7A7FD1CBD2DE9F04F8BB00C4698
:1031E000DDE914B705461E4692464E48012107F018
:1031F000BEF8BFF35F8F4FF0000920B148F20450D2
:103200000BB0BDE8F08F58460BF0BAFC48F21258EC
:1032100010B90FB1444676E050460BF0B1FC0028DF
:10322000F8D016980BF0ACFC0028F3D018980BF0EF
:10323000A7FC0028EED019980BF0A2FC0028E9D0DA
:1032400024B1012C04D048F217545CE0012100E0C5
:103250000021686848F26254621E007830B19DF81F
:103260006830012033F01C034DD10EE09DF868302A
:103270000020A3F1040CBCF10D0F44D2DB0742D1B6
:10328000F31F072B03D314463DE00D2EFBD19DF811
:103290006830CDE90430CDE902A6179805F1A00207
:1032A000CDE9007005F1080000230546FDF7C0F9DF
:1032B0000CF034FD040026D15FB1BBF1000008D052
:1032C00001463A462846FDF72FFB0CF027FD040087
:1032D00019D19DF8682006A81999FDF7FDF81AA9DB
:1032E00006A8CDE9000116AC284694E80E00FDF7CB
:1032F00065FB0CF013FD040005D19DF8682006A9BC
:103300001998FDF7E9F8074D2868012803D006A1B0
:103310006D20FFF757FFBFF35F8FC5F80090204681
:103320006EE700009C0000202E2E5C2E2E5C2E2EC0
:103330005C2E2E5C2E2E5C2E2E5C2E2E5C2E2E5C99
:10334000636F6D706F6E656E74735C6C69627261D1
:10335000726965735C6D757465785C6E72665F6DBD
:1033600074782E68000000002DE9FE4F994616463D
:103370008A46002580460C9F00F080FC28B1386802
:10338000B04206D248F2145455E048F20450BDE869
:10339000FE8F300707D0D8F804000078032802D049
:1033A00048F2115447E050460BF0E2FBE8B14846C2
:1033B0000BF0DEFB4FF6F071B8B108F108008B4658
:1033C00002905C46A64213D9A6F57F4609EB050399
:1033D0000AEB05015A46F03E0298FEF7D1F9254462
:1033E0000CF04EFC0400ECD025E048F2125422E030
:1033F00038683346401B386009EB0500CDE900070B
:103400000AEB050219460298FEF7F8F90CF038FCB1
:10341000040002D1386828443860D8F804000078E5
:1034200008B1032807D108F155010298FEF764FAA4
:103430000CF026FC044600F03DFC2046A7E72DE9F1
:10344000F0410D46064600F019FC60B106F1080097
:1034500007460BF08DFB50B170684188802909D078
:1034600048F2185432E048F20450BDE8F08148F2C6
:1034700012542BE0007848F21754092817D2DFE8DD
:1034800000F007071609050510101200002202E0DF
:10349000012200E003226DB1012D0DD0022D0BD0D1
:1034A00014E0022200E00522022D0FD104E048F2D0
:1034B00003540BE0012100E0002186F85450002362
:1034C0003846FEF735FA0CF0DBFB044600F0F2FB61
:1034D0002046CAE770B50E4604460BF051FB30B1EA
:1034E00060684188802905D048F2185070BD48F2C4
:1034F000125070BD007820B1012802D048F203506C
:1035000070BD00251022314604F1A000FCF7E4FF55
:10351000284670BD70B50E4648F21655044600F0B8
:10352000ADFBF8B130460BF023FBF0B1314604F1AE
:103530000800FEF7E1F9A0F57001891E06D00CF035
:103540009FFB054600F0B6FB284670BD0849206881
:103550008842F7D1102204F155013046FCF7BCFF38
:103560000025EFE748F2045070BD48F21255E9E734
:103570005345416370B50D46044600F07FFB78B1BA
:1035800028460BF0F5FA70B1294604F10800FEF761
:103590000FFA0CF075FB044600F08CFB204670BD62
:1035A00048F2045070BD48F21254F5E77CB50D4660
:1035B000044600F063FBB8B128460BF0D9FAB0B16D
:1035C0000095606808236A4640880021C008019081
:1035D00004F10800FEF704FA0CF052FB4FEA000475
:1035E00000F068FB20467CBD48F204507CBD48F2E8
:1035F0001254F5E72DE9FE4F9B46164689460027F3
:103600000446DDF8308000F039FB30B1D8F8000016
:10361000102806D248F214554CE048F20450BDE898
:10362000FE8F48460BF0A4FA10B358460BF0A0FAF0
:10363000F0B131074FF6F07003D0616809780629C0
:1036400019D0824604F1080002905546AE4215D9C1
:10365000A6F57F4609EB07015B465246F03E02980D
:10366000FEF78EF82F440CF00BFB0500EDD021E0A7
:1036700048F212551EE048F211551BE0CDE900B8A2
:10368000334609EB070219460298FEF7B7F80CF02B
:10369000F7FA050002D11021C8F800106068007820
:1036A000072807D104F155010298FEF725F90CF01F
:1036B000E7FA054600F0FEFA2846B0E710B50446E2
:1036C00000F0DCFA50B104F10800FEF70BF90CF041
:1036D000D7FA044600F0EEFA204610BD48F2045036
:1036E00010BD10B598210830FCF71EFF002010BD5A
:1036F0002DE9F05F9A46144688460027064600F0FA
:10370000BDFA90B140460BF033FA90B150460BF041
:103710002FFA70B14FF6F07906F1080B4D46AC4226
:103720000AD9A4F57F44F03C08E048F20450BDE813
:10373000F09F48F2125514E02546002496F85400F4
:10374000022812D00AEB070308EB07012A46584665
:10375000FEF716F82F440CF093FA05460CB1002D35
:10376000DCD000F0A7FA2846E1E708EB0701534652
:10377000ECE700002DE9F04788B00D46DDE9156162
:10378000DDE91397DDE9108CDDF848A0002409B1CC
:10379000102904D948F2625008B0BDE8F08708301B
:1037A000012D03D085B148F21750F5E7CDE9056149
:1037B00002AD014685E88C00CDE9008C4B465246AF
:1037C0000E4800F078FE16E0CDE904610697CDE9D9
:1037D0000223CDE9008C01464B465246074800F0D3
:1037E00011FE20B1012804D048F2165403E0002451
:1037F00001E048F260542046CEE70000501301007B
:1038000010B543685A88802A07D0C02A05D0B2F57F
:10381000807F02D048F2185010BD1B78022B02D0D6
:1038200048F2035010BDD208083000F09EFB002083
:1038300010BD10B5083000F091FB002010BD70B530
:103840001446049D2A68A24202D248F2145070BD68
:10385000220708D042681278032A04D0022A02D034
:1038600048F2115070BD224600F0C3F80028F9D18B
:103870002C6070BD2DE9F04788B091460C46DDE91B
:1038800015218246DDE91356DDE911C7081FDDF871
:1038900040800D2804D348F2625008B0BDE8F0879C
:1038A0000AF10800012C03D074B148F21750F4E774
:1038B0008DE80811CDE90512CDE903764B462A467D
:1038C000012105F0AFFC09E0CDE9008CCDE9022132
:1038D000CDE904764A46294605F070FC08B0BDE8FB
:1038E000F0470CF00CBB70B5044640680D4600264E
:1038F0004188802907D0C02905D0B1F5807F02D04A
:1039000048F2185070BD0078022804D048F20356DF
:103910002572304670BD012D03D015B148F2175005
:1039200070BD112104F10800FCF7FEFD04F11C003C
:1039300004F05EFBECE770B50D464168044648882C
:10394000802807D0C02805D0B0F5807F02D048F28B
:10395000185070BD0878032802D048F2035070BD9B
:1039600004F10800064605F018FD60682A460221A9
:103970004388304605F015FD0028F0D0BDE87040C2
:103980000CF0BDBA0B4610B500F109011022184623
:10399000FCF7A2FD002010BD10B510220930FCF785
:1039A0009BFD002010BD10B542681378022B02D099
:1039B00048F2035010BD52881C3004F083FBBDE870
:1039C00010400CF079BA10B541680978022902D08C
:1039D00048F2035010BD1C3004F003FB002010BD62
:1039E00010B54168097811B1083005F0C9FC002014
:1039F00010BD1CB544682478022C02D048F2025055
:103A00001CBDCDE90013017A00F109031C3004F05C
:103A1000C5F90028F4D0BDE81C400CF04DBA0000F8
:103A2000F0B500220D4BCA60C1E901230C4B0D4DCE
:103A30001446EE1A0A600CE003EB0215EF683F79BA
:103A4000FF2F05D0A04202D1A8680860F0BD641C19
:103A5000521CB2EB161FEFD3F0BD0000841701001B
:103A60002C6D01004C6D010041094A4200EB4210EF
:103A700010B5044A0124844052F82130234342F80F
:103A8000213010BD940100202DE9F0470546861C29
:103A900091460F464FF0010A0020FFF7EBFA1B4C4E
:103AA00004F21C4860683860D4E90101184F401ADC
:103AB0003968081A0EE00121404606F042FC03F086
:103AC0000DFE0146404606F03CFCD4E90101401AD7
:103AD0003968081A401C8642EDD8B9F1000F03D0AE
:103AE000052065F3891002E0062065F39F506168A8
:103AF0003A68114004EB8101C8606068304460603E
:103B00000020FFF7C7FA5046BDE8F087E43C0020EC
:103B1000BC01002070B50D4604460A2902D10D21D2
:103B2000FFF7F8FFA0682268411CA1601554D4E992
:103B30000101814204D32046BDE8704009F086BAF5
:103B400070BD0000044881684068814201D10120B5
:103B50007047002070470000E43C00207CB5DDE9A0
:103B60000645CDE9004504F009FC7CBDFEB508AF73
:103B700097E870008DE8700004F04BFCFEBDFEB5C8
:103B800008AF97E870008DE8700004F083FCFEBD7C
:103B900004F0B6BC10B54FF48A71012004F0E8FBC4
:103BA000040003D004F06AFD204610BD002010BDC3
:103BB00010B5044604F05BFD2046BDE8104005F05A
:103BC000F7BA0000F0B503680C68406849686340C4
:103BD0001D4D484055FA83F10C78A5F5407101EB75
:103BE000136601F58077367844EA0664C3F3074626
:103BF000C3F30723BE5D4FEA064C01F50076F35C84
:103C00004CEA03231C4351FA80F107EB1063097857
:103C10001B7841EA0361C0F30743C0F30720F35C5C
:103C2000285C1B0443EA0020014384EA316081EAF6
:103C3000304180EA3120136881EA30214B40136023
:103C4000516841405160F0BD403E010004F01ABD92
:103C500004F058BD084810B500210160BFF35F8F24
:103C6000FDF732FF01004FF0030004D1BDE8104022
:103C7000084609F063B810BD9C00002010B5054847
:103C8000012106F074FBBFF35F8F08B1002010BD67
:103C9000012010BD9C00002010B50548012106F050
:103CA00066FBBFF35F8F08B1002010BD012010BD7F
:103CB0009C00002010B5064C2068012803D005A107
:103CC0006D20FFF77FFABFF35F8F0020206010BDEB
:103CD0009C0000202E2E5C2E2E5C2E2E5C2E2E5C48
:103CE0002E2E5C2E2E5C2E2E5C2E2E5C636F6D7045
:103CF0006F6E656E74735C6C696272617269657314
:103D00005C6D757465785C6E72665F6D74782E6834
:103D10000000000010B5064C2068012803D005A162
:103D20006D20FFF74FFABFF35F8F0020206010BDBA
:103D30009C0000202E2E5C2E2E5C2E2E5C2E2E5CE7
:103D40002E2E5C2E2E5C2E2E5C2E2E5C636F6D70E4
:103D50006F6E656E74735C6C6962726172696573B3
:103D60005C6D757465785C6E72665F6D74782E68D4
:103D70000000000010B50021084608F0DFFF002811
:103D800002D1FDF799FE002010BD13460A4602211C
:103D900004F0EDBE13460A46052104F0E8BE10B556
:103DA0004421012004F0E4FA040001D004F0DCFE18
:103DB000204610BD10B5044604F0CAFE2046BDE8FA
:103DC000104005F0F5B900007FB5054600681646BD
:103DD0000C460A2805D00C2803D00E2801D0AFF3DA
:103DE000008008460BF03EFF0090201D0BF03AFFCC
:103DF000019004F108000BF035FF029004F10C0073
:103E00000BF030FF0390286805EB0014241D2146B9
:103E10006846FEF7C6FE2D6819E000BF03F0EBF917
:103E2000684603F025FA21466846FEF7BAFE009878
:103E300003F0C8F90090019803F0C4F901900298CA
:103E400003F0C0F90290039803F0BCF90390103C12
:103E50006D1E6846E2D103F0CEF9684603F008FA19
:103E600021466846FEF79DFE314600980CF0E2FEC2
:103E7000311D01980CF0DEFE06F1080102980CF0ED
:103E8000D9FE06F10C0103980CF0D4FE7FBD0000B2
:103E90002DE9FF410546006816460C460A2805D064
:103EA0000C2803D00E2801D0AFF3008008460BF099
:103EB000D9FE0090201D0BF0D5FE019004F1080002
:103EC0000BF0D0FE029004F10C000BF0CBFE03903F
:103ED000281D044601466846FEF763FE012710349C
:103EE0001BE000BF0CF05AFA68460CF08BF9009802
:103EF00006F06CF90090019806F068F901900298BC
:103F000006F064F90290039806F060F903902146E8
:103F10006846FEF746FE10347F1C2868B8426846A3
:103F2000E0D80CF03BFA68460CF06CF92146684684
:103F3000FEF737FE314600980CF07CFE311D0198EB
:103F40000CF078FE06F1080102980CF073FE06F101
:103F50000C0103980CF06EFEBDE8FF8110B504461D
:103F6000F421FCF7E1FA207810BD70B50E46154635
:103F70000446F421FCF7D8FA102D05D0182D05D0F1
:103F8000202D05D0AFF300800A2002E00C2000E0D5
:103F90000E2020602A4631462046BDE87040FEF7DC
:103FA00075BE2DE9FF5F9046DDE90E7B0E46824629
:103FB0004FF0000920E03568A8EB0504BC4200D9A9
:103FC0003C46B9F1000F05D10AEB05002146039AE2
:103FD000FCF7A3FA1DB9444501D14FF00109291995
:103FE000414505D151465A4610989047002001E0BE
:103FF000306820443F1B3060002FDCD1BDE8FF9FBC
:104000002DE9FF4F83B01746DDE91354129EDDF80A
:1040100040B089468246002E31D04FF00108012E73
:104020001DD0022E06ABCDF800802BD0CDE9015477
:10403000504600F037F89DF844105846594526D0B0
:10404000B61E0096CDE9015403463A46494650460D
:10405000FFF7A7FF11AB3A46CDF8008009E09DF8C5
:1040600018009DF8441006AB48408DF81800CDF8B4
:104070000080CDE901544946504600F013F807B0DE
:10408000BDE8F08FCDE9015400F00CF8E2E7761EB0
:104090000096CDE9015403463A4649465046FFF79B
:1040A00080FFECE77FB50DF1200C9CE87000CDE9B6
:1040B0000045CDE9025600F001F87FBD2DE9F05F23
:1040C0005FEA00090AA8164690E8100C0F461D4644
:1040D0004ED03968B1424BD205B99CBB5FEA0A00A9
:1040E00046D00D9870B351B34CB3701AA04200D3B0
:1040F0002046804601EB090042461946FCF7ECF9E0
:104100003968454401EB0800A4EB08043860B0426C
:1041100015D10D98494624B1524690470020386089
:104120000DE05A46F9E7386860B90D98B44229465F
:1041300001D15A4600E0524690473544A41BB44290
:10414000F1D217E014E03968701AA04200D320467B
:10415000804601EB090042462946FCF7BDF9396863
:10416000454401EB0800A4EB08043860B04201D3D9
:10417000AFF30080002CE6D1BDE8F09F2DE9F05FA1
:104180005FEA000A0AA8914690E8C0080D461C465E
:1041900009D02968494506D204B927B95FEA0B005E
:1041A00001D00D9830BBAFF30080286830B951467C
:1041B0005A460D9890474846C5F80090A9EB000173
:1041C000B84200D338460AEB01033246002108E02A
:1041D00014F801C013F801808CEA080C02F801C041
:1041E000491C84468142F3D329683F1A091A1618DC
:1041F00064442960002FD8D1BDE8F09F2DE9FF4726
:10420000044600681E461746884604F108090568FA
:1042100012E02B464A46414668460CF01BFDD4E9A5
:1042200000104A464B68694698472A464946384630
:10423000FCF752F9A8442F44761EEAD2BDE8FF8766
:10424000E0E802120A681946FCF746B970B5044660
:10425000086888B016460D46102801D0AFF30080DC
:104260002821204605F055FF04A8296805F051FFD4
:1042700004AA6B68114630469847694604A800F0C6
:1042800087F96946084600F05FF904F108016846BD
:1042900000F093F96946084600F056F904F1180158
:1042A000684600F08AF9C4E9005608B070BD10B540
:1042B0000B46816D41B101680A6800F13001BDE82B
:1042C00010401846FCF708B9AFF3008010B504465B
:1042D000FFF7BCFF2046BDE81040AFF300807FB57C
:1042E000002504460095019502950395D4E9001236
:1042F0006B462830FFF7A4FF102104F1400005F0C1
:1043000008FF25656565A5657FBD00002DE9F041C5
:104310000446006886B00F46066822480025DBB1D7
:10432000216D8B181B0702D0002312B104E001237A
:10433000FBE709B9616D39B15FF00001D4F858C0ED
:10434000BCF1000F2AD101E00121F7E752EA010C8C
:1043500024D003B121B301251249CDE90204CDE9EE
:1043600000213B4604F1500104F1400032468846EA
:104370000746FFF7A3FE002D0DD0206D01AB311ACB
:10438000094A002083E81700009080233246414606
:104390003846FFF735FE06B0BDE8F081AFF3008088
:1043A0000248D9E7CF590000355A0000235A0000CF
:1043B0001FB5074CCDE90240CDE9002302680B464A
:1043C00000F1280112681830FFF7D8FE1FBD000069
:1043D000F95C00002DE9F0410D461F4616460446E3
:1043E0003421FCF7A1F80020E06229682163A06273
:1043F000C4E90056394604F108002A68BDE8F041D6
:10440000FCF76AB82DE9FF4FB9B08146DDE94A846F
:10441000DDE94876DDE946BA014601A83A9AFFF798
:1044200055FF25AD33463A46002101A8009501F01D
:104430009FFA29AE53465A46012101A8009601F081
:1044400097FA2DAF0097DDE93B23022101A801F087
:104450008FFA1CB1D9F80000A04201D2AFF300805E
:10446000002031AA06E0295C3B5C5940335C59408E
:104470001154401CA042F6D311464046002205E0EC
:1044800010F8015B11F8013B6B401A43641EF7D230
:104490001AB101203DB0BDE8F08F25AB494618A800
:1044A0003A9AFFF797FFDDE93B1318A84C9AFFF7FC
:1044B0007FFF0020EEE72DE9FF4FB1B00E46DDE9AA
:1044C0004095DDE93EBA0A468046014601A8449F70
:1044D000FFF7FCFE25AC2B464A46002101A80094BC
:1044E00001F046FA29AD53465A46012101A800952C
:1044F00001F03EFA25AB3246414618A8FFF76AFFA5
:10450000DDE9331318A8429AFFF752FF2DAE00964B
:10451000022101A8349B429A01F02AFAD8F800003F
:10452000B84201D2AFF30080002007E0215C325C8A
:1045300051402A5C5140439A1154401CB842F5D373
:1045400035B0BDE8F08F000038B50C460FA1002251
:1045500009680091C16842EA4102E260CA0F8168BD
:1045600042EA4102A260CA0F416842EA4102626027
:104570000068C90F41EA40012160C00F022269466C
:104580000BF0F2FDE1684840E06038BD00870000B4
:1045900070B50C4605460BF06CFB2060281D0BF037
:1045A00068FB606005F108000BF063FBA06005F19B
:1045B0000C000BF05EFBE06070BD70B504460D466C
:1045C00000680CF03FFB291D60680CF03BFB05F117
:1045D0000801A0680CF036FB05F10C01E068BDE8AD
:1045E00070400CF02FBB70B50D4690B004460146EC
:1045F00040226846FBF770FF0026684600F075F819
:10460000761C0A2EF9D3009821680844009001987E
:104610006168084401900298A168084402900398D8
:10462000E1680844039004982169084404900598BF
:104630006169084405900698A169084406900798A6
:10464000E169084407900898216A0844089009988D
:10465000616A084409900A98A16A08440A900B9874
:10466000E16A08440B900C98216B08440C900D985B
:10467000616B08440D900E98A16B08440E900F9842
:10468000E16B08440F9000206946820011F8203049
:10469000AB5431F820302A441B0A537051F82030B3
:1046A0001B0C937051F82030401C1B0ED370102847
:1046B000EBD34021684605F0D9FC10B070BD10B5B1
:1046C0008421012003F054FE040003D004F07AFAA0
:1046D000204610BD002010BD10B5044604F06CFA51
:1046E0002046BDE8104004F063BD2DE9F8430C24DA
:1046F0008046082304220021009400F036F80D259E
:104700000923052201214046009500F02EF80E26CF
:104710000A23062202214046009600F026F80F27C1
:104720000B23072203214046009700F01EF80A23BE
:10473000052200214046009700F017F80B230622BF
:1047400001214046009400F010F8082307220221BE
:104750004046009500F009F8092304220321404651
:10476000009600F002F8BDE8F88370B550F82150CB
:1047700050F82260049C2E4440F8216050F82450E8
:1047800075404FEA354540F8245050F823602E44D8
:1047900040F8236050F8225075404FEA355540F8F4
:1047A000225050F82160354440F8215050F8241030
:1047B00069404FEA316140F8241050F823400C441E
:1047C00040F8234050F8221061404FEA716140F8F0
:1047D000221070BD10B5054CB2F5807F03D104F0F6
:1047E000FFF9002800D0204610BD0000009FFFFF09
:1047F00010B504F02FFA10F1510F00D1004810BD90
:10480000009FFFFF10B5E821012003F0B1FD040077
:1048100003D004F0B8FA204610BD002010BD10B53A
:10482000044604F09FFA2046BDE8104004F0C0BCE6
:104830001FB590F8D01011F00F010CD0002200929B
:10484000019202920392C1F110026946843005F090
:1048500020FC04B010BD0020FBE7000010B5054CA3
:10486000B2F5807F03D104F09EFA002800D02046E4
:1048700010BD0000009FFFFF0249084490F930007E
:10488000704700001821002070B5816804468A7FB7
:10489000002A4DD0C87F00284AD0121A0844D5B249
:1048A00000F120016A1C1F30FBF716FEA068C17FD3
:1048B000491EC177A068817F491E81778DB3082288
:1048C0001C49206908F080FB204605F0C7FC817870
:1048D000C078814211D1A06817A2C17F4318082176
:1048E0002046203307F0E2FC204600F03FF929463D
:1048F0002046BDE8704001F089BA204600F0A6F9D4
:10490000204600F033F9A0680BA2C17F43180821AC
:104910002046203307F0CAFC2046BDE8704000F076
:104920005DB92069BDE87040044A03A108F04CBBA2
:1049300070BD0000684B0000257300009115010058
:1049400070B504468068827FC17F521A12F0FF055D
:1049500048D0084400F121012A462030FBF7BCFD75
:10496000A068817F491E8177204605F077FC817819
:10497000C07881420CD1A0681BA2C17F43180821D6
:104980002046203307F092FC40F26946C4B913E098
:10499000204600F05BF9204600F0E8F8A06812A27B
:1049A000C17F431808212046203307F07FFC2046B2
:1049B000BDE8704000F012B90CA13046FEF702FCD1
:1049C000206918B909A13046FEF7FCFB164A06A17A
:1049D000206908F0F9FA6D1EE9B22046BDE8704082
:1049E00001F014BA70BD0000257300002E2E5C2E5D
:1049F0002E5C2E2E5C2E2E5C2E2E5C2E2E5C2E2EF1
:104A00005C2E2E5C636F6D706F6E656E74735C6C84
:104A100069627261726965735C636C695C6E72660F
:104A20005F636C692E630000951501002DE9F0416C
:104A3000044680680F46D0F84811C27F11F0010685
:104A4000817FA1EB0203DDB20BD07F2901D3002DC2
:104A50007ED0A068C17F0844002180F8207066B134
:104A600013E07F297CD2002DF3D0831803F12001BD
:104A70002A46481CFBF730FDEBE7A068827F521CFA
:104A8000D2B28277A068203281544DB3204605F01F
:104A9000E5FB8178C07881420ED1A06831A2C17F48
:104AA000431808212046203307F000FCA81BC1B2A0
:104AB000204601F0ABF921E0204600F0C7F8A068DD
:104AC00028A2C17F431808212046203307F0EEFBBF
:104AD000204600F083F80121204601F071FA0DE034
:104AE0003EB1A068827F521CD2B28277A068203289
:104AF00081543A461CA1206908F066FAA168C87F73
:104B0000401CC877204601F06EF90028204603D0EB
:104B1000BDE8F04101F086B901F073FE00281FD016
:104B2000204605F09BFB0546C078A978401A401E38
:104B3000C1B2204601F0F8F8204601F073F9E87898
:104B4000A978401AC1B2204601F046FA287800E060
:104B500006E0401EC1B22046BDE8F04101F030BA87
:104B6000BDE8F081257300002563000070B50400E6
:104B70004FF4D77503D108A12846FEF723FB20691F
:104B800018B905A12846FEF71DFB2069BDE8704055
:104B9000104A11A108F018BA2E2E5C2E2E5C2E2E73
:104BA0005C2E2E5C2E2E5C2E2E5C2E2E5C2E2E5C11
:104BB000636F6D706F6E656E74735C6C6962726149
:104BC000726965735C636C695C6E72665F636C6965
:104BD0002E630000891501002573000070B50400E4
:104BE0004FF4DD7503D108A12846FEF7EBFA2069E2
:104BF00018B905A12846FEF7E5FA2069BDE870401E
:104C0000104A11A108F0E0B92E2E5C2E2E5C2E2E3B
:104C10005C2E2E5C2E2E5C2E2E5C2E2E5C2E2E5CA0
:104C2000636F6D706F6E656E74735C6C69627261D8
:104C3000726965735C636C695C6E72665F636C69F4
:104C40002E630000831501002573000070B5040079
:104C50004FF4DA7503D108A12846FEF7B3FA2069AC
:104C600018B905A12846FEF7ADFA2069BDE87040E5
:104C7000104A11A108F0A8B92E2E5C2E2E5C2E2E03
:104C80005C2E2E5C2E2E5C2E2E5C2E2E5C2E2E5C30
:104C9000636F6D706F6E656E74735C6C6962726168
:104CA000726965735C636C695C6E72665F636C6984
:104CB0002E63000080150100257300002DE9F04FE0
:104CC0004FF0000995B005464F464C4600F02CFFCA
:104CD000284602F0F9F8284601F032F8284601F09B
:104CE00082F810B9284601F09DF8AA680C2301A9A2
:104CF0000EA8203202F0EAFE03460E9840B15BB1E6
:104D00004CA20221284607F0D1FA15B0BDE8F08F79
:104D1000284601F087F8F8E74C484B490026A1EBFC
:104D200000080DF1040A834613E008D348A0009060
:104D30004CA202212846019B07F0B8FAE5E70BEBED
:104D4000C604606801685AF82900FBF7FFFB18B138
:104D5000761CB6EBD80FE8D9207820B143A140F6F5
:104D60007F10FEF72FFA00200F90A9684860886036
:104D7000C86008616168C86828B14AC9AA68C2E900
:104D80000360C2E90113606809F101040026D0F84C
:104D900008800E98844235D25AF8240042A1FBF7CD
:104DA000D5FB40B35AF8240040A1FBF7CFFB10B36A
:104DB00010A832460090761C0FAB2146404600F00A
:104DC00043FEFEB10F98E8B101685AF82400FBF7E2
:104DD000BDFB0028DDD10F98C16839B190E84810BB
:104DE000AA682746C2E903C1C2E901360026641C4D
:104DF000D0F80880CDE7A868D0F8481141F002014A
:104E0000C0F84811A868036933B10E980AEB87020D
:104E1000C11B2846984704E026A20221284607F035
:104E200045FAA868D0F8481121F00201C0F84811ED
:104E30006BE700006E6F74207465726D696E61744B
:104E400065643A2025630A001C6D0100DC6C0100DA
:104E50003A20636F6D6D616E64206E6F7420666FB3
:104E6000756E6400257325730A0000002E2E5C2EDB
:104E70002E5C2E2E5C2E2E5C2E2E5C2E2E5C2E2E6C
:104E80005C2E2E5C636F6D706F6E656E74735C6C00
:104E900069627261726965735C636C695C6E72668B
:104EA0005F636C692E6300002D6800002D2D68651E
:104EB0006C700000506C6561736520737065636988
:104EC0006679206120737562636F6D6D616E642E0B
:104ED0000A0000008068D0F84801C0F3C0007047A5
:104EE0002DE9F0410446C0688EB00D4640680026AA
:104EF0003246006801A909F0F5F818B100200EB09B
:104F0000BDE8F0816DB1019809F07BF8A168D1F896
:104F10003801401CC1F8380100F0070001287AD19F
:104F20000126204605F09AF905468078012804D923
:104F3000401EC1B2204601F04FF82878012804D95C
:104F4000401EC1B2204600F061FF2046FFF70EFE72
:104F50002EB132A20221204607F0A8F95BE04FF003
:104F600000080023082202A9019809F059F80498C2
:104F70000590BDF80C00ADF81800BDF80E00ADF8B6
:104F80001A008DF81D800298082700F00300012800
:104F900002D0022818D032E002983B46860AC0F3BD
:104FA000C2008DF81C00029808A9C0F38315AA005E
:104FB000019809F035F82069009005AB2A4608A948
:104FC000304608F0FDFE1AE00298850DC0F3C200DD
:104FD0008DF81C00082D01D22E4600E008263B4625
:104FE000324608A9019809F01BF83744AD1B05AA01
:104FF000314608A8236908F0C3FD002DEAD10198C5
:1050000008F0FFFFE068002201A94068006809F08D
:1050100069F80028A5D0012071E700004C6F737477
:10502000206C6F6773202D20696E637265617365F4
:10503000206C6F67206261636B656E6420717565BB
:1050400075652073697A652E0A0000002DE9F0412C
:105050001E4617460D46040000D01DB909A1FD20CB
:10506000FEF7B0F8606818B906A1FE20FEF7AAF8AE
:10507000606833463A4601680C692946A446BDE893
:10508000F04160472E2E5C2E2E5C2E2E5C2E2E5C68
:105090002E2E5C2E2E5C2E2E5C2E2E5C636F6D7081
:1050A0006F6E656E74735C6C696272617269657350
:1050B0005C636C695C6E72665F636C692E63000092
:1050C0002DE9FC41002604460127019601AB01228F
:1050D00069462046FFF7BAFF0198002836D09DF8B0
:1050E00000007F28F2D808F0CDFFA068417821B1F8
:1050F00001296FD002296ED18DE09DF800500D2D51
:1051000009D00A2D07D0D0F84821002161F38D1273
:10511000C0F8482122E0D0F84811C1F3871129B125
:10512000D0F84811C1F38711A94217D1D0F848111E
:1051300065F38D11C0F84811A068817F41B1204608
:10514000FFF7BCFD0221204600F0F4F8BDE8FC8129
:10515000C0F84461204600F065FEF3E7092D1ED03B
:1051600004DC002DB2D0082D04D121E01B2D12D07B
:105170007F2D26D0FBF75EF90068405D10F03E0FF2
:10518000A4D02046FFF7A6FE30B39DF800102046BD
:10519000FFF74CFC9AE7A1680120487096E720468B
:1051A000FFF798FE002891D0204600F0DDF88DE74B
:1051B0002046FFF78FFE002888D02046FFF764FBCB
:1051C00084E72046FFF786FE0028E3D02046FFF75D
:1051D000B7FB7BE716E019E0A1689DF80020887F07
:1051E0007F28D7D2C87F0B18401CC87783F82020AF
:1051F000A068C17F084480F82060A168887F401CB7
:10520000887763E79DF800105B2901D0002100E05A
:10521000022141705AE7002141702046FFF75AFEF3
:10522000002893D09DF80000422840D01BDC332892
:105230007CD012DC312872D03228ABD1A168032097
:105240004870A068D0F84811D0F8482127EA010139
:1052500061F30002C0F8482138E7342856D04128CD
:1052600098D1012124E0462853D01BDC432823D0C9
:1052700044288FD1204604F0F1FF05460078A97933
:10528000491C884202D1A978012987D001284FF012
:10529000010120462FD000F0B9FDA168C87F401E53
:1052A000C87713E748283DD04C2889D1C9E70021A9
:1052B000204601F0EFFC09E7204604F0CFFF054649
:1052C00000786978884203D1A978EA78914298D029
:1052D000697988424FF00101204606D100F024FD93
:1052E0006979204600F092FD01E000F069FEA168B6
:1052F000C87F401CD4E700F06FFE6979204600F0BB
:105300005FFEA068C17F491EC177DFE6A168032068
:105310004870204600F014FDD8E607E0FFE7A168DA
:1053200003204870204600F034FDCFE6A16803203A
:10533000487046E78268022911700CD1826800210A
:1053400082F820108268D1778268917702A20321C7
:10535000036806F0ABBF704725730000002801D03A
:10536000FBF7EDB8704700002DE9F04F054600202F
:10537000A7B007461590064620900690A868817F42
:10538000C1F17F01C9B25FEA010970D0C27F00F1AB
:105390002001A030FBF7A0F8A8680024C17F0844D2
:1053A00080F8A040FBF746F821900168A8680C231C
:1053B000C27F0244D27F895CC0F84441AA6801F0F0
:1053C000010A07A916A8A03202F080FB0798FFF790
:1053D000C5FF00F0FF08A34617941894169818B15B
:1053E0005044401EB0426CD8BAF1000F01D00020EA
:1053F00005E007A850F82600FFF7B0FFC0B28046CE
:10540000002419A822460090641C17AB3146584668
:1054100000F01AFB179800286CD0016807A84246D4
:1054200050F8260001F058FF0028EAD018987F1C99
:10543000F0B117980068FFF791FF0699C0B2884253
:1054400000D90690B9F1000F2ED022A8009018AB19
:1054500031465846159A00F0F7FA179801681898DF
:1054600001EB08020168002001EB080316E08DE063
:10547000601E209017980068FFF770FFC0B206907A
:10548000A0EB080048450FDAC0B20CE013F800C0EA
:10549000614506D1401C10F0FF0010D0115C0029BE
:1054A000F4D1814500D98146601E15901798189057
:1054B000A7D266A20421284606F0F8FE1AE0FF20D3
:1054C000EFE7002419A822460090641C17AB314670
:1054D000584600F0B9FAECB31798002856D0016886
:1054E00007A850F82600FBF731F80028EAD11798F2
:1054F000D0F808B0BBF1000F09D0179838B1169951
:10550000761CF6B201EB0A008642FFF467AF002F6B
:105510003CD0012F43D000212846069A0AF008F912
:10552000209C0DF11C0A19A822460090641C17ABA0
:105530003146584600F088FA1798424601685AF8F2
:10554000260001F0C9FE40B117987F1E069A016837
:10555000284600E01DE00AF0EBF8002FE3D146A258
:10556000032128462B6806F0A1FEAB6843A2082160
:105570002846203306F09AFE284600F0EBFC1898E7
:105580004A4601682846414400F028FB27B0BDE8A0
:10559000F08F2EA20421284606F088FEF6E79BF83D
:1055A000000038B119A8009018AB31465846159A3A
:1055B00000F04AFA18980068FFF7D0FE404506D080
:1055C00018984A4601682846414400F007FB219894
:1055D000A9680268C87F0B1893F82030D25CD20704
:1055E00015D0897F8842D1D2284604F037FE8478CE
:1055F000A868C17F491CC177284604F02FFE807837
:10560000A0421FD10121284600F0DAFCBEE7D1F804
:105610004801C00711D0D1F8480120F00100C1F8BD
:10562000480120212846FFF701FAA868D0F8481160
:1056300041F00101C0F84811A8E720212846FFF7F2
:10564000F5F9A3E7284600F0EDFB9FE754616220DF
:1056500066756E6374696F6E3A20636F6D6D616E0F
:10566000647320636F756E746572206F7665726601
:105670006C6F7765642E0A000A257300257300009D
:1056800070B505460C0004D107A140F60B20FDF7CC
:1056900099FD002D06D0A068D0F8481141F02001F6
:1056A000C0F8481170BD00002E2E5C2E2E5C2E2EF0
:1056B0005C2E2E5C2E2E5C2E2E5C2E2E5C2E2E5CF6
:1056C000636F6D706F6E656E74735C6C696272612E
:1056D000726965735C636C695C6E72665F636C694A
:1056E0002E63000070B5044640680D4690F828000F
:1056F00030B1A0680068FDF78BFC08B108280CD118
:10570000012685B1606907F053FC61680022083109
:10571000606907F0D9FB08B1062070BD606880F8A9
:105720002960002070BD606890F8280048B9074AD9
:105730000021A068FDF7C2FB6168002881F828609D
:10574000F0D12046BDE870400AF0DCBCFD05010048
:1057500070B5044640680D460260606800224360F0
:10576000606880F82820606880F82920606820221E
:105770000830FAF7B1FE2C61074A2946606907F044
:10578000A3FB050005D1E06809F042F8206909F0A3
:105790003FF8284670BD0000210701002DE9F041C7
:1057A0001C0016460F46054603D10649D220FDF7D8
:1057B00009FD266022463946E868BDE8F04108F058
:1057C0003DBF00000C5C010010B50446406907F0C5
:1057D000EFFBA0680068BDE81040FDF719BC0000B1
:1057E0002DE9FC411D0016460F46044603D11A4917
:1057F000E620FDF7E7FC2E602A463946206908F0CE
:1058000069FF050025D16069144A0178515C19B11E
:10581000001D09F0B9FE02E00C3009F075FCC0B9BA
:10582000FF20009001236A4601A9206908F0ACFF1F
:1058300078B900980199C2B2606907F0A9FB0546E2
:10584000606890F8290020B11DB92069009908F01E
:1058500087FF2846BDE8FC810C5C0100A000002009
:105860002DE9F8431F4614468846050002D0B8F1DA
:10587000000F03D11EA1CE20FDF7A4FC68680068CC
:1058800018B91BA1CF20FDF79DFC002628E000BF22
:10589000686808EB06016B460268D2F80CC0224625
:1058A000E04718B112A1D920FDF78CFC0098844282
:1058B00003D20FA1DA20FDF785FC00980644241AD4
:1058C00070B9A868017803290AD000BFD0F8481140
:1058D0008906FBD5D0F8481121F02001C0F8481105
:1058E000002CD5D1002F01D000983860BDE8F88396
:1058F0002E2E5C2E2E5C2E2E5C2E2E5C2E2E5C2EE2
:105900002E5C2E2E5C2E2E5C636F6D706F6E656E3E
:1059100074735C6C69627261726965735C636C69F3
:105920005C6E72665F636C692E63000070B5084C34
:10593000050009D010342168002907D008682060CC
:10594000496828468847F6E70834F4E770BD000048
:10595000B4200020054A012120B1012805D1917011
:10596000FFF7E4BF51700020FAE77047B420002031
:105970002DE9FF4707460068DDF830901D460468B2
:1059800090460E46ACB121466846FAF7CDFD0DEBC8
:10599000040000F8016C3846FEF7A1FC5DB100235D
:1059A000224669463846FEF7B1FC01232A464146A5
:1059B00004E0AFF300800123224669463846FEF733
:1059C000A5FC49463846FEF772FCBDE8FF871FB5C7
:1059D000044601236A462830FEF710FC2168606DFA
:1059E0000968084460651FBDF0B5044689B02368A6
:1059F00068461D68002304E0CE5CD75C7E40C65438
:105A00005B1CAB42F8D30146012304AA04F1280031
:105A1000FEF7F4FB2168606D09680844606509B011
:105A2000F0BD10B5044600F10802FFF7DDFF0120CC
:105A3000A06510BD10B5044600F11802FFF7D4FFB1
:105A40000120A06510BD00002DE9F05F1C000A9F39
:105A500015468846064604D121A14FF48970FDF70A
:105A6000B1FB27B91EA140F21310FDF7ABFB4FF0BD
:105A70000009B8F1000F0BD01EB3307838B372684C
:105A80003946284690473868D8B12760BDE8F09F6E
:105A900022492348A1EB0008B5EBD80F14D2DFF858
:105AA00084A00026834609E00BEBC60778680168EE
:105AB0005AF82500FAF74AFD20B1761CB6EBD80F4C
:105AC000F2D301E0786808E0C4F80090DEE770687F
:105AD00000EB051001680029F6D02060D6E7000031
:105AE0002E2E5C2E2E5C2E2E5C2E2E5C2E2E5C2EF0
:105AF0002E5C2E2E5C2E2E5C636F6D706F6E656E4D
:105B000074735C6C69627261726965735C636C6901
:105B10005C6E72665F636C692E6300001C6D010031
:105B2000DC6C0100500200202DE9F041856806463A
:105B3000002495F82000002811D0A046FAF77AFC3E
:105B40000746006804F1200104F10104695CE4B235
:105B5000415CC90705D0002CF4D185F82080BDE850
:105B6000F081641E14F0FF040FD0A87F021B04F123
:105B70002000291805F12000521CFAF7ADFCB1688D
:105B8000887F001B8877B168C877B2683D68937FCB
:105B9000D0181F300446002102E0491CC9B2401E43
:105BA0000778EF5DFF07F8D18442D8D05B1A203325
:105BB00002F80380B268907F401A9077B168C87786
:105BC000CDE710B5D0E90234D1E90220D11AA041C5
:105BD00001D3012010BD002010BD00002DE9F041CF
:105BE00015460F00044604D123A140F22D60FDF7B5
:105BF000E9FAA068817FC27F8B1A2944DEB27F292F
:105C000037D8002D35D0104400F1200105F12002D5
:105C10001044721CFAF760FCA0682A46C17F084451
:105C200039462030FAF758FCA0682030FFF796FB81
:105C3000A16820A28877A068C17F43180821204668
:105C4000203306F033FBA068C17F2944C17720468A
:105C500000F0C9F818B9204600F0D3FD10B1204675
:105C600000F0E0F8002E04D02046BDE8F04100F03E
:105C700071B9BDE8F08100002E2E5C2E2E5C2E2E18
:105C80005C2E2E5C2E2E5C2E2E5C2E2E5C2E2E5C20
:105C9000636F6D706F6E656E74735C6C6962726158
:105CA000726965735C636C695C6E72665F636C6974
:105CB0002E6300002573000030B10068054988425A
:105CC00005D048F20250704748F20150704700205A
:105CD000704700004145414430B1006805498842A1
:105CE00005D048F20250704748F20150704700203A
:105CF000704700006341455370B50446D4E9002065
:105D000053680A4604F108010D469847E06A4119B4
:105D1000206B01E0002806D0401E0A5C521C12F0E5
:105D2000FF020A54F6D070BD002904D00A4600696B
:105D300001A107F049B970471B5B256442000000D0
:105D400070B5054604F08AFA044600786178884206
:105D500003D1A078E17888421AD0E178A078814216
:105D600004D9081AC1B22846FFF7DEFF207861780F
:105D7000884205D9401AC1B2284600F047F804E02D
:105D8000081AC1B2284600F01BF9A868817FC177C4
:105D900070BD70B5054604F061FA0446017880795B
:105DA000401C814202D1A07801281BD0A078012894
:105DB00004D9401EC1B2284600F00EF92078A1791E
:105DC000884206D9401A401EC1B2284600F01EF88B
:105DD00005E0081A401CC1B2284600F0F1F8A96895
:105DE0000020C87770BD10B504460068FFF7B6FA0A
:105DF0000146A068C27F407E1144B1FBF0F200FB77
:105E0000121008B1002010BD012010BD002904D0DF
:105E10000A46006901A107F0D7B870471B5B2564EB
:105E200044000000006901A107F0CEB80A0000009C
:105E30002DE9FC47002604468DF80460806835464D
:105E4000B146B0468021A030FAF76EFB4049206988
:105E500007F0BAF8206907F0F9F800276B4601222D
:105E600001A92046FFF7F2F80098D8B19DF8040088
:105E70001B2806D0A16891F8A0101B29EED152284A
:105E80001FD0A26808F1A001505408F1010000F0F1
:105E9000FF08B8F1090F0AD9A168042081F8A09081
:105EA000BDE8FC872A494FF6C0101031884700989A
:105EB0000028D3D17F1CBFB2B7F57A7FCED30D2097
:105EC000EEE7A16808F1A0004A4601F80090A16839
:105ED00091F8A1005B2803D081F8A0200B20DFE718
:105EE00002206FF02F0309E005EB850503EB450564
:105EF000401C3D44C0B2ADB2802808D200F1A007DA
:105F0000CF5D3B2FF0D1401CC0B2802809D30C20BC
:105F1000C6E700BF06EB860603EB46063E44B6B274
:105F2000F1E700F1A007CF5D002FF3D1FA20FA2EA0
:105F300001D9087500E00E75FA2D02D9A16888759F
:105F400001E0A0688575A06880F8A0200020A7E780
:105F5000A115010070B5054604F080F9044680786B
:105F6000E178884201D1012600E000262846FFF7AB
:105F70003AFF18B9284600F044FC10B12846FFF754
:105F800051FF1EB160782178401A12E0E078A178C4
:105F9000401AC1B2284600F01FF820786178884284
:105FA00006D9401AC1B22846BDE8704000F008B8D2
:105FB000081AC1B22846BDE87040FFF727BF0000AD
:105FC000002904D00A46006901A106F0FDBF704710
:105FD0001B5B256443000000002904D00A460069C9
:105FE00001A106F0F1BF70471B5B25644100000072
:105FF0002DE9F04107460D460846FAF7A0FA064695
:106000002B4611A20821384606F050F914A20821A7
:10601000384606F04BF900240DE0200704D116A203
:106020000221384606F042F92B5D14A208213846B9
:1060300006F03CF9641CB442EFD33846BDE8F041A9
:106040000DA2082106F032B9446563727970746557
:106050006420746578743A0D0A25730D0A000000F7
:106060004465637279707465642074657874202D5A
:106070002041534349493A000D0A00002530327847
:106080002000000010B50021024804F070F980F3F0
:10609000100010BD004100204FF4803202FA01F1DF
:1060A00000F0C0BA00684FF4A86202EB81014058CA
:1060B00070474FF4A07202EB810189B200F0F6BA8A
:1060C0002DE9F041984617460E46050003D113A16D
:1060D0007020FDF777F84FF4A07000EB860081B2D6
:1060E00028684FF48034B44027F07F47C0F8084355
:1060F0002868C0F84843286808F0B0FB286800EB1F
:106100008600C0F840752868C0F84443B8F1000F15
:1061100002D02868C0F80443BDE8F0812E2E5C2E22
:106120002E5C2E2E5C2E2E5C2E2E5C2E2E5C2E2EA9
:106130005C2E2E5C636F6D706F6E656E74735C6C3D
:1061400069627261726965735C74696D65725C64C1
:1061500072765F7274632E63000000000068D0F8EE
:10616000040570472DE9F04715460E46040003D19B
:1061700039A12F20FDF726F81EB937A13020FDF7F1
:1061800021F81DB934A13120FDF71CF8607942498E
:10619000DFF80491DFF80CA141F82050617909F192
:1061A000040909EBC1003D4902793D48081AC708B6
:1061B0004AB1BAF80200082402284AD3022000EBB0
:1061C000074039A143E03588D4F80080B5F5805FF9
:1061D00004D33EA14FF4AB70FCF7F4FFC8F80855A8
:1061E000B67894F90450082E03D345A14520FCF756
:1061F000E9FF002D4FEA461004DB05F1E02585F8A4
:10620000000405E005F00F0101F1E02181F8140D13
:1062100094F904000121002809DB00F01F0201FAB3
:1062200002F24009800000F1E020C0F8002162790C
:1062300009EBC2021171617949F83140BAF80200E4
:106240000024032805D3032000EB07403AA107F000
:1062500063FC2046BDE8F0872E2E5C2E2E5C2E2E91
:106260005C2E2E5C2E2E5C2E2E5C2E2E5C2E2E5C3A
:10627000636F6D706F6E656E74735C6C6962726172
:10628000726965735C74696D65725C6472765F7265
:1062900074632E63000000001C010020D46D010017
:1062A0004C6D0100B402002052544320696E737497
:1062B000616E636520616C726561647920696E69E5
:1062C0007469616C697A65642E0000002E2E5C2E64
:1062D0002E5C2E2E5C2E2E5C2E2E5C2E2E5C2E2EF8
:1062E0005C2E2E5C6D6F64756C65735C6E72667887
:1062F0005C68616C2F6E72665F7274632E6800005A
:106300002E2E5C2E2E5C2E2E5C2E2E5C2E2E5C2EC7
:106310002E5C2E2E5C2E2E5C696E74656772617425
:10632000696F6E5C6E7266785C6E7266785F676CC1
:1063300075652E68000000005254433A20696E696A
:106340007469616C697A65642E00000090F904003C
:10635000002809DB00F01F02012191404009800064
:1063600000F1E020C0F8001270470A46022100F058
:106370006BB94FF4827100F099B9000010B50400B8
:1063800003D104A16120FCF71DFF206801210160F9
:1063900010BD00002E2E5C2E2E5C2E2E5C2E2E5C50
:1063A0002E2E5C2E2E5C2E2E5C2E2E5C636F6D705E
:1063B0006F6E656E74735C6C69627261726965732D
:1063C0005C74696D65725C6472765F7274632E636F
:1063D0000000000010B5040003D104A16720FCF701
:1063E000F1FE20680121416010BD00002E2E5C2EC0
:1063F0002E5C2E2E5C2E2E5C2E2E5C2E2E5C2E2ED7
:106400005C2E2E5C636F6D706F6E656E74735C6C6A
:1064100069627261726965735C74696D65725C64EE
:1064200072765F7274632E63000000002DE9F05FE6
:106430009B4615460C46060003D136A1A720FCF763
:10644000C1FE4FF4803000FA04F84FF4A07000EB66
:1064500084001FFA80FA25F07F454146304600F05F
:10646000E1F83068D0F8047500EB8401D1F840956C
:10647000C1F840755146306808F0F0F9A9EB070003
:1064800020F07F40012806D1102008F069FB51461A
:10649000306808F0E3F93068D0F80475C0F8448338
:1064A000E91B21F07F423068012A00EB840010D004
:1064B000C0F840553068D0F804156FF07F476A1A6D
:1064C000521E22F07F42A7EB0B03934217D362B117
:1064D00018E06D1CC0F84055102008F041FB3068F2
:1064E000D0F80405B8420AD10CE000EB84006D1C22
:1064F000C0F840553068D0F80405884202D00D201D
:10650000BDE8F09F01224146304600F09DF8002092
:10651000F6E700002E2E5C2E2E5C2E2E5C2E2E5CBE
:106520002E2E5C2E2E5C2E2E5C2E2E5C636F6D70DC
:106530006F6E656E74735C6C6962726172696573AB
:106540005C74696D65725C6472765F7274632E63ED
:10655000000000002DE9F04180460E461F48F9F783
:10656000EEFF05461EA20821404605F09FFE0024CE
:1065700014E0375DF9F75EFF0068C05D10F03E0F74
:1065800006D03B461BA20821404605F08FFE04E0E2
:1065900019A20821404605F089FE641CAC42E8D3EC
:1065A00016A20821404605F081FE00240DE02007D8
:1065B00004D119A20221404605F078FE335D17A2EE
:1065C0000821404605F072FE641CAC42EFD3404601
:1065D000BDE8F04110A2082105F068BE8807002040
:1065E000456E6372797074656420746578743A0DD1
:1065F0000A000000256300002E0000000D0A456E11
:10660000637279707465642074657874202D2041FC
:10661000534349493A0000000D0A00002530327802
:106620002000000070B50C46050003D105498D20FF
:10663000FCF7C8FD2868C0F848432868C0F808433C
:1066400070BD00006C66000070B516460C46050073
:1066500003D106A18320FCF7B5FD2868C0F84443A8
:10666000002E02D02868C0F8044370BD2E2E5C2E88
:106670002E5C2E2E5C2E2E5C2E2E5C2E2E5C2E2E54
:106680005C2E2E5C636F6D706F6E656E74735C6CE8
:1066900069627261726965735C74696D65725C646C
:1066A00072765F7274632E630000000070B50C4652
:1066B000050003D106A19420FCF784FD2868015948
:1066C00021B1214608F0CAF8012070BD002070BD3C
:1066D0002E2E5C2E2E5C2E2E5C2E2E5C2E2E5C2EF4
:1066E0002E5C2E2E5C2E2E5C636F6D706F6E656E51
:1066F00074735C6C69627261726965735C74696DF4
:1067000065725C6472765F7274632E6300000000D1
:106710002DE9F05F17460E00814670D013B1F9B233
:10672000FFF74EFC0024F9F785FE8246006800E082
:10673000641C315D415CC907FAD100253046FEF783
:106740000DFED9F80810001B4A7ED11B814228D3C8
:1067500006EB040805E000BF18F805100A290CD064
:106760006D1C8542F8D33119D9F8100006F02CFCC5
:106770004846BDE8F05FFFF755BBD9F8100006F0BA
:1067800065FC414600232A464846FFF769F82C4439
:106790004846641CFFF746FBF9B24846FFF710FC79
:1067A000E1E78B46DAF8001006EB040818F805005C
:1067B0000B5CDB0702D0AB460A2804D0E8199042F4
:1067C00001D26D1CF2E7D9F8100006F03FFC4146FB
:1067D00000235A464846FFF743F85C44DAF80000C5
:1067E00000E0641C315D415CC907FAD14846FFF7FF
:1067F00019FBF9B24846FFF7E3FB9EE7FFE7BDE868
:10680000F09F10B504460068FEF7A8FD0146A06899
:10681000827F407E1144B1FBF0F200FB121008B100
:10682000002010BD012010BD13460A46022102F0CF
:10683000B8BD13460A46052102F0B3BD10B54FF4AA
:10684000C871012001F094FD040001D002F0A5FD03
:10685000204610BD10B5044602F092FD2046BDE86A
:10686000104002F0A5BC00002DE9F04F87B00446AF
:1068700000200190029003900490059001A802ABC3
:10688000009010221946204602F080FB00286AD1B1
:1068900002989DF80F1000BA20F0FF039DF80B003E
:1068A0009DF8175003430398002600BA20F0FF001C
:1068B000084304994FF0614709BA21F0FF029DF89F
:1068C00013100A430599C4E93266C4E9126609BA8D
:1068D00021F0FF01C4E942032943C4E9221204253F
:1068E00001F00106A6FB076C5FEA52084FEA31018E
:1068F0005B0883EA060304EBC50648EAC0724FEA68
:106900003000C6E93203C6E912124FEA6505002DD0
:10691000E6DC022304EBC30101F14802F1E9326035
:10692000D2E900958246012017E000BF04EBC00CBD
:10693000E346DCE9327C01EBC00877408CEA0A0CC4
:10694000C8E9007CDBE9127C02EBC00887EA090792
:106950008CEA050CC8E9007C401C9842E6DB5B0031
:10696000082BD7DD002007B0BDE8F08F2DE9F84FE8
:106970008B46C97BDFF8ECE001F00F0100EBC104AE
:106980004FF00F0CD4E93231D4E912741BF80C50DB
:10699000BCF10F0F05F00F094FEA151A1BD01E07A7
:1069A0003D0945EA047546EA141607F00F081C096C
:1069B000CDF800803EF8383000EBC9081F0444EAE7
:1069C000017487EA1117D8E9323163407940D8E978
:1069D00012746F4074401E073D0945EA047546EA8B
:1069E000141607F00F081C093EF8383000EBCA08EF
:1069F0001F0444EA017487EA1117D8E93231634071
:106A00007940D8E912746F407440BCF1010CBDD5D7
:106A1000080E1070080C5070080A9070180ED17093
:106A200040EA01201071180C40EA01405071180A28
:106A300040EA01609071D371200E1072200C5072E8
:106A4000200A9072380ED47240EA04201073380C79
:106A500040EA04405073380A40EA04609073D773E8
:106A6000BDE8F88FF0470100F0B50D4C024600205C
:106A700004F11C0504F138034AB154F82060964231
:106A800005D353F8206055F82070BE4207D153F863
:106A900020608E4203D8401C0728EDD30020F0BDB3
:106AA0006813010010B501460020FFF7DDFF024921
:106AB00051F8200010BD00006813010018B112B198
:106AC000002011607047014870470000009FFFFFE1
:106AD00010B50B48FFF742FB094A083AD2E90434E3
:106AE000C018D2E9063244F10001C31A71EB020268
:106AF00004D24FF08072801841F1000110BD0000F7
:106B0000E8000020F0B5002398B192B18024002560
:106B1000156049B346181D4616F8017C07B10127D8
:106B200047EA05031768AB4205D000BF4FF00105E7
:106B300003E01148F0BD4FF00005A1F1010C05FB89
:106B40000CF547EA0507176016F8015C02D04FF014
:106B5000010601E04FF0000615FB06F585EA040585
:106B6000ECB2491ED6D10CB1012000E000204FF458
:106B70001E4110FB01F0F0BD009FFFFFF0B548B1D2
:106B800042B1431813F8013CCD1A15608B4203D96A
:106B9000012202E00F48F0BD00221BB10024144383
:106BA00000220CE00124FAE7865C5E40AA4201D391
:106BB000012700E000277E432643F4B2521C8A429C
:106BC000F2D30CB1012000E000204FF41E4110FB75
:106BD00001F0F0BD009FFFFF70B548B142B143180E
:106BE00013F8013CCC1A14608B4203D9012202E055
:106BF000104870BD002223B1002313430022491E18
:106C00000CE00123F9E7855CA24201D3012600E0F4
:106C1000002615FB06F51D43EBB2521C8A42F2D347
:106C20000BB1012000E000204FF41E4110FB01F0E9
:106C300070BD0000009FFFFF30B5002380B17AB126
:106C400000241460A1B145181C4615F8015C05B17B
:106C5000012545EA04031568A34203D0012402E09C
:106C6000044830BD00244C4325431560491EEAD139
:106C7000002030BD009FFFFF4FF0013101EAD0112D
:106C800001EBC10101EB410100F07F3081EA4000DE
:106C900070470000FEB50026044600960196029655
:106CA0008068E9B3D0E950128A4272D0D0F83C0132
:106CB00000286ED02046FFF76CF8A068D0F8445149
:106CC000002D69D0002309226946284607F0A8F95B
:106CD000A1689DF808500098C1F84401A0680023FD
:106CE0000922D0F84401694607F09AF9A1689DF895
:106CF00008200923D1F844012031521C07F090F9F3
:106D0000A1689DF80800C877A1689DF808008877F9
:106D10009DF80800A84202D22046FDF727FF00E0B8
:106D20000BE0A3682BA208212046203305F0BEFA11
:106D30002046FFF758F868BB43E0D0F8440100282C
:106D400047D02046FFF725F8A06800230922D0F895
:106D50004401694607F064F9A0680199C0F844113C
:106D6000A0680029857FB9D1A030FEF7F7FA002886
:106D7000A06805D000F1A0012030F9F7F5FB01E093
:106D800080F82060A0682030FEF7E8FA8DF808004F
:106D9000B6E71EE01AE0FFE72030FEF7DFFA10F05A
:106DA000FF05A068D0F83C11C0F84411A06805D0D8
:106DB00000F12001A030F9F7D7FB8FE780F8A06041
:106DC0008CE72046FFF71DFD002802D02046FFF784
:106DD00029F8FEBD25730000FEB50D00044604D160
:106DE0001E4940F28450FCF7EDF9A1680026D1F865
:106DF0003C0138B300230922694607F011F90195D7
:106E0000A06800230922D0F83C01694607F01AF96E
:106E10000196A068D0F83C110091807F8DF80800A1
:106E2000A068C0F83C51002309226946284607F0B3
:106E300009F9A168092328468A7F2031521C07F0EE
:106E400001F9FEBDC1F83C51A068C0F84051009660
:106E50000196A068807F8DF80800E4E71405010022
:106E6000FEB504468068D0F84061002E28D000238B
:106E700009226946304607F0D3F8A1680198002539
:106E8000C1F84001009501952B460922694630461C
:106E9000029507F0D7F8304607F094F8A168D1F8CA
:106EA000400170B100230922694607F0B9F8009546
:106EB000A06800230922D0F84001694607F0C2F813
:106EC000FEBDC1F83C51FEBDFEB5044680682030D1
:106ED000FEF744FA10F0FF05A0684FF00006C0F876
:106EE000446133D0A068D0F83C01E0B1002309220E
:106EF000694607F095F89DF80820AA4213D1A068CA
:106F0000092300F1A001D0F83C01521C07F088F8D9
:106F1000A06800F1A0012030F9F718FB0028A06854
:106F200080F8A06012D000260A352946606907F073
:106F300019F80100204604D003B0BDE8F040FFF787
:106F40004BBFFFF78DFF761C082EEED3FEBD000071
:106F50002DE9FC5F0E008346DDE90C47C6F1000019
:106F600098469246814600D40846012503E000BFBA
:106F700090FBFAF06D1C5045FADAA84500D9454659
:106F800024B1002E01DB780700D5641EB80702D5B6
:106F9000B8F1000F0AD0F80708D13CB1A54205D2DC
:106FA00020215846641EFCF7B5FDF6E7002E02DAF4
:106FB0004E462D2102E0780703D52B215846FCF7D9
:106FC000A9FD07F0030002280BD1B8F1000F08D18A
:106FD0003CB1A54205D230215846641EFCF79AFD0B
:106FE000F6E7CDE90047434652463146584609F098
:106FF00081FDBDE8FC9F00002DE9F0410B3020F041
:107000000706104D19E02068B04215D3B0420AD9E6
:10701000871B201DD4F80480F9F75EFAA019C0E997
:107020000078286004E060682860201DF9F754FAB1
:10703000201D2660BDE8F081251D2C68002CE2D1C2
:107040000020F7E74802002070B50E4605460068AC
:107050004FF48E7107F095FC4FF4A271286807F089
:1070600090FC28681549C0F804132868082E40F3DE
:10707000073403D312A14520FCF7A4F87007000ED3
:10708000002C04DB04F1E02484F8000405E004F0A3
:107090000F0101F1E02181F8140D286840F3073059
:1070A000002809DB00F01F02012191404009800007
:1070B00000F1E020C0F8001170BD00008000020067
:1070C0002E2E5C2E2E5C2E2E5C2E2E5C2E2E5C2EFA
:1070D0002E5C2E2E5C2E2E5C696E74656772617458
:1070E000696F6E5C6E7266785C6E7266785F676CF4
:1070F00075652E680000000070B50E4604460068F5
:107100004FF4887107F04EFC4FF49071206807F03F
:1071100049FC4FF49271206807F044FC4FF4A271CF
:10712000206807F03FFC4FF4AC71206807F03AFC90
:1071300020681549C0F804132068082E40F307356D
:1071400003D312A14520FCF73DF87007000E002D77
:1071500004DB05F1E02585F8000405E005F00F01EA
:1071600001F1E02181F8140D206840F30730002878
:1071700009DB00F01F02012191404009800000F16D
:10718000E020C0F8001170BD100342002E2E5C2ECE
:107190002E5C2E2E5C2E2E5C2E2E5C2E2E5C2E2E29
:1071A0005C2E2E5C696E746567726174696F6E5CCB
:1071B0006E7266785C6E7266785F676C75652E6855
:1071C0000000000070B50546FFF756FD0446FFF7C6
:1071D00053FD0646FFF750FD80EA050286EA0201EC
:1071E000654084EA02004D4085EA306080EA314023
:1071F00080EA322070BDF0B50368C26803F07F41B9
:10720000C2F3074441EA04448168C3F30746C1F36B
:10721000072544EA05274468E5B22F4304F07F457B
:1072200045EA0645C2F3072645EA0626CDB22E43B7
:1072300001F07F45C4F3074C45EA0C45C3F3072C26
:1072400045EA0C2502F0FF0C02F07F42C1F3074132
:1072500042EA0141C4F3072241EA0221DAB245EAD7
:107260000C051143C0E90251C0E90076F0BD0000F1
:1072700010B5044600680A4909F0AAF820600849D8
:10728000606809F0A5F860600549A06809F0A0F8F9
:10729000A0600349E06809F09BF8E06010BD0000C1
:1072A0004F120100024600201268530713D502F066
:1072B0000300012802D002280CD105E0C2F383109C
:1072C0000B68801C184404E00223086803EB925208
:1072D000104408600120704710B5F9F74EF908B165
:1072E000002010BD012010BD0268134602E08A4252
:1072F00004D01268002AFAD10B60016070470000C8
:10730000014B03F04FB90000CD740000014B03F0B6
:1073100049B9000099760000014B03F043B9000021
:10732000A1760000014B03F03DB900009177000009
:107330007CB514460546012902D005F089F938B11B
:1073400002B02846BDE870400022114605F00EB894
:10735000616805A0CDE9000109A202212846236841
:1073600004F0A4FF7CBD000020756E6B6E6F776E1D
:1073700020706172616D657465723A2000000000D2
:1073800025733A257325730D0A0000002DE9FC4191
:10739000074605F05DF938B102B03846BDE8F04166
:1073A0000022114604F0E2BF1248134E801B05096B
:1073B00000241AE006EB0410C2681179FF2903D0FB
:1073C000527942B10DA207E083680EA20821384627
:1073D00004F06CFF08E013A2CDE90021836814A239
:1073E0000821384604F062FF641CAC42E2D3BDE8D9
:1073F000FC8100004C6D01002C6D0100656E616226
:107400006C65640025730D0A092D20537461747531
:10741000733A2064656163746976617465640D0A0A
:107420000D0A000064697361626C6564000000000D
:1074300025730D0A092D205374617475733A202544
:10744000730D0A092D2049443A2025640D0A0D0ABE
:107450000000000010B5044605F0FAF830B12046EF
:107460000022BDE81040114604F080BF2046BDE870
:10747000104002A2022104F019BF00004E6F7420D8
:10748000737570706F727465642E0D0A00000000D1
:1074900010B5044605F0DCF830B120460022BDE806
:1074A0001040114604F062BF2046BDE8104002A221
:1074B000022104F0FBBE00004E6F742073757070E3
:1074C0006F727465642E0D0A000000002DE9FF4FF5
:1074D000C86881B01D46007917004FF00006009083
:1074E00057D0072245A12868F9F747F878B1082254
:1074F00044A12868F9F741F800282FD02B6843A24F
:10750000019805B00221BDE8F04F04F0CFBE012F75
:1075100002D0022F08D008E0019805B041A2BDE8D2
:10752000F04F022104F0C2BE0126DFF810810024D2
:107530000A2258F824106868F9F71FF810B1641C83
:10754000052CF5D3052C06D004F0FF090224002EEB
:1075500051D0002419E03AA26B68D1E7012F4FF017
:107560000009F6D0012446E04A462146009802F080
:107570003BFE48B90021204606F000FC034638A235
:107580000221019804F092FE641C06F0A1FBA042C7
:10759000EAD805B0BDE8F08F4FF0000A55F824B0E6
:1075A00006F096FB8046002609E00021304606F0F2
:1075B000E5FB20225946F8F7E0FF58B1761C464516
:1075C000F3D3464508D04A465146009802F00CFED7
:1075D00030B10FE0B246F4E755F8243029A205E0B7
:1075E0000021504606F0CAFB03461DA20221019865
:1075F00004F05CFE641CBC42CED3CAE7656E6162D7
:107600006C65000064697361626C6500556E6B6E39
:107610006F776E206F7074696F6E3A2025730D0A54
:107620000000000042616420706172616D657465E4
:107630007220636F756E742E0D0A0000C001002069
:10764000556E6B6E6F776E207365766572697479AF
:10765000206C6576656C3A2025730D0A00000000E9
:107660004C6576656C20756E617661696C61626CE3
:107670006520666F72206D6F64756C653A202573A6
:107680000D0A0000556E6B6E6F776E206D6F64751E
:107690006C653A25730D0A00C9680120487170476E
:1076A000C96800204871704730B41346C4680A4660
:1076B000214630BCFFF70ABFC0680121C068417194
:1076C0007047C0680021C0684171704730B41346EC
:1076D000C4680A46214630BC00F05AB82DE9FF4183
:1076E0000026274802F027FE2548001F074602F023
:1076F00022FE244C2449A06800900D6800E0009808
:107700006946284004EB80000C30FFF7CBFD0028D1
:10771000F5D101AA009901EA050304EB8303491C92
:10772000DB6842F82030401C00910228F2D3019817
:1077300000F0030001281AD002280ED013494FF49C
:10774000AF70FBF73FFD384602F0F2FD08B100983C
:10775000A06004B03046BDE8F0810198032101EB40
:1077600090500099BDF80A6001EB900005E0019887
:10777000BDF80A60C0F3831008440090E3E70000FE
:10778000FC400020E43C0020BC010020D861010046
:107790002DE9FE4F8846824606F09AFA0746D8F849
:1077A0000C00407920B922A20221504604F07EFD4F
:1077B00024A327A20821504604F078FD2CA208211A
:1077C000504604F073FD00242DE000BFD8F80C00F3
:1077D00001231A4605792146284606F083FA814698
:1077E000002301222146284606F07CFA054603289C
:1077F00001D2064600E003260121204606F0BEFA2B
:107800000346AE4201D22AA200E028A2294850F83D
:10781000261050F829008DE8070027A208215046BD
:1078200004F044FD641CBC42D0D3BDE8FE8F0000D0
:107830004C6F6773206172652068616C74656421A8
:107840000D0A00006D6F64756C655F6E616D65009B
:10785000252D343073207C2063757272656E742020
:107860007C206275696C742D696E200D0A00000021
:107870002D2D2D2D2D2D2D2D2D2D2D2D2D2D2D2D38
:107880002D2D2D2D2D2D2D2D2D2D2D2D2D2D2D2D28
:107890002D2D2D2D2D2D2D2D2D2D2D2D2D2D2D2D18
:1078A0002D2D2D2D2D2D2D2D2D2D0D0A00000000FF
:1078B0002A000000C0010020252D343073207C20D8
:1078C000252D3773207C20257325730D0A000000B9
:1078D0002DE9F04115460E4607460BA2082104F09B
:1078E000E5FC002406E0335D0CA20821384604F0D4
:1078F000DDFC641CAC42F6D33846BDE8F04109A279
:10790000082104F0D3BC000043616C63756C6174A2
:107910006564204D41433A0D0A000000253032785D
:10792000200000000D0A00008AB04FF480413E485C
:1079300006F07EF920B13DA240F24651F8F76AFC0C
:1079400005F052FA041E0ED038A240F24951F8F761
:1079500061FC002005F066FA204634A240F24C514A
:10796000F8F758FC02E0002005F05CFAFBF7E2FAB9
:107970002022324901A8F8F7AFFD06200190082027
:10798000029000208DF81800032000902B4801235E
:107990001A4601A9183804F061FE20B123A240F272
:1079A0005451F8F737FC2548183804F0B3FF20B1DC
:1079B0001EA240F25751F8F72DFC05F075F920B1E1
:1079C0001AA240F25A51F8F725FC1D4841681D489B
:1079D000F8F7CAFD1C4D6888032811D31B481C49C1
:1079E000401AC108052000EB0140044619A106F029
:1079F00093F86888032803D3204625A106F08CF865
:107A000005F050FF0028FBD106F042FA20B107A292
:107A100040F26351F8F7FEFB05F044FF07481838C1
:107A200004F010FFF8E70000B12E00002E2E5C2EAF
:107A30002E5C2E2E5C6D61696E2E6300000D0100C0
:107A40005400002088070020D4020020146E01009A
:107A50004C6D01006E72665F63727970746F2041C5
:107A6000455320636F6D6D616E64206C696E652097
:107A7000696E74657266616365206578616D706CAE
:107A80006520737461727465642E0D0A0000000035
:107A9000506C6561736520707265737320746865DE
:107AA00020546162206B657920746F2073656520B6
:107AB000616C6C20617661696C61626C6520636FDA
:107AC0006D6D616E64732E0D0A0000002DE9FF4F8D
:107AD0004FF0000881B014468B468146C246C0F87C
:107AE00000802578002D71D0F8F7A4FC0090006884
:107AF000405DC00702D004F801AB84E0D9F8000073
:107B00008300401CC9F800004BF8034015E02678BC
:107B1000002E78D0B8F1000F05D1222E10D0272EDC
:107B20000ED05C2E1ED0B04514D12046FDF716FCB9
:107B30000246611C2046F8F7CFFC4FF00008E6E74C
:107B40002046FDF70BFC0246611C2046F8F7C4FCFA
:107B5000B046DCE7B8F1000F50D05C2E6AD16078F7
:107B6000404508D12046FDF7F9FB0246611C20463E
:107B7000F8F7B2FC5EE030281CD100270225605DDA
:107B8000A0F13001072906D86D1C41EAC701EDB20A
:107B9000CFB2052DF3D3022D0CD92046FDF7DEFB25
:107BA000421B61192046491E921CF8F795FC04F807
:107BB000017BACE778281ED100270225605DA0F18B
:107BC0003001092903D841EA07100DE021E0A0F1B6
:107BD0006101052901D8573804E0A0F141010529C8
:107BE00007D8373840EA07106D1CEDB2C7B2042D34
:107BF000E4D3022DD1D8B8F1000F1BD10098006852
:107C0000805DC00716D0D9F8001004988142FFF4B7
:107C100068AFD9F800000C2804D907A140F204503D
:107C2000FBF7D0FAD9F8002040464BF822A005B067
:107C3000BDE8F08F641C6AE72E2E5C2E2E5C2E2E83
:107C40005C2E2E5C2E2E5C2E2E5C2E2E5C2E2E5C40
:107C5000636F6D706F6E656E74735C6C6962726178
:107C6000726965735C636C695C6E72665F636C6994
:107C70002E6300004840411E8143C1F3C0104042C2
:107C8000C0B270472DE9FF478146DDE90C641F460D
:107C900015468846100704D06FF0210004B0BDE8F7
:107CA000F087B8F1000F1BD033E010223146684650
:107CB000F8F712FC234632464146484600F0D6F813
:107CC0000020215C3A5C51402154401C1028F8DB14
:107CD000102269463846F8F7FFFB1034103D103685
:107CE000002DE2D117E00020315C3A5C5140215474
:107CF000401C1028F8DB23461A464146484600F04F
:107D0000B5F8102221463846F8F7E6FB1034103D4E
:107D10001036002DE7D10020C0E72DE9F0471C68A0
:107D2000DDE90976DDF820809946154682460F2C5C
:107D300003D96FF02000BDE8F08799B128E02CB995
:107D400043461A460121504600F090F817F8010BFF
:107D500018F80410414006F8011B08F80400641CE0
:107D600004F00F046D1EEAD214E02CB943461A4603
:107D70000121504600F07AF818F8040017F8011BAA
:107D8000484006F8010B08F80400641C04F00F04D6
:107D90006D1EEAD20020C9F80040CCE72DE9F0477B
:107DA00086B09946DDE90E5614460F468246E846EF
:107DB0001FE0102249466846F8F78EFB4B461A46EC
:107DC0000121504600F052F817B928788DF81000BC
:107DD00099F8000015F8011B484006F8010B012F27
:107DE00001D18DF81000102208F101014846F8F782
:107DF00073FB2046641EDCD206B0BDE8F0870000AD
:107E00002DE9F05F1468DDE90B76DDF828A09846CF
:107E100091460D4683460F2C22D96FF02000BDE815
:107E2000F09F9CB9534642460121584600F01EF887
:107E30005FF0100008EB000111F8012D521C12F048
:107E4000FF020A7002D1401E0028F3DC17F8010B74
:107E50001AF804104140641C06F8011B04F00F04DA
:107E60006D1EDED20020C9F80040D8E730B41446B9
:107E700001291A46214602D030BC01F03BBC30BC7F
:107E800001F092BE2DE9F0478246DDE908761468DC
:107E90000020994690460D460F2C16D96FF0200011
:107EA000BDE8F0873CB94B461A4601215046FFF722
:107EB000DDFF0028F4D117F8011B19F80420514008
:107EC000641C06F8011B04F00F046D1EEAD2C8F80A
:107ED0000040E5E72DE9F04F91B08346DDE91A94C3
:107EE00015091E468A4602F00F086FF02100102A7D
:107EF00074D3B2F1807F71D802AB324601210BF509
:107F00008C70FFF7B3FF02AF06AE002866D134E0F5
:107F1000B8F1000F0FD0BAF1000F0CD15DB90DF11F
:107F2000080C9CE80F000DF1300C8CE80F0002A942
:107F3000084601F074FB00204FEA070119F8002001
:107F40000B5C5A403254401C1028F7D306AB1A463B
:107F500051465846FFF78AFF00283FD13946325C28
:107F60000B5C5A402254401C1028F8D302A9084642
:107F700001F055FB09F1100910346D1EC8D2B8F19B
:107F8000000F2AD0BAF1000F04D002AFA4F11005FF
:107F9000002009E00CAFF9E7295C215419F8001022
:107FA0003A5C51403154401C4045F5D304E0295C13
:107FB0003A5C51403154401C1028F8D306AB1A46A5
:107FC00051465846FFF752FF002807D1315C3A5C12
:107FD00051402954401C1028F8D3002011B0BDE8AE
:107FE000F08F002803D04FF48C7102F03FB8704737
:107FF0004FF48C71F8F798BA2DE9F04FC7B00546E9
:1080000016460F466846FFF7F3FF05F108043246AF
:10801000394668466C6000F055F84690F0BB009811
:108020002860DDE9001000EB011101C901C401C99C
:1080300001C401C944F8080B51F81C0944F8040CA8
:108040002A6828E01E48002500F5905900F5B05A2E
:1080500000F5D05C00F5F05B08C950FA83F637787C
:108060006D1C59F82760C3F3072710F807805AF8EA
:1080700028707E40C3F3074700EB1363C75D93F896
:1080800000805CF827705BF828305F407E4040C479
:10809000042DE1DB2039521E002A00E008E0D1DC8B
:1080A00008682060486860608868A060C868E06010
:1080B0006846FFF796FF469847B0BDE8F08F00008E
:1080C000E8180100F0B5802A07D0C02A07D0B2F521
:1080D000807F0BD06FF01F00F0BD0A2300E00C235F
:1080E000036000F10803002443600AE00E23F7E771
:1080F00001EB8405EE782D6866F31F6543F8245084
:10810000641CB4EB521FF3D3544A0168A2F5085023
:108110000A2904D00C292BD00E2928D156E000249E
:1081200053F80C5B52F824104D4002CBC1F30726E4
:10813000C1F30747865DC75D86EA0726754000EBF9
:108140001166367885EA064550FA81F63678641C61
:1081500085EA06651D6053F80C6C6E405E6053F84E
:10816000085C75406940C3E902510A2CD8D373E01A
:108170005FF000041D6852F824104D405969C1F3A6
:108180000726C1F30747865DC75D86EA0726754067
:1081900000EB1166367885EA064550FA81F63678A6
:1081A000641C85EA06659D615E686E40DE619D68BF
:1081B00075401D62DE686E405E621D6975406940F3
:1081C000C3E90A511833082CD4D345E05FF0000509
:1081D0001C6852F825104C40D969C1F30726C1F339
:1081E0000747865DC75D86EA0726744000EB116687
:1081F000367884EA064450FA81F6367884EA0666D0
:108200001E625C6874405C629E6866409E62DC68C8
:108210007440DC6250FA84F73F781E69C4F3074C5F
:108220007E40C4F3072710F80CC0C75D00EB146450
:108230003F0287EA0C4724787E4086EA04641C6388
:108240005E696D1C66405E639C6974406140C3E971
:108250000E412033072DBBD30020F0BDE83A0100CA
:10826000F0B54C08DDE90576E508B1F5807F05D06D
:10827000B1F5007F02D06FF01F00F0BD1C603460CC
:108280001060284438600020F0BD10B5040007D00D
:10829000FFF7A7FE04F58C70BDE81040FFF7A1BE04
:1082A00010BD10B50446FFF7A3FE04F58C70BDE8C1
:1082B0001040FFF79DBE70B586B00E46044605A976
:1082C00003A81546CDE9000104AB02AA29463046B1
:1082D000FFF7C6FF00280CD104F58C70059A0399AE
:1082E000FFF7F0FE002804D12046049A0299FFF718
:1082F00083FE06B070BD70B586B00E46044605A973
:1083000003A81546CDE9000104AB02AA2946304670
:10831000FFF7A6FF00280CD104F58C70059A03998D
:10832000FFF7D0FE002804D12046049A0299FFF7F7
:10833000C9FE06B070BD70B54843044605F09BFD0C
:10834000050002D02146F8F7EFF8284670BD04F08A
:10835000D9BF000010B50349034801F07FFE00209B
:1083600010BD00004F8300003783000000207047DD
:10837000014A126810470000380200202DE9FF472B
:108380008146DDE90C641F4615468846100704D077
:108390006FF0250004B0BDE8F087B8F1000F1BD0E6
:1083A00033E0102231466846F8F796F82346324605
:1083B0004146484600F0A4F80020215C3A5C514058
:1083C0002154401C1028F8DB102269463846F8F783
:1083D00083F81034103D1036002DE2D117E0002054
:1083E000315C3A5C51402154401C1028F8DB234694
:1083F0001A464146484600F083F810222146384686
:10840000F8F76AF81034103D1036002DE7D100203F
:10841000C0E72DE9F0471C68DDE90976DDF820802A
:10842000994615468246102C03D36FF02300BDE811
:10843000F08799B128E02CB943461A4601215046ED
:1084400000F05EF817F8010B18F80410414006F828
:10845000011B08F80400641C04F00F046D1EEAD22E
:1084600014E02CB943461A460121504600F048F862
:1084700018F8040017F8011B484006F8010B08F82B
:108480000400641C04F00F046D1EEAD20020C9F839
:108490000040CCE72DE9F05F1468DDE90B76DDF8EC
:1084A00028A0984691460D468346102C22D36FF0A3
:1084B0002300BDE8F09F9CB953464246012158462F
:1084C00000F01EF85FF0100008EB000111F8012D1C
:1084D000521C12F0FF020A7002D1401E0028F3DC89
:1084E00017F8010B1AF804104140641C06F8011B30
:1084F00004F00F046D1EDED20020C9F80040D8E75A
:108500002DE9FF4111681D4609BAD37840C821F012
:10851000FF01194300915168D37909BA21F0FF0195
:10852000194301919168D37A09BA21F0FF011943E7
:108530000291D168D27B09BA21F0FF011143039166
:1085400004C8009951400091019950F8082B5140FE
:10855000019150F8042C02995140029104C80399EA
:10856000044651400391EEB302AF3A4621466846B5
:10857000761EFBF727FB08346A4621463846FBF790
:1085800021FB08343A4621466846FBF71BFB0834BA
:108590006A4621463846FBF715FB08343A46214621
:1085A0006846FBF70FFB08346A4621463846FBF75E
:1085B00009FB0834B6B102CC00980840019981EA61
:1085C000F070019002CC0843009948400090039855
:1085D0006168084302994840029054F8081B08401B
:1085E000039900E003E081EAF0700390BDE7029890
:1085F00021684840029003986168484003900098C1
:10860000A168484000900198E168484001900298B4
:10861000000E28700298000C68700298000AA8707A
:108620000298E8700398000E28710398000C687196
:108630000398000AA8710398E8710098000E287248
:108640000098000C68720098000AA8720098E872FE
:108650000198000E28730198000C68730198000AB5
:10866000A8730198E87304B00020BDE8F0810028E9
:1086700003D04FF48A7101F0F9BC70474FF48A714E
:10868000F7F752BF70B5C6B0044615460E466846A9
:10869000FFF7F4FF2A463146684600F033F805003C
:1086A00029D100982060042812D00021684600EBF0
:1086B000811050F8C42F62604268A2608268E26054
:1086C000C26822611622083802EBC101143407E0A7
:1086D0000121EBE704C8491E04C450F80C2904C466
:1086E0000029F7D150F8081D216041686160816858
:1086F000A160C068E0606846FFF7B9FF46B0284651
:1087000070BD00002DE9F04FC9B089460446051D33
:108710001646402125A8F7F707FF4FF48871284631
:10872000F7F702FF802E09D0C02E0BD0B6F5807F60
:1087300008D06FF0230049B0BDE8F08F0320002778
:10874000206002E004200127206000200DF1940841
:1087500005E000BF19F8001008F80010401CB0EB4D
:10876000D60FF7D3C02E09D15FF0000008EB00014F
:10877000401C0A7CD2430A760828F7D3F24B00202B
:1087800035AA00BF03EBC0010C6891F803C024BAFE
:1087900024F0FF0444EA0C0442F830404C68C979E4
:1087A00024BA24F0FF040C4302EBC001401C4C60CF
:1087B0000628E7D3402115A8F7F7B6FE002015AC30
:1087C00058F8201008EB800209BAD27821F0FF0196
:1087D000114344F82010401C0828F1D35FF000003A
:1087E00004EB800154F820200B69401C5A400A62B7
:1087F0000428F5D304F1280204F12000914635A99C
:108800008046FBF7DFF9424637A94846FBF7DAF91D
:108810005FF0000004EB800154F820300A6A401C2D
:108820005A400A620428F5D34A4639A94046FBF764
:10883000C9F942463BA94846FBF7C4F9802E16D930
:108840005FF0000004EB8001401C0B6A0A695A408B
:108850000A630428F6D323AA21A890463DA904461A
:10886000FBF7B0F922463FA94046FBF7ABF9159854
:10887000019016980290179803901898B3490490A5
:10888000012001EB07110DF1040A0A1812F8012C5E
:108890009AB3C0EB001202F01F02DDF804C0029B85
:1088A0000CFA02FCC2F12004E3408CEA030C0AEB50
:1088B0000013C3F800C0DDF808C0DDF80C800CFA26
:1088C00002FC28FA04F88CEA080CC3F804C0DDF8AE
:1088D0000CC0DDF810800CFA02FC28FA04F88CEACF
:1088E000080CC3F808C0DDF810C00CFA02FC019AAD
:1088F000E2408CEA020CC3F80CC0401C0428C4D926
:10890000924B0020203307EB870B03EB0B1213561F
:108910005C1C03D05AF8204045F82340401C142822
:10892000F5D3802E53D9199801901A9802901B986C
:1089300003901C98049001200B18DB78ABB3C0EBBC
:10894000001303F01F03DDF804C0DDF80880C3F155
:1089500020040CFA03FC28FA04F80AEB00198CEA4C
:10896000080CC9F800C0DDF808C0DDF80C800CFA6E
:1089700003FC28FA04F88CEA080CC9F804C0DDF8F6
:108980000CC0DDF810800CFA03FC28FA04F88CEA1D
:10899000080CC9F808C0DDF810C00CFA03FC019BF4
:1089A000E3408CEA030CC9F80CC0401C0428C3D96E
:1089B00000205446131893F91430B3F1FF3F03D04D
:1089C00054F820C045F823C0401C1428F2D31D9849
:1089D00001901E9802901F98039020980490012007
:1089E0000B18DB79ABB3C0EB001303F01F03DDF80A
:1089F00004C0DDF80880C3F120040CFA03FC28FA57
:108A000004F80AEB00198CEA080CC9F800C0DDF87C
:108A100008C0DDF80C800CFA03FC28FA04F88CEA94
:108A2000080CC9F804C0DDF80CC0DDF810800CFAA1
:108A300003FC28FA04F88CEA080CC9F808C0DDF831
:108A400010C00CFA03FC019BE3408CEA030CC9F84C
:108A50000CC0401C0428C3D90020131893F92830F7
:108A60005C1C03D05AF8204045F82340401C1428D1
:108A7000F3D3802E50D92198019022980290239808
:108A800003902498049001200B18DB7A9BB3C0EB71
:108A9000001303F01F03DDF804C0029C0CFA03FC72
:108AA000C3F12006F4408CEA040C0AEB0014C4F86D
:108AB00000C0DDF808C0DDF80C800CFA03FC28FAD1
:108AC00006F88CEA080CC4F804C0DDF80CC0DDF828
:108AD00010800CFA03FC28FA06F88CEA080CC4F89B
:108AE00008C0DDF810C00CFA03FC019BF3408CEACF
:108AF000030CC4F80CC0401C0428C5D90020534600
:108B0000111891F93C104C1C03D053F8204045F843
:108B10002140401C1428F3D30C4A0020C03202EB41
:108B20008B0307EB470219564C1C07D000EB82045D
:108B300005EB840455F82110C4F88010401C14285B
:108B4000F1D30020F7E50000103B0100403F010099
:108B500010B5040007D000F06AF92046BDE81040C7
:108B6000442101F083BA10BD4421F7F7DDBC2DE9A3
:108B7000F0411D460B461646074601222946184677
:108B800000F072F904006FF00C0013D06169102935
:108B900010D1384600F04BF92146384600F0DCF998
:108BA000002807D12A4631463846BDE8F041012366
:108BB00000F0AEB9BDE8F081002802D0842101F0B8
:108BC00055BA704710B50446402101F04FFA4021D4
:108BD00004F1400001F04AFA4020C4F8800010BDC2
:108BE000184A0260184A4260184A8260184AC260F5
:108BF000CB780A6863F31F620261CB794A6863F33A
:108C00001F624261CB7A8A6863F31F628261CB7B09
:108C1000CA6863F31F62C261CB7C0A6963F31F6297
:108C20000262CB7D4A6963F31F624262CB7E8A692E
:108C300063F31F628262CA7FC96962F31F61C16206
:108C400000207047657870616E642033322D627940
:108C50007465206B2DE9F0471F4691460D4604468A
:108C6000002600F1400A0CE019F8061010F80A007E
:108C70006D1E4140B955D4F88000401C761CC4F8E4
:108C80008000002D6BD0D4F880004028ECD34DE05C
:108C900051462046FBF7A7FC206B401C00232063B5
:108CA000F118E01819F8012090F840C0083382EA62
:108CB0000C027A5401EB090290F8418092F801C04D
:108CC00039448CEA080C81F801C092F802C090F88F
:108CD00042808CEA080C81F802C092F803C090F838
:108CE00043808CEA080C81F803C092F804C090F825
:108CF00044808CEA080C81F804C092F805C090F812
:108D000045808CEA080C81F805C092F806C090F8FE
:108D100046808CEA080C81F806C0D27990F84700AA
:108D20004240CA71402BBBD3403D4036402DAFD2AC
:108D3000ADB151462046FBF756FC206B401C20632A
:108D4000002008E03118231819F8012093F840306A
:108D50005A407A54401CA842F4D3C4F880500020F2
:108D6000BDE8F08710B504000CD0FFF725FF04F133
:108D7000840001F085F90020E4E93400C4E9020030
:108D80002061207510BD10B50446FFF71BFF04F1EC
:108D9000840001F07BF90020E4E93400C4E902001A
:108DA0002061207510BDFFF71BBF2DE9F04104467F
:108DB000D0F8E000984616460D46012805D0022856
:108DC0000BD06FF05300BDE8F0810220C4F8E00042
:108DD0002046FBF72DFD0028F5D1F4E93620521985
:108DE00040F10000E4E8032014F80C1BA4F16C002F
:108DF0000746F03C69B12A46314601F04AF900289D
:108E0000E1D14346324629462046FFF723FF00289A
:108E1000D9E74346324629462046FFF71BFF002884
:108E2000D1D12A464146384601F033F9EFE710B573
:108E3000040013D0206C28B1242101F017F9206C14
:108E400000F0B6F9E06B18B121688969C96A8847F2
:108E50002046BDE81040442101F008B910BD00686B
:108E6000002800D04069704730B50A4B0CE0A56976
:108E70002D78854207D165688D4204D1647894428B
:108E800001D1586830BD08335C68002CEFD1002058
:108E900030BD00008C460100026812B15278022AEF
:108EA00001D01148704705291AD2DFE801F0030705
:108EB0000D1115000D49C1600D4902E00D49C16059
:108EC0000D490161002070470C49C1600C49F8E769
:108ED0000C49C1600C49F4E70021C1600B49F0E77F
:108EE0000148803070470000009FFFFF8B2B00007F
:108EF0007D6B00006F2B0000056B0000C52B000090
:108F0000D96B0000E72B0000396C0000BD6A00003F
:108F1000F0B4104E04688CB1257CAD0702D46568AE
:108F200095420BD142600372012B0AD06578032D64
:108F300007D0042D05D0052D03D033B13046F0BC49
:108F40007047A369C06B1B6A02E0A369C06B5B6AD0
:108F5000F0BC1847009FFFFF70B50C0005460ED00F
:108F60004421F7F7E1FAA069806A8047E86340B1DD
:108F7000002128462C60FFF78FFF002070BD0248BB
:108F800070BD0148803870BD009FFFFF2DE9FF5F75
:108F900004460E9F0068DFF80CA2994615468846E5
:108FA000E8B3002038602046FFF759FF06000ED0D6
:108FB0002168487801280ED006281BD00A78492A53
:108FC00022D04B46C84532D1626A42BB26E0764881
:108FD00004B0BDE8F09FB54201D07448F8E73D60A9
:108FE000226894F90810E06B92694B465468424637
:108FF000A047EDE73D60E06B04B04B464246294692
:10900000BDE8F05F00F097BA3D60E06B04B04B46FE
:1090100042462946BDE8F05FFFF7C7BE00E004E026
:10902000B5FBF6F206FB12520AB15046D0E704F146
:10903000280204F1140B039202280DD0121F0328FA
:1090400077D0042871D0052870D0564A803209287C
:109050006DD007286CD08DE094F9080010B101287C
:1090600007D015E0E06820B1606A301AA84204D247
:109070000EE0606A301AA8420AD9616A2A4601EBFA
:109080000B004146F7F728FA606A2844606249E01D
:10909000606AE8B1A6EB000A584452464146F7F729
:1090A0001BFACDE900B9226894F90810E06B9269C7
:1090B000039BD2F808C03246E047002888D13868C0
:1090C000B144304438600020D044A5EB0A0560620A
:1090D00045B3B5FBF6F006FB10505FEA000A04D179
:1090E000207A10B9E06800B1B246A5EB0A0505EB9D
:1090F000080152465846F7F7EFF9616A01EB0A009A
:1091000060627DB1CDE90089226894F90810E06BB6
:109110009269039B94682A46A047002886D1386844
:1091200028443860002053E703E00EE015E01FE01C
:109130002EE0039E13468DE84003896994F9086088
:10914000E06BCC682A46314610E0CDE90089896998
:10915000E06B039B0C69294618E0CDF800B0CDE91F
:1091600001898969E06B039B4C692946A04715E09A
:10917000606A08B110462BE7CDE90089896994F946
:109180000860E06B8C692A463146039BA04705E0E6
:109190008969E06B4246CC692946A0470028C2D1C4
:1091A0003D60BFE7009FFFFF809CFFFF809DFFFFAA
:1091B0000149496808470000380200202DE9F043C2
:1091C0008BB089468446DDE91270DDE91551DDF882
:1091D0005080CDE900370DF1080E179E8EE8430050
:1091E00007ACCDE9055413464A460021604600F01D
:1091F00019F8002811D10021084605E018F80020D0
:10920000235C5A401143401CA842F7D341B1494660
:10921000304600F02BFF6FF011000BB0BDE8F0837B
:109220000020FAE72DE9FC470DF1300A9C46144670
:1092300081469AE88101DDE90A32DDE90F65CDE971
:1092400000206246484600F0D6F800280FD1434679
:109250003A462146484600F06EF9002807D102B090
:10926000324629464846BDE8F04700F002B8BDE85E
:10927000FC872DE9FF4707468A46D7E95201CC0013
:1092800044EA5074C600D7E95401CD0045EA507550
:109290004FEAC008101F91460D2804D36FF0130049
:1092A00004B0BDE8F0874A4607F5AC715046F7F7C1
:1092B00013F946EA080044EA050108435ED000209D
:1092C0000090019002900390280E8DF80000280C69
:1092D0008DF80100280A8DF802004FEA186040EA74
:1092E00005208DF804004FEA184040EA05408DF84B
:1092F00005004FEA182040EA05608DF80600200EB0
:109300008DF80800200C8DF80900200A8DF80A005D
:10931000300E40EA04208DF80C00300C40EA044086
:109320008DF80D00300A40EA04608DF80E008DF8CB
:1093300003508DF807808DF80B408DF80F600020EA
:109340006A463918145C91F87831401C634081F802
:1093500078311028F5D307F5BC7211463846FDF771
:1093600005FB002008E03A181AF8001092F878215E
:1093700051400AF80010401C4845F4D300208FE704
:1093800010B5040008D0FFF752FD2046BDE810409C
:109390004FF4C87100F06ABE10BD4FF4C871F7F702
:1093A000C3B82DE9F0411D460B461646074601227B
:1093B00029461846FFF758FD04006FF0130018D037
:1093C0006169102915D13846FFF731FD214638462D
:1093D000FFF7C2FD00280CD101232A46314638464A
:1093E000FFF796FD002804D13846BDE8F041FDF7AF
:1093F0003BBABDE8F0812DE9F04F87B00446DDE9C6
:1094000010B61D004FF000001346059033D0C4F88D
:109410006801C4F86C0104F5BC72C4F87001C4F8AA
:109420007401106050609060D060C4F88811C4E985
:109430005200C4E95400814604F5B47082460C2DF4
:109440001ED0680DCDF810908DF81000680B8DF8C7
:10945000110068098DF81200E800CDF80490CDF8ED
:109460000890CDF80C908DF813009846102D0FD26F
:109470002F46002017E06FF0130007B0BDE8F08F13
:109480002A461946F7F728F8012084F8770125E0E5
:1094900010270020211818F8003091F868215A4050
:1094A00081F86821401CB842F4D352461146204648
:1094B000FDF75CFAED1BB844D8D1002001AA2118B1
:1094C000155C91F86831401C6B4081F868311028B8
:1094D000F5D3524611462046FDF748FA05A80090FC
:1094E00004F5AC73102251462046FFF74FFD0028CB
:1094F000C3D1C4E954695D4604F5BC7817E0102E69
:1095000002D23746002009E01027002021182B5CEA
:1095100091F878215A4081F87821401CB842F5D35F
:10952000424611462046FDF721FAF61B3D44002E27
:10953000E5D10020A1E72DE9F04186B04FF0000C05
:109540000D46044698466FF01306CDF814C09342BA
:1095500003D9A8EB0200A8420ED3D4E952737819BC
:1095600043EB0C01C71B71EB030305D36FF01F071F
:109570000F233F1A8B4103D2304606B0BDE8F0817D
:109580001646C4E9520146E0102D01D22F4600E0F4
:1095900010271020211891F86721521C12F0FF02A9
:1095A00081F8672102D1401E0C28F3D805A800904D
:1095B00001AB102204F5B4712046FFF7E7FC002848
:1095C000DBD101AA1CE0D4F8881141B9211816F8A2
:1095D00000C091F8783183EA0C0381F87831135C8C
:1095E000315C4B4008F80030D4F88811012906D1CD
:1095F000211891F878C18CEA030C81F878C1401CDD
:10960000B842E0D304F5BC7211462046FDF7AEF92E
:10961000ED1B3E44B844002DB6D10020ADE7F0B5B7
:109620000A79D1F80530CC7842EA0322260642EACC
:1096300014228C780B7846EA044642EA14424C78AD
:10964000D1F80D5046EA04261E430B7B91F80AC060
:1096500043EA0523CD7A42EA14642F0A2D063B43E0
:1096600045EA0C4543EA1C4391F809C0097A45EAEA
:109670000C25B61943EA1C630D4344EB0402D90FD1
:10968000C9000827D1EB07014FF0870727FA01F738
:1096900082EAE7714FEAD4726C195B4122430C0EE7
:1096A000C4710C0C84710C0A447186EA0706340EEE
:1096B000017144EA0124C470340C44EA014484700A
:1096C0000C0644EA162141700670190EC173190C7C
:1096D0008173190A4173110E037341EA0321C172A8
:1096E000110C41EA03418172110A41EA036141729E
:1096F0000272F0BDF0B589B043680093CC780B6876
:1097000064F31F63009C019324685C40009B0194F8
:109710001B1D0093CC794B6864F31F63009C02937C
:1097200024685C40009B02941B1D0093CC7A8B68DC
:1097300064F31F63009C039324685C40009B0394C4
:109740001B1D0093CB7BC96863F31F61009B0491D1
:109750001B684B4000990493091D009100684FF06D
:10976000FF3101EB6005FE4800F5806100F5006403
:1097700000F5406EE7E01E68019B039FDBB2C7F374
:10978000074750F8233054F827705E40049BDDF8FB
:1097900010C0C3F30723CCF3074C51F823307B40B0
:1097A0005E40029B1F0E73465EF827707E40059652
:1097B000009E029F361D0096FFB2366850F8277053
:1097C00054F82CC07E40019FC7F3072751F827703B
:1097D00087EA0C077E40039F3F0E53F827707E40B8
:1097E0000696009E039F361D0096FFB2366850F81D
:1097F0002770DDF804C07E40029FCCF3074CC7F30E
:10980000072754F82CC051F8277087EA0C077E40D0
:10981000049F3F0E53F827707E400796009E049FDA
:10982000361D0096FFB2366850F82770DDF808C084
:109830007E40039FCCF3074CC7F3072754F82CC096
:1098400051F8277087EA0C077E40019FDDF81CC0A5
:109850003F0ECCF3074C53F827707E400896009ECD
:10986000361D0096059F3668FFB254F82CC050F89C
:1098700027707E40089FC7F3072751F8277087EAB3
:109880000C077E40069FDDF820C03F0ECCF3074C4E
:1098900053F827707E400196009E069F361D009665
:1098A000FFB2366850F8277054F82CC07E40059FF0
:1098B000C7F3072751F8277087EA0C077E40079FF8
:1098C0003F0E53F827707E400296009E079F361D7C
:1098D0000096FFB2366850F82770DDF814C07E405D
:1098E000069FCCF3074CC7F3072754F82CC051F858
:1098F000277087EA0C077E40089F3F0E53F82770B9
:109900007E400396009E089F361D00963668FFB283
:10991000DDF818C050F82770CCF3074C7E40079F45
:1099200054F82CC0C7F3072751F8277087EA0C07B3
:109930007E40059F3F0E5EF827305E40009B0496F8
:109940001B1D6D1E0093009B002D3FF714AF019D62
:109950001B68EDB2039E50F82550C6F307466B40D6
:10996000049D54F82660C5F3072551F8255075402D
:109970006B40029D049E2D0EC6F307465EF82550EF
:109980006B400593009B029D1B1D0093EDB21B686D
:1099900050F8255054F826606B40019DC5F307250B
:1099A00051F8255075406B40039D2D0E5EF82550F3
:1099B0006B400693009B039D1B1D0093EDB21B683B
:1099C00050F82550019E6B40029DC6F30746C5F333
:1099D000072554F8266051F8255075406B40049DCA
:1099E0002D0E5EF825506B400793009B049D1B1DB8
:1099F0000093EDB21B6850F8250043400398C0F374
:109A0000072051F820000299C1F3074154F82110B2
:109A1000484043400198000E5EF820004340009803
:109A20000893001D009001684E48059B50FA83F38F
:109A30001B78079C5940089BC4F30744C3F30723D2
:109A4000045DC35C1B0283EA04435940069B00EBA0
:109A500013631B7881EA036101910099069B091D3C
:109A60000091096850FA83F31B78089C5940059BC4
:109A7000C4F30744C3F30723045DC35C1B0283EAFA
:109A800004435940079B00EB13631B7881EA036191
:109A900002910099079B091D0091096850FA83F310
:109AA0001B78059C5940069BC4F30744C3F3072366
:109AB000045DC35C1B0283EA04435940089B00EB2E
:109AC00013631B7881EA036103910099089B091DC8
:109AD0000091096850FA83F31B78069C5940079B54
:109AE000C4F30744C3F30723045DC35C1B0283EA8A
:109AF00004435940059B00EB1360007881EA006045
:109B000004900098001D0090019810700198000AC0
:109B100050700198000C90700198000ED07002985F
:109B20001071010A5171010C9171000ED0710398EE
:109B30001072010A5172010C9172000ED0720498D9
:109B40001073010A5173010C9173000ED07304213C
:109B500001A800F08BFA042102A800F087FA03E0C4
:109B6000E82A0100E8290100042103A800F07EFA98
:109B7000042104A800F07AFA042105A800F076FA7E
:109B8000042106A800F072FA042107A800F06EFA7A
:109B9000042108A800F06AFA0421684600F066FA79
:109BA00009B00020F0BD0000F0B589B04368009313
:109BB000CC780B6864F31F63009C019324685C40BD
:109BC000009B01941B1D0093CC794B6864F31F63C9
:109BD000009C029324685C40009B02941B1D009330
:109BE000CC7A8B6864F31F63009C039324685C4009
:109BF000009B03941B1D0093CB7BC96863F31F611B
:109C0000009B04911B684B4000990493091D00912F
:109C100000684FF0FF3101EB6005FE4800F5806100
:109C200000F5006400F5406EE7E01E68019B039FAD
:109C3000DBB2C7F3074750F8233054F827705E4073
:109C4000029BDDF810C0C3F30723CCF3074C51F897
:109C500023307B405E40049B1F0E73465EF82770E6
:109C60007E400596009E029F361D0096FFB2366824
:109C700050F8277054F82CC07E40039FC7F3072785
:109C800051F8277087EA0C077E40019F3F0E53F87A
:109C900027707E400696009E039F361D0096FFB2F9
:109CA000366850F82770DDF804C07E40049FCCF37E
:109CB000074CC7F3072754F82CC051F8277087EAE0
:109CC0000C077E40029F3F0E53F827707E40079698
:109CD000009E049F361D0096FFB2366850F827702C
:109CE000DDF808C07E40019FCCF3074CC7F307277F
:109CF00054F82CC051F8277087EA0C077E40039F68
:109D0000DDF81CC03F0ECCF3074C53F827707E40A3
:109D10000896009E361D0096059F3668FFB254F8DF
:109D20002CC050F827707E40069FC7F3072751F8D4
:109D3000277087EA0C077E40089FDDF820C03F0EA1
:109D4000CCF3074C53F827707E400196009E069F87
:109D5000361D0096FFB2366850F8277054F82CC0B4
:109D60007E40079FC7F3072751F8277087EA0C0743
:109D70007E40059F3F0E53F827707E400296009E5E
:109D8000079F361D0096FFB2366850F82770DDF841
:109D900014C07E40089FCCF3074CC7F3072754F844
:109DA0002CC051F8277087EA0C077E40069F3F0EB3
:109DB00053F827707E400396009E089F361D00963C
:109DC0003668FFB2DDF818C050F82770CCF3074CA6
:109DD0007E40059F54F82CC0C7F3072751F8277021
:109DE00087EA0C077E40079F3F0E5EF827305E40F3
:109DF000009B04961B1D6D1E0093009B002D3FF7DA
:109E000014AF019D1B68EDB2039E50F82550C6F3B8
:109E100007466B40029D54F82660C5F3072551F8AC
:109E2000255075406B40049D049E2D0EC6F30746D9
:109E30005EF825506B400593009B029D1B1D00930F
:109E4000EDB21B6850F8255054F826606B40039D16
:109E5000C5F3072551F8255075406B40019D2D0E27
:109E60005EF825506B400693009B039D1B1D0093DD
:109E7000EDB21B6850F82550019E6B40049DC6F35F
:109E80000746C5F3072554F8266051F8255075405C
:109E90006B40029D2D0E5EF825506B400793009B92
:109EA000049D1B1D0093EDB21B6850F82500434034
:109EB0000198C0F3072051F820000299C1F307412F
:109EC00054F82110484043400398000E5EF82000EB
:109ED000434000980893001D009001684E48059B80
:109EE00050FA83F31B78079C5940069BC4F3074440
:109EF000C3F30723045DC35C1B0283EA0443594098
:109F0000089B00EB13631B7881EA036101910099C0
:109F1000069B091D0091096850FA83F31B78089C81
:109F20005940079BC4F30744C3F30723045DC35C94
:109F30001B0283EA04435940059B00EB13631B7823
:109F400081EA036102910099079B091D009109684C
:109F500050FA83F31B78059C5940089BC4F30744CF
:109F6000C3F30723045DC35C1B0283EA0443594027
:109F7000069B00EB13631B7881EA03610391009950
:109F8000089B091D0091096850FA83F31B78069C11
:109F90005940059BC4F30744C3F30723045DC35C26
:109FA0001B0283EA04435940079B00EB13600078CF
:109FB00081EA006004900098001D009001981070E4
:109FC0000198000A50700198000C90700198000EE2
:109FD000D07002981071010A5171010C9171000E3C
:109FE000D07103981072010A5172010C9172000E27
:109FF000D07204981073010A5173010C9173000E12
:10A00000D073042101A800F031F8042102A800F067
:10A010002DF803E0E8190100E8180100042103A865
:10A0200000F024F8042104A800F020F8042105A879
:10A0300000F01CF8042106A800F018F8042107A875
:10A0400000F014F8042108A800F010F80421684674
:10A0500000F00CF809B00020F0BD0000024AC2E98F
:10A06000000100207047000038020020002904D0C1
:10A07000024B0A4600211B68184770474002002027
:10A08000002802D04821FFF7F1BF70474821FFF7B1
:10A09000EDBF2DE9F0471400884605464FF0000655
:10A0A00034D0686C05F13407C8B1C0F11006B44271
:10A0B000384407D222464146F6F70EFA686C20442F
:10A0C000686423E032464146F6F706FA0020012391
:10A0D00068643A461946284605F0BAFBA41B102CC2
:10A0E0000CD34FEA141908EB06020123494628460F
:10A0F00005F0AEFB06EB091604F00F0434B108EBD3
:10A100000601224638466C64F6F7E6F90020BDE801
:10A11000F08710B50446002902D0F6F705FA20783A
:10A1200010BD00002DE9F05F1E46DDF828B0914615
:10A130008A46040003D124499020F9F743F8B4F883
:10A140000680607908FB00F8A8F10408464503D3AF
:10A150001D499E20F9F736F8E788301DB0FBF7F16E
:10A16000B0FBF7F207FB1200D9F80050AA194245DC
:10A1700001D9A8EB0605C9F8005001E02468491E82
:10A180000029FBD13E1A8846AE4215D817E000BF21
:10A190002044001D0AEB0803BBF1000F324602D039
:10A1A0000146184600E01946F6F796F900202468A3
:10A1B000AD1BB044AF4201D92E4600E03E46002D13
:10A1C000E6D1BDE8F09F0000545C010010B50446E4
:10A1D000FCF752FD014684EA010081EA306080EA22
:10A1E000344080EA342010BD70B5144600230D467B
:10A1F00006461A4603F076FD844201D9002070BD60
:10A2000022462946304603F091FD012070BD000032
:10A2100030B5024651B103F05BFD0021074C08E068
:10A2200034F821301568AB4202D11160002030BDF6
:10A23000491C8142F4D3052030BD0000700200208B
:10A2400010B50C460021E16061600349A160012165
:10A2500003F094FD206010BD7C17010070B5846888
:10A26000006804F11405FBF779F8C1B2A971E07F29
:10A270006A790844B0FBF2F302FB13035B1C2B70FA
:10A28000E07F0844B0FBF2F35B1CAB70A07F084496
:10A29000B0FBF2F35B1CEB70A07F0844B0FBF2F163
:10A2A00002FB1101491C6970284670BD10B531B11F
:10A2B000B2FBF3F403FB14241CB1092010BD0E20E3
:10A2C00010BD01600021416081608281C381084628
:10A2D00010BD70B50C460546F5F7C4FF002802D046
:10A2E00021882868084470BD10B50A8849888A42C8
:10A2F00003D1F5F7F9FF012010BD002010BD70B5A6
:10A300000C460546F5F7D3FF002802D0618828687F
:10A31000084470BD10B50A8849888A4203D1F5F710
:10A32000BDFF012010BD002010BD002100F00FB8BE
:10A33000002100F012B8012100F01EB8012100F048
:10A3400011B808B56A46F6F724F8009808BD08B5B4
:10A350006A46F6F704F8009808BD08B56A46F5F7AE
:10A36000FEFF08BD08B56A46F5F7ECFF08BD08B565
:10A370006A46F5F7DBFF08BD08B56A46F5F7E2FF68
:10A38000009808BD08B56A46F6F710F8009808BDB1
:10A3900070B5040003D11349FE20F8F713FF002520
:10A3A0002846F8F767FE206862680168914214D970
:10A3B000491E01600D781CB90A49C220F8F702FF56
:10A3C000208BE16805FB00152068217A0278891A44
:10A3D0000279C9B28A4200D201710020F8F75AFE10
:10A3E000284670BDCC58010070B50C46050004D15C
:10A3F000104940F22110F8F7E5FE24B90D494FF459
:10A400009170F8F7DFFE0020F8F734FE1DB9094916
:10A41000CF20F8F7D7FEE8682A68211A288BB1FB0D
:10A42000F0F11068431C13600170BDE8704000201B
:10A43000F8F730BECC58010010B5040002D02068F7
:10A4400030B901E00E2010BD1749D920F8F7BAFE47
:10A45000606818B91449DA20F8F7B4FEA06818B992
:10A460001149DB20F8F7AEFEE06818B90E49DC2090
:10A47000F8F7A8FE208B18B90B49DD20F8F7A2FEEB
:10A48000207A61682268401AC0B2116004E0226834
:10A4900011684B1C13600870401EC0B2F7D22168CF
:10A4A0000020087110BD0000CC5801002DE9F04FCC
:10A4B0008146806889B0D0F84801C0F3400038B1C7
:10A4C00009B04846BDE8F04F0022114601F04EBFEA
:10A4D000012907D909B04846BDE8F04F24A202215E
:10A4E00001F0E4BE27492848081A1C21B0FBF1F806
:10A4F000002538E02448C5EBC50110EB81044FF07E
:10A50000000AB4F818B0D4E90101A1EB000604D1A7
:10A510001E4940F21F10F8F755FE2068077924B94C
:10A520001A4940F22F10F8F74DFE2068217A007882
:10A53000081AC0B2642117FB01F1B1FBF6F26421E5
:10A5400010FB01F1B1FBF6F16369CDE90210CDE931
:10A550000462CDE90676CDE900BA0D4A08214846E5
:10A5600001F0A4FE6D1C4545C4D309B0BDE8F08FD1
:10A5700042616420617267756D656E7420636F75EA
:10A580006E740000546E01001C6E01001059010031
:10A590003C580100C20800F007030120895C984084
:10A5A000084070472DE9FF5F8B46164814499A46CC
:10A5B000091A0F09914652F8046C0025804607E0FD
:10A5C00008EB05143046A168F5F7C0FF18B16D1C03
:10A5D000BD42F5D30BE0210009D0009804B04B46F2
:10A5E0005A46D446BDE8F04F5DF804EB604700984A
:10A5F00004B03346BDE8F05F03A2022101F056BE6D
:10A600004C6D01002C6D0100496E76616C6964200F
:10A610006261636B656E643A2025730D0A00000069
:10A6200070B515468268D2F84841C4F3400424B19D
:10A630001A46294601F09AFE05E031B1536804A29A
:10A64000022101F033FE012070BD002070BD00002A
:10A6500025733A2077726F6E6720706172616D6545
:10A6600074657220636F756E740A0000F8B5154644
:10A670000E46040004D118A140F2B240F8F7A2FD42
:10A68000A06818B1606808B1206820B912A140F232
:10A69000B340F8F797FD032E08D92B6801B0204688
:10A6A000BDE8F04010A2022101F000BE012E03D04F
:10A6B000204601F0C7FF30B12046BDE8F840002237
:10A6C000114601F053BE686800900EA20221204698
:10A6D0002B6801F0EBFDF8BD2E2E5C2E2E5C2E2E8D
:10A6E0005C6D61696E2E630025733A20626164209F
:10A6F000706172616D6574657220636F756E740D43
:10A700000A00000025733A2061656164206D6F6462
:10A7100065206E6F7420737570706F727465643A23
:10A720002025730D0A0000002DE9F04F834663A039
:10A73000ADF23C4D00680790584601F083FF40B1F0
:10A7400000221146584601F011FE0DF23C4DBDE8C5
:10A75000F08F0020CDF81804CDF81C04CDF82004AB
:10A76000CDF82404CDF82804CDF82C04CDF830041D
:10A77000CDF834046421D4A8F5F7D6FE6421EDA801
:10A78000F5F7D2FE4FF4CC74214608A8F5F7CCFEBD
:10A7900021466EA8F5F7C8FE4948F5F7D0FE0546F4
:10A7A00048A20821584601F081FD4B480388802BC0
:10A7B00005D04A4A0221584601F078FDC5E7484EC7
:10A7C00048A20821584601F071FD4BA208215846C5
:10A7D00001F06CFD00240DF5856749A23B5D082161
:10A7E000584601F063FD641CE4B20D2CF5D341A280
:10A7F0000821584601F05AFD374A3146083208A868
:10A8000002F028F904003DD1334A314608326EA8DF
:10A8100002F020F9040035D110264FF004090DF1A3
:10A820001C0A0696CDE900A9254A0DF583670DF5AA
:10A830005478CDE90225CDE904870D230DF5856215
:10A84000012108A802F0C7F804001BD1EDA8CDF83B
:10A8500000A0CDE90350CDE90576CDE901980D239F
:10A860000DF5856200216EA802F0B5F8040009D14B
:10A8700008A802F00FF9040004D16EA802F00AF94A
:10A88000040009D002F0E0F9009023461EA2022144
:10A89000584601F00BFD58E7584604F091FFD4A943
:10A8A0005846FBF757FE10220DF583615846FDF719
:10A8B0000FF8EDA95846FBF79BFB46E7AABBCCDD9A
:10A8C00088070020414553206D6F64653A2043435B
:10A8D0004D207C200000000054000020F8480100BA
:10A8E00034100100414553206B65793A20313238EC
:10A8F000206269740D0A00004E6F6E63653A200095
:10A9000030782530327820000D0A4572726F72203F
:10A910003D20307825780D0A25730D0A00000000CF
:10A920002DE9F04FADF23C4D834661A061A3006874
:10A9300007900FCB0DF5856484E80F00584601F0B1
:10A9400081FE40B100221146584601F00FFD0DF284
:10A950003C4DBDE8F08F0020CDF81804CDF81C0464
:10A96000CDF82004CDF824046421D4A8F5F7DCFD4B
:10A970006421EDA8F5F7D8FD4FF4CC74214608A862
:10A98000F5F7D2FD21466EA8F5F7CEFD4D48F5F757
:10A99000D6FD05464CA20821584601F087FC5248D6
:10A9A0000388802B05D0514A0221584601F07EFCD5
:10A9B000CDE74F4E4FA20821584601F077FC52A236
:10A9C0000821584601F072FC00240DF5856750A25D
:10A9D0003B5D0821584601F069FC641CE4B20D2C73
:10A9E000F5D348A20821584601F060FC3E4A3146A2
:10A9F000083208A802F02EF804003DD13A4A314648
:10AA000008326EA802F026F8040035D110264FF067
:10AA100004090DF11C0A0696CDE900A9294A0DF595
:10AA200083670DF55478CDE90225CDE904870D2320
:10AA30000DF58562012108A801F0CDFF04001BD1AE
:10AA4000EDA8CDF800A0CDE90350CDE90576CDE91C
:10AA500001980D230DF5856200216EA801F0BBFF62
:10AA6000040009D108A802F015F8040004D16EA86A
:10AA700002F010F8040009D002F0E6F80090234636
:10AA800025A20221584601F011FC60E7584604F067
:10AA900097FED4A95846FBF75DFD10220DF58361A2
:10AAA0005846FCF715FFEDA95846FBF7A1FA4EE70B
:10AAB000AABBCCDD0102030405060708090A0B0C3A
:10AAC0000700000088070020414553206D6F646532
:10AAD0003A2043434D5F53544152202843434D2A6B
:10AAE00029207C200000000054000020F8480100CC
:10AAF00044100100414553206B65793A20313238CA
:10AB0000206269740D0A00004E6F6E63653A200082
:10AB100030782530327820000D0A4572726F72202D
:10AB20003D20307825780D0A25730D0A00000000BD
:10AB300070B50D46040004D122A140F63950F8F753
:10AB400041FBA06818B1606808B1206820B91DA158
:10AB500040F63A50F8F736FB022D0CD1A068D0F839
:10AB60004801C0F3400030B12046BDE870400022EB
:10AB7000114601F0FBBB40F642551CB911A1284615
:10AB8000F8F720FB206918B90EA12846F8F71AFB40
:10AB90001B4A1CA1206902F017FA40F643551CB964
:10ABA00008A12846F8F70EFB206918B905A1284628
:10ABB000F8F708FB2069BDE87040114A11A109327D
:10ABC00002F002BA2E2E5C2E2E5C2E2E5C2E2E5CF7
:10ABD0002E2E5C2E2E5C2E2E5C2E2E5C636F6D70E6
:10ABE0006F6E656E74735C6C6962726172696573B5
:10ABF0005C636C695C6E72665F636C692E630000F7
:10AC00009D1501002573000070B50D46040004D1A8
:10AC100013A140F64850F8F7D5FAA06818B160685B
:10AC200008B1206820B90EA140F64950F8F7CAFAD9
:10AC3000012D07D0022D0CD1A068D0F84801C0F337
:10AC4000400030B12046BDE870400022114601F0BE
:10AC50008DBB2046BDE8704010A2022101F026BB4A
:10AC60002E2E5C2E2E5C2E2E5C2E2E5C2E2E5C2E1E
:10AC70002E5C2E2E5C2E2E5C636F6D706F6E656E7B
:10AC800074735C6C69627261726965735C636C6930
:10AC90005C6E72665F636C692E630000506C656168
:10ACA00073652073706563696679206120737562CE
:10ACB000636F6D6D616E642E0A0000001CB5012982
:10ACC00005D002290BD014D94FF0010112E002B0D7
:10ACD0004FF00002BDE81040114601F047BB536839
:10ACE00008A1CDE9001313680CA2022101F0DEFADD
:10ACF0001CBD002102B00023BDE810401A46FFF73A
:10AD00008FBC000020756E6B6E6F776E2070617265
:10AD1000616D657465723A200000000025733A2564
:10AD20007325730A0000000010B50446012901D004
:10AD3000012100E0002100231A46FFF771FC0028E2
:10AD400009D1A168C1F83801E06840680068BDE831
:10AD5000104003F0C9BA10BD3EB50546012901D027
:10AD6000012100E0002100231A46FFF759FC0028CA
:10AD700018D1E86840680468204603F089FAC0B238
:10AD8000642110FB01F2A168B2FBF1F2D2B2009291
:10AD9000CDE90101A86804A20021D0F83831284685
:10ADA00001F084FA3EBD00004C6F7374206C6F6735
:10ADB000733A2025750A4D6178206C6F6720717594
:10ADC000657565207574696C697A6174696F6E3A2E
:10ADD0002025752525205B25752F25755D0A00002A
:10ADE0007CB515460E46040004D118A140F6695002
:10ADF000F8F7E8F9A06818B1606808B1206820B9D0
:10AE000012A140F66A50F8F7DDF9012E03D0022EA8
:10AE100009D0012108E002B02046BDE870400022C0
:10AE2000114601F0A3BA002100231A462046FFF77D
:10AE3000F7FB002809D1696813A0CDE9000118A229
:10AE4000022120462B6801F031FA7CBD2E2E5C2EAB
:10AE50002E5C2E2E5C2E2E5C2E2E5C2E2E5C2E2E2C
:10AE60005C2E2E5C636F6D706F6E656E74735C6CC0
:10AE700069627261726965735C636C695C6E72664B
:10AE80005F636C692E63000020756E6B6E6F776E6A
:10AE900020706172616D657465723A200000000077
:10AEA00025733A257325730A0000000010B5044687
:10AEB000012901D0012100E0002100231A46FFF7FB
:10AEC000AFFB002806D1A068D0F8481121F004019A
:10AED000C0F8481110BD10B50446012901D0012168
:10AEE00000E0002100231A46FFF79AFB002806D154
:10AEF000A068D0F8481141F00401C0F8481110BD15
:10AF0000F8B515460E46040004D118A140F2C94018
:10AF1000F8F758F9A06818B1606808B1206820B93E
:10AF200012A140F2CA40F8F74DF9032E08D92B6858
:10AF300001B02046BDE8F04010A2022101F0B6B9F0
:10AF4000012E03D0204601F07DFB30B12046BDE844
:10AF5000F8400022114601F009BA686800900EA27C
:10AF6000022120462B6801F0A1F9F8BD2E2E5C2E9F
:10AF70002E5C2E2E5C6D61696E2E630025733A2067
:10AF800062616420706172616D6574657220636FC7
:10AF9000756E740D0A00000025733A206372797093
:10AFA00074206D6F6465206E6F7420737570706FA0
:10AFB000727465643A2025730D0A00002DE9F04390
:10AFC000ADF5577D81460020D190D290D390D4909A
:10AFD000642152A8F5F7A8FA64216BA8F5F7A4FA42
:10AFE00032A20821484601F061F935480388802BD8
:10AFF00008D0344A0221484601F058F90DF5577D32
:10B00000BDE8F083DFF8C08030A20821484601F097
:10B010004DF90122414605A801F0BAFD04002ED1E8
:10B02000274905A8083101F0E5FD040027D1D1A981
:10B0300005A801F0C9FD040021D12948F5F77FFAE0
:10B0400005466426D5AF024652AB254905A80097B0
:10B05000D59601F073FD040011D16BA8D596CDE90A
:10B06000025052A9D1A8164BCDE90001049708332C
:10B070000022414684A801F01AFD040009D001F025
:10B08000E3FD0090234617A20221484601F00EF985
:10B09000B4E7484604F094FB52A94846FBF75AFA35
:10B0A0006BA94846FAF7A4FFA8E7000041455320E2
:10B0B0006D6F64653A20434243207C20000000000D
:10B0C00054000020F8480100800F01004145532042
:10B0D0006B65793A20313238206269740D0A0000BC
:10B0E000880700200D0A4572726F72203D2030786B
:10B0F00025780D0A25730D0A0000000070B5D8B040
:10B1000005462AA2082101F0D1F82E480388802B99
:10B1100006D02D4A0221284601F0C8F858B070BD6B
:10B120002A4C2BA20821284601F0C0F80222214611
:10B1300001A801F02DFD040024D1224901A8083105
:10B1400001F058FD04001DD10026539654965596E3
:10B1500053A901A8569601F037FD040012D12148E9
:10B16000F5F7EDF902461020CDE94E0650964EA8AF
:10B17000009051964FAB1B49529601A801F0DEFC9E
:10B18000040009D001F060FD0090234616A20221C0
:10B19000284601F08BF8C1E7284604F011FB4E98D1
:10B1A0004FA9C2B22846FCF793FBB7E741455320AD
:10B1B0006D6F64653A20434243204D4143207C201B
:10B1C0000000000054000020F8480100EC0F0100CE
:10B1D000414553206B65793A2031323820626974D9
:10B1E0000D0A0000880700200D0A4572726F722058
:10B1F0003D20307825780D0A25730D0A00000000E7
:10B200002DE9F043ADF5097D8146002084908590BD
:10B2100086908790642152A8F5F786F964216BA87F
:10B22000F5F782F939A20821484601F03FF83C4879
:10B230000388802B0DD0C02B0ED0B3F5807F19D0A2
:10B24000384A0221484601F031F80DF5097DBDE884
:10B25000F083354C35A201E0394C3AA2082148462A
:10B2600001F024F80122214605A801F091FC050017
:10B2700003D107E0384C39A2F0E701F0E5FC2B469A
:10B28000009031E0264905A8083101F0B3FC050023
:10B29000F3D184A905A801F097FC0500EDD134484D
:10B2A000F5F74DF98046642688AF024652AB304927
:10B2B00005A80097889601F041FC0500DDD152AA4F
:10B2C00084A888968DE805016BA9CDE90317144B76
:10B2D000002208332146104601F0E9FB040009D0A2
:10B2E00001F0B2FC2346009022A20221484600F061
:10B2F000DDFFAAE7484604F063FA52A94846FBF787
:10B3000029F96BA94846FAF773FE9EE74145532099
:10B310006D6F64653A20434642207C2000000000A7
:10B3200054000020F84801008410010041455320DA
:10B330006B65793A2020313238206269740D0A0039
:10B34000A8100100414553206B65793A202031391E
:10B3500032206269740D0A00CC100100414553206F
:10B360006B65793A2020323536206269740D0A0007
:10B37000880700200D0A4572726F72203D203078D8
:10B3800025780D0A25730D0A0000000030B5D3B0F2
:10B39000054625A2082100F089FF28480388802B54
:10B3A00006D0274A0221284600F080FF53B030BD66
:10B3B000244C25A20821284600F078FF02222146CD
:10B3C00001A801F0E5FB040019D11C4901A80831CE
:10B3D00001F010FC040012D14E904F90509051900B
:10B3E0001E48F5F7ACF802461020529052A8009083
:10B3F0004EAB1A4901A801F0A1FB040009D001F0ED
:10B4000023FC0090234616A20221284600F04EFF9E
:10B41000CCE7284604F0D4F952984EA9C2B2284687
:10B42000FCF756FAC2E70000414553206D6F646592
:10B430003A20434D4143207C20000000540000206E
:10B44000F848010010100100414553206B65793A1E
:10B4500020313238206269740D0A0000880700200C
:10B460000D0A4572726F72203D20307825780D0AE2
:10B4700025730D0A000000002DE9F041ADF5527D65
:10B4800005460020CD90CE90CF90D09064219BA80F
:10B49000F5F74AF86421B4A8F5F746F837A2082171
:10B4A000284600F003FF3A480388802B08D0394A29
:10B4B0000221284600F0FAFE0DF5527DBDE8F0812C
:10B4C000354E36A20821284600F0F0FE0122314612
:10B4D00001A801F05DFB04003AD1002231464EA8DC
:10B4E00001F056FB040033D1294901A8083101F0CD
:10B4F00081FB04002CD126494EA8083101F07AFBCB
:10B50000040025D1CDA901A801F05EFB04001FD1E4
:10B51000CDA94EA801F058FB040019D12448F5F735
:10B520000EF880466426D1AF02469BAB204901A8A5
:10B530000097D19601F002FB040009D1B4AB42465A
:10B540009BA94EA80097D19601F0F8FA040009D003
:10B5500001F07AFB0090234616A20221284600F053
:10B56000A5FEA9E7284604F02BF99BA92846FAF77F
:10B57000F1FFB4A92846FAF73BFD9DE7414553206A
:10B580006D6F64653A20435452207C200000000017
:10B5900054000020F8480100A40F01004145532049
:10B5A0006B65793A2020313238206269740D0A00C7
:10B5B000880700200D0A4572726F72203D20307896
:10B5C00025780D0A25730D0A000000002DE9F043CF
:10B5D000ADF5537D8146642152A8F4F7A5FF64219F
:10B5E0006BA8F4F7A1FF2FA20821484600F05EFEE9
:10B5F00031480388802B08D0304A0221484600F0A9
:10B6000055FE0DF5537DBDE8F083DFF8B4802DA223
:10B610000821484600F04AFE2F48F4F790FF0546FF
:10B6200052A8CDE902502C490020D1AF224BCDE9E0
:10B63000000164260497D19608330122414684A86C
:10B6400001F035FA040017D10022414605A801F0A7
:10B650009FFA040010D1184905A8083101F0CAFA70
:10B66000040009D16BAB2A4652A905A80097D196D0
:10B6700001F064FA040009D001F0E6FA00902346D4
:10B6800016A20221484600F011FEBAE7484604F02F
:10B6900097F852A94846FAF75DFF6BA94846FAF7B2
:10B6A000A7FCAEE7414553206D6F64653A204543E2
:10B6B00042207C200000000054000020F8480100D7
:10B6C000C80F0100414553206B65793A2020313283
:10B6D00038206269740D0A00880700200D0A45723F
:10B6E000726F72203D20307825780D0A25730D0A7F
:10B6F000000000002DE9F04F834669A0ADF23C4DFB
:10B7000000680790584600F09DFF40B100221146A6
:10B71000584600F02BFE0DF23C4DBDE8F08F0020A6
:10B72000CDF81804CDF81C04CDF82004CDF824047D
:10B73000CDF82804CDF82C04CDF83004CDF834042D
:10B740006421D4A8F4F7F0FE6421EDA8F4F7ECFE30
:10B750004FF4CC74214608A8F4F7E6FE21466EA803
:10B76000F4F7E2FE4F48F4F7EAFE05464EA2082140
:10B77000584600F09BFD51480388802B0AD0C02B0F
:10B780000BD0B3F5807F2ED04D4A0221584600F0F1
:10B790008DFDC0E74B4E4CA201E0504E50A2082157
:10B7A000584600F083FD53A20821584600F07EFD64
:10B7B00000240DF5856751A23B5D0821584600F035
:10B7C00075FD641CE4B20F2CF5D343A20821584642
:10B7D00000F06CFD394A3146083208A801F03AF908
:10B7E000040041D102E0474E47A2D8E7334A314630
:10B7F00008326EA801F02EF9040035D110264FF062
:10B8000004080DF11C0A0696CDE900A8254A0DF59D
:10B8100083670DF55479CDE90225CDE904970F230F
:10B820000DF58562012108A801F0D5F804001BD1AF
:10B83000EDA8CDF800A0CDE90350CDE905760F23A2
:10B840000DF5856200216EA8CDE9018901F0C3F8EC
:10B85000040009D108A801F01DF9040004D16EA864
:10B8600001F018F9040009D001F0EEF90090234628
:10B870002AA20221584600F019FD4CE7584603F071
:10B880009FFFD4A95846FAF765FE10220DF5836193
:10B890005846FCF71DF8EDA95846FAF7A9FB3AE718
:10B8A000AABBCCDD88070020414553206D6F64653D
:10B8B0003A20454158207C20000000005400002020
:10B8C000F848010054100100414553206B65793A56
:10B8D00020313238206269740D0A000064100100C2
:10B8E000414553206B65793A2031393220626974C1
:10B8F0000D0A00004E6F6E63653A200030782530E7
:10B900003278200074100100414553206B65793A6C
:10B9100020323536206269740D0A00000D0A457226
:10B92000726F72203D20307825780D0A25730D0A3C
:10B93000000000007CB514460D460646022901D9D8
:10B94000012100E0002100231A46FEF769FE0028CD
:10B9500011D1022D05D03046F9F7BCFA60B10BA326
:10B960000BE061680AA0CDE900010FA20221304678
:10B97000236800F09BFC7CBD0EA302B03046BDE8FE
:10B9800070400DA2002100F091BC00006F6E00001D
:10B9900020756E6B6E6F776E20706172616D65746D
:10B9A00065723A200000000025733A257325730A5A
:10B9B000000000006F6666004563686F2073746165
:10B9C0007475733A2025730A0000000010B5044610
:10B9D000012901D0012100E0002100231A46FEF7D1
:10B9E0001FFE002806D1A068D0F8481121F00801F8
:10B9F000C0F8481110BD10B50446012901D001213D
:10BA000000E0002100231A46FEF70AFE002806D1B6
:10BA1000A068D0F8481141F00801C0F8481110BDE5
:10BA200070B50D46040004D111A140F2F540F7F7BE
:10BA3000C9FBA06818B1606808B1206820B90CA1E2
:10BA400040F2F640F7F7BEFB012D03D0204600F090
:10BA5000F9FD30B12046BDE870400022114600F0EB
:10BA600085BC2046BDE8704005A2022100F01EBC46
:10BA70002E2E5C2E2E5C2E2E5C6D61696E2E630068
:10BA8000506C6561736520737065636966792063C6
:10BA90006F727265637420737562636F6D6D616E32
:10BAA000642E0D0A000000002DE9F04F834669A0C6
:10BAB000ADF23C4D00680790584600F0C3FD40B120
:10BAC00000221146584600F051FC0DF23C4DBDE8F5
:10BAD000F08F0020CDF81804CDF81C04CDF8200418
:10BAE000CDF82404CDF82804CDF82C04CDF830048A
:10BAF000CDF834046421D4A8F4F716FD6421EDA830
:10BB0000F4F712FD4FF4CC74214608A8F4F70CFDAD
:10BB100021466EA8F4F708FD4F48F4F710FD0546DE
:10BB20004EA20821584600F0C1FB51480388802BE3
:10BB30000AD0C02B0BD0B3F5807F2ED04D4A022106
:10BB4000584600F0B3FBC0E74B4E4CA201E0504E0C
:10BB500050A20821584600F0A9FB53A208215846DC
:10BB600000F0A4FB00240DF5856751A23B5D082180
:10BB7000584600F09BFB641CE4B20D2CF5D343A2A5
:10BB80000821584600F092FB394A3146083208A88D
:10BB900000F060FF040041D102E0474E47A2D8E721
:10BBA000334A314608326EA800F054FF040035D104
:10BBB00010264FF004080DF11C0A0696CDE900A8E6
:10BBC000254A0DF583670DF55479CDE90225CDE9B8
:10BBD00004970D230DF58562012108A800F0FBFEF6
:10BBE00004001BD1EDA8CDF800A0CDE90350CDE9AC
:10BBF00005760D230DF5856200216EA8CDE901893A
:10BC000000F0E9FE040009D108A800F043FF040099
:10BC100004D16EA800F03EFF040009D001F014F832
:10BC2000009023462AA20221584600F03FFB4CE731
:10BC3000584603F0C5FDD4A95846FAF78BFC1022EC
:10BC40000DF583615846FBF743FEEDA95846FAF718
:10BC5000CFF93AE7AABBCCDD880700204145532045
:10BC60006D6F64653A2047434D207C200000000042
:10BC700054000020F8480100F01001004145532015
:10BC80006B65793A20313238206269740D0A000000
:10BC900000110100414553206B65793A203139325A
:10BCA000206269740D0A00004E6F6E63653A2000D1
:10BCB00030782530327820001011010041455320A2
:10BCC0006B65793A20323536206269740D0A0000BE
:10BCD0000D0A4572726F72203D20307825780D0A6A
:10BCE00025730D0A000000007FB50D46040004D145
:10BCF00022A140F6A150F7F765FAA06818B1606874
:10BD000008B1206820B91DA140F6A250F7F75AFAF1
:10BD1000012D01D0012100E0002100231A46204618
:10BD2000FEF77EFC002827D1A0680026D0F84051FD
:10BD3000F5B101E0082E1BD20023092201A92846F3
:10BD400002F06EF99DF80C20A16809232846A03165
:10BD5000521C02F065F9A0683346A0300090029DA5
:10BD6000761C15A20021204600F0A0FA002DE1D19A
:10BD7000A168002081F8A0007FBD00002E2E5C2E5F
:10BD80002E5C2E2E5C2E2E5C2E2E5C2E2E5C2E2EED
:10BD90005C2E2E5C636F6D706F6E656E74735C6C81
:10BDA00069627261726965735C636C695C6E72660C
:10BDB0005F636C692E6300005B2533645D2025732F
:10BDC0000A00000070B516460D46040004D116A105
:10BDD00040F26540F7F7F6F9A06818B1606808B15D
:10BDE000206820B910A140F26640F7F7EBF9012D69
:10BDF00002D0022D04D00EE00F498020088070BDD3
:10BE0000204600F01FFC30B12046BDE87040002203
:10BE1000114600F0ABBA20463368BDE8704007A277
:10BE2000022100F043BA00002E2E5C2E2E5C2E2E36
:10BE30005C6D61696E2E63005400002025733A200A
:10BE400062616420706172616D6574657220636FF8
:10BE5000756E740D0A00000070B516460D4604009C
:10BE600004D116A140F27740F7F7ACF9A06818B1F9
:10BE7000606808B1206820B910A14FF48F60F7F70F
:10BE8000A1F9012D02D0022D04D00EE00F49C020EF
:10BE9000088070BD204600F0D5FB30B12046BDE8DB
:10BEA00070400022114600F061BA20463368BDE8B8
:10BEB000704007A2022100F0F9B900002E2E5C2E7E
:10BEC0002E5C2E2E5C6D61696E2E63005400002086
:10BED00025733A2062616420706172616D657465DA
:10BEE0007220636F756E740D0A00000070B51646FF
:10BEF0000D46040004D116A140F28940F7F762F91B
:10BF0000A06818B1606808B1206820B910A140F29B
:10BF10008A40F7F757F9012D02D0022D05D00FE026
:10BF20000F494FF48070088070BD204600F08AFBF6
:10BF300030B12046BDE870400022114600F016BA2C
:10BF400020463368BDE8704006A2022100F0AEB979
:10BF50002E2E5C2E2E5C2E2E5C6D61696E2E630083
:10BF60005400002025733A20626164207061726180
:10BF70006D6574657220636F756E740D0A00000044
:10BF8000F8B515460E46040004D118A140F29B40B6
:10BF9000F7F718F9A06818B1606808B1206820B9EF
:10BFA00012A140F29C40F7F70DF9022E08D92B6838
:10BFB00001B02046BDE8F04010A2022100F076B9A1
:10BFC000012E03D0204600F03DFB30B12046BDE8F5
:10BFD000F8400022114600F0C9B9686800900EA22E
:10BFE000022120462B6800F061F9F8BD2E2E5C2E50
:10BFF0002E5C2E2E5C6D61696E2E630025733A20D7
:10C0000062616420706172616D6574657220636F36
:10C01000756E740D0A00000025733A206B65792057
:10C0200073697A65206E6F7420636F7272656374D2
:10C030003A2025730D0A0000F8B515460E46040097
:10C0400004D118A140F2DF40F7F7BCF8A06818B19E
:10C05000606808B1206820B912A14FF49C60F7F71E
:10C06000B1F8032E08D92B6801B02046BDE8F04096
:10C0700010A2022100F01AB9012E03D0204600F0D0
:10C08000E1FA30B12046BDE8F8400022114600F048
:10C090006DB9686800900EA2022120462B6800F05E
:10C0A00005F9F8BD2E2E5C2E2E5C2E2E5C6D61697E
:10C0B0006E2E630025733A206261642070617261A4
:10C0C0006D6574657220636F756E740D0A000000F3
:10C0D00025733A204D4143206D6F6465206E6F7467
:10C0E00020737570706F727465643A2025730D0A41
:10C0F000000000007CB515460E46040004D120A1C6
:10C1000040F60260F7F75EF8A06818B1606808B101
:10C11000206820B91AA140F60360F7F753F8012E02
:10C1200003D0022E18D9012117E0A168204601F1A1
:10C130001802193104F0B0F900281FD0A16850206E
:10C140001EA24876A1681820087602B02046BDE8F5
:10C150007040042100F0AAB8002100231A462046AE
:10C16000FEF75EFA002809D1696823A0CDE9000135
:10C1700027A2022120462B6800F098F87CBD000021
:10C180002E2E5C2E2E5C2E2E5C2E2E5C2E2E5C2EE9
:10C190002E5C2E2E5C2E2E5C636F6D706F6E656E46
:10C1A00074735C6C69627261726965735C636C69FB
:10C1B0005C6E72665F636C692E6300004E6F207266
:10C1C0006573706F6E73652066726F6D207468653D
:10C1D000207465726D696E616C2C20617373756D6E
:10C1E00065642038307832342073637265656E2060
:10C1F00073697A650A00000020756E6B6E6F776E4A
:10C2000020706172616D657465723A2000000000F3
:10C2100025733A257325730A0000000070B50446A3
:10C22000012901D0012100E0002100231A46FEF778
:10C23000F7F9002817D140F6FB551CB90AA128468A
:10C24000F6F7C0FF206918B907A12846F6F7BAFF2C
:10C25000144A15A1206900F0B7FEA1685020487665
:10C26000A1681820087670BD2E2E5C2E2E5C2E2E16
:10C270005C2E2E5C2E2E5C2E2E5C2E2E5C2E2E5CCA
:10C28000636F6D706F6E656E74735C6C6962726102
:10C29000726965735C636C695C6E72665F636C691E
:10C2A0002E630000B6150100257300000FB4F8B529
:10C2B000044608980E4620B91DA140F63B30F6F71B
:10C2C00081FF24B91AA140F63C30F6F77BFFA06845
:10C2D00018B1606808B1206820B915A140F63D305A
:10C2E000F6F770FF09A80090A068D0F84811490738
:10C2F00018D5C17EB14215D0B0F81B50314620464A
:10C3000004F070FC6A462069089900F0CDFEE9B29D
:10C31000204604F067FC290A204604F045FCF8BCDE
:10C320005DF814FB6A462069089900F0BDFEF6E747
:10C330002E2E5C2E2E5C2E2E5C2E2E5C2E2E5C2E37
:10C340002E5C2E2E5C2E2E5C636F6D706F6E656E94
:10C3500074735C6C69627261726965735C636C6949
:10C360005C6E72665F636C692E6300002DE9F04FAE
:10C3700089B090460D46040004D18EA140F6BC3031
:10C38000F6F720FFA06818B1606808B1206820B9EE
:10C3900088A140F6BD30F6F715FF9548F8F7DEFFA7
:10C3A000064693483638F8F7D9FF301A1FFA80F955
:10C3B0008F4890A223380090A06808214368204647
:10C3C000FFF774FFA0684068F8F7C8FF0646884882
:10C3D0002338F8F7C3FF304482B2A0680023816895
:10C3E0002046FAF795F985A200212046FFF75EFF67
:10C3F000B8F1000F21D005B300261CE006EB460A79
:10C4000005EB8A0BDBF80400F8F7A8FF074655F8A0
:10C410002A00F8F7A3FF391849450BD9DBF80400C7
:10C42000F8F79CFF074655F82A00F8F797FF3844BD
:10C430001FFA80F9761C4645E0D36D483638F8F788
:10C440008DFF4844801C1FFA80F9694800904B46D4
:10C450006DA208212046FFF729FF09F1030087B2EA
:10C46000079000233A466AA12046FAF751F9002DB9
:10C4700051D000264DE000BF06EB460A05EB8A0BC3
:10C4800055F82A00DBF8043063B348B3584965A275
:10C490003639CDE9001008212046FFF707FF09F1E2
:10C4A00002000090DBF80400F8F758FF074655F843
:10C4B0002A00F8F753FF07444D483638F8F74EFF87
:10C4C00039180098401A801EC1B22046F9F778FD4D
:10C4D0003A225749206900F077FD0098401C0AE095
:10C4E000009301E040B100904B4647A2082120464E
:10C4F000FFF7DCFE079887B2DBF8081029B10023AC
:10C500003A462046FAF704F902E02046F9F78AFC99
:10C51000761C4645B0D3A068C068002847D0814645
:10C5200000200646054603AF02902A466D1C02AB6A
:10C53000012148460097F9F787FA029850B1006840
:10C54000F8F70CFFB042F0D902980068F8F706FF40
:10C5500086B2EAE7012D2AD036A200212046FFF755
:10C56000A5FE0025B8462A466D1C02AB01214846AF
:10C57000CDF80080F9F768FA0298002817D0B11CAE
:10C580008FB2006800903B461FA208212046FFF7AB
:10C590008DFE0298FF1CBAB2416821B100232046EB
:10C5A000FAF7B6F8DFE72046F9F73CFCDBE709B01D
:10C5B000BDE8F08F2E2E5C2E2E5C2E2E5C2E2E5C77
:10C5C0002E2E5C2E2E5C2E2E5C2E2E5C636F6D70DC
:10C5D0006F6E656E74735C6C6962726172696573AB
:10C5E0005C636C695C6E72665F636C692E630000ED
:10C5F000BC15010025732573000000004F7074699D
:10C600006F6E733A0A0000002020252D2A733A002D
:10C6100053686F7720636F6D6D616E642068656C21
:10C62000702E000020202573257325730000000064
:10C63000684B0000537562636F6D6D616E64733A91
:10C640000A0000008068D0F84801C0F3400070473D
:10C650008068D0F84801C0F3400070472DE9F041F0
:10C660001E46DDF8188015460F46040004D10EA1C1
:10C6700040F67E20F6F7A6FD2A463946204600F011
:10C6800031F805000DD166B14146E06800F0E6FFE3
:10C69000002802DA0420BDE8F081E0680121C068CA
:10C6A00041712846F7E700002E2E5C2E2E5C2E2EC0
:10C6B0005C2E2E5C2E2E5C2E2E5C2E2E5C2E2E5C86
:10C6C000636F6D706F6E656E74735C6C69627261BE
:10C6D000726965735C636C695C6E72665F636C69DA
:10C6E0002E6300002DE9F04715460E46040004D1E4
:10C6F0003EA140F62120F6F765FDA06818B16068FC
:10C7000008B1206820B939A140F62220F6F75AFD79
:10C71000E0682346444A40688460606801680F68A6
:10C720003146B84700285ED1606920B92FA140F694
:10C730003120F6F747FD606901F061FC002852D115
:10C74000A168C1F83C01A168C1F840014FF4A6718D
:10C75000A068F3F7E9FEA068D0F8481141F0200185
:10C76000C0F84811A068D0F8481165F38201C0F8FC
:10C770004811A068D0F8481141F00801C0F84811EC
:10C78000A1680120294F0870A168502040F64D296A
:10C790004876A1681820002408762548254940F6E7
:10C7A0004E2A0D1A804612E018EBC40603D10FA1E1
:10C7B0004846F6F707FD7068006818B90BA15046A7
:10C7C000F6F700FD7068006847F82400641CB4EBBD
:10C7D000D50FE9D3072D05D9E908174B04223846B0
:10C7E000F3F72CFE0020BDE8F08700002E2E5C2E13
:10C7F0002E5C2E2E5C2E2E5C2E2E5C2E2E5C2E2E73
:10C800005C2E2E5C636F6D706F6E656E74735C6C06
:10C8100069627261726965735C636C695C6E726691
:10C820005F636C692E630000815600005002002097
:10C83000DC6C01001C6D0100350301000023F9F7D9
:10C840000FB8000010B5040004D122A140F6053055
:10C85000F6F7B8FCA06818B1606808B1206820B984
:10C860001CA140F60630F6F7ADFCA068102100F5DB
:10C87000A470FDF781FDA0680078F8B101281DD0F3
:10C8800002281BD12046F8F71BFC00212046F8F7B0
:10C8900027FB98B11EA2032120462368FFF706FD5F
:10C8A0002046F8F717FB48B1A36819A208212046D3
:10C8B0002033FFF7FBFC2046F9F74CFB206900F022
:10C8C000C5FBA068BDE810406FF0100100F5A47032
:10C8D000FDF73DBD2E2E5C2E2E5C2E2E5C2E2E5C8A
:10C8E0002E2E5C2E2E5C2E2E5C2E2E5C636F6D70B9
:10C8F0006F6E656E74735C6C696272617269657388
:10C900005C636C695C6E72665F636C692E630000C9
:10C910002573000070B5040004D117A140F6D4209F
:10C92000F6F750FCA06818B1606808B1206820B91B
:10C9300011A140F6D520F6F745FCA0680078012843
:10C9400001D0082070BD606801688A6800219047A6
:10C9500005000FD10821204604F044F901212046AA
:10C9600004F022F913A1206900F02EFB02212046D9
:10C97000F8F7E0FC284670BD2E2E5C2E2E5C2E2E85
:10C980005C2E2E5C2E2E5C2E2E5C2E2E5C2E2E5CB3
:10C99000636F6D706F6E656E74735C6C69627261EB
:10C9A000726965735C636C695C6E72665F636C6907
:10C9B0002E6300000A0A000000F180400068002891
:10C9C00000D00120704708B500F1804000210160CF
:10C9D0000068009008BD2DE9FF4F87B00446DDE9EF
:10C9E0001758DDE91976DDE915A9DDF850B0F9F73A
:10C9F00063F900281AD1099948F2105011B90A991F
:10CA0000002913D10FB9002E10D1BBF1000F02D1B4
:10CA1000BAF1000F0AD1B9F1000F01D1002D05D1F3
:10CA2000B8F1000F05D125B148F213500BB0BDE8A5
:10CA3000F08FCDF800B0CDE90358CDE90576CDE90A
:10CA400001A960680DF1200C9CE80E00C568204625
:10CA5000A847EBE770B5044616460D0048F21050A3
:10CA600014D0002E12D02046F9F726F918B1A0F5FF
:10CA7000054102390AD10649C4E900156A68204611
:10CA800031469047002801D00021216070BD000090
:10CA90004145414410B50446F9F70EF9002805D187
:10CAA00060688168204688470021216010BD2DE91B
:10CAB000F84F9846DDE90DB7DDF828A091460E0045
:10CAC0004FF00004054601D025B109E048F21050AE
:10CAD000BDE8F88F706801F0CEF904000CD005466F
:10CAE0004A46314600F054F8060008D014B12046FA
:10CAF00000F008FC3046EBE748F21550E8E7414605
:10CB0000284600F077F80600F0D15146284600F09C
:10CB10005BF80646A0F50540033801D0002EE5D1AC
:10CB20000097DDE90B125B46284600F007F8060087
:10CB3000DCD0284600F070F8D8E700002DE9F84373
:10CB40001E4690460F460446089DF9F7C5F8002892
:10CB500017D1C7B148F21350002E12D0002D10D0BB
:10CB60000095606833464246056A39462046A84724
:10CB7000002806D1204600F04FF8002801D10349D3
:10CB80002160BDE8F88348F21050FAE7534541634D
:10CB900070B516460D460446F9F79EF818B1A0F593
:10CBA0000541023909D14DB16560AA682046314678
:10CBB0009047002801D10349216070BD48F2105010
:10CBC00070BD00006341455370B50D460446F9F74A
:10CBD00083F800280AD1606842692AB13DB129462C
:10CBE0002046BDE87040104748F2035070BD48F23F
:10CBF000105070BD70B50D460446F9F76DF8002869
:10CC000009D135B16068294602692046BDE8704007
:10CC1000104748F2105070BD10B50446F9F75CF8A3
:10CC2000A0F50541023908D0002805D16068C16827
:10CC3000204688470021216010BD024A21689142A8
:10CC4000F4D010BD5345416350B1094A002100BFE3
:10CC500052F83130834205D102EBC1004068704781
:10CC600004A07047491C1929F2D305A070470000A1
:10CC7000B80E01004E6F206572726F7200000000E6
:10CC80004572726F72206E6F742072656C6174658C
:10CC90006420746F206E72665F63727970746F20A7
:10CCA0006C696272617279002DE9F0410B480C4D9C
:10CCB0000C4F401BC60801203870002406E000BF5E
:10CCC00055F834008047002805D1641CB442F7D3DE
:10CCD000022038700020BDE8F08100002C6D0100BA
:10CCE0001C6D01008C00002005480178022904D049
:10CCF0000078012801D00020704701207047000013
:10CD00008C00002070B50D46044600680A49884230
:10CD100001D1002070BDF6F7BFFF50B12946201D9C
:10CD2000F3F764FF03F050F80446F6F7F3FF2046EC
:10CD300070BD48F2045070BD6169614D2DE9F0414C
:10CD40000F46064601F0E8FD80B11948408848B119
:10CD500018481949401AC008012101EB004017A1E9
:10CD600000F0DAFE48F21950BDE8F081FFF7BCFF91
:10CD700040B1194C194D606838B1A068A84204D17F
:10CD80000020F1E74FF40540EEE748F21750002E7F
:10CD9000EAD1002FE8D11248606000F1E801FFF706
:10CDA000B1FF0028E0D1A56062680E491160DBE7A1
:10CDB000D4020020146E01004C6D010053746163B5
:10CDC0006B206F766572666C6F772064657465633F
:10CDD0007465642E00000000900000206572E54B31
:10CDE000EC0700206169614D70B50C4C012520787D
:10CDF00008B185260BE00020A06060602061E06043
:10CE0000074801F013FE064601F0DAFD257001F037
:10CE1000CFFD00B1A570304670BD0000B4200020E9
:10CE20005559000070B5174C0546207818B916A161
:10CE3000D020F6F7C7F9A07838B115B1696801209C
:10CE400088470020F6F716F90CE00020F6F712F9F3
:10CE500025B10C4829461030FAF746FAE06808B9BF
:10CE600001F046FEE068401CE0600020F6F712F991
:10CE7000E068002805D1BDE8704003A1EC20F6F77A
:10CE8000A1B970BDB42000202E2E5C2E2E5C2E2E5B
:10CE90005C2E2E5C2E2E5C2E2E5C2E2E5C2E2E5C9E
:10CEA000696E746567726174696F6E5C6E726678C4
:10CEB0005C6C65676163795C6E72665F6472765FF5
:10CEC000636C6F636B2E63002DE9F04105460478B7
:10CED0001C4888B00F4640F82420086919491646B6
:10CEE0000831012C41F8240005D1787F18B916A12A
:10CEF0005020F6F767F9DFF84C80797FA8F1040835
:10CF0000202208F8041039466846F3F7E5FA04943D
:10CF1000297818F8010050B10EB11B4A00E0002238
:10CF20006946281D02F068F908B0BDE8F0810EB12D
:10CF3000164A00E00022694605F10C0001F048FFA6
:10CF4000F2E70000A40000202E2E5C2E2E5C2E2E78
:10CF50005C2E2E5C2E2E5C2E2E5C2E2E5C2E2E5CDD
:10CF6000696E746567726174696F6E5C6E72667803
:10CF70005C6C65676163795C6E72665F6472765F34
:10CF8000756172742E630000B1090100F1070100A0
:10CF900030B40378054CE35C1BB130BC001D02F0DB
:10CFA0005FBA30BC0C3002F029B80000A0000020AD
:10CFB0000178044A515C11B1001D02F0F3BA0C3043
:10CFC00002F0B2B8A00000200FB438B5040003D1BD
:10CFD00010A11C20F6F7F6F8606918B90DA11D2004
:10CFE000F6F7F0F8206818B90AA11E20F6F7EAF85B
:10CFF000606818B907A11F20F6F7E4F80599002921
:10D0000005D006A800906A46204600F04DF838BCCE
:10D010005DF814FB2E2E5C2E2E5C2E2E5C2E2E5CCC
:10D020002E2E5C2E2E5C2E2E5C2E2E5C657874656A
:10D03000726E616C5C667072696E74665C6E72664C
:10D040005F667072696E74662E63000010B504002E
:10D0500003D107A10B20F6F7B5F8A268002A05D086
:10D06000D4E90403216898470020A06010BD0000A7
:10D070002E2E5C2E2E5C2E2E5C2E2E5C2E2E5C2EEA
:10D080002E5C2E2E5C2E2E5C65787465726E616C43
:10D090005C667072696E74665C6E72665F667072F2
:10D0A000696E74662E6300002DE9FC4791460C46BC
:10D0B0005FEA000804D183A140F25220F6F782F81B
:10D0C000D8F8140020B97FA14FF41570F6F77AF85C
:10D0D000D8F8000020B97BA140F25520F6F772F88D
:10D0E000D8F8040020B977A140F25620F6F76AF884
:10D0F000002C76D014F8011B39B125290ED04046FA
:10D10000F6F708FD20780028F4D198F80C000028E4
:10D1100067D04046BDE8FC47FFF798BF00200122DA
:10D1200021782B291BD02D2902D0302908D102E0EB
:10D1300040F0010001E040F00200641C002AEFD141
:10D1400000252A290ED02178A1F130020A2A11D215
:10D1500005EB850201EB4205641C303DF1E740F030
:10D160000400EAE7D9F800100B1DC9F8003009687F
:10D17000641C0D44217800232E290BD114F8011FC3
:10D18000A1F130020A2A05D203EB830201EB42032C
:10D19000303BF3E76C290DD068290BD0692921D0E9
:10D1A0000BDC252918D0582931D063290ED06429E9
:10D1B00015D117E014F8011FECE7702969D0732925
:10D1C00032D075291BD0782909D120E0D9F8000088
:10D1D000011DC9F8001001784046F6F79BFC641C5D
:10D1E00090E76CE0D9F800100A1DC9F80020096822
:10D1F000CDE900500A224046F9F7AAFEEFE7D9F838
:10D2000000100A1DC9F8002009680A2206E0D9F8B2
:10D2100000100A1DC9F8002009681022CDE900504D
:10D22000404603F067FCDAE7D9F8001000270A1D32
:10D23000C9F800200E68C00705D112E04046761CF0
:10D240007F1CF6F767FC31780029F7D104E0202134
:10D2500040466D1EF6F75EFCBD42C0D9002DF6D1EA
:10D26000BDE74EB13046F3F76AF9074604E02021E6
:10D2700040466D1EF6F74EFCBD4206D9002DF6D194
:10D2800003E04046761CF6F745FC31780029F8D1DA
:10D29000A5E7D9F80000011DC9F800100568302184
:10D2A0004046F6F737FC78214046F6F733FC082075
:10D2B0000021CDE90001034610222946B0E7BDE870
:10D2C000FC8700002E2E5C2E2E5C2E2E5C2E2E5CFB
:10D2D0002E2E5C2E2E5C2E2E5C2E2E5C65787465B8
:10D2E000726E616C5C667072696E74665C6E72669A
:10D2F0005F667072696E74665F666F726D61742EC0
:10D30000630000002DE9F04106460C480078002833
:10D3100012D0002E10D00025094F2C467819B042AB
:10D32000204603D1BDE8F041F6F79EBBF9F7BAFB02
:10D33000641C05441C2CF1D3BDE8F0819001002051
:10D340004C2200202DE9FF411C46DDE90A781546F4
:10D350000E46684600F0C2F846EA450141EA8401FB
:10D3600041EA072242EA0841009A00EB8200C0F835
:10D370000017BDE8FF812DE9FF411C46DDE90A7871
:10D3800015460E46684600F0EBF846EA450141EACC
:10D39000840141EA072242EA0841009A00EB820038
:10D3A000C0F80017BDE8FF811CB5002100910B46B5
:10D3B00001220191FFF7C6FF1CBD1CB500210091A1
:10D3C0000B4601220191FFF7D6FF1CBD1CB50022C0
:10D3D0000B46009211460192FFF7B4FF1CBD1CB52D
:10D3E00000220B46009211460192FFF7C4FF1CBDBC
:10D3F0001CB5002100910B46012201911146FFF757
:10D40000A1FF1CBD1CB5002100910B46012201911A
:10D410001146FFF7B0FF1CBD13B50C46684600F07F
:10D420002BF8009900EB8101D1F8002722F440325B
:10D43000C1F80027009900EB8100D0F8001741EAFD
:10D440000441C0F800171CBD3CB50A4CD4E90034B7
:10D45000CDE900346B46441808E000BF53F82010B3
:10D46000D1F8205520C2C1F82055401C8442F5D87F
:10D470003CBD00002011010010B50446006800F01A
:10D48000B1F820B907A14FF4E370F5F79BFE2068CF
:10D49000202802D24FF0A04010BD00F01F002060F5
:10D4A0000D4810BD2E2E5C2E2E5C2E2E5C2E2E5C7A
:10D4B0002E2E5C2E2E5C2E2E5C2E2E5C6D6F6475D7
:10D4C0006C65735C6E7266785C68616C2F6E7266F8
:10D4D0005F6770696F2E68000003005010B5016827
:10D4E00004464A094FF0000002D0012A05D102E0AB
:10D4F0004FF0FF3001E04FF6FF7001F01F020121F5
:10D500009140014204D108A14FF4E370F5F75AFEAF
:10D510002068202802D24FF0A04010BD00F01F006C
:10D5200020600E4810BD00002E2E5C2E2E5C2E2E8C
:10D530005C2E2E5C2E2E5C2E2E5C2E2E5C2E2E5CF7
:10D540006D6F64756C65735C6E7266785C68616C37
:10D550002F6E72665F6770696F2E6800000300505F
:10D5600010B5016804464A094FF0000002D0012AB4
:10D5700005D102E04FF0FF3001E04FF6FF7001F0FF
:10D580001F0201219140014204D108A14FF4E37030
:10D59000F5F718FE2068202802D24FF0A04010BDF9
:10D5A00000F01F0020600E4810BD00002E2E5C2EE3
:10D5B0002E5C2E2E5C2E2E5C2E2E5C2E2E5C2E2EA5
:10D5C0005C2E2E5C6D6F64756C65735C6E72667834
:10D5D0005C68616C2F6E72665F6770696F2E6800A1
:10D5E0000003005042094FF0000102D0012A05D18A
:10D5F00002E04FF0FF3101E04FF6FF7100F01F0035
:10D60000012282400A4201D0012070470020704769
:10D6100001B56846FFF762FF009A01219140C0F80A
:10D62000081508BD01B56846FFF79AFF009A012169
:10D630009140C0F8081508BD034908B50844002109
:10D6400001600068009008BD006000400249405839
:10D65000012800D000207047006000402DE9F04113
:10D66000054620480E460024D0F8103419460AE03A
:10D67000CA681179A14205D1641C0A2CF6DB4FF06F
:10D68000FF342BE011680029F2D1611C26D0E96833
:10D690000C71D0F8101459B1C968EA6809681160B2
:10D6A000D0F81004C06805600027DFF83C8011E066
:10D6B000C0F81054E96800200860F5E708EBC700DF
:10D6C000C279B24200D33246E8683946007900F0A8
:10D6D0002DFB7F1C00F0FCFAB842EFD82046BDE8D5
:10D6E000F0810000E43C00204C6D01004068012105
:10D6F0008068F7F7F5BB10B540688468606801681A
:10D700008A680121904718B10420A168087010BDF3
:10D710000320FAE72DE9F3414468A668B068007871
:10D7200004281ED0032807D0002501A9206800F096
:10D7300019FE85F0010709E00125F6E73946304674
:10D74000F7F7CEFB01A9206800F00CFE0028F5D108
:10D75000019800F050FC002D03D000213046F7F76F
:10D76000BFFBBDE8FC81F0B595B01C4615460F46E1
:10D7700008461A9E00F03FFC182109A8F2F7D4FED3
:10D780000E96CDE909540023082203A9384600F07B
:10D7900047FC05980690BDF81000ADF81C00BDF8D8
:10D7A0001200ADF81E0000208DF821000398082615
:10D7B00000F00300012802D0022818D032E00398BC
:10D7C0003346850AC0F3C2008DF8200003980FA9E4
:10D7D000C0F38314A200384600F022FC09A8009090
:10D7E00006AB22460FA9284600F0EAFA1AE0039891
:10D7F000840DC0F3C2008DF82000082C01D225460C
:10D8000000E0082533462A460FA9384600F008FCF8
:10D810002E44641B09AB06AA29460FA800F0B0F9F4
:10D82000002CEAD1384600F0ECFB15B0F0BD704793
:10D83000084810B50178084A515C19B1001D01F083
:10D84000B1FE02E00C3001F06FFCBDE8104000209A
:10D8500002F0ECBFA0010020A000002008B5034AA0
:10D8600000924023024AFFF77EFF08BD99010100A4
:10D870004C3B00200A4A012902EBC00007D00229D4
:10D8800007D0032907D0042907D0002070470220C1
:10D890007047042070470079704740797047000056
:10D8A0004C6D01002DE9FF5FF6F74CF918B100202F
:10D8B00004B0BDE8F09F8C4C0020C4F81804BFF3FE
:10D8C0004F8F8A49A06800900D684FF000092840EA
:10D8D00004EB80000CE000BFD4F8180470B9616854
:10D8E0000098814201D8A160E1E7284004EB800064
:10D8F0000C306946F9F7D6FC0028EDD1002001A9CB
:10D90000A046009A02EA050308EB8303521CDB6879
:10D9100041F82030401C00920228F2D3019800F018
:10D920000300022802D0012850D0BEE00198502206
:10D93000810D8A46B2EB905F00D850210C4664F30B
:10D940009F50C0F3C20701900831694800F00AFBFC
:10D950000600EAD000F04FFB4B46082201A93046F2
:10D9600000F070FB009909F1080B2940681A80004B
:10D97000001D844223D95C4D0C3530B1C2B208EB96
:10D980008101201A91460C3104E02946E2B20025BB
:10D9900091462846C4B25B46304600F053FB0BEB81
:10D9A00009032DB1224629464FEA060000F04AFB42
:10D9B00000990AF1030001EB900000903DE008EBB4
:10D9C00081015B46224630460C31EFE70198C0F3F7
:10D9D0008310062800D30620019960F38911C1F352
:10D9E0008310C1F3C207801C01918100404800F000
:10D9F000B9FA060059D000F0FEFA4B46082201A9F8
:10DA0000304600F01FFB09F1080900240FE00098E0
:10DA10004B4600EA0501401C08EB810100900422FE
:10DA200030460C3100F00EFB09F10409641C01982A
:10DA3000C0F38310A042EAD8B6B3D8F81044D8F89F
:10DA400018044546F8B1304600F0DBFA46E0E068DD
:10DA50004179012915D10179BDF80800254A01EB6A
:10DA6000410152F8200007228A401040C840052F8B
:10DA700000D10327B84204D32268204631461268F9
:10DA80009047E0680468002CE1D1304600F0B9FA14
:10DA90000020F5F7EFFAD5F8180408B90098A86047
:10DAA0000020F5F7F7FA19E0FFE7D8F8104405E091
:10DAB0002168204689688847E0680468002CF7D10F
:10DAC0000D484088022809D30C480D49401AC00867
:10DAD000022101EB00400BA100F01EF8F6F732F82E
:10DAE00080F00100E4E60000E43C0020BC010020DE
:10DAF000386E0100D8020020D4020020146E01000C
:10DB00004C6D01004261636B656E647320666C75D9
:10DB1000736865640000000000231A4602F0B4BB7D
:10DB200008B5012300926A4602F0AEFB08BD1CB5A1
:10DB3000CDE9002302236A4602F0A6FB1CBD3EB5D8
:10DB4000069C8DE81C0003236A4602F09DFB3EBD47
:10DB50007FB5DDE908458DE83C0004236A4602F004
:10DB600093FB7FBD70B586B00DF1280C9CE870006A
:10DB70008DE87C0005236A4602F086FB06B070BD86
:10DB80002DE9F0470E4680461C469246082940D8AB
:10DB900094F80C90002020731946104601F0F0FF15
:10DBA0000025B54206D218F805201BA12046FFF734
:10DBB0000BFA03E01AA12046FFF706FA6D1C082DA8
:10DBC000EFD318A12046FFF7FFF90025B54212D286
:10DBD00018F805707E2F08D8F2F72CFC0068C05D9D
:10DBE00010F03E0F01D03A4600E02E220EA1204652
:10DBF000FFF7EAF903E00DA12046FFF7E5F96D1CF8
:10DC0000082DE3D301222146504601F09BFF84F802
:10DC10000C90BDE8F087000020253032780000002D
:10DC2000202020007C000000256300002000000070
:10DC30002DE9F0471F494FF000081F4881F8008088
:10DC400000F0DDF9002832D11C4800F0E1FD1C494C
:10DC5000DFF87090DFF870A0A1EB0900C60800247F
:10DC600014E000273D460CE0AC4209D059F83400DE
:10DC700059F835101422F2F780FC002800DD7F1CD3
:10DC80006D1CB542F0D32AF82470641CB442E8D36A
:10DC90000020414654460D4D06E000BF04EB8002D3
:10DCA000518045F82010401CB042F7D30020BDE859
:10DCB000F0870000E43C0020386E01008C17010062
:10DCC0001C6E01004C6D010070020020D802002083
:10DCD00002480349401AC008704700001C6E01004A
:10DCE0004C6D01007FB505461146002401A873B1B3
:10DCF000FCF78EFA98B90B480199072250F82100D9
:10DD000005EB45018A401040C840C4B207E0FCF76B
:10DD10007FFA20B90448019900EBC100847904B06E
:10DD2000204670BDD80200204C6D010070B5114B2B
:10DD300000EB400003EB81040F4B02F0070203EB02
:10DD40008101072303FA00F60D688240B5432A4398
:10DD500000200A604FEA000103FA01F51540CD40AA
:10DD6000ADB2854200D92846C91C0A29F4D3608087
:10DD700070BD000070020020D802002013B5684674
:10DD8000FCF746FA08B100201CBD0248009950F883
:10DD900031001CBD4C6D010070B508480125D0F85C
:10DDA0001044057007E0E068457121682046496825
:10DDB0008847E0680468002CF5D170BDE43C002081
:10DDC0002DE9FF4781460C9D00200C462F7B2873D0
:10DDD000984616462946184601F0D2FE072E42D232
:10DDE000DFE806F004090F161F2A360049462846C8
:10DDF000FFF7EAF837E0494628462268FFF7E4F8DB
:10DE000031E0D4E9002349462846FFF7DDF82AE04F
:10DE1000A0680090D4E9002349462846FFF7D4F8CB
:10DE200021E0D4E90201CDE90001D4E9002349460B
:10DE30002846FFF7C9F816E004F1080007C88DE886
:10DE40000700D4E9002349462846FFF7BDF80AE059
:10DE500004F108000FC88DE80F00D4E900234946FB
:10DE60002846FFF7B1F800222946404601F06AFE35
:10DE70002F73BDE8FF871CB50024CDE9004001A940
:10DE8000684600F015F800B1009400981CBD000031
:10DE900010B500242046F5F7E7FD641C1C2CF9D3CF
:10DEA000024901200870002010BD000090010020F0
:10DEB0002DE9F047804628480E46007878B148F2B0
:10DEC0000E10B8F1000F08D0002E06D0306810B147
:10DED000B0F5006F06D948F20710BDE8F08748F2A8
:10DEE0000810FAE71C21F8F7BFFD1C49DFF868901D
:10DEF00048F2041751F82040383109F1040951F86B
:10DF0000205025E02046F8F7CDFD01466009424249
:10DF100059F8200004EB4212D0404B4610F0010F9C
:10DF200014D06009424204EB421253F820404FF0F3
:10DF3000010C0CFA02FC24EA0C0449F820400848C1
:10DF400000274219C8F80020316003E00D44641C2A
:10DF50001C2CD7D33846C0E7900100208413010061
:10DF60004C2200202DE9F041058B80462D1F4819D9
:10DF7000C01CB0FBF5F0C6B24046FCF709FA041E1F
:10DF800019D00020207101206071E580002725460E
:10DF9000761EC4F800800BE04046FCF7F9F960B14A
:10DFA0006179491C6171286005467F1CC0F80080BA
:10DFB000B742F1D32046BDE8F081204600F002F8D8
:10DFC0000020F8E72DE9F041457901466B1E00225B
:10DFD00001E00968521C9A42FBD30F6801460026F3
:10DFE00005E038460C68FCF7FFF92146761CAE4286
:10DFF000F7D3BDE8F0810121001DFCF7A2B9FCF7C1
:10E000001BBA10B504460121001DFCF7BBF910F046
:10E01000FF0F04D12046BDE81040FFF7D3BF10BD6D
:10E020001CB514460122CDE9002401AAFCF77AF8B8
:10E030000198A04203D00249DA20F5F7C3F81CBDCD
:10E04000545C01001CB514460022CDE9002401AA4D
:10E05000FCF768F80198A04203D00249D020F5F7F8
:10E06000B1F81CBD545C010008B500F180400146C8
:10E070000068002220B101200A600968009108BDF3
:10E08000104608BD7047000010B5040004D105A17A
:10E0900040F20D20F5F796F8204600F057FAA168F7
:10E0A000081A10BD2E2E5C2E2E5C2E2E5C2E2E5CA1
:10E0B0002E2E5C2E2E5C2E2E5C2E2E5C636F6D70D1
:10E0C0006F6E656E74735C6C6962726172696573A0
:10E0D0005C71756575655C6E72665F717565756599
:10E0E0002E6300002DE9F04190460D4604004FF0EC
:10E0F000000703D123A1C120F5F764F81DB921A1C0
:10E10000C220F5F75FF80020F4F7B4FF204600F0D6
:10E1100059F830B105270020F4F7BCFF3846BDE8B8
:10E12000F08120680668B8F1000F05D1016820462B
:10E1300000F006F921680860E268012A0CD0022A82
:10E140000ED0042A11D06068082A13D006FB020101
:10E150002846F2F7C1F9DEE76068805D2870DAE7EB
:10E16000606830F816002880D5E7606850F826000F
:10E170002860D0E700EBC601D1E90001C5E9000144
:10E18000C9E700002E2E5C2E2E5C2E2E5C2E2E5CFF
:10E190002E2E5C2E2E5C2E2E5C2E2E5C636F6D70F0
:10E1A0006F6E656E74735C6C6962726172696573BF
:10E1B0005C71756575655C6E72665F7175657565B8
:10E1C0002E63000010B5040004D107A140F2052021
:10E1D000F4F7F8FF216808684968884201D10120F6
:10E1E00010BD002010BD00002E2E5C2E2E5C2E2EA9
:10E1F0005C2E2E5C2E2E5C2E2E5C2E2E5C2E2E5C2B
:10E20000636F6D706F6E656E74735C6C6962726162
:10E21000726965735C71756575655C6E72665F7158
:10E22000756575652E63000070B5040003D108A103
:10E230007220F4F7C7FF206805684168204600F0A7
:10E240007FF8A84201D1012070BD002070BD000000
:10E250002E2E5C2E2E5C2E2E5C2E2E5C2E2E5C2EF8
:10E260002E5C2E2E5C2E2E5C636F6D706F6E656E55
:10E2700074735C6C69627261726965735C717565F7
:10E2800075655C6E72665F71756575652E630000FD
:10E2900010B5040004D104A140F21320F4F792FF5A
:10E2A0002068806810BD00002E2E5C2E2E5C2E2E65
:10E2B0005C2E2E5C2E2E5C2E2E5C2E2E5C2E2E5C6A
:10E2C000636F6D706F6E656E74735C6C69627261A2
:10E2D000726965735C71756575655C6E72665F7198
:10E2E000756575652E63000010B5040004D104A1A6
:10E2F00040F21920F4F766FF21680020886010BD05
:10E300002E2E5C2E2E5C2E2E5C2E2E5C2E2E5C2E47
:10E310002E5C2E2E5C2E2E5C636F6D706F6E656EA4
:10E3200074735C6C69627261726965735C71756546
:10E3300075655C6E72665F71756575652E6300004C
:10E3400070B50C46050003D105495D20F4F73AFF8E
:10E35000A868A04201D9601C70BD002070BD0000FB
:10E36000A4E000002DE9F0410E4604004FF0000843
:10E3700003D12CA17D20F4F725FF1EB929A17E2011
:10E38000F4F720FF0020F4F775FE2046FFF74CFF5E
:10E39000070009D0207C38B14FF004080020F4F7C2
:10E3A00079FE4046BDE8F081206845684168204616
:10E3B000FFF7C6FF2168486037B120680168204632
:10E3C000FFF7BEFF21680860E268012A14D0022A24
:10E3D00016D0042A19D0082A1CD06068314605FBE3
:10E3E0000200F2F779F8204601F030FC21688A68D3
:10E3F0008242D3D28860D1E7616830784855F2E72D
:10E400006168308821F81500EDE76168306841F8EF
:10E410002500E8E7D6E90001626802EBC502C2E91F
:10E420000001E0E72E2E5C2E2E5C2E2E5C2E2E5C44
:10E430002E2E5C2E2E5C2E2E5C2E2E5C636F6D704D
:10E440006F6E656E74735C6C69627261726965731C
:10E450005C71756575655C6E72665F717565756515
:10E460002E6300002DE9F04F8046806889B0D0F817
:10E470004801C0F3400038B109B04046BDE8F04F54
:10E4800000221146FDF772BF012907D909B04046A5
:10E49000BDE8F04F1FA20221FDF708BF2249DFF8B7
:10E4A0008CB0A1EB0B001C21B0FBF1F7002529E09B
:10E4B000C5EBC5010BEB81042046D4E9026AFFF7E6
:10E4C000E7FE8146204600F041F8642209FB02F194
:10E4D0004243B1FBF6F1B2FBF6F26369247CB4B1BE
:10E4E0000FF24C0CCDF81CC0CDF800A0CDE905967C
:10E4F000CDE90120CDE90361104A08214046FDF72E
:10E50000D5FE6D1CBD42D3D309B0BDE8F08F0FF22C
:10E51000300CE7E742616420617267756D656E7467
:10E5200020636F756E7400008C6E0100546E0100E4
:10E530004E6F206F766572666C6F7700C45C010069
:10E540004F766572666C6F770000000010B50400AE
:10E5500004D108A14FF4FC70F4F734FE0020F4F766
:10E5600089FD204601F072FB04460020F4F792FD7D
:10E57000204610BD2E2E5C2E2E5C2E2E5C2E2E5C88
:10E580002E2E5C2E2E5C2E2E5C2E2E5C636F6D70FC
:10E590006F6E656E74735C6C6962726172696573CB
:10E5A0005C71756575655C6E72665F7175657565C4
:10E5B0002E6300002DE9F0411F4615460E0004466B
:10E5C00003D11D491520F4F7FDFD1DB91A49162088
:10E5D000F4F7F8FD37B1A068FBF7B0FE10B11120D9
:10E5E000BDE8F081A068D0E903316068A3EB010CBD
:10E5F000421C944507D10020286017B1A068FBF7A2
:10E6000094FE0020ECE703EA000201EA0007BA42A8
:10E6100001D3831A01E0181A0B1A28685B1C984270
:10E6200000D203462B60206810443060A0682A683E
:10E63000C1681144C160E4E7405D01002DE9F0418B
:10E6400017465FEA0108054603D121499B20F4F7EC
:10E65000B9FD1FB91E499C20F4F7B4FDA868001D40
:10E66000FBF76CFE10B11120BDE8F081A86881684D
:10E6700000690C1A3868A04200D204463C60AA68BF
:10E6800069681069926808400A40824201D9161AE6
:10E6900001E00E1A761CB44208D9296832460144BA
:10E6A0004046F1F719FFA41B0020B0442968224618
:10E6B00001444046F1F710FFA8683A680169114427
:10E6C0000161A868001DFBF730FE0020CCE70000C8
:10E6D000405D01002DE9F04117465FEA010805465B
:10E6E00003D11E494C20F4F76DFD1FB91B494D2085
:10E6F000F4F768FDA868FBF721FE10B11120BDE812
:10E70000F081A86881680069081A69680C1A38687D
:10E71000641CA04200D204463C60A8686968806816
:10E7200008400E1A761CB44208D9296832460844BB
:10E730004146F1F7D1FEA41B0020B04429682246CF
:10E7400008444146F1F7C8FEA8683A688168114458
:10E750008160A868FBF7E9FD0020D0E7405D01007B
:10E7600010B5826894681369E41AA14201D90420A3
:10E7700010BD19441161826851618068001DFBF76A
:10E78000D4FD002010BD00002DE9F0411E461446C6
:10E790000F00054603D11D496C20F4F713FD1CB989
:10E7A0001A496D20F4F70EFD3EB1A868001DFBF775
:10E7B000C5FD10B11120BDE8F081A96888684969DC
:10E7C000421A09D06B681940184088420DD9266852
:10E7D00096420AD9226010E0002020601EB1A8688D
:10E7E000001DFBF7A2FD0020E5E7884205D8581A76
:10E7F0002268401C824200D92060286808443860A2
:10E80000A8682268416911444161ECE7405D01005C
:10E81000826800219160826811618268516182681A
:10E82000D1608268516080680160704770B582680D
:10E83000456894681369E31AEB1A5B1C994201D985
:10E84000042070BD214491608268D1608068FBF72C
:10E850006FFD08B1002070BD082070BD08B5002212
:10E8600042504058009008BD70B50D46060003D1D7
:10E870000B491420F4F7A6FC1DB909491520F4F73B
:10E88000A1FC746804E0B2682946904718B1246876
:10E8900020680028F7D120682860256070BD00003E
:10E8A000845D010010B5040003D103493720F4F75B
:10E8B00089FC6068006810BD845D010010B504002B
:10E8C00003D105492B20F4F77DFC61680868002816
:10E8D00001D002680A6010BD845D010070B50C466D
:10E8E000050003D10B494320F4F76CFC1CB909491E
:10E8F0004420F4F767FC0021686806E0A24203D1D7
:10E9000021680160012103E010460268002AF5D168
:10E91000084670BD845D010003496846884201D203
:10E920000120704700207047106100200C4A10B58C
:10E9300002F58C730EE0991AC91001EBD1714910E0
:10E9400002EBC1010C68844201D90B4602E005D2FA
:10E9500001F108029A42EED3002010BD486810BDB4
:10E960003816010000B5FFF7E1FF002800D101488B
:10E9700000BD0000241601004058002800D00120EE
:10E98000704708B5002242504058009008BDD0F8AA
:10E990000403084000D0012070474058002800D0F0
:10E9A0000120704708B5002242504058009008BD31
:10E9B00002480068002800D0012070470004014090
:10E9C000084810B5007918B907A19720F4F7FAFBA9
:10E9D00000F0E6F81449012008600249091F087098
:10E9E00010BD0000B80000202E2E5C2E2E5C2E2EB6
:10E9F0005C2E2E5C2E2E5C2E2E5C2E2E5C2E2E5C23
:10EA00006D6F64756C65735C6E7266785C64726958
:10EA1000766572735C7372635C6E7266785F636C4A
:10EA20006F636B2E630000001805004010B50400F2
:10EA300003D108A17E20F4F7C5FB164900200A790E
:10EA40000AB1852010BD01220C600A7100224A71B2
:10EA500010BD00002E2E5C2E2E5C2E2E5C2E2E5C09
:10EA60002E2E5C2E2E5C2E2E5C2E2E5C6D6F647511
:10EA70006C65735C6E7266785C64726976657273DD
:10EA80005C7372635C6E7266785F636C6F636B2E2F
:10EA900063000000B800002070B54FF48076304667
:10EAA000FDF78AFF114CB50560B13046FDF78BFFCD
:10EAB0000120C5F80803607920B901206071216840
:10EAC000002088474FF482763046FDF775FF002816
:10EAD0000AD03046FDF777FF0220C5F80803216809
:10EAE000BDE870400120084770BD0000B80000205C
:10EAF000094810B5007918B908A1C420F4F762FBE1
:10EB00004FF48270FDF75FFF02204107C1F8040354
:10EB100012490120086010BDB80000202E2E5C2E86
:10EB20002E5C2E2E5C2E2E5C2E2E5C2E2E5C2E2E1F
:10EB30005C2E2E5C6D6F64756C65735C6E726678AE
:10EB40005C647269766572735C7372635C6E726624
:10EB5000785F636C6F636B2E6300000008000040F9
:10EB6000002802D001498001084770476113010065
:10EB70000121B1EB507F01D1012070470020704787
:10EB80000121B1EB507F01D1012070470020704777
:10EB90000121B1EB507F01D1012070470020704767
:10EBA00006480068012110F0010F06D14FF0E02067
:10EBB000C02280F800248430C167704700E100E083
:10EBC00070B54FF08040D0F80453344C68070CD532
:10EBD0004FF48470FFF748FA38B1606818B930A173
:10EBE000F020F4F7EFFA60688047A8060DD54FF4DF
:10EBF0008A70FFF739FA40B1A06818B928A1F92046
:10EC0000F4F7E0FAA1680020884768060ED54FF4B3
:10EC10008C70FFF729FA48B1A06820B920A14FF401
:10EC20008070F4F7CFFAA1680120884728060ED536
:10EC30004FF48E70FFF718FA48B1E06820B918A1B8
:10EC400040F20910F4F7BEFAE16800208847E805B1
:10EC50000ED54FF49070FFF707FA48B1E06820B97D
:10EC60000FA14FF48870F4F7ADFAE16801208847EE
:10EC7000A80511D54FF49270FFF7F6F900280BD0D4
:10EC8000E06820B906A140F21710F4F79BFAE1689A
:10EC9000BDE870400220084770BD0000C0000020A1
:10ECA0002E2E5C2E2E5C2E2E5C2E2E5C2E2E5C2E9E
:10ECB0002E5C2E2E5C2E2E5C6D6F64756C65735C05
:10ECC0006E7266785C647269766572735C73726387
:10ECD0005C6E7266785F706F7765722E63000000FD
:10ECE00070B50D46040003D10DA15120F4F76AFA66
:10ECF000204600F09FFF04000FD00020F4F7BAF97F
:10ED0000207920B10020F4F7C5F9112070BD012051
:10ED1000256020710020F4F7BDF9002070BD0000CF
:10ED20002E2E5C2E2E5C2E2E5C2E2E5C2E2E5C2E1D
:10ED30002E5C2E2E5C2E2E5C6D6F64756C65735C84
:10ED40006E7266785C647269766572735C73726306
:10ED50005C7072735C6E7266785F7072732E6300A3
:10ED600010B5040003D106A17520F4F72BFA204654
:10ED700000F060FF002802D000210160017110BD89
:10ED80002E2E5C2E2E5C2E2E5C2E2E5C2E2E5C2EBD
:10ED90002E5C2E2E5C2E2E5C6D6F64756C65735C24
:10EDA0006E7266785C647269766572735C737263A6
:10EDB0005C7072735C6E7266785F7072732E630043
:10EDC0000149024801F05EBD84210020002000407E
:10EDD0002DE9F04117460D00064603D11AA1842003
:10EDE000F4F7F0F93079284A00EB400101EBC0015B
:10EDF00002EB810494F82A1011B10820BDE8F081DB
:10EE0000224951F820103068FFF76AFF08B111203D
:10EE1000F4E729463046F4F75FF967602869206017
:10EE20001FB1297F3046F8F70FF930680421C0F888
:10EE300000150020A061E06184F8290044F8140F57
:10EE40000121A175DAE700002E2E5C2E2E5C2E2EFD
:10EE50005C2E2E5C2E2E5C2E2E5C2E2E5C2E2E5CBE
:10EE60006D6F64756C65735C6E7266785C647269F4
:10EE7000766572735C7372635C6E7266785F7561DF
:10EE800072742E630000000084210020281101000C
:10EE90002DE9F05F054600790F4600EB400101EBDC
:10EEA000C0014048164600EB810494F82A0001286E
:10EEB00004D03DA14FF4A370F4F784F927B93AA127
:10EEC00040F24710F4F77EF926B937A14FF4A47049
:10EED000F4F778F9616800204FF4017811B12A68DD
:10EEE000C2F80883A1694FF0000969B1E06938B13F
:10EEF000606810B12868C0F804831120BDE8F09F55
:10EF000027610120E66105E0C4F82490E760A6616E
:10EF1000C4F81C9094F82910014302D1284601F04E
:10EF2000E0F860680028286803D0C0F80483002057
:10EF3000E4E74FF4A2763146FFF723FDB2464FF4E3
:10EF4000927B59462868FFF717FD06464FF48471F7
:10EF50002868FFF711FD804651462868FFF70CFD31
:10EF6000074648EA07003043EBD056EA070007D1CE
:10EF70002146286801F086F8616AA0698842E0D8D5
:10EF8000C4F818900EB10320B8E70FB10F20B5E711
:10EF900094F8291001200029296801D00860C6E7EB
:10EFA0004860C4E7842100202E2E5C2E2E5C2E2E7D
:10EFB0005C2E2E5C2E2E5C2E2E5C2E2E5C2E2E5C5D
:10EFC0006D6F64756C65735C6E7266785C64726993
:10EFD000766572735C7372635C6E7266785F75617E
:10EFE00072742E630000000001684FF40172C1F8D2
:10EFF0000823006801214160704700002DE9F05F9F
:10F00000054600790F4600EB400101EBC0002D4999
:10F01000164601EB800494F82A00012803D02AA1A7
:10F02000F220F4F7CFF81FB927A1F320F4F7CAF8BC
:10F030001EB925A1F420F4F7C5F8284600F064F8BD
:10F0400010B11120BDE8F09F66614FF00009C4F8CF
:10F050002090A76084F828904FF48E784E46414661
:10F060002868FFF78EFC28684FF0010AC0F808A056
:10F070002146286801F02AFB606800BBD5F800B083
:10F0800067690EE094F8280008B10F2615E04146A4
:10F090005846FFF771FC0028F4D02146584601F08D
:10F0A00015FB206AB842F2D3574641462868FFF75D
:10F0B00063FC0028F9D02868C760C4F81490304673
:10F0C000C0E70000842100202E2E5C2E2E5C2E2E08
:10F0D0005C2E2E5C2E2E5C2E2E5C2E2E5C2E2E5C3C
:10F0E0006D6F64756C65735C6E7266785C64726972
:10F0F000766572735C7372635C6E7266785F75615D
:10F1000072742E6300000000007900EB400101EBF7
:10F11000C000044901EB80004069002800D00120B4
:10F1200070470000842100202DE9F0470446007953
:10F130004FF0000900EB400101EBC000284901EB52
:10F1400080072068C0F800957868B0B1206825492C
:10F15000C0F80813206840F3073000280DDB00F0EA
:10F160001F02012191404009800000F1E020C0F819
:10F170008011BFF34F8FBFF36F8F2068D0F80C253D
:10F18000D0F81485D0F80865D0F810554FF0FF314D
:10F19000C0F81415C0F80C152068C0F80815C0F8A0
:10F1A0001015501C02D01046FEF7FEF8B8F1FF3FD4
:10F1B00002D04046FEF7F8F8681C02D02846FEF759
:10F1C000F3F8701C02D03046FEF7EEF82068FFF727
:10F1D000C7FD87F82A90C7F80490BDE8F0870000C3
:10F1E00084210020840202000149024801F0F8BB9A
:10F1F000B0210020002000402DE9F04117460D000D
:10F20000064603D118A1A920F3F7DCFF3079264A7E
:10F2100000EBC00102EB810494F8201011B108202A
:10F22000BDE8F081214951F820103068FFF758FD02
:10F2300008B11120F4E729463046F3F788FF6760EC
:10F24000286920601FB1297F3046F7F755FF3068E5
:10F250000821C0F800150020A061E0616061012173
:10F2600084F82010DCE700002E2E5C2E2E5C2E2E63
:10F270005C2E2E5C2E2E5C2E2E5C2E2E5C2E2E5C9A
:10F280006D6F64756C65735C6E7266785C647269D0
:10F29000766572735C7372635C6E7266785F7561BB
:10F2A0007274652E63000000B02100202C11010053
:10F2B0002DE9F05F044600790F46DFF834A100EB3A
:10F2C000C0010AEB8105164695F82000012804D0FC
:10F2D00048A14FF4C070F3F775FF27B945A140F27C
:10F2E0008110F3F76FFF26B942A14FF4C170F3F715
:10F2F00069FF207910B9B6F5803F04D33DA140F2F3
:10F300008310F3F75FFF3846FFF742FCB0B168683F
:10F310004FF000084FF4047910B12168C1F8089348
:10F32000A8694FF0000B80B1E86948B1686810B176
:10F330002068C0F804931120BDE8F09F1020FBE77F
:10F340002F614FF00108EE6102E0EF60C5E9066B46
:10F3500000254FF488712068FFF724FB4FF4A27159
:10F360002068FFF71FFB2068C0F83475C0F83865C7
:10F370002068B8F1000F12D0D0F8001241F020013F
:10F38000C0F800122079D04600EBC0010AEB8100E2
:10F39000406838B12168C1F804932846CCE70121C0
:10F3A0000160EFE74FF4887A4FF4A2795146206864
:10F3B000FFF7F3FA074649462068FFF7EEFA0646DC
:10F3C0004FF492712068FFF7E8FA014647EA060019
:10F3D0000843EBD0227902EBC20308EB8302C2F8A8
:10F3E00018B001B10325002ED7D00F25D5E70000B6
:10F3F000B02100202E2E5C2E2E5C2E2E5C2E2E5C3C
:10F400002E2E5C2E2E5C2E2E5C2E2E5C6D6F647567
:10F410006C65735C6E7266785C6472697665727333
:10F420005C7372635C6E7266785F75617274652E70
:10F43000630000000179094A01EBC10102EB81017F
:10F44000C96931B10168D1F8002222F02002C1F867
:10F45000002200680121416070470000B0210020B7
:10F460002DE9F04704460F460079364900EBC0000D
:10F4700001EB8005164695F82000012804D032A142
:10F4800040F22D10F3F79EFE27B92FA14FF497708D
:10F49000F3F798FE26B92CA140F22F10F3F792FE55
:10F4A000207910B9B6F5803F04D327A14FF49870A6
:10F4B000F3F788FE3846FFF76BFB30B1204600F0CB
:10F4C00063F820B11120BDE8F0871020FBE76E61E2
:10F4D000AF604FF490774FF0000839462068FFF78F
:10F4E00061FA4FF4AC7631462068FFF75BFA20688A
:10F4F000AA686969C0F84425C0F8481520684FF02B
:10F500000109C0F808906868D0B9BA465146206829
:10F51000FFF743FA074631462068FFF73EFA0743F4
:10F52000F4D010B14FF00F0808E02068C0F80C903C
:10F5300031462068FFF731FA0028F9D000206861D1
:10F540004046C0E7B02100202E2E5C2E2E5C2E2ED1
:10F550005C2E2E5C2E2E5C2E2E5C2E2E5C2E2E5CB7
:10F560006D6F64756C65735C6E7266785C647269ED
:10F57000766572735C7372635C6E7266785F7561D8
:10F580007274652E630000000079054900EBC0002D
:10F5900001EB80004069002800D001207047000086
:10F5A000B02100202DE9F047064600793D4900EBE7
:10F5B000C00001EB8005346868680127A8B13A49AA
:10F5C000C4F80813306840F3073000280DDB00F062
:10F5D0001F0107FA01F14009800000F1E020C0F8A6
:10F5E0008011BFF34F8FBFF36F8FD4F8000220F06C
:10F5F0002000C4F80002A8694FF4A27820B1414667
:10F600002046FFF7CFF967604FF4AC7949462046B2
:10F61000FFF7C8F9E760474649462046FFF7BDF9BE
:10F620000028F9D0A86928B139462046FFF7B5F976
:10F630000028F1D04FF0000AC4F800A53068D0F8D7
:10F640000C25D0F81495D0F80885D0F810754FF037
:10F65000FF31C0F80C15C0F814153068C0F8081553
:10F66000C0F81015501C02D01046FDF7A6FEB9F1E7
:10F67000FF3F02D04846FDF7A0FE781C02D0384676
:10F68000FDF79BFEB8F1FF3F02D04046FDF795FE27
:10F690002046FFF765FB85F820A0C5F804A0BDE86B
:10F6A000F0870000B02100201003420070B50F4C1D
:10F6B00006466068002817D03046F6F74FFD05462D
:10F6C00000213046F6F7EEFC281A20F07F40B0F516
:10F6D000960F04D306A14FF48270F3F773FD6068B0
:10F6E00000F036FF0020606070BD0000E0000020E8
:10F6F0002E2E5C2E2E5C2E2E5C2E2E5C2E2E5C2E44
:10F700002E5C2E2E5C2E2E5C636F6D706F6E656EA0
:10F7100074735C6C69627261726965735C74696D43
:10F7200065725C6170705F74696D6572322E630022
:10F730002DE9F84317460C0005462BD0DFF8708002
:10F740004646D8F80000F5F709FE3844C7B23068DD
:10F75000F5F704FEA968497E081AB0FBF7F0C6B2B7
:10F760002046F5F7FBFDA968381AC7B2487FB0FB01
:10F77000F6F206FB1202401C487782B123460DA226
:10F7800007212846FCF792FD39462846BDE8F84394
:10F79000F6F716BCA96800204877BDE8F883009406
:10F7A00005A207212846D8F80030FCF77FFDEBE7DB
:10F7B00098010020257300000A25732573000000BE
:10F7C0002DE9F04107461448F0F7B9FE0546124B03
:10F7D00012A208213846FCF769FD15A20821384617
:10F7E000FCF764FD00240C4E0DE0200704D115A2A7
:10F7F00008213846FCF75AFD335D13A2082138462C
:10F80000FCF754FD641CAC42EFD33846BDE8F04130
:10F810000CA20821FCF74ABD88070020506C6169E2
:10F820006E20746578743A0D0A25730D0A00000085
:10F83000506C61696E2074657874202D20415343AB
:10F8400049493A000D0A00002532782000000000E6
:10F850002DE9FF4F96B000211391D0E900318E467B
:10F8600081681291C16815910EEB9E011491129955
:10F8700001EB910111911599056B01EB910BD0E909
:10F8800008218946D0E90A418A460021179E109135
:10F89000B1427CD2139E189901EB060C9CF8031020
:10F8A000DCF8007061F31F6702979CF80770DCF8C2
:10F8B0000460DCF8088067F31F669CF80B70002179
:10F8C00067F31F689CF80F70DCF80CC067F31F6CBF
:10F8D000029FBA1841EB0107029219EB070741EBAF
:10F8E0000102BE194A41A21841EB010912EB0808B6
:10F8F00049EB01041AEB040241EB010912EB0C0481
:10F9000049EB0107DDF864C0029A6744C14607EB82
:10F91000050AA2FB0357A6FB0BC815EB0C05DDF887
:10F9200044C047EB0807A9FB0CC815EB0C05DDF834
:10F9300050C047EB0807A4FB0CC815EB0C0547EBC0
:10F940000807CDE90175A2FB0E75A6FB03C817EBEE
:10F950000C0745EB0805A9FB0BC817EB0C07DDF8F6
:10F9600044C045EB0805A4FB0CC817EB0C07DDF8F9
:10F9700050C045EB0805AAFB0CC817EB0C0C45EB77
:10F980000805CDE9075C129DA2FB055700E061E088
:10F99000A6FB0EC815EB0C0547EB0807A9FB03C82F
:10F9A00015EB0C0547EB0807A4FB0BC815EB0C0582
:10F9B000DDF844C047EB0807AAFB0CC815EB0C0C9C
:10F9C00047EB0807CDE9057C159D129FA2FB055268
:10F9D000A6FB0776ED197241A9FB0E76ED1972416F
:10F9E000A4FB03462C197241AAFB0B65A6196A41B8
:10F9F000DDE9075C019F0AFB03F91CEB0708DDE961
:10FA0000057C4D411CEB05044F4116EB070A4A41AA
:10FA100002EB0907029DBA08551941EB010627F0D0
:10FA20000302C446AA184E411CEB060941EB01062D
:10FA3000A41941EB01051AEB050A07F00308494137
:10FA400018EB0105139901F110011391109901F1BF
:10FA500001011BE70563C0E90829C0E90A4A1AB099
:10FA6000BDE8F08F2DE9F84F314F05464FF0010901
:10FA70000024381990F96010491C46D090F86000B5
:10FA8000294620F0C0063046FAF784FD70B32046C0
:10FA900000F050F8824668460096FDF7EDFC0099AC
:10FAA00000EB8100D0F80007C0F30148B8F1020F65
:10FAB0001DD002213046FDF7AFFC68460096FDF7E9
:10FAC000DBFC009A09FA02F1C0F820153046F4F781
:10FAD000D3FE57F820204AB15046BAF1030F11D097
:10FAE000B8F1020F05D0B8F1030F07D00DE00321E4
:10FAF000E0E75046BAF1010F04D006E05046BAF1F3
:10FB0000020F02D1014630469047641C042CB0D34A
:10FB10002A4602210020FDF797FC002055F820100E
:10FB20000029A5D1401C0228F8D3BDE8F88F0000B9
:10FB3000182100200249084490F8600080097047AD
:10FB40001821002010B50C46017A052908D0407A0A
:10FB500038B1084808A102682046FDF735FA00E0F0
:10FB60001AB106A12046FDF72FFA2046BDE8104045
:10FB7000FDF76CBA14020020257300000D0A000086
:10FB800038B5C3880D46044633B114A0009015A2C1
:10FB900016A12846FDF718FA217A05291CD0607AAB
:10FBA00048B1A088FDF766FE164951F8202016A13D
:10FBB0002846FDF709FAA0880021FEF7DFF8034682
:10FBC0001049207A143951F8202001B02846BDE8A8
:10FBD00030400EA1FDF7F8B938BD00001B5B306D59
:10FBE000000000001B5B313B33316D0025734C6F0F
:10FBF00067732064726F70706564202825642925FE
:10FC0000730D0A0014020020257300003C25733E8A
:10FC10002025733A20000000EFF30580C005C00DD9
:10FC200001D001207047EFF3148040F30000401C26
:10FC3000704700000349884201D103487047002003
:10FC40007047000000200040D000002001680A68D2
:10FC50004968914201D3881A70478068801A084425
:10FC6000401C70470168C07809BA21F0FF010843C1
:10FC700070470168C07809BA21F0FF010843704756
:10FC8000244A811A904241D01ADC234AA0EB020197
:10FC900090422FD00BDC002828D0B0F5700F26D072
:10FCA0006FF47001401828D001281DD128E00129E7
:10FCB00023D0022924D0032922D0052914D11CE005
:10FCC00006291DD008DC012914D0032912D00429EB
:10FCD00019D0052908D113E0082917D009290FD018
:10FCE0000C290DD0F6290BD048F21650704748F277
:10FCF0000150704748F21150704748F21050704759
:10FD000048F20350704748F21450704748F21350BD
:10FD1000704700000900F0000300F000274A811A34
:10FD200090423FD016DC264AA0EB0201904236D02A
:10FD300009DC002820D0234940181ED001281FD0FC
:10FD4000022817D128E0022926D003292DD0042922
:10FD500010D11EE008292BD006DC032919D0042974
:10FD60001AD0062906D126E00D290FD00E290AD077
:10FD7000F62914D048F21650704748F201507047E7
:10FD800048F21850704748F26250704748F261508C
:10FD9000704748F21150704748F21050704748F2CF
:10FDA0000350704748F21450704748F213507047A0
:10FDB00048F21750704748F2605070470915F0003C
:10FDC0000315F00000EB0FFF374A811A90424CD028
:10FDD00025DC364AA0EB020190425BD016DC344AA7
:10FDE000A0EB020190424CD009DC00283CD0314904
:10FDF000401840D001283BD0032851D13EE00129D2
:10FE00003FD0022940D003294AD146E0092947D2F0
:10FE1000DFE801F046464646462E462E2B001529C1
:10FE20003ED012DC112929D008DC01291DD003297C
:10FE300036D00F2922D0102932D125E0122920D026
:10FE400013290FD014292BD121E016390F2927D2DD
:10FE5000DFE801F01D2626262626262626111A175B
:10FE6000260E0E0048F21750704748F27050704747
:10FE700048F20350704748F21350704748F2105050
:10FE8000704748F21150704748F21450704748F2DA
:10FE90000150704748F20250704748F27150704765
:10FEA00048F2165070470000110CF000080CF000EA
:10FEB000040CF00000F40FFF48F2115110F5A24FAE
:10FEC0001AD009DC10F5C34F10D010F5C24F0BD07B
:10FED00010F5C14F05D10CE010F1220F04D000281D
:10FEE00001D048F2165070470846704748F2155046
:10FEF000704748F20350704748F21750704710F1AE
:10FF0000140F1BD009DC10F5C34F11D010F5C24FF0
:10FF10000BD010F5C14F05D10DE010F1120F10D02C
:10FF2000002801D048F21650704748F2115070472F
:10FF300048F21550704748F20350704748F2175086
:10FF4000704748F26050704770B50546F6F711FAF1
:10FF5000114C40B1D4E904024FF08071411842F1D4
:10FF60000000C4E9041000212846F6F7A2F810B1F9
:10FF70002846FFF79BFB01212846F6F79AF818B1AF
:10FF8000F6F7A6FDC4E90601284600F045FB284621
:10FF9000BDE8704000F03AB8E000002070B50546BA
:10FFA00000200C460870F6F793FDD5E90223101ADD
:10FFB00063EB010300263146361A994117DAB0F592
:10FFC000350F03D3F2F774FF0D4942184FF496032F
:10FFD00000210C48F6F72AFA38B10D280BD00A494F
:10FFE000CF20F3F7EFF8002070BD012070BD002195
:10FFF0000448F6F751F8284600F0AAFA2070F2E714
:020000040001F9
:10000000FFFFB400E8000020F0F60000F8B51B4C3C
:10001000074600261A48FEF745FCD8B1616879B159
:10002000D0E902106268D2E90232C91A904121D2A5
:10003000606890F8200018B161681148FEF714FC60
:1000400000F01CF905466946FFF7A8FF98B1606803
:1000500040B10AE0606800280CD13846BDE8F8409D
:10006000F6F7B8B93846F6F789F965609DF80000EB
:100070000028CFD1F8BD6660CCE70000E00000208A
:100080003811010070B5054688690C4600284FF408
:10009000847128460AD0FEF774FCD5F81805626A08
:1000A000E1688854606A401C606270BDFEF769FCBC
:1000B000D5F8180570BD1FB501238DF80030CDE9C6
:1000C0000121D0E90012684690471FBD1FB50123EA
:1000D0008DF80030CDE90121D0E900126846904743
:1000E0001FBD10B5044600684FF49271FEF749FC3D
:1000F0004FF484712068FEF744FC20680121016000
:1001000010BD00007CB50546FF20009001236A4623
:1001100001A9E868FEF74EFA040004D010491A203D
:10012000F3F750F819E0009ABAB168690D4C0199DB
:100130000378D2B2E35C1BB1001DFFF7B9F802E00F
:100140000C30FEF7A5FE040007D1A8682A4640F24D
:1001500066610068F2F71CFF044620467CBD000083
:100160000C5C0100A000002070B500240546234669
:100170000DE000BF85EA0300461E8643C6F3C010AB
:100180004042C0B2CE5C8443064034435B1C934281
:10019000F0D3204670BD000070B50E4C0020D2B2E6
:1001A0002070201D0C4D0378EB5C1BB1001DFFF788
:1001B00057F902E00C30FEF721FF18B1074A2D2154
:1001C000F0F728F86078002802D021780029FAD0CA
:1001D00070BD00009C010020A00000208C61010087
:1001E0000022CA604A60054A8A60052803D2044A90
:1001F00052F8200000E00020086070477C170100E2
:10020000D4010020F0B50368426803F07F41C2F3D7
:10021000074441EA04448168C1F3072544EA0527FD
:10022000C468C1F30746E5B22F4302F07F4545EAB3
:100230000645C4F3072645EA0626DDB22E4301F043
:100240007F45C4F3074C45EA0C45C3F3072C45EA48
:100250000C2502F0FF0C04F07F44C3F3074344EA8B
:100260000343C2F3072243EA0222C9B245EA0C055E
:100270000A43C0E90252C0E90076F0BD0148FEF72A
:100280001DBB0000381101002DE9F84F0546264836
:100290009146884606681F46012269461846F3F7CC
:1002A000F3FBDFF888A0B0B3009800210446801C5F
:1002B0000AE000BF00EA060259F821C00AEB8202F8
:1002C000401C491CC2F80CC0B942F3D3B9462F0CEC
:1002D000F5F7D8FE8346FDF7FBFCB84204D8144975
:1002E00040F28310F2F76EFF601C30400AEB800092
:1002F00047EA0B423440C2600AEB8400C16865F3F0
:10030000C50169F3891168F39F2121F00301491C9C
:1003100021F00401C1609AF8000001E0FDF7C2FA83
:100320000028FBD1BDE8F88FBC010020E43C002090
:10033000D861010070B50C46050004D108A140F653
:10034000FF10F2F73FFF24B905A14FF42060F2F748
:1003500039FF21682868BDE87040F0F7F7B8000061
:100360002E2E5C2E2E5C2E2E5C2E2E5C2E2E5C2EC7
:100370002E5C2E2E5C2E2E5C636F6D706F6E656E24
:1003800074735C6C69627261726965735C636C69D9
:100390005C6E72665F636C692E63000010B5044684
:1003A00000680A4900F014F820600849606800F00D
:1003B0000FF860600549A06800F00AF8A0600349E2
:1003C000E06800F005F8E06010BD00004411010095
:1003D0002DE9F04F91B0020E8DF83420020C8DF80B
:1003E0003820020A8DF840008DF83C200DA80A90B4
:1003F0004FF000080FA808904FF480700DF1380BF3
:100400000DF1400A0B91C1464746464645460490C9
:100410000B98445D0A9829460078F7F72BFC28EAE8
:100420000001204041EA00089BF800002946F7F748
:1004300021FC29EA0001204041EA000908982946E8
:100440000078F7F717FC8743204007439AF800002D
:100450002946F7F70FFC86430440049826436D1C99
:100460008542D5D30A9981F800808BF800900898CE
:1004700007708AF800609DF834009DF83810000677
:1004800040EA01409DF83C1040EA01209DF84010F0
:1004900011B00843BDE8F08F2DE9F04114460D007E
:1004A000064604D11BA140F22330F2F78BFE24B99B
:1004B00018A14FF44970F2F785FE3046F5F7B8FC05
:1004C00078B9B068FA21077D90F816803046F5F7C4
:1004D00077FDFA213046F5F727FC3046F5F7A8FC02
:1004E00010B10620BDE8F081B068007D2870B068CA
:1004F000807D20702878C01BC1B23046F5F786FC9D
:100500002178A1EB0800C1B23046F5F765FD002067
:10051000E8E700002E2E5C2E2E5C2E2E5C2E2E5C2C
:100520002E2E5C2E2E5C2E2E5C2E2E5C636F6D703C
:100530006F6E656E74735C6C69627261726965730B
:100540005C636C695C6E72665F636C692E6300004D
:1005500070B50446406918B916A17C20F2F732FE46
:1005600024480025007810B30CB394F82000F0B1B3
:10057000F6F7AEFAD4E90223801A994112D3206922
:10058000002608B984F82060D4E90510884720695E
:1005900068B194F8201051B1D4E9022110187141CA
:1005A000C4E9020121461448FEF75EF901252846F8
:1005B00070BD00002E2E5C2E2E5C2E2E5C2E2E5C2E
:1005C0002E2E5C2E2E5C2E2E5C2E2E5C636F6D709C
:1005D0006F6E656E74735C6C69627261726965736B
:1005E0005C74696D65725C6170705F74696D657271
:1005F000322E6300E0000020381101004069054AF6
:100600000178515C11B1001DFEF714BF0C30FEF7EC
:10061000EBBC0000A0000020F8B51C4C6946206827
:10062000F9F76DFE00260127194D2CE0017821B164
:1006300001290ED002291ED116E0416891F8202030
:10064000CAB981F82070416810480830FEF70CF9EB
:1006500011E041686868814201D16E600BE00B488F
:100660000830FEF73BF906E0FFF708FE10B180F80E
:100670002060F9E72F7069462068F9F735FE694672
:100680002068F9F73CFE0028D0D1F8BD30110100F8
:10069000E0000020F8B50B4C0D4606466946206880
:1006A000F9F717FE58B10670456069462068F9F7FA
:1006B00031FE10B10448F5F749FE0020F8BD0420D2
:1006C000F8BD000030110100E800002070B50C46B4
:1006D00005464FF48E71FEF754F9216AA068415C1B
:1006E000206A401C2062C5F81C1570BD1FB5002291
:1006F0008DF800200291816801914261D0E90012D9
:10070000684690471FBD1FB500228DF8002002915A
:10071000816801914261D0E90012684690471FBD8F
:100720007CB5FF260546009600780C46A8B3012844
:1007300019D0022802D02D49652011E0297AE068FD
:10074000FEF774F828B1042803D028493920F2F7BD
:1007500039FD2046FFF7D6FC002803D023493B2073
:10076000F2F730FD7CBD297AE068FEF75FF828B12A
:10077000042803D01D494120F2F724FD287A20B136
:100780006068D0E90021002090472046FFF7BAFCBE
:100790000028E7D015494D20E2E7FFE7297A2069D4
:1007A000FDF7DEFF18B111495320F2F70BFD00965B
:1007B00001236A4601A92069FDF7E6FF18B10B493C
:1007C0005620F2F7FFFC009848B1C2B26069019967
:1007D000FCF7DEFB18B105495B20F2F7F3FC60681B
:1007E000D0E90021012090477CBD00000C5C010095
:1007F0001FB50A4601788DF8001041680191017A11
:100800008DF80810C0680390044850F8221008388A
:1008100050F82220684690471FBD0000AC00002021
:1008200001490120087070479C01002010B588B074
:10083000044620220F496846EFF74EFE062000903E
:10084000C01F0190029003904FF0EB7006900CB126
:10085000094A00E0002269460848FCF735FB18B158
:10086000074A1D21EFF7D6FC0448001F447008B06A
:1008700010BD00005C17010021080100A00100204C
:100880008C6101002DE9FF470C4605464FF40071CD
:10089000FEF77DF801274FF40178002618B34FF4D6
:1008A000927949462846FEF767F8E0B1494628465E
:1008B000FEF767F8C5F8088394F8290000B96F605F
:1008C00002208DF80000D5F88004C5F8800403905C
:1008D000A0690290E0680190A661E661D4E9001287
:1008E0006846904728E004212846FEF750F818B3E0
:1008F0004FF484712846FEF73FF8E8B121462846B8
:10090000FFF7C0FB616AA069884215D1E06938B180
:10091000E268616AA0612069E6616662E06008E001
:1009200094F8290000B96F60C5F80883A661E268F1
:10093000616A2046FFF7BFFB4FF48E784146284698
:10094000FEF71AF880B16069216A814202D294F8F8
:10095000280028B341462846FEF713F8606918B10D
:1009600061692046FFF7C2FE4FF4A278414628464F
:10097000FEF702F8002818D041462846FEF701F895
:1009800094F8290000B12F60A06900280DD0A6615D
:10099000E268616A04B02046BDE8F047FFF78BBB10
:1009A00021462846FFF792FEDEE7BDE8FF870000FC
:1009B0001FB50A4601788DF8001041680191017A4F
:1009C0008DF80810C0680390044850F822100838C9
:1009D00050F82220684690471FBD0000AC00002060
:1009E0002DE9FF410C464FF4927705463946FDF755
:1009F000D4FF0026B8B139462846FDF7D3FF0220C0
:100A00008DF80000D5F88004C5F880040390D5F86F
:100A10003C050290E0680190A661E661D4E900120D
:100A20006846904723E04FF4887739462846FDF71B
:100A3000B4FFE0B139462846FDF7B4FFD5F83C15C0
:100A4000A069884213D1E06960B1E268D5F800027C
:100A500020F02000C5F80002E069A0612069E6618D
:100A6000E06001E0A661E2682046FFF72FFB4FF44B
:100A7000A27739462846FDF790FF68B139462846E7
:100A8000FDF790FFA06938B1A661E661D5F83C1585
:100A90002046E268FFF71AFB4FF49076314628466D
:100AA000FDF77BFF60B131462846FDF77BFF012053
:100AB000E860606920B1D5F84C152046FFF723FEA9
:100AC0004FF4AC7631462846FDF767FF00280ED07C
:100AD00031462846FDF766FF6069002807D0D5F843
:100AE0004C1504B02046BDE8F041FFF70CBEBDE850
:100AF000FF8100002DE9F05F8346DDE90A4A99464F
:100B000090460D460846012703E000BFB0FBF8F011
:100B10007F1C4045FAD2B94500D94F465FEACA70FA
:100B200012D18CB15FEA8A7002D5B9F1000F01D001
:100B3000202607E0302605E031465846641EF2F7CD
:100B4000E9FF0CB1A742F7D35FF00106B9F1010F3D
:100B500002D9A9F1010903E0B5FBF6F0404502D343
:100B600006FB08F6F2E7DFF83C9000BFB5FBF6F0B5
:100B700000FB165519F800105846F2F7CBFFB6FBEC
:100B8000F8F6002EF2D15FEACA7009D0002C07D027
:100B9000A74205D220215846641EF2F7BBFFF5E7B5
:100BA000BDE8F09FDC1501001CB5002913D0826858
:100BB000127F8A420FD008A3D3E90023CDE9002396
:100BC00001F12F028DF803208268117700696A46CF
:100BD00003A1FCF7F9F91CBD1B5B34006D0000009C
:100BE000257300001CB5826899B1D27E8A420FD06D
:100BF0000CA2D2E90032CDE9003201F12F028DF8CA
:100C000005208268D17600696A4608A1FCF7DCF904
:100C10001CBDD176006902B0054ABDE8104003A1B1
:100C2000FCF7D2B91B5B313B33006D00257300002C
:100C30008D150100020E0A70020C4A70020A8A70B9
:100C4000C8707047020E0A70020C4A70020A8A705D
:100C5000C870704770B5002404E00D5D165D7540E6
:100C60000555641C9C42F8D370BD10B54FF40C714F
:100C70000120F7F77DFB040001D0F7F712FB2046B7
:100C800010BD10B5040006D0F7F7FFFA2046BDE806
:100C90001040F8F78DBA10BDF7F70DBBF7F72BBB77
:100CA00000000020400300207F000000C00300205F
:100CB000D80300207F00000058040020000000003E
:100CC0000020004000000000002000400000000064
:100CD000C815010070040020A00C0100B00C010038
:100CE000A40C0100BC0C010040490100D00C010023
:100CF0009C0400202C6D0100280000201C6E0100C7
:100D0000FFFFFFFFFFFFFFFFFFFFFFFFFFFFFFFFF3
:100D100000000000000000000000D60106010000F5
:100D200000000000280D0100504A0100CC490100DC
:100D30000000000029A70000584A01009449010062
:100D40000000000021A90000644A0100244A0100BB
:100D500000000000F5B60000544A0100F849010007
:100D600000000000A9BA0000000000000000000020
:100D7000000000000000000000000000800D0100E5
:100D8000204B0100C04A010000000000BDAF000080
:100D90001C4B0100944A01000000000001B2000059
:100DA000244B0100EC4A01000000000079B400006F
:100DB000184B0100684A010000000000CDB500009A
:100DC0000000000000000000000000000000000023
:100DD00000000000D80D0100744B01004C4B0100D5
:100DE00000000000FDB000007C4B0100284B01001A
:100DF000000000008DB300000000000000000000B3
:100E0000000000000000000000000000100E0100C3
:100E1000D04B0100AC4B010000000000C5BD00003C
:100E2000C04B0100844B01000000000059BE0000CF
:100E3000C84B0100984B010000000000EDBE00000F
:100E400000000000000000000000000000000000A2
:100E500000000000580E0100A84C0100D84B010012
:100E6000200D01006DA60000BC4C0100184C0100D3
:100E7000780D010001AF0000B04C0100504C0100A2
:100E8000080E010081BF0000A44C01007C4C010051
:100E9000D00D010039C0000000000000000000007B
:100EA0000000000000000000104D0100C04C0100D7
:100EB000500E010021BA000000850000E85001003A
:100EC000018500007050010002850000D051010032
:100ED000038500007C4F010004850000B84F01002D
:100EE00010850000644D0100118500007C4E01005A
:100EF00012850000E44D010013850000A44D01009F
:100F000014850000A850010015850000244E010042
:100F1000168500002851010017850000A851010026
:100F200018850000D44E010019850000484E0100CC
:100F300040850000604E01004185000060510100C5
:100F4000428500003850010043850000BC4E01007E
:100F500050850000444D010060850000685201008A
:100F600061850000444F010062850000084F0100C8
:100F700070850000FC4D010071850000184D0100D6
:100F800000008000680000003F340000BD36000013
:100F9000AD3500007535000015350000F136000054
:100FA0006933000003008000680000003F34000047
:100FB000BD360000AD350000753500001535000068
:100FC000F136000069330000040080005800000082
:100FD0003F340000BD360000AD35000000000000C9
:100FE00000000000F13600006933000006008000B8
:100FF000680000003F340000BD360000AD35000041
:101000007535000015350000F1360000F53500009B
:1010100008008000580000003F340000BD3600008A
:10102000AD3500000000000000000000F1360000B7
:10103000F535000000008000D5340000E3360000E4
:10104000D931000001008000D5340000E3360000F3
:10105000D931000002008000013800003338000060
:10106000753700000200C00001380000333800006E
:10107000753700000200000101380000333800001D
:10108000753700000200800034010000E7380000DE
:10109000C7390000A73900009939000085390000E0
:1010A000F33900003F3800000200C00034010000A6
:1010B000E7380000C7390000A7390000993900005F
:1010C00085390000F33900003F38000002000001BC
:1010D00034010000E7380000C7390000A7390000DC
:1010E0009939000085390000F33900003F380000CD
:1010F0000300800037390000E13900007538000036
:101100000300C00037390000E139000075380000E5
:101110000300000137390000E13900007538000094
:101120000000005000030050C1ED0000E9F1000094
:101130000001002001000600000000001401002052
:10114000C35B0000637C777BF26B6FC53001672B5C
:10115000FED7AB76CA82C97DFA5947F0ADD4A2AFAB
:101160009CA472C0B7FD9326363FF7CC34A5E5F1B9
:1011700071D8311504C723C31896059A071280E267
:10118000EB27B27509832C1A1B6E5AA0523BD6B3BB
:1011900029E32F8453D100ED20FCB15B6ACBBE392B
:1011A0004A4C58CFD0EFAAFB434D338545F9027F17
:1011B000503C9FA851A3408F929D38F5BCB6DA21D0
:1011C00010FFF3D2CD0C13EC5F974417C4A77E3DFC
:1011D000645D197360814FDC222A908846EEB81452
:1011E000DE5E0BDBE0323A0A4906245CC2D3AC6215
:1011F0009195E479E7C8376D8DD54EA96C56F4EA20
:10120000657AAE08BA78252E1CA6B4C6E8DD741F30
:101210004BBD8B8A703EB5664803F60E613557B9F3
:1012200086C11D9EE1F8981169D98E949B1E87E9AD
:10123000CE5528DF8CA1890DBFE6426841992D0F5C
:10124000B054BB168D01020408102040801B36529A
:10125000096AD53036A538BF40A39E81F3D7FB7C01
:10126000E339829B2FFF87348E4344C4DEE9CB549D
:101270007B9432A6C2233DEE4C950B42FAC34E0836
:101280002EA16628D924B2765BA2496D8BD1257236
:10129000F8F66486689816D4A45CCC5D65B6926C4A
:1012A000704850FDEDB9DA5E154657A78D9D8490C4
:1012B000D8AB008CBCD30AF7E45805B8B34506D0C8
:1012C0002C1E8FCA3F0F02C1AFBD0301138A6B3AB8
:1012D0009111414F67DCEA97F2CFCEF0B4E67396F6
:1012E000AC7422E7AD3585E2F937E81C75DF6E474F
:1012F000F11A711D29C5896FB7620EAA18BE1BFCB1
:10130000563E4BC6D279209ADBC0FE78CD5AF41FE8
:10131000DDA8338807C731B11210592780EC5F6010
:10132000517FA919B54A0D2DE57A9F93C99CEFA06D
:10133000E03B4DAE2AF5B0C8EBBB3C835399611737
:101340002B047EBA77D626E169146355210C7D0003
:1013500010000000913E0000C93D000000000000A8
:101360000338FDD870470000200000004000000056
:10137000200000004000000080000000000100008C
:101380000008000000000000000000000000000055
:101390000800000010000000180000001A00000003
:1013A0000000000000000000080000001000000025
:1013B000180000001A0000001C00000000000000DF
:1013C0000000000000000000000100000003000019
:1013D000000700000009000000000000E013010009
:1013E0000C580100E857010000000000ADA4000007
:1013F00000000000000000000000000000000000ED
:10140000145801001C580100D8130100ADA40000BD
:1014100015D70000F7D60000EDD600000000000050
:1014200024140100845901006C59010000000000DF
:10143000ADAE0000885901005459010000000000C1
:10144000D7AE000000000000000000000000000017
:1014500000000000000000005C140100845901003D
:101460008C59010000000000CDB90000885901002E
:10147000E859010000000000F7B90000000000007A
:10148000000000000000000000000000000000005C
:1014900094140100545A0100285A01000000000071
:1014A00029AD00005C5A0100FC5901000000000059
:1014B00059AD000000000000000000000000000026
:1014C0000000000000000000CC140100A85A010038
:1014D000885A01001C140100E1AD0000A05A01006F
:1014E000645A01005414010035B90000B05A0100DB
:1014F000785A01008C140100BDAC0000000000000F
:1015000000000000000000000000000000000000DB
:1015100014150100FC5A0100B85A01000000000037
:101520001DC20000000000000000000000000000DC
:1015300000000000145B0100045B010000000000DB
:1015400031AB0000405B01001C5B0100C4140100D2
:1015500009AC0000585B0100445B01000000000082
:10156000E9BC0000005C0100605B01000C1501009B
:10157000F5C00000000000000000000000000000B6
:101580001B37001B38002C20001B5B4A001B5B6DC7
:1015900000082008001B5B4B00202D20001B5B482F
:1015A000001B5B366E001B5B324A0000000000002F
:1015B0000338FDD870471B5B3F336C002D682C202F
:1015C0002D2D68656C70000051570000C957000050
:1015D000E5560000E15700009D57000030313233DE
:1015E000343536373839414243444546000000001F
:1015F000F41501000C580100985C01000000000087
:1016000065E4000000000000000000000000000091
:1016100000000000BC5C01001C580100EC1501003A
:1016200065E40000556E6B6E6F776E206572726FA9
:101630007220636F646500000000000030610100EB
:1016400001000000F05F010002000000E45D010005
:10165000030000006460010004000000B8600100A5
:1016600005000000985F010006000000345F0100E3
:1016700007000000A060010008000000AC5F01004E
:1016800009000000106001000A000000186101005C
:101690000B000000CC5D01000C000000C45F0100E5
:1016A0000D000000686101000E0000009060010064
:1016B0000F000000CC60010010000000006101007C
:1016C000110000007C610100800000004C5F0100FF
:1016D00081000000885E010082000000485E010079
:1016E00083000000285E010084000000645E0100A9
:1016F00085000000705F0100860000007860010036
:1017000090000000145F010091000000085E0100DD
:1017100092000000D85F010000820000E06001003C
:10172000018200002C60010002820000486001007C
:1017300000840000A45E0100018400003C610100FF
:1017400002840000EC5E010003840000C85E01001A
:101750005DD8000031D800002FD80000FFFFFFFF48
:10176000FFFFFFFFFFFFFFFFFFFFFFFF0000000085
:10177000000000000000D60106010000010000008A
:1017800041A2000000000000A01701004C3C002016
:101790007F000000CC3C002001000000E1010100BE
:1017A00038630100C46201007C170100017300006E
:1017B00030630100406201009817010001730000CE
:1017C0006063010040630100000000000D73000031
:1017D00074630100506301000000000019730000F1
:1017E0000C58010064630100000000002573000034
:1017F00000000000000000000000000000000000E9
:1018000001000000213A0000000000001018010053
:10181000E46301007C6301000000000055740000D7
:10182000EC630100B063010000000000917400004F
:1018300000000000000000000000000000000000A8
:101840000000000048180100004F0100F46301008F
:10185000001801000000000028640100306401004D
:10186000081801000000000038630100C462010094
:101870007C170100A976000030630100406201007E
:1018800098170100A9760000606301004063010021
:1018900000000000B976000074630100506301008D
:1018A00000000000C37600004C64010010640100D9
:1018B000000000008D7300000C58010064630100FB
:1018C00000000000CD7600000000000000000000D5
:1018D00000000000000000005C6401006064010082
:1018E0004018010031730000637C777BF26B6FC599
:1018F0003001672BFED7AB76CA82C97DFA5947F013
:10190000ADD4A2AF9CA472C0B7FD9326363FF7CCEE
:1019100034A5E5F171D8311504C723C31896059A8B
:10192000071280E2EB27B27509832C1A1B6E5AA0AE
:10193000523BD6B329E32F8453D100ED20FCB15B99
:101940006ACBBE394A4C58CFD0EFAAFB434D338502
:1019500045F9027F503C9FA851A3408F929D38F5D6
:10196000BCB6DA2110FFF3D2CD0C13EC5F9744170D
:10197000C4A77E3D645D197360814FDC222A908884
:1019800046EEB814DE5E0BDBE0323A0A4906245C10
:10199000C2D3AC629195E479E7C8376D8DD54EA975
:1019A0006C56F4EA657AAE08BA78252E1CA6B4C641
:1019B000E8DD741F4BBD8B8A703EB5664803F60E9A
:1019C000613557B986C11D9EE1F8981169D98E9489
:1019D0009B1E87E9CE5528DF8CA1890DBFE64268A2
:1019E00041992D0FB054BB16C66363A5F87C7C8467
:1019F000EE777799F67B7B8DFFF2F20DD66B6BBDA0
:101A0000DE6F6FB191C5C5546030305002010103E3
:101A1000CE6767A9562B2B7DE7FEFE19B5D7D76297
:101A20004DABABE6EC76769A8FCACA451F82829D93
:101A300089C9C940FA7D7D87EFFAFA15B25959EB89
:101A40008E4747C9FBF0F00B41ADADECB3D4D46782
:101A50005FA2A2FD45AFAFEA239C9CBF53A4A4F7AD
:101A6000E47272969BC0C05B75B7B7C2E1FDFD1C06
:101A70003D9393AE4C26266A6C36365A7E3F3F41E4
:101A8000F5F7F70283CCCC4F6834345C51A5A5F44C
:101A9000D1E5E534F9F1F108E2717193ABD8D8736F
:101AA000623131532A15153F0804040C95C7C752FB
:101AB000462323659DC3C35E30181828379696A128
:101AC0000A05050F2F9A9AB50E0707092412123638
:101AD0001B80809BDFE2E23DCDEBEB264E272769A2
:101AE0007FB2B2CDEA75759F1209091B1D83839ED3
:101AF000582C2C74341A1A2E361B1B2DDC6E6EB229
:101B0000B45A5AEE5BA0A0FBA45252F6763B3B4D72
:101B1000B7D6D6617DB3B3CE5229297BDDE3E33E50
:101B20005E2F2F7113848497A65353F5B9D1D168D2
:101B300000000000C1EDED2C40202060E3FCFC1F04
:101B400079B1B1C8B65B5BEDD46A6ABE8DCBCB46CA
:101B500067BEBED97239394B944A4ADE984C4CD490
:101B6000B05858E885CFCF4ABBD0D06BC5EFEF2A2D
:101B70004FAAAAE5EDFBFB16864343C59A4D4DD708
:101B800066333355118585948A4545CFE9F9F910B7
:101B900004020206FE7F7F81A05050F0783C3C4456
:101BA000259F9FBA4BA8A8E3A25151F35DA3A3FEC2
:101BB000804040C0058F8F8A3F9292AD219D9DBC91
:101BC00070383848F1F5F50463BCBCDF77B6B6C1B0
:101BD000AFDADA754221216320101030E5FFFF1AD9
:101BE000FDF3F30EBFD2D26D81CDCD4C180C0C1489
:101BF00026131335C3ECEC2FBE5F5FE1359797A238
