:020000040000FA
:10000000886900201104000019040000310200007A
:100010001D0400001F040000210400000000000077
:1000200000000000000000000000000023040000A9
:10003000250400000000000027040000290400003F
:10004000FD0800002B040000C50A00002B0400007E
:100050002B0400002B040000310600002B040000DC
:100060002B0400002B0400002B0400002B040000D4
:100070002B0400000D0900002B0400002B040000DD
:100080002B040000350900002B0400002B040000A5
:100090002B0400002B0400002B0400002B040000A4
:1000A0002B0400002B0400002B0400002B04000094
:1000B0002B0400002B0400000000000000000000E2
:1000C0002B0400002B0400002B0400002B04000074
:1000D0002B0400002B0400002B0400002B04000064
:1000E0002B040000000000000000000000000000E1
:1000F000000000002B040000000000002B040000A2
:1001000000000000000000000000000000000000EF
:1001100000000000000000000000000000000000DF
:1001200000000000000000000000000000000000CF
:1001300000000000000000000000000000000000BF
:1001400000000000000000000000000000000000AF
:10015000000000000000000000000000000000009F
:10016000000000000000000000000000000000008F
:10017000000000000000000000000000000000007F
:10018000000000000000000000000000000000006F
:10019000000000000000000000000000000000005F
:1001A000000000000000000000000000000000004F
:1001B000000000000000000000000000000000003F
:1001C000000000000000000000000000000000002F
:1001D000000000000000000000000000000000001F
:1001E000000000000000000000000000000000000F
:1001F00000000000000000000000000000000000FF
:10020000DFF80CD000F0D6F9004800471D5A000076
:100210008869002000B583B002900091019244F2F9
:10022000010071466A4600F065FD03B000BD0000A4
:10023000094B1EF0040F1CBFEFF309801847EFF3C2
:1002400008800649064A884201D8904202D88D4665
:100250004FF0000018470000D50600008869002014
:100260008849002030B450E8012F93B2C489234458
:100270008489A34228BF1B1B0489A34202BFBFF38A
:100280002F8F002007E0C3EA020340E80134002C6E
:10029000E9D14FF001000A6030BC704750E8012FEF
:1002A000C2EA024240E801210029F7D1704730B488
:1002B00050E8022F1FFAA2F3C488A34202BFBFF383
:1002C0002F8F00200DE0C48923448489A34228BFD6
:1002D0001B1BC2EA034340E80234002CE8D14FF074
:1002E00001000A6030BC704750E8022FC2EA224287
:1002F00040E802210029F7D17047034653E8022F56
:10030000D988B2EB324F4FF0000017BF92B241EAEA
:10031000014142EA014104E05A68B2EB324F08BFA2
:10032000012043E80212002AE8D1704730B40446A5
:1003300054E8000F0D4644E80053002BF8D1156037
:1003400030BC704730B4044654E8000F40EA010561
:1003500044E80053002BF7D1156030BC704730B42F
:10036000044654E8000F00EA010544E80053002B5E
:10037000F7D1156030BC704730B4044654E8000F24
:1003800080EA010544E80053002BF7D1156030BC2A
:10039000704730B4044654E8000F00EB010544E810
:1003A0000053002BF7D1156030BC704730B40446C1
:1003B00054E8000FA0EB010544E80053002BF7D1EF
:1003C000156030BC704770B404464FF0000054E82C
:1003D000006F0D68AE4207BF44E80023012044E8E7
:1003E00000630E60002B1CBF0020F0E770BC70475C
:1003F00030B4044654E8000F88422CBF451A054625
:1004000044E80053002BF5D1156030BC7047000064
:100410000648804706480047FEE7FEE7FEE7FEE79E
:10042000FEE7FEE7FEE7FEE7FEE7FEE74509000020
:100430000102000000487047C43201002DE9FE436C
:10044000994615468846074601AC022942D3002D3D
:1004500040D000200290A8F101004FF0FF3600903C
:1004600022E000FB057201FB057011464A469047E9
:10047000002805DC54F82600304444F8260013E038
:1004800060682A4600FB057154F8040C00FB0570F7
:1004900007E00B7890F800C001F801CB00F8013BB1
:1004A000521E002AF5D1764254F8040C6168884245
:1004B000D7DC4B462A463846FFF7C0FF54F8040CF9
:1004C0004B46A8EB0001401C00FB05702A46491E64
:1004D000FFF7B4FFBDE8FE8310B5431A934209D27B
:1004E0008318881803E010F8011D03F8011D521E3F
:1004F000F9D210BD40EA01039B0703D009E008C907
:10050000121F08C0042AFAD203E011F8013B00F8D8
:10051000013B521EF9D210BDD2B201E000F8012B0E
:10052000491EFBD270470022F6E710B513460A4673
:1005300004461946FFF7F0FF204610BD421C10F894
:10054000011B0029FBD1801A704710B5002200E082
:10055000521C835C8C5CA34201D1002BF8D1D8B231
:10056000E1B2401A10BD034611F8012B00F8012B2F
:10057000002AF9D11846704730B5054600200346D9
:1005800000E05B1C934205D2EC5CC85C201A01D1F0
:10059000002CF6D130BD10B54843044605F0E4FB0D
:1005A000002805D00021002C02D0641E0155FAE776
:1005B00010BD0000064C074D06E0E06840F0010366
:1005C00094E8070098471034AC42F6D3FFF71CFEBE
:1005D000305301005053010070B58C1810F8015BC6
:1005E00015F0070301D110F8013B2A1106D110F8CC
:1005F000012B03E010F8016B01F8016B5B1EF9D1D0
:100600002B0705D40023521E0DD401F8013BFAE755
:1006100010F8013BCB1A921C03E013F8015B01F8C0
:10062000015B521EF9D5A142D8D3002070BD000055
:100630002DE9FC410025DFF8948000954FF4807689
:1006400001242F46019530460BF062FB38B1D8F8F3
:100650000403204203D030460BF050FB2543361DE7
:1006600064007F1CB6B2082FEDD34FF4BE74204651
:100670000BF04EFB48B120460BF040FB45F0004527
:100680006A46022100200BF041FA15F0FF0F16D048
:10069000012600242E420ED008EB8401D1F810056B
:1006A000D1F81015C0F30520094AC1F3014152F8F1
:1006B000242002B190477600641C082CEAD3002D58
:1006C00002DA68460DF0D2FEBDE8FC810060004011
:1006D0009C0900201CB582460BF0C6FE0BF04AFCBC
:1006E0000028FBD139485FEA0A05076839483A49CA
:1006F000374EA0EB01004FEAD0004FF0010808EBA5
:10070000004470881ED0002821D0204633A1AA6959
:100710000BF06EFD7088002819D0D5E90201CDE9F3
:100720000001D5E90023204632A10BF079FD708845
:1007300068B1E8690090D5E9042320463BA10BF09D
:1007400066FD04E018B1204642A10BF04DFD1F48A4
:10075000001D0068800705D5708818B120464A49F9
:100760000BF042FDDFF82491002500BF08FA05F0E8
:10077000384208D059F825202AB1708818B120468F
:1007800043A10BF035FD6D1C1A2DEFD3380608D5AB
:10079000708830B10D480C30026820463FA10BF044
:1007A00027FD380408D5708830B108481030026839
:1007B000204642A10BF01CFD0448C8300068C00769
:1007C00000D000BE504600F087F8000028ED00E0A1
:1007D000C402002058540100C05301004841524453
:1007E000204641554C5420617420307825303858CB
:1007F00000000000202052303A2020307825303888
:1008000058202052313A2020307825303858202086
:1008100052323A2020307825303858202052333A4E
:100820002020307825303858000000002020523138
:10083000323A2030782530385820204C523A202047
:1008400030782530385820205053523A20307825BF
:1008500030385800537461636B2076696F6C617433
:10086000696F6E3A20737461636B20706F696E7488
:100870006572206F75747369646520737461636B4E
:1008800020617265612E0000343D010030010020BE
:1008900043617573653A2025732E00004D656D4DDB
:1008A000616E616765204661756C74204164647295
:1008B0006573733A203078253038580042757320BC
:1008C0004661756C7420416464726573733A2030BC
:1008D0007825303858000000BFF34F8F0548016875
:1008E000054A01F4E06111430160BFF34F8F00BF7F
:1008F000FDE700000CED00E00400FA0510B50CF077
:1009000033FDBDE810400CF0AFBC0000064882B0DB
:100910000021016000680090044800680449C0B2EA
:10092000496802B00847000000D1004008D50040E7
:10093000DC00002002490248091F096800680847D6
:100940002801002030B54FF080500123D0E94C1031
:1009500000220D2906D18C07C4F80C21C4F81021FF
:100960004E4C22600D2955D14D4C24684D4D2C60C4
:100970004B4C241D24682D1D2C60494C08342468E0
:100980002D1D2C60464C0C3424682D1D2C60444CCD
:10099000103424682D1D2C60414C143424682D1D06
:1009A0002C603F4C183424683E4D20352C603C4C64
:1009B0001C3424682D1D2C60394C203424682D1DD6
:1009C0002C60374C243424682D1D2C60344C283482
:1009D00024682D1D2C60324C2C3424682D1D2C6075
:1009E0002F4C303424682F4D40352C602C4C34343F
:1009F00024682D1D2C602A4C383424682D1D2C6051
:100A0000274C3C3424682D1D2C60254C4034246830
:100A10002D1D2C600D2906D123480168C90702D07D
:100A20006FF0010101602148016841F4700101602B
:100A3000BFF34F8FBFF36F8F4FF01021D1F800023B
:100A4000002803DBD1F80402002822DA184C2360C6
:100A500018480368002BFCD01223C1F80032056847
:100A6000002DFCD0C1F8043201680029FCD02260BE
:100A700001680029FCD0BFF34F8F0C487C38016817
:100A80000D4A01F4E06111430160BFF34F8F00BFD5
:100A9000FDE70B490948086030BD000038050040FB
:100AA0000404001020C500400004004088ED00E070
:100AB00004E5014000E401400400FA050090D00381
:100AC0004C02002010B5054C206818B904A12B2059
:100AD00000F060FB2068BDE810400047D400002013
:100AE0002E2E5C2E2E5C2E2E5C2E2E5C2E2E5C2E40
:100AF0002E5C2E2E5C2E2E5C6D6F64756C65735CA7
:100B00006E7266785C647269766572735C73726328
:100B10005C7072735C6E7266785F7072732E6300C5
:100B200002E008C8121F08C1002AFAD170477047B6
:100B3000002001E001C1121F002AFBD1704730B52F
:100B40008B1A802181540121002403E05518491C8F
:100B50004455C9B29942F9D330BD30B58B1A002142
:100B6000DCB203E05518491C4455C9B29942F9D387
:100B700030BD02680B685A40026042684B685A40B8
:100B8000426082688B685A408260C268C9684A4085
:100B9000C260704770B58C1A0123002505E0D61895
:100BA00006445B1C06F8015CDBB2A342F7D30844A1
:100BB00000F8014C70BD002301E08354521C8A42AE
:100BC000FBD370477CB5DDE90645CDE9004505F06E
:100BD00009F97CBDFEB508AF97E870008DE870009C
:100BE00005F04BF9FEBDFEB508AF97E870008DE843
:100BF000700005F0B5F9FEBD05F0E8B97CB5DDE99A
:100C00000645CDE9004505F0EDF97CBD7CB5DDE993
:100C1000065419B1012901D003487CBDCDE9005427
:100C200005F008FA7CBD0000009FFFFF10B54FF4EF
:100C30008C71012005F04CFC040003D005F088FA0B
:100C4000204610BD002010BD10B5044605F079FA0D
:100C50002046BDE8104006F07FBD00002DE9F047BA
:100C60000E4602C89708491C4FEA81080546002431
:100C700007E000BF06EB84000DF02AFD45F82400D4
:100C8000641CBC42F6D34FF00109002626E000BFE9
:100C900005EB8400BE4250F8040C03D109F10109B0
:100CA000002605E026B1062F10D9042E0BD00DE04A
:100CB0004FEA30600B490DF0BFFF0B4A12F80910E4
:100CC00080EA016002E007490DF0B6FFE11B55F82C
:100CD0002110414045F82410641C761C4445D7D3AC
:100CE000BDE8F08718FB000018FC000005F034BADE
:100CF00005F098BA2DE9FE4314460F46804672B6B9
:100D00000BF0B2FB0BF036F90028FBD12448254A42
:100D10006FF48041A0EB0200204E4FEAD0004FF06C
:100D2000010218EB010102EB00451ED07088012979
:100D300012D020B128463A461BA10BF059FA2048A0
:100D40000068C00700D000BE224603B039464046C6
:100D5000BDE8F04300F062B80028F0D0D4E90032DA
:100D6000284618A10BF04BFAE9E770880028E6D076
:100D7000A0680CF0E1F90346D4E90001CDE90010C8
:100D80000297284616A1A2680BF054FA7088002832
:100D9000D5D028461CA10BF027FAD0E7DC020020B2
:100DA00088540100C0530100554E4B4E4F574E2002
:100DB0004641554C54206174203078253038580015
:100DC000F0ED00E0415353455254494F4E20464107
:100DD000494C45442061742025733A257500000074
:100DE0004552524F52202575205B25735D2061745A
:100DF0002025733A25750D0A50432061743A20303E
:100E00007825303878000000456E64206F662065D4
:100E100072726F72207265706F72740008B5012370
:100E20008DF800309DF80030144B186059609A60BE
:100E30006FF48041401807D001280FD1DA60D868DC
:100E400000689861D86807E01A611869806858617D
:100E500018690068986118694068D861186858680E
:100E60009868D868186958699869D86972B600BFD7
:100E70009DF800000028FBD162B608BD540A00208E
:100E8000014803F0DDB90000F000002070B5144601
:100E90000E46050004D10BA14FF4027000F07AF960
:100EA0003CB12868012E44610AD000210161002074
:100EB00070BD04A140F2092000F06CF9072070BD5C
:100EC0000121F3E72E2E5C2E2E5C2E2E5C2E2E5C46
:100ED0002E2E5C2E2E5C2E2E5C2E2E5C636F6D7083
:100EE0006F6E656E74735C6C696272617269657352
:100EF0005C74696D65725C6170705F74696D657258
:100F0000322E630038B511480823582241680091F9
:100F10000F49006807F09EFC002815D10D4A69466C
:100F20000D4803F091F904000ED101210A4803F0A5
:100F30008EFA0123094A1946074803F033F9064996
:100F4000012008390870204638BD000004FB00006D
:100F5000740A0020B1E70000F0000020FFFF7F00CE
:100F600070B516460D46040004D10DA14FF406706D
:100F700000F010F994F8200008B1002070BDA661BF
:100F800003F048FE401941F10001C4E90201206963
:100F900000B125612146BDE8704000200DF0AEBFD4
:100FA0002E2E5C2E2E5C2E2E5C2E2E5C2E2E5C2E7B
:100FB0002E5C2E2E5C2E2E5C636F6D706F6E656ED8
:100FC00074735C6C69627261726965735C74696D7B
:100FD00065725C6170705F74696D6572322E63005A
:100FE00010B5040004D107A140F22E2000F0D2F881
:100FF0000020214684F82000BDE8104001200DF0BB
:101000007DBF00002E2E5C2E2E5C2E2E5C2E2E5CC4
:101010002E2E5C2E2E5C2E2E5C2E2E5C636F6D7041
:101020006F6E656E74735C6C696272617269657310
:101030005C74696D65725C6170705F74696D657216
:10104000322E630010B50DF0EBFA012803D00449ED
:101050001D2000F09FF8BDE8104000F013B800001C
:10106000143C010010B50DF0DBFA012803D004494F
:101070002B2000F08FF8BDE8104000F00BB8000006
:10108000143C010072B602480168491C01607047B7
:101090002001002003490868401E086000D162B6A4
:1010A000704700002001002070B5054608680C4616
:1010B000411C04D00AF00EFE20680AF0FBFC6068B8
:1010C000411C02D000210AF0E3FC2968A069C1F8A4
:1010D0002405607D227D29681043C1F86C05D4E9A0
:1010E00000122868C0F81425C0F80C15207D0128CE
:1010F00014D1A068411C02D000210AF0C9FCE068AC
:10110000411C04D00AF0E6FDE0680AF0D3FCD4E903
:1011100002122868C0F80825C0F8101570BD70B517
:10112000054608680C46411C04D00AF0DDFD206825
:101130000AF0CAFC6068411C02D000210AF0B1FC30
:101140002968A069C1F82405607D217D2A680843CB
:10115000C2F86C05D4E900122868C0F80C15C0F874
:101160001425207D012814D1A068411C02D0002143
:101170000AF097FCE068411C04D00AF0B5FDE06875
:101180000AF0A2FCD4E902122868C0F80825C0F8C9
:10119000101570BD1CB56A46CDE90001002144F26E
:1011A0000200FFF7A7FD1CBD2DE9F04788B00D46F2
:1011B000DDE91561DDE91397DDE9108CDDF848A064
:1011C000002409B1102904D948F2625008B0BDE8E2
:1011D000F0870830012D03D085B148F21750F5E7AC
:1011E000CDE9056102AD014685E88C00CDE9008CB2
:1011F0004B4652460E4801F04EF916E0CDE9046127
:101200000697CDE90223CDE9008C01464B465246B4
:10121000074801F0E7F820B1012804D048F216543D
:1012200003E0002401E048F260542046CEE70000CD
:1012300024FD000010B543685A88802A07D0C02AD0
:1012400005D0B2F5807F02D048F2185010BD1B784F
:10125000022B02D048F2035010BDD208083000F033
:1012600074FE002010BD10B5083000F067FE0020AD
:1012700010BD70B5049C2568102D02D248F21450A0
:1012800070BD150702D048F2115070BD00F009F88A
:1012900018B1BDE870400DF029BA10202060002080
:1012A00070BD2DE9FC4789460021984615460C463D
:1012B00000F1090600F11C070CE009EB0401CDE97F
:1012C0000018334610220121384604F08BFD01003E
:1012D00003D11034AC42F0D30846BDE8FC872DE9B9
:1012E000F04786B08246DDE91354DDE91196DDE969
:1012F0000FC7201FDDF838800D2801D2E00704D089
:1013000048F2625006B0BDE8F087D81F072802D324
:1013100048F26150F6E70AF10800012903D069B1EB
:1013200048F21750EEE7CDF800800396CDE901C7EB
:10133000CDE90454494605F0D2FC09E0CDF800801F
:101340000396CDE901C7CDE90454494605F0B0FC48
:1013500006B0BDE8F0470DF0ECB970B51D46049C31
:101360002368102B02D248F2145070BD0C30064690
:1013700005F038FF20B92946304605F07BFE18B14C
:10138000BDE870400DF0B2B910202060002070BDA3
:1013900070B51446049D2A68A24202D248F2145045
:1013A00070BD220708D042681278032A04D0022AAE
:1013B00002D048F2115070BD224600F03EF90028DC
:1013C000F9D12C6070BD2DE9F04788B091460C46EC
:1013D000DDE915218246DDE91356DDE911C7081F55
:1013E000DDF840800D2804D348F2625008B0BDE813
:1013F000F0870AF10800012C03D074B148F21750AD
:10140000F4E78DE80811CDE90512CDE903764B46E6
:101410002A46012106F0DAF909E0CDE9008CCDE990
:101420000221CDE904764A46294606F09BF908B028
:10143000BDE8F0470DF07DB92DE9F0470C46416855
:10144000002507464A884FF48079802A07D0C02AB1
:1014500005D04A4503D048F21850BDE8F0870B7814
:1014600000F1080200F11C064FF0000848F2175185
:1014700007F10C00092B42D2DFE803F00505050552
:10148000090911111900012C0BD094B909E0012CA4
:1014900000D074B987F8088004F05AFE31E0022CBD
:1014A00007D111211046FFF73EF83046F4E7022C31
:1014B00001D00846D1E7054605F040FF786840882E
:1014C000802805D0C02805D0484510D1042002E06E
:1014D000022000E0032005F009FF01000AD02846A1
:1014E00005F090FF48B10DF001F9054609E048F21A
:1014F000025506E048F2165503E0454601E048F281
:1015000003553C722846A8E770B542680D4604466C
:101510005188802907D0C02905D0B1F5807F02D03D
:1015200048F2185070BD117804F1080021B1032968
:101530000DD048F2035070BD064605F0F3FB60681D
:101540002A4602214388304605F0EFFB09E00646B3
:1015500006F0F7F960682A4602214388304606F013
:10156000F4F90028E7D0BDE870400DF0E2B80B4672
:1015700010B500F1090110221846FEF7ADFF00205A
:1015800010BD10B510220930FEF7A6FF002010BDD7
:1015900070B54268034600F11C0415780C30092D23
:1015A00021D2DFE805F0050516160E0E16161900F5
:1015B000187A01280DD052884FEA040004F0CCFDBF
:1015C0000DE01B7A5288012BF8D100BF04F02AFEEF
:1015D00005E052882046F9E7528805F0D9FDBDE8BC
:1015E00070400DF083B848F2035070BD10B54168EB
:1015F0000A7800F11C010C30092A0FD2DFE802F052
:1016000008080808050508080A0004F09AFD03E028
:101610000846FAE705F04CFE002010BD48F20350E2
:1016200010BD10B541680830097819B106F07CF991
:10163000002010BD05F06AFBFAE72DE9F0431546DE
:10164000426889B000F11C04167800F10902092EE5
:101650004AD2DFE806F005051A0E23233B3B3F0084
:10166000CDE90013017A13462A46204604F0BAFB5E
:1016700034E00020079003A88DE80B00134607AA6A
:101680002946204604F06CFC28E0CDE90013017ADD
:1016900013462A46204604F031FC1FE00746002688
:1016A00088461C4628070CD06FF0210017E0A319CC
:1016B00008EB0602397A484604F088FC78B91036FF
:1016C00001E007F10C09AE42F1D312E02A46FFF720
:1016D000E8FD03E02A460C3005F084FD48B109B06E
:1016E000BDE8F0430DF002B848F2025009B0BDE881
:1016F000F0830020FAE70000F0B500220D4BCA602D
:10170000C1E901230C4B0D4D1446EE1A0A600CE0A2
:1017100003EB0215EF683F79FF2F05D0A04202D1FD
:10172000A8680860F0BD641C521CB2EB161FEFD312
:10173000F0BD000054010100A0530100C05301009E
:101740002DE9F04FADF53F7D14460E468346B2F5C8
:10175000C07F05D96FF037000DF53F7DBDE8F08FF4
:101760004FF4D0716846FEF7DEFE68A804F0F0FC86
:10177000200E8DF81000200C8DF81100200A8DF835
:10178000120020208DF8170006AD8DF81340224678
:1017900031462846FEF7A0FE8020285504F119089E
:1017A0000020BAA90854401C1028FBDB802268A83E
:1017B00004F038FD070051D10025AA466E46CDF849
:1017C000B8A2CDF8BCA2CDF8C0A244460DF52E7942
:1017D000CDF8C4A217E000204946335C0A5C5A40A9
:1017E0000A54401C1028F8DB1036102C01D31020AE
:1017F00000E02046241AAEAB1A46012168A804F086
:10180000E5FB07002AD1002CE5D1B2A8284410221C
:10181000AEA9FEF761FE9DF803001035401C8DF85F
:101820000300202DCADB8022B2A968A804F0FAFCCC
:10183000070013D1B6AE5C46002533461A46012197
:1018400068A804F0C3FB070008D1102231462046E7
:10185000FEF742FE10341035202DEEDB68A804F0B0
:1018600070FC4FF4D071684606F0D4FE2021B2A877
:1018700006F0D0FE1021BAA806F0CCFE1021AEA8CA
:1018800006F0C8FE1FB12021584606F0C3FE3846B8
:1018900062E7000041094A4200EB421010B5044AD9
:1018A0000124844052F82130234342F8213010BDF6
:1018B0009C0100202DE9F0470546861C91460F4605
:1018C0004FF0010A0020FFF7BDFB1B4C04F21C483F
:1018D00060683860D4E90101184F401A3968081A65
:1018E0000EE00121404607F000F803F071FF0146C9
:1018F000404606F0FAFFD4E90101401A3968081A97
:10190000401C8642EDD8B9F1000F03D0052065F3E5
:10191000891002E0062065F39F5061683A68114023
:1019200004EB8101C8606068304460600020FFF70C
:1019300099FB5046BDE8F08764250020C4010020D3
:1019400070B50D4604460A2902D10D21FFF7F8FFB4
:10195000A0682268411CA1601554D4E901018142AC
:1019600004D32046BDE8704009F0D2BE70BD00002F
:10197000044881684068814201D1012070470020FD
:1019800070470000642500207CB5DDE90645CDE9FF
:10199000004504F0A3FD7CBDFEB508AF97E87000DC
:1019A0008DE8700004F0E5FDFEBDFEB508AF97E8D8
:1019B00070008DE8700004F01DFEFEBD04F050BE06
:1019C00010B54FF48A71012004F082FD040003D0A9
:1019D00004F004FF204610BD002010BD10B50446E1
:1019E00004F0F5FE2046BDE8104005F0B5BE00004D
:1019F000F0B503680C684068496863401D4D484075
:101A000055FA83F10C78A5F5407101EB136601F5E9
:101A10008077367844EA0664C3F30746C3F30723A6
:101A2000BE5D4FEA064C01F50076F35C4CEA0323F9
:101A30001C4351FA80F107EB106309781B7841EAE7
:101A40000361C0F30743C0F30720F35C285C1B0469
:101A500043EA0020014384EA316081EA304180EAB0
:101A60003120136881EA30214B40136051684140B6
:101A70005160F0BD1028010004F0B4BE04F0F2BEC5
:101A800013460A46022105F050B900002DE9FF4F28
:101A900095B06FF00C07289EDDF888A0249C022EDC
:101AA00035D0102E33D8F00731D1AAF1070007281E
:101AB0002DD2B4F57F4F2AD8CAF10F00C5B200204D
:101AC0008DF81C000CB1012100E0002140EA8110DA
:101AD000B11E490840EAC100691E084303918DF810
:101AE0001C0052460DF11C090DF11D001899FEF75E
:101AF000F3FC00214A46179806E000BFC1F10F032E
:101B0000491CD054C9B2000AA942F7D318B13846CB
:101B100019B0BDE8F08F00200B900C900D900BA930
:101B20000E900B5C19F80020884653400B54401C63
:101B3000C0B21028F5D30DF14C0B0B461022CDF896
:101B400000B0159805F078FC0028E1D1002C5CD09D
:101B50002398019000200790089009900A90200A8D
:101B60008DF81C008DF81D400E2C01D2274600E098
:101B70000E273A460DF11E000199FEF7ADFC0198C3
:101B8000E41B38440190002007AF41463B5C0A5CEF
:101B90005A400A54401CC0B21028F7D30BAB102295
:101BA0001946CDF800B0159805F046FC0028AFD1D5
:101BB00029E0102C01D9102000E0204605900020DB
:101BC0000A9007900890099007A8059A0199FEF7D6
:101BD00083FC002041463B5C0A5C5A400A54401C8E
:101BE000C0B21028F7D30BAB10221946CDF800B0C5
:101BF000159805F021FC00288AD105980599241A2A
:101C0000019808440190002CD3D103988DF83C0032
:101C10000FAC5246601C1899FEF75EFC04EB0A00FC
:101C20002946401CFEF77FFC01208DF84B002598CB
:101C3000179C0190DDF898A076E0102C01D91027B0
:101C400000E02746169800BB0020079008900990F6
:101C50000A903A4607A80199FEF73EFC00204A4642
:101C6000414612F800C00B5C83EA0C030B54401C85
:101C7000C0B21028F5D30BAB10221946CDF800B036
:101C8000159805F0D9FB002891D107AB10220FA9B8
:101C9000CDF800B0159805F0CFFB002887D108E0FB
:101CA00001990A5C19F800104A400AF80020401C0B
:101CB000C0B2B842F4D31698012820D10020079072
:101CC000089009900A903A46514607A8FEF704FC8E
:101CD00000204B46414613F800C00A5C82EA0C0221
:101CE0000A54401CC0B21028F5D30BAB1022194681
:101CF000CDF800B0159805F09FFB0028C4D10198DD
:101D0000E41B38440190BA4400200FA90AE000BF48
:101D1000C0F10F028B5C5B1C13F0FF038B5403D1EB
:101D2000401CC0B2A842F3D3002C86D1002002464A
:101D30000FA904E0C0F10F03401CCA54C0B2A8426E
:101D4000F8D307AB1022CDF800B0159805F074FB5E
:101D5000002899D14A464146145C0B5C63400B5401
:101D6000401CC0B21028F7D332460BA92798FEF7C3
:101D7000B3FB0020CCE613460A46052104F0D5BF8C
:101D800010B54421012004F0A3FB040001D004F0AD
:101D9000C9FF204610BD10B5044604F0B7FF204629
:101DA000BDE8104005F0D8BC7FB505460068164672
:101DB0000C460A2805D00C2803D00E2801D0AFF31A
:101DC000008008460CF084FC0090201D0CF080FC84
:101DD000019004F108000CF07BFC029004F10C006F
:101DE0000CF076FC0390286805EB0014241D2146B6
:101DF0006846FEF7BEFE2D6819E000BF03F075FAD5
:101E0000684603F0AFFA21466846FEF7B2FE009836
:101E100003F052FA0090019803F04EFA01900298F4
:101E200003F04AFA0290039803F046FA0390103C3C
:101E30006D1E6846E2D103F058FA684603F092FA44
:101E400021466846FEF795FE314600980DF026FBC8
:101E5000311D01980DF022FB06F1080102980DF0EA
:101E60001DFB06F10C0103980DF018FB7FBD00006F
:101E70002DE9FF410546006816460C460A2805D0A4
:101E80000C2803D00E2801D0AFF3008008460CF0D8
:101E90001FFC0090201D0CF01BFC019004F10800B9
:101EA0000CF016FC029004F10C000CF011FC0390F5
:101EB000281D044601466846FEF75BFE01271034E4
:101EC0001BE000BF0CF09EFE68460CF0CFFD0098B2
:101ED00006F050FC0090019806F04CFC019002982E
:101EE00006F048FC0290039806F044FC039021465B
:101EF0006846FEF73EFE10347F1C2868B8426846EC
:101F0000E0D80CF07FFE68460CF0B0FD2146684634
:101F1000FEF72FFE314600980DF0C0FA311D0198F2
:101F20000DF0BCFA06F1080102980DF0B7FA06F1BF
:101F30000C0103980DF0B2FABDE8FF8110B504461C
:101F4000F421FEF7F0FA207810BD70B50E46154664
:101F50000446F421FEF7E7FA102D05D0182D05D020
:101F6000202D05D0AFF300800A2002E00C2000E015
:101F70000E2020602A4631462046BDE87040FEF71C
:101F80006DBE2DE9FF5F9046DDE90E7B0E46824671
:101F90004FF0000920E03568A8EB0504BC4200D9E9
:101FA0003C46B9F1000F05D10AEB05002146039A22
:101FB000FEF7B2FA1DB9444501D14FF001092919C4
:101FC000414505D151465A4610989047002001E0FE
:101FD000306820443F1B3060002FDCD1BDE8FF9FFC
:101FE0002DE9FF4F83B01746DDE91354129EDDF84B
:101FF00040B089468246002E31D04FF00108012EB4
:102000001DD0022E06ABCDF800802BD0CDE90154B7
:10201000504600F037F89DF844105846594526D0F0
:10202000B61E0096CDE9015403463A46494650464D
:10203000FFF7A7FF11AB3A46CDF8008009E09DF805
:1020400018009DF8441006AB48408DF81800CDF8F4
:102050000080CDE901544946504600F013F807B01E
:10206000BDE8F08FCDE9015400F00CF8E2E7761EF0
:102070000096CDE9015403463A4649465046FFF7DB
:1020800080FFECE77FB50DF1200C9CE87000CDE9F6
:102090000045CDE9025600F001F87FBD2DE9F05F63
:1020A0005FEA00090AA8164690E8100C0F461D4684
:1020B0004ED03968B1424BD205B99CBB5FEA0A00E9
:1020C00046D00D9870B351B34CB3701AA04200D3F0
:1020D0002046804601EB090042461946FEF7FCF90E
:1020E0003968454401EB0800A4EB08043860B042AD
:1020F00015D10D98494624B15246904700203860CA
:102100000DE05A46F9E7386860B90D98B44229469F
:1021100001D15A4600E0524690473544A41BB442D0
:10212000F1D217E014E03968701AA04200D32046BB
:10213000804601EB090042462946FEF7CDF9396891
:10214000454401EB0800A4EB08043860B04201D319
:10215000AFF30080002CE6D1BDE8F09F2DE9F05FE1
:102160005FEA000A0AA8914690E8C0080D461C469E
:1021700009D02968494506D204B927B95FEA0B009E
:1021800001D00D9830BBAFF30080286830B95146BC
:102190005A460D9890474846C5F80090A9EB0001B3
:1021A000B84200D338460AEB01033246002108E06A
:1021B00014F801C013F801808CEA080C02F801C081
:1021C000491C84468142F3D329683F1A091A16181C
:1021D00064442960002FD8D1BDE8F09F2DE9FF4766
:1021E000044600681E461746884604F1080905683B
:1021F00012E02B464A46414668460DF05FF9D4E9A5
:1022000000104A464B68694698472A464946384670
:10221000FEF762F9A8442F44761EEAD2BDE8FF8794
:10222000E0E802120A681946FEF756B970B504468E
:10223000086888B016460D46102801D0AFF300801C
:102240002821204606F039FA04A8296806F035FA54
:1022500004AA6B68114630469847694604A800F006
:1022600087F96946084600F05FF904F108016846FD
:1022700000F093F96946084600F056F904F1180198
:10228000684600F08AF9C4E9005608B070BD10B580
:102290000B46816D41B101680A6800F13001BDE86B
:1022A00010401846FEF718B9AFF3008010B5044689
:1022B000FFF7BCFF2046BDE81040AFF300807FB5BC
:1022C000002504460095019502950395D4E9001276
:1022D0006B462830FFF7A4FF102104F1400006F000
:1022E000ECF925656565A5657FBD00002DE9F04128
:1022F0000446006886B00F46066822480025DBB118
:10230000216D8B181B0702D0002312B104E00123BA
:10231000FBE709B9616D39B15FF00001D4F858C02D
:10232000BCF1000F2AD101E00121F7E752EA010CCC
:1023300024D003B121B301251249CDE90204CDE92E
:1023400000213B4604F1500104F14000324688462A
:102350000746FFF7A3FE002D0DD0206D01AB311A0B
:10236000094A002083E81700009080233246414646
:102370003846FFF735FE06B0BDE8F081AFF30080C8
:102380000248D9E7F53900005B3A0000493A0000FD
:102390001FB5074CCDE90240CDE9002302680B468A
:1023A00000F1280112681830FFF7D8FE1FBD0000A9
:1023B000DD3D00002DE9F0410D461F46164604465E
:1023C0003421FEF7B0F80020E06229682163A062A2
:1023D000C4E90056394604F108002A68BDE8F04116
:1023E000FEF77AB82DE9FF4FB9B08146DDE94A849E
:1023F000DDE94876DDE946BA014601A83A9AFFF7D9
:1024000055FF25AD33463A46002101A8009501F05D
:102410009FFA29AE53465A46012101A8009601F0C1
:1024200097FA2DAF0097DDE93B23022101A801F0C7
:102430008FFA1CB1D9F80000A04201D2AFF300809E
:10244000002031AA06E0295C3B5C5940335C5940CE
:102450001154401CA042F6D311464046002205E02C
:1024600010F8015B11F8013B6B401A43641EF7D270
:102470001AB101203DB0BDE8F08F25AB494618A840
:102480003A9AFFF797FFDDE93B1318A84C9AFFF73C
:102490007FFF0020EEE72DE9FF4FB1B00E46DDE9EA
:1024A0004095DDE93EBA0A468046014601A8449FB0
:1024B000FFF7FCFE25AC2B464A46002101A80094FC
:1024C00001F046FA29AD53465A46012101A800956C
:1024D00001F03EFA25AB3246414618A8FFF76AFFE5
:1024E000DDE9331318A8429AFFF752FF2DAE00968C
:1024F000022101A8349B429A01F02AFAD8F8000080
:10250000B84201D2AFF30080002007E0215C325CCA
:1025100051402A5C5140439A1154401CB842F5D3B3
:1025200035B0BDE8F08F000038B50C460FA1002291
:1025300009680091C16842EA4102E260CA0F8168FD
:1025400042EA4102A260CA0F416842EA4102626067
:102550000068C90F41EA40012160C00F02226946AC
:102560000CF036FAE1684840E06038BD00870000B2
:1025700070B50C4605460CF0B2F82060281D0CF032
:10258000AEF8606005F108000CF0A9F8A06005F154
:102590000C000CF0A4F8E06070BD70B504460D4668
:1025A00000680CF083FF291D60680CF07FFF05F1C7
:1025B0000801A0680CF07AFF05F10C01E068BDE8A5
:1025C00070400CF073BF70B50D4690B004460146E4
:1025D00040226846FDF780FF0026684600F075F847
:1025E000761C0A2EF9D300982168084400900198BF
:1025F0006168084401900298A16808440290039819
:10260000E1680844039004982169084404900598FF
:102610006169084405900698A169084406900798E6
:10262000E169084407900898216A084408900998CD
:10263000616A084409900A98A16A08440A900B98B4
:10264000E16A08440B900C98216B08440C900D989B
:10265000616B08440D900E98A16B08440E900F9882
:10266000E16B08440F9000206946820011F8203089
:10267000AB5431F820302A441B0A537051F82030F3
:102680001B0C937051F82030401C1B0ED370102887
:10269000EBD34021684605F0BDFF10B070BD10B50A
:1026A0008421012003F014FF040003D004F0ACFBEC
:1026B000204610BD002010BD10B5044604F09EFB5E
:1026C0002046BDE8104005F047B82DE9F8430C243A
:1026D0008046082304220021009400F036F80D25DE
:1026E0000923052201214046009500F02EF80E2610
:1026F0000A23062202214046009600F026F80F2702
:102700000B23072203214046009700F01EF80A23FE
:10271000052200214046009700F017F80B230622FF
:1027200001214046009400F010F8082307220221FE
:102730004046009500F009F8092304220321404691
:10274000009600F002F8BDE8F88370B550F821500B
:1027500050F82260049C2E4440F8216050F8245028
:1027600075404FEA354540F8245050F823602E4418
:1027700040F8236050F8225075404FEA355540F834
:10278000225050F82160354440F8215050F8241070
:1027900069404FEA316140F8241050F823400C445E
:1027A00040F8234050F8221061404FEA716140F830
:1027B000221070BD10B5054CB2F5807F03D104F036
:1027C00031FB002800D0204610BD0000009FFFFF15
:1027D00010B504F061FB10F1510F00D1004810BD9D
:1027E000009FFFFF10B5E821012003F071FE0400F7
:1027F00003D004F0EAFB204610BD002010BD10B548
:10280000044604F0D1FB2046BDE8104004F0A4BF0C
:102810001FB590F8D01011F00F010CD000220092DB
:10282000019202920392C1F110026946843005F0D0
:1028300004FF04B010BD0020FBE7000010B5054CFC
:10284000B2F5807F03D104F0D0FB002800D02046F1
:1028500010BD0000009FFFFF0249084490F93000BE
:10286000704700009C09002070B5816804468A7F8B
:10287000002A4DD0C87F00284AD0121A0844D5B289
:1028800000F120016A1C1F30FDF726FEA068C17F01
:10289000491EC177A068817F491E81778DB30822C8
:1028A0001C49206908F0F2FE204605F0ABFF817854
:1028B000C078814211D1A06817A2C17F43180821B6
:1028C0002046203307F088FF204600F03FF92946D4
:1028D0002046BDE8704001F00BBB204600F0A6F991
:1028E000204600F033F9A0680BA2C17F43180821ED
:1028F0002046203307F070FF2046BDE8704000F00E
:102900005DB92069BDE87040044A03A108F0BEBE6D
:1029100070BD0000482B00002573000061FF00001F
:1029200070B504468068827FC17F521A12F0FF059D
:1029300048D0084400F121012A462030FDF7CCFDA3
:10294000A068817F491E8177204605F05BFF817872
:10295000C07881420CD1A0681BA2C17F4318082116
:102960002046203307F038FF40F26946C4B913E02F
:10297000204600F05BF9204600F0E8F8A06812A2BB
:10298000C17F431808212046203307F025FF204649
:10299000BDE8704000F012B90CA13046FEF7FAFB1A
:1029A000206918B909A13046FEF7F4FB164A06A1C2
:1029B000206908F06BFE6D1EE9B22046BDE870404C
:1029C00001F096BA70BD0000257300002E2E5C2E1B
:1029D0002E5C2E2E5C2E2E5C2E2E5C2E2E5C2E2E31
:1029E0005C2E2E5C636F6D706F6E656E74735C6CC5
:1029F00069627261726965735C636C695C6E726650
:102A00005F636C692E63000065FF00002DE9F041F3
:102A1000044680680F46D0F84811C27F11F00106C5
:102A2000817FA1EB0203DDB20BD07F2901D3002D02
:102A30007ED0A068C17F0844002180F8207066B174
:102A400013E07F297CD2002DF3D0831803F12001FD
:102A50002A46481CFDF740FDEBE7A068827F521C28
:102A6000D2B28277A068203281544DB3204605F05F
:102A7000C9FE8178C07881420ED1A06831A2C17FA1
:102A8000431808212046203307F0A6FEA81BC1B238
:102A9000204601F02DFA21E0204600F0C7F8A0689A
:102AA00028A2C17F431808212046203307F094FE56
:102AB000204600F083F80121204601F0F3FA0DE0F2
:102AC0003EB1A068827F521CD2B28277A0682032C9
:102AD00081543A461CA1206908F0D8FDA168C87F3E
:102AE000401CC877204601F0F0F90028204603D0AA
:102AF000BDE8F04101F008BA01F026FF00281FD020
:102B0000204605F07FFE0546C078A978401A401E91
:102B1000C1B2204601F07AF9204601F0F5F9E878D3
:102B2000A978401AC1B2204601F0C8FA287800E01E
:102B300006E0401EC1B22046BDE8F04101F0B2BA45
:102B4000BDE8F081257300002563000070B5040026
:102B50004FF4D77503D108A12846FEF71BFB206967
:102B600018B905A12846FEF715FB2069BDE870409D
:102B7000104A11A108F08ABD2E2E5C2E2E5C2E2E3E
:102B80005C2E2E5C2E2E5C2E2E5C2E2E5C2E2E5C51
:102B9000636F6D706F6E656E74735C6C6962726189
:102BA000726965735C636C695C6E72665F636C69A5
:102BB0002E63000059FF00002573000070B504006B
:102BC0004FF4DD7503D108A12846FEF7E3FA20692A
:102BD00018B905A12846FEF7DDFA2069BDE8704066
:102BE000104A11A108F052BD2E2E5C2E2E5C2E2E06
:102BF0005C2E2E5C2E2E5C2E2E5C2E2E5C2E2E5CE1
:102C0000636F6D706F6E656E74735C6C6962726118
:102C1000726965735C636C695C6E72665F636C6934
:102C20002E63000053FF00002573000070B5040000
:102C30004FF4DA7503D108A12846FEF7ABFA2069F4
:102C400018B905A12846FEF7A5FA2069BDE870402D
:102C5000104A11A108F01ABD2E2E5C2E2E5C2E2ECD
:102C60005C2E2E5C2E2E5C2E2E5C2E2E5C2E2E5C70
:102C7000636F6D706F6E656E74735C6C69627261A8
:102C8000726965735C636C695C6E72665F636C69C4
:102C90002E63000050FF0000257300002DE9F04F67
:102CA0004FF0000995B005464F464C4600F05AFFDC
:102CB000284602F0ABF9284601F0B4F8284601F0A6
:102CC00004F910B9284601F01FF9AA680C2301A9DC
:102CD0000EA8203202F074FF03460E9840B15BB19B
:102CE0004CA20221284607F077FD15B0BDE8F08F11
:102CF000284601F009F9F8E74C484B490026A1EBBA
:102D000000080DF1040A834613E008D348A00090A0
:102D10004CA202212846019B07F05EFDE5E70BEB84
:102D2000C604606801685AF82900FDF70EFC18B166
:102D3000761CB6EBD80FE8D9207820B143A140F635
:102D40007F10FEF727FA00200F90A968486088607E
:102D5000C86008616168C86828B14AC9AA68C2E940
:102D60000360C2E90113606809F101040026D0F88C
:102D700008800E98844235D25AF8240042A1FDF70B
:102D8000E4FB40B35AF8240040A1FDF7DEFB10B38A
:102D900010A832460090761C0FAB2146404600F04A
:102DA00071FEFEB10F98E8B101685AF82400FDF7F2
:102DB000CCFB0028DDD10F98C16839B190E84810EC
:102DC000AA682746C2E903C1C2E901360026641C8D
:102DD000D0F80880CDE7A868D0F8481141F002018A
:102DE000C0F84811A868036933B10E980AEB87024E
:102DF000C11B2846984704E026A20221284607F076
:102E0000EBFCA868D0F8481121F00201C0F8481185
:102E10006BE700006E6F74207465726D696E61748B
:102E200065643A2025630A00905301005053010065
:102E30003A20636F6D6D616E64206E6F7420666FF3
:102E4000756E6400257325730A0000002E2E5C2E1B
:102E50002E5C2E2E5C2E2E5C2E2E5C2E2E5C2E2EAC
:102E60005C2E2E5C636F6D706F6E656E74735C6C40
:102E700069627261726965735C636C695C6E7266CB
:102E80005F636C692E6300002D6800002D2D68655E
:102E90006C700000506C65617365207370656369C8
:102EA0006679206120737562636F6D6D616E642E4B
:102EB0000A0000008068D0F84801C0F3C0007047E5
:102EC0002DE9F0410446C0688EB00D4640680026EA
:102ED0003246006801A909F06DFC18B100200EB05F
:102EE000BDE8F0816DB1019809F0F3FBA168D1F85C
:102EF0003801401CC1F8380100F0070001287AD1E0
:102F00000126204605F07EFC05468078012804D97C
:102F1000401EC1B2204601F0D1F82878012804D91A
:102F2000401EC1B2204600F0E3FF2046FFF70EFE30
:102F30002EB132A20221204607F04EFC5BE04FF09A
:102F400000080023082202A9019809F0D1FB049887
:102F50000590BDF80C00ADF81800BDF80E00ADF8F6
:102F60001A008DF81D800298082700F00300012840
:102F700002D0022818D032E002983B46860AC0F3FD
:102F8000C2008DF81C00029808A9C0F38315AA009E
:102F9000019809F0ADFB2069009005AB2A4608A90D
:102FA000304609F075FA1AE00298850DC0F3C200A8
:102FB0008DF81C00082D01D22E4600E008263B4665
:102FC000324608A9019809F093FB3744AD1B05AAC6
:102FD000314608A8236909F03BF9002DEAD1019890
:102FE00009F077FBE068002201A94068006809F059
:102FF000E1FB0028A5D0012071E700004C6F73743D
:10300000206C6F6773202D20696E63726561736534
:10301000206C6F67206261636B656E6420717565FB
:1030200075652073697A652E0A0000002DE9F0416C
:103030001E4617460D46040000D01DB909A1FD200B
:10304000FEF7A8F8606818B906A1FE20FEF7A2F8FE
:10305000606833463A4601680C692946A446BDE8D3
:10306000F04160472E2E5C2E2E5C2E2E5C2E2E5CA8
:103070002E2E5C2E2E5C2E2E5C2E2E5C636F6D70C1
:103080006F6E656E74735C6C696272617269657390
:103090005C636C695C6E72665F636C692E630000D2
:1030A0002DE9FC41002604460127019601AB0122CF
:1030B00069462046FFF7BAFF0198002836D09DF8F0
:1030C00000007F28F2D809F045FBA068417821B1C3
:1030D00001296FD002296ED18DE09DF800500D2D91
:1030E00009D00A2D07D0D0F84821002161F38D12B4
:1030F000C0F8482122E0D0F84811C1F3871129B166
:10310000D0F84811C1F38711A94217D1D0F848115E
:1031100065F38D11C0F84811A068817F41B1204648
:10312000FFF7BCFD0221204600F0F4F8BDE8FC8169
:10313000C0F84461204600F0E7FEF3E7092D1ED0F9
:1031400004DC002DB2D0082D04D121E01B2D12D0BB
:103150007F2D26D0FDF76EF90068405D10F03E0F20
:10316000A4D02046FFF7A6FE30B39DF800102046FD
:10317000FFF74CFC9AE7A1680120487096E72046CB
:10318000FFF798FE002891D0204600F0DDF88DE78B
:103190002046FFF78FFE002888D02046FFF764FB0B
:1031A00084E72046FFF786FE0028E3D02046FFF79D
:1031B000B7FB7BE716E019E0A1689DF80020887F47
:1031C0007F28D7D2C87F0B18401CC87783F82020EF
:1031D000A068C17F084480F82060A168887F401CF7
:1031E000887763E79DF800105B2901D0002100E09B
:1031F000022141705AE7002141702046FFF75AFE34
:10320000002893D09DF80000422840D01BDC3328D2
:103210007CD012DC312872D03228ABD1A1680320D7
:103220004870A068D0F84811D0F8482127EA010179
:1032300061F30002C0F8482138E7342856D041280D
:1032400098D1012124E0462853D01BDC432823D009
:1032500044288FD1204605F0D5FA05460078A97993
:10326000491C884202D1A978012987D001284FF052
:10327000010120462FD000F03BFEA168C87F401E10
:10328000C87713E748283DD04C2889D1C9E70021E9
:10329000204601F0A1FD09E7204605F0B3FA0546F6
:1032A00000786978884203D1A978EA78914298D069
:1032B000697988424FF00101204606D100F0A6FD51
:1032C0006979204600F014FE01E000F0EBFEA168F1
:1032D000C87F401CD4E700F0F1FE6979204600F079
:1032E000E1FEA068C17F491EC177DFE6A168032027
:1032F0004870204600F096FDD8E607E0FFE7A16899
:1033000003204870204600F0B6FDCFE6A1680320F8
:10331000487046E78268022911700CD1826800214A
:1033200082F820108268D1778268917702A2032107
:10333000036807F051BA704725730000002801D0D8
:10334000FDF7FCB8704700002DE9F04F054600205E
:10335000A7B007461590064620900690A868817F82
:10336000C1F17F01C9B25FEA010970D0C27F00F1EB
:103370002001A030FDF7B0F8A8680024C17F084400
:1033800080F8A040FDF756F821900168A8680C234A
:10339000C27F0244D27F895CC0F84441AA6801F030
:1033A000010A07A916A8A03202F00AFC0798FFF745
:1033B000C5FF00F0FF08A34617941894169818B19B
:1033C0005044401EB0426CD8BAF1000F01D000202A
:1033D00005E007A850F82600FFF7B0FFC0B280460E
:1033E000002419A822460090641C17AB31465846A9
:1033F00000F048FB179800286CD0016807A84246E7
:1034000050F8260001F0E2FF0028EAD018987F1C4F
:10341000F0B117980068FFF791FF0699C0B2884293
:1034200000D90690B9F1000F2ED022A8009018AB59
:1034300031465846159A00F025FB179801681898F0
:1034400001EB08020168002001EB080316E08DE0A3
:10345000601E209017980068FFF770FFC0B20690BA
:10346000A0EB080048450FDAC0B20CE013F800C02A
:10347000614506D1401C10F0FF0010D0115C0029FE
:10348000F4D1814500D98146601E15901798189097
:10349000A7D266A20421284607F09EF91AE0FF2071
:1034A000EFE7002419A822460090641C17AB3146B0
:1034B000584600F0E7FAECB31798002856D0016898
:1034C00007A850F82600FDF740F80028EAD1179821
:1034D000D0F808B0BBF1000F09D0179838B1169991
:1034E000761CF6B201EB0A008642FFF467AF002FAC
:1034F0003CD0012F43D000212846069A0AF01CFE3A
:10350000209C0DF11C0A19A822460090641C17ABE0
:103510003146584600F0B6FA1798424601685AF804
:10352000260001F053FF40B117987F1E069A0168EC
:10353000284600E01DE00AF0FFFD002FE3D146A27F
:10354000032128462B6807F047F9AB6843A20821FE
:103550002846203307F040F9284600F06DFD189802
:103560004A4601682846414400F056FB27B0BDE8B2
:10357000F08F2EA20421284607F02EF9F6E79BF8DB
:10358000000038B119A8009018AB31465846159A7A
:1035900000F078FA18980068FFF7D0FE404506D092
:1035A00018984A4601682846414400F035FB2198A6
:1035B000A9680268C87F0B1893F82030D25CD20744
:1035C00015D0897F8842D1D2284605F01BF984782E
:1035D000A868C17F491CC177284605F013F9807897
:1035E000A0421FD10121284600F05CFDBEE7D1F8C2
:1035F0004801C00711D0D1F8480120F00100C1F8FE
:10360000480120212846FFF701FAA868D0F84811A0
:1036100041F00101C0F84811A8E720212846FFF732
:10362000F5F9A3E7284600F06FFC9FE7546162209C
:1036300066756E6374696F6E3A20636F6D6D616E4F
:10364000647320636F756E746572206F7665726641
:103650006C6F7765642E0A000A25730025730000DD
:1036600070B505460C0004D107A140F60B20FDF70C
:1036700091FD002D06D0A068D0F8481141F020013E
:10368000C0F8481170BD00002E2E5C2E2E5C2E2E30
:103690005C2E2E5C2E2E5C2E2E5C2E2E5C2E2E5C36
:1036A000636F6D706F6E656E74735C6C696272616E
:1036B000726965735C636C695C6E72665F636C698A
:1036C0002E63000070B5044640680D4690F828004F
:1036D00030B1A0680068FDF783FC08B108280CD160
:1036E000012685B1606907F0C5FF616800220831D5
:1036F000606907F07BFF08B1062070BD606880F844
:103700002960002070BD606890F8280048B9074A19
:103710000021A068FDF7BAFB6168002881F82860E5
:10372000F0D12046BDE870400BF020B965EE0000F6
:1037300070B5044640680D46026060680022436030
:10374000606880F82820606880F82920606820225E
:103750000830FCF7C1FE2C61074A2946606907F072
:1037600045FF050005D1E06809F03CFC206909F03F
:1037700039FC284670BD000089EF00002DE9F041BA
:103780001C0016460F46054603D10649D220FDF718
:1037900001FD266022463946E868BDE8F04109F09F
:1037A00037BB00009845010010B50446406907F09A
:1037B00061FFA0680068BDE81040FDF711BC000083
:1037C0002DE9FC411D0016460F46044603D11A4957
:1037D000E620FDF7DFFC2E602A463946206909F015
:1037E00063FB050025D16069144A0178515C19B169
:1037F000001D0AF0CDFB02E00C300AF089F9C0B9D7
:10380000FF20009001236A4601A9206909F0A6FB68
:1038100078B900980199C2B2606907F01BFF0546AC
:10382000606890F8290020B11DB92069009909F05D
:1038300081FB2846BDE8FC8198450100A4000020DA
:103840002DE9F8431F4614468846050002D0B8F11A
:10385000000F03D11EA1CE20FDF79CFC6868006814
:1038600018B91BA1CF20FDF795FC002628E000BF6A
:10387000686808EB06016B460268D2F80CC0224665
:10388000E04718B112A1D920FDF784FC00988442CA
:1038900003D20FA1DA20FDF77DFC00980644241A1C
:1038A00070B9A868017803290AD000BFD0F8481180
:1038B0008906FBD5D0F8481121F02001C0F8481145
:1038C000002CD5D1002F01D000983860BDE8F883D6
:1038D0002E2E5C2E2E5C2E2E5C2E2E5C2E2E5C2E22
:1038E0002E5C2E2E5C2E2E5C636F6D706F6E656E7F
:1038F00074735C6C69627261726965735C636C6934
:103900005C6E72665F636C692E63000070B5084C74
:10391000050009D010342168002907D0086820600C
:10392000496828468847F6E70834F4E770BD000088
:1039300038090020054A012120B1012805D19170E4
:10394000FFF7E4BF51700020FAE770473809002004
:103950002DE9FF4707460068DDF830901D460468F2
:1039600090460E46ACB121466846FCF7DCFD0DEBF7
:10397000040000F8016C3846FEF7A1FC5DB100239D
:10398000224669463846FEF7B1FC01232A464146E5
:1039900004E0AFF300800123224669463846FEF773
:1039A000A5FC49463846FEF772FCBDE8FF870000DB
:1039B00070B50025102A03D0082A04D00C4870BD29
:1039C00087240F2301E01B240723CE5C45EA46052C
:1039D000C554CD5CED095B1EF7D509781044C909C3
:1039E000494210F8012D0C4062400270002070BD69
:1039F000009FFFFF1FB5044601236A462830FEF7EB
:103A0000EDFB2168606D0968084460651FBDF0B575
:103A1000044689B0236868461D68002304E0CE5C34
:103A2000D75C7E40C6545B1CAB42F8D301460123F1
:103A300004AA04F12800FEF7D1FB2168606D096833
:103A40000844606509B0F0BD10B5044600F10802F5
:103A5000FFF7DDFF0120A06510BD10B5044600F1A1
:103A60001802FFF7D4FF0120A06510BD70B5002437
:103A700004E00D5D165D75400555641C9C42F8D34D
:103A800070BD00002DE9F05F1C000A9F15468846B6
:103A9000064604D121A14FF48970FDF77BFB27B9BD
:103AA0001EA140F21310FDF775FB4FF00009B8F1AD
:103AB000000F0BD01EB3307838B3726839462846F1
:103AC00090473868D8B12760BDE8F09F2249234865
:103AD000A1EB0008B5EBD80F14D2DFF884A00026C4
:103AE000834609E00BEBC607786801685AF82500A1
:103AF000FCF72BFD20B1761CB6EBD80FF2D301E01A
:103B0000786808E0C4F80090DEE7706800EB051004
:103B100001680029F6D02060D6E700002E2E5C2E2A
:103B20002E5C2E2E5C2E2E5C2E2E5C2E2E5C2E2ECF
:103B30005C2E2E5C636F6D706F6E656E74735C6C63
:103B400069627261726965735C636C695C6E7266EE
:103B50005F636C692E6300009053010050530100B5
:103B6000580200202DE9F04185680646002495F8AA
:103B70002000002811D0A046FCF75CFC0746006836
:103B800004F1200104F10104695CE4B2415CC9075D
:103B900005D0002CF4D185F82080BDE8F081641EAA
:103BA00014F0FF040FD0A87F021B04F12000291895
:103BB00005F12000521CFCF78FFCB168887F001BC8
:103BC0008877B168C877B2683D68937FD0181F3096
:103BD0000446002102E0491CC9B2401E0778EF5D8F
:103BE000FF07F8D18442D8D05B1A203302F8038053
:103BF000B268907F401A9077B168C877CDE710B56A
:103C0000D0E90234D1E90220D11AA04101D3012028
:103C100010BD002010BD00002DE9F04115460F0039
:103C2000044604D123A140F22D60FDF7B3FAA06849
:103C3000817FC27F8B1A2944DEB27F2937D8002DBD
:103C400035D0104400F1200105F120021044721C0F
:103C5000FCF742FCA0682A46C17F08443946203060
:103C6000FCF73AFCA0682030FFF768FBA16820A2AF
:103C70008877A068C17F431808212046203306F0CA
:103C8000ABFDA068C17F2944C177204600F01DF933
:103C900018B9204600F058FE10B1204600F034F963
:103CA000002E04D02046BDE8F04100F0C5B9BDE8C3
:103CB000F08100002E2E5C2E2E5C2E2E5C2E2E5CB3
:103CC0002E2E5C2E2E5C2E2E5C2E2E5C636F6D7065
:103CD0006F6E656E74735C6C696272617269657334
:103CE0005C636C695C6E72665F636C692E63000076
:103CF0002573000030B100680549884205D048F2BC
:103D00000250704748F20150704700207047000091
:103D10004145414430B100680549884205D048F228
:103D20000250704748F20150704700207047000071
:103D30006341455302681368526831B19A4202D315
:103D40008068801A07E0981A70479A4201D3D01A07
:103D500070478068C01A401C70472DE9F04389B055
:103D6000884604466E4620213046FCF7DCFB0025E1
:103D700004F120091020211811F8012D521C12F015
:103D8000FF020A7002D1401E0028F4DC33462246AE
:103D90000121484602F01AF9070017D110351036F4
:103DA000202DE7DB694618F800200B5C53400B54CC
:103DB000401C2028F7DB8022484602F033FA070037
:103DC00004D104AD95E80F0084E80F002021684677
:103DD00004F020FC09B03846BDE8F08370B5044615
:103DE000D4E9002053680A4604F108010D469847BB
:103DF000E06A4119206B01E0002806D0401E0A5CF1
:103E0000521C12F0FF020A54F6D070BD002904D0F3
:103E10000A46006901A107F039BC70471B5B2564A5
:103E20004200000070B5054604F0ECFC0446007842
:103E30006178884203D1A078E17888421AD0E1788D
:103E4000A078814204D9081AC1B22846FFF7DEFFE4
:103E500020786178884205D9401AC1B2284600F01E
:103E600047F804E0081AC1B2284600F01BF9A86818
:103E7000817FC17770BD70B5054604F0C3FC044670
:103E800001788079401C814202D1A07801281BD0A2
:103E9000A078012804D9401EC1B2284600F00EF9CE
:103EA0002078A179884206D9401A401EC1B228461E
:103EB00000F01EF805E0081A401CC1B2284600F0C8
:103EC000F1F8A9680020C87770BD10B504460068F5
:103ED000FFF734FA0146A068C27F407E1144B1FB6F
:103EE000F0F200FB121008B1002010BD012010BD3F
:103EF000002904D00A46006901A107F0C7BB70473A
:103F00001B5B256444000000006901A107F0BEBBF3
:103F10000A0000002DE9FC47002604468DF80460E5
:103F200080683546B146B0468021A030FCF7FBFAE8
:103F30004049206907F0AAFB206907F0E9FB002748
:103F40006B46012201A92046FFF770F80098D8B10E
:103F50009DF804001B2806D0A16891F8A0101B2929
:103F6000EED152281FD0A26808F1A001505408F1E8
:103F7000010000F0FF08B8F1090F0AD9A168042078
:103F800081F8A090BDE8FC872A494FF6C010103197
:103F9000884700980028D3D17F1CBFB2B7F57A7F3D
:103FA000CED30D20EEE7A16808F1A0004A4601F843
:103FB0000090A16891F8A1005B2803D081F8A020AF
:103FC0000B20DFE702206FF02F0309E005EB8505EA
:103FD00003EB4505401C3D44C0B2ADB2802808D279
:103FE00000F1A007CF5D3B2FF0D1401CC0B280286C
:103FF00009D30C20C6E700BF06EB860603EB460696
:104000003E44B6B2F1E700F1A007CF5D002FF3D137
:10401000FA20FA2E01D9087500E00E75FA2D02D9A2
:10402000A168887501E0A0688575A06880F8A02067
:104030000020A7E771FF000070B5054604F0E2FB21
:1040400004468078E178884201D1012600E000260C
:104050002846FFF73AFF18B9284600F075FC10B162
:104060002846FFF751FF1EB160782178401A12E010
:10407000E078A178401AC1B2284600F01FF82078F5
:104080006178884206D9401AC1B22846BDE870401E
:1040900000F008B8081AC1B22846BDE87040FFF722
:1040A00027BF0000002904D00A46006901A107F0DB
:1040B000EDBA70471B5B256443000000002904D063
:1040C0000A46006901A107F0E1BA70471B5B25644D
:1040D000410000002DE9F04107460D460846FCF777
:1040E0002DFA06462B4611A20821384606F074FB2D
:1040F00014A20821384606F06FFB00240DE02007CB
:1041000004D116A20221384606F066FB2B5D14A2EC
:104110000821384606F060FB641CB442EFD33846F1
:10412000BDE8F0410DA2082106F056BB446563725C
:10413000797074656420746578743A0D0A25730D7E
:104140000A000000446563727970746564207465C8
:104150007874202D2041534349493A000D0A00004C
:10416000253032782000000010B50021024804F00C
:10417000D2FB80F3100010BD802900204FF4803264
:1041800002FA01F100F0C8BA00684FF4A86202EB2D
:104190008101405870474FF4A07202EB810189B24F
:1041A00000F0FEBA2DE9F041984617460E4605008C
:1041B00003D113A17020FCF7EDFF4FF4A07000EBCA
:1041C000860081B228684FF48034B44027F07F47DE
:1041D000C0F808432868C0F84843286808F028FF5A
:1041E000286800EB8600C0F840752868C0F8444392
:1041F000B8F1000F02D02868C0F80443BDE8F08190
:104200002E2E5C2E2E5C2E2E5C2E2E5C2E2E5C2EE8
:104210002E5C2E2E5C2E2E5C636F6D706F6E656E45
:1042200074735C6C69627261726965735C74696DE8
:1042300065725C6472765F7274632E6300000000C6
:104240000068D0F8040570472DE9F04715460E4682
:10425000040003D139A12F20FCF79CFF1EB937A120
:104260003020FCF797FF1DB934A13120FCF792FFF5
:1042700060794249DFF80491DFF80CA141F8205041
:10428000617909F1040909EBC1003D4902793D4812
:10429000081AC7084AB1BAF80200082402284AD30B
:1042A000022000EB074039A143E03588D4F80080B4
:1042B000B5F5805F04D33EA14FF4AB70FCF76AFF05
:1042C000C8F80855B67894F90450082E03D345A1D0
:1042D0004520FCF75FFF002D4FEA461004DB05F197
:1042E000E02585F8000405E005F00F0101F1E0216B
:1042F00081F8140D94F904000121002809DB00F075
:104300001F0201FA02F24009800000F1E020C0F82B
:104310000021627909EBC2021171617949F83140DB
:10432000BAF802000024032805D3032000EB07405D
:104330003AA107F059FF2046BDE8F0872E2E5C2EEB
:104340002E5C2E2E5C2E2E5C2E2E5C2E2E5C2E2EA7
:104350005C2E2E5C636F6D706F6E656E74735C6C3B
:1043600069627261726965735C74696D65725C64BF
:1043700072765F7274632E630000000024010020D7
:1043800048540100C0530100BC0200205254432095
:10439000696E7374616E636520616C7265616479C6
:1043A00020696E697469616C697A65642E00000029
:1043B0002E2E5C2E2E5C2E2E5C2E2E5C2E2E5C2E37
:1043C0002E5C2E2E5C2E2E5C6D6F64756C65735C9E
:1043D0006E7266785C68616C2F6E72665F72746371
:1043E0002E6800002E2E5C2E2E5C2E2E5C2E2E5C57
:1043F0002E2E5C2E2E5C2E2E5C2E2E5C696E74652D
:1044000067726174696F6E5C6E7266785C6E7266FC
:10441000785F676C75652E68000000005254433A5F
:1044200020696E697469616C697A65642E000000A8
:1044300090F90400002809DB00F01F0201219140DF
:104440004009800000F1E020C0F8001270470A46E1
:10445000022100F073B94FF4827100F0A1B900009D
:1044600010B5040003D104A16120FCF793FE20687D
:104470000121016010BD00002E2E5C2E2E5C2E2E20
:104480005C2E2E5C2E2E5C2E2E5C2E2E5C2E2E5C38
:10449000636F6D706F6E656E74735C6C6962726170
:1044A000726965735C74696D65725C6472765F7263
:1044B00074632E630000000010B5040003D104A152
:1044C0006720FCF767FE20680121416010BD0000F5
:1044D0002E2E5C2E2E5C2E2E5C2E2E5C2E2E5C2E16
:1044E0002E5C2E2E5C2E2E5C636F6D706F6E656E73
:1044F00074735C6C69627261726965735C74696D16
:1045000065725C6472765F7274632E6300000000F3
:104510002DE9F05F9B4615460C46060003D136A1F7
:10452000A720FCF737FE4FF4803000FA04F84FF470
:10453000A07000EB84001FFA80FA25F07F45414609
:10454000304600F0E9F83068D0F8047500EB8401DB
:10455000D1F84095C1F840755146306808F068FDC3
:10456000A9EB070020F07F40012806D1102008F0B9
:10457000DBFE5146306808F05BFD3068D0F804750A
:10458000C0F84483E91B21F07F423068012A00EB28
:10459000840010D0C0F840553068D0F804156FF092
:1045A0007F476A1A521E22F07F42A7EB0B03934209
:1045B00017D362B118E06D1CC0F84055102008F008
:1045C000B3FE3068D0F80405B8420AD10CE000EB25
:1045D00084006D1CC0F840553068D0F8040588424E
:1045E00002D00D20BDE8F09F01224146304600F088
:1045F000A5F80020F6E700002E2E5C2E2E5C2E2E55
:104600005C2E2E5C2E2E5C2E2E5C2E2E5C2E2E5CB6
:10461000636F6D706F6E656E74735C6C69627261EE
:10462000726965735C74696D65725C6472765F72E1
:1046300074632E63000000002DE9F04180460E46B1
:104640001F48FBF77BFF05461EA20821404606F0E7
:10465000C3F8002414E0375DFBF7ECFE0068C05D92
:1046600010F03E0F06D03B461BA20821404606F044
:10467000B3F804E019A20821404606F0ADF8641C26
:10468000AC42E8D316A20821404606F0A5F8002463
:104690000DE0200704D119A20221404606F09CF843
:1046A000335D17A20821404606F096F8641CAC4220
:1046B000EFD34046BDE8F04110A2082106F08CB8C7
:1046C00090070020456E637279707465642074658C
:1046D00078743A0D0A000000256300002E000000E7
:1046E0000D0A456E63727970746564207465787420
:1046F000202D2041534349493A0000000D0A000093
:10470000253032782000000010B50846114606F02A
:1047100099FE002010BD000070B50C46050003D1C5
:1047200005498D20FCF736FD2868C0F84843286805
:10473000C0F8084370BD00006047000070B5164621
:104740000C46050003D106A18320FCF723FD286851
:10475000C0F84443002E02D02868C0F8044370BD5E
:104760002E2E5C2E2E5C2E2E5C2E2E5C2E2E5C2E83
:104770002E5C2E2E5C2E2E5C636F6D706F6E656EE0
:1047800074735C6C69627261726965735C74696D83
:1047900065725C6472765F7274632E630000000061
:1047A00070B50C46050003D106A19420FCF7F2FC7D
:1047B0002868015921B1214608F03AFC012070BD5A
:1047C000002070BD2E2E5C2E2E5C2E2E5C2E2E5CBC
:1047D0002E2E5C2E2E5C2E2E5C2E2E5C636F6D704A
:1047E0006F6E656E74735C6C696272617269657319
:1047F0005C74696D65725C6472765F7274632E635B
:10480000000000002DE9F05F17460E00814670D0D1
:1048100013B1F9B2FFF746FC0024FBF70BFE82460A
:10482000006800E0641C315D415CC907FAD10025D5
:104830003046FEF783FDD9F80810001B4A7ED11BD5
:10484000814228D306EB040805E000BF18F80510E4
:104850000A290CD06D1C8542F8D33119D9F8100003
:1048600006F014FF4846BDE8F05FFFF74DBBD9F8EE
:10487000100006F04DFF414600232A464846FEF749
:10488000DFFF2C444846641CFFF73EFBF9B2484664
:10489000FFF708FCE1E78B46DAF8001006EB0408A6
:1048A00018F805000B5CDB0702D0AB460A2804D0E1
:1048B000E819904201D26D1CF2E7D9F8100006F019
:1048C00027FF414600235A464846FEF7B9FF5C449D
:1048D000DAF8000000E0641C315D415CC907FAD1E0
:1048E0004846FFF711FBF9B24846FFF7DBFB9EE7AE
:1048F000FFE7BDE8F09F000010B5002821D0114B64
:104900000022001F196803E0814203D80A46496863
:104910000029F9D152B11368841A9C4204D100686D
:1049200018441060104602E0506000E0186039B191
:1049300002680B1A934203D10B681A44026049685B
:10494000416010BD5002002010B504460068FEF71B
:10495000F5FC0146A068827F407E1144B1FBF0F275
:1049600000FB121008B1002010BD012010BD13463D
:104970000A46022102F0E9BF13460A46052102F069
:10498000E4BF10B54FF4C871012001F0A1FD04008F
:1049900001D002F0D6FF204610BD10B5044602F04B
:1049A000C3FF2046BDE8104002F0D6BE2DE9F04F0F
:1049B00087B0044600200190029003900490059077
:1049C00001A802AB009010221946204602F034FDE7
:1049D00000286AD102989DF80F1000BA20F0FF035A
:1049E0009DF80B009DF8175003430398002600BA6A
:1049F00020F0FF00084304994FF0614709BA21F005
:104A0000FF029DF813100A430599C4E93266C4E910
:104A1000126609BA21F0FF01C4E942032943C4E93F
:104A20002212042501F00106A6FB076C5FEA52087A
:104A30004FEA31015B0883EA060304EBC50648EA46
:104A4000C0724FEA3000C6E93203C6E912124FEADB
:104A50006505002DE6DC022304EBC30101F14802E9
:104A6000F1E93260D2E900958246012017E000BFEB
:104A700004EBC00CE346DCE9327C01EBC008774074
:104A80008CEA0A0CC8E9007CDBE9127C02EBC00866
:104A900087EA09078CEA050CC8E9007C401C9842AB
:104AA000E6DB5B00082BD7DD002007B0BDE8F08F08
:104AB0002DE9F84F8B46C97BDFF8ECE001F00F01E0
:104AC00000EBC1044FF00F0CD4E93231D4E9127479
:104AD0001BF80C50BCF10F0F05F00F094FEA151A27
:104AE0001BD01E073D0945EA047546EA141607F077
:104AF0000F081C09CDF800803EF8383000EBC908DB
:104B00001F0444EA017487EA1117D8E9323163407F
:104B10007940D8E912746F4074401E073D0945EA98
:104B2000047546EA141607F00F081C093EF83830E1
:104B300000EBCA081F0444EA017487EA1117D8E998
:104B4000323163407940D8E912746F407440BCF14F
:104B5000010CBDD5080E1070080C5070080A90703A
:104B6000180ED17040EA01201071180C40EA014083
:104B70005071180A40EA01609071D371200E1072D2
:104B8000200C5072200A9072380ED47240EA042031
:104B90001073380C40EA04405073380A40EA04604D
:104BA0009073D773BDE8F88FC0310100F0B50D4C9C
:104BB0000246002004F11C0504F138034AB154F800
:104BC0002060964205D353F8206055F82070BE420D
:104BD00007D153F820608E4203D8401C0728EDD33C
:104BE0000020F0BD38FD000010B501460020FFF7A1
:104BF000DDFF024951F8200010BD000038FD000023
:104C000018B112B1002011607047014870470000D0
:104C1000009FFFFF10B50B48FFF712FB094A083A47
:104C2000D2E90434C018D2E9063244F10001C31AB3
:104C300071EB020204D24FF08072801841F1000142
:104C400010BD0000F0000020F0B5002398B192B133
:104C500080240025156049B346181D4616F8017CCE
:104C600007B1012747EA05031768AB4205D000BF2B
:104C70004FF0010503E01148F0BD4FF00005A1F130
:104C8000010C05FB0CF547EA0507176016F8015CF7
:104C900002D04FF0010601E04FF0000615FB06F5CB
:104CA00085EA0405ECB2491ED6D10CB1012000E022
:104CB00000204FF41E4110FB01F0F0BD009FFFFFEC
:104CC000F0B548B142B1431813F8013CCD1A156054
:104CD0008B4203D9012202E00F48F0BD00221BB134
:104CE0000024144300220CE00124FAE7865C5E40B5
:104CF000AA4201D3012700E000277E432643F4B2F5
:104D0000521C8A42F2D30CB1012000E000204FF483
:104D10001E4110FB01F0F0BD009FFFFF70B548B1D0
:104D200042B1431813F8013CCC1A14608B4203D9EA
:104D3000012202E0104870BD002223B1002313437A
:104D40000022491E0CE00123F9E7855CA24201D351
:104D5000012600E0002615FB06F51D43EBB2521CB0
:104D60008A42F2D30BB1012000E000204FF41E4133
:104D700010FB01F070BD0000009FFFFF30B5002365
:104D800080B17AB100241460A1B145181C4615F811
:104D9000015C05B1012545EA04031568A34203D06F
:104DA000012402E0044830BD00244C432543156033
:104DB000491EEAD1002030BD009FFFFF4FF00131B6
:104DC00001EAD01101EBC10101EB410100F07F309C
:104DD00081EA400070470000FEB5002604460096B8
:104DE000019602968068E9B3D0E950128A4272D0E7
:104DF000D0F83C0100286ED02046FFF73CF8A068B0
:104E0000D0F84451002D69D0002309226946284674
:104E100007F06EFCA1689DF808500098C1F84401A5
:104E2000A06800230922D0F84401694607F060FC1D
:104E3000A1689DF808200923D1F844012031521CB3
:104E400007F056FCA1689DF80800C877A1689DF896
:104E5000080088779DF80800A84202D22046FDF796
:104E600075FE00E00BE0A3682BA20821204620334A
:104E700005F0B2FC2046FFF728F868BB43E0D0F805
:104E80004401002847D02046FEF7F5FFA068002324
:104E90000922D0F84401694607F02AFCA06801996C
:104EA000C0F84411A0680029857FB9D1A030FEF771
:104EB00045FA0028A06805D000F1A0012030FBF7DA
:104EC00052FB01E080F82060A0682030FEF736FA3F
:104ED0008DF80800B6E71EE01AE0FFE72030FEF785
:104EE0002DFA10F0FF05A068D0F83C11C0F844116D
:104EF000A06805D000F12001A030FBF734FB8FE75C
:104F000080F8A0608CE72046FFF71EFD002802D045
:104F10002046FEF7F9FFFEBD25730000FEB50D002B
:104F2000044604D11E4940F28450FCF733F9A168CD
:104F30000026D1F83C0138B300230922694607F066
:104F4000D7FB0195A06800230922D0F83C016946EF
:104F500007F0E0FB0196A068D0F83C110091807F3B
:104F60008DF80800A068C0F83C510023092269466A
:104F7000284607F0CFFBA168092328468A7F203105
:104F8000521C07F0C7FBFEBDC1F83C51A068C0F839
:104F9000405100960196A068807F8DF80800E4E7F4
:104FA0007CED0000FEB504468068D0F84061002E1C
:104FB00028D0002309226946304607F099FBA168F2
:104FC00001980025C1F84001009501952B46092262
:104FD00069463046029507F09DFB304607F05AFBC4
:104FE000A168D1F8400170B100230922694607F099
:104FF0007FFB0095A06800230922D0F84001694694
:1050000007F088FBFEBDC1F83C51FEBDFEB504466D
:1050100080682030FEF792F910F0FF05A0684FF08D
:105020000006C0F8446133D0A068D0F83C01E0B17C
:1050300000230922694607F05BFB9DF80820AA427D
:1050400013D1A068092300F1A001D0F83C01521C43
:1050500007F04EFBA06800F1A0012030FBF775FAC5
:105060000028A06880F8A06012D000260A352946E2
:10507000606907F0DFFA0100204604D003B0BDE804
:10508000F040FFF74BBFFFF78DFF761C082EEED3E5
:10509000FEBD00002DE9FC5F0E008346DDE90C47F4
:1050A000C6F1000098469246814600D40846012584
:1050B00003E000BF90FBFAF06D1C5045FADAA845FA
:1050C00000D9454624B1002E01DB780700D5641EC7
:1050D000B80702D5B8F1000F0AD0F80708D13CB1E3
:1050E000A54205D220215846641EFCF729FCF6E7AC
:1050F000002E02DA4E462D2102E0780703D52B213F
:105100005846FCF71DFC07F0030002280BD1B8F14C
:10511000000F08D13CB1A54205D230215846641E8B
:10512000FCF70EFCF6E7CDE9004743465246314610
:1051300058460AF013F9BDE8FC9F000070B50E4612
:10514000054600684FF48E7108F005F84FF4A2711F
:10515000286808F000F828681549C0F80413286882
:10516000082E40F3073403D312A14520FCF712F8B0
:105170007007000E002C04DB04F1E02484F8000426
:1051800005E004F00F0101F1E02181F8140D286819
:1051900040F30730002809DB00F01F020121914095
:1051A0004009800000F1E020C0F8001170BD00004F
:1051B000800002002E2E5C2E2E5C2E2E5C2E2E5C8D
:1051C0002E2E5C2E2E5C2E2E5C2E2E5C696E74654F
:1051D00067726174696F6E5C6E7266785C6E72661F
:1051E000785F676C75652E680000000070B50E462C
:1051F000044600684FF4887107F0BEFF4FF49071C9
:10520000206807F0B9FF4FF49271206807F0B4FFEF
:105210004FF4A271206807F0AFFF4FF4AC71206823
:1052200007F0AAFF20681549C0F804132068082E6B
:1052300040F3073503D312A14520FBF7ABFF7007FE
:10524000000E002D04DB05F1E02585F8000405E0E3
:1052500005F00F0101F1E02181F8140D206840F301
:105260000730002809DB00F01F02012191404009AE
:10527000800000F1E020C0F8001170BD1003420072
:105280002E2E5C2E2E5C2E2E5C2E2E5C2E2E5C2E58
:105290002E5C2E2E5C2E2E5C696E746567726174B6
:1052A000696F6E5C6E7266785C6E7266785F676C52
:1052B00075652E680000000070B50546FFF77EFD9D
:1052C0000446FFF77BFD0646FFF778FD80EA0502FE
:1052D00086EA0201654084EA02004D4085EA3060BA
:1052E00080EA314080EA322070BDF0B50368C268C0
:1052F00003F07F41C2F3074441EA04448168C3F3E9
:105300000746C1F3072544EA05274468E5B22F4361
:1053100004F07F4545EA0645C2F3072645EA06261E
:10532000CDB22E4301F07F45C4F3074C45EA0C454E
:10533000C3F3072C45EA0C2502F0FF0C02F07F4274
:10534000C1F3074142EA0141C4F3072241EA0221C5
:10535000DAB245EA0C051143C0E90251C0E9007612
:10536000F0BD000010B5044600680A4909F064FC6D
:1053700020600849606809F05FFC60600549A0682A
:1053800009F05AFCA0600349E06809F055FCE060B0
:1053900010BD000023FC00000246002012685307E5
:1053A00013D502F00300012802D002280CD105E039
:1053B000C2F383100B68801C184404E002230868C1
:1053C00003EB9252104408600120704710B5FBF7C0
:1053D000D3F808B1002010BD012010BD02681346AB
:1053E00002E08A4204D01268002AFAD10B60016000
:1053F00070470000014B03F0A9BB0000C15500003D
:10540000014B03F0A3BB00008D570000014B03F0DC
:105410009DBB000095570000014B03F097BB0000B7
:10542000855800007CB514460546012902D005F0D8
:10543000A5FB38B102B02846BDE8704000221146F5
:1054400005F02ABA616805A0CDE9000109A2022190
:105450002846236805F0C0F97CBD000020756E6BFE
:105460006E6F776E20706172616D657465723A203F
:105470000000000025733A257325730D0A00000013
:105480002DE9FC41074605F079FB38B102B03846FA
:10549000BDE8F0410022114605F0FEB91248134E56
:1054A000801B050900241AE006EB0410C26811797C
:1054B000FF2903D0527942B10DA207E083680EA202
:1054C0000821384605F088F908E013A2CDE900214B
:1054D000836814A20821384605F07EF9641CAC42AA
:1054E000E2D3BDE8FC810000C0530100A0530100DD
:1054F000656E61626C65640025730D0A092D205389
:1055000074617475733A206465616374697661745B
:1055100065640D0A0D0A000064697361626C65645C
:105520000000000025730D0A092D20537461747565
:10553000733A2025730D0A092D2049443A20256429
:105540000D0A0D0A0000000010B5044605F016FB18
:1055500030B120460022BDE81040114605F09CB94C
:105560002046BDE8104002A2022105F035B9000036
:105570004E6F7420737570706F727465642E0D0AAF
:105580000000000010B5044605F0F8FA30B12046DE
:105590000022BDE81040114605F07EB92046BDE866
:1055A000104002A2022105F017B900004E6F7420CE
:1055B000737570706F727465642E0D0A00000000C0
:1055C0002DE9FF4FC86881B01D46007917004FF0E4
:1055D0000006009057D0072245A12868FAF7CCFFB3
:1055E00078B1082244A12868FAF7C6FF00282FD016
:1055F0002B6843A2019805B00221BDE8F04F05F0E9
:10560000EBB8012F02D0022F08D008E0019805B0B6
:1056100041A2BDE8F04F022105F0DEB80126DFF817
:10562000108100240A2258F824106868FAF7A4FFB1
:1056300010B1641C052CF5D3052C06D004F0FF092D
:105640000224002E51D0002419E03AA26B68D1E761
:10565000012F4FF00009F6D0012446E04A462146CA
:10566000009803F095F848B90021204606F0EEFEB8
:10567000034638A20221019805F0AEF8641C06F03A
:105680008FFEA042EAD805B0BDE8F08F4FF0000AC7
:1056900055F824B006F084FE8046002609E000217B
:1056A000304606F0D3FE20225946FAF765FF58B17E
:1056B000761C4645F3D3464508D04A4651460098E5
:1056C00003F066F830B10FE0B246F4E755F8243045
:1056D00029A205E00021504606F0B8FE03461DA2AF
:1056E0000221019805F078F8641CBC42CED3CAE7C9
:1056F000656E61626C65000064697361626C65006F
:10570000556E6B6E6F776E206F7074696F6E3A2096
:1057100025730D0A0000000042616420706172610F
:105720006D6574657220636F756E742E0D0A0000CE
:10573000C8010020556E6B6E6F776E2073657665BD
:1057400072697479206C6576656C3A2025730D0A50
:10575000000000004C6576656C20756E61766169AD
:105760006C61626C6520666F72206D6F64756C652C
:105770003A2025730D0A0000556E6B6E6F776E2010
:105780006D6F64756C653A25730D0A00C968012058
:1057900048717047C96800204871704730B413469B
:1057A000C4680A46214630BCFFF70ABFC068012121
:1057B000C06841717047C0680021C068417170477E
:1057C00030B41346C4680A46214630BC00F05AB8CB
:1057D0002DE9FF410026274803F081F82548001FE6
:1057E000074603F07CF8244C2449A06800900D681B
:1057F00000E000986946284004EB80000C30FFF779
:10580000CBFD0028F5D101AA009901EA050304EBBC
:105810008303491CDB6842F82030401C00910228B9
:10582000F2D3019800F0030001281AD002280ED00C
:1058300013494FF4AF70FBF7ADFC384603F04CF85A
:1058400008B10098A06004B03046BDE8F08101982E
:10585000032101EB90500099BDF80A6001EB900024
:1058600005E00198BDF80A60C0F383100844009079
:10587000E3E700007C29002064250020C40100200B
:10588000644B01002DE9FE4F8846824606F088FDF4
:105890000746D8F80C00407920B922A202215046D0
:1058A00004F09AFF24A327A20821504604F094FF95
:1058B0002CA20821504604F08FFF00242DE000BFE9
:1058C000D8F80C0001231A4605792146284606F02F
:1058D00071FD8146002301222146284606F06AFD1B
:1058E0000546032801D2064600E003260121204692
:1058F00006F0ACFD0346AE4201D22AA200E028A287
:10590000294850F8261050F829008DE8070027A2F2
:105910000821504604F060FF641CBC42D0D3BDE8AF
:10592000FE8F00004C6F6773206172652068616CA8
:10593000746564210D0A00006D6F64756C655F6E9F
:10594000616D6500252D343073207C206375727283
:10595000656E74207C206275696C742D696E200DF3
:105960000A0000002D2D2D2D2D2D2D2D2D2D2D2D11
:105970002D2D2D2D2D2D2D2D2D2D2D2D2D2D2D2D57
:105980002D2D2D2D2D2D2D2D2D2D2D2D2D2D2D2D47
:105990002D2D2D2D2D2D2D2D2D2D2D2D2D2D0D0A7A
:1059A000000000002A000000C8010020252D34302E
:1059B00073207C20252D3773207C20257325730DC3
:1059C0000A0000002DE9F04115460E4607460BA2DD
:1059D000082104F001FF002406E0335D0CA2082139
:1059E000384604F0F9FE641CAC42F6D33846BDE8F4
:1059F000F04109A2082104F0EFBE000043616C638E
:105A0000756C61746564204D41433A0D0A000000D5
:105A100025303278200000000D0A00008AB04FF4D3
:105A200080413E4806F06CFC20B13DA240F2465158
:105A3000FAF7F0FB05F096FC041E0ED038A240F2F7
:105A40004951FAF7E7FB002005F0AAFC204634A2F2
:105A500040F24C51FAF7DEFB02E0002005F0A0FC1A
:105A6000FBF750FA2022324901A8FAF735FD06204B
:105A700001900820029000208DF81800032000906B
:105A80002B4801231A4601A9183805F07DF820B1EA
:105A900023A240F25451FAF7BDFB2548183805F00F
:105AA000CFF920B11EA240F25751FAF7B3FB05F02F
:105AB00091FB20B11AA240F25A51FAF7ABFB1D48F4
:105AC00041681D48FAF74FFD1C4D6888032811D323
:105AD0001B481C49401AC108052000EB0140044640
:105AE00019A106F081FB6888032803D3204625A16D
:105AF00006F07AFB06F03EFA0028FBD106F030FDF6
:105B000020B107A240F26351FAF784FB06F032FAA3
:105B10000748183805F02CF9F8E70000810E00005E
:105B20002E2E5C2E2E5C2E2E5C6D61696E2E630017
:105B300068F500005400002090070020DC020020DF
:105B400088540100C05301006E72665F6372797001
:105B5000746F2041455320636F6D6D616E64206CDE
:105B6000696E6520696E746572666163652065782B
:105B7000616D706C6520737461727465642E0D0ABA
:105B800000000000506C656173652070726573736E
:105B90002074686520546162206B657920746F20E1
:105BA00073656520616C6C20617661696C61626C03
:105BB0006520636F6D6D616E64732E0D0A000000C9
:105BC0002DE9FF4F4FF0000881B014468B46814607
:105BD000C246C0F800802578002D71D0FAF72AFC63
:105BE00000900068405DC00702D004F801AB84E07B
:105BF000D9F800008300401CC9F800004BF80340AE
:105C000015E02678002E78D0B8F1000F05D1222EAD
:105C100010D0272E0ED05C2E1ED0B04514D12046B9
:105C2000FDF78CFB0246611C2046FAF755FC4FF04D
:105C30000008E6E72046FDF781FB0246611C20468E
:105C4000FAF74AFCB046DCE7B8F1000F50D05C2E02
:105C50006AD16078404508D12046FDF76FFB0246C7
:105C6000611C2046FAF738FC5EE030281CD1002782
:105C70000225605DA0F13001072906D86D1C41EABC
:105C8000C701EDB2CFB2052DF3D3022D0CD92046BA
:105C9000FDF754FB421B61192046491E921CFAF77E
:105CA0001BFC04F8017BACE778281ED100270225F5
:105CB000605DA0F13001092903D841EA07100DE029
:105CC00021E0A0F16101052901D8573804E0A0F1D5
:105CD0004101052907D8373840EA07106D1CEDB29D
:105CE000C7B2042DE4D3022DD1D8B8F1000F1BD1D7
:105CF00000980068805DC00716D0D9F8001004989D
:105D00008142FFF468AFD9F800000C2804D907A13C
:105D100040F20450FBF73EFAD9F8002040464BF819
:105D200022A005B0BDE8F08F641C6AE72E2E5C2E21
:105D30002E5C2E2E5C2E2E5C2E2E5C2E2E5C2E2E9D
:105D40005C2E2E5C636F6D706F6E656E74735C6C31
:105D500069627261726965735C636C695C6E7266BC
:105D60005F636C692E630000F0B50B30154D20F0B9
:105D700007010024144A0FE003688B420BD38B42C7
:105D800005D95E1A43184768C3E9006700E0436815
:105D9000136002C004E0021D10680028ECD1204608
:105DA000002802D1286808B10020F0BD064A074843
:105DB0001060074A121A22F00702C0E900240120ED
:105DC0002860D7E754020020500200208C290020D0
:105DD000884900204840411E8143C1F3C010404221
:105DE000C0B270472DE9FF478146DDE90C641F46CC
:105DF00015468846100704D06FF0210004B0BDE8B6
:105E0000F087B8F1000F1BD033E01022314668460E
:105E1000FAF762FB234632464146484600F0D6F880
:105E20000020215C3A5C51402154401C1028F8DBD2
:105E3000102269463846FAF74FFB1034103D1036F1
:105E4000002DE2D117E00020315C3A5C5140215432
:105E5000401C1028F8DB23461A464146484600F00D
:105E6000B5F8102221463846FAF736FB1034103DBB
:105E70001036002DE7D10020C0E72DE9F0471C685F
:105E8000DDE90976DDF820809946154682460F2C1B
:105E900003D96FF02000BDE8F08799B128E02CB954
:105EA00043461A460121504600F090F817F8010BBE
:105EB00018F80410414006F8011B08F80400641C9F
:105EC00004F00F046D1EEAD214E02CB943461A46C2
:105ED0000121504600F07AF818F8040017F8011B69
:105EE000484006F8010B08F80400641C04F00F0495
:105EF0006D1EEAD20020C9F80040CCE72DE9F0473A
:105F000086B09946DDE90E5614460F468246E846AD
:105F10001FE0102249466846FAF7DEFA4B461A4659
:105F20000121504600F052F817B928788DF810007A
:105F300099F8000015F8011B484006F8010B012FE5
:105F400001D18DF81000102208F101014846FAF73E
:105F5000C3FA2046641EDCD206B0BDE8F08700001C
:105F60002DE9F05F1468DDE90B76DDF828A098468E
:105F700091460D4683460F2C22D96FF02000BDE8D4
:105F8000F09F9CB9534642460121584600F01EF846
:105F90005FF0100008EB000111F8012D521C12F007
:105FA000FF020A7002D1401E0028F3DC17F8010B33
:105FB0001AF804104140641C06F8011B04F00F0499
:105FC0006D1EDED20020C9F80040D8E730B4144678
:105FD00001291A46214602D030BC01F05FBE30BC18
:105FE00002F0B6B82DE9F0478246DDE9087614687C
:105FF0000020994690460D460F2C16D96FF02000D0
:10600000BDE8F0873CB94B461A4601215046FFF7E0
:10601000DDFF0028F4D117F8011B19F804205140C6
:10602000641C06F8011B04F00F046D1EEAD2C8F8C8
:106030000040E5E72DE9F04F91B08346DDE91A9481
:1060400015091E468A4602F00F086FF02100102A3B
:1060500074D3B2F1807F71D802AB324601210BF5C7
:106060008C70FFF7B3FF02AF06AE002866D134E0B4
:10607000B8F1000F0FD0BAF1000F0CD15DB90DF1DE
:10608000080C9CE80F000DF1300C8CE80F0002A901
:10609000084601F098FD00204FEA070119F800209A
:1060A0000B5C5A403254401C1028F7D306AB1A46FA
:1060B00051465846FFF78AFF00283FD13946325CE7
:1060C0000B5C5A402254401C1028F8D302A9084601
:1060D00001F079FD09F1100910346D1EC8D2B8F134
:1060E000000F2AD0BAF1000F04D002AFA4F11005BE
:1060F000002009E00CAFF9E7295C215419F80010E1
:106100003A5C51403154401C4045F5D304E0295CD1
:106110003A5C51403154401C1028F8D306AB1A4663
:1061200051465846FFF752FF002807D1315C3A5CD0
:1061300051402954401C1028F8D3002011B0BDE86C
:10614000F08F002803D04FF48C7102F063BA7047CF
:106150004FF48C71FAF7E7B92DE9F04FC7B0054657
:1061600016460F466846FFF7F3FF05F1080432466E
:10617000394668466C6000F055F84690F0BB0098D0
:106180002860DDE9001000EB011101C901C401C95B
:1061900001C401C944F8080B51F81C0944F8040C67
:1061A0002A6828E01E48002500F5905900F5B05AED
:1061B00000F5D05C00F5F05B08C950FA83F637783B
:1061C0006D1C59F82760C3F3072710F807805AF8A9
:1061D00028707E40C3F3074700EB1363C75D93F855
:1061E00000805CF827705BF828305F407E4040C438
:1061F000042DE1DB2039521E002A00E008E0D1DC4A
:1062000008682060486860608868A060C868E060CE
:106210006846FFF796FF469847B0BDE8F08F00004C
:10622000B8020100F0B5802A07D0C02A07D0B2F525
:10623000807F0BD06FF01F00F0BD0A2300E00C231D
:10624000036000F10803002443600AE00E23F7E72F
:1062500001EB8405EE782D6866F31F6543F8245042
:10626000641CB4EB521FF3D3544A0168A2F50850E2
:106270000A2904D00C292BD00E2928D156E000245D
:1062800053F80C5B52F824104D4002CBC1F30726A3
:10629000C1F30747865DC75D86EA0726754000EBB8
:1062A0001166367885EA064550FA81F63678641C20
:1062B00085EA06651D6053F80C6C6E405E6053F80D
:1062C000085C75406940C3E902510A2CD8D373E0D9
:1062D0005FF000041D6852F824104D405969C1F365
:1062E0000726C1F30747865DC75D86EA0726754026
:1062F00000EB1166367885EA064550FA81F6367865
:10630000641C85EA06659D615E686E40DE619D687D
:1063100075401D62DE686E405E621D6975406940B1
:10632000C3E90A511833082CD4D345E05FF00005C7
:106330001C6852F825104C40D969C1F30726C1F3F7
:106340000747865DC75D86EA0726744000EB116645
:10635000367884EA064450FA81F6367884EA06668E
:106360001E625C6874405C629E6866409E62DC6887
:106370007440DC6250FA84F73F781E69C4F3074C1E
:106380007E40C4F3072710F80CC0C75D00EB14640F
:106390003F0287EA0C4724787E4086EA04641C6347
:1063A0005E696D1C66405E639C6974406140C3E930
:1063B0000E412033072DBBD30020F0BDB8240100CF
:1063C000F0B54C08DDE90576E508B1F5807F05D02C
:1063D000B1F5007F02D06FF01F00F0BD1C6034608B
:1063E0001060284438600020F0BD10B5040007D0CC
:1063F000FFF7A7FE04F58C70BDE81040FFF7A1BEC3
:1064000010BD10B50446FFF7A3FE04F58C70BDE87F
:106410001040FFF79DBE70B586B00E46044605A934
:1064200003A81546CDE9000104AB02AA294630466F
:10643000FFF7C6FF00280CD104F58C70059A03996C
:10644000FFF7F0FE002804D12046049A0299FFF7D6
:1064500083FE06B070BD70B586B00E46044605A931
:1064600003A81546CDE9000104AB02AA294630462F
:10647000FFF7A6FF00280CD104F58C70059A03994C
:10648000FFF7D0FE002804D12046049A0299FFF7B6
:10649000C9FE06B070BD70B54843044606F053F817
:1064A000050002D02146FAF73EF8284670BD05F0F7
:1064B0008BBA000010B50349034802F0A3F800208E
:1064C00010BD0000AF64000097640000002070471A
:1064D000014A126810470000400200202DE9FF47E2
:1064E0008146DDE90C641F4615468846100704D036
:1064F0006FF0250004B0BDE8F087B8F1000F1BD0A5
:1065000033E0102231466846F9F7E6FF234632466B
:106510004146484600F0A4F80020215C3A5C514016
:106520002154401C1028F8DB102269463846F9F740
:10653000D3FF1034103D1036002DE2D117E00020BB
:10654000315C3A5C51402154401C1028F8DB234652
:106550001A464146484600F083F810222146384644
:10656000F9F7BAFF1034103D1036002DE7D10020A6
:10657000C0E72DE9F0471C68DDE90976DDF82080E9
:10658000994615468246102C03D36FF02300BDE8D0
:10659000F08799B128E02CB943461A4601215046AC
:1065A00000F05EF817F8010B18F80410414006F8E7
:1065B000011B08F80400641C04F00F046D1EEAD2ED
:1065C00014E02CB943461A460121504600F048F821
:1065D00018F8040017F8011B484006F8010B08F8EA
:1065E0000400641C04F00F046D1EEAD20020C9F8F8
:1065F0000040CCE72DE9F05F1468DDE90B76DDF8AB
:1066000028A0984691460D468346102C22D36FF061
:106610002300BDE8F09F9CB95346424601215846ED
:1066200000F01EF85FF0100008EB000111F8012DDA
:10663000521C12F0FF020A7002D1401E0028F3DC47
:1066400017F8010B1AF804104140641C06F8011BEE
:1066500004F00F046D1EDED20020C9F80040D8E718
:106660002DE9FF4111681D4609BAD37840C821F0D1
:10667000FF01194300915168D37909BA21F0FF0154
:10668000194301919168D37A09BA21F0FF011943A6
:106690000291D168D27B09BA21F0FF011143039125
:1066A00004C8009951400091019950F8082B5140BD
:1066B000019150F8042C02995140029104C80399A9
:1066C000044651400391EEB302AF3A462146684674
:1066D000761EFBF78DF908346A4621463846FBF7EB
:1066E00087F908343A4621466846FBF781F90834B1
:1066F0006A4621463846FBF77BF908343A4621467C
:106700006846FBF775F908346A4621463846FBF7B8
:106710006FF90834B6B102CC00980840019981EABB
:10672000F070019002CC0843009948400090039813
:106730006168084302994840029054F8081B0840D9
:10674000039900E003E081EAF0700390BDE702984E
:10675000216848400290039861684840039000987F
:10676000A168484000900198E16848400190029873
:10677000000E28700298000C68700298000AA87039
:106780000298E8700398000E28710398000C687155
:106790000398000AA8710398E8710098000E287207
:1067A0000098000C68720098000AA8720098E872BD
:1067B0000198000E28730198000C68730198000A74
:1067C000A8730198E87304B00020BDE8F0810028A8
:1067D00003D04FF48A7101F01DBF70474FF48A71E6
:1067E000F9F7A1BE70B5C6B0044615460E46684618
:1067F000FFF7F4FF2A463146684600F033F80500FB
:1068000029D100982060042812D00021684600EBAE
:10681000811050F8C42F62604268A2608268E26012
:10682000C26822611622083802EBC101143407E065
:106830000121EBE704C8491E04C450F80C2904C424
:106840000029F7D150F8081D216041686160816816
:10685000A160C068E0606846FFF7B9FF46B028460F
:1068600070BD00002DE9F04FC9B089460446051DF2
:106870001646402125A8F9F756FE4FF488712846A0
:10688000F9F751FE802E09D0C02E0BD0B6F5807FCF
:1068900008D06FF0230049B0BDE8F08F0320002737
:1068A000206002E004200127206000200DF1940800
:1068B00005E000BF19F8001008F80010401CB0EB0C
:1068C000D60FF7D3C02E09D15FF0000008EB00010E
:1068D000401C0A7CD2430A760828F7D3F24B0020EA
:1068E00035AA00BF03EBC0010C6891F803C024BABD
:1068F00024F0FF0444EA0C0442F830404C68C979A3
:1069000024BA24F0FF040C4302EBC001401C4C608D
:106910000628E7D3402115A8F9F705FE002015AC9D
:1069200058F8201008EB800209BAD27821F0FF0154
:10693000114344F82010401C0828F1D35FF00000F8
:1069400004EB800154F820200B69401C5A400A6275
:106950000428F5D304F1280204F12000914635A95A
:106960008046FBF745F8424637A94846FBF740F812
:106970005FF0000004EB800154F820300A6A401CEC
:106980005A400A620428F5D34A4639A94046FBF723
:106990002FF842463BA94846FBF72AF8802E16D925
:1069A0005FF0000004EB8001401C0B6A0A695A404A
:1069B0000A630428F6D323AA21A890463DA90446D9
:1069C000FBF716F822463FA94046FBF711F8159849
:1069D000019016980290179803901898B349049064
:1069E000012001EB07110DF1040A0A1812F8012C1D
:1069F0009AB3C0EB001202F01F02DDF804C0029B44
:106A00000CFA02FCC2F12004E3408CEA030C0AEB0E
:106A10000013C3F800C0DDF808C0DDF80C800CFAE4
:106A200002FC28FA04F88CEA080CC3F804C0DDF86C
:106A30000CC0DDF810800CFA02FC28FA04F88CEA8D
:106A4000080CC3F808C0DDF810C00CFA02FC019A6B
:106A5000E2408CEA020CC3F80CC0401C0428C4D9E4
:106A6000924B0020203307EB870B03EB0B121356DE
:106A70005C1C03D05AF8204045F82340401C1428E1
:106A8000F5D3802E53D9199801901A9802901B982B
:106A900003901C98049001200B18DB78ABB3C0EB7B
:106AA000001303F01F03DDF804C0DDF80880C3F114
:106AB00020040CFA03FC28FA04F80AEB00198CEA0B
:106AC000080CC9F800C0DDF808C0DDF80C800CFA2D
:106AD00003FC28FA04F88CEA080CC9F804C0DDF8B5
:106AE0000CC0DDF810800CFA03FC28FA04F88CEADC
:106AF000080CC9F808C0DDF810C00CFA03FC019BB3
:106B0000E3408CEA030CC9F80CC0401C0428C3D92C
:106B100000205446131893F91430B3F1FF3F03D00B
:106B200054F820C045F823C0401C1428F2D31D9807
:106B300001901E9802901F980390209804900120C5
:106B40000B18DB79ABB3C0EB001303F01F03DDF8C8
:106B500004C0DDF80880C3F120040CFA03FC28FA15
:106B600004F80AEB00198CEA080CC9F800C0DDF83B
:106B700008C0DDF80C800CFA03FC28FA04F88CEA53
:106B8000080CC9F804C0DDF80CC0DDF810800CFA60
:106B900003FC28FA04F88CEA080CC9F808C0DDF8F0
:106BA00010C00CFA03FC019BE3408CEA030CC9F80B
:106BB0000CC0401C0428C3D90020131893F92830B6
:106BC0005C1C03D05AF8204045F82340401C142890
:106BD000F3D3802E50D921980190229802902398C7
:106BE00003902498049001200B18DB7A9BB3C0EB30
:106BF000001303F01F03DDF804C0029C0CFA03FC31
:106C0000C3F12006F4408CEA040C0AEB0014C4F82B
:106C100000C0DDF808C0DDF80C800CFA03FC28FA8F
:106C200006F88CEA080CC4F804C0DDF80CC0DDF8E6
:106C300010800CFA03FC28FA06F88CEA080CC4F859
:106C400008C0DDF810C00CFA03FC019BF3408CEA8D
:106C5000030CC4F80CC0401C0428C5D900205346BE
:106C6000111891F93C104C1C03D053F8204045F802
:106C70002140401C1428F3D30C4A0020C03202EB00
:106C80008B0307EB470219564C1C07D000EB82041C
:106C900005EB840455F82110C4F88010401C14281A
:106CA000F1D30020F7E50000E024010010290100E5
:106CB000F0B587B0DDE91054DDE90E76DDE90CECC6
:106CC00054B1CDF800E00396CDE901C7CDE90454F5
:106CD00000F050F807B0F0BD6FF00C00FAE7F0B527
:106CE00087B0DDE91054DDE90E76DDE90CEC54B136
:106CF000CDF800E00396CDE901C7CDE9045400F0DA
:106D00006CF807B0F0BD6FF00C00FAE710B50400A6
:106D100007D000F0CDFA2046BDE81040442101F034
:106D200079BC10BD4421F9F7FEBB2DE9F0411D46A9
:106D30000B461646074601222946184600F0E6FA99
:106D400004006FF00C0013D06169102910D138468F
:106D500000F0AEFA2146384600F054FB002807D177
:106D60002A4631463846BDE8F041012300F026BBF3
:106D7000BDE8F0812DE9F0438BB013AC8946844621
:106D800094E84301129F0DF1080ECDE90037179DDD
:106D90008EE8430007AC13464A4601216046CDE920
:106DA0000545FAF773FE002812D10021084606E0D7
:106DB00018F80020235C5A401143401CC0B2A8427E
:106DC000F6D341B14946304601F024FC6FF00E0085
:106DD0000BB0BDE8F0830020FAE7F0B587B0DDE93D
:106DE0000C45DDE90E67DDE910CE8DE8F85013465D
:106DF0000A460021FAF74AFE07B0F0BD002802D08B
:106E0000842101F007BC704710B50446402101F011
:106E100001FC402104F1400001F0FCFB4020C4F8DB
:106E2000800010BD184A0260184A4260184A826009
:106E3000184AC260CB780A6863F31F620261CB799B
:106E40004A6863F31F624261CB7A8A6863F31F6208
:106E50008261CB7BCA6863F31F62C261CB7C0A6923
:106E600063F31F620262CB7D4A6963F31F62426271
:106E7000CB7E8A6963F31F628262CA7FC96962F34B
:106E80001F61C16200207047657870616E642033B5
:106E9000322D62797465206B2DE9F0471F469146CB
:106EA0000D460446002600F1400A0CE019F80610D1
:106EB00010F80A006D1E4140B955D4F88000401CFE
:106EC000761CC4F88000002D6BD0D4F880004028D8
:106ED000ECD34DE051462046FBF775FB206B401C80
:106EE00000232063F118E01819F8012090F840C041
:106EF000083382EA0C027A5401EB090290F84180CF
:106F000092F801C039448CEA080C81F801C092F86B
:106F100002C090F842808CEA080C81F802C092F816
:106F200003C090F843808CEA080C81F803C092F803
:106F300004C090F844808CEA080C81F804C092F8F0
:106F400005C090F845808CEA080C81F805C092F8DD
:106F500006C090F846808CEA080C81F806C0D27909
:106F600090F847004240CA71402BBBD3403D4036A9
:106F7000402DAFD2ADB151462046FBF724FB206B2C
:106F8000401C2063002008E03118231819F8012064
:106F900093F840305A407A54401CA842F4D3C4F8C5
:106FA00080500020BDE8F08710B504000CD0FFF73A
:106FB00025FF04F1840001F037FB0020E4E93400F0
:106FC000C4E902002061207510BD10B50446FFF72A
:106FD0001BFF04F1840001F02DFB0020E4E93400E4
:106FE000C4E902002061207510BDFFF71BBF2DE929
:106FF000F0410446D0F8E000984616460D460128B8
:1070000005D002280BD06FF05300BDE8F0810220BC
:10701000C4F8E0002046FBF7FBFB0028F5D1F4E9BB
:107020003620521940F10000E4E8032014F80C1B4C
:10703000A4F16C000746F03C69B12A46314601F0E4
:10704000FCFA0028E1D14346324629462046FFF7A4
:1070500023FF0028D9E74346324629462046FFF75A
:107060001BFF0028D1D12A464146384601F0E5FAF7
:10707000EFE700002DE9F04794B08A46050023D0E1
:10708000286808B32C6CFCB1BAF1000F1CD046691B
:10709000102105A801F0BEFA102109A801F0BAFAE2
:1070A00005AF0DF1240910210DA801F0B3FA2868ED
:1070B0000DAB1946D0F8148012A80090424628461D
:1070C00000F0BAF978B903E0304814B0BDE8F087B1
:1070D00042460DA93846FCF76BFC20B942463946BA
:1070E0004846FCF765FC10210DA801F093FA216ACF
:1070F00004F110080027C146B1422AD2002001AA9B
:1071000080230CE0884204D218F800C002F800C0C6
:1071100003E001D1135400E0175400F10100B4461C
:10712000B042EFD301A9634609AA0846FCF79EFCCA
:107130002246334601A91046FCF798FC11A82346C5
:10714000009032461946284600F076F905000AD12B
:1071500004E0334605AA494601A8E7E7324621463E
:107160005046F9F7B9F9102105A801F053FA10219A
:1071700009A801F04FFA10214846276201F04AFAA7
:107180001021204601F046FA28469EE7009FFFFFA7
:1071900070B5134D040012D0206880B179B101237D
:1071A000204600F00BF900280AD120680078022858
:1071B00007D0032805D0042803D0242801D028466E
:1071C00070BD24210120FFF783F928B1102120642C
:1071D00001F020FA002070BD0148803870BD000029
:1071E000009FFFFF2DE9FC5F15460F465FEA000A8E
:1071F0004FF0000924D0DAF8000008B307B3DAF83A
:107200004040ECB14669206A18B3321AAA4220D233
:1072100004F1100840443946F9F75EF92246334636
:1072200041461046FCF722FC01A823460090324656
:107230001946504600F000F95FEA000933D102E038
:107240001A48BDE8FC9F206A301A2D1A0021074415
:107250002162A819401EB0FBF6FB012014E0224673
:10726000334639461046FCF701FC01A8234600903E
:1072700032461946504600F0DFF85FEA000912D1A5
:10728000AD1B374408F1010080465845E7D355B19E
:10729000216A04F1100008442A463946F9F71CF91E
:1072A000206A284420624846CBE70000009FFFFF89
:1072B00010B5040013D0206C28B1242101F0AAF9E4
:1072C000206C00F049FAE06B18B121688969C96A3D
:1072D00088472046BDE81040442101F09BB910BD0D
:1072E0000068002800D0406970470000064905E0AA
:1072F0000A78824201D14868704708314A68002AFA
:10730000F6D10020704700005C30010030B50A4B18
:107310000CE0A5692D78854207D165688D4204D1BE
:107320006478944201D1586830BD08335C68002C01
:10733000EFD1002030BD00005C3001004421F9F79E
:10734000F2B80000026812B15278022A01D0114846
:10735000704705291AD2DFE801F003070D11150067
:107360000D49C1600D4902E00D49C1600D4901613F
:10737000002070470C49C1600C49F8E70C49C16016
:107380000C49F4E70021C1600B49F0E70148803067
:1073900070470000009FFFFF5B0B0000C14C000026
:1073A0003F0B0000494C0000950B00001D4D0000F4
:1073B000B70B00007D4D0000014C0000F0B4104EF2
:1073C00004688CB1257CAD0702D4656895420BD169
:1073D00042600372012B0AD06578032D07D0042D7B
:1073E00005D0052D03D033B13046F0BC7047A369FA
:1073F000C06B1B6A02E0A369C06B5B6AF0BC1847F4
:10740000009FFFFF70B50C0005460ED04421F9F730
:107410008AF8A069806A8047E86340B10021284665
:107420002C60FFF78FFF002070BD024870BD01483F
:10743000803870BD009FFFFF2DE9FF5F04460E9F5F
:107440000068DFF80CA2994615468846E8B300208C
:1074500038602046FFF744FF06000ED021684878C8
:1074600001280ED006281BD00A78492A22D04B4684
:10747000C84532D1626A42BB26E0764804B0BDE816
:10748000F09FB54201D07448F8E73D60226894F956
:107490000810E06B92694B4654684246A047EDE7FE
:1074A0003D60E06B04B04B4642462946BDE8F05FC4
:1074B00000F015BB3D60E06B04B04B4642462946E8
:1074C000BDE8F05FFFF793BD00E004E0B5FBF6F226
:1074D00006FB12520AB15046D0E704F1280204F12B
:1074E000140B039202280DD0121F032877D0042812
:1074F00071D0052870D0564A803209286DD00728EF
:107500006CD08DE094F9080010B1012807D015E087
:10751000E06820B1606A301AA84204D20EE0606AC6
:10752000301AA8420AD9616A2A4601EB0B0041468B
:10753000F8F7D2FF606A2844606249E0606AE8B107
:10754000A6EB000A584452464146F8F7C5FFCDE97C
:1075500000B9226894F90810E06B9269039BD2F895
:1075600008C03246E047002888D13868B14430442A
:1075700038600020D044A5EB0A05606245B3B5FB36
:10758000F6F006FB10505FEA000A04D1207A10B929
:10759000E06800B1B246A5EB0A0505EB08015246CA
:1075A0005846F8F799FF616A01EB0A0060627DB105
:1075B000CDE90089226894F90810E06B9269039B79
:1075C00094682A46A047002886D138682844386045
:1075D000002053E703E00EE015E01FE02EE0039EDD
:1075E00013468DE84003896994F90860E06BCC6824
:1075F0002A46314610E0CDE900898969E06B039B9A
:107600000C69294618E0CDF800B0CDE901898969F7
:10761000E06B039B4C692946A04715E0606A08B1FE
:1076200010462BE7CDE90089896994F90860E06B81
:107630008C692A463146039BA04705E08969E06BC7
:107640004246CC692946A0470028C2D13D60BFE729
:10765000009FFFFF809CFFFF809DFFFF10B504008F
:107660000AD004F12000FEF76CFD2046BDE8104072
:107670004FF4A07100F0CEBF10BD4FF4A071F8F729
:1076800052BF2DE9F041044685694FF4C070E0B067
:1076900016460F46854203D8C5F5C071B14204D2E3
:1076A0006FF0370060B0BDE8F08180460146684663
:1076B000F8F739FFD4E94E302A466946984710B1A9
:1076C0006FF03300EEE7A5693FB136B10DEB050071
:1076D00032463946F8F700FF354469462A460846DF
:1076E000FAF72EF8050007D169462046FCF735FB6E
:1076F000050001D1012020614146684600F08AFF63
:107700002846CFE72DE9FF4704460020DDF830800A
:10771000009001900290039004F120001F4616464D
:107720000D468146FEF714FDC4E94E56A06908B91E
:107730002020A0614FF6F070E06180226946484643
:10774000FEF770FD002804D1424639462046FFF777
:1077500098FF04B0BDE8F087014949680847000078
:10776000400200202DE9F0438BB089468446DDE9D4
:107770001270DDE91551DDF85080CDE900370DF1CB
:10778000080E179E8EE8430007ACCDE9055413465A
:107790004A460021604600F019F8002811D1002166
:1077A000084605E018F80020235C5A401143401CAD
:1077B000A842F7D341B14946304600F02BFF6FF0A5
:1077C00011000BB0BDE8F0830020FAE72DE9FC477B
:1077D0000DF1300A9C46144681469AE88101DDE9A4
:1077E0000A32DDE90F65CDE900206246484600F027
:1077F000D6F800280FD143463A462146484600F0C5
:107800006EF9002807D102B0324629464846BDE845
:10781000F04700F002B8BDE8FC872DE9FF470746B6
:107820008A46D7E95201CC0044EA5074C600D7E931
:107830005401CD0045EA50754FEAC008101F91462B
:107840000D2804D36FF0130004B0BDE8F0874A465A
:1078500007F5AC715046F8F73FFE46EA080044EAE7
:10786000050108435ED00020009001900290039033
:10787000280E8DF80000280C8DF80100280A8DF8DC
:1078800002004FEA186040EA05208DF804004FEA34
:10789000184040EA05408DF805004FEA182040EAFC
:1078A00005608DF80600200E8DF80800200C8DF87C
:1078B0000900200A8DF80A00300E40EA04208DF8F5
:1078C0000C00300C40EA04408DF80D00300A40EA0C
:1078D00004608DF80E008DF803508DF807808DF848
:1078E0000B408DF80F6000206A463918145C91F83F
:1078F0007831401C634081F878311028F5D307F5C2
:10790000BC7211463846FDF7D3F8002008E03A185B
:107910001AF8001092F8782151400AF80010401C23
:107920004845F4D300208FE710B5040008D0FFF7D6
:10793000BFFC2046BDE810404FF4C87100F06ABE9D
:1079400010BD4FF4C871F8F7EEBD2DE9F0411D46AA
:107950000B4616460746012229461846FFF7D6FC75
:1079600004006FF0130018D06169102915D1384652
:10797000FFF79EFC21463846FFF744FD00280CD156
:1079800001232A4631463846FFF718FD002804D166
:107990003846BDE8F041FDF709B8BDE8F0812DE9B2
:1079A000F04F87B00446DDE910B61D004FF000002F
:1079B0001346059033D0C4F86801C4F86C0104F58F
:1079C000BC72C4F87001C4F874011060506090601B
:1079D000D060C4F88811C4E95200C4E9540081465B
:1079E00004F5B47082460C2D1ED0680DCDF81090B1
:1079F0008DF81000680B8DF8110068098DF81200E1
:107A0000E800CDF80490CDF80890CDF80C908DF8F2
:107A100013009846102D0FD22F46002017E06FF06C
:107A2000130007B0BDE8F08F2A461946F8F754FD59
:107A3000012084F8770125E010270020211818F88C
:107A4000003091F868215A4081F86821401CB84202
:107A5000F4D3524611462046FDF72AF8ED1BB844F0
:107A6000D8D1002001AA2118155C91F86831401C7A
:107A70006B4081F868311028F5D3524611462046F4
:107A8000FDF716F805A8009004F5AC7310225146D6
:107A90002046FFF7D1FC0028C3D1C4E954695D46F4
:107AA00004F5BC7817E0102E02D23746002009E01A
:107AB0001027002021182B5C91F878215A4081F87A
:107AC0007821401CB842F5D3424611462046FCF7C7
:107AD000EFFFF61B3D44002EE5D10020A1E72DE984
:107AE000F04186B04FF0000C0D46044698466FF00A
:107AF0001306CDF814C0934203D9A8EB0200A842A4
:107B00000ED3D4E95273781943EB0C01C71B71EB08
:107B1000030305D36FF01F070F233F1A8B4103D2D6
:107B2000304606B0BDE8F0811646C4E9520146E091
:107B3000102D01D22F4600E010271020211891F8B7
:107B40006721521C12F0FF0281F8672102D1401E0A
:107B50000C28F3D805A8009001AB102204F5B471ED
:107B60002046FFF769FC0028DBD101AA1CE0D4F80D
:107B7000881141B9211816F800C091F8783183EACC
:107B80000C0381F87831135C315C4B4008F800300D
:107B9000D4F88811012906D1211891F878C18CEA0E
:107BA000030C81F878C1401CB842E0D304F5BC72E4
:107BB00011462046FCF77CFFED1B3E44B844002DE7
:107BC000B6D10020ADE7F0B50A79D1F80530CC7810
:107BD00042EA0322260642EA14228C780B7846EA0F
:107BE000044642EA14424C78D1F80D5046EA042685
:107BF0001E430B7B91F80AC043EA0523CD7A42EA83
:107C000014642F0A2D063B4345EA0C4543EA1C4306
:107C100091F809C0097A45EA0C25B61943EA1C63B4
:107C20000D4344EB0402D90FC9000827D1EB07012B
:107C30004FF0870727FA01F782EAE7714FEAD4721B
:107C40006C195B4122430C0EC4710C0C84710C0A3C
:107C5000447186EA0706340E017144EA0124C470B7
:107C6000340C44EA014484700C0644EA1621417045
:107C70000670190EC173190C8173190A4173110E24
:107C8000037341EA0321C172110C41EA034181727D
:107C9000110A41EA036141720272F0BDF0B589B088
:107CA00043680093CC780B6864F31F63009C0193D6
:107CB00024685C40009B01941B1D0093CC794B68A9
:107CC00064F31F63009C029324685C40009B029451
:107CD0001B1D0093CC7A8B6864F31F63009C039395
:107CE00024685C40009B03941B1D0093CB7BC968F8
:107CF00063F31F61009B04911B684B400099049340
:107D0000091D009100684FF0FF3101EB6005FE484E
:107D100000F5806100F5006400F5406EE7E01E6844
:107D2000019B039FDBB2C7F3074750F8233054F899
:107D300027705E40049BDDF810C0C3F30723CCF32B
:107D4000074C51F823307B405E40029B1F0E734668
:107D50005EF827707E400596009E029F361D0096B5
:107D6000FFB2366850F8277054F82CC07E40019F4F
:107D7000C7F3072751F8277087EA0C077E40039F57
:107D80003F0E53F827707E400696009E039F361DD7
:107D90000096FFB2366850F82770DDF804C07E40C8
:107DA000029FCCF3074CC7F3072754F82CC051F8B7
:107DB000277087EA0C077E40049F3F0E53F8277018
:107DC0007E400796009E049F361D0096FFB23668DF
:107DD00050F82770DDF808C07E40039FCCF3074CB5
:107DE000C7F3072754F82CC051F8277087EA0C070F
:107DF0007E40019FDDF81CC03F0ECCF3074C53F8CA
:107E000027707E400896009E361D0096059F3668B6
:107E1000FFB254F82CC050F827707E40089FC7F37B
:107E2000072751F8277087EA0C077E40069FDDF888
:107E300020C03F0ECCF3074C53F827707E400196CC
:107E4000009E069F361D0096FFB2366850F82770D8
:107E500054F82CC07E40059FC7F3072751F82770C0
:107E600087EA0C077E40079F3F0E53F827707E403D
:107E70000296009E079F361D0096FFB2366850F8A6
:107E80002770DDF814C07E40069FCCF3074CC7F383
:107E9000072754F82CC051F8277087EA0C077E405A
:107EA000089F3F0E53F827707E400396009E089F60
:107EB000361D00963668FFB2DDF818C050F82770FE
:107EC000CCF3074C7E40079F54F82CC0C7F307271C
:107ED00051F8277087EA0C077E40059F3F0E5EF839
:107EE00027305E40009B04961B1D6D1E0093009B77
:107EF000002D3FF714AF019D1B68EDB2039E50F8B3
:107F00002550C6F307466B40049D54F82660C5F320
:107F1000072551F8255075406B40029D049E2D0E9B
:107F2000C6F307465EF825506B400593009B029D03
:107F30001B1D0093EDB21B6850F8255054F82660C5
:107F40006B40019DC5F3072551F8255075406B40E6
:107F5000039D2D0E5EF825506B400693009B039DFC
:107F60001B1D0093EDB21B6850F82550019E6B401D
:107F7000029DC6F30746C5F3072554F8266051F85D
:107F8000255075406B40049D2D0E5EF825506B40CA
:107F90000793009B049D1B1D0093EDB21B6850F8D6
:107FA000250043400398C0F3072051F820000299B0
:107FB000C1F3074154F82110484043400198000E96
:107FC0005EF82000434000980893001D009001686F
:107FD0004E48059B50FA83F31B78079C5940089B39
:107FE000C4F30744C3F30723045DC35C1B0283EAA5
:107FF00004435940069B00EB13631B7881EA03613D
:1080000001910099069B091D0091096850FA83F3BC
:108010001B78089C5940059BC4F30744C3F307230E
:10802000045DC35C1B0283EA04435940079B00EBD9
:1080300013631B7881EA036102910099079B091D74
:108040000091096850FA83F31B78059C5940069B00
:10805000C4F30744C3F30723045DC35C1B0283EA34
:1080600004435940089B00EB13631B7881EA0361CA
:1080700003910099089B091D0091096850FA83F348
:108080001B78069C5940079BC4F30744C3F307239E
:10809000045DC35C1B0283EA04435940059B00EB6B
:1080A0001360007881EA006004900098001D009041
:1080B000019810700198000A50700198000C90709F
:1080C0000198000ED07002981071010A5171010CD4
:1080D0009171000ED07103981072010A5172010C57
:1080E0009172000ED07204981073010A5173010C42
:1080F0009173000ED073042101A800F08BFA0421C3
:1081000002A800F087FA03E0B8140100B8130100D8
:10811000042103A800F07EFA042104A800F07AFAF2
:10812000042105A800F076FA042106A800F072FAEE
:10813000042107A800F06EFA042108A800F06AFAEA
:108140000421684600F066FA09B00020F0BD000086
:10815000F0B589B043680093CC780B6864F31F6373
:10816000009C019324685C40009B01941B1D0093BC
:10817000CC794B6864F31F63009C029324685C40D5
:10818000009B02941B1D0093CC7A8B6864F31F63E1
:10819000009C039324685C40009B03941B1D009388
:1081A000CB7BC96863F31F61009B04911B684B4044
:1081B00000990493091D009100684FF0FF3101EB15
:1081C0006005FE4800F5806100F5006400F5406E32
:1081D000E7E01E68019B039FDBB2C7F3074750F837
:1081E000233054F827705E40029BDDF810C0C3F3C3
:1081F0000723CCF3074C51F823307B405E40049BAF
:108200001F0E73465EF827707E400596009E029F03
:10821000361D0096FFB2366850F8277054F82CC00F
:108220007E40039FC7F3072751F8277087EA0C07A2
:108230007E40019F3F0E53F827707E400696009EB9
:10824000039F361D0096FFB2366850F82770DDF8A0
:1082500004C07E40049FCCF3074CC7F3072754F8B3
:108260002CC051F8277087EA0C077E40029F3F0E12
:1082700053F827707E400796009E049F361D009697
:10828000FFB2366850F82770DDF808C07E40019FC5
:10829000CCF3074CC7F3072754F82CC051F82770CC
:1082A00087EA0C077E40039FDDF81CC03F0ECCF32D
:1082B000074C53F827707E400896009E361D0096A6
:1082C000059F3668FFB254F82CC050F827707E40E6
:1082D000069FC7F3072751F8277087EA0C077E40EF
:1082E000089FDDF820C03F0ECCF3074C53F82770F1
:1082F0007E400196009E069F361D0096FFB23668AE
:1083000050F8277054F82CC07E40079FC7F307270A
:1083100051F8277087EA0C077E40059F3F0E53F8FF
:1083200027707E400296009E079F361D0096FFB282
:10833000366850F82770DDF814C07E40089FCCF3F3
:10834000074CC7F3072754F82CC051F8277087EA69
:108350000C077E40069F3F0E53F827707E40039621
:10836000009E089F361D00963668FFB2DDF818C0E3
:1083700050F82770CCF3074C7E40059F54F82CC072
:10838000C7F3072751F8277087EA0C077E40079F3D
:108390003F0E5EF827305E40009B04961B1D6D1E4D
:1083A0000093009B002D3FF714AF019D1B68EDB2B9
:1083B000039E50F82550C6F307466B40029D54F8C3
:1083C0002660C5F3072551F8255075406B40049D84
:1083D000049E2D0EC6F307465EF825506B400593AC
:1083E000009B029D1B1D0093EDB21B6850F82550A9
:1083F00054F826606B40039DC5F3072551F82550BE
:1084000075406B40019D2D0E5EF825506B40069324
:10841000009B039D1B1D0093EDB21B6850F8255077
:10842000019E6B40049DC6F30746C5F3072554F82B
:10843000266051F8255075406B40029D2D0E5EF868
:1084400025506B400793009B049D1B1D0093EDB2CC
:108450001B6850F8250043400198C0F3072051F8ED
:1084600020000299C1F3074154F8211048404340CD
:108470000398000E5EF82000434000980893001D0A
:10848000009001684E48059B50FA83F31B78079CC7
:108490005940069BC4F30744C3F30723045DC35C40
:1084A0001B0283EA04435940089B00EB13631B78CB
:1084B00081EA036101910099069B091D00910968F9
:1084C00050FA83F31B78089C5940079BC4F3074478
:1084D000C3F30723045DC35C1B0283EA04435940D2
:1084E000059B00EB13631B7881EA036102910099FD
:1084F000079B091D0091096850FA83F31B78059CBE
:108500005940089BC4F30744C3F30723045DC35CCD
:108510001B0283EA04435940069B00EB13631B785C
:1085200081EA036103910099089B091D0091096884
:1085300050FA83F31B78069C5940059BC4F307440B
:10854000C3F30723045DC35C1B0283EA0443594061
:10855000079B00EB1360007881EA006004900098AC
:10856000001D0090019810700198000A5070019849
:10857000000C90700198000ED07002981071010AE2
:108580005171010C9171000ED07103981072010AA3
:108590005172010C9172000ED07204981073010A8E
:1085A0005173010C9173000ED073042101A800F0E7
:1085B00031F8042102A800F02DF803E0B80301000F
:1085C000B8020100042103A800F024F8042104A843
:1085D00000F020F8042105A800F01CF8042106A8EA
:1085E00000F018F8042107A800F014F8042108A8E6
:1085F00000F010F80421684600F00CF809B00020E3
:10860000F0BD0000024AC2E90001002070470000EE
:1086100040020020002904D0024B0A4600211B68BA
:108620001847704748020020002802D04821FFF771
:10863000F1BF70474821FFF7EDBF2DE9F047140067
:10864000884605464FF0000634D0686C05F13407C3
:10865000C8B1C0F11006B442384407D222464146A0
:10866000F7F73AFF686C2044686423E032464146DD
:10867000F7F732FF0020012368643A46194628467E
:1086800005F0EAFDA41B102C0CD34FEA141908EBDB
:10869000060201234946284605F0DEFD06EB0916D1
:1086A00004F00F0434B108EB0601224638466C642E
:1086B000F7F712FF0020BDE8F08710B50446002947
:1086C00002D0F7F730FF207810BD00002DE9F05FF1
:1086D0001E46DDF828B091468A46040003D124499D
:1086E0009020F8F757FDB4F80680607908FB00F891
:1086F000A8F10408464503D31D499E20F8F74AFD1A
:10870000E788301DB0FBF7F1B0FBF7F207FB120072
:10871000D9F80050AA19424501D9A8EB0605C9F8B5
:10872000005001E02468491E0029FBD13E1A88460A
:10873000AE4215D817E000BF2044001D0AEB080325
:10874000BBF1000F324602D00146184600E0194640
:10875000F7F7C2FE00202468AD1BB044AF4201D938
:108760002E4600E03E46002DE6D1BDE8F09F000019
:10877000E045010010B50446FCF720FB014684EA01
:10878000010081EA306080EA344080EA342010BD84
:1087900070B5144600230D4606461A4603F00AFE3D
:1087A000844201D9002070BD22462946304603F09C
:1087B00025FE012070BD000030B5024651B103F026
:1087C000EFFD0021074C08E034F821301568AB427A
:1087D00002D11160002030BD491C8142F4D3052034
:1087E00030BD00007802002010B50C460021E16089
:1087F00061600349A160012103F028FE206010BDE3
:108800004C01010070B58468006804F11405FAF7A2
:1088100095FDC1B2A971E07F6A790844B0FBF2F31B
:1088200002FB13035B1C2B70E07F0844B0FBF2F3E8
:108830005B1CAB70A07F0844B0FBF2F35B1CEB70D9
:10884000A07F0844B0FBF2F102FB1101491C6970E2
:10885000284670BD10B531B1B2FBF3F403FB14240C
:108860001CB1092010BD0E2010BD01600021416027
:1088700081608281C381084610BD70B50C460546F3
:10888000F7F7F0FC002802D021882868084470BD62
:1088900010B50A8849888A4203D1F7F725FD0120DF
:1088A00010BD002010BD70B50C460546F7F7FFFC63
:1088B000002802D061882868084470BD10B50A8875
:1088C00049888A4203D1F7F7E9FC012010BD002056
:1088D00010BD002100F00FB8002100F012B80121F6
:1088E00000F01EB8012100F011B808B56A46F7F78C
:1088F00050FD009808BD08B56A46F7F730FD0098AE
:1089000008BD08B56A46F7F72AFD08BD08B56A46EE
:10891000F7F718FD08BD08B56A46F7F707FD08BD6B
:1089200008B56A46F7F70EFD009808BD08B56A4617
:10893000F7F73CFD009808BD70B5040003D113495A
:10894000FE20F8F727FC00252846F8F77BFB206877
:1089500062680168914214D9491E01600D781CB902
:108960000A49C220F8F716FC208BE16805FB0015C8
:108970002068217A0278891A0279C9B28A4200D223
:1089800001710020F8F76EFB284670BD58420100C7
:1089900070B50C46050004D1104940F22110F8F7DB
:1089A000F9FB24B90D494FF49170F8F7F3FB00205F
:1089B000F8F748FB1DB90949CF20F8F7EBFBE86849
:1089C0002A68211A288BB1FBF0F11068431C136050
:1089D0000170BDE870400020F8F744BB5842010028
:1089E00010B5040002D0206830B901E00E2010BD9F
:1089F0001749D920F8F7CEFB606818B91449DA2076
:108A0000F8F7C8FBA06818B91149DB20F8F7C2FBDA
:108A1000E06818B90E49DC20F8F7BCFB208B18B9C8
:108A20000B49DD20F8F7B6FB207A61682268401A0E
:108A3000C0B2116004E0226811684B1C136008701A
:108A4000401EC0B2F7D221680020087110BD00009E
:108A5000584201002DE9F04F8146806889B0D0F876
:108A60004801C0F3400038B109B04846BDE8F04FB6
:108A70000022114601F010BF012907D909B048466C
:108A8000BDE8F04F24A2022101F0A6BE27492848E4
:108A9000081A1C21B0FBF1F8002538E02448C5EB8A
:108AA000C50110EB81044FF0000AB4F818B0D4E906
:108AB0000101A1EB000604D11E4940F21F10F8F796
:108AC00069FB2068077924B91A4940F22F10F8F79A
:108AD00061FB2068217A0078081AC0B2642117FB74
:108AE00001F1B1FBF6F2642110FB01F1B1FBF6F1EB
:108AF0006369CDE90210CDE90462CDE90676CDE9DE
:108B000000BA0D4A0821484601F066FE6D1C454535
:108B1000C4D309B0BDE8F08F42616420617267750B
:108B20006D656E7420636F756E740000C85401002B
:108B3000905401009C420100C8410100C20800F0AD
:108B400007030120895C9840084070472DE9FF5FCA
:108B50008B46164814499A46091A0F09914652F84D
:108B6000046C0025804607E008EB05143046A16838
:108B7000F7F7EBFC18B16D1CBD42F5D30BE02100FB
:108B800009D0009804B04B465A46D446BDE8F04F91
:108B90005DF804EB6047009804B03346BDE8F05F31
:108BA00003A2022101F018BEC0530100A05301002E
:108BB000496E76616C6964206261636B656E643ACC
:108BC0002025730D0A00000070B515468268D2F8A2
:108BD0004841C4F3400424B11A46294601F05CFE22
:108BE00005E031B1536804A2022101F0F5FD012036
:108BF00070BD002070BD000025733A2077726F6E43
:108C00006720706172616D6574657220636F756E47
:108C1000740A0000F8B515460E46040004D118A1E8
:108C200040F2B240F8F7B6FAA06818B1606808B12F
:108C3000206820B912A140F2B340F8F7ABFA032E36
:108C400008D92B6801B02046BDE8F04010A20221EF
:108C500001F0C2BD012E03D0204601F089FF30B1E2
:108C60002046BDE8F8400022114601F015BE6868B4
:108C700000900EA2022120462B6801F0ADFDF8BD48
:108C80002E2E5C2E2E5C2E2E5C6D61696E2E630086
:108C900025733A2062616420706172616D6574654C
:108CA0007220636F756E740D0A00000025733A2000
:108CB00061656164206D6F6465206E6F74207375EB
:108CC00070706F727465643A2025730D0A0000009D
:108CD0002DE9F04F834669A0ADF23C4D0068079046
:108CE000584601F045FF40B100221146584601F0B8
:108CF000D3FD0DF23C4DBDE8F08F0020CDF81804F7
:108D0000CDF81C04CDF82004CDF82404CDF82804B7
:108D1000CDF82C04CDF83004CDF834046421D4A867
:108D2000F7F701FC6421EDA8F7F7FDFB4FF4CC74D5
:108D3000214608A8F7F7F7FB21466EA8F7F7F3FBE3
:108D40004F48F7F7FBFB05464EA20821584601F0B5
:108D500043FD51480388802B0AD0C02B0BD0B3F5BC
:108D6000807F2ED04D4A0221584601F035FDC0E7E4
:108D70004B4E4CA201E0504E50A20821584601F043
:108D80002BFD53A20821584601F026FD00240DF5C5
:108D9000856751A23B5D0821584601F01DFD641C0A
:108DA000E4B20D2CF5D343A20821584601F014FD7E
:108DB000394A3146083208A802F0E2F8040041D1ED
:108DC00002E0474E47A2D8E7334A314608326EA840
:108DD00002F0D6F8040035D110264FF004080DF14A
:108DE0001C0A0696CDE900A8254A0DF583670DF506
:108DF0005479CDE90225CDE904970D230DF585625F
:108E0000012108A802F07DF804001BD1EDA8CDF8DF
:108E100000A0CDE90350CDE905760D230DF585625F
:108E200000216EA8CDE9018902F06BF8040009D198
:108E300008A802F0C5F8040004D16EA802F0C0F83A
:108E4000040009D002F096F9009023462AA20221DC
:108E5000584601F0C1FC4CE7584605F0B5F9D4A9D5
:108E60005846FBF7E9FB10220DF583615846FCF7E5
:108E7000A9FDEDA95846FBF72DF93AE7AABBCCDDD1
:108E800090070020414553206D6F64653A204343AD
:108E90004D207C200000000054000020C83201005A
:108EA00090FA0000414553206B65793A2031323801
:108EB000206269740D0A0000A0FA000041455320A9
:108EC0006B65793A20313932206269740D0A0000ED
:108ED0004E6F6E63653A200030782530327820007E
:108EE000B0FA0000414553206B65793A203235369F
:108EF000206269740D0A00000D0A4572726F7220BB
:108F00003D20307825780D0A25730D0A00000000F9
:108F100070B50D46040004D122A140F63950F8F78F
:108F200039F9A06818B1606808B1206820B91DA19E
:108F300040F63A50F8F72EF9022D0CD1A068D0F87F
:108F40004801C0F3400030B12046BDE87040002227
:108F5000114601F0A1BC40F642551CB911A12846AA
:108F6000F8F718F9206918B90EA12846F8F712F990
:108F70001B4A1CA1206902F089FB40F643551CB92D
:108F800008A12846F8F706F9206918B905A128466E
:108F9000F8F700F92069BDE87040114A11A10932C3
:108FA00002F074BB2E2E5C2E2E5C2E2E5C2E2E5CC0
:108FB0002E2E5C2E2E5C2E2E5C2E2E5C636F6D7022
:108FC0006F6E656E74735C6C6962726172696573F1
:108FD0005C636C695C6E72665F636C692E63000033
:108FE0006DFF00002573000070B50D46040004D12C
:108FF00013A140F64850F8F7CDF8A06818B16068A2
:1090000008B1206820B90EA140F64950F8F7C2F81F
:10901000012D07D0022D0CD1A068D0F84801C0F373
:10902000400030B12046BDE870400022114601F0FA
:1090300033BC2046BDE8704010A2022101F0CCBB39
:109040002E2E5C2E2E5C2E2E5C2E2E5C2E2E5C2E5A
:109050002E5C2E2E5C2E2E5C636F6D706F6E656EB7
:1090600074735C6C69627261726965735C636C696C
:109070005C6E72665F636C692E630000506C6561A4
:10908000736520737065636966792061207375620A
:10909000636F6D6D616E642E0A0000001CB50129BE
:1090A00005D002290BD014D94FF0010112E002B013
:1090B0004FF00002BDE81040114601F0EDBB5368CF
:1090C00008A1CDE9001313680CA2022101F084FB72
:1090D0001CBD002102B00023BDE810401A46FFF776
:1090E00073BD000020756E6B6E6F776E20706172BD
:1090F000616D657465723A200000000025733A25A1
:109100007325730A0000000010B50446012901D040
:10911000012100E0002100231A46FFF755FD002839
:1091200009D1A168C1F83801E06840680068BDE86D
:10913000104003F041BC10BD3EB50546012901D0E9
:10914000012100E0002100231A46FFF73DFD002821
:1091500018D1E86840680468204603F001FCC0B2FA
:10916000642110FB01F2A168B2FBF1F2D2B20092CD
:10917000CDE90101A86804A20021D0F838312846C1
:1091800001F02AFB3EBD00004C6F7374206C6F67CA
:10919000733A2025750A4D6178206C6F67207175D0
:1091A000657565207574696C697A6174696F6E3A6A
:1091B0002025752525205B25752F25755D0A000066
:1091C0007CB515460E46040004D118A140F669503E
:1091D000F7F7E0FFA06818B1606808B1206820B90F
:1091E00012A140F66A50F7F7D5FF012E03D0022EE8
:1091F00009D0012108E002B02046BDE870400022FD
:10920000114601F049BB002100231A462046FFF712
:10921000DBFC002809D1696813A0CDE9000118A280
:10922000022120462B6801F0D7FA7CBD2E2E5C2E41
:109230002E5C2E2E5C2E2E5C2E2E5C2E2E5C2E2E68
:109240005C2E2E5C636F6D706F6E656E74735C6CFC
:1092500069627261726965735C636C695C6E726687
:109260005F636C692E63000020756E6B6E6F776EA6
:1092700020706172616D657465723A2000000000B3
:1092800025733A257325730A0000000010B50446C3
:10929000012901D0012100E0002100231A46FFF737
:1092A00093FC002806D1A068D0F8481121F00401F1
:1092B000C0F8481110BD10B50446012901D00121A4
:1092C00000E0002100231A46FFF77EFC002806D1AB
:1092D000A068D0F8481141F00401C0F8481110BD51
:1092E000F8B515460E46040004D118A140F2C94055
:1092F000F7F750FFA06818B1606808B1206820B97E
:1093000012A140F2CA40F7F745FF032E08D92B6897
:1093100001B02046BDE8F04010A2022101F05CBA85
:10932000012E03D0204601F023FC30B12046BDE8D9
:10933000F8400022114601F0AFBA686800900EA212
:10934000022120462B6801F047FAF8BD2E2E5C2E34
:109350002E5C2E2E5C6D61696E2E630025733A20A3
:1093600062616420706172616D6574657220636F03
:10937000756E740D0A00000025733A2063727970CF
:1093800074206D6F6465206E6F7420737570706FDC
:10939000727465643A2025730D0A00002DE9F043CC
:1093A000ADF5577D81460020D190D290D390D490D6
:1093B000642152A8F7F7B7F864216BA8F7F7B3F860
:1093C00039A20821484601F007FA3C480388802B5F
:1093D0000DD0C02B0ED0B3F5807F19D0384A0221B2
:1093E000484601F0F9F90DF5577DBDE8F083354C9D
:1093F00035A201E0394C3AA20821484601F0ECF9C7
:109400000122214605A801F059FE050003D107E01D
:10941000384C39A2F0E701F0ADFE2B46009031E068
:10942000264905A8083101F07BFE0500F3D1D1A93A
:1094300005A801F05FFE0500EDD13448F7F77EF88E
:1094400080466426D5AF024652AB304905A8009746
:10945000D59601F009FE0500DDD152AAD1A8D59616
:109460008DE805016BA9CDE90317144B00220833E1
:10947000214684A801F0B1FD040009D001F07AFE74
:109480002346009022A20221484601F0A5F9AAE74E
:10949000484604F099FE52A94846FBF7CDF86BA95F
:1094A0004846FAF717FE9EE7414553206D6F646505
:1094B0003A20434243207C2000000000540000205A
:1094C000C832010008F80000414553206B65793A25
:1094D00020313238206269740D0A00002CF8000037
:1094E000414553206B65793A2031393220626974E5
:1094F0000D0A000050F80000414553206B65793A91
:1095000020323536206269740D0A00009007002071
:109510000D0A4572726F72203D20307825780D0A51
:1095200025730D0A0000000070B5D8B005462FA2C3
:10953000082101F051F933480388802B0BD0C02B50
:109540000BD0B3F5807F16D02F4A0221284601F0B8
:1095500043F958B070BD2D4C00E02D4C2DA20821D0
:10956000284601F039F90222214601A801F0A6FDA2
:10957000040027D101E02C4CF0E7224901A8083172
:1095800001F0CEFD04001DD1002653965496559649
:1095900053A901A8569601F0ADFD040012D123484D
:1095A000F6F7CCFF02461020CDE94E0650964EA8A5
:1095B000009051964FAB1D49529601A801F054FD01
:1095C000040009D001F0D6FD0090234618A2022124
:1095D000284601F001F9BCE7284604F0F5FD4E9855
:1095E0004FA9C2B22846FCF7EDF9B2E74145532036
:1095F0006D6F64653A20434243204D4143207C20F7
:109600000000000054000020C8320100B8F900003A
:10961000DCF90000414553206B65793A203132383E
:10962000206269740D0A000000FA00009007002013
:109630000D0A4572726F72203D20307825780D0A30
:1096400025730D0A000000002DE9F043ADF5097DFA
:10965000814600208490859086908790642152A84E
:10966000F6F761FF64216BA8F6F75DFF39A20821C8
:10967000484601F0B1F83C480388802B0DD0C02B40
:109680000ED0B3F5807F19D0384A0221484601F048
:10969000A3F80DF5097DBDE8F083354C35A201E056
:1096A000394C3AA20821484601F096F80122214699
:1096B00005A801F003FD050003D107E0384C39A2ED
:1096C000F0E701F057FD2B46009031E0264905A850
:1096D000083101F025FD0500F3D184A905A801F0AA
:1096E00009FD0500EDD13448F6F728FF80466426D1
:1096F00088AF024652AB304905A80097889601F022
:10970000B3FC0500DDD152AA84A888968DE8050136
:109710006BA9CDE90317144B0022083321461046EC
:1097200001F05BFC040009D001F024FD2346009009
:1097300022A20221484601F04FF8AAE7484604F069
:1097400043FD52A94846FAF777FF6BA94846FAF756
:10975000C1FC9EE7414553206D6F64653A20434646
:1097600042207C200000000054000020C83201008C
:10977000E0F80000414553206B65793A20203132F2
:1097800038206269740D0A0004F900004145532035
:109790006B65793A2020313932206269740D0A00F4
:1097A00028F90000414553206B65793A2020323575
:1097B00036206269740D0A00900700200D0A457278
:1097C000726F72203D20307825780D0A25730D0ABE
:1097D0000000000030B5D3B005462BA2082100F0F0
:1097E000FBFF2E480388802B0BD0C02B0CD0B3F589
:1097F000807F17D02A4A0221284600F0EDFF53B09F
:1098000030BD284C28A201E02C4C2DA2082128466E
:1098100000F0E2FF0222214601A801F04FFC040003
:109820001DD102E02B4C2CA2F0E71C4901A8083105
:1098300001F076FC040012D14E904F905090519060
:109840002A48F6F77BFE02461020529052A800905C
:109850004EAB264901A801F007FC040009D001F035
:1098600089FC0090234622A20221284600F0B4FF82
:10987000C5E7284604F0A8FC52984EA9C2B2284673
:10988000FCF7A0F8BBE70000414553206D6F64650D
:109890003A20434D4143207C20000000540000202A
:1098A000C832010024FA0000414553206B65793A23
:1098B00020313238206269740D0A000048FA000035
:1098C000414553206B65793A203139322062697401
:1098D0000D0A00006CFA0000414553206B65793A8F
:1098E00020323536206269740D0A0000900700208E
:1098F0000D0A4572726F72203D20307825780D0A6E
:1099000025730D0A000000002DE9F041ADF5527DF0
:1099100006460020CD90CE90CF90D09064219BA899
:10992000F6F701FE6421B4A8F6F7FDFD3FA2082179
:10993000304600F051FF42480388802B0DD0C02BE9
:109940000ED0B3F5807F1DD03E4A0221304600F094
:1099500043FF0DF5527DBDE8F0813B4C3BA201E099
:109960003F4C40A20821304600F036FF012221463C
:1099700001A801F0A3FB050007D001F0FBFB2B467B
:10998000009041E03C4C3DA2ECE7002221464EA86D
:1099900001F094FB040033D1294901A8083101F0FA
:1099A000BFFB04002CD126494EA8083101F0B8FBBA
:1099B000040025D1CDA901A801F09CFB04001FD112
:1099C000CDA94EA801F096FB040019D13048F6F756
:1099D000B5FD80466425D1AF02469BAB2C4901A85A
:1099E0000097D19501F040FB040009D1B4AB424689
:1099F0009BA94EA80097D19501F036FB040009D031
:109A000001F0B8FB2346009022A20221304600F06C
:109A1000E3FE9EE7304604F0D7FB9BA93046FAF7F9
:109A20000BFEB4A93046FAF755FB92E741455320A7
:109A30006D6F64653A20435452207C200000000082
:109A400054000020C832010074F800004145532042
:109A50006B65793A2020313238206269740D0A0032
:109A600098F80000414553206B65793A2020313940
:109A700032206269740D0A00BCF800004145532091
:109A80006B65793A2020323536206269740D0A0000
:109A9000900700200D0A4572726F72203D203078C9
:109AA00025780D0A25730D0A000000002DE9F0430A
:109AB000ADF5537D8146642152A8F6F734FD64214B
:109AC0006BA8F6F730FD36A20821484600F084FE68
:109AD00038480388802B0DD0C02B0ED0B3F5807F83
:109AE0002DD0354A0221484600F076FE0DF5537D13
:109AF000BDE8F083314C32A201E0364C36A2082199
:109B0000484600F069FE3948F6F718FD804664269D
:109B1000364A0020D1968DE80501D1AF52A9CDE992
:109B20000317244B01220833214684A801F055FA7B
:109B3000050007D001F01EFB2B4600901EE02C4CC8
:109B40002CA2DCE70022214605A801F0B7FA0400A8
:109B500010D1184905A8083101F0E2FA040009D132
:109B60006BAB424652A905A80097D19601F07CFA4A
:109B7000040009D001F0FEFA2346009022A202213F
:109B8000484600F029FEB1E7484604F01DFB52A903
:109B90004846FAF751FD6BA94846FAF79BFAA5E744
:109BA000414553206D6F64653A20454342207C2037
:109BB0000000000054000020C83201004CF90000F1
:109BC000414553206B65793A202031323820626953
:109BD000740D0A0070F90000414553206B65793A15
:109BE0002020313932206269740D0A00900700206C
:109BF00094F90000414553206B65793A20203235B5
:109C000036206269740D0A000D0A4572726F722067
:109C10003D20307825780D0A25730D0A00000000DC
:109C20002DE9F04F834669A0ADF23C4D00680790E6
:109C3000584600F09DFF40B100221146584600F002
:109C40002BFE0DF23C4DBDE8F08F0020CDF818043E
:109C5000CDF81C04CDF82004CDF82404CDF8280458
:109C6000CDF82C04CDF83004CDF834046421D4A808
:109C7000F6F759FC6421EDA8F6F755FC4FF4CC74C7
:109C8000214608A8F6F74FFC21466EA8F6F74BFCD4
:109C90004F48F6F753FC05464EA20821584600F0FF
:109CA0009BFD51480388802B0AD0C02B0BD0B3F505
:109CB000807F2ED04D4A0221584600F08DFDC0E72E
:109CC0004B4E4CA201E0504E50A20821584600F0E5
:109CD00083FD53A20821584600F07EFD00240DF5B7
:109CE000856751A23B5D0821584600F075FD641C54
:109CF000E4B20F2CF5D343A20821584600F06CFDC6
:109D0000394A3146083208A801F03AF9040041D135
:109D100002E0474E47A2D8E7334A314608326EA8E0
:109D200001F02EF9040035D110264FF004080DF192
:109D30001C0A0696CDE900A8254A0DF583670DF5A6
:109D40005479CDE90225CDE904970F230DF58562FD
:109D5000012108A801F0D5F804001BD1EDA8CDF829
:109D600000A0CDE90350CDE905760F230DF58562FE
:109D700000216EA8CDE9018901F0C3F8040009D1E2
:109D800008A801F01DF9040004D16EA801F018F92B
:109D9000040009D001F0EEF9009023462AA2022126
:109DA000584600F019FD4CE7584604F00DFAD4A9C6
:109DB0005846FAF741FC10220DF583615846FBF72F
:109DC00001FEEDA95846FAF785F93AE7AABBCCDDC2
:109DD00090070020414553206D6F64653A2045414E
:109DE00058207C200000000054000020C8320100F0
:109DF000D8F70000414553206B65793A203132385D
:109E0000206269740D0A0000E8F700004145532004
:109E10006B65793A20313932206269740D0A00008D
:109E20004E6F6E63653A200030782530327820001E
:109E3000F8F70000414553206B65793A20323536FA
:109E4000206269740D0A00000D0A4572726F72205B
:109E50003D20307825780D0A25730D0A000000009A
:109E60007CB514460D460646022901D9012100E0C1
:109E7000002100231A46FEF7A7FE002811D1022D6B
:109E800005D03046F9F716F860B10BA30BE0616816
:109E90000AA0CDE900010FA202213046236800F09C
:109EA0009BFC7CBD0EA302B03046BDE870400DA205
:109EB000002100F091BC00006F6E000020756E6BF9
:109EC0006E6F776E20706172616D657465723A2095
:109ED0000000000025733A257325730A0000000076
:109EE0006F6666004563686F207374617475733ABA
:109EF0002025730A0000000010B50446012901D096
:109F0000012100E0002100231A46FEF75DFE002833
:109F100006D1A068D0F8481121F00801C0F8481116
:109F200010BD10B50446012901D0012100E0002137
:109F300000231A46FEF748FE002806D1A068D0F894
:109F4000481141F00801C0F8481110BD70B50D4628
:109F5000040004D111A140F2F540F7F71BF9A06805
:109F600018B1606808B1206820B90CA140F2F64031
:109F7000F7F710F9012D03D0204600F0F9FD30B1BC
:109F80002046BDE870400022114600F085BC204606
:109F9000BDE8704005A2022100F01EBC2E2E5C2EF2
:109FA0002E5C2E2E5C6D61696E2E6300506C6561B7
:109FB0007365207370656369667920636F7272657B
:109FC000637420737562636F6D6D616E642E0D0A2C
:109FD000000000002DE9F04F834669A0ADF23C4D32
:109FE00000680790584600F0C3FD40B100221146BA
:109FF000584600F051FC0DF23C4DBDE8F08F0020BA
:10A00000CDF81804CDF81C04CDF82004CDF82404B4
:10A01000CDF82804CDF82C04CDF83004CDF8340464
:10A020006421D4A8F6F77FFA6421EDA8F6F77BFA4D
:10A030004FF4CC74214608A8F6F775FA21466EA8AD
:10A04000F6F771FA4F48F6F779FA05464EA208215D
:10A05000584600F0C1FB51480388802B0AD0C02B22
:10A060000BD0B3F5807F2ED04D4A0221584600F028
:10A07000B3FBC0E74B4E4CA201E0504E50A208216A
:10A08000584600F0A9FB53A20821584600F0A4FB53
:10A0900000240DF5856751A23B5D0821584600F06C
:10A0A0009BFB641CE4B20D2CF5D343A20821584657
:10A0B00000F092FB394A3146083208A800F060FFF0
:10A0C000040041D102E0474E47A2D8E7334A314667
:10A0D00008326EA800F054FF040035D110264FF06E
:10A0E00004080DF11C0A0696CDE900A8254A0DF5D5
:10A0F00083670DF55479CDE90225CDE904970D2349
:10A100000DF58562012108A800F0FBFE04001BD1BB
:10A11000EDA8CDF800A0CDE90350CDE905760D23DB
:10A120000DF5856200216EA8CDE9018900F0E9FEF8
:10A13000040009D108A800F043FF040004D16EA870
:10A1400000F03EFF040009D001F014F8009023460F
:10A150002AA20221584600F03FFB4CE7584604F083
:10A1600033F8D4A95846FAF767FA10220DF583613F
:10A170005846FBF727FCEDA95846F9F7ABFF3AE73D
:10A18000AABBCCDD90070020414553206D6F64656C
:10A190003A2047434D207C2000000000540000205E
:10A1A000C8320100C0FA0000414553206B65793A7E
:10A1B00020313238206269740D0A0000D0FA0000A4
:10A1C000414553206B65793A2031393220626974F8
:10A1D0000D0A00004E6F6E63653A2000307825301E
:10A1E00032782000E0FA0000414553206B65793A4F
:10A1F00020323536206269740D0A00000D0A45725E
:10A20000726F72203D20307825780D0A25730D0A73
:10A21000000000007FB50D46040004D122A140F6E5
:10A22000A150F6F7B7FFA06818B1606808B12068C0
:10A2300020B91DA140F6A250F6F7ACFF012D01D0C8
:10A24000012100E0002100231A462046FEF7BCFC55
:10A25000002827D1A0680026D0F84051F5B101E0D0
:10A26000082E1BD20023092201A9284602F040FA39
:10A270009DF80C20A16809232846A031521C02F049
:10A2800037FAA0683346A0300090029D761C15A2D4
:10A290000021204600F0A0FA002DE1D1A1680020A5
:10A2A00081F8A0007FBD00002E2E5C2E2E5C2E2E8D
:10A2B0005C2E2E5C2E2E5C2E2E5C2E2E5C2E2E5CAA
:10A2C000636F6D706F6E656E74735C6C69627261E2
:10A2D000726965735C636C695C6E72665F636C69FE
:10A2E0002E6300005B2533645D2025730A000000A7
:10A2F00070B516460D46040004D116A140F2654023
:10A30000F6F748FFA06818B1606808B1206820B966
:10A3100010A140F26640F6F73DFF012D02D0022D5C
:10A3200004D00EE00F498020088070BD204600F068
:10A330001FFC30B12046BDE870400022114600F0FD
:10A34000ABBA20463368BDE8704007A2022100F096
:10A3500043BA00002E2E5C2E2E5C2E2E5C6D6169A1
:10A360006E2E63005400002025733A206261642041
:10A37000706172616D6574657220636F756E740DC6
:10A380000A00000070B516460D46040004D116A15F
:10A3900040F27740F6F7FEFEA06818B1606808B199
:10A3A000206820B910A14FF48F60F6F7F3FE012D5D
:10A3B00002D0022D04D00EE00F49C020088070BDED
:10A3C000204600F0D5FB30B12046BDE870400022A9
:10A3D000114600F061BA20463368BDE8704007A21C
:10A3E000022100F0F9B900002E2E5C2E2E5C2E2EDC
:10A3F0005C6D61696E2E63005400002025733A2065
:10A4000062616420706172616D6574657220636F52
:10A41000756E740D0A00000070B516460D460400F6
:10A4200004D116A140F28940F6F7B4FEA06818B135
:10A43000606808B1206820B910A140F28A40F6F7A0
:10A44000A9FE012D02D0022D05D00FE00F494FF4D7
:10A450008070088070BD204600F08AFB30B1204635
:10A46000BDE870400022114600F016BA204633685D
:10A47000BDE8704006A2022100F0AEB92E2E5C2E7F
:10A480002E5C2E2E5C6D61696E2E630054000020E0
:10A4900025733A2062616420706172616D65746534
:10A4A0007220636F756E740D0A000000F8B51546D2
:10A4B0000E46040004D118A140F29B40F6F76AFE54
:10A4C000A06818B1606808B1206820B912A140F2F4
:10A4D0009C40F6F75FFE022E08D92B6801B020469B
:10A4E000BDE8F04010A2022100F076B9012E03D0A1
:10A4F000204600F03DFB30B12046BDE8F840002288
:10A50000114600F0C9B9686800900EA202212046E9
:10A510002B6800F061F9F8BD2E2E5C2E2E5C2E2EDD
:10A520005C6D61696E2E630025733A206261642060
:10A53000706172616D6574657220636F756E740D04
:10A540000A00000025733A206B65792073697A65EB
:10A55000206E6F7420636F72726563743A20257386
:10A560000D0A0000F8B515460E46040004D118A1E6
:10A5700040F2DF40F6F70EFEA06818B1606808B13F
:10A58000206820B912A14FF49C60F6F703FE032E59
:10A5900008D92B6801B02046BDE8F04010A2022186
:10A5A00000F01AB9012E03D0204600F0E1FA30B1D4
:10A5B0002046BDE8F8400022114600F06DB96868F9
:10A5C00000900EA2022120462B6800F005F9F8BD8C
:10A5D0002E2E5C2E2E5C2E2E5C6D61696E2E63001D
:10A5E00025733A2062616420706172616D657465E3
:10A5F0007220636F756E740D0A00000025733A2097
:10A600004D4143206D6F6465206E6F7420737570CB
:10A61000706F727465643A2025730D0A00000000A3
:10A620007CB515460E46040004D120A140F6026018
:10A63000F6F7B0FDA06818B1606808B1206820B9CD
:10A640001AA140F60360F6F7A5FD012E03D0022EF5
:10A6500018D9012117E0A168204601F1180219312B
:10A6600004F04EFB00281FD0A16850201EA248769F
:10A67000A1681820087602B02046BDE87040042189
:10A6800000F0AAB8002100231A462046FEF79CFAE3
:10A69000002809D1696823A0CDE9000127A2022181
:10A6A00020462B6800F098F87CBD00002E2E5C2E12
:10A6B0002E5C2E2E5C2E2E5C2E2E5C2E2E5C2E2ED4
:10A6C0005C2E2E5C636F6D706F6E656E74735C6C68
:10A6D00069627261726965735C636C695C6E7266F3
:10A6E0005F636C692E6300004E6F20726573706F3C
:10A6F0006E73652066726F6D207468652074657274
:10A700006D696E616C2C20617373756D65642038A2
:10A71000307832342073637265656E2073697A65B0
:10A720000A00000020756E6B6E6F776E207061728C
:10A73000616D657465723A200000000025733A254A
:10A740007325730A0000000070B50446012901D08A
:10A75000012100E0002100231A46FEF735FA002807
:10A7600017D140F6FB551CB90AA12846F6F712FD91
:10A77000206918B907A12846F6F70CFD144A15A15F
:10A78000206900F083FFA16850204876A168182056
:10A79000087670BD2E2E5C2E2E5C2E2E5C2E2E5C2E
:10A7A0002E2E5C2E2E5C2E2E5C2E2E5C636F6D701A
:10A7B0006F6E656E74735C6C6962726172696573E9
:10A7C0005C636C695C6E72665F636C692E6300002B
:10A7D00086FF0000257300000FB4F8B50446089802
:10A7E0000E4620B91DA140F63B30F6F7D3FC24B944
:10A7F0001AA140F63C30F6F7CDFCA06818B16068AD
:10A8000008B1206820B915A140F63D30F6F7C2FC2A
:10A8100009A80090A068D0F84811490718D5C17E52
:10A82000B14215D0B0F81B503146204604F00EFE60
:10A830006A462069089900F099FFE9B2204604F0C1
:10A8400005FE290A204604F0E3FDF8BC5DF814FB80
:10A850006A462069089900F089FFF6E72E2E5C2EE3
:10A860002E5C2E2E5C2E2E5C2E2E5C2E2E5C2E2E22
:10A870005C2E2E5C636F6D706F6E656E74735C6CB6
:10A8800069627261726965735C636C695C6E726641
:10A890005F636C692E6300002DE9F04F89B090462C
:10A8A0000D46040004D18EA140F6BC30F6F772FCD0
:10A8B000A06818B1606808B1206820B988A140F686
:10A8C000BD30F6F767FC9548F8F738FD0646934823
:10A8D0003638F8F733FD301A1FFA80F98F4890A206
:10A8E00023380090A068082143682046FFF774FFD2
:10A8F000A0684068F8F722FD064688482338F8F734
:10A900001DFD304482B2A068002381682046F9F71B
:10A9100079FF85A200212046FFF75EFFB8F1000F06
:10A9200021D005B300261CE006EB460A05EB8A0B96
:10A93000DBF80400F8F702FD074655F82A00F8F79F
:10A94000FDFC391849450BD9DBF80400F8F7F6FC93
:10A95000074655F82A00F8F7F1FC38441FFA80F949
:10A96000761C4645E0D36D483638F8F7E7FC484496
:10A97000801C1FFA80F9694800904B466DA208219F
:10A980002046FFF729FF09F1030087B20790002353
:10A990003A466AA12046F9F735FF002D51D000262E
:10A9A0004DE000BF06EB460A05EB8A0B55F82A007E
:10A9B000DBF8043063B348B3584965A23639CDE9B2
:10A9C000001008212046FFF707FF09F10200009060
:10A9D000DBF80400F8F7B2FC074655F82A00F8F750
:10A9E000ADFC07444D483638F8F7A8FC39180098F4
:10A9F000401A801EC1B22046F9F754FB3A2257494B
:10AA0000206900F043FE0098401C0AE0009301E03A
:10AA100040B100904B4647A208212046FFF7DCFEDC
:10AA2000079887B2DBF8081029B100233A46204680
:10AA3000F9F7E8FE02E02046F9F766FA761C46458B
:10AA4000B0D3A068C068002847D0814600200646E1
:10AA5000054603AF02902A466D1C02AB0121484611
:10AA60000097F9F70FF8029850B10068F8F766FC04
:10AA7000B042F0D902980068F8F760FC86B2EAE7C5
:10AA8000012D2AD036A200212046FFF7A5FE002581
:10AA9000B8462A466D1C02AB01214846CDF800801D
:10AAA000F8F7F0FF0298002817D0B11C8FB20068A9
:10AAB00000903B461FA208212046FFF78DFE02981A
:10AAC000FF1CBAB2416821B100232046F9F79AFE73
:10AAD000DFE72046F9F718FADBE709B0BDE8F08FA9
:10AAE0002E2E5C2E2E5C2E2E5C2E2E5C2E2E5C2EA0
:10AAF0002E5C2E2E5C2E2E5C636F6D706F6E656EFD
:10AB000074735C6C69627261726965735C636C69B1
:10AB10005C6E72665F636C692E6300008CFF0000E0
:10AB200025732573000000004F7074696F6E733ACF
:10AB30000A0000002020252D2A733A0053686F7701
:10AB400020636F6D6D616E642068656C702E00000F
:10AB5000202025732573257300000000482B00007A
:10AB6000537562636F6D6D616E64733A0A00000025
:10AB70008068D0F84801C0F3400070478068D0F882
:10AB80004801C0F3400070472DE9F0411E46DDF852
:10AB9000188015460F46040004D10EA140F67E2011
:10ABA000F6F7F8FA2A463946204600F031F8050053
:10ABB0000DD166B14146E06801F0B8F8002802DA2C
:10ABC0000420BDE8F081E0680121C0684171284699
:10ABD000F7E700002E2E5C2E2E5C2E2E5C2E2E5CB7
:10ABE0002E2E5C2E2E5C2E2E5C2E2E5C636F6D70D6
:10ABF0006F6E656E74735C6C6962726172696573A5
:10AC00005C636C695C6E72665F636C692E630000E6
:10AC10002DE9F04715460E46040004D13EA140F64A
:10AC20002120F6F7B7FAA06818B1606808B120686B
:10AC300020B939A140F62220F6F7ACFAE0682346A5
:10AC4000444A40688460606801680F683146B847CC
:10AC500000285ED1606920B92FA140F63120F6F7B7
:10AC600099FA606901F033FD002852D1A168C1F85A
:10AC70003C01A168C1F840014FF4A671A068F5F746
:10AC800052FCA068D0F8481141F02001C0F84811EA
:10AC9000A068D0F8481165F38201C0F84811A06897
:10ACA000D0F8481141F00801C0F84811A16801200E
:10ACB000294F0870A168502040F64D294876A168B8
:10ACC0001820002408762548254940F64E2A0D1AFA
:10ACD000804612E018EBC40603D10FA14846F6F7F0
:10ACE00059FA7068006818B90BA15046F6F752FA85
:10ACF0007068006847F82400641CB4EBD50FE9D3F2
:10AD0000072D05D9E908174B04223846F5F796FBBD
:10AD10000020BDE8F08700002E2E5C2E2E5C2E2E2B
:10AD20005C2E2E5C2E2E5C2E2E5C2E2E5C2E2E5C2F
:10AD3000636F6D706F6E656E74735C6C6962726167
:10AD4000726965735C636C695C6E72665F636C6983
:10AD50002E630000613600005802002050530100AD
:10AD6000905301009DEB00000023F8F769BD00003F
:10AD700010B5040004D122A140F60530F6F70AFA16
:10AD8000A06818B1606808B1206820B91CA140F61D
:10AD90000630F6F7FFF9A068102100F5A470FDF762
:10ADA000BFFDA0680078F8B101281DD002281BD192
:10ADB0002046F8F775F900212046F8F781F898B198
:10ADC0001EA2032120462368FFF706FD2046F8F760
:10ADD00071F848B1A36819A2082120462033FFF773
:10ADE000FBFC2046F9F728F9206900F091FCA068E7
:10ADF000BDE810406FF0100100F5A470FDF77BBDB9
:10AE00002E2E5C2E2E5C2E2E5C2E2E5C2E2E5C2E7C
:10AE10002E5C2E2E5C2E2E5C636F6D706F6E656ED9
:10AE200074735C6C69627261726965735C636C698E
:10AE30005C6E72665F636C692E63000025730000B0
:10AE400070B5040004D117A140F6D420F6F7A2F99A
:10AE5000A06818B1606808B1206820B911A140F657
:10AE6000D520F6F797F9A0680078012801D00820CE
:10AE700070BD606801688A680021904705000FD1A5
:10AE80000821204604F0E2FA0121204604F0C0FA2D
:10AE900013A1206900F0FAFB02212046F8F73AFAE4
:10AEA000284670BD2E2E5C2E2E5C2E2E5C2E2E5C27
:10AEB0002E2E5C2E2E5C2E2E5C2E2E5C636F6D7003
:10AEC0006F6E656E74735C6C6962726172696573D2
:10AED0005C636C695C6E72665F636C692E63000014
:10AEE0000A0A000000F180400068002800D001201C
:10AEF000704708B500F180400021016000680090B3
:10AF000008BD2DE9FF4F87B00446DDE91758DDE99C
:10AF10001976DDE915A9DDF850B0F8F7EBFE002849
:10AF20001AD1099948F2105011B90A99002913D180
:10AF30000FB9002E10D1BBF1000F02D1BAF1000FF2
:10AF40000AD1B9F1000F01D1002D05D1B8F1000FE0
:10AF500005D125B148F213500BB0BDE8F08FCDF804
:10AF600000B0CDE90358CDE90576CDE901A96068C7
:10AF70000DF1200C9CE80E00C5682046A847EBE7C1
:10AF800070B5044616460D0048F2105014D0002E3D
:10AF900012D02046F8F7AEFE18B1A0F505410239EF
:10AFA0000AD10649C4E900156A682046314690472F
:10AFB000002801D00021216070BD000041454144BE
:10AFC00010B50446F8F796FE002805D16068816840
:10AFD000204688470021216010BD2DE9F84F984692
:10AFE000DDE90DB7DDF828A091460E004FF0000412
:10AFF000054601D025B109E048F21050BDE8F88FB0
:10B00000706801F0A0FA04000CD005464A463146AB
:10B0100000F054F8060008D014B1204600F0D4FC2B
:10B020003046EBE748F21550E8E74146284600F085
:10B0300077F80600F0D15146284600F05BF8064646
:10B04000A0F50540033801D0002EE5D10097DDE9D9
:10B050000B125B46284600F007F80600DCD02846B5
:10B0600000F070F8D8E700002DE9F8431E4690463E
:10B070000F460446089DF8F74DFE002817D1C7B1CA
:10B0800048F21350002E12D0002D10D000956068A9
:10B0900033464246056A39462046A847002806D16D
:10B0A000204600F04FF8002801D103492160BDE897
:10B0B000F88348F21050FAE75345416370B51646DD
:10B0C0000D460446F8F726FE18B1A0F505410239F1
:10B0D00009D14DB16560AA682046314690470028E5
:10B0E00001D10349216070BD48F2105070BD0000CD
:10B0F0006341455370B50D460446F8F70BFE002832
:10B100000AD1606842692AB13DB129462046BDE8AE
:10B110007040104748F2035070BD48F2105070BDA7
:10B1200070B50D460446F8F7F5FD002809D135B194
:10B130006068294602692046BDE87040104748F221
:10B14000105070BD10B50446F8F7E4FDA0F50541B8
:10B15000023908D0002805D16068C16820468847B8
:10B160000021216010BD024A21689142F4D010BD37
:10B170005345416350B1094A002100BF52F83130B4
:10B18000834205D102EBC1004068704704A07047BC
:10B19000491C1929F2D305A07047000010F70000E0
:10B1A0004E6F206572726F72000000004572726F00
:10B1B00072206E6F742072656C6174656420746FA8
:10B1C000206E72665F63727970746F206C69627250
:10B1D000617279002DE9F0410B480C4D0C4F401B7A
:10B1E000C60801203870002406E000BF55F834007E
:10B1F0008047002805D1641CB442F7D30220387080
:10B200000020BDE8F0810000A05301009053010030
:10B210008C00002005480178022904D0007801281C
:10B2200001D0002070470120704700008C000020F2
:10B2300038B5041D002000F043F900280ED1204647
:10B24000FCF71BFA00200346024600900449204602
:10B25000FCF758FABDE8384003F098BA38BD000052
:10B260000947000010B5001DFCF7F8F900F086F959
:10B27000002010BD2DE9F0410F46064601F036FFD3
:10B2800080B11948408848B118481949401AC00887
:10B29000012101EB004017A100F0A6FF48F2195070
:10B2A000BDE8F081FFF7B6FF40B1194C194D606859
:10B2B00038B1A068A84204D10020F1E74FF405405E
:10B2C000EEE748F21750002EEAD1002FE8D11049DE
:10B2D00011480C316060FFF7ABFF0028E0D1A5609A
:10B2E00062680E491160DBE7DC020020885401002F
:10B2F000C0530100537461636B206F766572666C96
:10B300006F772064657465637465642E00000000C7
:10B31000900000206572E54BF40700206169614DE3
:10B3200070B50D4C0D4A48F20251A068904204D10C
:10B3300060680B4B02689A4201D0084670BD00213C
:10B340000160A160FFF78EFF0546206808B100F09C
:10B350003BFB284670BD0000900000206572E54B65
:10B360006169614D70B50C4C0125207808B18526C6
:10B370000BE00020A06060602061E060074801F001
:10B380003FFF064601F006FF257001F0FBFE00B10D
:10B39000A570304670BD0000380900203539000026
:10B3A00070B5174C0546207818B916A1D020F5F7CE
:10B3B000F1FEA07838B115B16968012088470020F6
:10B3C000F5F740FE0CE00020F5F73CFE25B10C48F7
:10B3D00029461030FAF702F8E06808B901F06CFF6E
:10B3E000E068401CE0600020F5F73CFEE0680028C3
:10B3F00005D1BDE8704003A1EC20F5F7CBBE70BDD0
:10B40000380900202E2E5C2E2E5C2E2E5C2E2E5CFB
:10B410002E2E5C2E2E5C2E2E5C2E2E5C696E74659C
:10B4200067726174696F6E5C6E7266785C6C65677A
:10B430006163795C6E72665F6472765F636C6F6382
:10B440006B2E630070B506460C480C460078012848
:10B4500011D00BA1BA20F5F79DFE0CE0402C01D2D3
:10B46000254600E04025E9B2304600F047F80028C4
:10B47000F9D1641B2E44002CF0D170BDA000002037
:10B480002E2E5C2E2E5C2E2E5C2E2E5C2E2E5C2EF6
:10B490002E5C2E2E5C2E2E5C696E74656772617454
:10B4A000696F6E5C6E7266785C6C65676163795C0F
:10B4B0006E72665F6472765F726E672E6300000064
:10B4C00070B50B4C217809B1852070BD00B90948D1
:10B4D00009490088A4F80100601C02F055F8050035
:10B4E000F3D102F0C9F801202070284670BD000099
:10B4F000A0000020F0FA000069D5000070B50C46ED
:10B500000C4905460978012903D00BA19120F5F7D4
:10B5100041FE22462946184801F00CFB044602F081
:10B52000ABF82CB1052C03D003A1AB20F5F732FE0C
:10B53000204670BDA00000202E2E5C2E2E5C2E2EEC
:10B540005C2E2E5C2E2E5C2E2E5C2E2E5C2E2E5C07
:10B55000696E746567726174696F6E5C6E7266782D
:10B560005C6C65676163795C6E72665F6472765F5E
:10B57000726E672E63000000E454010010B5094CA0
:10B580002078012803D008A16A20F5F703FE02F015
:10B59000ABF802F0DBF8144801F018FB0020207033
:10B5A00010BD0000A00000202E2E5C2E2E5C2E2E42
:10B5B0005C2E2E5C2E2E5C2E2E5C2E2E5C2E2E5C97
:10B5C000696E746567726174696F6E5C6E726678BD
:10B5D0005C6C65676163795C6E72665F6472765FEE
:10B5E000726E672E63000000E4540100F0B505465A
:10B5F0000478154889B0164640F82420124A086994
:10B600000832A2F10C0742F82400487F3855202266
:10B610006846F4F761FF04942878385C48B10EB1AD
:10B620000A4A00E000226946281D02F0E9FA09B042
:10B63000F0BD0EB1064A00E00022694605F10C009B
:10B6400002F0CAF8F3E70000A800002019F2000099
:10B6500059F0000030B40378054CE35C1BB130BCFA
:10B66000001D02F001BC30BC0C3002F0CBB9000070
:10B67000A40000200178044A515C11B1001D02F0C1
:10B6800095BC0C3002F054BAA40000200FB438B5B9
:10B69000040003D110A11C20F5F77CFD606918B9E6
:10B6A0000DA11D20F5F776FD206818B90AA11E200E
:10B6B000F5F770FD606818B907A11F20F5F76AFD5E
:10B6C0000599002905D006A800906A46204600F09A
:10B6D0004DF838BC5DF814FB2E2E5C2E2E5C2E2E01
:10B6E0005C2E2E5C2E2E5C2E2E5C2E2E5C2E2E5C66
:10B6F00065787465726E616C5C667072696E746692
:10B700005C6E72665F667072696E74662E630000AE
:10B7100010B5040003D107A10B20F5F73BFDA2688B
:10B72000002A05D0D4E90403216898470020A060CE
:10B7300010BD00002E2E5C2E2E5C2E2E5C2E2E5C5C
:10B740002E2E5C2E2E5C2E2E5C2E2E5C6578746563
:10B75000726E616C5C667072696E74665C6E726645
:10B760005F667072696E74662E6300002DE9FC4797
:10B7700091460C465FEA000804D183A140F25220B2
:10B78000F5F708FDD8F8140020B97FA14FF4157023
:10B79000F5F700FDD8F8000020B97BA140F2552054
:10B7A000F5F7F8FCD8F8040020B977A140F256204C
:10B7B000F5F7F0FC002C76D014F8011B39B12529DF
:10B7C0000ED04046F6F7BCF820780028F4D198F85F
:10B7D0000C00002867D04046BDE8FC47FFF798BF43
:10B7E0000020012221782B291BD02D2902D03029BD
:10B7F00008D102E040F0010001E040F00200641CCA
:10B80000002AEFD100252A290ED02178A1F130029B
:10B810000A2A11D205EB850201EB4205641C303D7A
:10B82000F1E740F00400EAE7D9F800100B1DC9F871
:10B8300000300968641C0D44217800232E290BD1A7
:10B8400014F8011FA1F130020A2A05D203EB83028A
:10B8500001EB4203303BF3E76C290DD068290BD094
:10B86000692921D00BDC252918D0582931D063292A
:10B870000ED0642915D117E014F8011FECE77029E8
:10B8800069D0732932D075291BD0782909D120E0DD
:10B89000D9F80000011DC9F8001001784046F6F7FC
:10B8A0004FF8641C90E76CE0D9F800100A1DC9F845
:10B8B00000200968CDE900500A224046F9F7EAFB6A
:10B8C000EFE7D9F800100A1DC9F8002009680A221C
:10B8D00006E0D9F800100A1DC9F8002009681022F6
:10B8E000CDE90050404603F039FDDAE7D9F8001001
:10B8F00000270A1DC9F800200E68C00705D112E014
:10B900004046761C7F1CF6F71BF831780029F7D1EA
:10B9100004E0202140466D1EF6F712F8BD42C0D962
:10B92000002DF6D1BDE74EB13046F4F707FE0746CD
:10B9300004E0202140466D1EF6F702F8BD4206D90C
:10B94000002DF6D103E04046761CF5F7F9FF31787B
:10B950000029F8D1A5E7D9F80000011DC9F80010A9
:10B96000056830214046F5F7EBFF78214046F5F7B2
:10B97000E7FF08200021CDE90001034610222946F7
:10B98000B0E7BDE8FC8700002E2E5C2E2E5C2E2E2C
:10B990005C2E2E5C2E2E5C2E2E5C2E2E5C2E2E5CB3
:10B9A00065787465726E616C5C667072696E7466DF
:10B9B0005C6E72665F667072696E74665F666F72E7
:10B9C0006D61742E630000002DE9F04106460C48BD
:10B9D0000078002812D0002E10D00025094F2C46E8
:10B9E0007819B042204603D1BDE8F041F5F752BFC7
:10B9F000F9F7FAF8641C05441C2CF1D3BDE8F0817A
:10BA000098010020CC0A00202DE9FF411C46DDE909
:10BA10000A7815460E46684600F0C2F846EA450127
:10BA200041EA840141EA072242EA0841009A00EB18
:10BA30008200C0F80017BDE8FF812DE9FF411C46D8
:10BA4000DDE90A7815460E46684600F0EBF846EA4E
:10BA5000450141EA840141EA072242EA0841009A8D
:10BA600000EB8200C0F80017BDE8FF811CB5002183
:10BA700000910B4601220191FFF7C6FF1CBD1CB5CA
:10BA8000002100910B4601220191FFF7D6FF1CBD5A
:10BA90001CB500220B46009211460192FFF7B4FF3D
:10BAA0001CBD1CB500220B46009211460192FFF707
:10BAB000C4FF1CBD1CB5002100910B460122019161
:10BAC0001146FFF7A1FF1CBD1CB5002100910B46DC
:10BAD000012201911146FFF7B0FF1CBD13B50C46C2
:10BAE000684600F02BF8009900EB8101D1F800279F
:10BAF00022F44032C1F80027009900EB8100D0F811
:10BB0000001741EA0441C0F800171CBD3CB50A4CBF
:10BB1000D4E90034CDE900346B46441808E000BF96
:10BB200053F82010D1F8205520C2C1F82055401CF0
:10BB30008442F5D83CBD0000F4FA000010B504467C
:10BB4000006800F0B1F820B907A14FF4E370F5F7F1
:10BB500021FB2068202802D24FF0A04010BD00F049
:10BB60001F0020600D4810BD2E2E5C2E2E5C2E2E48
:10BB70005C2E2E5C2E2E5C2E2E5C2E2E5C2E2E5CD1
:10BB80006D6F64756C65735C6E7266785C68616C11
:10BB90002F6E72665F6770696F2E68000003005039
:10BBA00010B5016804464A094FF0000002D0012A8E
:10BBB00005D102E04FF0FF3001E040F2FF3001F02C
:10BBC0001F0201219140014204D108A14FF4E3700A
:10BBD000F5F7E0FA2068202802D24FF0A04010BD0F
:10BBE00000F01F0020600E4810BD00002E2E5C2EBD
:10BBF0002E5C2E2E5C2E2E5C2E2E5C2E2E5C2E2E7F
:10BC00005C2E2E5C6D6F64756C65735C6E7266780D
:10BC10005C68616C2F6E72665F6770696F2E68007A
:10BC20000003005010B5016804464A094FF00000B7
:10BC300002D0012A05D102E04FF0FF3001E040F2CE
:10BC4000FF3001F01F0201219140014204D108A1FF
:10BC50004FF4E370F5F79EFA2068202802D24FF0E7
:10BC6000A04010BD00F01F0020600E4810BD000075
:10BC70002E2E5C2E2E5C2E2E5C2E2E5C2E2E5C2EFE
:10BC80002E5C2E2E5C2E2E5C6D6F64756C65735C65
:10BC90006E7266785C68616C2F6E72665F67706941
:10BCA0006F2E68000003005042094FF0000102D0DF
:10BCB000012A05D102E04FF0FF3101E040F2FF31EF
:10BCC00000F01F00012282400A4201D0012070478B
:10BCD0000020704701B56846FFF762FF009A012116
:10BCE0009140C0F8081508BD01B56846FFF79AFFF6
:10BCF000009A01219140C0F8081508BD034908B514
:10BD00000844002101600068009008BD0060004008
:10BD100002494058012800D00020704700600040D0
:10BD200000210846FFF7A6BAFFF7FABA2DE9F0415D
:10BD3000054620480E460024D0F8103419460AE083
:10BD4000CA681179A14205D1641C0A2CF6DB4FF0B8
:10BD5000FF342BE011680029F2D1611C26D0E9687C
:10BD60000C71D0F8101459B1C968EA6809681160FB
:10BD7000D0F81004C06805600027DFF83C8011E0AF
:10BD8000C0F81054E96800200860F5E708EBC70028
:10BD9000C279B24200D33246E8683946007900F0F1
:10BDA0002DFB7F1C00F0FCFAB842EFD82046BDE81E
:10BDB000F081000064250020C0530100406801218B
:10BDC0008068F7F77DB810B54068846860680168DE
:10BDD0008A680121904718B10420A168087010BD3D
:10BDE0000320FAE72DE9F3414468A668B0680078BB
:10BDF00004281ED0032807D0002501A9206800F0E0
:10BE000019FE85F0010709E00125F6E739463046BD
:10BE1000F7F756F801A9206800F00CFE0028F5D1CC
:10BE2000019800F050FC002D03D000213046F7F7B8
:10BE300047F8BDE8FC81F0B595B01C4615460F46A5
:10BE400008461A9E00F03FFC182109A8F4F76BFB86
:10BE50000E96CDE909540023082203A9384600F0C4
:10BE600047FC05980690BDF81000ADF81C00BDF821
:10BE70001200ADF81E0000208DF82100039808265E
:10BE800000F00300012802D0022818D032E0039805
:10BE90003346850AC0F3C2008DF8200003980FA92D
:10BEA000C0F38314A200384600F022FC09A80090D9
:10BEB00006AB22460FA9284600F0EAFA1AE00398DA
:10BEC000840DC0F3C2008DF82000082C01D2254655
:10BED00000E0082533462A460FA9384600F008FC42
:10BEE0002E44641B09AB06AA29460FA800F0B0F93E
:10BEF000002CEAD1384600F0ECFB15B0F0BD7047DD
:10BF0000084810B50178084A515C19B1001D02F0CB
:10BF10004DF802E00C3001F00BFEBDE810400020AF
:10BF200003F0B8B8A8010020A400002008B5034A17
:10BF300000924023024AFFF77EFF08BD01EA00009D
:10BF4000CC2300200A4A012902EBC00007D00229B5
:10BF500007D0032907D0042907D00020704702200A
:10BF6000704704207047007970474079704700009F
:10BF7000C05301002DE9FF5FF5F7FAFC18B100206E
:10BF800004B0BDE8F09F8C4C0020C4F81804BFF347
:10BF90004F8F8A49A06800900D684FF00009284033
:10BFA00004EB80000CE000BFD4F8180470B961689D
:10BFB0000098814201D8A160E1E7284004EB8000AD
:10BFC0000C306946F9F7E8F90028EDD1002001A905
:10BFD000A046009A02EA050308EB8303521CDB68C3
:10BFE00041F82030401C00920228F2D3019800F062
:10BFF0000300022802D0012850D0BEE00198502250
:10C00000810D8A46B2EB905F00D850210C4664F354
:10C010009F50C0F3C20701900831694800F00AFB45
:10C020000600EAD000F04FFB4B46082201A930463B
:10C0300000F070FB009909F1080B2940681A800094
:10C04000001D844223D95C4D0C3530B1C2B208EBDF
:10C050008101201A91460C3104E02946E2B2002504
:10C0600091462846C4B25B46304600F053FB0BEBCA
:10C0700009032DB1224629464FEA060000F04AFB8B
:10C0800000990AF1030001EB900000903DE008EBFD
:10C0900081015B46224630460C31EFE70198C0F340
:10C0A0008310062800D30620019960F38911C1F39B
:10C0B0008310C1F3C207801C01918100404800F049
:10C0C000B9FA060059D000F0FEFA4B46082201A941
:10C0D000304600F01FFB09F1080900240FE000982A
:10C0E0004B4600EA0501401C08EB81010090042248
:10C0F00030460C3100F00EFB09F10409641C019874
:10C10000C0F38310A042EAD8B6B3D8F81044D8F8E8
:10C1100018044546F8B1304600F0DBFA46E0E06826
:10C120004179012915D10179BDF80800254A01EBB3
:10C13000410152F8200007228A401040C840052FD4
:10C1400000D10327B84204D3226820463146126842
:10C150009047E0680468002CE1D1304600F0B9FA5D
:10C160000020F4F76FFFD5F8180408B90098A8600C
:10C170000020F4F777FF19E0FFE7D8F8104405E056
:10C180002168204689688847E0680468002CF7D158
:10C190000D484088022809D30C480D49401AC008B0
:10C1A000022101EB00400BA100F01EF8F5F7E0FBC7
:10C1B00080F00100E4E6000064250020C4010020B6
:10C1C000AC540100E0020020DC0200208854010091
:10C1D000C05301004261636B656E647320666C75C9
:10C1E000736865640000000000231A4602F080BCFA
:10C1F00008B5012300926A4602F07AFC08BD1CB51E
:10C20000CDE9002302236A4602F072FC1CBD3EB554
:10C21000069C8DE81C0003236A4602F069FC3EBDC3
:10C220007FB5DDE908458DE83C0004236A4602F04D
:10C230005FFC7FBD70B586B00DF1280C9CE87000E6
:10C240008DE87C0005236A4602F052FC06B070BD02
:10C250002DE9F0470E4680461C469246082940D8F4
:10C2600094F80C90002020731946104602F08CF9C7
:10C270000025B54206D218F805201BA12046FFF77D
:10C2800005FA03E01AA12046FFF700FA6D1C082DFD
:10C29000EFD318A12046FFF7F9F90025B54212D2D5
:10C2A00018F805707E2F08D8F4F7C4F80068C05D50
:10C2B00010F03E0F01D03A4600E02E220EA120469B
:10C2C000FFF7E4F903E00DA12046FFF7DFF96D1C4D
:10C2D000082DE3D301222146504602F037F984F8B5
:10C2E0000C90BDE8F0870000202530327800000077
:10C2F000202020007C0000002563000020000000BA
:10C300002DE9F0471F494FF000081F4881F80080D1
:10C3100000F0DDF9002832D11C4800F063FE1C4912
:10C32000DFF87090DFF870A0A1EB0900C6080024C8
:10C3300014E000273D460CE0AC4209D059F8340027
:10C3400059F835101422F4F717F9002800DD7F1C86
:10C350006D1CB542F0D32AF82470641CB442E8D3B3
:10C360000020414654460D4D06E000BF04EB80021C
:10C37000518045F82010401CB042F7D30020BDE8A2
:10C38000F087000064250020AC5401005C0101002E
:10C3900090540100C053010078020020E002002008
:10C3A00002480349401AC008704700009054010039
:10C3B000C05301007FB505461146002401A873B1A2
:10C3C000FCF7FAF998B90B480199072250F82100B7
:10C3D00005EB45018A401040C840C4B207E0FCF7B5
:10C3E000EBF920B90448019900EBC100847904B04D
:10C3F000204670BDE0020020C053010070B5114B13
:10C4000000EB400003EB81040F4B02F0070203EB4B
:10C410008101072303FA00F60D688240B5432A43E1
:10C4200000200A604FEA000103FA01F51540CD40F3
:10C43000ADB2854200D92846C91C0A29F4D36080D0
:10C4400070BD000078020020E002002013B56846AD
:10C45000FCF7B2F908B100201CBD0248009950F861
:10C4600031001CBDC053010070B508480125D0F84B
:10C470001044057007E0E06845712168204649686E
:10C480008847E0680468002CF5D170BD6425002061
:10C490002DE9FF4781460C9D00200C462F7B287319
:10C4A000984616462946184602F06EF8072E42D2E4
:10C4B000DFE806F004090F161F2A36004946284611
:10C4C000FFF7E4F837E0494628462268FFF7DEF830
:10C4D00031E0D4E9002349462846FFF7D7F82AE09F
:10C4E000A0680090D4E9002349462846FFF7CEF81B
:10C4F00021E0D4E90201CDE90001D4E90023494655
:10C500002846FFF7C3F816E004F1080007C88DE8D5
:10C510000700D4E9002349462846FFF7B7F80AE0A8
:10C5200004F108000FC88DE80F00D4E90023494644
:10C530002846FFF7ABF800222946404602F006F8ED
:10C540002F73BDE8FF871CB50024CDE9004001A989
:10C55000684600F015F800B1009400981CBD00007A
:10C5600010B500242046F5F795F9641C1C2CF9D36E
:10C57000024901200870002010BD00009801002031
:10C580002DE9F047804628480E46007878B148F2F9
:10C590000E10B8F1000F08D0002E06D0306810B190
:10C5A000B0F5006F06D948F20710BDE8F08748F2F1
:10C5B0000810FAE71C21F8F7F9FA1C49DFF868902F
:10C5C00048F2041751F82040383109F1040951F8B4
:10C5D000205025E02046F8F707FB0146600942425B
:10C5E00059F8200004EB4212D0404B4610F0010FE6
:10C5F00014D06009424204EB421253F820404FF03D
:10C60000010C0CFA02FC24EA0C0449F8204008480A
:10C6100000274219C8F80020316003E00D44641C73
:10C620001C2CD7D33846C0E79801002054FD0000E9
:10C63000CC0A00202DE9F041058B80462D1F4819BA
:10C64000C01CB0FBF5F0C6B24046FCF775F9041EFD
:10C6500019D00020207101206071E5800027254657
:10C66000761EC4F800800BE04046FCF765F960B127
:10C670006179491C6171286005467F1CC0F8008003
:10C68000B742F1D32046BDE8F081204600F002F821
:10C690000020F8E72DE9F041457901466B1E0022A4
:10C6A00001E00968521C9A42FBD30F68014600263C
:10C6B00005E038460C68FCF76BF92146761CAE4263
:10C6C000F7D3BDE8F0810121001DFCF70EB9FCF79E
:10C6D00087B910B504460121001DFCF727F910F0B9
:10C6E000FF0F04D12046BDE81040FFF7D3BF10BDB7
:10C6F0001CB514460122CDE9002401AAFBF7E6FF90
:10C700000198A04203D00249DA20F4F743FD1CBD92
:10C71000E04501001CB514460022CDE9002401AA21
:10C72000FBF7D4FF0198A04203D00249D020F4F7D0
:10C7300031FD1CBDE045010008B500F18040014617
:10C740000068002220B101200A600968009108BD3C
:10C75000104608BD7047000010B5040004D105A1C3
:10C7600040F20D20F4F716FD204600F0D9FAA1683A
:10C77000081A10BD2E2E5C2E2E5C2E2E5C2E2E5CEA
:10C780002E2E5C2E2E5C2E2E5C2E2E5C636F6D701A
:10C790006F6E656E74735C6C6962726172696573E9
:10C7A0005C71756575655C6E72665F7175657565E2
:10C7B0002E6300002DE9F04190460D4604004FF035
:10C7C000000703D123A1C120F4F7E4FC1DB921A186
:10C7D000C220F4F7DFFC0020F4F734FC204600F020
:10C7E00059F830B105270020F4F73CFC3846BDE885
:10C7F000F08120680668B8F1000F05D10168204675
:10C8000000F006F921680860E268012A0CD0022ACB
:10C810000ED0042A11D06068082A13D006FB02014A
:10C820002846F3F759FEDEE76068805D2870DAE796
:10C83000606830F816002880D5E7606850F8260058
:10C840002860D0E700EBC601D1E90001C5E900018D
:10C85000C9E700002E2E5C2E2E5C2E2E5C2E2E5C48
:10C860002E2E5C2E2E5C2E2E5C2E2E5C636F6D7039
:10C870006F6E656E74735C6C696272617269657308
:10C880005C71756575655C6E72665F717565756501
:10C890002E63000010B5040004D107A140F205206A
:10C8A000F4F778FC216808684968884201D10120C2
:10C8B00010BD002010BD00002E2E5C2E2E5C2E2EF2
:10C8C0005C2E2E5C2E2E5C2E2E5C2E2E5C2E2E5C74
:10C8D000636F6D706F6E656E74735C6C69627261AC
:10C8E000726965735C71756575655C6E72665F71A2
:10C8F000756575652E63000070B5040003D108A14D
:10C900007220F4F747FC206805684168204600F073
:10C910007FF8A84201D1012070BD002070BD000049
:10C920002E2E5C2E2E5C2E2E5C2E2E5C2E2E5C2E41
:10C930002E5C2E2E5C2E2E5C636F6D706F6E656E9E
:10C9400074735C6C69627261726965735C71756540
:10C9500075655C6E72665F71756575652E63000046
:10C9600010B5040004D104A140F21320F4F712FC26
:10C970002068806810BD00002E2E5C2E2E5C2E2EAE
:10C980005C2E2E5C2E2E5C2E2E5C2E2E5C2E2E5CB3
:10C99000636F6D706F6E656E74735C6C69627261EB
:10C9A000726965735C71756575655C6E72665F71E1
:10C9B000756575652E63000010B5040004D104A1EF
:10C9C00040F21920F4F7E6FB21680020886010BDD2
:10C9D0002E2E5C2E2E5C2E2E5C2E2E5C2E2E5C2E91
:10C9E0002E5C2E2E5C2E2E5C636F6D706F6E656EEE
:10C9F00074735C6C69627261726965735C71756590
:10CA000075655C6E72665F71756575652E63000095
:10CA100070B50C46050003D105495D20F4F7BAFB5B
:10CA2000A868A04201D9601C70BD002070BD000044
:10CA300074C700002DE9F0410E4604004FF00008D5
:10CA400003D12CA17D20F4F7A5FB1EB929A17E20DE
:10CA5000F4F7A0FB0020F4F7F5FA2046FFF74CFFAF
:10CA6000070009D0207C38B14FF004080020F4F70B
:10CA7000F9FA4046BDE8F0812068456841682046E3
:10CA8000FFF7C6FF2168486037B12068016820467B
:10CA9000FFF7BEFF21680860E268012A14D0022A6D
:10CAA00016D0042A19D0082A1CD06068314605FB2C
:10CAB0000200F3F711FD204601F0FEFD21688A68AF
:10CAC0008242D3D28860D1E7616830784855F2E776
:10CAD0006168308821F81500EDE76168306841F839
:10CAE0002500E8E7D6E90001626802EBC502C2E969
:10CAF0000001E0E72E2E5C2E2E5C2E2E5C2E2E5C8E
:10CB00002E2E5C2E2E5C2E2E5C2E2E5C636F6D7096
:10CB10006F6E656E74735C6C696272617269657365
:10CB20005C71756575655C6E72665F71756575655E
:10CB30002E6300002DE9F04115460E4607004FF028
:10CB4000000404D111A14FF4D970F4F723FB26B9E6
:10CB50000EA140F2B310F4F71DFB4FF00000002DC2
:10CB600011D0F4F76FFA384601F0A6FDA84205D3BC
:10CB70002A463146384601F06DFD00E005240020CC
:10CB8000F4F770FA2046BDE8F08100002E2E5C2EEE
:10CB90002E5C2E2E5C2E2E5C2E2E5C2E2E5C2E2ECF
:10CBA0005C2E2E5C636F6D706F6E656E74735C6C63
:10CBB00069627261726965735C71756575655C6ED9
:10CBC00072665F71756575652E63000010B50400AF
:10CBD00004D109A14FF4F570F4F7DCFA0020F4F762
:10CBE00031FA20680021016041608160BDE8104099
:10CBF0000846F4F737BA00002E2E5C2E2E5C2E2E3F
:10CC00005C2E2E5C2E2E5C2E2E5C2E2E5C2E2E5C30
:10CC1000636F6D706F6E656E74735C6C6962726168
:10CC2000726965735C71756575655C6E72665F715E
:10CC3000756575652E6300002DE9F04F80468068AC
:10CC400089B0D0F84801C0F3400038B109B040467F
:10CC5000BDE8F04F00221146FDF71EBE012907D99D
:10CC600009B04046BDE8F04F1FA20221FDF7B4BD58
:10CC70002249DFF88CB0A1EB0B001C21B0FBF1F7CF
:10CC8000002529E0C5EBC5010BEB81042046D4E962
:10CC9000026AFFF765FE8146204600F041F86422F3
:10CCA00009FB02F14243B1FBF6F1B2FBF6F2636914
:10CCB000247CB4B10FF24C0CCDF81CC0CDF800A010
:10CCC000CDE90596CDE90120CDE90361104A08219F
:10CCD0004046FDF781FD6D1CBD42D3D309B0BDE8D0
:10CCE000F08F0FF2300CE7E74261642061726775E4
:10CCF0006D656E7420636F756E74000000550100E1
:10CD0000C85401004E6F206F766572666C6F7700B5
:10CD1000504601004F766572666C6F770000000028
:10CD200010B5040004D108A14FF4FC70F4F732FAF6
:10CD30000020F4F787F9204601F0BEFC04460020ED
:10CD4000F4F790F9204610BD2E2E5C2E2E5C2E2E70
:10CD50005C2E2E5C2E2E5C2E2E5C2E2E5C2E2E5CDF
:10CD6000636F6D706F6E656E74735C6C6962726117
:10CD7000726965735C71756575655C6E72665F710D
:10CD8000756575652E6300002DE9F0411F46154657
:10CD90000E00044603D11D491520F4F7FBF91DB917
:10CDA0001A491620F4F7F6F937B1A068FBF79AFD97
:10CDB00010B11120BDE8F081A068D0E903316068AE
:10CDC000A3EB010C421C944507D10020286017B149
:10CDD000A068FBF77EFD0020ECE703EA000201EA11
:10CDE0000007BA4201D3831A01E0181A0B1A286807
:10CDF0005B1C984200D203462B60206810443060D0
:10CE0000A0682A68C1681144C160E4E7CC4601000B
:10CE10002DE9F04117465FEA0108054603D1214993
:10CE20009B20F4F7B7F91FB91E499C20F4F7B2F91B
:10CE3000A868001DFBF756FD10B11120BDE8F08178
:10CE4000A868816800690C1A3868A04200D20446BC
:10CE50003C60AA6869681069926808400A4082428A
:10CE600001D9161A01E00E1A761CB44208D92968B5
:10CE7000324601444046F3F72FFBA41B0020B04488
:10CE80002968224601444046F3F726FBA8683A6821
:10CE9000016911440161A868001DFBF71AFD00201B
:10CEA000CCE70000CC4601002DE9F04117465FEACF
:10CEB0000108054603D11E494C20F4F76BF91FB950
:10CEC0001B494D20F4F766F9A868FBF70BFD10B17C
:10CED0001120BDE8F081A86881680069081A6968B6
:10CEE0000C1A3868641CA04200D204463C60A86852
:10CEF0006968806808400E1A761CB44208D929680F
:10CF0000324608444146F3F7E7FAA41B0020B04438
:10CF10002968224608444146F3F7DEFAA8683A68D1
:10CF2000816811448160A868FBF7D3FC0020D0E73A
:10CF3000CC46010010B5826894681369E41AA142D6
:10CF400001D9042010BD19441161826851618068C3
:10CF5000001DFBF7BEFC002010BD00002DE9F041D4
:10CF60001E4614460F00054603D11D496C20F4F7F8
:10CF700011F91CB91A496D20F4F70CF93EB1A868F3
:10CF8000001DFBF7AFFC10B11120BDE8F081A968CE
:10CF900088684969421A09D06B681940184088426C
:10CFA0000DD9266896420AD9226010E00020206040
:10CFB0001EB1A868001DFBF78CFC0020E5E7884245
:10CFC00005D8581A2268401C824200D9206028687F
:10CFD00008443860A8682268416911444161ECE75F
:10CFE000CC460100826800219160826811618268EC
:10CFF00051618268D16082685160806801607047C9
:10D0000070B58268456894681369E31AEB1A5B1C73
:10D01000994201D9042070BD214491608268D16099
:10D020008068FBF759FC08B1002070BD082070BD76
:10D0300008B5002242504058009008BD70B50D461A
:10D04000060003D10B491420F4F7A4F81DB90949CF
:10D050001520F4F79FF8746804E0B26829469047F9
:10D0600018B1246820680028F7D12068286025605E
:10D0700070BD00001047010010B5040003D1034942
:10D080003720F4F787F86068006810BD104701008A
:10D0900010B5040003D105492B20F4F77BF8616833
:10D0A0000868002801D002680A6010BD104701001E
:10D0B00070B50C46050003D10B494320F4F76AF81C
:10D0C0001CB909494420F4F765F80021686806E0B6
:10D0D000A24203D121680160012103E010460268E9
:10D0E000002AF5D1084670BD104701000349684683
:10D0F000884201D2012070470020704788490020F3
:10D100000C4A10B502F58C730EE0991AC91001EBA8
:10D11000D171491002EBC1010C68844201D90B4660
:10D1200002E005D201F108029A42EED3002010BDC0
:10D13000486810BD0800010000B5FFF7E1FF0028B6
:10D1400000D1014800BD0000F4FF00004058002855
:10D1500000D00120704708B500224250405800908E
:10D1600008BDD0F80403084000D0012070474058A3
:10D17000002800D00120704708B5002242504058D6
:10D18000009008BD02480068002800D001207047C8
:10D1900000040140084810B5007918B907A197208C
:10D1A000F3F7F8FF00F0D0F81449012008600249B5
:10D1B000091F087010BD0000BC0000202E2E5C2E40
:10D1C0002E5C2E2E5C2E2E5C2E2E5C2E2E5C2E2E99
:10D1D0005C2E2E5C6D6F64756C65735C6E72667828
:10D1E0005C647269766572735C7372635C6E72669E
:10D1F000785F636C6F636B2E63000000180500405E
:10D2000010B5040003D107A17E20F3F7C3FF154931
:10D2100000200A790AB1852010BD01220C600A7134
:10D2200010BD00002E2E5C2E2E5C2E2E5C2E2E5C51
:10D230002E2E5C2E2E5C2E2E5C2E2E5C6D6F647559
:10D240006C65735C6E7266785C6472697665727325
:10D250005C7372635C6E7266785F636C6F636B2E77
:10D2600063000000BC00002070B54FF480763046AB
:10D27000FDF738FE0F4DB40540B13046FDF739FEDD
:10D280000120C4F808032968002088474FF48276FB
:10D290003046FDF727FE00280AD03046FDF729FE6C
:10D2A0000220C4F808032968BDE87040012008473F
:10D2B00070BD0000BC000020094810B5007918B905
:10D2C00008A1C420F3F766FF4FF48270FDF711FE4A
:10D2D00002204107C1F8040312490120086010BD73
:10D2E000BC0000202E2E5C2E2E5C2E2E5C2E2E5C82
:10D2F0002E2E5C2E2E5C2E2E5C2E2E5C6D6F647599
:10D300006C65735C6E7266785C6472697665727364
:10D310005C7372635C6E7266785F636C6F636B2EB6
:10D320006300000008000040002802D0014980018D
:10D330000847704731FD00000121B1EB507F01D15A
:10D34000012070470020704706480068012110F056
:10D35000010F06D14FF0E020C02280F80024843075
:10D36000C167704700E100E070B54FF08040D0F831
:10D370000453344C68070CD54FF48470FFF7DCF984
:10D3800038B1606818B930A1F020F3F703FF606886
:10D390008047A8060DD54FF48A70FFF7CDF940B14C
:10D3A000A06818B928A1F920F3F7F4FEA1680020BD
:10D3B000884768060ED54FF48C70FFF7BDF948B169
:10D3C000A06820B920A14FF48070F3F7E3FEA168B4
:10D3D0000120884728060ED54FF48E70FFF7ACF970
:10D3E00048B1E06820B918A140F20910F3F7D2FE65
:10D3F000E16800208847E8050ED54FF49070FFF7EC
:10D400009BF948B1E06820B90FA14FF48870F3F799
:10D41000C1FEE16801208847A80511D54FF492703C
:10D42000FFF78AF900280BD0E06820B906A140F286
:10D430001710F3F7AFFEE168BDE87040022008471F
:10D4400070BD0000C40000202E2E5C2E2E5C2E2EFF
:10D450005C2E2E5C2E2E5C2E2E5C2E2E5C2E2E5CD8
:10D460006D6F64756C65735C6E7266785C6472690E
:10D47000766572735C7372635C6E7266785F706FF0
:10D480007765722E6300000070B50D46040003D16D
:10D490000DA15120F3F77EFE204601F0CFF80400E5
:10D4A0000FD00020F3F7CEFD207920B10020F3F754
:10D4B000D9FD112070BD0120256020710020F3F7F7
:10D4C000D1FD002070BD00002E2E5C2E2E5C2E2E75
:10D4D0005C2E2E5C2E2E5C2E2E5C2E2E5C2E2E5C58
:10D4E0006D6F64756C65735C6E7266785C6472698E
:10D4F000766572735C7372635C7072735C6E726675
:10D50000785F7072732E630010B5040003D106A11A
:10D510007520F3F73FFE204601F090F8002802D076
:10D5200000210160017110BD2E2E5C2E2E5C2E2E6E
:10D530005C2E2E5C2E2E5C2E2E5C2E2E5C2E2E5CF7
:10D540006D6F64756C65735C6E7266785C6472692D
:10D55000766572735C7372635C7072735C6E726614
:10D56000785F7072732E630001B569460548FFF756
:10D5700061FA0448FFF7C0F9002801D000F0B4F8C0
:10D5800008BD0000E454010070B50E46040003D14C
:10D5900018A11820F3F7FEFD1EB916A11920F3F704
:10D5A000F9FD234D287808B1852070BD6E60207884
:10D5B000C00704D01F48016841F0010101601E4806
:10D5C000D0F8001221F00101C0F800126478082C94
:10D5D00003D31AA14520F3F7DDFD2649600181F848
:10D5E000000401204FF0E0224103C2F8001128702E
:10D5F000002070BD2E2E5C2E2E5C2E2E5C2E2E5CFE
:10D600002E2E5C2E2E5C2E2E5C2E2E5C6D6F647585
:10D610006C65735C6E7266785C6472697665727351
:10D620005C7372635C6E7266785F726E672E630005
:10D63000DC00002004D5004000D000402E2E5C2EDF
:10D640002E5C2E2E5C2E2E5C2E2E5C2E2E5C2E2E14
:10D650005C2E2E5C696E746567726174696F6E5CB6
:10D660006E7266785C6E7266785F676C75652E6840
:10D67000000000000DE000E0094808B5007801282E
:10D6800003D008A13020F3F785FD16490022144885
:10D690000A60096800910121C0F80413016008BD07
:10D6A000DC0000202E2E5C2E2E5C2E2E5C2E2E5C9E
:10D6B0002E2E5C2E2E5C2E2E5C2E2E5C6D6F6475D5
:10D6C0006C65735C6E7266785C64726976657273A1
:10D6D0005C7372635C6E7266785F726E672E630055
:10D6E00000D0004000D10040074810B50078012864
:10D6F00003D006A13820F3F74DFD13490120C1F8EE
:10D700000803091D086010BDDC0000202E2E5C2ED1
:10D710002E5C2E2E5C2E2E5C2E2E5C2E2E5C2E2E43
:10D720005C2E2E5C6D6F64756C65735C6E726678D2
:10D730005C647269766572735C7372635C6E726648
:10D74000785F726E672E630000D0004010B50D4CFC
:10D750002078012803D00CA13F20F3F71BFD1949C5
:10D760000120C1F80803091D086041034FF0E022C1
:10D770000020C2F88011BFF34F8FBFF36F8F20706E
:10D7800010BD0000DC0000202E2E5C2E2E5C2E2E04
:10D790005C2E2E5C2E2E5C2E2E5C2E2E5C2E2E5C95
:10D7A0006D6F64756C65735C6E7266785C647269CB
:10D7B000766572735C7372635C6E7266785F726EAC
:10D7C000672E630000D000400149024801F08EBC82
:10D7D000040A0020002000402DE9F04117460D000A
:10D7E000064603D11AA18420F3F7D4FC3079284AE5
:10D7F00000EB400101EBC00102EB810494F82A1018
:10D8000011B10820BDE8F081224951F8201030689C
:10D81000FFF73AFE08B11120F4E729463046F3F746
:10D8200043FC6760286920601FB1297F3046F7F705
:10D8300085FC30680421C0F800150020A061E0617B
:10D8400084F8290044F8140F0121A175DAE70000DB
:10D850002E2E5C2E2E5C2E2E5C2E2E5C2E2E5C2E02
:10D860002E5C2E2E5C2E2E5C6D6F64756C65735C69
:10D870006E7266785C647269766572735C737263EB
:10D880005C6E7266785F756172742E6300000000D2
:10D89000040A0020FCFA00002DE9F05F054600793B
:10D8A0000F4600EB400101EBC0014048164600EB7B
:10D8B000810494F82A00012804D03DA14FF4A370FC
:10D8C000F3F768FC27B93AA140F24710F3F762FC7E
:10D8D00026B937A14FF4A470F3F75CFC616800200F
:10D8E0004FF4017811B12A68C2F80883A1694FF09A
:10D8F000000969B1E06938B1606810B12868C0F802
:10D9000004831120BDE8F09F27610120E66105E056
:10D91000C4F82490E760A661C4F81C9094F829101C
:10D92000014302D1284601F010F8606800282868F9
:10D9300003D0C0F804830020E4E74FF4A276314618
:10D94000FFF709FCB2464FF4927B59462868FFF76F
:10D95000FDFB06464FF484712868FFF7F7FB80460D
:10D9600051462868FFF7F2FB074648EA07003043B4
:10D97000EBD056EA070007D12146286800F0B6FF31
:10D98000616AA0698842E0D8C4F818900EB10320FB
:10D99000B8E70FB10F20B5E794F82910012000294E
:10D9A000296801D00860C6E74860C4E7040A00207F
:10D9B0002E2E5C2E2E5C2E2E5C2E2E5C2E2E5C2EA1
:10D9C0002E5C2E2E5C2E2E5C6D6F64756C65735C08
:10D9D0006E7266785C647269766572735C7372638A
:10D9E0005C6E7266785F756172742E630000000071
:10D9F00001684FF40172C1F80823006801214160F9
:10DA0000704700002DE9F05F054600790F4600EBF6
:10DA1000400101EBC0002D49164601EB800494F84B
:10DA20002A00012803D02AA1F220F3F7B3FB1FB983
:10DA300027A1F320F3F7AEFB1EB925A1F420F3F7DD
:10DA4000A9FB284600F064F810B11120BDE8F09F52
:10DA500066614FF00009C4F82090A76084F8289010
:10DA60004FF48E784E4641462868FFF774FB2868CD
:10DA70004FF0010AC0F808A02146286801F05AFAC0
:10DA8000606800BBD5F800B067690EE094F8280024
:10DA900008B10F2615E041465846FFF757FB00280E
:10DAA000F4D02146584601F045FA206AB842F2D334
:10DAB000574641462868FFF749FB0028F9D02868F7
:10DAC000C760C4F814903046C0E70000040A002084
:10DAD0002E2E5C2E2E5C2E2E5C2E2E5C2E2E5C2E80
:10DAE0002E5C2E2E5C2E2E5C6D6F64756C65735CE7
:10DAF0006E7266785C647269766572735C73726369
:10DB00005C6E7266785F756172742E63000000004F
:10DB1000007900EB400101EBC000044901EB8000FB
:10DB20004069002800D0012070470000040A00204E
:10DB30002DE9F047044600794FF0000900EB400161
:10DB400001EBC000284901EB80072068C0F8009570
:10DB50007868B0B120682549C0F80813206840F300
:10DB6000073000280DDB00F01F0201219140400921
:10DB7000800000F1E020C0F88011BFF34F8FBFF3A9
:10DB80006F8F2068D0F80C25D0F81485D0F8086580
:10DB9000D0F810554FF0FF31C0F81415C0F80C152F
:10DBA0002068C0F80815C0F81015501C02D01046A7
:10DBB000FDF75CFFB8F1FF3F02D04046FDF756FF8E
:10DBC000681C02D02846FDF751FF701C02D0304679
:10DBD000FDF74CFF2068FFF797FC87F82A90C7F8FD
:10DBE0000490BDE8F0870000040A002084020200CF
:10DBF0000149024801F028BB300A00200020004003
:10DC00002DE9F04117460D00064603D118A1A920C1
:10DC1000F3F7C0FA3079264A00EBC00102EB810429
:10DC200094F8201011B10820BDE8F081214951F885
:10DC300020103068FFF728FC08B11120F4E72946CE
:10DC40003046F3F76CFA6760286920601FB1297FBE
:10DC50003046F7F7CBFA30680821C0F800150020ED
:10DC6000A061E0616061012184F82010DCE7000020
:10DC70002E2E5C2E2E5C2E2E5C2E2E5C2E2E5C2EDE
:10DC80002E5C2E2E5C2E2E5C6D6F64756C65735C45
:10DC90006E7266785C647269766572735C737263C7
:10DCA0005C6E7266785F75617274652E6300000049
:10DCB000300A002000FB00002DE9F05F04460079E7
:10DCC0000F46DFF834A100EBC0010AEB81051646D0
:10DCD00095F82000012804D048A14FF4C070F3F754
:10DCE00059FA27B945A140F28110F3F753FA26B942
:10DCF00042A14FF4C170F3F74DFA207910B9B6F58F
:10DD0000803F04D33DA140F28310F3F743FA384635
:10DD1000FFF712FBB0B168684FF000084FF40479C8
:10DD200010B12168C1F80893A8694FF0000B80B1C9
:10DD3000E86948B1686810B12068C0F80493112000
:10DD4000BDE8F09F1020FBE72F614FF00108EE6166
:10DD500002E0EF60C5E9066B00254FF4887120688A
:10DD6000FFF70AFA4FF4A2712068FFF705FA20685E
:10DD7000C0F83475C0F838652068B8F1000F12D0CB
:10DD8000D0F8001241F02001C0F800122079D046EE
:10DD900000EBC0010AEB8100406838B12168C1F88E
:10DDA00004932846CCE701210160EFE74FF4887A1D
:10DDB0004FF4A27951462068FFF7D9F90746494642
:10DDC0002068FFF7D4F906464FF492712068FFF7F8
:10DDD000CEF9014647EA06000843EBD0227902EB70
:10DDE000C20308EB8302C2F818B001B10325002E6C
:10DDF000D7D00F25D5E70000300A00202E2E5C2E4C
:10DE00002E5C2E2E5C2E2E5C2E2E5C2E2E5C2E2E4C
:10DE10005C2E2E5C6D6F64756C65735C6E726678DB
:10DE20005C647269766572735C7372635C6E726651
:10DE3000785F75617274652E630000000179094A8C
:10DE400001EBC10102EB8101C96931B10168D1F86F
:10DE5000002222F02002C1F8002200680121416066
:10DE600070470000300A00202DE9F04704460F46B5
:10DE70000079364900EBC00001EB8005164695F8A5
:10DE80002000012804D032A140F22D10F3F782F9CE
:10DE900027B92FA14FF49770F3F77CF926B92CA17D
:10DEA00040F22F10F3F776F9207910B9B6F5803FDC
:10DEB00004D327A14FF49870F3F76CF93846FFF7B5
:10DEC0003BFA30B1204600F063F820B11120BDE8E4
:10DED000F0871020FBE76E61AF604FF490774FF052
:10DEE000000839462068FFF747F94FF4AC76314611
:10DEF0002068FFF741F92068AA686969C0F84425DD
:10DF0000C0F8481520684FF00109C0F8089068680B
:10DF1000D0B9BA4651462068FFF729F9074631467D
:10DF20002068FFF724F90743F4D010B14FF00F0831
:10DF300008E02068C0F80C9031462068FFF717F918
:10DF40000028F9D0002068614046C0E7300A002070
:10DF50002E2E5C2E2E5C2E2E5C2E2E5C2E2E5C2EFB
:10DF60002E5C2E2E5C2E2E5C6D6F64756C65735C62
:10DF70006E7266785C647269766572735C737263E4
:10DF80005C6E7266785F75617274652E6300000066
:10DF90000079054900EBC00001EB800040690028D2
:10DFA00000D0012070470000300A00202DE9F04722
:10DFB000064600793D4900EBC00001EB800534685E
:10DFC00068680127A8B13A49C4F80813306840F3DB
:10DFD000073000280DDB00F01F0107FA01F14009AE
:10DFE000800000F1E020C0F88011BFF34F8FBFF335
:10DFF0006F8FD4F8000220F02000C4F80002A86956
:10E000004FF4A27820B141462046FFF7B5F867608B
:10E010004FF4AC7949462046FFF7AEF8E760474633
:10E0200049462046FFF7A3F80028F9D0A86928B18F
:10E0300039462046FFF79BF80028F1D04FF0000A40
:10E04000C4F800A53068D0F80C25D0F81495D0F8A5
:10E050000885D0F810754FF0FF31C0F80C15C0F8E6
:10E0600014153068C0F80815C0F81015501C02D0FF
:10E070001046FDF704FDB9F1FF3F02D04846FDF719
:10E08000FEFC781C02D03846FDF7F9FCB8F1FF3FE2
:10E0900002D04046FDF7F3FC2046FFF735FA85F83D
:10E0A00020A0C5F804A0BDE8F0870000300A0020D9
:10E0B0001003420070B50F4C06466068002817D068
:10E0C0003046F6F7BDF8054600213046F6F75CF815
:10E0D000281A20F07F40B0F5960F04D306A14FF424
:10E0E0008270F3F757F8606800F066FE0020606009
:10E0F00070BD0000E80000202E2E5C2E2E5C2E2E1F
:10E100005C2E2E5C2E2E5C2E2E5C2E2E5C2E2E5C1B
:10E11000636F6D706F6E656E74735C6C6962726153
:10E12000726965735C74696D65725C6170705F744F
:10E13000696D6572322E63002DE9F84317460C00B5
:10E1400005462BD0DFF870804646D8F80000F5F77A
:10E15000F5F83844C7B23068F5F7F0F8A968497E99
:10E16000081AB0FBF7F0C6B22046F5F7E7F8A96841
:10E17000381AC7B2487FB0FBF6F206FB1202401C09
:10E18000487782B123460DA207212846FCF724FBDD
:10E1900039462846BDE8F843F5F784BFA968002052
:10E1A0004877BDE8F883009405A207212846D8F8EF
:10E1B0000030FCF711FBEBE7A00100202573000005
:10E1C0000A257325730000002DE9F0410746144825
:10E1D000F2F7B4F90546124B12A208213846FCF7B3
:10E1E000FBFA15A208213846FCF7F6FA00240C4E7B
:10E1F0000DE0200704D115A208213846FCF7ECFAFF
:10E20000335D13A208213846FCF7E6FA641CAC42E1
:10E21000EFD33846BDE8F0410CA20821FCF7DCBA88
:10E2200090070020506C61696E20746578743A0D17
:10E230000A25730D0A000000506C61696E20746538
:10E240007874202D2041534349493A000D0A0000BB
:10E2500025327820000000002DE9FF4F96B0002104
:10E260001391D0E900318E4681681291C1681591F1
:10E270000EEB9E011491129901EB910111911599E8
:10E28000056B01EB910BD0E908218946D0E90A41E1
:10E290008A460021179E1091B1427CD2139E189994
:10E2A00001EB060C9CF80310DCF8007061F31F67AB
:10E2B00002979CF80770DCF80460DCF8088067F3CC
:10E2C0001F669CF80B70002167F31F689CF80F70A5
:10E2D000DCF80CC067F31F6C029FBA1841EB010712
:10E2E000029219EB070741EB0102BE194A41A2183D
:10E2F00041EB010912EB080849EB01041AEB040297
:10E3000041EB010912EB0C0449EB0107DDF864C095
:10E31000029A6744C14607EB050AA2FB0357A6FB16
:10E320000BC815EB0C05DDF844C047EB0807A9FB4B
:10E330000CC815EB0C05DDF850C047EB0807A4FB33
:10E340000CC815EB0C0547EB0807CDE90175A2FBDE
:10E350000E75A6FB03C817EB0C0745EB0805A9FBD8
:10E360000BC817EB0C07DDF844C045EB0805A4FB10
:10E370000CC817EB0C07DDF850C045EB0805AAFBED
:10E380000CC817EB0C0C45EB0805CDE9075C129D9A
:10E39000A2FB055700E061E0A6FB0EC815EB0C05DB
:10E3A00047EB0807A9FB03C815EB0C0547EB08076B
:10E3B000A4FB0BC815EB0C05DDF844C047EB0807C0
:10E3C000AAFB0CC815EB0C0C47EB0807CDE9057C44
:10E3D000159D129FA2FB0552A6FB0776ED1972410F
:10E3E000A9FB0E76ED197241A4FB03462C1972416C
:10E3F000AAFB0B65A6196A41DDE9075C019F0AFBD0
:10E4000003F91CEB0708DDE9057C4D411CEB050415
:10E410004F4116EB070A4A4102EB0907029DBA0871
:10E42000551941EB010627F00302C446AA184E41D4
:10E430001CEB060941EB0106A41941EB01051AEB9F
:10E44000050A07F00308494118EB0105139901F18A
:10E4500010011391109901F101011BE70563C0E957
:10E460000829C0E90A4A1AB0BDE8F08F2DE9F84F33
:10E47000314F05464FF001090024381990F95A1020
:10E48000491C46D090F85A00294620F0C006304674
:10E49000FAF754FB70B3204600F050F88246684605
:10E4A0000096FDF74BFB009900EB8100D0F80007C8
:10E4B000C0F30148B8F1020F1DD002213046FDF72C
:10E4C0000DFB68460096FDF739FB009A09FA02F148
:10E4D000C0F820153046F4F7BFF957F820204AB1AC
:10E4E0005046BAF1030F11D0B8F1020F05D0B8F1C0
:10E4F000030F07D00DE00321E0E75046BAF1010F0A
:10E5000004D006E05046BAF1020F02D1014630466F
:10E510009047641C042CB0D32A4602210020FDF74A
:10E52000F5FA002055F820100029A5D1401C02283A
:10E53000F8D3BDE8F88F00009C0900200249084488
:10E5400090F85A00800970479C09002010B50C46CD
:10E55000017A052908D0407A38B1084808A1026834
:10E560002046FDF793F800E01AB106A12046FDF71A
:10E570008DF82046BDE81040FDF7CAB81C02002007
:10E58000257300000D0A000038B5C3880D46044607
:10E5900033B114A0009015A216A12846FDF776F815
:10E5A000217A05291CD0607A48B1A088FDF7CAFC01
:10E5B000164951F8202016A12846FDF767F8A088D3
:10E5C0000021FDF743FF03461049207A143951F822
:10E5D000202001B02846BDE830400EA1FDF756B816
:10E5E00038BD00001B5B306D000000001B5B313B41
:10E5F00033316D0025734C6F67732064726F7070D8
:10E600006564202825642925730D0A001C0200205A
:10E61000257300003C25733E2025733A200000003E
:10E62000EFF30580C005C00D01D001207047EFF366
:10E63000148040F30000401C7047000003498842EA
:10E6400001D10348704700207047000000200040BF
:10E65000D40000202DE9F04704460068164689469C
:10E66000076800212046F5F765FB0546D4F80C80C5
:10E670006068AE4207FB08010DD808FB06F2484669
:10E68000F1F72AFFA168B819884200D90020216853
:10E690000860BDE8F08708FB05F842464846F1F7F8
:10E6A0001BFFE268751B6A4309EB08006168F1F71C
:10E6B00013FF20680560ECE701680A684968914229
:10E6C00001D3881A70478068801A0844401C70473C
:10E6D0000168C07809BA21F0FF010843704701685A
:10E6E000C07809BA21F0FF010843704748F2115180
:10E6F00010F5A24F1AD009DC10F5C34F10D010F559
:10E70000C24F0BD010F5C14F05D10CE010F1220F14
:10E7100004D0002801D048F21650704708467047D0
:10E7200048F21550704748F20350704748F21750AE
:10E730007047014648F2175248F2605011F1120F2B
:10E7400016D00CDC11F5C34F18D011F5C24F12D002
:10E7500011F5C14F15D011F1140F07D114E011F1CB
:10E760000F0F05D011F10D0F0ED011B148F2165058
:10E7700070470020704748F21150704748F215501A
:10E78000704748F2035070471046704710F1380F39
:10E7900007D010F1360F07D0002801D048F21650EC
:10E7A000704748F21150704748F21450704700000B
:10E7B00070B50546F5F74FFE114C40B1D4E904029F
:10E7C0004FF08071411842F10000C4E904100021AB
:10E7D0002846F5F7E0FC10B12846FFF76BFC012155
:10E7E0002846F5F7D8FC18B1F6F714FAC4E9060183
:10E7F000284600F045FB2846BDE8704000F03AB8D6
:10E80000E800002070B5054600200C460870F6F7B9
:10E8100001FAD5E90223101A63EB01030026314601
:10E82000361A994117DAB0F5350F03D3F2F728FB02
:10E830000D4942184FF4960300210C48F5F768FE85
:10E8400038B10D280BD00A49CF20F2F7A3FC0020E5
:10E8500070BD012070BD00210448F5F78FFC2846EB
:10E8600000F0AAFA2070F2E7FFFFB400F0000020E9
:10E87000F8E00000F8B51B4C074600261A48FEF7E2
:10E88000FBFBD8B1616879B1D0E902106268D2E9C6
:10E890000232C91A904121D2606890F8200018B164
:10E8A00061681148FEF7CAFB00F01CF9054669468D
:10E8B000FFF7A8FF98B1606840B10AE060680028DF
:10E8C0000CD13846BDE8F840F5F7F6BD3846F5F707
:10E8D000C7FD65609DF800000028CFD1F8BD6660D7
:10E8E000CCE70000E80000200CFB000070B50546F6
:10E8F00088690C4600284FF4847128460AD0FEF738
:10E900002AFCD5F81805626AE1688854606A401CE0
:10E91000606270BDFEF71FFCD5F8180570BD1FB50D
:10E9200001238DF80030CDE90121D0E900126846BD
:10E9300090471FBD1FB501238DF80030CDE901219F
:10E94000D0E90012684690471FBD10B50446006824
:10E950004FF49271FEF7FFFB4FF484712068FEF7CD
:10E96000FAFB20680121016010BD00007CB505465E
:10E97000FF20009001236A4601A9E868FEF704FA27
:10E98000040004D010491A20F2F704FC19E0009AA0
:10E99000BAB168690D4C01990378D2B2E35C1BB13E
:10E9A000001DFFF789F902E00C30FEF775FF040047
:10E9B00007D1A8682A4640F266610068F2F7D0FAEB
:10E9C000044620467CBD000098450100A4000020BC
:10E9D00070B50024054623460DE000BF85EA03001C
:10E9E000461E8643C6F3C0104042C0B2CE5C84438C
:10E9F000064034435B1C9342F0D3204670BD0000B8
:10EA000070B50E4C0020D2B22070201D0C4D037842
:10EA1000EB5C1BB1001DFFF727FA02E00C30FEF79C
:10EA2000F1FF18B1074A2D21F1F7F4FB60780028B7
:10EA300002D021780029FAD070BD0000A401002086
:10EA4000A4000020184B01000022CA604A60054A59
:10EA50008A60052803D2044A52F8200000E0002012
:10EA6000086070474C010100DC010020F0B503682C
:10EA7000426803F07F41C2F3074441EA04448168DD
:10EA8000C1F3072544EA0527C468C1F30746E5B288
:10EA90002F4302F07F4545EA0645C4F3072645EAC1
:10EAA0000626DDB22E4301F07F45C4F3074C45EA4C
:10EAB0000C45C3F3072C45EA0C2502F0FF0C04F0CB
:10EAC0007F44C3F3074344EA0343C2F3072243EA04
:10EAD0000222C9B245EA0C050A43C0E90252C0E964
:10EAE0000076F0BD0148FEF7D3BA00000CFB000031
:10EAF0002DE9F84F054626489146884606681F4688
:10EB0000012269461846F2F7D5FEDFF888A0B0B3B7
:10EB1000009800210446801C0AE000BF00EA0602BB
:10EB200059F821C00AEB8202401C491CC2F80CC0F3
:10EB3000B942F3D3B9462F0CF5F716FB8346FDF720
:10EB40002FFCB84204D8144940F28310F2F722FB9C
:10EB5000601C30400AEB800047EA0B423440C26040
:10EB60000AEB8400C16865F3C50169F3891168F394
:10EB70009F2121F00301491C21F00401C1609AF892
:10EB8000000001E0FDF7F6F90028FBD1BDE8F88FA1
:10EB9000C401002064250020644B010070B50C46C0
:10EBA000050004D108A140F6FF10F2F7F3FA24B9EA
:10EBB00005A14FF42060F2F7EDFA21682868BDE85E
:10EBC0007040F1F7C2BC00002E2E5C2E2E5C2E2E63
:10EBD0005C2E2E5C2E2E5C2E2E5C2E2E5C2E2E5C41
:10EBE000636F6D706F6E656E74735C6C6962726179
:10EBF000726965735C636C695C6E72665F636C6995
:10EC00002E63000010B5044600680A4900F014F8AD
:10EC100020600849606800F00FF860600549A0684E
:10EC200000F00AF8A0600349E06800F005F8E06031
:10EC300010BD000018FB00002DE9F04F91B0020E4E
:10EC40008DF83420020C8DF83820020A8DF840002F
:10EC50008DF83C200DA80A904FF000080FA80890EE
:10EC60004FF480700DF1380B0DF1400A0B91C14645
:10EC700047464646454604900B98445D0A98294607
:10EC80000078F7F7A7F828EA0001204041EA0008D9
:10EC90009BF800002946F7F79DF829EA000120407B
:10ECA00041EA0009089829460078F7F793F8874366
:10ECB000204007439AF800002946F7F78BF886436F
:10ECC0000440049826436D1C8542D5D30A9981F8E7
:10ECD00000808BF80090089807708AF800609DF813
:10ECE00034009DF83810000640EA01409DF83C10C1
:10ECF00040EA01209DF8401011B00843BDE8F08FB4
:10ED00002DE9F04114460D00064604D11BA140F246
:10ED10002330F2F73FFA24B918A14FF44970F2F703
:10ED200039FA3046F5F7F6F878B9B068FA21077D78
:10ED300090F816803046F5F7B5F9FA213046F5F728
:10ED400065F83046F5F7E6F810B10620BDE8F08129
:10ED5000B068007D2870B068807D20702878C01B66
:10ED6000C1B23046F5F7C4F82178A1EB0800C1B272
:10ED70003046F5F7A3F90020E8E700002E2E5C2EC0
:10ED80002E5C2E2E5C2E2E5C2E2E5C2E2E5C2E2EBD
:10ED90005C2E2E5C636F6D706F6E656E74735C6C51
:10EDA00069627261726965735C636C695C6E7266DC
:10EDB0005F636C692E63000070B50446406918B942
:10EDC00016A17C20F2F7E6F924480025007810B35C
:10EDD0000CB394F82000F0B1F5F71CFFD4E902233E
:10EDE000801A994112D32069002608B984F820605E
:10EDF000D4E905108847206968B194F8201051B112
:10EE0000D4E9022110187141C4E9020121461448D5
:10EE1000FEF714F90125284670BD00002E2E5C2E49
:10EE20002E5C2E2E5C2E2E5C2E2E5C2E2E5C2E2E1C
:10EE30005C2E2E5C636F6D706F6E656E74735C6CB0
:10EE400069627261726965735C74696D65725C6137
:10EE500070705F74696D6572322E6300E800002087
:10EE60000CFB00004069054A0178515C11B1001D9E
:10EE7000FEF7E4BF0C30FEF7BBBD0000A40000208D
:10EE8000F8B51C4C69462068F9F70DFD00260127EE
:10EE9000194D2CE0017821B101290ED002291ED193
:10EEA00016E0416891F82020CAB981F820704168C5
:10EEB00010480830FEF7C2F811E0416868688142E6
:10EEC00001D16E600BE00B480830FEF7F1F806E068
:10EED000FFF708FE10B180F82060F9E72F7069464F
:10EEE0002068F9F7D5FC69462068F9F7DCFC0028B2
:10EEF000D0D1F8BD04FB0000E8000020F8B50B4CB1
:10EF00000D46064669462068F9F7B7FC58B1067009
:10EF1000456069462068F9F7D1FC10B10448F5F75F
:10EF200087FA0020F8BD0420F8BD000004FB0000B3
:10EF3000F000002070B50C4605464FF48E71FEF7C8
:10EF40000AF9216AA068415C206A401C2062C5F869
:10EF50001C1570BD1FB500228DF80020029181683C
:10EF600001914261D0E90012684690471FBD1FB56C
:10EF700000228DF800200291816801914261D0E960
:10EF80000012684690471FBD7CB5FF2605460096D7
:10EF900000780C46A8B3012819D0022802D02D49C8
:10EFA000652011E0297AE068FEF72AF828B10428E4
:10EFB00003D028493920F2F7EDF82046FFF7D6FCB8
:10EFC000002803D023493B20F2F7E4F87CBD297ADE
:10EFD000E068FEF715F828B1042803D01D49412048
:10EFE000F2F7D8F8287A20B16068D0E90021002033
:10EFF00090472046FFF7BAFC0028E7D015494D207E
:10F00000E2E7FFE7297A2069FDF794FF18B111497B
:10F010005320F2F7BFF8009601236A4601A9206940
:10F02000FDF79CFF18B10B495620F2F7B3F8009892
:10F0300048B1C2B260690199FCF70CFB18B10549EF
:10F040005B20F2F7A7F86068D0E900210120904723
:10F050007CBD0000984501001FB50A4601788DF877
:10F06000001041680191017A8DF80810C068039082
:10F07000044850F82210083850F82220684690477B
:10F080001FBD0000B000002001490120087070473A
:10F09000A401002010B588B0044620220F4968461C
:10F0A000F1F71AFA06200090C01F01900290039019
:10F0B0004FF0EB7006900CB1094A00E0002269465F
:10F0C0000848FCF793FA18B1074A1D21F1F7A2F896
:10F0D0000448001F447008B010BD00002C0101005E
:10F0E00089F00000A8010020184B01002DE9FF471E
:10F0F0000C4605464FF40071FEF733F801274FF434
:10F100000178002618B34FF4927949462846FEF755
:10F110001DF8E0B149462846FEF71DF8C5F80883FA
:10F1200094F8290000B96F6002208DF80000D5F82E
:10F130008004C5F880040390A0690290E068019003
:10F14000A661E661D4E900126846904728E00421F0
:10F150002846FEF706F818B34FF484712846FDF7E9
:10F16000F5FFE8B121462846FFF7C0FB616AA069B8
:10F17000884215D1E06938B1E268616AA06120690E
:10F18000E6616662E06008E094F8290000B96F600B
:10F19000C5F80883A661E268616A2046FFF7BFFBF5
:10F1A0004FF48E7841462846FDF7D0FF80B1606964
:10F1B000216A814202D294F8280028B341462846A9
:10F1C000FDF7C9FF606918B161692046FFF7C2FE0B
:10F1D0004FF4A27841462846FDF7B8FF002818D022
:10F1E00041462846FDF7B7FF94F8290000B12F608B
:10F1F000A06900280DD0A661E268616A04B02046CB
:10F20000BDE8F047FFF78BBB21462846FFF792FE8B
:10F21000DEE7BDE8FF8700001FB50A4601788DF8DC
:10F22000001041680191017A8DF80810C0680390C0
:10F23000044850F82210083850F8222068469047B9
:10F240001FBD0000B00000202DE9FF410C464FF427
:10F25000927705463946FDF78AFF0026B8B1394650
:10F260002846FDF789FF02208DF80000D5F88004BC
:10F27000C5F880040390D5F83C050290E068019041
:10F28000A661E661D4E900126846904723E04FF496
:10F29000887739462846FDF76AFFE0B139462846A7
:10F2A000FDF76AFFD5F83C15A069884213D1E069E3
:10F2B00060B1E268D5F8000220F02000C5F8000235
:10F2C000E069A0612069E661E06001E0A661E268B2
:10F2D0002046FFF72FFB4FF4A27739462846FDF76B
:10F2E00046FF68B139462846FDF746FFA06938B1A8
:10F2F000A661E661D5F83C152046E268FFF71AFBE7
:10F300004FF4907631462846FDF731FF60B1314623
:10F310002846FDF731FF0120E860606920B1D5F88B
:10F320004C152046FFF723FE4FF4AC7631462846B5
:10F33000FDF71DFF00280ED031462846FDF71CFFC3
:10F340006069002807D0D5F84C1504B02046BDE808
:10F35000F041FFF70CBEBDE8FF8100002DE9F05F32
:10F360008346DDE90A4A994690460D46084601273C
:10F3700003E000BFB0FBF8F07F1C4045FAD2B9456E
:10F3800000D94F465FEACA7012D18CB15FEA8A7029
:10F3900002D5B9F1000F01D0202607E0302605E0A4
:10F3A00031465846641EF2F7CBFA0CB1A742F7D3A8
:10F3B0005FF00106B9F1010F02D9A9F1010903E0DB
:10F3C000B5FBF6F0404502D306FB08F6F2E7DFF89E
:10F3D0003C9000BFB5FBF6F000FB165519F8001085
:10F3E0005846F2F7ADFAB6FBF8F6002EF2D15FEA16
:10F3F000CA7009D0002C07D0A74205D22021584658
:10F40000641EF2F79DFAF5E7BDE8F09FACFF00003F
:10F410001CB5002913D08268127F8A420FD008A33E
:10F42000D3E90023CDE9002301F12F028DF8032059
:10F430008268117700696A4603A1FCF727F91CBDB1
:10F440001B5B34006D000000257300001CB5826852
:10F4500099B1D27E8A420FD00CA2D2E90032CDE916
:10F46000003201F12F028DF805208268D176006903
:10F470006A4608A1FCF70AF91CBDD176006902B002
:10F48000054ABDE8104003A1FCF700B91B5B313B06
:10F4900033006D00257300005DFF0000020E0A704E
:10F4A000020C4A70020A8A70C8707047020E0A7015
:10F4B000020C4A70020A8A70C870704770B5002446
:10F4C00004E00D5D165D75400555641C9C42F8D343
:10F4D00070BD10B54FF40C710120F6F7F9FF040070
:10F4E00001D0F6F78EFF204610BD10B5040006D0FF
:10F4F000F6F77BFF2046BDE81040F8F72DB910BDA8
:10F50000F6F789BFF6F7A7BF0000002048030020E8
:10F510007F000000C8030020E00300207F000000FF
:10F5200060040020000000000020004000000000F7
:10F53000002000400000000098FF00007804002038
:10F5400008F5000018F500000CF5000024F5000097
:10F550001033010038F50000A4040020A05301007E
:10F560002800002090540100FFFFFFFFFFFFFFFF76
:10F57000FFFFFFFFFFFFFFFF000000000000000093
:10F580000000D601060100000000000090F5000018
:10F59000E83301006433010000000000D18C00005A
:10F5A000F0330100BC33010000000000219C00008A
:10F5B000EC3301009033010000000000D59F0000F3
:10F5C000000000000000000000000000000000003B
:10F5D00000000000D8F50000AC3401004C340100FC
:10F5E000000000009D930000A834010020340100B9
:10F5F0000000000049960000B0340100783401009A
:10F600000000000009990000A4340100F433010057
:10F6100000000000AD9A00000000000000000000A3
:10F6200000000000000000000000000030F60000B4
:10F6300000350100D83401000000000029950000C9
:10F6400008350100B434010000000000D597000027
:10F6500000000000000000000000000000000000AA
:10F660000000000068F600005C350100383501003C
:10F6700000000000F1A200004C350100103501002F
:10F680000000000085A3000054350100243501006E
:10F690000000000019A400000000000000000000AD
:10F6A000000000000000000000000000B0F60000B4
:10F6B000343601006435010088F50000158C000027
:10F6C00048360100A4350100D0F50000E1920000A9
:10F6D0003C360100DC35010060F60000ADA40000FE
:10F6E000303601000836010028F6000065A500004C
:10F6F000000000000000000000000000000000000A
:10F700009C3601004C360100A8F600004D9F000019
:10F7100000850000743A010001850000FC390100F9
:10F72000028500005C3B01000385000008390100F0
:10F73000048500004439010010850000F036010006
:10F7400011850000083801001285000070370100A3
:10F75000138500003037010014850000343A0100A1
:10F7600015850000B037010016850000B43A01008D
:10F7700017850000343B0100188500006038010047
:10F7800019850000D437010040850000EC370100E6
:10F7900041850000EC3A010042850000C4390100B7
:10F7A000438500004838010050850000D036010034
:10F7B00060850000F43B010061850000D038010045
:10F7C00062850000943801007085000088370100D0
:10F7D00071850000A436010002008000351200008F
:10F7E00067120000A91100000200C00035120000DD
:10F7F00067120000A911000002000001351200008C
:10F8000067120000A9110000000080003401000010
:10F8100039140000ED15000091150000831500005B
:10F820006F1500003B160000911300000000C0009F
:10F830003401000039140000ED150000911500009E
:10F84000831500006F1500003B16000091130000A7
:10F85000000000013401000039140000ED15000023
:10F8600091150000831500006F1500003B16000085
:10F8700091130000030080003401000039140000DF
:10F88000ED15000091150000831500006F150000B4
:10F890003B160000911300000300C000340100007B
:10F8A00039140000ED1500009115000083150000CB
:10F8B0006F1500003B1600009113000003000001CB
:10F8C0003401000039140000ED150000911500000E
:10F8D000831500006F1500003B1600009113000017
:10F8E000020080003401000039140000ED15000012
:10F8F00091150000831500006F1500003B160000F5
:10F90000911300000200C00034010000391400000F
:10F91000ED15000091150000831500006F15000023
:10F920003B160000911300000200000134010000AA
:10F9300039140000ED15000091150000831500003A
:10F940006F1500003B1600009113000004008000BA
:10F950002401000039140000ED150000911500008D
:10F9600000000000000000003B16000091130000A2
:10F970000400C0002401000039140000ED1500004F
:10F980009115000000000000000000003B16000080
:10F99000911300000400000124010000391400004C
:10F9A000ED150000911500000000000000000000AF
:10F9B0003B16000091130000060080003401000097
:10F9C00039140000ED1500009115000083150000AA
:10F9D0006F1500003B160000731200000600C00007
:10F9E0003401000039140000ED15000091150000ED
:10F9F000831500006F1500003B1600007312000015
:10FA0000060000013401000039140000ED1500006B
:10FA100091150000831500006F1500003B160000D3
:10FA2000731200000800800050000000391400002C
:10FA3000ED1500009115000000000000000000001E
:10FA40003B1600005B1300000800C00050000000DF
:10FA500039140000ED1500009115000000000000B1
:10FA6000000000003B1600005B13000008000001CE
:10FA70005000000039140000ED1500009115000041
:10FA800000000000000000003B1600005B130000B7
:10FA9000000080000915000023160000DF1200009E
:10FAA0000000C0000915000023160000DF1200004E
:10FAB000000000010915000023160000DF120000FD
:10FAC000030080000915000023160000C713000082
:10FAD0000300C0000915000023160000C713000032
:10FAE000030000010915000023160000C7130000E1
:10FAF000010600000000005000030050C9D70000BC
:10FB0000F1DB0000080100200100060000000000F9
:10FB10001C010020FF3B0000637C777BF26B6FC50C
:10FB20003001672BFED7AB76CA82C97DFA5947F000
:10FB3000ADD4A2AF9CA472C0B7FD9326363FF7CCDC
:10FB400034A5E5F171D8311504C723C31896059A79
:10FB5000071280E2EB27B27509832C1A1B6E5AA09C
:10FB6000523BD6B329E32F8453D100ED20FCB15B87
:10FB70006ACBBE394A4C58CFD0EFAAFB434D3385F0
:10FB800045F9027F503C9FA851A3408F929D38F5C4
:10FB9000BCB6DA2110FFF3D2CD0C13EC5F974417FB
:10FBA000C4A77E3D645D197360814FDC222A908872
:10FBB00046EEB814DE5E0BDBE0323A0A4906245CFE
:10FBC000C2D3AC629195E479E7C8376D8DD54EA963
:10FBD0006C56F4EA657AAE08BA78252E1CA6B4C62F
:10FBE000E8DD741F4BBD8B8A703EB5664803F60E88
:10FBF000613557B986C11D9EE1F8981169D98E9477
:10FC00009B1E87E9CE5528DF8CA1890DBFE642688F
:10FC100041992D0FB054BB168D01020408102040ED
:10FC2000801B3652096AD53036A538BF40A39E8165
:10FC3000F3D7FB7CE339829B2FFF87348E4344C488
:10FC4000DEE9CB547B9432A6C2233DEE4C950B42A9
:10FC5000FAC34E082EA16628D924B2765BA2496D5C
:10FC60008BD12572F8F66486689816D4A45CCC5DB6
:10FC700065B6926C704850FDEDB9DA5E154657A72F
:10FC80008D9D8490D8AB008CBCD30AF7E45805B89E
:10FC9000B34506D02C1E8FCA3F0F02C1AFBD030172
:10FCA000138A6B3A9111414F67DCEA97F2CFCEF09D
:10FCB000B4E67396AC7422E7AD3585E2F937E81CFB
:10FCC00075DF6E47F11A711D29C5896FB7620EAADB
:10FCD00018BE1BFC563E4BC6D279209ADBC0FE787C
:10FCE000CD5AF41FDDA8338807C731B11210592748
:10FCF00080EC5F60517FA919B54A0D2DE57A9F937D
:10FD0000C99CEFA0E03B4DAE2AF5B0C8EBBB3C83ED
:10FD1000539961172B047EBA77D626E1691463558F
:10FD2000210C7D0010000000711E0000A91D0000C4
:10FD30000338FDD87047000020000000400000009C
:10FD400020000000400000008000000000010000D2
:10FD5000000800000000000000000000000000009B
:10FD60000800000010000000180000001A00000049
:10FD7000000000000000000008000000100000006B
:10FD8000180000001A0000001C0000000000000025
:10FD9000000000000000000000010000000300005F
:10FDA000000700000009000000000000B0FD000096
:10FDB000984101007441010000000000558A0000D4
:10FDC0000000000000000000000000000000000033
:10FDD000A0410100A8410100A8FD0000558A0000D3
:10FDE000E5BD0000C7BD0000BDBD00000000000073
:10FDF000F4FD000010430100F84201000000000083
:10FE00008D92000014430100E04201000000000058
:10FE1000B792000000000000000000000000000099
:10FE200000000000000000002CFE00001043010054
:10FE30001843010000000000F99E00001443010077
:10FE40007443010000000000239F00000000000038
:10FE500000000000000000000000000000000000A2
:10FE600064FE0000E0430100B44301000000000014
:10FE700009910000E84301008843010000000000F0
:10FE800039910000000000000000000000000000A8
:10FE900000000000000000009CFE0000344401004F
:10FEA00014440100ECFD0000C19100002C4401004D
:10FEB000F043010024FE0000619E00003C4401006C
:10FEC000044401005CFE00009D9000000000000062
:10FED0000000000000000000000000000000000022
:10FEE000E4FE0000884401004444010000000000DA
:10FEF00049A7000000000000000000000000000012
:10FF000000000000A0440100904401000000000037
:10FF1000118F0000CC440100A844010094FE0000B1
:10FF2000E98F0000E4440100D0440100000000001B
:10FF300015A200008C450100EC440100DCFE00002D
:10FF400021A60000000000000000000000000000EA
:10FF50001B37001B38002C20001B5B4A001B5B6D0D
:10FF600000082008001B5B4B00202D20001B5B4875
:10FF7000001B5B366E001B5B324A00000000000075
:10FF80000338FDD870471B5B3F336C002D682C2075
:10FF90002D2D68656C70000031370000A937000016
:10FFA000C5360000C13700007D37000030313233E4
:10FFB0003435363738394142434445460000000065
:10FFC000C4FF000098410100244601000000000029
:10FFD00039CC00000000000000000000000000001C
:10FFE0000000000048460100A8410100BCFF0000DD
:10FFF00039CC0000556E6B6E6F776E206572726F34
:020000040001F9
:100000007220636F6465000000000000BC4A0100BC
:10001000010000007C49010002000000704701005F
:1000200003000000F049010004000000444A010000
:10003000050000002449010006000000C04801003E
:10004000070000002C4A01000800000038490100A8
:10005000090000009C4901000A000000A44A0100B8
:100060000B000000584701000C000000504901003F
:100070000D000000F44A01000E0000001C4A0100BF
:100080000F000000584A0100100000008C4A0100D7
:1000900011000000084B010080000000D84801005A
:1000A000810000001448010082000000D4470100D4
:1000B00083000000B447010084000000F047010005
:1000C00085000000FC48010086000000044A010091
:1000D00090000000A048010091000000944701003A
:1000E0009200000064490100008200006C4A010097
:1000F00001820000B849010002820000D4490100D9
:10010000008400003048010001840000C84A01005A
:100110000284000078480100038400005448010074
:100120002DBF000001BF0000FFBE0000FFFFFFFF6A
:10013000FFFFFFFFFFFFFFFFFFFFFFFF00000000CB
:10014000000000000000D6010601000001000000D0
:10015000E98700000000000070010100CC240020AD
:100160007F0000004C2500200100000049EA00004B
:10017000C44C0100504C01004C010100F55300003B
:10018000BC4C0100CC4B010068010100F55300009C
:10019000EC4C0100CC4C01000000000001540000B8
:1001A000004D0100DC4C0100000000000D54000077
:1001B00098410100F04C01000000000019540000BB
:1001C000000000000000000000000000000000002F
:1001D00001000000F916000000000000E00101002D
:1001E000704D0100084D010000000000495500005D
:1001F000784D01003C4D01000000000085550000D5
:1002000000000000000000000000000000000000EE
:1002100000000000180201008C380100804D010030
:10022000D001010000000000B44D0100BC4D0100F0
:10023000D801010000000000C44C0100504C010036
:100240004C0101009D570000BC4C0100CC4B01004B
:10025000680101009D570000EC4C0100CC4C0100EE
:1002600000000000AD570000004D0100DC4C010013
:1002700000000000B7570000D84D01009C4D010060
:10028000000000008154000098410100F04C010082
:1002900000000000C1570000000000000000000046
:1002A0000000000000000000E84D0100EC4D0100DE
:1002B0001002010025540000637C777BF26B6FC550
:1002C0003001672BFED7AB76CA82C97DFA5947F059
:1002D000ADD4A2AF9CA472C0B7FD9326363FF7CC35
:1002E00034A5E5F171D8311504C723C31896059AD2
:1002F000071280E2EB27B27509832C1A1B6E5AA0F5
:10030000523BD6B329E32F8453D100ED20FCB15BDF
:100310006ACBBE394A4C58CFD0EFAAFB434D338548
:1003200045F9027F503C9FA851A3408F929D38F51C
:10033000BCB6DA2110FFF3D2CD0C13EC5F97441753
:10034000C4A77E3D645D197360814FDC222A9088CA
:1003500046EEB814DE5E0BDBE0323A0A4906245C56
:10036000C2D3AC629195E479E7C8376D8DD54EA9BB
:100370006C56F4EA657AAE08BA78252E1CA6B4C687
:10038000E8DD741F4BBD8B8A703EB5664803F60EE0
:10039000613557B986C11D9EE1F8981169D98E94CF
:1003A0009B1E87E9CE5528DF8CA1890DBFE64268E8
:1003B00041992D0FB054BB16C66363A5F87C7C84AD
:1003C000EE777799F67B7B8DFFF2F20DD66B6BBDE6
:1003D000DE6F6FB191C5C55460303050020101032A
:1003E000CE6767A9562B2B7DE7FEFE19B5D7D762DE
:1003F0004DABABE6EC76769A8FCACA451F82829DDA
:1004000089C9C940FA7D7D87EFFAFA15B25959EBCF
:100410008E4747C9FBF0F00B41ADADECB3D4D467C8
:100420005FA2A2FD45AFAFEA239C9CBF53A4A4F7F3
:10043000E47272969BC0C05B75B7B7C2E1FDFD1C4C
:100440003D9393AE4C26266A6C36365A7E3F3F412A
:10045000F5F7F70283CCCC4F6834345C51A5A5F492
:10046000D1E5E534F9F1F108E2717193ABD8D873B5
:10047000623131532A15153F0804040C95C7C75241
:10048000462323659DC3C35E30181828379696A16E
:100490000A05050F2F9A9AB50E070709241212367E
:1004A0001B80809BDFE2E23DCDEBEB264E272769E8
:1004B0007FB2B2CDEA75759F1209091B1D83839E19
:1004C000582C2C74341A1A2E361B1B2DDC6E6EB26F
:1004D000B45A5AEE5BA0A0FBA45252F6763B3B4DB9
:1004E000B7D6D6617DB3B3CE5229297BDDE3E33E97
:1004F0005E2F2F7113848497A65353F5B9D1D16819
:1005000000000000C1EDED2C40202060E3FCFC1F4A
:1005100079B1B1C8B65B5BEDD46A6ABE8DCBCB4610
:1005200067BEBED97239394B944A4ADE984C4CD4D6
:10053000B05858E885CFCF4ABBD0D06BC5EFEF2A73
:100540004FAAAAE5EDFBFB16864343C59A4D4DD74E
:1005500066333355118585948A4545CFE9F9F910FD
:1005600004020206FE7F7F81A05050F0783C3C449C
:10057000259F9FBA4BA8A8E3A25151F35DA3A3FE08
:10058000804040C0058F8F8A3F9292AD219D9DBCD7
:1005900070383848F1F5F50463BCBCDF77B6B6C1F6
:1005A000AFDADA754221216320101030E5FFFF1A1F
:1005B000FDF3F30EBFD2D26D81CDCD4C180C0C14CF
:1005C00026131335C3ECEC2FBE5F5FE1359797A27E
:1005D000884444CC2E17173993C4C45755A7A7F2A3
:1005E000FC7E7E827A3D3D47C86464ACBA5D5DE7BF
:1005F0003219192BE6737395C06060A01981819838
:100600009E4F4FD1A3DCDC7F44222266542A2A7EEF
:100610003B9090AB0B8888838C4646CAC7EEEE2988
:100620006BB8B8D32814143CA7DEDE79BC5E5EE25A
:10063000160B0B1DADDBDB76DBE0E03B64323256A4
:10064000743A3A4E140A0A1E924949DB0C06060A0D
:100650004824246CB85C5CE49FC2C25DBDD3D36EF9
:1006600043ACACEFC46262A6399191A8319595A4D0
:10067000D3E4E437F279798BD5E7E7328BC8C84306
:100680006E373759DA6D6DB7018D8D8CB1D5D56464
:100690009C4E4ED249A9A9E0D86C6CB4AC5656FA1F
:1006A000F3F4F407CFEAEA25CA6565AFF47A7A8EE7
:1006B00047AEAEE9100808186FBABAD5F078788856
:1006C0004A25256F5C2E2E72381C1C2457A6A6F1D5
:1006D00073B4B4C797C6C651CBE8E823A1DDDD7C6F
:1006E000E874749C3E1F1F21964B4BDD61BDBDDC41
:1006F0000D8B8B860F8A8A85E07070907C3E3E421F
:1007000071B5B5C4CC6666AA904848D806030305FF
:10071000F7F6F6011C0E0E12C26161A36A35355F51
:10072000AE5757F969B9B9D01786869199C1C158A2
:100730003A1D1D27279E9EB9D9E1E138EBF8F81341
:100740002B9898B322111133D26969BBA9D9D970FA
:10075000078E8E89339494A72D9B9BB63C1E1E2238
:1007600015878792C9E9E92087CECE49AA5555FF5A
:1007700050282878A5DFDF7A038C8C8F59A1A1F847
:10078000098989801A0D0D1765BFBFDAD7E6E631F2
:10079000844242C6D06868B8824141C3299999B061
:1007A0005A2D2D771E0F0F117BB0B0CBA85454FCDF
:1007B0006DBBBBD62C16163AA5C6636384F87C7C49
:1007C00099EE77778DF67B7B0DFFF2F2BDD66B6BE2
:1007D000B1DE6F6F5491C5C5506030300302010126
:1007E000A9CE67677D562B2B19E7FEFE62B5D7D7DA
:1007F000E64DABAB9AEC7676458FCACA9D1F8282D6
:100800004089C9C987FA7D7D15EFFAFAEBB25959CB
:10081000C98E47470BFBF0F0EC41ADAD67B3D4D4C4
:10082000FD5FA2A2EA45AFAFBF239C9CF753A4A4EF
:1008300096E472725B9BC0C0C275B7B71CE1FDFD48
:10084000AE3D93936A4C26265A6C3636417E3F3F26
:1008500002F5F7F74F83CCCC5C683434F451A5A58E
:1008600034D1E5E508F9F1F193E2717173ABD8D8B1
:10087000536231313F2A15150C0804045295C7C73D
:10088000654623235E9DC3C328301818A13796966A
:100890000F0A0505B52F9A9A090E0707362412127A
:1008A0009B1B80803DDFE2E226CDEBEB694E2727E4
:1008B000CD7FB2B29FEA75751B1209099E1D838315
:1008C00074582C2C2E341A1A2D361B1BB2DC6E6E6B
:1008D000EEB45A5AFB5BA0A0F6A452524D763B3BB5
:1008E00061B7D6D6CE7DB3B37B5229293EDDE3E393
:1008F000715E2F2F97138484F5A6535368B9D1D115
:10090000000000002CC1EDED604020201FE3FCFC46
:10091000C879B1B1EDB65B5BBED46A6A468DCBCB0C
:10092000D967BEBE4B723939DE944A4AD4984C4CD2
:10093000E8B058584A85CFCF6BBBD0D02AC5EFEF6F
:10094000E54FAAAA16EDFBFBC5864343D79A4D4D4A
:100950005566333394118585CF8A454510E9F9F9F9
:100960000604020281FE7F7FF0A0505044783C3C98
:10097000BA259F9FE34BA8A8F3A25151FE5DA3A304
:10098000C08040408A058F8FAD3F9292BC219D9DD3
:100990004870383804F1F5F5DF63BCBCC177B6B6F2
:1009A00075AFDADA63422121302010101AE5FFFF1B
:1009B0000EFDF3F36DBFD2D24C81CDCD14180C0CCB
:1009C000352613132FC3ECECE1BE5F5FA23597977A
:1009D000CC884444392E17175793C4C4F255A7A79F
:1009E00082FC7E7E477A3D3DACC86464E7BA5D5DBB
:1009F0002B32191995E67373A0C060609819818134
:100A0000D19E4F4F7FA3DCDC664422227E542A2AEB
:100A1000AB3B9090830B8888CA8C464629C7EEEE84
:100A2000D36BB8B83C28141479A7DEDEE2BC5E5E56
:100A30001D160B0B76ADDBDB3BDBE0E056643232A0
:100A40004E743A3A1E140A0ADB9249490A0C060609
:100A50006C482424E4B85C5C5D9FC2C26EBDD3D3F5
:100A6000EF43ACACA6C46262A8399191A4319595CC
:100A700037D3E4E48BF2797932D5E7E7438BC8C802
:100A8000596E3737B7DA6D6D8C018D8D64B1D5D560
:100A9000D29C4E4EE049A9A9B4D86C6CFAAC56561B
:100AA00007F3F4F425CFEAEAAFCA65658EF47A7AE3
:100AB000E947AEAE18100808D56FBABA88F0787852
:100AC0006F4A2525725C2E2E24381C1CF157A6A6D1
:100AD000C773B4B45197C6C623CBE8E87CA1DDDD6B
:100AE0009CE87474213E1F1FDD964B4BDC61BDBD3D
:100AF000860D8B8B850F8A8A90E07070427C3E3E1B
:100B0000C471B5B5AACC6666D890484805060303FB
:100B100001F7F6F6121C0E0EA3C261615F6A35354D
:100B2000F9AE5757D069B9B9911786865899C1C19E
:100B3000273A1D1DB9279E9E38D9E1E113EBF8F83D
:100B4000B32B989833221111BBD2696970A9D9D9F6
:100B500089078E8EA7339494B62D9B9B223C1E1E34
:100B60009215878720C9E9E94987CECEFFAA555556
:100B7000785028287AA5DFDF8F038C8CF859A1A143
:100B800080098989171A0D0DDA65BFBF31D7E6E6EE
:100B9000C6844242B8D06868C3824141B02999995D
:100BA000775A2D2D111E0F0FCB7BB0B0FCA85454DB
:100BB000D66DBBBB3A2C161663A5C6637C84F87C45
:100BC0007799EE777B8DF67BF20DFFF26BBDD66BDE
:100BD0006FB1DE6FC55491C5305060300103020122
:100BE00067A9CE672B7D562BFE19E7FED762B5D7D6
:100BF000ABE64DAB769AEC76CA458FCA829D1F82D2
:100C0000C94089C97D87FA7DFA15EFFA59EBB259C7
:100C100047C98E47F00BFBF0ADEC41ADD467B3D4C0
:100C2000A2FD5FA2AFEA45AF9CBF239CA4F753A4EB
:100C30007296E472C05B9BC0B7C275B7FD1CE1FD44
:100C400093AE3D93266A4C26365A6C363F417E3F22
:100C5000F702F5F7CC4F83CC345C6834A5F451A58A
:100C6000E534D1E5F108F9F17193E271D873ABD8AD
:100C700031536231153F2A15040C0804C75295C739
:100C800023654623C35E9DC31828301896A1379666
:100C9000050F0A059AB52F9A07090E071236241276
:100CA000809B1B80E23DDFE2EB26CDEB27694E27E0
:100CB000B2CD7FB2759FEA75091B1209839E1D8311
:100CC0002C74582C1A2E341A1B2D361B6EB2DC6E67
:100CD0005AEEB45AA0FB5BA052F6A4523B4D763BB1
:100CE000D661B7D6B3CE7DB3297B5229E33EDDE38F
:100CF0002F715E2F8497138453F5A653D168B9D111
:100D000000000000ED2CC1ED20604020FC1FE3FC42
:100D1000B1C879B15BEDB65B6ABED46ACB468DCB08
:100D2000BED967BE394B72394ADE944A4CD4984CCE
:100D300058E8B058CF4A85CFD06BBBD0EF2AC5EF6B
:100D4000AAE54FAAFB16EDFB43C586434DD79A4D46
:100D5000335566338594118545CF8A45F910E9F9F5
:100D6000020604027F81FE7F50F0A0503C44783C94
:100D70009FBA259FA8E34BA851F3A251A3FE5DA300
:100D800040C080408F8A058F92AD3F929DBC219DCF
:100D900038487038F504F1F5BCDF63BCB6C177B6EE
:100DA000DA75AFDA2163422110302010FF1AE5FF17
:100DB000F30EFDF3D26DBFD2CD4C81CD0C14180CC7
:100DC00013352613EC2FC3EC5FE1BE5F97A2359776
:100DD00044CC884417392E17C45793C4A7F255A79B
:100DE0007E82FC7E3D477A3D64ACC8645DE7BA5DB7
:100DF000192B32197395E67360A0C0608198198130
:100E00004FD19E4FDC7FA3DC226644222A7E542AE7
:100E100090AB3B9088830B8846CA8C46EE29C7EE80
:100E2000B8D36BB8143C2814DE79A7DE5EE2BC5E52
:100E30000B1D160BDB76ADDBE03BDBE0325664329C
:100E40003A4E743A0A1E140A49DB9249060A0C0605
:100E5000246C48245CE4B85CC25D9FC2D36EBDD3F1
:100E6000ACEF43AC62A6C46291A8399195A43195C8
:100E7000E437D3E4798BF279E732D5E7C8438BC8FE
:100E800037596E376DB7DA6D8D8C018DD564B1D55C
:100E90004ED29C4EA9E049A96CB4D86C56FAAC5617
:100EA000F407F3F4EA25CFEA65AFCA657A8EF47ADF
:100EB000AEE947AE08181008BAD56FBA7888F0784E
:100EC000256F4A252E725C2E1C24381CA6F157A6CD
:100ED000B4C773B4C65197C6E823CBE8DD7CA1DD67
:100EE000749CE8741F213E1F4BDD964BBDDC61BD39
:100EF0008B860D8B8A850F8A7090E0703E427C3E17
:100F0000B5C471B566AACC6648D8904803050603F7
:100F1000F601F7F60E121C0E61A3C261355F6A3549
:100F200057F9AE57B9D069B986911786C15899C19A
:100F30001D273A1D9EB9279EE138D9E1F813EBF839
:100F400098B32B981133221169BBD269D970A9D9F2
:100F50008E89078E94A733949BB62D9B1E223C1E30
:100F600087921587E920C9E9CE4987CE55FFAA5552
:100F700028785028DF7AA5DF8C8F038CA1F859A13F
:100F8000898009890D171A0DBFDA65BFE631D7E6EA
:100F900042C6844268B8D06841C3824199B0299959
:100FA0002D775A2D0F111E0FB0CB7BB054FCA854D7
:100FB000BBD66DBB163A2C166363A5C67C7C84F841
:100FC000777799EE7B7B8DF6F2F20DFF6B6BBDD6DA
:100FD0006F6FB1DEC5C5549130305060010103021E
:100FE0006767A9CE2B2B7D56FEFE19E7D7D762B5D2
:100FF000ABABE64D76769AECCACA458F82829D1FCE
:10100000C9C940897D7D87FAFAFA15EF5959EBB2C3
:101010004747C98EF0F00BFBADADEC41D4D467B3BC
:10102000A2A2FD5FAFAFEA459C9CBF23A4A4F753E7
:10103000727296E4C0C05B9BB7B7C275FDFD1CE140
:101040009393AE3D26266A4C36365A6C3F3F417E1E
:10105000F7F702F5CCCC4F8334345C68A5A5F45186
:10106000E5E534D1F1F108F9717193E2D8D873ABA9
:101070003131536215153F2A04040C08C7C7529535
:1010800023236546C3C35E9D181828309696A13762
:1010900005050F0A9A9AB52F0707090E1212362472
:1010A00080809B1BE2E23DDFEBEB26CD2727694EDC
:1010B000B2B2CD7F75759FEA09091B1283839E1D0D
:1010C0002C2C74581A1A2E341B1B2D366E6EB2DC63
:1010D0005A5AEEB4A0A0FB5B5252F6A43B3B4D76AD
:1010E000D6D661B7B3B3CE7D29297B52E3E33EDD8B
:1010F0002F2F715E848497135353F5A6D1D168B90D
:1011000000000000EDED2CC120206040FCFC1FE33E
:10111000B1B1C8795B5BEDB66A6ABED4CBCB468D04
:10112000BEBED96739394B724A4ADE944C4CD498CA
:101130005858E8B0CFCF4A85D0D06BBBEFEF2AC567
:10114000AAAAE54FFBFB16ED4343C5864D4DD79A42
:1011500033335566858594114545CF8AF9F910E9F1
:10116000020206047F7F81FE5050F0A03C3C447890
:101170009F9FBA25A8A8E34B5151F3A2A3A3FE5DFC
:101180004040C0808F8F8A059292AD3F9D9DBC21CB
:1011900038384870F5F504F1BCBCDF63B6B6C177EA
:1011A000DADA75AF2121634210103020FFFF1AE513
:1011B000F3F30EFDD2D26DBFCDCD4C810C0C1418C3
:1011C00013133526ECEC2FC35F5FE1BE9797A23572
:1011D0004444CC881717392EC4C45793A7A7F25597
:1011E0007E7E82FC3D3D477A6464ACC85D5DE7BAB3
:1011F00019192B32737395E66060A0C0818198192C
:101200004F4FD19EDCDC7FA3222266442A2A7E54E3
:101210009090AB3B8888830B4646CA8CEEEE29C77C
:10122000B8B8D36B14143C28DEDE79A75E5EE2BC4E
:101230000B0B1D16DBDB76ADE0E03BDB3232566498
:101240003A3A4E740A0A1E144949DB9206060A0C01
:1012500024246C485C5CE4B8C2C25D9FD3D36EBDED
:10126000ACACEF436262A6C49191A8399595A431C4
:10127000E4E437D379798BF2E7E732D5C8C8438BFA
:101280003737596E6D6DB7DA8D8D8C01D5D564B158
:101290004E4ED29CA9A9E0496C6CB4D85656FAAC13
:1012A000F4F407F3EAEA25CF6565AFCA7A7A8EF4DB
:1012B000AEAEE94708081810BABAD56F787888F04A
:1012C00025256F4A2E2E725C1C1C2438A6A6F157C9
:1012D000B4B4C773C6C65197E8E823CBDDDD7CA163
:1012E00074749CE81F1F213E4B4BDD96BDBDDC6135
:1012F0008B8B860D8A8A850F707090E03E3E427C13
:10130000B5B5C4716666AACC4848D89003030506F3
:10131000F6F601F70E0E121C6161A3C235355F6A45
:101320005757F9AEB9B9D06986869117C1C1589996
:101330001D1D273A9E9EB927E1E138D9F8F813EB35
:101340009898B32B111133226969BBD2D9D970A9EE
:101350008E8E89079494A7339B9BB62D1E1E223C2C
:1013600087879215E9E920C9CECE49875555FFAA4E
:1013700028287850DFDF7AA58C8C8F03A1A1F8593B
:10138000898980090D0D171ABFBFDA65E6E631D7E6
:101390004242C6846868B8D04141C3829999B02955
:1013A0002D2D775A0F0F111EB0B0CB7B5454FCA8D3
:1013B000BBBBD66D16163A2C52096AD53036A53805
:1013C000BF40A39E81F3D7FB7CE339829B2FFF872D
:1013D000348E4344C4DEE9CB547B9432A6C2233D11
:1013E000EE4C950B42FAC34E082EA16628D924B2C2
:1013F000765BA2496D8BD12572F8F66486689816E3
:10140000D4A45CCC5D65B6926C704850FDEDB9DA41
:101410005E154657A78D9D8490D8AB008CBCD30A2F
:10142000F7E45805B8B34506D02C1E8FCA3F0F020B
:10143000C1AFBD0301138A6B3A9111414F67DCEADA
:1014400097F2CFCEF0B4E67396AC7422E7AD358553
:10145000E2F937E81C75DF6E47F11A711D29C5895D
:101460006FB7620EAA18BE1BFC563E4BC6D279203F
:101470009ADBC0FE78CD5AF41FDDA8338807C73148
:10148000B11210592780EC5F60517FA919B54A0D40
:101490002DE57A9F93C99CEFA0E03B4DAE2AF5B0B5
:1014A000C8EBBB3C83539961172B047EBA77D626D1
:1014B000E169146355210C7D51F4A7507E416553B9
:1014C0001A17A4C33A275E963BAB6BCB1F9D45F121
:1014D000ACFA58AB4BE303932030FA55AD766DF67A
:1014E00088CC7691F5024C254FE5D7FCC52ACBD7A1
:1014F00026354480B562A38FDEB15A4925BA1B67F1
:1015000045EA0E985DFEC0E1C32F7502814CF012D2
:101510008D4697A36BD3F9C6038F5FE715929C9511
:10152000BF6D7AEB955259DAD4BE832D587421D30E
:1015300049E069298EC9C84475C2896AF48E7978F0
:1015400099583E6B27B971DDBEE14FB6F088AD17F3
:10155000C920AC667DCE3AB463DF4A18E51A318201
:101560009751336062537F45B16477E0BB6BAE84C3
:10157000FE81A01CF9082B94704868588F45FD190E
:1015800094DE6C87527BF8B7AB73D323724B02E2C5
:10159000E31F8F576655AB2AB2EB28072FB5C2035E
:1015A00086C57B9AD33708A5302887F223BFA5B21A
:1015B00002036ABAED16825C8ACF1C2BA779B4921B
:1015C000F307F2F04E69E2A165DAF4CD0605BED567
:1015D000D134621FC4A6FE8A342E539DA2F355A0B7
:1015E000058AE132A4F6EB750B83EC394060EFAA73
:1015F0005E719F06BD6E10513E218AF996DD063D53
:10160000DD3E05AE4DE6BD4691548DB571C45D0518
:101610000406D46F605015FF1998FB24D6BDE997D6
:10162000894043CC67D99E77B0E842BD07898B8853
:10163000E7195B3879C8EEDBA17C0A477C420FE9E9
:10164000F8841EC90000000009808683322BED4813
:101650001E1170AC6C5A724EFD0EFFFB0F85385692
:101660003DAED51E362D39270A0FD964685CA621F8
:101670009B5B54D124362E3A0C0A67B19357E70F7F
:10168000B4EE96D21B9B919E80C0C54F61DC20A218
:101690005A774B691C121A16E293BA0AC0A02AE5BF
:1016A0003C22E043121B171D0E090D0BF28BC7AD38
:1016B0002DB6A8B9141EA9C857F11985AF75074CE6
:1016C000EE99DDBBA37F60FDF701269F5C72F5BC40
:1016D00044663BC55BFB7E348B432976CB23C6DC5B
:1016E000B6EDFC68B8E4F163D731DCCA426385101B
:1016F0001397224084C61120854A247DD2BB3DF831
:10170000AEF93211C729A16D1D9E2F4BDCB230F30B
:101710000D8652EC77C1E3D02BB3166CA970B99942
:10172000119448FA47E96422A8FC8CC4A0F03F1A3F
:10173000567D2CD8223390EF87494EC7D938D1C176
:101740008CCAA2FE98D40B36A6F581CFA57ADE28E6
:10175000DAB78E263FADBFA42C3A9DE45078920DA7
:101760006A5FCC9B547E4662F68D13C290D8B8E86F
:101770002E39F75E82C3AFF59F5D80BE69D0937C42
:101780006FD52DA9CF2512B3C8AC993B10187DA7F2
:10179000E89C636EDB3BBB7BCD2678096E5918F461
:1017A000EC9AB701834F9AA8E6956E65AAFFE67E8C
:1017B00021BCCF08EF15E8E6BAE79BD94A6F36CED1
:1017C000EA9F09D429B07CD631A4B2AF2A3F233195
:1017D000C6A5943035A266C0744EBC37FC82CAA63A
:1017E000E090D0B033A7D815F104984A41ECDAF76D
:1017F0007FCD500E1791F62F764DD68D43EFB04D1D
:10180000CCAA4D54E49604DF9ED1B5E34C6A881B04
:10181000C12C1FB84665517F9D5EEA04018C355D81
:10182000FA877473FB0B412EB3671D5A92DBD252B9
:10183000E91056336DD647139AD7618C37A10C7ACD
:1018400059F8148EEB133C89CEA927EEB761C93540
:10185000E11CE5ED7A47B13C9CD2DF5955F2733F6C
:101860001814CE7973C737BF53F7CDEA5FFDAA5B73
:10187000DF3D6F147844DB86CAAFF381B968C43E9C
:101880003824342CC2A3405F161DC372BCE2250C61
:10189000283C498BFF0D954139A80171080CB3DE36
:1018A000D8B4E49C6456C1907BCB8461D532B670C9
:1018B000486C5C74D0B857425051F4A7537E4165D0
:1018C000C31A17A4963A275ECB3BAB6BF11F9D451D
:1018D000ABACFA58934BE303552030FAF6AD766D76
:1018E0009188CC7625F5024CFC4FE5D7D7C52ACB9D
:1018F000802635448FB562A349DEB15A6725BA1BED
:101900009845EA0EE15DFEC002C32F7512814CF0CE
:10191000A38D4697C66BD3F9E7038F5F9515929C0D
:10192000EBBF6D7ADA9552592DD4BE83D35874210A
:101930002949E069448EC9C86A75C28978F48E79EC
:101940006B99583EDD27B971B6BEE14F17F088ADEF
:1019500066C920ACB47DCE3A1863DF4A82E51A31FD
:10196000609751334562537FE0B1647784BB6BAEBF
:101970001CFE81A094F9082B58704868198F45FD0A
:101980008794DE6CB7527BF823AB73D3E2724B02C1
:1019900057E31F8F2A6655AB07B2EB28032FB5C25A
:1019A0009A86C57BA5D33708F2302887B223BFA516
:1019B000BA02036A5CED16822B8ACF1C92A779B417
:1019C000F0F307F2A14E69E2CD65DAF4D50605BE63
:1019D0001FD134628AC4A6FE9D342E53A0A2F355B3
:1019E00032058AE175A4F6EB390B83ECAA4060EF6F
:1019F000065E719F51BD6E10F93E218A3D96DD064F
:101A0000AEDD3E05464DE6BDB591548D0571C45D14
:101A10006F0406D4FF605015241998FB97D6BDE9D2
:101A2000CC8940437767D99EBDB0E8428807898B4F
:101A300038E7195BDB79C8EE47A17C0AE97C420FE5
:101A4000C9F8841E000000008309808648322BED0F
:101A5000AC1E11704E6C5A72FBFD0EFF560F85388E
:101A60001E3DAED527362D39640A0FD921685CA6F4
:101A7000D19B5B543A24362EB10C0A670F9357E77B
:101A8000D2B4EE969E1B9B914F80C0C5A261DC2014
:101A9000695A774B161C121A0AE293BAE5C0A02ABB
:101AA000433C22E01D121B170B0E090DADF28BC734
:101AB000B92DB6A8C8141EA98557F1194CAF7507E2
:101AC000BBEE99DDFDA37F609FF70126BC5C72F53C
:101AD000C544663B345BFB7E768B4329DCCB23C657
:101AE00068B6EDFC63B8E4F1CAD731DC1042638517
:101AF000401397222084C6117D854A24F8D2BB3D2D
:101B000011AEF9326DC729A14B1D9E2FF3DCB23007
:101B1000EC0D8652D077C1E36C2BB31699A970B93E
:101B2000FA1194482247E964C4A8FC8C1AA0F03F3B
:101B3000D8567D2CEF223390C787494EC1D938D172
:101B4000FE8CCAA23698D40BCFA6F58128A57ADEE2
:101B500026DAB78EA43FADBFE42C3A9D0D507892A3
:101B60009B6A5FCC62547E46C2F68D13E890D8B86B
:101B70005E2E39F7F582C3AFBE9F5D807C69D0933E
:101B8000A96FD52DB3CF25123BC8AC99A710187DEE
:101B90006EE89C637BDB3BBB09CD2678F46E59185D
:101BA00001EC9AB7A8834F9A65E6956E7EAAFFE688
:101BB0000821BCCFE6EF15E8D9BAE79BCE4A6F36CD
:101BC000D4EA9F09D629B07CAF31A4B2312A3F2391
:101BD00030C6A594C035A26637744EBCA6FC82CA36
:101BE000B0E090D01533A7D84AF10498F741ECDA69
:101BF0000E7FCD502F1791F68D764DD64D43EFB019
