:020000040000FA
:1010000010200020151200001D1200001F12000009
:101010002112000023120000251200000000000031
:101020000000000000000000000000002712000087
:1010300029120000000000002B1200002D120000F9
:101040002F1200002F1200002F1200002F1200009C
:101050002F1200002F1200002F1200002F1200008C
:101060002F1200002F1200002F1200002F1200007C
:101070002F1200002F1200002F1200002F1200006C
:101080002F1200002F1200002F1200002F1200005C
:101090002F1200002F1200002F1200002F1200004C
:1010A0002F1200002F1200002F1200002F1200003C
:1010B0002F1200002F1200000000000000000000AE
:1010C0002F1200002F1200002F1200002F1200001C
:1010D0002F1200002F1200002F120000000000004D
:1010E0000000000000000000000000000000000000
:1010F00000000000000000000000000000000000F0
:1011000000000000000000000000000000000000DF
:1011100000000000000000000000000000000000CF
:1011200000000000000000000000000000000000BF
:1011300000000000000000000000000000000000AF
:10114000000000000000000000000000000000009F
:10115000000000000000000000000000000000008F
:10116000000000000000000000000000000000007F
:10117000000000000000000000000000000000006F
:10118000000000000000000000000000000000005F
:10119000000000000000000000000000000000004F
:1011A000000000000000000000000000000000003F
:1011B000000000000000000000000000000000002F
:1011C000000000000000000000000000000000001F
:1011D000000000000000000000000000000000000F
:1011E00000000000000000000000000000000000FF
:1011F00000000000000000000000000000000000EF
:10120000DFF80CD000F018F8004800474116000045
:10121000102000200648804706480047FEE7FEE70A
:10122000FEE7FEE7FEE7FEE7FEE7FEE7FEE7FEE796
:101230005D12000001120000064C074D06E0E06858
:1012400040F0010394E8070098471034AC42F6D30D
:10125000FFF7DAFFC0160000E0160000F0B5B74A4D
:10126000B7494FF080541368D4F830010978D4F8A6
:101270003421451CC1F3031106D084460127002503
:10128000BCF1060F03D00AE003F0FF0CF6E7B4F858
:101290002463DFF8B0C2C6F30426CCF80060DEB2E7
:1012A000062E06D1032904D1DFF8A0C2A64ECCF841
:1012B0007460461C04D08446BCF1060F03D00AE0DB
:1012C00003F0FF0CF8E7D4F84462DFF884C2C6F3F9
:1012D0004236CCF80060DEB2062E08D1032906D1D2
:1012E0009C4ED6F800C02CF0807CC6F800C0461C8E
:1012F00004D08446BCF1060F03D00BE003F0FF0CD2
:10130000F8E74FF08046C6F80C51C6F81051904EE1
:10131000361F3560DEB2062E08D1032906D1DFF86C
:1013200030C203260CF1640CCCF80060DEB2062E4D
:1013300011D103290FD1DFF820C20526CCF80060B7
:10134000854E78363760844E083635600CF1040CD3
:101350003F26CCF80060461C06D084464FEA0206C1
:10136000BCF1060F04D081E003F0FF0C0E46F7E756
:10137000032E7BD0042E79D0784E3668DFF8E0C19A
:10138000CCF80060754E361D36680CF1040CCCF8B4
:101390000060724E083636680CF1040CCCF8006020
:1013A0006E4E0C3636680CF1040CCCF800606B4EB7
:1013B000103636680CF1040CCCF80060674E143619
:1013C00036680CF1040CCCF80060644E18363668B0
:1013D000DFF88CC10CF1200CCCF800605F4E1C369D
:1013E00036680CF1040CCCF800605C4E2036366890
:1013F0000CF1040CCCF80060584E243636680CF121
:10140000040CCCF80060554E283636680CF1040CFC
:10141000CCF80060514E2C3636680CF1040CCCF838
:1014200000604E4E30363668DFF834C10CF1400CA7
:10143000CCF80060494E343636680CF1040CCCF818
:101440000060464E383636680CF1040CCCF800606B
:10145000424E3C3636680CF1040CCCF800603F4E2E
:10146000403636680CF1040CCCF80060461C05D000
:101470004FEA000CBCF1060F03D008E003F0FF0CAC
:10148000F8E7D4F85842374E04F04F043460441C57
:1014900003D00346062B02D008E0DBB2FAE732495C
:1014A0000B68DB0702D06FF001030B6006280AD13E
:1014B000032A08D0042A06D0052A04D02B48016844
:1014C00041F48061016023487438016841F470017F
:1014D0000160BFF34F8FBFF36F8F4FF01021D1F832
:1014E0000002002803DBD1F80402002822DA204A97
:1014F000176020480368002BFCD01523C1F8003288
:101500000468002CFCD0C1F8043201680029FCD02A
:10151000156001680029FCD0BFF34F8F0D48F038EB
:101520000168154A01F4E06111430160BFF34F8F78
:1015300000BFFDE7124911480860F0BDE00F00F060
:10154000E80F00F0403501400DF0ADBA00C0074093
:101550003C050040FCED00E0105600400404001083
:1015600020C50040E40E0040000400403C1700404D
:1015700004E5014000E401400400FA050090D003B6
:101580000800002002E008C8121F08C1002AFAD192
:1015900070477047002001E001C1121F002AFBD1F3
:1015A000704700002DE9FC410646C0074FF00005DA
:1015B0000ED0104F00240122385D00950023114603
:1015C000019500F055F8641C042CF4D300F02EF8BB
:1015D000B0070DD5074E0024361D0022305D0323D1
:1015E00000951146019500F043F8641C042CF4D3D7
:1015F000BDE8FC81B616000007490B5C4FF0A04126
:10160000D1F804250120984020EA0203C1F80835EA
:101610001040C1F80C057047B61600000249085C7E
:10162000012100F037B80000B616000010B5002404
:101630002046FFF7F3FF641C042CF9D310BD000013
:101640000120FFF7AFFF094C4FF4FA784FF47A47C7
:1016500000263046FFF7D0FF4546611C38468847D4
:101660006D1EFAD1761C042EF3DBF1E7B0160000F4
:1016700070B541EA4201DDE904564FF0A04441EA69
:10168000830141EA052104EB800041EA0641C0F8EC
:10169000001770BD01224FF0A043824011B1C3F882
:1016A00008257047C3F80C257047000000000000B3
:1016B0000338FDD87047111213140D0E0F100000DF
:1016C000E01600000800002004000000841500005F
:1016D000E41600000C000020042000009415000017
:0416E0000090D003A3
:0400000500001201E4
:00000001FF
