:020000041200E8
:1000000008200020150200121D0200121F0200121B
:10001000210200122302001225020012000000003B
:100020000000000000000000000000002702001295
:1000300029020012000000002B0200122D02001203
:100040002F0200122F0200122F0200122F020012A4
:100050002F0200122F0200122F0200122F02001294
:100060002F0200122F0200122F0200122F02001284
:100070002F0200122F0200122F0200122F02001274
:100080002F0200122F0200122F0200122F02001264
:100090002F0200122F0200122F0200122F02001254
:1000A0002F0200122F0200122F0200122F02001244
:1000B0002F0200122F0200120000000000000000BA
:1000C0002F0200122F0200122F0200122F02001224
:1000D0002F0200122F0200122F0200122F02001214
:1000E0002F0200122F0200122F0200120000000047
:1000F000000000002F020012000000002F0200127A
:1001000000000000000000000000000000000000EF
:1001100000000000000000000000000000000000DF
:1001200000000000000000000000000000000000CF
:1001300000000000000000000000000000000000BF
:1001400000000000000000000000000000000000AF
:10015000000000000000000000000000000000009F
:10016000000000000000000000000000000000008F
:10017000000000000000000000000000000000007F
:10018000000000000000000000000000000000006F
:10019000000000000000000000000000000000005F
:1001A000000000000000000000000000000000004F
:1001B000000000000000000000000000000000003F
:1001C000000000000000000000000000000000002F
:1001D000000000000000000000000000000000001F
:1001E000000000000000000000000000000000000F
:1001F00000000000000000000000000000000000FF
:10020000DFF80CD000F018F800480047F3040012A3
:10021000082000200648804706480047FEE7FEE722
:10022000FEE7FEE7FEE7FEE7FEE7FEE7FEE7FEE7A6
:100230005D02001201020012064C074D06E0E06864
:1002400040F0010394E8070098471034AC42F6D31D
:10025000FFF7DAFFF00500121006001270B54FF03C
:1002600080520124D2E94C100023082906D1CD0682
:10027000C5F80C31C5F810315E4D2B60082955D1F9
:100280005D4D2D685D4E35605B4D2D1D2D68361D15
:100290003560594D08352D68361D3560564D0C3585
:1002A0002D68361D3560544D10352D68361D35606E
:1002B000514D14352D68361D35604F4D18352D685C
:1002C0004E4E203635604C4D1C352D68361D356040
:1002D000494D20352D68361D3560474D24352D6834
:1002E000361D3560444D28352D68361D3560424D2C
:1002F0002C352D68361D35603F4D30352D683F4E0D
:10030000403635603C4D34352D68361D35603A4DEC
:1003100038352D68361D3560374D3C352D68361D16
:100320003560354D40352D68361D3560082904D1BE
:10033000050002D1334E324D3560082904D1050045
:1003400002D1314EFB253560082908D1050006D1C0
:1003500092F858622D4A156866F30305156008295E
:1003600004D1020002D12A4D8A012A60082906D14F
:1003700028480168C90702D06FF0010101602648D2
:10038000016841F470010160BFF34F8FBFF36F8FBD
:100390004FF01021D1F80002002803DBD1F804024D
:1003A000002822DA1D4A14601D480468002CFCD085
:1003B0001224C1F800420568002DFCD0C1F80442A7
:1003C00001680029FCD0136001680029FCD0BFF34C
:1003D0004F8F11487C380168124A01F4E0611143E3
:1003E0000160BFF34F8F00BFFDE710490E48086062
:1003F00070BD0000380500400404001020C5004016
:10040000488103008C56004018F50040E40E00407F
:10041000409602400004004088ED00E004E5014001
:1004200000E401400400FA050090D0030000002021
:1004300002E008C8121F08C1002AFAD170477047AD
:10044000002001E001C1121F002AFBD1704700000B
:100450002DE9FC410646C0074FF000050ED0104FB5
:1004600000240122385D009500231146019500F01B
:1004700052F8641C042CF4D300F032F8B0070DD508
:10048000074E0024361D0022305D032300951146DF
:10049000019500F040F8641C042CF4D3BDE8FC8105
:1004A000E8050012094908B5085C0090684600F0AC
:1004B0004BF8D0F80425009B0121994021EA020362
:1004C000C0F808351140C0F80C1508BDE805001249
:1004D0000249085C012100F045B80000E80500125F
:1004E00010B500242046FFF7F3FF641C042CF9D359
:1004F00010BD0120FFF7ACFF00F064F84FF4FA756F
:1005000000242046FFF7CEFF284600F03EF8641C8A
:10051000042CF6DBF4E72DE9FF411C46DDE90A78FF
:1005200015460E46684600F00FF846EA450141EAD6
:10053000840141EA072242EA0841009A00EB820066
:10054000C0F80017BDE8FF810168202902D24FF0F2
:10055000A040704701F01F01016001487047000092
:100560000003005038B501240090684631B1FFF710
:10057000EBFF00998C40C0F8084538BDFFF7E4FF59
:1005800000998C40C0F80C4538BD70B5840900F066
:100590003F0504E0402000F01DF800F009F8641E5B
:1005A000F8D2284600F016F8BDE87040AFF300809E
:1005B0004FF0E02291699369CB1A23F07F43834285
:1005C000F9D370474FF0E0206FF07F414161052182
:1005D0000161704703494FF47A720968B1FBF2F187
:1005E00048437047000000200D0E0F100B0C181927
:1005F0001006001200000020040000003004001269
:100600001406001204000020042000004004001220
:040610000090D00383
:0400000512000201E2
:00000001FF
