:020000040000FA
:1000000028240020150200001D0200001F0200002D
:100010002102000023020000250200000000000071
:1000200000000000000000000000000027020000A7
:1000300029020000000000002B0200002D02000039
:100040002F0200002F020000D10500002F02000047
:100050002F0200002F0200002F0200002F020000DC
:100060002F0200002F020000810500002F02000077
:100070002F0200002F0200002F0200002F020000BC
:100080002F0200002F0200002F0200002F020000AC
:10009000150300002F0200002F0200002F020000B5
:1000A0002F0200002F0200002F0200002F0200008C
:1000B0002F0200002F0200000000000000000000DE
:1000C0002F0200002F0200002F0200002F0200006C
:1000D0002F0200002F0200002F0200002F0200005C
:1000E0002F0200002F0200002F020000000000007D
:1000F000000000002F02000000000000C10200000C
:1001000000000000000000000000000000000000EF
:1001100000000000000000000000000000000000DF
:1001200000000000000000000000000000000000CF
:1001300000000000000000000000000000000000BF
:1001400000000000000000000000000000000000AF
:10015000000000000000000000000000000000009F
:10016000000000000000000000000000000000008F
:10017000000000000000000000000000000000007F
:10018000000000000000000000000000000000006F
:10019000000000000000000000000000000000005F
:1001A000000000000000000000000000000000004F
:1001B000000000000000000000000000000000003F
:1001C000000000000000000000000000000000002F
:1001D000000000000000000000000000000000001F
:1001E000000000000000000000000000000000000F
:1001F00000000000000000000000000000000000FF
:10020000DFF80CD000F04AF800480047E10F00008A
:10021000282400200648804706480047FEE7FEE7FE
:10022000FEE7FEE7FEE7FEE7FEE7FEE7FEE7FEE7A6
:10023000AD0300000102000040EA01039B0703D068
:1002400009E008C9121F08C0042AFAD203E011F815
:10025000013B00F8013B521EF9D27047D2B201E0D7
:1002600000F8012B491EFBD270470022F6E710B5BB
:1002700013460A4604461946FFF7F0FF204610BD14
:1002800030B504460020034600E05B1C934203D2D5
:10029000E05CCD5C401BF8D030BD0000064C074D43
:1002A00006E0E06840F0010394E807009847103446
:1002B000AC42F6D3FFF7A8FFA8290000C829000028
:1002C000F8B51248124E04464FF48C7101F064FAEE
:1002D00000281AD00025C4F81851D4F8180100904D
:1002E000F07F3446FF2806D0A17F11B101F064F9F8
:1002F00001E001F0CBF965772572D4E9002101B066
:1003000004F10800BDE8F0401047F8BD00F00240DD
:10031000940300202DE9F041204D4FF480773946B9
:10032000284601F0C1F81E4C0126C0B139462846C6
:1003300001F0BFF8042001F015FA606808B119480F
:100340000660207801280AD1607820B3032020704D
:1003500001F0F8FD0120C5F808030020A0704FF45B
:1003600082773946284601F09FF8002811D0394697
:10037000284601F09EF8042001F0F4F90A480660CE
:1003800000F020FE002804D00220C5F80803012058
:100390002070BDE8F0810220D9E700000040014054
:1003A000640000200810004000A0004070B54FF02D
:1003B00080520124D2E94C100023082906D1CD0631
:1003C000C5F80C31C5F810315E4D2B60082955D1A8
:1003D0005D4D2D685D4E35605B4D2D1D2D68361DC4
:1003E0003560594D08352D68361D3560564D0C3534
:1003F0002D68361D3560544D10352D68361D35601D
:10040000514D14352D68361D35604F4D18352D680A
:100410004E4E203635604C4D1C352D68361D3560EE
:10042000494D20352D68361D3560474D24352D68E2
:10043000361D3560444D28352D68361D3560424DDA
:100440002C352D68361D35603F4D30352D683F4EBB
:10045000403635603C4D34352D68361D35603A4D9B
:1004600038352D68361D3560374D3C352D68361DC5
:100470003560354D40352D68361D3560082904D16D
:10048000050002D1334E324D3560082904D10500F4
:1004900002D1314EFB253560082908D1050006D16F
:1004A00092F858622D4A156866F30305156008290D
:1004B00004D1020002D12A4D8A012A60082906D1FE
:1004C00028480168C90702D06FF001010160264881
:1004D000016841F470010160BFF34F8FBFF36F8F6C
:1004E0004FF01021D1F80002002803DBD1F80402FC
:1004F000002822DA1D4A14601D480468002CFCD034
:100500001224C1F800420568002DFCD0C1F8044255
:1005100001680029FCD0136001680029FCD0BFF3FA
:100520004F8F11487C380168124A01F4E061114391
:100530000160BFF34F8F00BFFDE710490E48086010
:1005400070BD0000380500400404001020C50040C4
:10055000488103008C56004018F50040E40E00402E
:10056000409602400004004088ED00E004E50140B0
:1005700000E401400400FA050090D0038C00002044
:1005800070B511484FF4A271D0F844210025002A1B
:1005900016D001F006F900F003FD0C4C20B1172035
:1005A00001F064F801280CD000F004FD18B1172008
:1005B00001F05CF800B10420207001F0C3FCA570CC
:1005C00070BD0120207070BD00A0004064000020BC
:1005D00001480068004700005C000020002809DB9B
:1005E00000F01F02012191404009800000F1E0204D
:1005F000C0F880127047002809DB00F01F020121BB
:1006000091404009800000F1E020C0F800117047DF
:100610004907090E002804DB00F1E02080F80014EF
:10062000704700F00F0000F1E02080F8141D7047C3
:1006300002E008C8121F08C1002AFAD170477047AB
:10064000002001E001C1121F002AFBD17047000009
:1006500002480121016481637047000000100040DE
:1006600006480021C0F81C1101214161D0F81C117D
:100670000029FBD002480068C0B27047001000405B
:100680004815004072B609480068C00700D000BE97
:10069000BFF34F8F0548E4380168054A01F4E06173
:1006A00011430160BFF34F8F00BFFDE7F0ED00E0A5
:1006B0000400FA050EB500210091CDE901106A464B
:1006C00044F20100FFF7DEFF0EBD10B58268C3687B
:1006D000934203D000F00CFC002010BD052010BD9B
:1006E00029B112B1531E134203D0092070470E20C6
:1006F00070470160838000218160C16008467047B7
:1007000010B58268C3689A1A83889A4203D800F0A9
:10071000F9FB002010BD042010BD000070B50A4E8A
:1007200001460A48B578FFF7D0FF04464DB10020D6
:10073000B070711C0122C81D00F096FE08B1FFF7D1
:10074000B9FF204670BD00006C00002008040020A6
:10075000F0B5244E89B01F460D00044672603FD0AC
:10076000A888296882B22048FFF7BAFF002835D14F
:10077000A889A96882B21C481030FFF7B1FF002891
:100780002CD1202219496846FFF756FD6069069072
:10079000207C00B101208DF814008DF81C70607C65
:1007A00000B10E208DF81500E0680290A06803905B
:1007B00020680190606800900A480D4A6946083038
:1007C00000F01EFE002809D1B0702068401C05D042
:1007D00004490122491CC81D00F046FE09B0F0BDC5
:1007E0000720FBE76C000020080400208829000097
:1007F000E124000010B501461048FFF781FF040016
:1008000019D10F480F4A0178515C19B1001D01F050
:100810006DFA02E00C3001F043F960B9084907486D
:100820000839FFF752FF30B9054901220839044859
:1008300000F02AFE0446204610BD000018040020E7
:10084000740000204800002000F002B800F008B852
:1008500072B602480168491C016070478800002098
:1008600003490868401E086000D162B67047000066
:100870008800002070B5054608680C46411C04D06D
:1008800000F00EFF206800F077FE6068411C02D087
:10089000002100F05FFE2968A069C1F82405607D91
:1008A000227D29681043C1F86C05D4E9001228683C
:1008B000C0F81425C0F80C15207D012814D1A068BB
:1008C000411C02D0002100F045FEE068411C04D02C
:1008D00000F0E6FEE06800F04FFED4E9021228685E
:1008E000C0F80825C0F8101570BD70B50546086839
:1008F0000C46411C04D000F0DDFE206800F046FEEE
:100900006068411C02D0002100F02DFE2968A0691A
:10091000C1F82405607D217D2A680843C2F86C0572
:10092000D4E900122868C0F80C15C0F81425207D01
:10093000012814D1A068411C02D0002100F013FE50
:10094000E068411C04D000F0B5FEE06800F01EFE37
:10095000D4E902122868C0F80825C0F8101570BD47
:100960002DE9FC410646C0074FF000050ED0104FA0
:1009700000240122385D009500231146019500F006
:100980009EFD641C042CF4D300F01CF8B0070DD5B8
:10099000074E0024361D0022305D032300951146CA
:1009A000019500F08CFD641C042CF4D3BDE8FC819F
:1009B0003C2800000249085C012100F08FBE0000C5
:1009C0003C28000010B500242046FFF7F3FF641C0C
:1009D000042CF9D310BD000070B51B480224017827
:1009E000427801F00F01FF2A1CD8184B5B7A032BC9
:1009F00001D0042B01D1022914D8062B01D0052BDC
:100A000001D103290ED831B101290DD002290DD011
:100A100003290DD006E00E49801CFFF731FC08B910
:100A2000012070BD002070BD0F2302E0552300E0BF
:100A3000FF23002105E00D19455D9D42F2D1491CBF
:100A4000C9B29142F7D3EBE79002002000000020EA
:100A5000442800002DE9F041304C0126820B26731A
:100A6000002525822178074639B1C7F305203AB120
:100A7000032A0AD0012915D117E00520BDE8F0812D
:100A8000F9B2BDE8F04101F03FB901290AD0E0898F
:100A900040F40040208200F003F90121002000F022
:100AA000FFFB28E026820220E8E7014694F83C009C
:100AB000C7F3850300F0C00007F003071843C4E93B
:100AC0000F07616494F809C00846BCF1030F09D010
:100AD000BCF1040F06D0032F08D0272806D92682A0
:100AE0000120CBE7032FF8D1FF202064E581012A04
:100AF00003D0022A0DD00020C0E74FF481710848CE
:100B0000FFF7B3FB012001F0AFFA04202070284664
:100B1000B4E7BDE8F041184601F04EB900000020EE
:100B20009002002002494FF40070086070470000F6
:100B300050160040034900230A7B0B73098A0160A9
:100B400010467047000000204AB1012A0BD0022A4B
:100B50000DD0032A0FD0042A11D0002070470B4A71
:100B6000026008200EE00A4A026009200AE0094AF1
:100B700002600A2006E0084A02601A2002E0074AE2
:100B800002601B20087001207047000000800040B8
:100B90000090004000A0004000A0014000B00140D3
:100BA00010B501F019FB10B901F0F6F908B10420F5
:100BB00010BD05480021012201730270C163034882
:100BC0000260084610BD00000000002040E5014022
:100BD00008281AD0072818D0062816D0052814D0BF
:100BE000042812D0032810D002280ED068B1FC28A7
:100BF0000BD0F82809D0F42807D0F02805D0EC282D
:100C000003D0E22801D0D82807D1052907D006292A
:100C100005D0032903D0042901D004207047002007
:100C200070470000094910B5097801290AD8012840
:100C300002D0022806D101E0002000E0012000F0EF
:100C4000A5FB08B1002010BD012010BD0000002050
:100C500006490978012901D9002070470349024655
:100C6000491C01F11B00FFF76FBF000000000020CE
:100C700070B5C4B214F0300F01D044F0C004074D79
:100C80002878012804D8697A2046FFF7A1FF08B127
:100C9000002070BD0120AC6170BD0000000000208C
:100CA00010B500F011F80121002000F0F9FA044815
:100CB0000124046101F01AFA0248047010BD00001A
:100CC00000900040000000207047000070B5134CF9
:100CD0000125052818D2DFE800F003030F131900DF
:100CE000002001F0C1F9FFF71DFF0021084600F0C8
:100CF0006FFB0320207007E00846FFF7B9FF02E012
:100D00000846FFF7A5FF28B1002070BDC8B2FFF765
:100D100089FFF8E72582042070BD00000000002054
:100D20002DE9F05FDFF87CB15C4F5D4C5E4D4FF01C
:100D3000010940F2E24A00260BF104082078042859
:100D400009D1D7F80411012905D1C7F80461A17AA6
:100D500009B1C5F81090D7F80C1179B3032803D066
:100D60000121002000F09CFAC7F80C610120FFF778
:100D700035FC2078042830D10121002000F010FB40
:100D8000A07A60B1CBF800A03F21C8F80010C5F8E8
:100D90000C90C5F84061C5F84461C5F8009043481F
:100DA0000068012805D1FFF717FE10B1E089401C4B
:100DB000E0814FF481713E48FFF757FA207804280C
:100DC0000BD1D7F80001012807D1C7F80061A07A3C
:100DD00018B1C5F80C90C5F80090E069D0F8401142
:100DE00051B1C0F840612178022914D1002100F5E9
:100DF000A07000F0EDFA0EE0D0F8440158B1E069BF
:100E0000C0F8446194F90100FFF7E8FB6069401CF9
:100E10006061BDE8F09FD5F84001012826D1FFF7B9
:100E20001FFCE17A19B15F2811D900200DE021499A
:100E3000002209688BB2090C0F2B02D9022900D2BB
:100E400001225F2800D312B1012001F09DF9FFF7C4
:100E5000FFFBCBF800A0C5F80490C5F80C90C5F8CE
:100E60004061C5F800900920FFF7B8FBD5F84401B0
:100E700000283FF463AFFFF7F3FB5F2801D30020A6
:100E800000E0012001F080F9FFF7E2FBC8F8006004
:100E9000C5F844610920FFF7A1FB4FE700100040AF
:100EA00000000020409500400090004000140040E9
:100EB000900200207415004010B50B4C4FF4A27145
:100EC000204600F06EFC4FF4A071204600F069FC53
:100ED000A115064C204600F0ECFA2046BDE8104073
:100EE0004FF4827100F0E5BA00A0004000400140DC
:100EF000826883881A4003689A5C0A708168491C7A
:100F000081607047C26883881A4003689954C16839
:100F1000491CC1607047000070B50D46044600686A
:100F20004FF4887100F059FC4FF49071206800F084
:100F300054FC4FF49271206800F04FFC4FF4A27102
:100F4000206800F04AFC4FF4AC71206800F045FCCA
:100F500020681249C0F804132068690740F307307D
:100F6000090E002804DB00F1E02080F8001405E001
:100F700000F00F0000F1E02080F8141D206840F31D
:100F80000730002809DB00F01F02012191404009D1
:100F9000800000F1E020C0F8001170BD1003420095
:100FA0000348007808B10020704701207047000016
:100FB0006400002002480078002800D0012070471B
:100FC0006400002005480178022904D00078032835
:100FD00001D000207047012070470000640000200D
:100FE000F0B500258DB02F462C460120FFF7B8FC48
:100FF0001822284906A8FFF71FF927480290274919
:101000004FF48070CDE9030105900723244A02A91B
:1010100006A8FFF79DFB08B1FFF74CFBFFF7C0FDEB
:10102000064600F097F808B1FFF744FB1EB10DB07B
:101030004FF0FF30F0BDFFF773FE06466846FFF73E
:101040006DFB0028F7D147B105F11500864206D99E
:101050009DF8000035460402EDE70127F8E79DF80A
:101060000000002704432046FFF7F4FC01A8FFF727
:1010700061FD0028DFD00198C0F30720FFF7BAFB1D
:101080000028F8D10198C0B2FFF7B4FB0028F9D1CD
:10109000D1E70000242800009000002090010020EB
:1010A000CD24000010B5142000F07AFA112000F0D1
:1010B00077FA00231A461621012000F023FB0A4C80
:1010C000201DD0F8101541F00301C0F810150023C1
:1010D0001A461321184600F015FBD4F8100540F00D
:1010E0000300C4F8100510BD0060004010B518B131
:1010F000012805D0072010BD112000F067FA02E09A
:10110000112000F0E1FA002010BD000000B501211F
:1011100000F010F80549044AC1F81025C1F814057B
:1011200003490420086000BD44A1004010F00140C4
:1011300004F5014040B10020054A012906D0602194
:1011400001EB8000104470470120F5E73021F7E7FC
:101150000060004070B5244D0020287000F0F2FEC1
:10116000FFF7AAFE214C0320C4F808030020A87052
:101170001F48D0F810151F4A1140C0F81015D0F8BC
:10118000101541F4B851C0F81015D0F8101541F001
:101190000301C0F81015FFF785FF06210A20FFF7AD
:1011A00037FA0A20FFF727FA13494FF40030C1F845
:1011B000040312492246052000F0E4FA052000F05D
:1011C000D9FA0E49221D1031062000F0DBFA062064
:1011D00000F0D0FA06211420FFF71AFA1420FFF7C6
:1011E0000AFA002070BD00006400002000400140A9
:1011F00008600040FFC0ECFF00A00040001100406C
:101200002DE9F041234C88460546012904D0A078F9
:1012100028B11120BDE8F081A0780028FCD1207809
:101220000026042804D035B1FFF7C4FE30B90AE027
:10123000A6700320EEE7FFF7B3FE10B1A6700820FA
:10124000E8E7002700E00127134E0DB1122000E06F
:1012500000201149091DC1F84005D6F8000240F2EE
:1012600002210843C6F800024FF4A271304600F094
:1012700098FA0A48D0F8101565F31451C0F8101503
:1012800001203060B8F1010F02D12078B842FCD1C2
:101290000020BFE76400002000A00040086000407C
:1012A0002DE9F047334C81460E462078002504286E
:1012B00006D0FFF775FE28B1A5700820BDE8F087BD
:1012C000A5701AE0012E03D0A07820B11120F5E717
:1012D000A0780028FCD10125A570FFF7EDFD264977
:1012E0000220C1F804032078244F012807D0207879
:1012F00002280AD02078032809D00320DEE7002145
:101300000846FFF77DFF3D6032E0002400E0012445
:101310001B4ADFF870801C49032000F033FA0320D9
:1013200000F028FAD8F8001240F202200143C8F871
:10133000001208F104010520C1F8400500212046F3
:10134000FFF7F8FE0346B9F100000AD001463A461D
:10135000042000F0F9F9042000F00CFA012E03D06B
:1013600006E01D603D60F9E7FFF724FE0028FBD191
:101370000020A3E76400002000400140101000405E
:101380006860004000A0004044A100400349897803
:1013900009B111207047FFF7A9BE000064000020CA
:1013A0000A460A4930B40C780023042C07D00C7884
:1013B000032C08D0014630BC012000F0B5BF8B7073
:1013C000032030BC70478B700820FAE764000020CF
:1013D0000A460A4930B40C780023042C07D00C7854
:1013E000022C08D0014630BC002000F09DBF8B705D
:1013F000032030BC70478B700820FAE7640000209F
:10140000F0B505460478154889B0164640F8242002
:10141000124A08690832A2F10C0742F82400487FFA
:10142000385520226846FEF707FF04942878385C78
:1014300048B10EB10A4A00E000226946281D00F0BA
:1014400047FB09B0F0BD0EB1064A00E00022694634
:1014500005F10C0000F0F0F9F3E700004C0000206B
:10146000E12600008525000030B40378054CE35CDC
:101470001BB130BC001D00F061BB30BC0C3000F073
:1014800045BA00004800002030B40378054CE35C06
:101490001BB130BC001D00F0D3BB30BC0C3000F0E1
:1014A000ABBA0000480000204058002800D00120BE
:1014B000704708B5002242504058009008BD2DE901
:1014C000FF411C46DDE90A7815460E46684600F0E5
:1014D00087F846EA450141EA840141EA072242EAE7
:1014E0000841009A00EB8200C0F80017BDE8FF81B8
:1014F0002DE9FF411C46DDE90A7815460E4668468F
:1015000000F08AF846EA450141EA840141EA0722EF
:1015100042EA0841009A00EB8200C0F80017BDE8DB
:10152000FF812DE9FF411C46DDE90A7815460E468C
:10153000684600F07FF846EA450141EA840141EA45
:10154000072242EA0841009A00EB8200C0F8001727
:10155000BDE8FF811CB500220B46009211460192A6
:10156000FFF7C6FF1CBD1CB500220B4600921146BA
:101570000192FFF7D6FF1CBD1CB5002100910B4660
:10158000012201911146FFF7B3FF1CBD1CB50021DC
:1015900000910B46012201911146FFF7C2FF1CBDCD
:1015A00008B50090684600F053F8009A032100EB5C
:1015B0008200C0F8001708BD01B5684600F01EF8AB
:1015C000009A01219140C0F80C1508BD01B568468C
:1015D00000F03EF8009A01219140C0F80C1508BDBA
:1015E0000168202902D24FF0A040704701F01F018E
:1015F0000160014870470000000300500168202985
:1016000002D24FF0A040704701F01F010160014875
:1016100070470000000300500168202902D24FF0FB
:10162000A040704701F01F010160014870470000B1
:10163000000300500168202902D24FF0A0407047FB
:1016400001F01F01016001487047000000030050D5
:101650000168202902D24FF0A040704701F01F011D
:10166000016001487047000000030050202802D2AA
:101670004FF0A04102E0044900F01F00D1F810151E
:10168000C14001F0010070470003005001B56846F9
:10169000FFF7B4FF009A01219140C0F8081508BD7A
:1016A00001B56846FFF7B8FF009A01219140C0F8E4
:1016B000081508BD01B56846FFF7BCFF009A012177
:1016C0009140C0F8081508BD01B56846FFF7C0FF96
:1016D000009A01219140C0F8081508BD38B50124D1
:1016E0000090684631B1FFF77BFF00998C40C0F84D
:1016F000084538BDFFF774FF00998C40C0F80C45D1
:1017000038BD000030B584000D482044D0F81045A5
:101710000C4D2C40C0F81045D0F810454FF47C55C6
:1017200005EA01210C434FF4403101EA02414FF434
:10173000801202EA035211430C43C0F8104530BD39
:1017400000600040FFC0ECFF70B51C46054600F08D
:1017500019F8034901EB8500C0F8104970BD00007D
:1017600000F0014001218140014801607047000004
:1017700008F50140012181400148016070470000E7
:1017800004F50140C30003481844C0F81015C0F820
:101790001425704700F001404058002800D0012077
:1017A000704708B5002242504058009008BD40588C
:1017B000002800D00120704708B500224250405850
:1017C000009008BDD0F80403084000D00120704705
:1017D0004058002800D00120704708B50022425030
:1017E0004058009008BD0121B1EB507F01D101208C
:1017F00070470020704770B50D4600F0C1FB040033
:101800000FD00020FFF720F8207920B10020FFF74B
:101810001DF8112070BD0120256020710020FFF708
:1018200015F8002070BD00000149024800F0C2BE5A
:10183000B8030020002000402DE9F0410546007962
:1018400016460F4600EB40012D4A01EBC00102EBAA
:10185000810494F82A1011B10820BDE8F0812949CB
:1018600051F820102868FFF7C6FF08B11120F4E7EF
:1018700039462846FEF7FEFF666038692060300072
:101880004FF001062FD03F7F4FF48E712868FFF78D
:1018900093FF4FF4A2712868FFF78EFF28681A495A
:1018A000C0F8041328684FEA471140F307300028B6
:1018B00004DB00F1E02080F8001405E000F00F00E8
:1018C00000F1E02080F8141D286840F3073000285C
:1018D00009DB00F01F0106FA01F14009800000F168
:1018E000E020C0F8001128680421C0F8001500208D
:1018F000A061E06184F8290044F8140FA675ACE7F4
:10190000B803002080290000800002002DE9F05F6C
:10191000054600794FF4017600EB400303EBC0006D
:10192000344B03EB80040020636813B12B68C3F8C9
:101930000863A3694FF000096BB1E06938B16068D2
:1019400010B12868C0F804631120BDE8F09FE2617F
:101950000120216105E0C4F82490A261E160C4F88F
:101960001C9094F82910014302D1284600F0FBFB9B
:1019700060680028286803D0C0F804630020E4E70A
:101980004FF4A2763146FFF717FFB2464FF4927B31
:1019900059462868FFF70BFF06464FF48471286804
:1019A000FFF705FF804651462868FFF700FF07460E
:1019B00048EA07003043EBD056EA070007D121463A
:1019C000286800F0A1FBA169606A8142E0D8C4F8F0
:1019D00018900EB10320B8E70FB10F20B5E794F8C7
:1019E000291001200029296801D00860C6E7486055
:1019F000C4E70000B80300202DE9F05F0546007938
:101A00000B4600EB400101EBC000244901EB8004D0
:101A1000284600F045F810B11120BDE8F09F626142
:101A20004FF00009C4F82090A36084F828904FF488
:101A30008E784E4641462868FFF7BEFE28684FF074
:101A4000010AC0F808A02146286800F015FD60686A
:101A500008BBD5F800B067690FE000BF94F8280014
:101A600008B10F2615E041465846FFF7A0FE0028B2
:101A7000F4D02146584600F0FFFC206AB842F2D369
:101A8000574641462868FFF792FE0028F9D028689B
:101A9000C760C4F814903046BFE70000B8030020C8
:101AA000007900EB400101EBC000044901EB80002C
:101AB0004069002800D0012070470000B8030020D2
:101AC0000149024800F024BEE40300200020004049
:101AD0002DE9F0410546164600790F46154A00EB00
:101AE000C00102EB810494F8201011B10820BDE878
:101AF000F081114951F820102868FFF77CFE08B1E9
:101B00001120F4E739462846FEF7EFFE6660386993
:101B100020601EB1397F2846FFF7FEF928680821AA
:101B2000C0F800150020A061E0616061012184F827
:101B30002010DCE7E4030020842900002DE9F05F99
:101B4000044600790E4600EBC001DFF8F0A017460E
:101B50000AEB81053046FFF746FEB0B168684FF0EA
:101B600000084FF4047910B12168C1F80893A869FE
:101B70004FF0000B80B1E86948B1686810B1206887
:101B8000C0F804931120BDE8F09F1020FBE7EF613F
:101B90004FF001082E6102E0EE60C5E9067B0025EA
:101BA0004FF488712068FFF718FE4FF4A271206887
:101BB000FFF713FE2068C0F83465C0F83875206858
:101BC000B8F1000F12D0D0F8001241F02001C0F897
:101BD00000122079D04600EBC0010AEB810040687A
:101BE00038B12068C0F804932846CCE70121016091
:101BF000EFE74FF4887A4FF4A27951462068FFF757
:101C0000E7FD074649462068FFF7E2FD06464FF428
:101C100092712068FFF7DCFD014647EA06000843A1
:101C2000EBD0227902EBC20308EB8302C2F818B0B2
:101C300001B10325002ED7D00F25D5E7E4030020FE
:101C40002DE9F04704460E460079274900EBC00015
:101C500001EB800517463046FFF7C5FD30B1204641
:101C600000F044F820B11120BDE8F0871020FBE718
:101C70006F61AE604FF490774FF0000839462068EE
:101C8000FFF7ABFD4FF4AC7631462068FFF7A5FDBA
:101C90002068AA686969C0F84425C0F8481520681A
:101CA0004FF00109C0F808906868D0B9BA465146AB
:101CB0002068FFF78DFD074631462068FFF788FD55
:101CC0000743F4D010B14FF00F0808E02068C0F8C7
:101CD0000C9031462068FFF77BFD0028F9D00020EA
:101CE00068614046C0E70000E40300200079054930
:101CF00000EBC00001EB80004069002800D001200B
:101D000070470000E403002070B50C460546FEF75E
:101D1000C7FF0422012126480A2D3DD2DFE805F045
:101D200005121B2023284444443F032C34D80021AF
:101D30000322C163427241711E48016821F00041D3
:101D4000016027E00F2C27D80CB1012100E0002111
:101D50000901C1631EE02046BDE8704000F0AAB84A
:101D6000032C19D816E0032C16D81621018211E095
:101D70004FF4FF72032C07D9251F44F29023032D43
:101D800007D92D1F032D01D8028203E00C3C032C40
:101D900002D80382002070BD0182042070BD60B2B1
:101DA000BDE8704000F068BA0182104670BD0000C6
:101DB00000000020401700402DE9F0413A4C0F464A
:101DC0002146266C0122C96BFF2E05D0FF2903D9BD
:101DD00022820320BDE8F081344B0225022E597087
:101DE00017D003DC4EB1012E04D10EE0032E24D017
:101DF000FF2E27D022820420ECE7002018700A462C
:101E0000981C2B49FEF718FA08E01A70981C0F224C
:101E100002E01D70981C5522FEF720FA002000F009
:101E200023F9607A0022E16B042810D0032810D037
:101E3000052810D0062811D012E004201870981C34
:101E4000FF22E9E73946BDE8F041FEF73FBF5822DF
:101E500006E0502204E04FF4347201E04FF4E772E0
:101E6000C900052802D0062802D002E0C90000E01F
:101E700049000A44042800D15208002112F1F90255
:101E800040F27123491C01FB03F08242F8D8184646
:101E90004143E069C0F84015002100F5A070FFF74C
:101EA00097FA2570002095E700000020900200209E
:101EB000442800002DE9F041031F002603221D499C
:101EC00001251D4F1D4C032B02D86272667106E07E
:101ED000A0F10803032B0CD8042060726571086818
:101EE00020F000400860002000F04EF93D61A6722D
:101EF00018E0104EA0F10C07114B4836032F03D801
:101F0000052005E0A5720DE0103803280ED8062044
:101F100060726271086820F46C5018430860306881
:101F20000028EFD0BDE8F04100F036B8258204204B
:101F3000BDE8F08140170040009000400000002004
:101F400000C4008010B50320FFF70CFC0420FFF74D
:101F500009FC0220FFF706FC00231A46194603205D
:101F6000FFF7F2FB00231A4619460420FFF7ECFBAB
:101F70000023BDE810401A4619460220FFF7E4BBD3
:101F80000349884201D10348704700207047000090
:101F9000002000405C00002070B5314C617AA069DF
:101FA000FEF716FE012510B12582042070BD00F059
:101FB0009DF82C49A06908602A48617A001D0160DB
:101FC00028481830026822F0FF0202600368E26AC3
:101FD00043EA126303601002224A10321060214863
:101FE000243005601F4A002020321060207AA27938
:101FF00040EA02201B4A283210601A4808300329A0
:1020000022D0042920D02179E278090441EA022172
:10201000A2781143627941EA026141F0C141016055
:1020200094F8280094F82410400640EA0160218CBE
:1020300040EA0140E17940EA01200A4940F0FF000E
:102040000C310860002070BD2179E278090441EA72
:102050000221A2781143627941EA0261DFE70000C0
:10206000000000200C15004070B50546FEF72CFE60
:1020700019491A4A086B1060121D486B1060486CB1
:10208000022202EB4000154A303A1060121F144839
:102090001060144E0024C6F8004165B1887A10B172
:1020A000012000F071F8C6F80C41BDE87040002135
:1020B0000846FFF775B9094A087E2C3A1060887AFD
:1020C000002807D008480121C1604160C0F84041A4
:1020D000C0F8444170BD00000000002038150040E9
:1020E00090020020001000400090004004490020B1
:1020F000C8810448016821F4702101607047000024
:10210000000000201415004070B5054688690C4693
:1021100000284FF4847128460AD0FFF74DFBD5F80C
:102120001805626AE1688854606A401C606270BD8C
:10213000FFF742FBD5F8180570BD1FB501238DF8D8
:102140000030CDE90121D0E90012684690471FBD5B
:102150001FB501238DF80030CDE90121D0E900122F
:10216000684690471FBD10B5044600684FF4927151
:10217000FFF722FB4FF484712068FFF71DFB2068F6
:102180000121016010BD00000F4910B50E4A403119
:1021900080B113680D4C234043F07D0343F00043AE
:1021A00013600A68094B8F331A4042F0600242F014
:1021B000004204E0064B13600A6822F000420A6005
:1021C0000449C87210BD00003C17004000FFFF7FAB
:1021D000343000400000002010B54FF08041002056
:1021E000C1F8000101220A60D1F80031002BFBD0B8
:1021F0001E4BD9694A60CA60C1F80405C1F84001A4
:10220000C1F84401C1F84801C1F84C014FF48034D1
:10221000C1F80443C1F800220424C1F810459C6BA6
:10222000C1F840454FF48274C1F844450A60104932
:1022300058614A60CA600F4A1060C1F84001C1F895
:102240004401C1F84801C1F84C010A4A40F2E24198
:102250003C321160111D08600920FEF7BFF90549E5
:1022600007200C310860002010BD00000000002095
:10227000009000400495004070B5D82228494FF4E2
:102280006C747E2813D008234FF482657F2811D008
:1022900000F17F06942E18D38A690123D0B203EB94
:1022A00040000882D82A08D0082A09D00BE08A61A9
:1022B0000C8232E08B610D822FE040F4007001E06F
:1022C00040F480600882042070BD10F1280FEEDD1C
:1022D0000828EFDA134C012214F822305BB2834253
:1022E00014DD54F822506BB21B1A00D55B4204EB8C
:1022F00082025BB252F8042C54B2201A00D540423C
:10230000984201DD8D6105E08A6103E0521CD2B282
:102310000F2AE1D3087E40000882002070BD000033
:1023200000000020442900002DE9F74F07460298DD
:102330004A4C8B46012804D0A07828B11120BDE872
:10234000FE8FA0780028FCD120784FF000080428E8
:1023500071D017B1012F04D006E0207802286ED08A
:1023600002E0207803286AD03D480068C04340F36B
:102370000000401C01D0282600E08226D7B30425A7
:102380004FF0010A84F802A0FEF796FD3549C1F826
:1023900004A3FEF705FEDFF8D09060B3334ADFF800
:1023A000D08034490320FFF7EDF90320FFF7E2F96D
:1023B00008F10401A6F10D00C1F840051F3EC8F860
:1023C00040653846FEF7A2FED8F8001240F202201F
:1023D0000143C8F80012606840F001006060BBF182
:1023E000000F0BD005EB0903424659460420FFF7C6
:1023F000ABF916E000E005E00025C1E75046C8F85B
:1024000000A021E02078042815D02078032816D0D9
:10241000BBF1000F17D005EB090259460420FFF766
:10242000B1F90420FFF7A6F96770029801280ED0D1
:1024300011E000E003E084F8028003207FE784F8E5
:10244000028008207BE7504645F80900ECE7FEF7DC
:10245000B9FD0028FBD0002071E7000064000020D7
:10246000501600400040014000100040386000401D
:1024700000A0004040A1004070B50C4605464FF456
:102480008E71FFF799F9216AA068415C206A401CAF
:102490002062C5F81C1570BD1FB500228DF8002004
:1024A0000291816801914261D0E90012684690472B
:1024B0001FBD1FB500228DF8002002918168019197
:1024C0004261D0E90012684690471FBD0178022999
:1024D00001D0012902D14068FEF7ECB87047000036
:1024E0007CB50178254DA1B301290BD002291DD15E
:1024F0008DF80010C068691C01900122C81DFEF70C
:10250000B3FF30E0017A59B1406801781C48FEF70A
:10251000F7F81B4C012650B18DF8006001900DE0DA
:1025200016490122491CC81DFEF79EFF7CBDA0680C
:10253000E168814205D000208DF800006968684696
:102540008847A068E168081AA1888842E8D9AE7077
:102550007CBDFFE70A4809491030FEF7B6F830B1F4
:1025600003208DF80000696868468847F0E7034952
:10257000012201F10800FEF787FFE9E76C00002067
:10258000080400201FB50A4601788DF80010416844
:102590000191017A8DF80810C0680390044850F842
:1025A0002210083850F82220684690471FBD0000CE
:1025B000540000202DE9FF470C4605464FF40071FA
:1025C000FFF700F901274FF40178002618B34FF404
:1025D000927949462846FFF7EAF8E0B1494628468D
:1025E000FFF7EAF8C5F8088394F8290000B96F608E
:1025F00002208DF80000D5F88004C5F8800403900F
:10260000A0690290E0680190A661E661D4E9001239
:102610006846904728E004212846FFF7D3F818B30E
:102620004FF484712846FFF7C2F8E8B121462846E6
:10263000FFF76AFD616AA069884215D1E06938B187
:10264000E268616AA0612069E6616662E06008E0B4
:1026500094F8290000B96F60C5F80883A661E268A4
:10266000616A2046FFF769FD4FF48E78414628469F
:10267000FFF79DF880B16069216A814202D294F827
:10268000280028B341462846FFF796F8606918B13C
:1026900061692046FFF700FF4FF4A27841462846C3
:1026A000FFF785F8002818D041462846FFF784F840
:1026B00094F8290000B12F60A06900280DD0A66110
:1026C000E268616A04B02046BDE8F047FFF735BD17
:1026D00021462846FFF7D0FEDEE7BDE8FF87000071
:1026E0001FB50A4601788DF8001041680191017A02
:1026F0008DF80810C0680390044850F8221008387C
:1027000050F82220684690471FBD0000540000206A
:102710002DE9FF410C464FF4927705463946FFF705
:1027200057F80026B8B139462846FFF756F8022078
:102730008DF80000D5F88004C5F880040390D5F822
:102740003C050290E0680190A661E661D4E90012C0
:102750006846904723E04FF4887739462846FFF7CC
:1027600037F8E0B139462846FFF737F8D5F83C1579
:10277000A069884213D1E06960B1E268D5F800022F
:1027800020F02000C5F80002E069A0612069E66140
:10279000E06001E0A661E2682046FFF7D9FC4FF453
:1027A000A27739462846FFF713F868B1394628461C
:1027B000FFF713F8A06938B1A661E661D5F83C15BA
:1027C0002046E268FFF7C4FC4FF490763146284675
:1027D000FEF7FEFF60B131462846FEF7FEFF0120FE
:1027E000E860606920B1D5F84C152046FFF761FE1E
:1027F0004FF4AC7631462846FEF7EAFF00280ED0AB
:1028000031462846FEF7E9FF6069002807D0D5F871
:102810004C1504B02046BDE8F041FFF74ABEBDE8C4
:10282000FF81000008000000060000000500000015
:10283000070000000000000000A04E000D0E0F1069
:102840000B0C1819FFC1FBE84C90728BE7B3518950
:1028500063AB232302841872AA612F3B51A8E5378A
:1028600049FBC9CA0C18532CFD45E39AE6F15DB04B
:10287000B61BB4BE2A50EAE90E9C4B5E5724CCA18D
:10288000B759B887FFE07D742648B9C5F3D9A8C405
:10289000B1D5911101420C39D5B0979D28D4F29B46
:1028A000A4FD6465068C2996FEA2714DF3F82E589E
:1028B000DB0D5A5F1528F57407CE25AF2B12E6D035
:1028C000DB2CDCC37FF03E3A13A4DCE2F96C54E26B
:1028D000D8EAC8880021869C6AD8CB4E146AF94D84
:1028E000D27EB23203C6144B7FD1B8A6797C17AC26
:1028F000ED06ADAF0A947ABA03E792D7150973E8EB
:102900006D16EEE13F781F9D09526EF17C362A71FB
:102910006C7564448010434E35EC65270AB5FC267F
:10292000693F599901638AA5BF685CD33CBE0BD649
:102930007683D657054A3DDD8173C9EB8A8439F425
:10294000360BF700D8000000E2000000EC000000A9
:10295000F0000000F4000000F8000000FC0000009F
:10296000000000000200000003000000040000005E
:10297000050000000600000007000000080000003D
:1029800029180000C11A0000FFFFFFFFFFFFFFFF33
:10299000FFFFFFFFFFFFFFFF00000000000000003F
:1029A0000000D60106010000C82900000000002038
:1029B0009000000030060000582A0000900000201F
:1029C00098230000400600000008080100000100F4
:1029D00003030000000000000000000000000000F1
:1029E0000000000000800040030000000000000024
:1029F00000000000294176715B0600005555550026
:102A0000C4090000000000000000000000000000F9
:102A100000000000000000000000000000000000B6
:102A200000000000000000000000000000000000A6
:102A30000000000000000000000000000000000096
:102A400000200040000000000020004000000000C6
:082A5000000000000090D0031B
:0400000500000201F4
:00000001FF
