:020000040000FA
:10000000F80B0020150200003F0200004102000032
:10001000430200004502000047020000000000000B
:100020000000000000000000000000004902000085
:100030004B020000000000004D0200004F020000D3
:100040005102000051020000490600005102000068
:1000500051020000000000005102000051020000A7
:100060005102000051020000510200005102000044
:100070005102000051020000510200005102000034
:100080005102000051020000510200005102000024
:100090005102000051020000510200005102000014
:1000A00051020000510200000000000000000000AA
:1000B000510200005102000000000000000000009A
:1000C0000000000000000000000000000000000030
:1000D0000000000000000000000000000000000020
:1000E0000000000000000000000000000000000010
:1000F0000000000000000000000000000000000000
:1001000000000000000000000000000000000000EF
:1001100000000000000000000000000000000000DF
:1001200000000000000000000000000000000000CF
:1001300000000000000000000000000000000000BF
:1001400000000000000000000000000000000000AF
:10015000000000000000000000000000000000009F
:10016000000000000000000000000000000000008F
:10017000000000000000000000000000000000007F
:10018000000000000000000000000000000000006F
:10019000000000000000000000000000000000005F
:1001A000000000000000000000000000000000004F
:1001B000000000000000000000000000000000003F
:1001C000000000000000000000000000000000002F
:1001D000000000000000000000000000000000001F
:1001E000000000000000000000000000000000000F
:1001F00000000000000000000000000000000000FF
:10020000DFF80CD000F062F800480047050F00004E
:10021000F80B00200F4800680F4909680A280AD126
:10022000002908D10D4802686FF070031A404FF0A2
:1002300040031A4302600A4880470A480047FEE725
:10024000FEE7FEE7FEE7FEE7FEE7FEE7FEE7FEE786
:10025000FEE700003001001034010010E40E004001
:10026000F10200000102000040EA01039B0703D0F5
:1002700009E008C9121F08C0042AFAD203E011F8E5
:10028000013B00F8013B521EF9D27047D2B201E0A7
:1002900000F8012B491EFBD270470022F6E710B58B
:1002A00013460A4604461946FFF7F0FF204610BDE4
:1002B00030B504460020034600E05B1C934203D2A5
:1002C000E05CCD5C401BF8D030BD0000064C074D13
:1002D00006E0E06840F0010394E807009847103416
:1002E000AC42F6D3FFF790FF8C210000AC21000058
:1002F0002DE9F041C34AC4494FF080551468D5F840
:1003000030010978D5F83421431CC1F3031106D01C
:10031000844601260023BCF1060F03D00AE004F056
:10032000FF0CF6E7B5F82473DFF8E0C2C7F3042743
:10033000CCF80070E7B2062F06D1032904D1DFF80C
:10034000D4C2B34FCCF87470471C08D04FEA000CED
:10035000BCF1060F06D0BCF10A0F03D00AE004F08E
:10036000FF0CF5E7D5F84472DFF8ACC2C7F34237AB
:10037000CCF80070E7B2062F08D1032906D1A74FA9
:10038000D7F800C02CF0807CC7F800C0471C08D00C
:100390004FEA000CBCF1060F06D0BCF10A0F03D0E7
:1003A0000BE004F0FF0CF5E74FF08047C7F80C3185
:1003B000C7F81031984F3F1F3B60E7B2062F08D1B6
:1003C000032906D1DFF850C203270CF1640CCCF8E6
:1003D0000070E7B2062F11D103290FD1DFF840C218
:1003E0000527CCF800708E4F78373E608C4F083769
:1003F0003B600CF1040C3F27CCF80070471C08D080
:1004000084461746BCF1060F07D0BCF10A0F08D08E
:1004100081E004F0FF0C0F46F4E7032F7BD0042F9C
:1004200079D0804F3F68DFF800C2CCF800707D4F74
:100430003F1D3F680CF1040CCCF80070794F083771
:100440003F680CF1040CCCF80070764F0C373F6815
:100450000CF1040CCCF80070724F10373F680CF1AF
:10046000040CCCF800706F4F14373F680CF1040C8B
:10047000CCF800706B4F18373F68DFF8ACC10CF157
:10048000200CCCF80070674F1C373F680CF1040C4F
:10049000CCF80070634F20373F680CF1040CCCF8A7
:1004A0000070604F24373F680CF1040CCCF80070EA
:1004B0005C4F28373F680CF1040CCCF80070594FA2
:1004C0002C373F680CF1040CCCF80070554F3037D6
:1004D0003F68DFF854C10CF1400CCCF80070514F6C
:1004E00034373F680CF1040CCCF800704D4F3837AE
:1004F0003F680CF1040CCCF800704A4F3C373F6861
:100500000CF1040CCCF80070464F40373F680CF1FA
:10051000040CCCF80070471C05D08646434FBEF152
:10052000060F03D007E004F0FF0EF7E7D5F85852A6
:1005300005F04F053D60451C05D00446062C04D04F
:100540000A2C02D008E0E4B2F8E739490C68E40765
:1005500002D06FF001040C6006280BD11146032A6B
:1005600008D0042906D0052904D032490C6844F487
:1005700080640C600A2804D11AB1386840F00F007A
:1005800038604FF01021D1F800422B4A2B48002C44
:1005900003DBD1F80442002C13DA16600468002C47
:1005A000FCD01524C1F800420568002DFCD0C1F82C
:1005B000044201680029FCD0136001680029FCD0C6
:1005C00019E091F80042E40703D191F80442E407EE
:1005D00013D016600468002CFCD0C1F80032046807
:1005E000002CFCD0C1F8043201680029FCD0136053
:1005F00001680029FCD000F03BF81249104808605F
:10060000BDE8F081E00F00F0E80F00F04035014058
:100610000DF0ADBA00C007403C050040FCED00E025
:10062000105600400404001020C50040E40E0040B5
:10063000000400403C17004004E5014000E4014094
:100640000090D0037C0000200148006800470000B3
:1006500054000020002809DB00F01F020121914016
:100660004009800000F1E020C0F8801270470000CF
:10067000BFF34F8F05480168054A01F4E06111435B
:100680000160BFF34F8F00BFFDE700000CED00E0FD
:100690000400FA0502E008C8121F08C1002AFAD1B6
:1006A00070477047002001E001C1121F002AFBD1F2
:1006B0007047000002480121016481637047000017
:1006C0000010004006480021C0F81C1101214161C2
:1006D000D0F81C110029FBD002480068C0B2704756
:1006E000001000404815004072B609480068C00775
:1006F00000D000BEBFF34F8F0548E4380168054ABB
:1007000001F4E06111430160BFF34F8F00BFFDE7CB
:10071000F0ED00E00400FA050EB500210091CDE9EE
:1007200001106A4644F20100FFF7DEFF0EBD10B56E
:100730008268C368934203D000F08CFB002010BD98
:10074000052010BD29B112B1531E134203D0092058
:1007500070470E2070470160838000218160C16076
:100760000846704710B58268C3689A1A83889A420F
:1007700003D800F079FB002010BD042010BD00005C
:1007800070B50A4E01460A48B578FFF7D0FF044617
:100790004DB10020B070711C0122C81D00F042FC58
:1007A00008B1FFF7B9FF204670BD00005C000020D3
:1007B000D4030020F0B5244E89B01F460D00044636
:1007C00072603FD0A888296882B22048FFF7BAFF3C
:1007D000002835D1A889A96882B21C481030FFF7DB
:1007E000B1FF00282CD1202219496846FFF73CFDB3
:1007F00060690690207C00B101208DF814008DF80E
:100800001C70607C00B10E208DF81500E06802902D
:10081000A068039020680190606800900A480D4A23
:100820006946083000F0CAFB002809D1B070206882
:10083000401C05D004490122491CC81D00F0F2FBF0
:1008400009B0F0BD0720FBE75C000020D4030020C6
:100850006C210000D91C000010B501461048FFF7BC
:1008600081FF040019D10F480F4A0178515C19B17A
:10087000001D00F0FDFE02E00C3000F0D3FD60B979
:10088000084907480839FFF752FF30B905490122E6
:100890000839044800F0D6FB0446204610BD00008D
:1008A000E4030020640000204800002000F002B8AB
:1008B00000F008B872B602480168491C0160704730
:1008C0007800002003490868401E086000D162B625
:1008D00070470000780000202DE9F04106460868C6
:1008E0000C46411C4FF0A0474FF0010506D005FA19
:1008F00000F1C7F80815206800F0FCFB6068411C97
:1009000002D0002100F0E4FB3168A069C1F82405A1
:10091000607D227D31681043C1F86C05D4E9001276
:100920003068C0F81425C0F80C15207D012815D1B9
:10093000A068411C02D0002100F0CAFBE068411C05
:1009400005D08540C7F80855E06800F0D3FBD4E92E
:1009500002123068C0F80825C0F81015BDE8F08113
:100960002DE9F041064608680C46411C4FF0A047AF
:100970004FF0010506D005FA00F1C7F80815206808
:1009800000F0C2FB6068411C02D0002100F0A9FB0E
:100990003168A069C1F82405607D217D3268084373
:1009A000C2F86C05D4E900123068C0F80C15C0F824
:1009B0001425207D012815D1A068411C02D00021FA
:1009C00000F08FFBE068411C05D08540C7F8085552
:1009D000E06800F099FBD4E902123068C0F80825FD
:1009E000C0F81015BDE8F0812DE9FC410646C007AE
:1009F0004FF000050ED0104F00240122385D009505
:100A000000231146019500F02DFB641C042CF4D347
:100A100000F01CF8B0070DD5074E0024361D00224B
:100A2000305D032300951146019500F01BFB641C0B
:100A3000042CF4D3BDE8FC81342000000249085C9A
:100A4000012100F06BBB00003420000010B5002431
:100A50002046FFF7F3FF641C042CF9D310BD0000FF
:100A600070B5184802240178427801F00F01FF2A7E
:100A700016D8154B5B7A032B01D0042B01D1022928
:100A80000ED831B101290DD002290DD003290DD086
:100A900006E00E49801CFFF70BFC08B9012070BD71
:100AA000002070BD0F2302E0552300E0FF2300214A
:100AB00005E00D19455D9D42F2D1491CC9B2914234
:100AC000F7D3EBE780020020000000203C2000006C
:100AD0002DE9F0412E4C0126820B2673002525823C
:100AE0002178074639B1C7F305203AB1032A0AD065
:100AF000012911D113E00520BDE8F081F9B2BDE86C
:100B0000F04100F0C3BD012906D0E08940F4004067
:100B1000208200F0C7F828E026820220ECE7014698
:100B200094F83C00C7F3850300F0C00007F003070A
:100B30001843C4E90F07616494F809C00846BCF182
:100B4000030F09D0BCF1040F06D0032F08D02728CB
:100B500006D926820120CFE7032FF8D1FF20206499
:100B6000E581012A03D0022A0DD00020C4E74FF40A
:100B700081710848FFF791FB012000F0FDFE042081
:100B800020702846B8E7BDE8F041184600F0CEBD19
:100B9000000000208002002002494FF4007008602D
:100BA0007047000050160040034900230A7B0B7376
:100BB000098A016010467047000000202AB1012A0E
:100BC00007D0022A09D000207047074A0260082097
:100BD00006E0064A0260092002E0054A02600A2097
:100BE0000870012070470000008000400090004025
:100BF00000A0004010B500F093FF10B900F062FEB5
:100C000008B1042010BD04480021012201730270C4
:100C1000C163084610BD000000000020042810D069
:100C200003280ED068B1FC280BD0F82809D0F4288E
:100C300007D0F02805D0EC2803D0E22801D0D8282E
:100C400003D1032903D0042901D0042070470020D8
:100C50007047000006490978012901D90020704732
:100C600003490246491C01F11B00FFF7A7BF000022
:100C70000000002070B5C4B214F0300F01D044F071
:100C8000C004074D2878012804D8697A2046FFF768
:100C9000C5FF08B1002070BD0120AC6170BD00002F
:100CA0000000002010B500F017F808480124046087
:100CB0000649002008310860091D086004480461E5
:100CC00000F0A2FE0348047010BD000008F50140CA
:100CD0000090004000000020704700002DE9F05F08
:100CE000DFF85CB1544E554C564F4FF0010940F2BD
:100CF000E24A00250BF104082078042809D1D6F82F
:100D00000401012805D1C6F80451A07A08B1C7F83A
:100D10001090D6F80C0130B3C6F80C510120FFF743
:100D200099FC207804282DD14846C6F80490A17A71
:100D300051B1CBF800A03F22C8F80020F860C7F8F6
:100D40004051C7F8445138603F480068012805D138
:100D5000FFF786FE10B1E089401CE0814FF48171FD
:100D60003A48FFF79AFA207804280BD1D6F8000108
:100D7000012807D1C6F80051A07A18B1C7F80C9025
:100D8000C7F80090E069D0F8401111B1C0F84051A7
:100D90000EE0D0F8440158B1E069C0F8445194F92C
:100DA0000100FFF757FC6069401C6061BDE8F09FDF
:100DB000D7F84001012826D1FFF784FCE17A19B168
:100DC0005F2811D900200DE02149002209688BB26B
:100DD000090C0F2B02D9022900D201225F2800D36F
:100DE00012B1012000F074FEFFF764FCCBF800A004
:100DF000C7F80490C7F80C90C7F84051C7F80090A6
:100E00000920FFF727FCD7F8440100283FF474AF0E
:100E1000FFF758FC5F2801D3002000E0012000F01C
:100E200057FEFFF747FCC8F80050C7F844510920A7
:100E3000FFF710FC60E700000010004000000020F9
:100E400040950040009000400014004080020020C7
:100E500074150040826883881A4003689A5C0A709F
:100E60008168491C81607047C26883881A400368A2
:100E70009954C168491CC1607047000070B50D46A7
:100E8000044600684FF4887100F069F94FF49071DE
:100E9000206800F064F94FF49271206800F05FF967
:100EA0004FF4A271206800F05AF94FF4AC71206839
:100EB00000F055F920681249C0F80413206869074A
:100EC00040F30730090E002804DB00F1E02080F831
:100ED000001405E000F00F0000F1E02080F8141D80
:100EE000206840F30730002809DB00F01F020121D1
:100EF00091404009800000F1E020C0F8001170BD71
:100F000010034200F0B500258DB02F462C4601207D
:100F1000FFF76AFD1822254906A8FFF7A5F924481E
:100F2000029024494FF48070CDE903010590072316
:100F3000214A02A906A8FFF73DFC08B1FFF7ECFB28
:100F4000FFF758FE18B10DB04FF0FF30F0BDFFF7BE
:100F5000C5FE06466846FFF713FC0028F7D147B1E7
:100F600005F11500864206D99DF8000035460402B9
:100F7000EDE70127F8E79DF800000027044320462D
:100F8000FFF7A6FD01A8FFF70FFE0028DFD00198AC
:100F9000C0F30720FFF760FC0028F8D10198C0B229
:100FA000FFF75AFC0028F9D1D1E700001C2000000F
:100FB0008000002080010020C51C0000F0B505461F
:100FC0000478154889B0164640F82420124A08696A
:100FD000121DA2F1080742F82400487F385520224C
:100FE0006846FFF741F904942878385C48B10EB19F
:100FF0000A4A00E000226946281D00F02BFA09B0D9
:10100000F0BD0EB1064A00E00022694605F10C0071
:1010100000F0D4F8F3E700004C000020D91E0000D7
:101020007D1D000030B40378054CE35C1BB130BC7F
:10103000001D00F045BA30BC0C3000F029B90000AA
:101040004800002030B40378054CE35C1BB130BC91
:10105000001D00F0B7BA30BC0C3000F08FB90000B2
:101060004800002070B541EA4201DDE904564FF026
:10107000A04441EA830141EA052104EB800041EAF2
:101080000641C0F8001770BD70B541EA4201DDE9C4
:1010900004564FF0A04441EA830141EA052104EBE4
:1010A000800041EA0641C0F8001770BD70B541EA02
:1010B0004201DDE904564FF0A04441EA830141EAD0
:1010C000052104EB800041EA0641C0F8001770BD1D
:1010D0001CB500220B46009211460192FFF7D4FF87
:1010E0001CBD1CB500220B46009211460192FFF771
:1010F000DDFF1CBD1CB5002100910B4601220191B2
:101100001146FFF7C1FF1CBD1CB5002100910B4625
:10111000012201911146FFF7C9FF1CBD01224FF0CA
:10112000A043824011B1C3F808257047C3F80C25CD
:1011300070474058002800D00120704708B50022B1
:1011400042504058009008BDD0F80403084000D039
:10115000012070474058002800D00120704708B592
:10116000002242504058009008BD0121B1EB507F51
:1011700001D1012070470020704770B50D4600F086
:1011800095FB04000FD00020FFF790FB207920B1E1
:101190000020FFF78DFB112070BD0120256020711C
:1011A0000020FFF785FB002070BD000001490248C8
:1011B00000F0FCBD84030020002000402DE9F04138
:1011C0000546007916460F4600EB40012D4A01EB1B
:1011D000C00102EB810494F82A1011B10820BDE887
:1011E000F081294951F820102868FFF7C6FF08B19F
:1011F0001120F4E739462846FFF76EFB6660386930
:10120000206030004FF001062FD03F7F4FF48E71E9
:101210002868FFF793FF4FF4A2712868FFF78EFF4D
:1012200028681A49C0F8041328684FEA471140F3A8
:101230000730002804DB00F1E02080F8001405E00E
:1012400000F00F0000F1E02080F8141D286840F342
:101250000730002809DB00F01F0106FA01F1400900
:10126000800000F1E020C0F8001128680421C0F8D7
:1012700000150020A061E06184F8290044F8140FF3
:10128000A675ACE784030020642100008000020002
:101290002DE9F05F054600794FF4017600EB40033D
:1012A00003EBC000344B03EB80040020636813B1F0
:1012B0002B68C3F80863A3694FF000096BB1E069BC
:1012C00038B1606810B12868C0F804631120BDE827
:1012D000F09FE2610120216105E0C4F82490A26141
:1012E000E160C4F81C9094F82910014302D128460B
:1012F00000F0DDFB60680028286803D0C0F80463B4
:101300000020E4E74FF4A2763146FFF717FFB2461C
:101310004FF4927B59462868FFF70BFF06464FF4BF
:1013200084712868FFF705FF804651462868FFF75B
:1013300000FF074648EA07003043EBD056EA0700B3
:1013400007D12146286800F083FBA169606A8142C9
:10135000E0D8C4F818900EB10320B8E70FB10F2001
:10136000B5E794F8291001200029296801D0086008
:10137000C6E74860C4E70000840300202DE9F05F61
:10138000054600790B4600EB400101EBC000244903
:1013900001EB8004284600F045F810B11120BDE8AB
:1013A000F09F62614FF00009C4F82090A36084F8B8
:1013B00028904FF48E784E4641462868FFF7BEFECF
:1013C00028684FF0010AC0F808A02146286800F0FC
:1013D0004FFC606808BBD5F800B067690FE000BF3C
:1013E00094F8280008B10F2615E041465846FFF74B
:1013F000A0FE0028F4D02146584600F039FC206AAF
:10140000B842F2D3574641462868FFF792FE0028BB
:10141000F9D02868C760C4F814903046BFE70000D0
:1014200084030020007900EB400101EBC000044977
:1014300001EB80004069002800D0012070470000C7
:10144000840300200149024800F05EBDB003002083
:10145000002000402DE9F0410546164600790F4670
:10146000154A00EBC00102EB810494F8201011B181
:101470000820BDE8F081114951F820102868FFF7D5
:101480007CFE08B11120F4E739462846FFF768FAD8
:101490006660386920601EB1397F2846FFF7EEFC90
:1014A00028680821C0F800150020A061E061606193
:1014B000012184F82010DCE7B0030020682100003F
:1014C0002DE9F05F044600790E4600EBC001DFF81D
:1014D000F0A017460AEB81053046FFF746FEB0B193
:1014E00068684FF000084FF4047910B12168C1F822
:1014F0000893A8694FF0000B80B1E86948B16868AB
:1015000010B12068C0F804931120BDE8F09F1020AE
:10151000FBE7EF614FF001082E6102E0EE60C5E9E4
:10152000067B00254FF488712068FFF718FE4FF402
:10153000A2712068FFF713FE2068C0F83465C0F878
:1015400038752068B8F1000F12D0D0F8001241F0C1
:101550002001C0F800122079D04600EBC0010AEB50
:101560008100406838B12068C0F804932846CCE771
:1015700001210160EFE74FF4887A4FF4A2795146D8
:101580002068FFF7E7FD074649462068FFF7E2FDC0
:1015900006464FF492712068FFF7DCFD014647EAEA
:1015A00006000843EBD0227902EBC20308EB83026A
:1015B000C2F818B001B10325002ED7D00F25D5E70A
:1015C000B00300202DE9F04704460E460079274974
:1015D00000EBC00001EB800517463046FFF7C5FD64
:1015E00030B1204600F044F820B11120BDE8F0876A
:1015F0001020FBE76F61AE604FF490774FF000086A
:1016000039462068FFF7ABFD4FF4AC7631462068D1
:10161000FFF7A5FD2068AA686969C0F84425C0F8ED
:10162000481520684FF00109C0F808906868D0B9E3
:10163000BA4651462068FFF78DFD074631462068BF
:10164000FFF788FD0743F4D010B14FF00F0808E012
:101650002068C0F80C9031462068FFF77BFD002819
:10166000F9D0002068614046C0E70000B0030020C8
:101670000079054900EBC00001EB800040690028BB
:1016800000D0012070470000B003002070B50C4668
:101690000546FFF707FB0422012123480A2D38D213
:1016A000DFE805F0050D161B1E233F3F3F3A032CD4
:1016B0002FD800210322C1634272417127E00F2C11
:1016C00027D80CB1012100E000210901C1631EE00F
:1016D0002046BDE8704000F0BFB8032C19D816E0D2
:1016E000032C16D80621018211E04FF4FF72032C5F
:1016F00007D9251F40F64803032D07D92D1F032DB9
:1017000001D8028203E00C3C032C02D803820020A3
:1017100070BD0182042070BD60B2BDE8704000F071
:101720004FBA0182104670BD000000202DE9F04143
:10173000444C0A462146D4F840C0C96B0125BCF18F
:10174000FF0F05D0FF2903D925820320BDE8F081D2
:101750003D4B3E4E02275970BCF1020F1AD006DCF9
:10176000BCF1000F0AD0BCF1010F3FD10EE0BCF17B
:10177000030F1FD0BCF1FF0F38D120E000201870FC
:101780000A46981C3249FEF76FFD08E0981C1D7050
:101790000F2202E01F70981C5522FEF777FD0020F3
:1017A00000F0EAF8607A0021E26B042828D00328D0
:1017B00028D028E004201870981CFF22EDE730B1F3
:1017C000012804D002280DD0032817D111E00020F1
:1017D00000F0D2F8FFF7E0F9C6F8005235600320B8
:1017E00020700BE01046FFF745FA05E02582042043
:1017F000ACE71046FFF72EFA0028F7D00020A5E747
:10180000582100E0502101EBC201042800D1490811
:101810000020F93140F27122401C42439142F9D834
:1018200040F271214843E169C1F84005094801F5DA
:10183000A0710160001D066006480C380560277025
:10184000DCE70000000000208002002000100040C3
:101850003C20000010F501402DE9F041011F002659
:10186000104F114C0125032903D8032060726671C3
:1018700006E0A0F1080103290BD80420607265710D
:10188000002000F025F93D61A672BDE8F04100F0AE
:1018900019B8A0F10C01032900D9103825820420C1
:1018A000BDE8F0810090004000000020034988421C
:1018B00001D103487047002070470000002000401D
:1018C0005400002070B52A4C617AA069FFF7A6F990
:1018D000012510B12582042070BD00F095F825493E
:1018E000A06908602348617A001D01602148183012
:1018F000026822F0FF0202600368E26A43EA1263B0
:10190000036010021B4A103210601A482430056030
:10191000184A002020321060207AA27940EA022082
:10192000144A28321060032901D004290CD12079EF
:10193000E178000440EA0120A1780843617940EA97
:1019400001600C490831086094F8280094F82410CC
:10195000400640EA0160218C40EA0140E17940EA1A
:101960000120044940F0FF000C310860002070BDE8
:10197000000000200C1500402DE9F0410746FFF75C
:10198000ABF91C481C4A016B1160121D416B1160C0
:10199000416C022202EB4101174A303A1160121FDA
:1019A00016491160164C0025C4F800510126C4F8F0
:1019B0000062D4F8001241F00201C4F800124FB1E5
:1019C000807A10B1012000F083F8C4F80C516660F1
:1019D000BDE8F081084A017E2C3A1160807A002827
:1019E000F6D00848C6604660C0F84051C0F844517F
:1019F000EEE70000000000203815004080020020C3
:101A000000100040009000400D49032008600D497F
:101A10000020C1F80002C1F810010122C1F8102015
:101A2000D1F81021002AFBD0C1F8100148600860ED
:101A30000549C8810548016821F47021016070479B
:101A400008F501400010004000000020141500407F
:101A500070B5054688690C4600284FF48471284605
:101A60000AD0FFF76BFBD5F81805626AE168885465
:101A7000606A401C606270BDFFF760FBD5F8180516
:101A800070BD1FB501238DF80030CDE90121D0E9EB
:101A90000012684690471FBD1FB501238DF8003026
:101AA000CDE90121D0E90012684690471FBD10B56D
:101AB000044600684FF49271FFF740FB4FF48471C5
:101AC0002068FFF73BFB20680121016010BD00008A
:101AD0000F4910B50E4A403180B113680D4C2340B8
:101AE00043F07D0343F0004313600A68094B8F33D2
:101AF0001A4042F0600242F0004204E0064B1360DC
:101B00000A6822F000420A600449C87210BD000051
:101B10003C17004000FFFF7F3430004000000020F1
:101B200010B54FF080410020C1F8000101220A6089
:101B3000D1F80031002BFBD01E4BD9694A60CA6036
:101B4000C1F80405C1F84001C1F84401C1F84801D9
:101B5000C1F84C014FF48034C1F80443C1F80022AD
:101B60000424C1F810459C6BC1F840454FF48274C1
:101B7000C1F844450A60104958614A60CA600F4A7A
:101B80001060C1F84001C1F84401C1F84801C1F832
:101B90004C010A4A40F2E2413C321160111D0860DA
:101BA0000920FEF757FD054907200C310860002089
:101BB00010BD00000000002000900040049500408F
:101BC00070B5D82228494FF46C747E2813D00423B2
:101BD0004FF481657F2811D000F17F06942E18D331
:101BE0008A690123D0B203EB40000882D82A08D0CA
:101BF000042A09D00BE08A610C8232E08B610D82ED
:101C00002FE040F4007001E040F48060088204207E
:101C100070BD10F1280FEEDD0428EFDA134C01221D
:101C200014F822305BB2834214DD54F822506BB2B8
:101C30001B1A00D55B4204EB82025BB252F8042C03
:101C400054B2201A00D54042984201DD8D6105E072
:101C50008A6103E0521CD2B20A2AE1D3087E400016
:101C60000882002070BD0000000000203C21000020
:101C700070B50C4605464FF48E71FFF75FFA216A86
:101C8000A068415C206A401C2062C5F81C1570BD2C
:101C90001FB500228DF800200291816801914261F8
:101CA000D0E90012684690471FBD1FB500228DF88D
:101CB00000200291816801914261D0E900126846DA
:101CC00090471FBD0178022901D0012902D1406847
:101CD000FEF722BD704700007CB50178254DA1B309
:101CE00001290BD002291DD18DF80010C068691C94
:101CF00001900122C81DFFF795F930E0017A59B132
:101D0000406801781C48FEF72DFD1B4C012650B1A0
:101D10008DF8006001900DE016490122491CC81D94
:101D2000FFF780F97CBDA068E168814205D0002002
:101D30008DF80000696868468847A068E168081A5D
:101D4000A1888842E8D9AE707CBDFFE70A480949FE
:101D50001030FEF7ECFC30B103208DF8000069680C
:101D600068468847F0E70349012201F10800FFF7C0
:101D700069F9E9E75C000020D40300201FB50A469A
:101D800001788DF8001041680191017A8DF80810F2
:101D9000C0680390044850F82210001F50F8222019
:101DA000684690471FBD0000500000202DE9FF4706
:101DB0000C4605464FF40071FFF7C6F901274FF4B2
:101DC0000178002618B34FF4927949462846FFF768
:101DD000B0F9E0B149462846FFF7B0F9C5F80883E5
:101DE00094F8290000B96F6002208DF80000D5F842
:101DF0008004C5F880040390A0690290E068019017
:101E0000A661E661D4E900126846904728E0042103
:101E10002846FFF799F918B34FF484712846FFF765
:101E200088F9E8B121462846FFF712FE616AA069E9
:101E3000884215D1E06938B1E268616AA061206921
:101E4000E6616662E06008E094F8290000B96F601E
:101E5000C5F80883A661E268616A2046FFF711FEB3
:101E60004FF48E7841462846FFF763F980B16069E8
:101E7000216A814202D294F8280028B341462846BC
:101E8000FFF75CF9606918B161692046FFF700FF50
:101E90004FF4A27841462846FFF74BF9002818D0A6
:101EA00041462846FFF74AF994F8290000B12F600F
:101EB000A06900280DD0A661E268616A04B02046DE
:101EC000BDE8F047FFF7DDBD21462846FFF7D0FE0D
:101ED000DEE7BDE8FF8700001FB50A4601788DF8F0
:101EE000001041680191017A8DF80810C0680390D4
:101EF000044850F82210001F50F8222068469047EE
:101F00001FBD0000500000202DE9FF410C464FF49A
:101F1000927705463946FFF71DF90026B8B13946D4
:101F20002846FFF71CF902208DF80000D5F8800440
:101F3000C5F880040390D5F83C050290E068019054
:101F4000A661E661D4E900126846904723E04FF4A9
:101F5000887739462846FFF7FDF8E0B1394628462C
:101F6000FFF7FDF8D5F83C15A069884213D1E06968
:101F700060B1E268D5F8000220F02000C5F8000248
:101F8000E069A0612069E661E06001E0A661E268C5
:101F90002046FFF781FD4FF4A27739462846FFF728
:101FA000D9F868B139462846FFF7D9F8A06938B1A1
:101FB000A661E661D5F83C152046E268FFF76CFDA6
:101FC0004FF4907631462846FFF7C4F860B13146A9
:101FD0002846FFF7C4F80120E860606920B1D5F811
:101FE0004C152046FFF761FE4FF4AC76314628468B
:101FF000FFF7B0F800280ED031462846FFF7AFF8BB
:102000006069002807D0D5F84C1504B02046BDE81B
:10201000F041FFF74ABEBDE8FF8100000800000064
:10202000060000000500000007000000000000009E
:1020300000A04E00111213140D0E0F10FFC1FBE88B
:102040004C90728BE7B3518963AB232302841872DF
:10205000AA612F3B51A8E53749FBC9CA0C18532C7C
:10206000FD45E39AE6F15DB0B61BB4BE2A50EAE93D
:102070000E9C4B5E5724CCA1B759B887FFE07D7406
:102080002648B9C5F3D9A8C4B1D5911101420C397C
:10209000D5B0979D28D4F29BA4FD6465068C299643
:1020A000FEA2714DF3F82E58DB0D5A5F1528F5741A
:1020B00007CE25AF2B12E6D0DB2CDCC37FF03E3AF7
:1020C00013A4DCE2F96C54E2D8EAC8880021869CAB
:1020D0006AD8CB4E146AF94DD27EB23203C6144B85
:1020E0007FD1B8A6797C17ACED06ADAF0A947ABA69
:1020F00003E792D7150973E86D16EEE13F781F9D4F
:1021000009526EF17C362A716C7564448010434E1E
:1021100035EC65270AB5FC26693F599901638AA504
:10212000BF685CD33CBE0BD67683D657054A3DDDEF
:102130008173C9EB8A8439F4360BF700D8000000AC
:10214000E2000000EC000000F0000000F4000000DD
:10215000F8000000FC000000000000000300000088
:1021600004000000AD11000045140000FFFFFFFF58
:10217000FFFFFFFFFFFFFFFFFFFFFFFF000000006B
:10218000000000000000D60106010000AC210000A4
:102190000000002080000000940600002C220000B7
:1021A00080000020780B0000A40600000008080151
:1021B0000000010003030000000000000000000018
:1021C000000000000000000000800040030000004C
:1021D0000000000000000000294176715B0600004D
:1021E00055555500C4090000000000000000000023
:1021F00000000000000000000000000000000000DF
:1022000000000000000000000000000000000000CE
:1022100000000000002000400000000000200040FE
:0C22200000000000000000000090D0034F
:0400000500000201F4
:00000001FF
