:020000040002F8
:10700000888C0020C1730200C9730200CB73020098
:10701000CD730200CF730200D173020000000000A4
:10702000000000000000000000000000D373020018
:10703000D573020000000000D7730200D97302006C
:10704000F9DE0200DB73020061E10200DB73020083
:10705000DB730200DB73020055DE0200DB7302000B
:10706000DB730200DB730200DB730200DB730200E0
:10707000DB73020051DF0200DB730200DB730200EE
:10708000DB73020079DF0200DB730200DB730200B6
:10709000DB730200DB73020089DF0200DB73020096
:1070A000DB730200DB730200DB730200DB730200A0
:1070B000DB730200DB730200000000000000000030
:1070C000DB730200DB730200DB730200DB73020080
:1070D000DB730200DB730200DB730200DB73020070
:1070E000DB730200DB7302009975020000000000F0
:1070F00000000000DB73020000000000DB730200F0
:10710000000000000000000000000000000000007F
:10711000000000000000000000000000000000006F
:10712000000000000000000000000000000000005F
:10713000000000000000000000000000000000004F
:10714000000000000000000000000000000000003F
:10715000000000000000000000000000000000002F
:10716000000000000000000000000000000000001F
:10717000000000000000000000000000000000000F
:1071800000000000000000000000000000000000FF
:1071900000000000000000000000000000000000EF
:1071A00000000000000000000000000000000000DF
:1071B00000000000000000000000000000000000CF
:1071C00000000000000000000000000000000000BF
:1071D00000000000000000000000000000000000AF
:1071E000000000000000000000000000000000009F
:1071F000000000000000000000000000000000008F
:10720000DFF80CD000F08AF900480047A12C0300F9
:10721000888C002030B450E8012F93B2C4892344F5
:107220008489A34228BF1B1B0489A34202BFBFF36A
:107230002F8F002007E0C3EA020340E80134002C4E
:10724000E9D14FF001000A6030BC704750E8012FCF
:10725000C2EA024240E801210029F7D1704730B468
:1072600050E8022F1FFAA2F3C488A34202BFBFF363
:107270002F8F00200DE0C48923448489A34228BFB6
:107280001B1BC2EA034340E80234002CE8D14FF054
:1072900001000A6030BC704750E8022FC2EA224267
:1072A00040E802210029F7D17047034653E8022F36
:1072B000D988B2EB324F4FF0000017BF92B241EACB
:1072C000014142EA014104E05A68B2EB324F08BF83
:1072D000012043E80212002AE8D1704730B4044686
:1072E00054E8000F0D4644E80053002BF8D1156018
:1072F00030BC704730B4044654E8000F40EA010542
:1073000044E80053002BF7D1156030BC704730B40F
:10731000044654E8000F00EA010544E80053002B3E
:10732000F7D1156030BC704730B4044654E8000F04
:1073300080EA010544E80053002BF7D1156030BC0A
:10734000704730B4044654E8000F00EB010544E8F0
:107350000053002BF7D1156030BC704730B40446A1
:1073600054E8000FA0EB010544E80053002BF7D1CF
:10737000156030BC704770B404464FF0000054E80C
:10738000006F0D68AE4207BF44E80023012044E8C7
:1073900000630E60002B1CBF0020F0E770BC70473C
:1073A00030B4044654E8000F88422CBF451A054605
:1073B00044E80053002BF5D1156030BC7047000045
:1073C0000648804706480047FEE7FEE7FEE7FEE77F
:1073D000FEE7FEE7FEE7FEE7FEE7FEE78DDF0200E1
:1073E000017202002DE9F05F0546002092469B469F
:1073F00088460646814640241BE0284641464746CB
:10740000224600F07AF853465A46C01A914110D3EA
:1074100011461846224600F016F82D1A67EB0108AF
:107420004F4622460120002100F00DF817EB00091D
:107430004E41201EA4F10104DFDC484631462A46B5
:107440004346BDE8F09F202A04DB203A00FA02F10F
:10745000002070479140C2F1200320FA03F3194342
:107460009040704700487047E0AB030010B5441AE5
:107470000346944209D28418114403E011F8013DF7
:1074800004F8013D521EF9D210BD40EA0104A407E0
:1074900003D009E010C9121F10C3042AFAD203E076
:1074A00011F8014B03F8014B521EF9D210BDD2B2B4
:1074B00001E000F8012B491EFBD270470022F6E7DD
:1074C00010B513460A4604461946FFF7F0FF20465A
:1074D00010BD421C10F8011B0029FBD1801A704717
:1074E00030B504460020034600E05B1C934203D203
:1074F000E05CCD5C401BF8D030BD202A04DB203A94
:1075000021FA02F00021704721FA02F3D040C2F1C3
:10751000200291400843194670470000064C074D71
:1075200006E0E06840F0010394E807009847103453
:10753000AC42F6D3FFF768FEF0EF030010F0030053
:1075400070B58C1810F8015B15F0070301D110F825
:10755000013B2A1106D110F8012B03E010F8016B52
:1075600001F8016B5B1EF9D12B0705D40023521ED5
:107570000DD401F8013BFAE710F8013BCB1A921C3D
:1075800003E013F8015B01F8015B521EF9D5A1423B
:10759000D8D3002070BD00000B490C4B0C4A4FF0B3
:1075A000FF3008601B68BFF35B8F52E8001F42E8A2
:1075B00000300028F9D1BFF35B8F9942F3D1BFF3BC
:1075C0005F8F044A1360704704BA025000BA025039
:1075D000806C002008BA02509942F0B50DD801EB3A
:1075E00003044FEA540467D3002C7DD04FF0000C05
:1075F000171F2146051F624632E003F1804C0CF153
:10760000FF3C051F002600EB8C0C05EB810E344679
:107610005CF8047FE64546EA0706F9D116F1FF3724
:1076200044F1FF3C6FEA0C0C99420CF0010C3ED285
:1076300001F1804E0EF1FF3E171F02EB8E0507EBA6
:10764000830355F8042FAB4246EA0206F9D116F13E
:10765000FF3644F1FF32D24302F0010291B3051F1D
:10766000002305EB810E28463C46194650F8046F6E
:1076700054F8045FAE4218BF002103F0010318BFA5
:10768000002388BF41F0010138BF43F00103864564
:10769000ECD1A9B182F00100BCF1000F00D108408B
:1076A0008CF0010402B91C4000EB4400F0BDC3B1F2
:1076B000171F19460022D3E700263446B446B7E721
:1076C000002BE7D1BCF1000F03D132B16046144664
:1076D000EAE782F001000023E2E710461346144671
:1076E000E1E760461C46DEE720462346DBE700BFB5
:1076F000F0B4441831B114F8015D4E1E15B931468D
:107700000029F8D1D41833B114F8015D5E1E45B9D3
:107710003346002BF8D10D1E18BF01252846F0BCBA
:1077200070478B4222D325D84C1EA64228BF26463E
:10773000002E23DB013694190025821904E0012D67
:1077400038BF012590420BD012F8016D14F8017D6D
:10775000B742F4D3F6D9002D08BF02259042F3D1E9
:107760008B4218BF00252846F0BC704701252846EB
:10777000F0BC704702252846F0BC70470025EFE7B3
:1077800088420CD030B413466FF04045033305EB0C
:107790009303002540F8235030BC05F09FBD70478F
:1077A000814202D0920005F099BD704730B40AB30F
:1077B00000B3DBB113F0030518D18B4216D3A9B186
:1077C000904208D002D91344984217D3904202D273
:1077D00043189A4212D91144431E11F8014D03F87F
:1077E000014F8A42F9D1284630BC7047044D2846E3
:1077F00030BC7047034D284630BC7047024DF6E759
:10780000050DF000040DF000060DF000002A48D030
:107810002DE9F0410446002845D015465A1E053290
:1078200034D811F0030631D18B422FD8CF1C27F06A
:1078300003028A4232D8A2EB030840441A46294682
:1078400005F04CFD414620464FEA970805F04AFDF9
:10785000B8F1010F1DD0FF0804EB87000438231F87
:1078600004EB880553F8042F55F8041D12BA09BA21
:10787000834219602A60F5D118F0010007D054F84E
:1078800027301BBA44F82730002000E00748BDE845
:10789000F08123681BBA30462360F8E70448BDE84E
:1078A000F081044870470348F1E700BF050DF00080
:1078B000090DF000040DF0004218084630B112F82E
:1078C000013D411E1BB908460028F8D170471A0631
:1078D0004FEAC00018D4590600F1FF3215D49906BA
:1078E000A0F1020211D4D906A0F103020DD41907A8
:1078F000A0F1040209D45907A0F1050205D49B07A1
:10790000A0F1060201D4073870471046704700BF47
:10791000A1B100EB810001E001390FD050F8043D26
:10792000002BF9D04801A0F1200202E0013890427A
:1079300006D0002B4FEA4303F8DA70470846704739
:10794000704700BF3AB10A44013812F8013D00F80F
:10795000013F8A42F9D10020704700BF2DE9F04174
:10796000002940D016461F460A682B4B9A420C4607
:1079700031D1054600283AD00268013B9A422ED107
:10798000002E45D0002F45D0069BB3B300F19401E3
:107990004FF4377204F1500005F086FC0435211DC8
:1079A00068BBD4F808333A680733B2EBD30F4FEA19
:1079B000D3081ED3069B2846324601F0E1FD04465B
:1079C000F8B9C7F8008006984FF4537105F08AFCA7
:1079D0002046BDE8F081114C2046BDE8F081104CF6
:1079E0002046BDE8F0810F4C2046BDE8F0810E4CEA
:1079F000F2E70E4CC7F80080EEE70D4CECE70D4CBB
:107A0000EAE73968304605F06DFC00233B60DAE7B1
:107A1000094CE1E7094CDFE7020000EC3408F00014
:107A20003208F0003308F0003108F0003808F000A8
:107A30003708F0003A08F0003508F0003608F0008A
:107A40002DE9F04F83B060B30C4651B3174642B3F3
:107A50001E4633B30E9B23B30C9B13B30D9B002B1D
:107A600037D0054601F0CEF92168426AB1EBC20F6A
:107A700081464FEA820A4FEAC20B2DD33268524543
:107A80002AD3DDE90C030E9A1FFA8AF19847804643
:107A900068B10E98514605F025FC404603B0BDE89C
:107AA000F08FDFF84080404603B0BDE8F08F0E9BBA
:107AB00003F1200200924B460E9A2946384601F007
:107AC000A5F980460028E4D1C4F800B0C6F800A0AB
:107AD000DFE7DFF81480E0E7DFF81080404603B00E
:107AE000BDE8F08F0023F0000523F0000123F00033
:107AF000F0B583B0099F98B116468AB11C467BB198
:107B0000089B6BB167B10A9B53B123683F2B04D923
:107B10003B681F2B01D9202905D00C4803B0F0BDCC
:107B20000B4803B0F0BD054601F06CF90A9A0092CB
:107B300003462A460898314601F068F90028EDD13D
:107B40004022202322603B60E8E700BF0123F000D1
:107B50000023F0002DE9F04782B0002A37D01E46FE
:107B6000002B34D0804690B30F4681B30A9B73B389
:107B70000C9B63B30B9B002B43D0144601F0A8FA77
:107B80003268D0F88C30B2EB830F4FEA830A3AD3D5
:107B90003B68534537D3436A0A981FFA8AF1224655
:107BA0004FEA83090B9B98470546A8B10C984FF400
:107BB000B07105F097FB4946404605F093FB20461F
:107BC000514605F08FFB284602B0BDE8F087104D06
:107BD000284602B0BDE8F0870C9BC7F800903946F4
:107BE000009322465346404600F0A6F8054600287A
:107BF000DCD10C98C6F800A04FF4B07105F072FB10
:107C0000E6E7044DE4E7044D284602B0BDE8F087FE
:107C10003023F0000523F0003123F0002DE9F04F70
:107C200085B0109F08B30C46F9B11646EAB19A46E2
:107C30000E9BD3B1CFB1054601F04AFA2268436AE0
:107C4000B2EB830F80464FEA830909D30F9B994516
:107C500006D1D0F88C30BAEB830F4FEA830209D0FB
:107C6000324B184605B0BDE8F08F314B184605B0D1
:107C7000BDE8F08F131F07F1400A314638460093E4
:107C8000FFF77EFD0E994A465046FFF779FD009AB0
:107C90003968BB58CDE9011323F0404343F08043DA
:107CA000BB503B6807F1200B23F007033B605246B3
:107CB00058464346394601F027FC0390002832D14C
:107CC000009A0198029B3860BB505946D8F824208E
:107CD0002846FFF765FD039BC4F80090BE4205D01F
:107CE00049463846009305F0FDFA009B5D4505D0F6
:107CF00058464946009305F0F5FA009B0E9A524506
:107D000005D049465046009305F0ECFA009B0093DD
:107D100007F160004FF4807105F0E4FA009B18460B
:107D200005B0BDE8F08F034BD8E700BF3123F0006A
:107D30003023F0003423F0002DE9F04F85B00E9F82
:107D4000002854D00C46002951D01646002A4ED0A7
:107D5000002F4CD09A46054601F0BAF92268416AD4
:107D6000D0F88C30B2EB810F80464FEA81094FEAA0
:107D7000830337D39A4535D1AAF1040B52463146D5
:107D80003846FFF7FDFC57F80B303A68CDE9012380
:107D900023F0404343F0804347F80B303B6807F142
:107DA000200A23F007033B605046434608F12802AF
:107DB000394601F0A9FB0390F0B1174BBE4205D044
:107DC00038464946019305F08DFA019B55450AD086
:107DD00050464946019305F085FA019B184605B0C7
:107DE000BDE8F08F0D4B184605B0BDE8F08F0C4B89
:107DF000184605B0BDE8F08F0199029B396047F83D
:107E00000B305146D8F824202846FFF7C9FC039BC5
:107E1000C4F80090D2E700BF3423F0003123F00013
:107E20003023F0002DE9F04383B0002955D01D46E2
:107E3000002B57D00446002856D0D0F8B832B3F5FE
:107E4000107F28D81646D0F8BC2201339A4222D897
:107E500007324FEAD2081EB3464521D805F104097E
:107E60000A46484633464C21FFF7D0FC074650BB34
:107E7000F11C46454FEA910117D04846FFF748FDEF
:107E800008B321464FF4377205F1500005F024FA8B
:107E9000164B2B6000E0164F384603B0BDE8F08368
:107EA000144F384603B0BDE8F083D4F8BC320191DA
:107EB0001F33C3F34F1304F1D8024846FFF78CFB7E
:107EC00002280199D9D028464FF44C7105F00AFADE
:107ED000094F384603B0BDE8F083084F384603B079
:107EE000BDE8F083064FD7E7064FD5E7020000EC68
:107EF0009508F0000B08F0000C08F0000908F000ED
:107F00000A08F0000208F000F0B10B46F1B110B51C
:107F10000F4904688C4211D192B1D0F80C4311681A
:107F20000734B1EBD40F0DD3021D18464C23FFF7D5
:107F30003DFC084B002818BF184610BD064810BD70
:107F4000064810BD064810BD0648704706487047F1
:107F5000020000ECC508F000C208F000C308F00001
:107F6000C408F000C008F000C108F0002DE9F0439B
:107F700083B0019300283DD01646002A67D00268DE
:107F80001F46354B9A4204461BD18FB3052914D0A6
:107F9000072912D8D0F84C33C56C21F0020203F146
:107FA0000709042A03F11F034FEAD9094FEA5313C3
:107FB00005F0010522D0022907D0284803B0BDE80A
:107FC000F083274803B0BDE8F0833A6809F101085F
:107FD00042453ED3304645F0020500F8015B9B0068
:107FE000221D4946FFF7E2FB48BBC7F80080E5E7E2
:107FF0001C48E3E71C4803B0BDE8F0833A684FEA49
:10800000490808F10108424523D3042930460CBF32
:108010000D4645F006059B0000F8015B221D494610
:108020000193FFF7C3FB50B909F10100019B04F173
:108030004C0230444946FFF7B9FB0028D5D0304602
:10804000396805F04FF9002308483B60B6E7084857
:10805000B4E70848B2E700BF010000EC1508F000E3
:108060001A08F0001708F0001408F0001B08F000D0
:108070001608F0001808F0002DE9F04782B0DDE99D
:108080000A98002A5CD01D46002B5ED0B9F1000F83
:108090005DD0B8F1000F5CD0074600285BD08A465F
:1080A000002948D0144618464FF44C7105F01AF9CF
:1080B0004FF45D71484605F015F9D4F8BC621F36DF
:1080C0007609B200013E04F1D801404605EB860670
:1080D00005F002F9002373602B1DD4F8BC22009335
:1080E00051463846434600F013FB0646C8B12846C1
:1080F0004FF44C7105F0F6F848464FF45D7105F009
:10810000F1F80C9B23B140F66811184605F0EAF827
:1081100040464FF4537105F0E5F8304602B0BDE833
:10812000F087204643464A46294601F093FA064620
:108130000028E6D0DBE7094E304602B0BDE8F08704
:10814000074E304602B0BDE8F087064EE5E7064E22
:10815000E3E7064EE1E7064EDFE700BF9008F000D8
:108160000208F0000308F0000408F0000508F00021
:108170009108F0000B2804D8034B53F8203003B1CA
:1081800018470020704700BFFCCF0300F0B5BDB01A
:1081900004460E466846F02117461D4605F0A2F833
:1081A000042C2FD8DFE804F030351F2E0300032302
:1081B00000938023294A1793294B2A4C3994CDE9FF
:1081C0003A236846A047284CA0421BD032D828B397
:1081D000B0F5720F3BD1254C6846F02105F082F8CE
:1081E00020463DB0F0BD224C224A39940123009331
:1081F00040231793204B6846CDE93A23A0471A4CF9
:10820000A042E3D11D4CE7E7194C1A4A39940023E8
:10821000EDE7174C174A39940223E8E78FB1DEB136
:10822000019BBBB93A463146684605F017FDA042AE
:10823000E8D004D9124B984209D1124CCCE700285F
:10824000C6D12946684600F023F80446C4E74FF437
:108250007504C1E70C4CBFE70C4CBDE749CD0200EB
:10826000CD9B0200A59E02000100F2000002F0007A
:10827000519E020021CB0200499B02000102F00046
:108280000200F2000202F0000C02F0000302F00013
:1082900070B5002837D00E46002937D0026E04464C
:1082A000DAB91146012363602046D4F8E8309847D4
:1082B000B0B9D4F8EC30204698470546C0B92368D9
:1082C0002066032B1CD8144A04F1080152F823201D
:1082D000304605F001F8284670BD00F16401E1E781
:1082E000A0F57203022B13D8A0F5FF35284670BD08
:1082F000A0F57203022B0BD8A0F5FF35284670BD00
:10830000064D284670BD064D284670BD054DE2E776
:108310004FF47505DFE700BFE8C303000102F0007A
:108320000002F0000502F0002DE9F84300284FD0CC
:108330000E461446054639B1302A01D8930723D09A
:10834000264F3846BDE8F883002A45D1DFF8A080E3
:108350004FF0FF31D8F8000004F0E4FF074648BBB7
:10836000402105F1840004F0BDFFA408D8F8000006
:10837000C5F8C44004F0F0FF0028E2D0184804F02B
:1083800039FF3846BDE8F883DFF864804FF0FF31ED
:10839000D8F8000004F0C6FF074678B905F1840953
:1083A0004846402104F09EFF31464846224604F0EC
:1083B00093FFDAE70B4804F01DFFD1E7094805F108
:1083C000840904F017FF4846402104F08BFFEBE7D7
:1083D000054F3846BDE8F883044FB2E7040CF000BF
:1083E00078C3030060C30300250CF000030CF00009
:1083F000888C00202DE9F04F9DB0002800F03B81D3
:108400001646002A00F03D810D4621B98B4658469C
:108410001DB0BDE8F08FB14F04464FF0FF31386812
:1084200004F080FF002840F01981AD4BD4F8DC2027
:108430009A4216D0DFF8B8B22946304604F052FF0F
:10844000D4F8C430002B40F00D81386804F084FF6C
:108450000028DCD0A34804F0CDFE58461DB0BDE88E
:10846000F08FD4F8D430DA0740F10E81D4F8CC3054
:10847000113300F20F81D4F8D080B8F1040F05D089
:10848000B8F1080F02D0DFF86CB2D5E7D4F8C420F9
:108490000C2A00F2FC8004F14003029304F1840AE8
:1084A000002A00F0FD809200514604F1480004F0DB
:1084B00013FFD4F8C420029908F104039B00009331
:1084C00092005346204604F0DFFF83460028B3D1D4
:1084D000034622465146204605F08EF98346002881
:1084E000AAD104EB88090122D9F80C301BBA9B18D9
:1084F0001BBAC9F80C304FEA880B16D3D9F80830EC
:108500001BBA9B181BBAC9F808300ED3D9F804302F
:108510001BBA9B181BBAC9F8043006D354F828308C
:108520001BBA13441BBA44F82830002309A8194683
:10853000032204F033FD002840F0AF8001460823F9
:1085400007AA09A8CDE9074B04F080FD002840F0F8
:10855000A480494609A804F061FD002840F09D80F0
:10856000614AD4F8D4301A4200F0A2802B0915F0E9
:108570000F0B049300F0998001330493CDF80CB0F5
:108580005B469D420DD0EA1A11463046059204F032
:10859000A9FE059A3346314609A804F04DFC00288F
:1085A0007BD104F1300B10220298594604F094FE5E
:1085B0005846102104F096FE102306A90191CDF82B
:1085C00000B009A85A461946069304F073FC002827
:1085D00063D1039AA81A3044594604F07DFED4F8BA
:1085E000D430DB0509D45A460298049B314602F088
:1085F00009F8834600287FF41FAFD9F80C30049A9D
:108600001BBAD3181BBAC9F80C3017D3D9F80830E5
:1086100001221BBA9B181BBAC9F808300ED3D9F82F
:1086200004301BBA9B181BBAC9F8043006D354F89F
:1086300028301BBA13441BBA44F828305146012392
:108640002246204605F0D8F8834600287FF4F4AE91
:10865000D4F8CC300133C4F8CC30F1E6234804F030
:10866000C9FDE2E60023C4F8C43004F184004021CF
:1086700004F038FEE9E6DFF880B058461DB0BDE8EA
:10868000F08FDFF878B0C2E6DFF874B0D4E6DFF838
:1086900074B0D1E6DFF870B0CEE6DFF870B0CBE6AC
:1086A0005046402104F01EFE1BE71023039368E7A9
:1086B00004F1300318461021039304F013FE039BCA
:1086C0001022194609A804F0B7FB0028E5D1D4F818
:1086D000D43043F48033C4F8D43047E7888C00208A
:1086E000CDAB230178C303000001010060C3030088
:1086F0000E0CF000210CF000270CF000000CF00034
:10870000080CF000040CF000070CF000360CF00030
:1087100030B4029D4DB1064D941EAC4202D830BC1F
:1087200000F00CB8034830BC7047034830BC7047B9
:10873000FDFF0700310CF000300CF0002DE9F04F88
:108740002DED028B164687B007321C46D308129DCA
:108750000393002800F0BC800F46002900F0BF8082
:10876000002C54D0BDF80C1080462046FFF7A4F82A
:108770000228064640F2AA8003285DD12378032B05
:1087800040F2A480039B681C591E0123019304F04E
:10879000A9FD019B0493019B76429AB206F007065D
:1087A0004FF0FF0A4AFA06FA08EE102A5E1E4FF64C
:1087B000FF72103B5FFA8AFA2E440292059318EE7C
:1087C000101A2A464046B84700287DD133780AEA75
:1087D00003033370049B102B40D0BDF804302246B5
:1087E00019462846FEF784FF022852D0029B013B1F
:1087F0000293E4D13E4B03990193284604F072FDA5
:10880000019B184607B0BDEC028BBDE8F08F99B212
:108810002A461C46B84703460028ECD1611E700763
:108820006A5C42F080025CD16A540023184607B0AB
:10883000BDEC028BBDE8F08F039B00F10709A3EBB1
:10884000D90105EBD90004F04DFD4FEAD903B9F188
:10885000870F019388BF102304939CE7059B05EBCA
:10886000030904EB030B07E0002BB6D0B84758BB55
:1088700033780AEA03033370102319465A464846F0
:10888000FEF736FF0346022B4A464FF010014046E2
:10889000EAD1019B002BC8D0013DE918012315F84E
:1088A000012F13448D422B704FEA2323F7D1019BF4
:1088B000013C2344022214F8011F0A449C42227006
:1088C0004FEA2222F7D1B0E7034694E7094B92E73B
:1088D000094B184607B0BDEC028BBDE8F08F074B83
:1088E0008FE7764206F0070632416A5489E700BFF7
:1088F000010CF000320CF000250CF000140CF0001C
:1089000070B5002849D00D46002943D0244E0446B6
:108910004FF0FF31306804F005FD90BB002004F0FB
:108920002DFD50BB20462A46012104F0C5FE044619
:10893000012004F023FDB8B9306804F00DFD50B9F2
:10894000012004F01BFD08B9204670BD154804F055
:1089500051FC204670BD144804F04CFC012004F08A
:108960000DFD0028F0D0F1E70E4804F043FC30681C
:1089700004F0F2FC0028E3D0EDE70C4804F03AFCE8
:10898000D0E70B4804F036FC002004F0F7FC002888
:10899000C8D0F2E7074C204670BD074C204670BD9A
:1089A0008C8C002090C3030078C30300B0C3030085
:1089B00060C30300200CF000250CF00070B5002906
:1089C00050D0044600284AD0294E0D4630684FF05A
:1089D000FF3104F0A7FC002838D1002004F0CEFCC1
:1089E00058BB244BD4F8DC209A4213D1D4F8D430AD
:1089F000DB073AD520462A46002104F05DFE0446F6
:108A0000012004F0BBFC58B9306804F0A5FC78B92B
:108A1000204670BD0120184C04F0B0FC0028F3D0B3
:108A2000164804F0E7FB306804F096FC0028EFD00D
:108A3000134804F0DFFB204670BD124804F0DAFB57
:108A40000C4BD4F8DC209A42D0D0E3E70E4804F077
:108A5000D1FB002004F092FC0028C2D0EDE70B4CC3
:108A6000204670BD0A4C204670BD0A4CC8E700BFC6
:108A70008C8C0020CDAB23010E0CF00090C30300C2
:108A800078C30300B0C3030060C30300250CF000EB
:108A9000200CF000080CF00000284CD0F0B50D467A
:108AA00089B0002938D00446E42104F01BFC01A958
:108AB000204604F08FF910B1204809B0F0BD204FD6
:108AC0004FF0FF31386804F02DFC80BB002004F02B
:108AD00055FC40BB01A92A46204601F0BFFD0646D1
:108AE000012004F04BFCD0B9386804F035FC78B9AB
:108AF000002EE1D12046E42104F0F4FB2946204673
:108B0000FFF7FEFE0F4B002818BF184609B0F0BD56
:108B10000D4804F06FFBEBE70C4809B0F0BD0C48C2
:108B200004F068FBE0E70B4804F064FBD2E70A4876
:108B300004F060FBCAE70948704700BF110CF00061
:108B40008C8C0020120CF00078C30300200CF00085
:108B500090C30300B0C3030060C30300250CF00002
:108B60002DE9F04F97B0DDE920744FEA043E4EEA5C
:108B7000844E4EEA83149D4D44F0045C9C012E68A3
:108B80000096009EF607FAD5229DDFF86482974E84
:108B9000C8F800C0920142EA834242EA053545F036
:108BA00010454FEA834832680192019AD207FAD5FC
:108BB0008F4ADFF838C215604EEA811E4EF0104E23
:108BC0008E01DCF800200292029AD507F9D53D0308
:108BD00045EA8745864A854FC2F800E044EA050920
:108BE00049F004593A680392039AD207FAD5804AA9
:108BF000DFF8F8E1C2F8009044EA033C48EA0C07C9
:108C000047F004574FEA033ADEF800200492049A32
:108C1000D207F9D5764ADFF8D4E117604CEA8149EA
:108C200049F010498F04DEF800200592059AD2071A
:108C3000F9D56F4ADFF8B4E1C2F8009045F010456D
:108C400045F48075DEF800200692069AD207F9D521
:108C5000DFF89CE1674ADFF89491CEF8005042EAD1
:108C600080124FEA801ED9F800500795079DED0746
:108C7000F9D5DFF87CB1DFF884915C4DCBF80020AA
:108C800049EA00394FEA003B2A680892089AD2075D
:108C9000FAD5574DC5F80090239A574D45EA8249B9
:108CA000524A12680992099AD507F9D5504A4F4D90
:108CB000C2F800904CF0245949F400192A680A922D
:108CC0000A9AD207FAD54A4D484AC5F800904EEAAA
:108CD000030343F0484343F4821315680B950B9D3F
:108CE000ED07FAD54EEA0B05DFF804E13F4ACEF86E
:108CF000003045EA080545F0045513680C930C9BB9
:108D0000DB07FAD53A4B394A1D604CEA804040F007
:108D1000045013680D930D9BDD07FAD5344BDFF833
:108D2000E0C0324A18604AEA0C0C13680E930E9B9E
:108D3000D807FAD52E4B2D4DC3F800C047EA0137AE
:108D400046EA070C4CF004500A032B680F930F9B64
:108D5000DB07FAD5264B254D18604CF0104C2B68DC
:108D60001093109BDB07FAD5214B204DC3F800C0B0
:108D70002B681193119BDB07FAD51D4B1B4D186017
:108D8000274347F004572B681293129BDB07FAD551
:108D9000174B16481F60239B44EA080444EA033437
:108DA00044F0104403681393139BDD07FAD5104B6E
:108DB0000E481C60324342F0245242F41012036801
:108DC0001493149BDC07FAD5094B08481A600E432C
:108DD00046F0484646F4A21603681593159BDB0738
:108DE000FAD5034B1E6017B0BDE8F08FB0B002504B
:108DF00080B00250004010210041002100011021EC
:108E00004001282900487047F8C303002DE9F04FBE
:108E100087B05C6A109D16464FEA84090F464FF0F2
:108E2000000C9A4680464A4631462B46042003975A
:108E3000CDF814C0FFF7AAF9074660B104EB44046B
:108E4000A100284604F04EFA059802F0F9FC3846D5
:108E500007B0BDE8F08F2B484FF0FF3104F062FA05
:108E600000284AD1002004F089FA002841D11E23AD
:108E7000DAF82000059305AA002102F0C9FDB0BB75
:108E80002B68CDF800A023F00703A9F1040A2B609A
:108E900055F80A3023F0404343F0804305EB090BBB
:108EA00045F80A30594623462A4605EB490000F0AA
:108EB00031F807460028C1D15BF824105BF80A207E
:108EC00042EAC1723146039E4BF80A2030464A46B8
:108ED00004F002FA224659464046FEF761FC33464A
:108EE0004B444A464146184604F0F6F9A6E7064FB9
:108EF000A4E7064804F07EF9B9E7054804F07AF9DA
:108F0000B0E700BF908C00203323F00000C90300BD
:108F100020C903002DE9F04784B09A460C9C814695
:108F2000884610461946656A1646FEF7F1FCBAF106
:108F3000000F00F0BA802B4622460721074600208A
:108F400001F09AFF052304F2D4420721012001F029
:108F500093FF2B4604F5EA7207210C2001F08CFFE9
:108F60002B4604F5FA7207210D2001F085FF2B46F0
:108F700004F5057207210E2001F07EFF2B4604F553
:108F80000D7207210F2001F077FF2B4604F51572B3
:108F90000721102001F070FF2B4604F51D720721F8
:108FA000112001F069FF2B4604F5257207211220DC
:108FB00001F062FF2B4604F52D720721132001F00A
:108FC0005BFF2B4604F535720721142001F054FF96
:108FD0002B4604F53D720721152001F04DFF2B466D
:108FE00004F545720721162001F046FF2B4604F5D3
:108FF0004D720721172001F03FFF2B4604F2144267
:109000000721082001F038FF2B4604F234420721E3
:10901000092001F031FF04F254422B4607210B20B6
:1090200001F02AFF234A13680093009BDB07FAD55F
:10903000214B22491F4A196013680193019BD807ED
:10904000FAD51D4B1E491B4A196013680293029BF7
:10905000D907FAD5184B1B49164A196013680393B0
:10906000039BDB07FAD5144B174A1A60072104F259
:10907000744208462B4601F0FFFE3946304602F0A6
:1090800041FA044618B1204604B0BDE8F0874846CE
:109090002946102201F0C4FE40462946112201F063
:1090A000BFFE204604B0BDE8F087084C204604B05F
:1090B000BDE8F087B0B0025080B0025080022A476D
:1090C00080122A4F80010021806118210223F000C4
:1090D0000048704738C903002DE9F041069C0E4650
:1090E000154698462246636A01210746002001F092
:1090F000C3FE012104F1B4020846052301F0BCFEC1
:10910000636A04F194020121062001F0B5FE636A4E
:1091100042460121082001F0AFFE2946304600F00A
:109120000DF8044630B905F11F01490938460722F8
:1091300001F076FE2046BDE8F08100BF2DE9F04F3A
:10914000A7B0092304460B22184603940593069200
:109150000C2301220A250C4604210893079501F0EF
:10916000B3FD059BA14A990141EA834141F0924137
:1091700041F4043113680993099BDF07FAD59C4A2F
:109180009C4B11600699303243EA811113680A93AF
:109190000A9BDE07FAD5964B944A1960089B990101
:1091A00041EA834141F0924141F4043113680B9349
:1091B0000B9BDD07FAD58E4B8C4A196013680C9314
:1091C0000C9BD807FAD58A4B8B49884A19601368DB
:1091D0000D930D9BD907FAD5854B884A1A6014F177
:1091E0001E0248BF04F13D026FF0404303EB6213DF
:1091F000039A671E52F823300293002FC0F2398180
:10920000DFF81482794C7A4D002206AB0DF1140B75
:109210000DF1200A0DF11C0907F01F061F2E04D1C5
:109220000398791150F8211002910299009321FAC4
:1092300006F606F00106194672405846019202F001
:10924000FFFF019A5146484602F0FAFF089A009B38
:1092500048EA023122680E920E9AD207FAD52960A6
:10926000069A674941EA824122680F920F9AD00715
:10927000FAD52960079A48EA023122681092109ABA
:10928000D207FAD52960059A5E4941EA82412268EF
:109290001192119AD007FAD52960059A0798910181
:1092A00041EA804141EA023141F0045122681292C0
:1092B000129AD207FAD52960DDE9061208989201C0
:1092C00042EA814141EA003141F00451226813929F
:1092D000139AD007FAD52960089A0598910141EAB6
:1092E000003141F0104141F4002122681492149A97
:1092F000D207FAD52960079A910141EA023141F07B
:10930000104141F4402122681592159AD007FAD5F0
:10931000296022681692169AD107FAD53A4A2A602D
:10932000059A110341EA824141F0104141F0C00128
:1093300022681792179AD207FAD52960DDE907014A
:10934000069A920142EA814141EA003141F004511A
:1093500022681892189AD007FAD52960079A48EA25
:10936000023122681992199AD207FAD52960DDE9EB
:109370000720910141EA804141F0045141F48041CC
:1093800022681A921A9AD007FAD52960059A1F49BD
:1093900041EA821122681B921B9AD207FAD52960F2
:1093A00022681C921C9AD007FAD5194A2A602268B2
:1093B0001D921D9AD107FAD5164A2A60079A910183
:1093C00041EA824141EA023141F0104122681E9295
:1093D0001E9AD207FAD52960069A910141EA824184
:1093E00041EA023141F0104118E000BFB0B0025034
:1093F00080B0025000002249400100214051142158
:1094000080400021C040002180300C9000200C9052
:1094100000211429C0400C210001142922681F9248
:109420001F9AD007FAD5296022682092209AD10786
:10943000FAD52F4A2A60DDE90702910141EA00319D
:1094400041F0104141F4001122682192219AD20783
:10945000FAD52960079A274941EA821122682292A7
:10946000229AD007FAD5013F7A1C296009D03246EA
:10947000D2E6002606AB0DF1140B0DF1200A0DF11A
:109480001C0919465846324602F0DAFE3246514669
:10949000484602F0D5FE069B1749184A41EA831157
:1094A00013682393239BDC07FAD5154B134A1960E5
:1094B000DDE90630190341EA804141F0184141F0ED
:1094C000800113682493249BD807FAD50C4A0D4BCE
:1094D00011600599303243EA814113682593259B39
:1094E000DB07FAD5064B0020196027B0BDE8F08FE6
:1094F000823018C800200C9000200229B0B0025021
:1095000080B00250C02100882DE9F04184B00746A8
:109510000E460D24174803944FF0FF3190461D4628
:1095200003F000FF10BB002003F028FFD0B9286A29
:1095300003AA002102F06CFA044660B9D5F88C1039
:109540003046FEF7E5F90095024643463146384677
:10955000FFF7C2FD0446039802F072F9204604B0FA
:10956000BDE8F081044803F045FEE0E7034803F05E
:1095700041FED8E7908C002030CA030050CA030097
:109580002DE9F043D0E9D2451F3485B0640903EBDF
:10959000C40E1E4603EB84071F3500F148030093F9
:1095A000CDE9027E03460196904690306A0902F0AA
:1095B000B1F8054640B130464FF4537103F092FEC6
:1095C000284605B0BDE8F08338462146FEF7A0F9ED
:1095D00060B121463046FEF79BF938B14FEA840965
:1095E0004A4640463146FEF7ADF9E4E7004DE2E772
:1095F0002008F10070B5D0E9D2421F3484B064096C
:1096000000F148030D4601EB84061F3201EBC40153
:109610000391009300F5B4710346CDE90156520958
:10962000903002F077F870B930462146FEF770F9B5
:1096300030B921462846FEF76BF908B904B070BD71
:10964000024804B070BD024804B070BD1008F000BC
:109650003008F0002DE9F04385B000284CD00E46CC
:1096600000294ED01546002A4DD0002B3FD0D0F80F
:10967000BC22039305F14C0700F5B6731F3201F1CC
:10968000040905F10408CDE9018700935209494610
:1096900000F59273044602F03DF80746A8B94FF46E
:1096A0003772214606F1500003F016FE174B336067
:1096B00021464FF4377205F1940003F00DFE144B70
:1096C0002B60384605B0BDE8F0830024484634607E
:1096D00021462C604C2203F003FE40462146902296
:1096E00003F0FEFD0B4F384605B0BDE8F0830A4F8E
:1096F000384605B0BDE8F083084F384605B0BDE8F0
:10970000F083074FDDE7074FDBE700BF020000EC07
:10971000010000EC3008F0000508F0000208F0003D
:109720000308F0000408F000F0B50446D0F8480340
:109730008DB000F11F062023B6F5187F00937ED26E
:109740000F46694602F026F9054610B128460DB0CD
:10975000F0BD7609334604F19002012101F08CFB43
:1097600001210846052304F5127201F085FB3346FA
:1097700022460121022001F07FFB334604F1D8028A
:109780000121042001F078FB04F590723346012199
:10979000052001F071FB424A13680193019BDB072E
:1097A000FAD5404B40493E4A196013680293029B28
:1097B000D807FAD53B4B3D49394A196013680393E2
:1097C000039BD907FAD5374B3949354A19601368D5
:1097D0000493049BDB07FAD5324B364A1A6007F034
:1097E0000603022B2FD004F1480233460121032047
:1097F00001F042FB2A4A13680593059BDC07FAD562
:10980000284B2D49264A196013680693069BD807F2
:10981000FAD5244B29492A4A196013680793079BF4
:10982000D907FAD5274A284B126812F4805F08BF7F
:109830001D46009802F004F828460DB0F0BD234DF7
:1098400028460DB0F0BD02F023FD002826D01C4AAA
:1098500013680893089BDB07FAD51D4B184A196853
:1098600013680A930A9BD807FAD51A4A1A4B116053
:109870001B680993099B5F40F90708D5343A1368C0
:109880000B930B9BDB07FAD5064B144A1A60314643
:1098900004F14800032201F0C3FACAE7104DC8E7FB
:1098A000B0B0025080B00250802108888041183149
:1098B000806108880051183180310C88006810518F
:1098C000B4B0025088B002501008F0000F08F00049
:1098D0000CB00250E4B00250DCB00250C03000299D
:1098E0004021F0002DE9F041002800F081801D4664
:1098F000036A072B0F46044616D055B9032B0FD128
:10990000036B6BB9C0E90F55C0E9115500F13C0775
:1099100010252B4639462046BDE8F04102F08EBFA7
:109920002E463046BDE8F081436B002B37D1B5F5AC
:10993000805F39D215B9236B002B35D167484FF0C2
:10994000FF3103F0EFFC002840F09780002003F087
:1099500015FD002840F09980614B01221A60236AAE
:10996000032B23DC002B23DA5E4E5F4A1368002BA7
:10997000FCD15B495D4A0B60106840F0400003F089
:10998000C1FB012003F0FAFC00287AD1534803F010
:10999000E3FC0028C5D0564803F02CFCC1E7012B9E
:1099A000C8D1B5F5803FC5D3524EBAE7072BDBD1FE
:1099B000636A012B78D8636B012B57D8A36B012BFB
:1099C00000F28480204600F0E9F906460028CCD158
:1099D000A36A012B6AD033F0020271D0236A013BE3
:1099E000062B13D8DFE803F009440912121209000C
:1099F0004FF471063046BDE8F0813F4B22681A6093
:109A000062685A60A2689A60E268DA603B493C4A40
:109A100001230B601560002D3BD1226B0AB9394A36
:109A20001360314B1E68002EFCD1236A013B062BCC
:109A30009BD801A252F823F0559A0200759A0200B1
:109A4000559A02006B9902006B9902006B99020013
:109A5000559A0200284A2C4B126822601A686260EC
:109A60005A68A26008331B68E3607EE7274E7CE7F4
:109A7000274BC3E7264A274BEEE7274803F0BAFBFC
:109A800064E7264803F0B6FB80E7254803F0B2FB05
:109A900062E7636B012B1BD0224A234B1760102017
:109AA0001D6003F037FBBCE7204E5EE7204B2269C8
:109AB0001A6062695A60A2699A60E269DA608DE7A9
:109AC0001C491D4A0B600123136087E71B4E4CE7BE
:109AD0001B4A1C4B176040201D60E2E79C8C002055
:109AE00010B802500100F10010B9025004BA02503F
:109AF00038CE03000500F10040B402507CB402509F
:109B0000BCB4025024B5025044B402500300F1002A
:109B100060B4025064B4025020CE0300E0CD0300D4
:109B200000CE030030BC025034BC02500200F100F1
:109B300000B4025038BA025078B402500400F10068
:109B400028BC02502CBC025000283BD0F0B482B09C
:109B5000436A0193836893FA83FC019BD0E907125F
:109B6000D0E90376D0E905541BBA4362436C0193F4
:109B700009BA836AC16112BA02623FBAD0E90F1210
:109B800036BA2DBA24BAC0E902C7C0E90465C76A6B
:109B9000066B456B846193FA83FC846B019B3FBA2F
:109BA00036BA2DBA24BA09BA12BA1BBAC0E90AC722
:109BB000C0E90C65C0E90E41C0E91023002002B0E5
:109BC000F0BC70474FF47200704700BF002800F0EF
:109BD00098802DE9F0414C4B826D9A42E0B080466E
:109BE00003D04A4860B0BDE8F081016E00F148053D
:109BF0002846C900042200F08BF8D8F8543020A879
:109C00004FF4807200211CBA03F06AFBD8F85C2084
:109C1000E308B3FBF2F402FB1434141B102C98BFBE
:109C2000A41820ABA4F11000184429461022802566
:109C30008DF8805003F050FB2A46684608F1640115
:109C400003F04AFBD8E917230DEB05010DEB0300E8
:109C5000D21A03F041FBD8E91753ED1AADB26946A9
:109C6000404600F039F9A5423FD3D8E90641D8E98A
:109C70000823D8E90207D8E9046500BA3FBA24BA34
:109C800009BA12BAC8E9027036BAD8F83400C8F86E
:109C90001C402DBAD8F83040C8F818101BBAC8F8C4
:109CA0002420D8E90F12D8F83870C8F81460C8F822
:109CB0001050D8F82860D8F82C50C8F82030D8F8C0
:109CC000443024BA00BAC8E90C0436BA2DBA3FBAF7
:109CD00009BA12BA1BBA0020C8E90A56C8E90E1719
:109CE000C8E9103260B0BDE8F08120AB5919684670
:109CF000D8F85C2003F0F0FA6946404600F0ECF832
:109D0000B3E74FF472007047785634120200F20045
:109D1000F0B48AB3051F2B4605EB8206970053F873
:109D2000044F24BA9E421C60F9D13C1F03595918B4
:109D3000015116D3931E00EB830150F82340661C9B
:109D4000A64240F823600CD80BB90AE03BB151F8A9
:109D5000044D651CA54203F1FF330D60F6D94AB1ED
:109D6000051F2846002150F8043F01311BBA8A42E2
:109D70000360F8D8F0BC704750F8043C5B1840F81A
:109D8000043CF7D350F8084C631C9C4240F8083C54
:109D9000A0F10801EED36FF00103D8E738B5224BEC
:109DA000224A0121054619601368002BFCD1204A84
:109DB0001368002BFCD11F4A1368002BFCD11E4AEC
:109DC0001368002BFCD11D4B1C68002CFCD14FF0FC
:109DD000FF3003F08BF92B6A23F00403032B184B9D
:109DE00018680CBF20F0400020F0800003F08AF9D2
:109DF000144B00221A602B6A23F00402032A18BFB6
:109E00006C6A114A4FEA830318BF04F0010403F09F
:109E10001C031C4314602B6A072B02D10B4B01223D
:109E20001A60002038BD00BF00B9025070B4025063
:109E300020BD025020BC025038BD025038BC025038
:109E400004BA0250BCB40250C0B402507CB40250F8
:109E5000E8B110B50468012C04D0022C10D044B134
:109E60000C4810BD0C490830202203F035FA0020C0
:109E700010BD0A490830142203F02EFA204610BD06
:109E800007490830202203F027FA002010BD4FF4C4
:109E9000720070470100F2009CCA030068CA030008
:109EA0007CCA030078B110B50368032B044601D0C7
:109EB000064810BD06494022083003F00DFA054B54
:109EC000A365002010BD4FF4720070470100F2003E
:109ED00020C30300785634122DE9F04F2DED028B8C
:109EE000ADF5597D00F108050C464022002128A857
:109EF000FDF7E6FA294628A8402203F0EDF92A9B4F
:109F00001493319B1593329B1693339B1793349B79
:109F10001893359B1993369B1A93379B1B93289B59
:109F20001293299B2B9A2D982F9F309E2C99139337
:109F300008EE105A784B2E9D1C921E9021971F966A
:109F40001D91209504F1040C01930D92DDE9154259
:109F50000292179A0392189A149B0B92199A0093E3
:109F6000DDE91AAB03460C923046DDE912620DF1D1
:109F7000E009CDE90607CDF820A0CDF824B00A917C
:109F800004951746CA469B4612E002990B91039925
:109F90000C9100990A910699DDF834B00096CDE94C
:109FA00002140D97CDF818E044461E461746704639
:109FB00083044FEA844EA1034EEA903E43EA94386C
:109FC00041EA90410B9BC205850302988EEA01018C
:109FD00042EA542283EA000E06984A4045EA944534
:109FE000E10588EA05030EEA000E0C9D249241EA81
:109FF000502103980B9ADDF89090594045400C9BF6
:10A000002591DCF800005CF8041C25405D408EEAD8
:10A010000202964690FA80F8259A259509BA3D01E4
:10A02000CAE900810198259945EA1678B50745EAFD
:10A03000970519EB0E0388EA0505F0E9028941EB63
:10A040000202710641EAD7114D4001900A99009829
:10A050002495350145EA177E0143BD070A9845EA74
:10A0600096058EEA05058646009831400EEA000EF8
:10A0700041EA0E010D982291790641EAD61113EBBF
:10A08000080385EA01054BEA000142EB0902394069
:10A09000FAE8028925950BEA00050D43DDF890E00A
:10A0A00022992395089D099813EB080342EB0902B6
:10A0B0005B1942EB00000246DDF894800498239D72
:10A0C00011EB0E0145EB080510EB030E0798CDF8D8
:10A0D0001CB040EB0208CDE92215CB180B99089172
:10A0E00058A945EB02020A980C9D049051450CF1C9
:10A0F000080C09957FF449AF1946084B0E93B6AB8F
:10A10000CDF83CB0CDE90746DDF800B00997CDE9C0
:10A11000001236A8119314E0B8CA030038CB03002C
:10A12000069A0292079A0392DDE908B20D92009A0C
:10A130000892019A0992CDE90034CDE906E8CE46AD
:10A14000D046D0E91E64F300620343EA547342EA46
:10A15000D6425A40A30643EA9613D0E9047C5A40FB
:10A160004FEAC409730343EAD44349EA5676056DBE
:10A170005E4086EA94164FEACC73446DA91843EA10
:10A1800057094FEA0C6344EB060643EA17234FEAEC
:10A19000884489EA030344EA9E394FEA883444EA52
:10A1A0009E44C0E9221689EA0404F0E9029ACDE946
:10A1B000049A4FEA4C6949EAD71983EA09032693BE
:10A1C0004FEA0769FB0743EA5C0349EA1C275F4043
:10A1D0004FEACE53029A069DDDF898A043EA582331
:10A1E0005C40249414466C4004EA0E04079D5440DD
:10A1F000039A87EADC174FEA8E434FEA8E3C279793
:10A200004CEA984C82EA050743EA9833049D83EAB6
:10A210000C0307EA08074FEAC85C57404CEA5E2C7B
:10A220004A19059D83EA0C03DDF89CC0259345EB94
:10A23000060612EB0A0246EB0C01019E249B009DD0
:10A240002494DDE924942597370147EA15770E9D7C
:10A25000DDF894C0C0F8802013EB0903F5E9029AF9
:10A260000E95009D109144EB0C044FEA857C009DF7
:10A27000C0F88410CDE9049A4CEA960C4FEA05190F
:10A28000009D009987EA0C0749EA16794FEA867C17
:10A29000089E4CEA950C009D89EA0C094BEA060CD5
:10A2A0000CEA050C049D5B19059D45EB0404019D1A
:10A2B0004FEA416A4AEAD51A009987EA0A0A6F0604
:10A2C00047EAD117099D0D9989EA07070BEA0609A4
:10A2D0004CEA090CCDF888C09B1841EA050C01EA4C
:10A2E0000502109D019E45EB04040B9DCDE924A7BA
:10A2F0005B190C9D0CEA060C4CEA020244EB0505C6
:10A30000DDF888C091462C46259A0A9DCDF828B0E4
:10A310001CEB0A0749EB020215EB03090F9D0F9195
:10A3200045EB040AFB1842EB0404CDE92272029AC1
:10A330000B92039A0C92119A82427FF4F1AE129A18
:10A340000898219E159FD318139ADDE9001542EB5A
:10A350000404149A52181C99009241EB05051D99AA
:10A36000099A2B9509181E98019140EB020220983A
:10A370000D99049210EB0B0046EB01011F9E089013
:10A380001698069A049D099116EB090647EB0A07F1
:10A3900010EB0E0E179840EB0808189810EB020C03
:10A3A0001998079A40EB02091A98029A10EB020AD0
:10A3B0001B98039A2D95099D2F95009D2A95019D27
:10A3C0002C9540EB020B089DCDF8C8E038A84FF45F
:10A3D00020720021CDE92834CDF8D0C03197CDF8D6
:10A3E000CC80CDF8D490CDF8DCB02E953096CDF859
:10A3F000D8A002F075FF18EE100A28A9402202F03A
:10A400006BFF0DF5597DBDEC028BBDE8F08F00BFF1
:10A41000002861D02DE9F0414C1EB4F5047F27D20D
:10A4200033B32AB3CD00012B05F1FF3E30D000211C
:10A430008C460F460E4603F1FF384C0901F01F050C
:10A4400050F824401F2D24FA05F418BF04F001042D
:10A4500021B90126B44631462746EEE7B34213D070
:10A46000A74201D10CF1010C464504D1624502D24C
:10A470001A48BDE8F0813C4601318E4506F10106DF
:10A48000EAD20020BDE8F08100264FF0010CF3E78E
:10A490000026B44637463446610904F01F0350F8DD
:10A4A00021101F2B21FA03F118BF01F001013CB16B
:10A4B0005FB98C4501D0614608E00136614605E090
:10A4C000012634468C460127E6E73E46B242CFD30A
:10A4D0000134AC42F6D1D4E700487047370CF100A4
:10A4E00030B585B004460D46104803924FF0FF3159
:10A4F00002F018FF039A68B9204600950123002155
:10A5000002F0A8FA0446094802F026FF38B92046AE
:10A5100005B030BD064802F06DFE039AECE7054831
:10A5200002F068FE204605B030BD00BF9C8C0020C4
:10A5300040CD030058CD03000B6802E0082B0B60F0
:10A5400006D8426813424FEA4303F7D00020704711
:10A5500000487047310CF1000138072805D8DFE8C2
:10A5600000F00A0E041204040406094870478B69BF
:10A570008B6000207047CB688B60002070470B69B0
:10A580008B60002070474B698B600020704700BFD4
:10A59000310CF10030B4DDE90234049D0294002452
:10A5A000CDE9035430BC03F027BA00BFF0B4C900B2
:10A5B000002401F1FF3C2646274606E09F4216D0C4
:10A5C0000126654519D82C461F46630904F01F0172
:10A5D00050F823301F2923FA01F304F1010518BFB5
:10A5E00003F00103002CE9D101263546EBE70136E3
:10A5F0009642E6D10248F0BC70470020F0BC70479C
:10A60000360CF100012BF8B516461CD010221D4661
:10A610000C4602F049FEE0B1AF1E314604EB0710D4
:10A62000102202F041FEA0B1022D0ADD00252046D5
:10A6300010342146102202F037FE013548B1BD42E8
:10A64000F5D10020F8BD1146102202F02DFE0028A1
:10A65000F7D10148F8BD00BF020CF00010B586B07C
:10A6600005AB0124CDE901240093002204AB03F0E3
:10A67000C3F906B010BD00BF084B094A002119609C
:10A680001368002BFCD107480749084A03604FF4C0
:10A6900080604FF0FF330860136070472CB10250A8
:10A6A00010B90250C4B1025008BA025008B10250A9
:10A6B00038B504464FF4806002F02CFD054D064885
:10A6C0000649074A00232B6003600B682360136070
:10A6D00038BD00BFC8B102502CB1025004B10250C5
:10A6E00008B102502DE9F04F99B0DFF870C2269CF6
:10A6F000239D270347EA844949F0104646F0800627
:10A7000099464FEA844EDCF800300193019BDC0748
:10A71000F9D5914B914C1E604FEA894949EA80195D
:10A7200049F0104646F400564FEA801A2368029317
:10A73000029BDB07FAD5884B884C1E604AEA003C36
:10A740004CF0245646F4001623680393039BDB0762
:10A75000FAD5814B814C1E604EF0104646F40256ED
:10A7600023680493049BDB07FAD5229B7B4C4FEABA
:10A77000834E4EEA811E784B4EF0104E1E604EF412
:10A78000005E8E0123680593059BDB07FAD5724BAB
:10A79000724CC3F800E046EA013949F0245B4BF4FF
:10A7A000001B23680693069BDB07FAD54FEA053E9C
:10A7B000694B6A4CC3F800B04EEA854E4EF0104E1D
:10A7C0004EF0800E4FEA854823680793079BDD070C
:10A7D000FAD5249B604C40EA834545F048455F4BE1
:10A7E000C4F800E045F403551C680894089CE4078D
:10A7F000FAD5594B594C1D6048F0104545F40255A7
:10A8000023680993099BDB07FAD5259BDFF848E10C
:10A81000524CCEF8005041EA834343F0484545F49A
:10A82000025523680A930A9BDB07FAD547EA821789
:10A83000494B4A4C1D6047EA080848F0104795010B
:10A8400023680B930B9BDB07FAD5434B434C1F60EC
:10A8500045EA824242F0104242F4405223680C938F
:10A860000C9BDD07FAD53C4B3C4C1A6023680D93DA
:10A870000D9BDA07FAD5384B394C384A1C601368FF
:10A880000E930E9BDB07FAD5334B364C334A1C60D4
:10A8900013680F930F9BDF07FAD52F4B324C1C60C8
:10A8A0002E4A49F0104444F4402413681093109B3E
:10A8B000DD07FAD5284B2D4D284A1C6045EA804516
:10A8C000800413681193119BDC07FAD5224B284CA6
:10A8D000224A1D604AEA040413681293129BDB07A4
:10A8E000FAD51D4B1D4A1C604CF0045444F48014EE
:10A8F00013681393139BDF07FAD5174B174A1C6095
:10A9000013681493149BDD07FAD5134B134A1C608C
:10A9100040F0045040F4824013681593159BDC0707
:10A92000FAD50D4B0D4A18600E4346F0484646F4E2
:10A93000042613681693169BD907FAD5064B074AC7
:10A940001E6013681793179BDB07FAD5024BC3F8F9
:10A9500000B019B0BDE8F08F80B00250B0B0025026
:10A9600000310C90C0400C90C03020290041009074
:10A97000032008C82DE9F04F9FB0AF4F2D9D289EB2
:10A980002C0344EA854C4CEA831C4FEA854E019423
:10A990004CF0104C9D013C680494049CE407FAD5EB
:10A9A0004FEA801BA54F4BEA033848EA8646DFF89A
:10A9B0008882C7F800C046F010461F03D8F8004050
:10A9C0000594059CE407F9D5DFF87082DFF868C2CA
:10A9D0004BEA00340294C8F8006044F0245848F46C
:10A9E0000018DCF800400694069CE607F9D5DFF86D
:10A9F0004C92914EC9F8008045EA070C4EEA0C0EC5
:10AA00004EF0104E34680794079CE407FAD5299C51
:10AA1000DFF82892DFF82082C9F800E047EA8116C3
:10AA200046EA84468C0146F010460094D8F800406F
:10AA30000894089CE407F9D5009CDFF80082DFF851
:10AA4000F891C8F8006044EA013E4EF0245848F4FA
:10AA50000018D9F800400994099CE607F9D52A9C0A
:10AA6000DFF8D891744EC9F800804FEA043A4AEAF8
:10AA7000844A2A9C4AEA050A4AF0104A4FEA844965
:10AA800034680A940A9CE407FAD52B9C47EA84466A
:10AA900006430396694E684CC6F800A0039E46F034
:10AAA000484A4AF0C00A26680B960B9EF607FAD56C
:10AAB000624C614EC4F800A049EA0C0A4AF0104A00
:10AAC00034680C940C9CE407FAD52C9C47EA844625
:10AAD0000E430396594E584CC6F800A0039E2E43D1
:10AAE00046F0484A26680D960D9EF607FAD5019C59
:10AAF00044EA8216514C46EA09094F4EC4F800A0B8
:10AB000049F010494FEA821A34680E940E9CE4070B
:10AB1000FAD54A4C484EC4F800904AEA824A4AF0B4
:10AB2000104A4AF4405A4FEA824934680F940F9C05
:10AB3000E407FAD5414E404CC6F800A026681096AE
:10AB4000109EF607FAD53D4EDFF8F8A03A4CC6F84D
:10AB500000A026681196119EF607FAD5374EDFF849
:10AB6000E8A0354CC6F800A026681296129EF6079B
:10AB7000FAD5324EDFF8D4A02F4CC6F800A04EF024
:10AB8000104E4EF4402E26681396139EF607FAD503
:10AB90002A4E2B4CC6F800E044EA804E3036800442
:10ABA00034681494149CE407FAD547EA8347DFF825
:10ABB0008CA0214CCAF800E04BEA070646F0484654
:10ABC00046F003064FEA834A23681593159BDB077B
:10ABD000FAD5DFF868E0184CCEF80060029B43F02D
:10ABE000045646F4801623681693169BDB07FAD5A5
:10ABF000124CDFF844E02660DEF800301793179B14
:10AC0000DC07F9D50D4CDFF830E0266040F0045049
:10AC100040F48240DEF800301893189BDB07F9D52A
:10AC2000009B054C4AEA01011943044B41F048419D
:10AC3000186041F480410BE0B0B0025080B0025087
:10AC40000041009000310C90C0400C90C030202991
:10AC500023681993199BDE07FAD5194B1948196017
:10AC600003681A931A9BDC07FAD5154B1549C3F8EC
:10AC7000008049EA02322A4342F010420B681B93DB
:10AC80001B9BD807FAD50E4B0E491A602F4347F08D
:10AC900010470B681C931C9BDA07FAD5084B094A2E
:10ACA0001F604CF0104141F4301113681D931D9B3F
:10ACB000DB07FAD5024B19601FB0BDE8F08F00BF6B
:10ACC00080B00250B0B002502DE9F0434E4C89B034
:10ACD00023680193019BDD07FAD54C4B13449B007D
:10ACE0000A181D681E2A05F11F0588BF1E224FEA9B
:10ACF000551502FB05F288BFC0F11E01B2F5806F49
:10AD000004D94FF48061B1FBF5F1091A002976DD11
:10AD100000F1A05000F52C4005F1010E4FF0000CA1
:10AD2000394ADFF8F4803A4C87002EF0010660467D
:10AD300013680293029BDB07FAD5D7F800901368DB
:10AD40000393039BDB07FAD5C8F80090002355B1A5
:10AD500001339D422060FBD1AE4204D92B46013322
:10AD60009E422060FBD10CF1010C614507F1040704
:10AD7000DED1254A13680493049BDC07FAD5254BE2
:10AD8000214A196813680593059BD807FAD5224B09
:10AD900019607DB100231E491A4601339D420A60A5
:10ADA000FBD1AE4206D91A492B46002201339E42FE
:10ADB0000A60FBD1144A13680693069BD907FAD59B
:10ADC000164B114A196813680793079BDB07FAD5DE
:10ADD000114B196035B100230D491A4601339D42CC
:10ADE0000A60FBD1AE4207D9094A002301E00EF107
:10ADF000010E76451360FAD109B0BDE8F08305F184
:10AE0000010E2EF00106B4E7B4B0025024AC0014D9
:10AE1000D8B002507CB00250D4B0025078B002508A
:10AE200010B4124C85B023680193019BDB07FAD55F
:10AE300002F1A05202F52C4293000C4A1C681368E0
:10AE40000393039BDB07FAD5094B1C6051B104380F
:10AE5000084A00EB810113680293029B40F8043F0B
:10AE60008842F8D105B05DF8044B7047B4B0025089
:10AE7000E4B00250DCB0025070B42F4D85B02C68A5
:10AE80000094009CE407FAD500F1A05000F52C4096
:10AE90008000294C0568206801900198C607FAD502
:10AEA0002648012605609BB1043A254E02EB830437
:10AEB00052F8040F3060A242FAD15E1C26F0010263
:10AEC000934205D21E4C0020013393422060FBD1F7
:10AED000194A26F0010013680293029BDC07FAD599
:10AEE000184B0B449B001B681F33B0EB531F4FEAFA
:10AEF00053121DD210490B680393039BDB07FAD54D
:10AF00000E4B0544121A1D6012D000230C4819463E
:10AF1000013393420160FBD15A1C22F00101994296
:10AF200006D90748002300E001328A420360FBD1C2
:10AF300005B070BC704700BFB4B00250D4B002502E
:10AF4000D8B0025024AC0014F0B595B07D4C1A9ED8
:10AF5000370347EA864747F0045545F080052668E1
:10AF60000096009EF607FAD51B9C764E920142EAA7
:10AF70000434754A44F01044156044F400243268E7
:10AF80000192019AD507FAD56F4A6E4E146047EACE
:10AF9000811747F010478A0134680294029CE40745
:10AFA000FAD54FEA033C4CEA834C674B654C1F6073
:10AFB0004CF0045646F0800623680393039BDF079A
:10AFC000FAD5614B5F4C1E6023680493049BDD0738
:10AFD000FAD55D4B5D4F5E4C5A4E1C6047EA814787
:10AFE0008C0433680593059BDB07FAD5564B554E09
:10AFF0001F604CF0104C4CF4807C33680693069B29
:10B00000DD07FAD5504E534D4E4FC6F800C045EA05
:10B01000801586013B680793079BDB07FAD54A4FEB
:10B020004D4BDFF820C13D6043EA003E0703DCF8EA
:10B0300000300893089BDD07F9D5434DDFF828C1A0
:10B04000C5F800E01C9B30354CEA834E2B68099311
:10B05000099BDB07FAD53C4B3A4DC3F800E02B685F
:10B060000A930A9BDB07FAD5374B3C4DDFF8FCC04F
:10B070001D60344D46EA0C0C2B680B930B9BDB07D1
:10B08000FAD5314B2F4DC3F800C03E4346F004566D
:10B0900046F400262B680C930C9BDF07FAD52A4D4B
:10B0A0002F4B2E6043EA804030352B680D930D9B6B
:10B0B000DE07FAD5244B234D18602B680E930E9BA8
:10B0C000DB07FAD5204B274D1E481D60144344EA88
:10B0D000013444F004550E0303680F930F9BDF0700
:10B0E000FAD5194B17481D6044F0104403681093BB
:10B0F000109BDB07FAD5144B12481C6003681193B0
:10B10000119BDF07FAD5104B0E481D60164346F021
:10B11000245646F4101603681293129BDC07FAD5E6
:10B12000094B08481E600A4342F0484242F4A2120A
:10B1300003681393139BDB07FAD5034B1A6015B012
:10B14000F0BD00BFB0B0025080B00250802000902F
:10B15000802008210040102100011021802020299A
:10B16000802000214021282900410021024010C8F0
:10B170002DE9F00B93B06A4E1A9C6A4FDDE91B581B
:10B180004FEA043B46EA04363C680194019CE4071C
:10B19000FAD5654C654F266047EA05373034266896
:10B1A0000296029EF607FAD55F4E614C37601F9FEC
:10B1B000303644EA073437680397039FFF07FAD510
:10B1C000594F584E3C604BEA854949F0045545F0CB
:10B1D000800537680497049FFF07FAD5524C554FF6
:10B1E00025601E9D303447EA053627680597059F80
:10B1F000FD07FAD5209C1D9D4A4F240344EA85454E
:10B20000494C45F01045266045F080053E6806969D
:10B21000069EF407FAD54FEA083444EA8848424CBF
:10B22000404E256048F0045545F0C0053468079449
:10B23000079CE707FAD53C4C3F4F3A4E256047EA5A
:10B2400083179D0134680894089CE407FAD5364CAE
:10B25000344E276045EA834545F004579B0447F484
:10B26000A04734680994099CE407FAD52E4C2D4E6A
:10B27000276034680A940A9CE407FAD52A4C2F4FB9
:10B28000284E276034680B940B9CE707FAD5264CB0
:10B290002B4F244E276034680C940C9CE407FAD59D
:10B2A000214C284F1F4E276034680D940D9CE707F2
:10B2B000FAD543EA80101C4B234E1A4C1E6040F016
:10B2C000104040F4804023680E930E9BDE07FAD5B1
:10B2D000154C1E4B2060134843EA811103680F93FD
:10B2E0000F9BDC07FAD5104C194B0E48216043EA3E
:10B2F000821203681093109BD907FAD50A4B0949AB
:10B300001A6045F0104545F4A0450B681193119B58
:10B31000DB07FAD5044B1D6013B0BDE8F00B704796
:10B3200080001829B0B0025080B00250800008217F
:10B330000001089040010890004018294041142164
:10B340000021182900311021C0200C2100500C9040
:10B3500000301090564A94B013680193019BDB07AC
:10B36000FAD5544B5449524A196013680293029B10
:10B37000D807FAD54F4B51494D4A196013680393CA
:10B38000039BD907FAD54B4B4D49494A19601368BD
:10B390000493049BDB07FAD5464B4A49444A19609B
:10B3A00013680593059BD807FAD5424B4649404A96
:10B3B000196013680693069BD907FAD53D4B43499C
:10B3C0003B4A196013680793079BDB07FAD5394B93
:10B3D0003F49374A196013680893089BD807FAD584
:10B3E000344B3C49324A196013680993099BD907C9
:10B3F000FAD5304B38492E4A196013680A930A9BD4
:10B40000DB07FAD52B4B3549294A196013680B9392
:10B410000B9BD807FAD5274B3149254A1960136889
:10B420000C930C9BD907FAD5224B2E49204A196060
:10B4300013680D930D9BDB07FAD51E4B2A491C4A56
:10B44000196013680E930E9BD807FAD5194B27493C
:10B45000174A196013680F930F9BD907FAD5154B3C
:10B460002349134A196013681093109BDB07FAD520
:10B47000104B20490E4A196013681193119BD8078D
:10B48000FAD50C4B1C490A4A196013681293129B97
:10B49000D907FAD5074B1949054A19601368139360
:10B4A000139BDB07FAD5034B154A1A6014B070479B
:10B4B000B0B0025080B002508080182980900821DE
:10B4C00000210890808024214021089080B02C9099
:10B4D00080700890C0A02821C0A00C90C0421829FC
:10B4E000C0522C2140411421002118290031102183
:10B4F000C0200C2100422C9040520C9080321090C1
:10B50000C0522C902DE9F043FF2993B027D1C36995
:10B5100009939B0F012B054604D0734C204613B0B2
:10B52000BDE8F08309A9FE2200F098FE0128F4D1BD
:10B53000FC244FF0FF394FF0160815271426224639
:10B5400009A9284600F08AFE00EB89030433072B83
:10B55000E3D8DFE803F055504B4639341F09634CFC
:10B56000204613B0BDE8F083CDE905780B230A220D
:10B57000092108200496CDE90223CDE90001FFF757
:10B58000F7FD4FF0FF39023C45D0FFF7E3FEFFF730
:10B59000E1FED4E7122111204FF0100C0691059026
:10B5A0000B230A2209210820CDF810C0CDE902237F
:10B5B000CDE90001FFF7DCFD4FF00009E3E70E21C4
:10B5C0000D204FF00C0CE9E70E210D204FF00C0C74
:10B5D000069105900B230A2209210820CDF810C0FE
:10B5E000C9E70F210C204FF00D0CD7E713211020D5
:10B5F0004FF0110CD2E7132110204FF0110CE7E7A8
:10B600004FF0170CCDE904760B230A2209210820FC
:10B61000CDF818C0CAE7224609A9284600F01EFE48
:10B62000044600287FF479AF0F220C230B200A2157
:10B6300006920593092208230D25CDE90121CDE9C4
:10B64000030500931622172315211420FFF790FD00
:10B65000274AB9F1000F23D113680E930E9BDD0723
:10B66000FAD5244B2449224A196013680F930F9B83
:10B67000D807FAD51F4B21491D4A1960136810934A
:10B68000109BD907FAD51B4B1D49194A196013683D
:10B690001193119BDB07FAD5164B1A4A1A603DE746
:10B6A00013680A930A9BD907FAD5124B1249104A1C
:10B6B000196013680B930B9BDB07FAD50D4B1249EE
:10B6C0000B4A196013680C930C9BDF07FAD5094BE2
:10B6D0000E49074A196013680D930D9BDE07FAD5D2
:10B6E000044B0B4A1A6019E70323F0000223F00011
:10B6F000B0B0025080B0025080210229C061289869
:10B700000074208840742488C06158980074508860
:10B71000407454882DE9F04F0D4687B00446114619
:10B72000284600929846FCF7F3F8D4F8BC3200990A
:10B7300004F1D80A1F3306465B0952462846FBF738
:10B740004BFF002E70D001286ED0D4E9AEB0394B3B
:10B75000584593F91A2093F91CC000924FF0200726
:10B7600093F91B2093F91D30059738BF584605A95A
:10B770000192CDF808C0039300F00CF9074618B108
:10B78000384607B0BDE8F08F2B490BF11F094FEA8F
:10B7900059194B46C1F800B022460121FFF76CFB56
:10B7A0000121084604F5DC720523FFF765FB4B46D3
:10B7B00004F1480201210B20FFF75EFBD4F8BC32F4
:10B7C0009DF808409DF800001F3352465B099DF824
:10B7D0000CA00121FFF750FB42464B4620460121B9
:10B7E000FFF74AFB109A4B4650460121FFF744FBF6
:10B7F00006F11F035B099DF804002A460121FFF7AB
:10B800003BFB00F0F3F9119822464946FFF708FB8D
:10B81000129852464946FFF703FB059800F010F8CE
:10B82000384607B0BDE8F08F044F384607B0BDE892
:10B83000F08F00BF5CD0030090B002503008F100E0
:10B8400008B558B90F4B00221A60012001F096FD8F
:10B8500098B90D4801F080FD50B908BD2028014677
:10B860004FF0070228BF20210020FFF72DFAE9E75B
:10B87000BDE80840054801F0BDBC054801F0BAFC30
:10B88000E7E700BF1CB80250908C002070CD030089
:10B8900088CD030070B41C6885B001F01F0644B960
:10B8A0001E2E06D01068F04000F0030005B070BCFA
:10B8B00070470F4D2C680194019CE407FAD500F104
:10B8C000A05404F52C44A400094D20682C6803946E
:10B8D000039CE407FAD5074C00EB61110648216090
:10B8E000016802910299116000211960DAE700BF36
:10B8F000B4B00250E4B00250DCB0025030B4214A7F
:10B9000084B013680093009BDC07FAD500F1A053C4
:10B9100003F52C439B001B4A186813680193019B95
:10B92000D907FAD5184B1A6812F11F0348BF02F164
:10B930003E035B11591E0FD4124A144D144C136868
:10B940000393039BDB07FAD50B182B602368029344
:10B95000029B2BB90139F2D2580104B030BC7047B8
:10B9600001314801A0F120014FF0004202E001380E
:10B970008142F2D013424FEA5202F8D004B030BCF8
:10B98000704700BFB4B00250ACB00250E4B00250F7
:10B99000DCB0025038B504460D4619484FF0FF316F
:10B9A00001F0C0FC60B9002001F0E8FC80B920463D
:10B9B0002A46002100F02CF80446A0B9204638BDE4
:10B9C000104801F017FC002001F0D8FC0028EED050
:10B9D0000D4801F00FFC20462A46002100F018F81F
:10B9E00004460028EAD0012001F0C8FC20B9044830
:10B9F00001F0B2FC204638BD044801F0FBFBF6E73D
:10BA0000908C0020C8CD0300A8CD030088CD030092
:10BA1000A0F12003B3F5426F61D8F0B48F2882B053
:10BA200053D900F11F035B095B013F339B090133CD
:10BA300011B18B4255D80B46DC004FF48051B1FB5D
:10BA4000F4F1202928BF202102B11160264C274D96
:10BA50000126002226600239144603FA06F640F653
:10BA6000FC778C4204F10104B6BF2A602F60921962
:10BA70001E2C05F10405F4D11D4C1E4D22603244EC
:10BA80002A6000F13F011C4A1C4DDFF890C0E560C0
:10BA900021F03F0110604031194F1A4E1A4D1B48DA
:10BAA000CCF800109B011A493B6033602B60E362C5
:10BAB0000360D3610A680192019AD207FAD5154A48
:10BAC0000020136002B0F0BC704700F1470400F1A1
:10BAD0006603E4064FEA5313A6D00133A4E70E48E9
:10BAE00070470D48EEE700BF1CB8025000B002508E
:10BAF00078B002507CB0025090B0025020F80F0095
:10BB000098B002509CB00250A0B00250A8B00250B1
:10BB1000B4B00250ACB002502221F00094B00250F8
:10BB200030B42D4C88B0206800900098C507FAD535
:10BB30002A4C2B482B4D2560303440EA834523683E
:10BB40000193019BD807FAD5900140EA8240234B2C
:10BB5000214A1D6040F0104444F4C044136802932D
:10BB6000029BDB07FAD51D4B1B4A1C60136803932D
:10BB7000039BDD07FAD58B0143EA8141174B1A4D30
:10BB80001D60154A41F0104545F4C0451368049303
:10BB9000049BDB07FAD5114B0F4A1D601368059310
:10BBA000059BDD07FAD50D4B0B4A1C6041F058414F
:10BBB00013680693069BDC07FAD5084B064A196002
:10BBC00040F0584013680793079BDB07FAD5034BF7
:10BBD000186008B030BC7047B0B0025080B002505E
:10BBE00080710098C0210229806118902DE9F043EE
:10BBF000974AABB013680993099BDF07FAD5954BB9
:10BC00009549934A196013680A930A9BDE07FAD58F
:10BC1000904B92498E4A196013680B930B9BDD077A
:10BC2000FAD58C4B8E498A4A196013680C930C9B89
:10BC3000DC07FAD5874B8B49854A196013680D9349
:10BC40000D9BD807FAD5834B8749814A1960136841
:10BC50000E930E9BD907FAD57E4B844A1A601B209F
:10BC6000FFF74CFE04461820FFF748FE8442784A4E
:10BC700009D913680F930F9E16F00106F9D0754B82
:10BC80007B4A1A6009E013681093109BDB07FAD512
:10BC9000704B784A1A60044600266D4A1368119367
:10BCA000119BDF07FAD56B4B7349694A196013681A
:10BCB0001293129BDD07FAD5664B704A1A601C205E
:10BCC0001D2118220B238DE80F000F230E220D21BA
:10BCD0000C20FCF745FF01340C200D210E220F2310
:10BCE0008DE80F0024F001041323122211211020EB
:10BCF000FCF736FF0125A11E08AB07AA1B200895FB
:10BD0000FFF7C8FD022800F06A81032800F0408197
:10BD1000012800F0168100274D4A13681F931F9BCE
:10BD2000DB07FAD54B4B5649494A196013682093F3
:10BD3000209BDD07FAD5474B5249454A19601368E5
:10BD40002193219BD807FAD5424B4F4A1A60043CF5
:10BD500039D44FF0170916254FF01A081521142071
:10BD6000CDE900011A231622CDE90259FCF7F8FEAD
:10BD7000142003468DE822011622FFF7E5F808ABF0
:10BD800007AA21461B20FFF785FD00EB8700043042
:10BD9000072816D8DFE800F0A1A8A59D999584048E
:10BDA00012271122102315211420CDE90427039313
:10BDB000CDE90001029517231622FEF7DBFD4FF0B7
:10BDC000FF37023CCAD519201C211622152318243E
:10BDD000CDE90121CDE9030400930E2214230D21A6
:10BDE0000C20FEF77FFC1A4A002F40F08180136878
:10BDF0002693269BDC07FAD5164B2449144A196072
:10BE000013682793279BD807FAD51248204B21495E
:10BE1000214C0F4A0460002E14BF1E460E461368C4
:10BE20002893289BD907FAD50A4B094A1E60136844
:10BE30002993299BDB07FAD5064B184A1A60182369
:10BE40001D221C210120FFF76BFE2BB0BDE8F08303
:10BE5000B0B0025080B002500002002100822021C8
:10BE6000408220218082242140066E490096692963
:10BE7000C0066649C0066249000662410016624972
:10BE800040D62129C0D32029C0142129C0552129F9
:10BE90004007564940075E490007524900065A4983
:10BEA0000E270D220C2315211420CDE9042703931E
:10BEB000CDE90001029517231622FEF75BFD00274E
:10BEC0007FE718271D221C23EDE718271D221C23BE
:10BED00069E7182719221C23E5E7122713221023EC
:10BEE000E1E70E270F22DDE70E270F220C235AE78A
:10BEF00013682293229BD907FAD54C4B4C494D4AE3
:10BF0000196013682393239BDB07FAD547484A4BF4
:10BF10004A494B4C474A0460002E14BF1E460E4649
:10BF200013682493249BDF07FAD5404B414A1E60D7
:10BF300013682593259BDD07FAD53C4B414A1A60CF
:10BF40007DE73C4A13681393139BD807FAD5374B08
:10BF50003D49384A196013681493149BD907FAD5E0
:10BF6000324B3A49334A196013681593159BDB0726
:10BF7000FAD52E4B36492F4A196013681693169B33
:10BF8000DF07FAD5294B334A1A604FF0FF37C3E673
:10BF9000284A13681B931B9BDF07FAD5234B2E49B6
:10BFA000244A196013681C931C9BDD07FAD51F4BAC
:10BFB0002A49204A196013681D931D9BD807FAD59A
:10BFC0001A4B27491B4A196013681E931E9BD907F9
:10BFD000FAD5164B234A1A604FF0FF379CE6154AF4
:10BFE00013681793179BDD07FAD5104B1649114AB2
:10BFF000196013681893189BD807FAD50B4B13498F
:10C000000C4A196013681993199BD907FAD5074B85
:10C010000F49084A196013681A931A9BDB07FAD56F
:10C02000024B0C4A1A60002776E600BF80B002502F
:10C03000C0D32029B0B002504007364940073E49DE
:10C040000007324900063A490005324940053649A1
:10C0500080053A49C0053E49000542494005464928
:10C0600080054A49C0054E492DE9F043644A93B022
:10C0700013680093009BD907FAD5624B6249634A63
:10C08000196013680193019BDB07FAD5604B1B68AD
:10C09000DF0400F1AF805A4A13680293029BDE0767
:10C0A000FAD5584B5B49594A196013680393039BAF
:10C0B000DD07FAD5564B1B68DC0400F18580534B35
:10C0C000554E4F494F4FDFF86CC14FF00109DFF873
:10C0D00068E1524D00241A680492049AD007FAD5F8
:10C0E00030681A680692069AD207FAD5CEF8000090
:10C0F0002A680592059A12B95DE052080134D0070A
:10C10000FBD514F01F0568D11D680995099DE80746
:10C11000FAD5434DD5F800801D680B950B9DED07B2
:10C12000FAD5DFF814E13D4DCEF800802D680A9570
:10C13000E0070A9D05D505F00704032C4AD0052C1D
:10C1400048D002F00302032A05D105F00305032DB0
:10C1500008BFC9F100090A680C920C9AD407FAD5F5
:10C16000304A3A600A680D920D9AD007FAD52E4AE5
:10C170003A600A680E920E9AD207FAD52B4A3A60B4
:10C180000A680F920F9AD507FAD5294A3A600A68C9
:10C190001092109AD407FAD51B4A3A601A68119285
:10C1A000119AD007FAD51A4A1268D2048FD5484698
:10C1B00013B0BDE8F0830A680792079AD207FAD550
:10C1C000C7F800C0203486E74FF00109484613B095
:10C1D000BDE8F083C9F10009B3E7DFF860E0013D95
:10C1E0004EEA053E0D680895089DED07FAD5C7F89B
:10C1F00000E089E74FF00009484613B0BDE8F0833E
:10C20000B0B0025080B0025000082A51B4B00250C1
:10C2100088B0025000182A5128B00250DCB00250F9
:10C220002CB0025000032A4980022E49C0C228A126
:10C23000C002324980F22961E4B0025080022861D4
:10C240000B6830B40468524284EA03052A40544023
:10C250005340046030BC0B60704700BF0B6812F0A5
:10C260001F0F10B404464FEA937004D09B005DF892
:10C27000044B0B607047002A6FF04043B8BF1F3279
:10C2800003EB621254F822300B605DF8044B7047E8
:10C290002DE9F047894ABAB013680093009BD8078C
:10C2A000FAD5874B8749884A196013680193019B27
:10C2B000D907FAD5854B1B68DB0400F19181824ACE
:10C2C00013680393039BDE07FAD5814B7E4A1968F6
:10C2D00013680593059BDD07FAD57E4A7E4B1160F6
:10C2E0001B680493049F07F00303032B00F0748280
:10C2F00007F00703052B714A00F027811368199393
:10C30000199BDC07FAD56E4B74496C4A19601368A7
:10C310001A931A9BD807FAD5694B714A1A60FFF72E
:10C32000A3FE013000F01D82644A13681B931B9B1F
:10C33000D907FAD562486B4B0360013F40F0718228
:10C340005E49DFF8D0C1604B674E624D624CB84623
:10C350000A681C921C9AD207FAD5C0F800C008F1EE
:10C3600020081A681D921D9AD707FAD537681A68EF
:10C370001F921F9AD207FAD52F6022681E921E9F25
:10C38000002FE5D017F0010311D17F08FE071946F1
:10C3900003F10103F9D5494802682092209AD50794
:10C3A000FAD5524A464842EA013198440160434A6C
:10C3B00013682193219BDC07FAD5414B4C493F4A36
:10C3C000196013682293229BD807FAD53C4B494A3F
:10C3D0003A4CDFF84491484E414D1A609A46236822
:10C3E0002393239BD907FAD5CAF800902368249396
:10C3F000249BDA07FAD5CAF8006023682593259BA9
:10C40000DB07FAD5CAF80050FFF72EFE0130E6D15F
:10C410002A4A13682693269BDC07FAD5284B37490E
:10C42000264A196013682793279BD807FAD5244B0F
:10C430003349224A196013682893289BD907FAD5F3
:10C440001F4B2A491D4A196013682993299BDB0752
:10C45000FAD51B4B2B49194A196013682A932A9B5A
:10C46000DE07FAD5164B2849144A196013682B9336
:10C470002B9BDD07FAD51248244A104BDFF89C901D
:10C48000DFF89CE0224EDFF89CC002601A682C9214
:10C490002C9AD407FAD5C0F800901A682D922D9ADC
:10C4A000D107FAD50849094DC0F800E000241A6800
:10C4B0002E922E9AD207FAD5066035E0B0B002501F
:10C4C00080B0025000081251B4B0025088B002503F
:10C4D00000B00250E4B00250DCB0025080021249B9
:10C4E000C0020249C01002290CB00250C0000C6109
:10C4F000C0011E41C0111E4980021E49C0311C9856
:10C50000C0100E21C030109840021249809184A8BA
:10C5100000182651C0F00D61C0111E2140320C8858
:10C5200040622488409224880A682F922F9AD2076A
:10C53000FAD52A68D20460D401341A683092309A4D
:10C54000D207FAD5C0F800C0B1E713680993099B78
:10C55000DB07FAD5854B8649864A196013680A932A
:10C560000A9BDF07FAD5814B8349824A1960136819
:10C570000B930B9BDE07FAD57C4B80497D4A1960F3
:10C5800013680C930C9BDD07FAD5784B7C497D4AE8
:10C59000196013680D930D9BDC07FAD57A4B754A29
:10C5A0001B68D80440F1928013680E930E9BD90744
:10C5B000FAD56E4B75496F4A196013680F930F9B3C
:10C5C000DB07FAD5694B72496A4A19601368109300
:10C5D000109BDF07FAD5654B6E4A1A60002054E0C5
:10C5E000644A13680293029BDF07FAD55F4B6A4ADD
:10C5F0001A6001203AB0BDE8F087002C3FD0A8EBCC
:10C600000404012C33D0621E02F01F01002A4FF0F7
:10C610000107B8BF04F11E028F4051111A6832920F
:10C62000329AD207FAD55D4A564C0260226833929C
:10C63000339AD507FAD55A4A524C15682268349273
:10C64000349AD207FAD5574C574A294421601760CB
:10C650001A683592359AD207FAD5544A02601A6898
:10C660003692369AD507FAD5514A02600EE71A6813
:10C670003192319AD107FAD54E4A026006E707F0A7
:10C680000303032B40F0C58001203A4A1368379317
:10C69000379BDC07FAD5354B4749364A1960136892
:10C6A0003893389BD907FAD5304B4449354A19603D
:10C6B00013683993399BDB07FAD5334B1B6813F4A6
:10C6C000805F18BF01203AB0BDE8F087136811936E
:10C6D000119BDE07FAD5254B39492A4A19601368A0
:10C6E0001293129BDD07FAD5274B1B68DC04C3F3BA
:10C6F0000030CAD51F4B1A681392139AD107FAD586
:10C700001A4B304A1B491A600B681493149BDA07C2
:10C71000FAD5164B1E4A17491A600B681593159BDC
:10C72000DB07FAD5114B284A12491A600B68169399
:10C73000169BDF07FAD50D4B244A0E491A600B6889
:10C740001793179BDE07FAD5084B214A09491A604F
:10C750000B681893189BDD07FAD5044B1D4A1A6025
:10C760003CE700203AB0BDE8F08700BF80B002503F
:10C7700040120229B0B00250C0112461807110989B
:10C7800000181A51B4B0025088B002508031022112
:10C7900080211861C0601098C0000E410002224143
:10C7A00020B00250D4B00250D8B0025040821C9841
:10C7B000C0900C88C0700C8880310C8800481851DB
:10C7C000009818518051022940121071C0612498BC
:10C7D00040021071C0901C88343A13680693069B7F
:10C7E000DC07FAD5104B1149114A196013680793F9
:10C7F000079BD807FAD50C4B0E490D4A19601368F0
:10C800000893089BD907FAD5074B0B4A1A600020FA
:10C810003BE707F00707052F4FF001003FF435AF66
:10C82000E8E64FF00008ADE580B00250C0100221EC
:10C83000B0B0025080110C61C0601098002800F068
:10C84000BF80F8B51D46436B0E4617460446002BC5
:10C8500035D0012B02D1B5F5803F33D265484FF07A
:10C86000FF3100F05FFD002857D1002000F086FD69
:10C8700000284ED1604B01221A60236A032B28DC6A
:10C88000002B28DA5D4A1368002BFCD15A4A13604A
:10C89000236A23F00403032B594B18680CBF40F0A4
:10C8A000400040F0800000F02DFC012000F066FD0B
:10C8B000002836D14F4800F04FFD28B9F8BDB5F536
:10C8C000805FCBD34F48F8BD4F4800F093FC002069
:10C8D000F8BD072BD6D1636A012BD3D8636B012B2C
:10C8E000D0D8A36B012BCDD82046FDF757FA0028EE
:10C8F000C8D1A36A012B6CD033F0020263D0236A43
:10C900005A1E062A1BD8DFE802F0104B101A1A1A1A
:10C9100010003E4800F06EFCACE73D4800F06AFCB9
:10C92000A3E73C4800F066FCC4E73B4B22681A6072
:10C9300062685A60A2689A60E268DA60236A23F04B
:10C940000403032B31D0A36B012B4CD0334A344B5F
:10C95000176020201D60636B012B2CD0314A324BB5
:10C9600016601D6000F0D6FB244A1368002BFCD132
:10C97000236A013B062B10D8DFE803F00414040FF0
:10C980000F0F0400244A294B126822601A68626063
:10C990005A68A26008331B68E3600123236371E7D0
:10C9A000234BC3E7224A234BEEE7636B012B01D0F5
:10C9B0001020D3E74020204A204B16601D60D1E7AD
:10C9C0004FF4710070471E491E4A0B60012313602B
:10C9D00095E71D4B22691A6062695A60A2699A60E4
:10C9E000E269DA608BE7194A194B176080201D60F5
:10C9F000B1E700BF9C8C002010B8025010B9025063
:10CA000004BA02500500F10038CE030000CE030046
:10CA100020CE0300E0CD030040B4025030BD0250F0
:10CA200034BD025030BC025034BC025044B40250F9
:10CA300060B4025064B4025028BC02502CBC0250B6
:10CA400038BA025078B4025000B4025028BD0250E7
:10CA50002CBD0250F8B5069E002E33D001292FD8E8
:10CA6000012B31D81C4C074600251C482560046862
:10CA7000002CFCD11A4D2C68002CFCD1194D2C68CF
:10CA8000002CFCD1184D2C68002CFCD1174D2C68C3
:10CA9000002CFCD1012B19D01548164B0260202028
:10CAA0001E6001290BBF144B144B154A154A176021
:10CAB0001E6000F02FFB144B18680028FCD1F8BD55
:10CAC0001248F8BD1248F8BD1248F8BD1248134B81
:10CAD000026080201E60E4E700B9025070B402508A
:10CAE00020BD025020BC025038BD025038BC02505C
:10CAF00030BD025034BD02502CBC025034BC025038
:10CB000028BC025030BC025010B902500200F400A0
:10CB10000100F4000300F40028BD02502CBD0250B7
:10CB2000002800F0DE80F8B503680E46154604467E
:10CB3000002B00F0B480013B012B00F2C3806A4857
:10CB40004FF0FF31022700F0EDFB002840F0B080ED
:10CB5000002000F013FC002840F0BB80634A1368FB
:10CB6000002BFCD1624A1368002BFCD1614803689A
:10CB7000002BFCD14FF0FF3000F0B8FA5E4B186884
:10CB800020F0400000F0BEFA5C485D4A5D49012398
:10CB90000360072010600B60A2F59A72A36C13600B
:10CBA000594BE16C51601F6023685BB1013B012B65
:10CBB00017D8564B626A1A60226A43F8042CE2695D
:10CBC00043F8082C524BA2691A60626943F8042C9E
:10CBD000226943F8082CE26843F80C2CA26843F859
:10CBE000102C434A1368002BFCD1002D53D06368EE
:10CBF000012B04BF474A1360474A484B1660402048
:10CC00001D6000F087FA3A4A1368002BFCD1394ABC
:10CC10001368002BFCD123685BB1013B012B17D8B3
:10CC20003A4A3F4B126862621A682262043B1B68F0
:10CC3000E361374A3B4B1268A2611A68626153F89C
:10CC4000042C226153F8082CE2600C3B1B68A360A3
:10CC5000354A364B1268A2641B682A4D2D48344968
:10CC6000E364234A002301242C6003600B601368F3
:10CC7000002BFCD12149204A0B60106840F0400095
:10CC800000F040FA012000F079FB30BB164800F0BC
:10CC900063FBC8B9F8BD264B04221A60B3E71248FB
:10CCA0004FF0FF31012700F03DFB00283FF450AF6B
:10CCB000204800F09FFA002000F060FB00283FF4BD
:10CCC0004DAF06E01C48F8BD1C4800F093FA002068
:10CCD000F8BD1B4800F08EFA40E71A4800F08AFAC7
:10CCE000D4E74FF4720070479C8C00201CB90250AE
:10CCF00010B9025020BC025004BA025018B80250B9
:10CD000000B90250C4B70250C0B702505CB602501E
:10CD100050B6025084B6025028BC02502CBC0250BF
:10CD200058B602504CB60250CCB70250D0B70250A1
:10CD3000C8B7025090CE03000100F200A8CE030055
:10CD400070CE030050CE030000283CD02DE9F04304
:10CD50001E4B9046826D9A42A1B0064603D01C48F5
:10CD600021B0BDE8F083D0F85C90B8FBF9F707FB81
:10CD700009F30C460422D9004830FCF7C9FF14F02F
:10CD8000030514D0C1450ED8F26D00252146684632
:10CD900000F0A2FA69463046FDF79EF80135F26DC3
:10CDA000AF421444F2D8002021B0BDE8F083C14561
:10CDB000F9D821463046FDF78FF80135F36DAF42C3
:10CDC0001C44F6D8EFE74FF47200704778563412DF
:10CDD0000200F20030B5042285B00123C0F8D02053
:10CDE0000B6068460023CDE90033CDE902330C46E1
:10CDF00000F03EFB0546C8B9DDE90030DDE902126E
:10CE0000E360003BC4E9040118BF0123A26108B13B
:10CE100043F0020309B143F004030AB143F00803ED
:10CE2000002228466360A26005B030BD014800F0D2
:10CE3000E1F9E1E7C0CE030038B349B31AB338B51E
:10CE400012F00F051BD1046A24F00404032C01D056
:10CE500003B31D4613462A46FFF7F0FC58B1A0F570
:10CE60007100052818D8052816D8DFE800F005035A
:10CE70000A0303080A4838BD4FF4700038BD09485A
:10CE800038BD094838BD074870474FF470007047F7
:10CE900006487047064838BD4FF4750038BD00BFDE
:10CEA0000200F0000A00F0000600F0000800F000A8
:10CEB0000900F000F8B5079F48B30E460546002A62
:10CEC00035D0994239D8002F41D02B6A23F0040184
:10CED000032906991FD0002932D03968B14233D3D3
:10CEE000300703D0012B1CD8EB6A23B3114633461D
:10CEF000069A2846FCF7F6FC044660B3A0F57104D8
:10CF0000052C37D8DFE804F00310251010174FF474
:10CF100070042046F8BDA9B139680F2914D931072A
:10CF2000E4D0032BE2D1DFE7144C2046F8BD002902
:10CF3000C9D0134CEDE7134CEBE7134C2046F8BD7A
:10CF4000002ED3D0114CE4E7114C2046F8BD114C13
:10CF5000DFE7114CDDE72B6A23F00403032B01D03C
:10CF60003E60D6E706982946102200F0B5F9102356
:10CF70003B60CEE74FF47504CBE700BF0200F00042
:10CF80000800F0000A00F0000C00F0000900F000BA
:10CF90000D00F0001100F0000600F00078B3032A45
:10CFA00070B50E461546044601D9052A1CD1012E3E
:10CFB00018D8ABB9022D19D0052D17D04C21204619
:10CFC00000F090F9052D88BF4FF0FF3213D90020F3
:10CFD0000123C4E90826C4E90B00C4E90D3370BD80
:10CFE000094870BD094870BD094870BD56B94C214B
:10CFF000204600F077F9074B53F82520E7E74FF478
:10D0000070007047044870BD0E00F0000600F0008C
:10D010000200F000D0C303001200F00070B108B5A8
:10D02000036A013B022B05D831B1102200F054F9FC
:10D03000002008BD034808BD034808BD4FF4700038
:10D04000704700BF0200F0000100F000C8B110B549
:10D050000C4682B18CB9082B0DD15368102B0ED120
:10D06000136843B101238362D2E90012103000F04B
:10D0700033F9204610BD044810BD044810BD0448D3
:10D0800010BD4FF4700070470400F0000500F00080
:10D090000300F000004870477CD003000048704750
:10D0A00058D303000048704734D603000048704747
:10D0B00010D9030000487047ECDB030000487047BC
:10D0C000C8DE030000487047A4E103000048704731
:10D0D00080E40300004870475CE7030000487047A5
:10D0E00038EA03000048704714ED0300014B186054
:10D0F000704700BF08BA0250014B0020186070470B
:10D10000806C0020014B1860704700BF04BA0250C9
:10D110000020704710B5044682B0C0B1124A134BCC
:10D12000C14311601B680193019B18420AD1104A48
:10D1300020BFBFF35B8F1368BFF35B8F0193019B2D
:10D140002342F5D00B4B1C60019802B010BD0A4879
:10D1500000F050F8044A054B4FF0FF3111601B6896
:10D160000193019BE3E700BF04BA025000BA0250EA
:10D17000806C002008BA0250F0CE030008B5FFF71B
:10D18000C7FFBDE8084000F047B900BF10B500F088
:10D1900045F8A0B9FFF7B0FF20B1032400F03CF937
:10D1A000204610BD00F0EAF8034680B90D4A126827
:10D1B000120EF02A06D00524FFF7AAFFEEE704249A
:10D1C000204610BD0849094A0968914201D0062449
:10D1D000F2E7074A0120136000F0D0F80446002867
:10D1E000DED0E8E728B9025024BA02500000E0205F
:10D1F0000CBA0250BFF34F8F0549064BCA6802F4C0
:10D20000E0621343CB60BFF34F8F00BFFDE700BF69
:10D2100000ED00E00400FA05704700BF08B51848AB
:10D2200000F064F898B9174800F060F8B8B91648EB
:10D2300000F05CF8D8B9154B124A15481A6000F096
:10D2400055F8C0B9134B124A1A60002008BD1248A5
:10D25000FFF7D0FF0B4800F049F80028E7D00F484F
:10D26000FFF7C8FF084800F041F80028E3D00C4859
:10D27000FFF7C0FFDFE70B48FFF7BCFFE2E700BFA7
:10D280009C8C0020908C0020988C00208C8C00209E
:10D29000948C0020888C002020CF03003CCF03001A
:10D2A00078CF030058CF0300A2B1013A30B401395E
:10D2B0008518421E002012F8013F11F8014F9542D7
:10D2C00083EA040340EA0300F5D1003818BF0120C7
:10D2D00030BC704710467047FAF7C8B8FAF7C6B8BE
:10D2E000FAF7EEB80A460021FAF7EAB810B5044694
:10D2F00010B10020206010BD0248FFF77BFF002026
:10D30000206010BD98CF030010B5044610B1002076
:10D31000206010BD0248FFF76DFF0020206010BDA7
:10D3200098CF030010B5044680B10123BFF35B8F93
:10D3300054E8002F44E800310029F9D1BFF35B8F96
:10D34000012AF3D0BFF35F8F002010BD0148FFF723
:10D3500051FFEAE7BCCF030010B5044620B1BFF38C
:10D360005F8F0020206010BD0348FFF743FFBFF32D
:10D370005F8F0020206010BDDCCF030038B54FF078
:10D38000FF3104461E48FFF7CDFF08BB1D4A54B1CC
:10D390001368C3B1012B1CD0013B1360BDE83840BA
:10D3A0001748FFF7D9BF106858B9174C174B1849E1
:10D3B0000125C4F800554FF480645C600B68002BB5
:10D3C000FCD101301060BDE838400D48FFF7C4BF04
:10D3D00038BD0F490B68002BFCD10B480B49C0F836
:10D3E00000354FF48063C1F88430BFF34F8FBFF333
:10D3F0006F8F084B6FF07E4119601368CCE700BF58
:10D40000988C0020846C002000A0025000E100E015
:10D4100010B9025004BA025008B5FFF7FDFE0F48DC
:10D42000FFF772FF04210D48FFF75CFF0C48FFF780
:10D430006BFF0B480421FFF755FF0A48FFF764FF15
:10D4400040B90948FFF760FFBDE8084006480421DD
:10D45000FFF748BF0548FFF7CDFEF2E79C8C0020A0
:10D46000908C0020988C0020948C002078CF0300B2
:10D4700000234FF4FA714FF47A72C0E90022816000
:10D48000C3601846704700BF2DE9F04F864C8046B8
:10D490009E460F4694460FCCB7B00DF11C0A554678
:10D4A0000FC594E80F0004F1100685E80F000FCEB9
:10D4B0000FAD0FC596E80F00303485E80F000FCC94
:10D4C00017AD0FC50FCC0FC594E80F00D8F8D040AA
:10D4D000CDF80CE0042C85E80F0001D0082C6BD1AE
:10D4E000409A231DB2EB830F4FEA830B03D06F48A2
:10D4F00037B0BDE8F08F07EB0C019CFA8CF30CF110
:10D5000018060CF109003B609BFA8BF5802326F08E
:10D510000F06321A7D6038440B720021FFF7E0FEDF
:10D52000409B1B09ABF1100B00F0BB80042C47D0D3
:10D53000DDF80C90CDF808B04B4617ADB1464FF072
:10D54000000823ACBB461E4624E0029FCDF814A081
:10D550000697FFF77BFD03462946204610353BBB67
:10D56000FFF75CFD84464FF0100E4B465A46494685
:10D570002046BCF1000F1BD10DEB0E07CDE9006773
:10D58000CDF810E0FFF796FC103688B9409BB8EB59
:10D59000131F58D20023194602222046FFF7FEFC33
:10D5A000014608F10108082305AA20460029CCD02D
:10D5B0003F4837B0BDE8F08F3E4837B0BDE8F08F48
:10D5C000DDF80C90CDF808B033460FAD4E464FF065
:10D5D000000823ACBB46994626E0029FCDF814A074
:10D5E0000697FFF733FD0346294620461035002BEA
:10D5F000DED1FFF713FD84464FF0100E4B465A461E
:10D6000049462046BCF1000FD2D10DEB0E07CDE903
:10D610000067CDF810E0FFF74DFC10360028C7D1A9
:10D62000409BB8EB131F0ED200231946022220465E
:10D63000FFF7B4FC014608F10108082305AA2046BB
:10D640000029CAD0B4E7DDF808B0039D00231946CD
:10D6500001222046CDE9055BFFF7A0FC014600282A
:10D66000A6D1082305AA2046FFF7F0FC00289FD189
:10D6700005EB0B012046FFF7D1FC0146002897D1AE
:10D68000409A2846FFF72CFE409B009540A9019147
:10D690002A4620461946FFF70DFC00283FF428AF24
:10D6A00086E723ACD1E700BFB0C20300230CF00033
:10D6B000360CF000210CF0002DE9F0438FB08846C5
:10D6C00007A917460446FFF785FB054600284ED1FB
:10D6D000D4F8D050042D01D0082D4ED1D4F8C43048
:10D6E0000C2B62D8B8F1000F45D02E1D760106AA8A
:10D6F00004ABCDE90032029707A905AB0022204612
:10D700000596FCF747FF00283CD1069B0498D4F807
:10D71000C42023F00303083304F184091844920061
:10D720004946FFF7D9FDD4F8C400069A04992B1D89
:10D730009E0002EB800200964B4620460692FFF7C1
:10D74000A3FE054650B9B8F1010F33D00346224677
:10D750004946204600F050F8B0B105462046E42185
:10D76000FFF7C0FD38464FF4BF51FFF7BBFD284619
:10D770000FB0BDE8F0836E01B9E71B4D28460FB02E
:10D78000BDE8F083194DE9E7D4F8D430012243F025
:10D790000103C4F8D430C4F8CC2000234846C4F8B0
:10D7A000C4304021FFF79EFDDCE7114D28460FB045
:10D7B000BDE8F08331462046FFF794FD2B46224614
:10D7C0004946204600F018F80028C6D1D4F8D430D5
:10D7D000084AC4F8CC8023F4803343F00103C4F832
:10D7E000D430C4F8DC20D8E7210CF000260CF0007F
:10D7F000040CF000CDAB2301F0B5054699B01F46EF
:10D8000000230E46144605A819460322D5F8D05029
:10D81000FFF7C4FB38BB0146AD00082303AA05A8E7
:10D82000CDE90345FFF712FCE8B9611905A8FFF738
:10D83000F5FBC0B937B923461022314605A8FFF7DA
:10D84000FBFA80B905F1100302A901910094194671
:10D85000324605A80293FFF72DFB044B002818BFA2
:10D86000184619B0F0BD014819B0F0BD360CF000F3
:10D870002DE9F84F1E460A9B002B6AD00D46002961
:10D880006FD0044600287DD0022E5ED816B10B9BC7
:10D89000002B79D0D4F8B872B7F5107F4CD8D4F8F3
:10D8A000BC127B1C994247D895F80090B9F1070F3C
:10D8B00053D8B9F1050F50D009F006030737022BF2
:10D8C0004FEAD7073CD07B00013393423BD10A9803
:10D8D00007F1030B4FF45D7100F1040A2BF003080C
:10D8E000FFF700FD414650463B466A1CF9F78EFFA4
:10D8F000002838D14FEA9B0B5B46594622465046DA
:10D90000F9F76AFE022855D119F0040F3ED10A9B9F
:10D91000214603F194004FF43772FFF7DDFC4946CE
:10D920005046FBF701FF0446002845D1022E45D0A2
:10D930000A9A264B13601CE0254C2046BDE8F88F60
:10D940007B1C9342C3D0234CF7E7234C2046BDE811
:10D95000F88F224C2046BDE8F88F214C2046BDE8C8
:10D96000F88F204CE9E7204C0A984FF45D71FFF7DF
:10D97000B9FC0B9B002BE0D04FF463711846FFF706
:10D98000B1FCDAE7194CD8E7194CD6E70A9B7A1CA8
:10D990004C334146184698462A443B46F9F736FF31
:10D9A0000028E0D140465B4659462246F9F714FE6E
:10D9B0000228ACD00C4CC0E70E4CD5E70B99504672
:10D9C000FBF718FE0028B3D00446CDE7010000ECB9
:10D9D0009508F0000F08F0001108F0000E08F000A4
:10D9E0000708F0000D08F0001008F0000208F00031
:10D9F0001208F0003008F0002DE9F04F89B01D4604
:10DA0000149BDDF84CA004460E4617464BB94FF068
:10DA10008053D3F8002C013200F0A980D3F800BC69
:10DA200008E04FF08053D3F80C2C013200F0A280B4
:10DA3000D3F80CBC7C480AF5C1622A60129A002314
:10DA40004FF0FF311360FFF76DFC002840F0868037
:10DA5000764A774B77491060043219601368069351
:10DA6000069BD907FAD5714A714B002111601B68DA
:10DA70000793043213680793079BDB07FAD56C4BB7
:10DA80006D4A1B680793DDF81C9013680793079B8A
:10DA9000D807FAD56448FFF75FFC00285AD1654BD8
:10DAA000994540F0B680D4F8D43013F400790ED103
:10DAB000D90512D52B68129A1B6813603BB1D4F8B4
:10DAC000D4309B055BD5484609B0BDE8F08FDFF840
:10DAD0007C91484609B0BDE8F08F002F00F08780A8
:10DAE000564A574B1168B2681B689A4245D10A29B9
:10DAF00043D194F8DB3005930AF5C26A0425002768
:10DB00004FF0805804A8FCF7D3FD0498820602D594
:10DB100010F01A0039D0D4F8D810059A0B0A03F483
:10DB20007F030B4323F07F43082AC4F8D83077D013
:10DB3000149B4FEA420CCDE90073002205AB31463D
:10DB40002046CDF814C000F0DBF800285FD1013D7D
:10DB5000D8D1B4E73B48FFF74DFBA0E73A48DFF8E0
:10DB6000F090FFF747FB484609B0BDE8F08F4FF053
:10DB7000900B5FE74FF4047B5CE7DFF8D890FCF78D
:10DB80007BFD484609B0BDE8F08F129B5246C3F8B2
:10DB900000B05946FCF7A4FC002838D1D8F8043C62
:10DBA000129A013318BFD8F8043C116808BF5123FA
:10DBB0000293D8F8083C01332ED0D8F8083C0393E0
:10DBC0004B1EB3F5047F0FD2029A02915046FCF728
:10DBD000EDFC48B90299039A4FF480635046FCF774
:10DBE00017FC00283FF46BAF129B1F6093E723F0F4
:10DBF0000F03C4F8D430149B0122CDE900933146C1
:10DC000005AB204600F07CF800283FF475AF814654
:10DC100055E7DFF83C9056E740F237330393CFE700
:10DC2000DFF834904BE700BF9C8C002004BF02500B
:10DC300000BF025012FA12FA08BF025038B1025067
:10DC400030B1025044D003002CD00300330CF0005C
:10DC5000350CF000300CF100320CF1002DE9F041F0
:10DC60000546D0E917301E1AB6FBF3F403FB146423
:10DC7000944228BF1446174688469CBB984224D03D
:10DC8000B7FBF3F403FB04F46CB1D5F8E83022469B
:10DC9000414628469847064610B93E1BA0442EB977
:10DCA0003046BDE8F0813E46002EF9D0286E19308E
:10DCB00005EB800032464146FFF70EFB2A6E3244E8
:10DCC0002A6600263046BDE8F0811A4605F1640157
:10DCD000D5F8E8302846984706460028E0D1EB6D95
:10DCE0002866CDE705F1640318442246FFF7F4FAED
:10DCF000D5E917302044A0443F1B2866BEE700BF8B
:10DD0000002877D0F8B50C46002971D01D46002BAD
:10DD10006ED0064622B1012200232A60C0F8D83016
:10DD20002B68002B62D029462046FCF705FC002812
:10DD30005BD128682146FCF70FFC002855D1364BF3
:10DD40003649374A01271F609C460F60CCF80070A7
:10DD5000A368136011688B42F8D1324F3249334ABD
:10DD6000334B4FF0000CC7F800C004270F600A21A6
:10DD700011606FF03A021A60079B012B4FF080533D
:10DD80003AD0D3F8002C013243D0D3F8002C294BE1
:10DD9000A3FB02321209A368274C2849284F03FB32
:10DDA00002F303EB4303DB039B092360254B2C6841
:10DDB0000C601A60069A244C3A604FF4806222602C
:10DDC00001224FF0FF3441F8C44C43F80C2CD6F834
:10DDD000D8302A6823F07F4343EA0263C6F8D8307C
:10DDE0002A6843EA0223C6F8D830F8BD1748F8BDC0
:10DDF0001748F8BD16487047D3F80C2C013206D0EE
:10DE0000D3F80C2C0B4BA3FB0232FA40C3E71622CB
:10DE1000C1E70622BFE700BFC4B1025040B10250C3
:10DE200030B102502CB102500CB1025038B1025046
:10DE300000B10250ABAAAAAAD8B10250CCB102508C
:10DE4000D0B10250D4B1025008BA0250310CF100E6
:10DE5000350CF1002DE9FC410025DFF89480009598
:10DE60004FF4807601242F460195304606F098FE47
:10DE700038B1D8F80403204203D0304606F086FEBD
:10DE80002543361D64007F1CB6B2082FEDD34FF436
:10DE9000BE74204606F084FE48B1204606F076FEA9
:10DEA00045F000456A460221002006F0D7FD15F036
:10DEB000FF0F16D0012600242E420ED008EB84015D
:10DEC000D1F81005D1F81015C0F30520094AC1F3A7
:10DED000014152F8242002B190477600641C082CBE
:10DEE000EAD3002D02DA684609F028FFBDE8FC817C
:10DEF00000600040A863002070B54FF48076304683
:10DF000005F0A4FC114CB50560B1304605F0A5FC48
:10DF10000120C5F80803607920B9012060712168EB
:10DF2000002088474FF48276304605F08FFC0028A9
:10DF30000AD0304605F091FC0220C5F8080321689C
:10DF4000BDE870400120084770BD0000642D00202E
:10DF5000064882B000210160006800900448006813
:10DF60000449C0B2496802B00847000000D100402F
:10DF700008D50040742D002002490248091F096895
:10DF800000680847C02D002007F02EBC70B54FF088
:10DF900080520124D2E94C100023082906D1CD0675
:10DFA000C5F80C31C5F810315E4D2B60082955D1EC
:10DFB0005D4D2D685D4E35605B4D2D1D2D68361D08
:10DFC0003560594D08352D68361D3560564D0C3578
:10DFD0002D68361D3560544D10352D68361D356061
:10DFE000514D14352D68361D35604F4D18352D684F
:10DFF0004E4E203635604C4D1C352D68361D356033
:10E00000494D20352D68361D3560474D24352D6826
:10E01000361D3560444D28352D68361D3560424D1E
:10E020002C352D68361D35603F4D30352D683F4EFF
:10E03000403635603C4D34352D68361D35603A4DDF
:10E0400038352D68361D3560374D3C352D68361D09
:10E050003560354D40352D68361D3560082904D1B1
:10E06000050002D1334E324D3560082904D1050038
:10E0700002D1314EFB253560082908D1050006D1B3
:10E0800092F858622D4A156866F303051560082951
:10E0900004D1020002D12A4D8A012A60082906D142
:10E0A00028480168C90702D06FF0010101602648C5
:10E0B000016841F470010160BFF34F8FBFF36F8FB0
:10E0C0004FF01021D1F80002002803DBD1F8040240
:10E0D000002822DA1D4A14601D480468002CFCD078
:10E0E0001224C1F800420568002DFCD0C1F804429A
:10E0F00001680029FCD0136001680029FCD0BFF33F
:10E100004F8F11487C380168124A01F4E0611143D5
:10E110000160BFF34F8F00BFFDE710490E48086054
:10E1200070BD0000380500400404001020C5004008
:10E13000488103008C56004018F50040E40E004072
:10E14000409602400004004088ED00E004E50140F4
:10E1500000E401400400FA050090D003802E002066
:10E1600001480068004700006C2D002002E008C84C
:10E17000121F08C1002AFAD170477047002001E041
:10E1800001C1121F002AFBD1704700000121202885
:10E1900003DA81400548014003E0402802DA2038D4
:10E1A000814009B10120704700207047FC06FFBD87
:10E1B0002DE9F843804643F2020659B9694608F052
:10E1C000ADFFB04202D008B100F0C6F99DF80000E2
:10E1D000800744D40021404608F0AAFF05003ED045
:10E1E000112D3CD01F482049401AC708022000EBDF
:10E1F00007440D2D0AD00B2D1DD0B5421FD11B4950
:10E2000020464246BDE8F84306F0D0BE20464246CE
:10E21000174906F0CBFE1321404676DF00281ED0BA
:10E2200007F09EFB024601B020464346BDE8F0439E
:10E2300010A106F0C2BE204642461C49E2E728462D
:10E2400007F08EFB0246012000EB0740434618A171
:10E2500006F0B3FE2846BDE8F84300F07DB9BDE8FE
:10E26000F883000070F0030028F0030050B40300AE
:10E27000DCB3030073645F626C655F6761705F6449
:10E280006973636F6E6E6563742829207265747597
:10E29000726E6564202573206F6E20636F6E6E5FF3
:10E2A00068616E646C652025642E00009CB40300D8
:10E2B000417373657274696E672E20706D5F636F52
:10E2C0006E6E5F736563757265282920726574755B
:10E2D000726E6564202573206F6E20636F6E6E5FB3
:10E2E00068616E646C652025642E000010B560B115
:10E2F00059B102780B785208B2EB530F05D10622C0
:10E30000401C491CF9F7ECF808B1002010BD0120B1
:10E3100010BD800701D00020704701207047C368FE
:10E320008B4206D811440069491E814201D8012060
:10E3300070470020704790F82400012801D01F206A
:10E340007047EE20704710B501220221002001F035
:10E35000A1FE08B1072810D107220221012001F0F7
:10E3600099FE08B1072808D100210A22084601F0C9
:10E3700091FE08B1072800D1002010BD10B560B192
:10E380000B480C49401AC008032101EB00400AA1C8
:10E3900006F008FE09F048FC03E003210A4800F0FB
:10E3A000C2FE002803D0BDE8104000F0D5B810BD73
:10E3B00000F1030028F00300457261736520626F6D
:10E3C0006E647321000000009C2F002070B58CB09B
:10E3D00015460E4600236C46C3F10F01415CE15423
:10E3E0005B1C102BF8D30D2104F11000F9F766F82F
:10E3F0000020C0F10F02315C2244401C117403283C
:10E40000F7D3684646DF0020C0F10F01214491F8A0
:10E4100020102954401C0328F6D30CB070BD0220F4
:10E4200001F03ABD0149C97801F0EEB8D82C0020BE
:10E4300070B50024064D06E06868012110F834002C
:10E4400007F002FB641C28788442F5D3002070BDDD
:10E45000802D0020F8B516460C4605460A2A01D242
:10E460000720F8BD07F0E8FB18B907F0A9FB002862
:10E47000F7D1134F202113487D603C70BE60F9F73F
:10E480001DF80020C7E904000F4E0DE005EBC400A5
:10E490003168009181788DF8011000780B4A694647
:10E4A00007F01EFB0028DCD1641EE4B2EED2BDE80A
:10E4B000F84005480021064A001D00F063B800003E
:10E4C000802D00208864002038A80300291F030045
:10E4D000090D030072B606F01DFE00BF06F046FCF3
:10E4E0000028FBD111481249401AC408012000EB52
:10E4F000044010A106F056FD11480068C00700D086
:10E5000000BE022000EB04400EA106F04BFDBFF35D
:10E510004F8F0B48E43801680E4A01F4E061114363
:10E520000160BFF34F8F00BFFDE7000000F1030063
:10E5300028F00300466174616C206572726F72008E
:10E54000F0ED00E053797374656D20726573657446
:10E55000000000000400FA050EB500210091CDE98D
:10E5600001106A4644F20100FFF7B4FF0EBD401AE5
:10E5700020F07F4070470000014802F02CBC0000F2
:10E58000A02D00203AB100680129426100D000218D
:10E5900001610020704707207047000038B511481E
:10E5A00008235822416800910F49006804F06FFD6C
:10E5B000002815D10D4A69460D4802F011FC0400EF
:10E5C0000ED101210A4802F086FC0123094A1946AE
:10E5D000074802F0D8FB0649012008390870204698
:10E5E00038BD000040A80300B8640020C9850300BE
:10E5F000A02D0020FFFF7F0070B50446007F0D4670
:10E6000008B1002070BDA26103F074FC401941F113
:10E610000001C4E90201206900B125612146BDE87D
:10E62000704000200BF024B901460020087701203B
:10E630000BF01EB930B5EFF3108172B60D4A946835
:10E64000012324B10370002900D162B630BD93606C
:10E650004FF0E023D3F88051074C25401560C3F8F4
:10E660008041D3F8844154605A17C3F884210022B2
:10E670000270E8E710650020FC06FFBD0B498A68C0
:10E68000002A11D000280FD1EFF3108072B60B686A
:10E690004FF0E022C2F800314B68C2F8043100228A
:10E6A0008A60002800D162B6704700001065002023
:10E6B00010B5144C00224FF400412068FFF79CFF76
:10E6C00008B1FFF749FF00224FF480416068FFF76F
:10E6D00093FF08B1FFF740FF002241F23331A068F9
:10E6E000FFF78AFF08B1FFF737FF00224FF4A03190
:10E6F000E068FFF781FF002803D0BDE81040FFF776
:10E700002BBF10BD28A4030070B5054608680C4651
:10E71000411C04D006F013FA206806F073F9606813
:10E72000411C02D0002106F05BF92968A069C1F8FC
:10E730002405607D227D29681043C1F86C05D4E969
:10E7400000122868C0F81425C0F80C15207D012897
:10E7500014D1A068411C02D0002106F041F9E06804
:10E76000411C04D006F0EBF9E06806F04BF9D4E95F
:10E7700002122868C0F80825C0F8101570BD70B5E1
:10E78000054608680C46411C04D006F0E2F92068F2
:10E7900006F042F96068411C02D0002106F029F918
:10E7A0002968A069C1F82405607D217D2A68084395
:10E7B000C2F86C05D4E900122868C0F80C15C0F83E
:10E7C0001425207D012814D1A068411C02D000210D
:10E7D00006F00FF9E068411C04D006F0BAF9E068D1
:10E7E00006F01AF9D4E902122868C0F80825C0F822
:10E7F000101570BD04F020B92DE9FC5F04464FF000
:10E8000008084FF00109694603F068FD02004F480F
:10E810004F49A0EB01004FEAD0014FF0020000EB9E
:10E8200001450AD0104607F09BF8024628462346C9
:10E83000484906F0C2FBBDE8FC9FDFF81CB1DBF8DD
:10E840000000FFF7F1FE28B107F08AF802462846DB
:10E8500042A177E0FFF790FE484E3168FFF787FE50
:10E8600000F066FA0446FFF787FEDFF814A10027E0
:10E87000C6F8000007EB87000AEB8006B07C58B3AF
:10E880000622711C0DF10100F8F72AFE18BB307C3E
:10E890004FF47A6101FA00F2B2F57A4F00DA401CC7
:10E8A000307400228140C817B260C20342EA51426C
:10E8B000C8034FF47A71401842F100014FF4FA6234
:10E8C0000023F8F78FFDF060A04200D80446012035
:10E8D00070744FF0000900E0B8467F1C082FC9D3C0
:10E8E000B9F1000F1FD0B8F1080F18D208EB88015A
:10E8F0000AEB810000990160BDF8041081809DF849
:10E90000061081710021017481604FF48031C16073
:10E910008C4200D30C4601214174817403E019A19B
:10E92000284606F03FFB601C85D022461146DBF8E6
:10E930000000FFF761FE0028F6D007F011F802464C
:10E940001AA1284606F032FB75E7000028F0030004
:10E9500028F003003CAC03006CA403006170705FFE
:10E9600074696D65725F73746F70282920726574A5
:10E9700075726E656420257300000000242C002051
:10E98000903400204E6F20737061636520746F2097
:10E99000626C61636B6C69737420616E6F7468651F
:10E9A0007220706565722049440000006170705FDC
:10E9B00074696D65725F7374617274282920726561
:10E9C0007475726E6564202573000000024A002190
:10E9D0000248FFF7D7BD0000BDEC02006CA40300A5
:10E9E0002DE9FC410446694603F078FC70B106F05D
:10E9F000B7FF0246124813492346401AC0080221B5
:10EA000001EB0040104906F0D8FA11E00F4E002447
:10EA10004FEA0D0704EB840006EB8005A87C50B19B
:10EA20000622691C781CF8F75BFD20B9687C10B1E0
:10EA30000120BDE8FC81641C082CEBD30020F8E722
:10EA400028F0030028F003003CAC030090340020C1
:10EA50002DE9F047814605884A484FF000088AB002
:10EA600001784246284600F0E7FD99F80500400786
:10EA700001D4002176E005F58077B8B205AB01221C
:10EA8000072107F09FFF04003F48404A4FF0010173
:10EA9000A0EB02004FEAD00001EB00460AD020466E
:10EAA00006F05EFF024630462B46394906F085FAED
:10EAB000214629E0284603F051FD4FF6FF71044638
:10EAC00088422BD18A46069803F0B2FC0446504592
:10EAD00010D00146284603F021FD2846FFF7A2FC8E
:10EAE000E0B928460AF04EF82846FFF79BFC0028BC
:10EAF000BFD013E008F03CF90446504508D1304639
:10EB000024A106F04FFA042128460AF069F8B0E77C
:10EB10000146284603F002FD4FF00108B8B2224634
:10EB2000072107F0C7FF07001BD0862F1ED006F075
:10EB300017FF024630462B462349009406F045FA5B
:10EB4000394628460AF04CF80021484607F032FEC4
:10EB5000B8F1000F02D0204603F0EAFC0AB0BDE88D
:10EB6000F0870121484607F025FEF7E714221749F0
:10EB70006846F8F77BFCADF80250684602F0CCFB23
:10EB8000EFE70000D82C002078F0030028F0030005
:10EB900098B70300436F756C64206E6F7420616CCE
:10EBA0006C6F63617465206E657720706565725F58
:10EBB000696420666F7220696E636F6D696E67208D
:10EBC000626F6E642E00000064B80300A8A5030005
:10EBD00070B5044690B0087B0D468DF838002021B2
:10EBE00005A8F8F76BFC42F61920ADF814000120D7
:10EBF000ADF81800ADF81A000EA80790617C9DF8DA
:10EC00002100A21D61F3041040F002008DF82100E4
:10EC1000A87B8DF82700687B8DF82500A08805A9C2
:10EC200001F01EFD00281CD1A968E1B10FA801F078
:10EC3000E8F8064614216846F8F740FC42F608104A
:10EC4000ADF80000E87B8DF806000FA8ADF80A606B
:10EC5000ADF80E600490E08804F10E02694601F000
:10EC6000FDFF10B070BD0020E081FAE710B50D493E
:10EC70000D480AF02CF8C1B24FF6FE720B4800F0B6
:10EC80006BFB00280DD008280BD0132809D01128C1
:10EC900007D043F20141884203D0BDE81040FFF79E
:10ECA0005BBC10BDD0330020E82B0020682F002073
:10ECB0000A4601461046AEDF7047000010B500F06E
:10ECC00037F80446FFF758FC0D490860601C16D061
:10ECD0000C48224611460068FFF78EFC00280ED033
:10ECE00006F03EFE024608480849BDE81040401ABA
:10ECF000C008022101EB004005A106F057B910BD84
:10ED0000242C00206CA4030028F0030028F003004A
:10ED10006170705F74696D65725F7374617274287D
:10ED2000292072657475726E656420257300000079
:10ED3000F0B5044600221C4E4FF0FF3013464FF44E
:10ED4000203500BF02EB820106EB81018F7C27B3E7
:10ED50004F7C7FB1CF68A74205D93F1BCF60874268
:10ED60001BD8384619E04B740F7CD7B1A84214D396
:10ED7000284612E00F7CA7B18F6827448F60AF420E
:10ED800006D30F7C7F1E0F748F68A7F520378F6026
:10ED9000C7F52031814200D80846521C082AD1D339
:10EDA000F0BD8B74F9E70000903400202DE9FC479A
:10EDB000002517880646158090F82D0014468946D0
:10EDC00030B13A462146484600F05CFC051E09D1A8
:10EDD000B0784FF00C0A18B32088C846001DB8421E
:10EDE00002D95046BDE8FC87684679DF0028F9D192
:10EDF0002088032108F8001020881921401C80B2C7
:10EE0000208008F800102088401C80B2208000EB91
:10EE10000801BDF800000AF032FF21880844208074
:10EE2000F0780222C8B1218896F9033001F1030C71
:10EE30004846BC45D5D8425421884FF0010C491CA6
:10EE400089B2218000F801C02188491C89B2218043
:10EE500009F801302088401C20807068B8B12188F2
:10EE600090F9003001F1030C4846BC45B9D8425432
:10EE700021880A22491C89B2218042542188491CD8
:10EE800089B2218009F801302088401C2080308917
:10EE900050B1CDE900474B460622022106F1080099
:10EEA0000AF0DCFF051E9DD1308A50B1CDE9004744
:10EEB0004B460722032106F110000AF0CFFF051E82
:10EEC00090D1308B50B1CDE900474B46152214212B
:10EED00006F118000AF0C2FF051E83D1306A30B176
:10EEE0003B462246494601F06CFD051EDBD1706AA7
:10EEF00030B13B462246494603F0A4FF051ED2D15D
:10EF000096F82C0038B13B462246494630460AF076
:10EF100013F8051EC7D1307838B13B462246494622
:10EF2000304604F01DF8051EBDD128465AE718B535
:10EF300004460020ADF8000013466A46204600F063
:10EF400006F8002802D0BDF80000204418BD70B5B6
:10EF5000E0B1DAB1002402E0045D2C44A4B2651CE7
:10EF60008D4206D21688A642F6D8061976789E42B9
:10EF7000F2D18C420AD2A31C005D9BB200B1401EAC
:10EF80000004000C02D01C188C4201D9002070BD76
:10EF9000138070BD80F8301070472DE9F0410D00EE
:10EFA000044606D02CB195F87A000026012803D03B
:10EFB00006E00E20BDE8F08195F89800012821D0E8
:10EFC0004FF00108A6702C2205F17801201DF8F7FA
:10EFD0004DFA84F83060D5F8A4006063D5F8A80035
:10EFE000A0634FF6FF70A4F8240404F58260C4F80F
:10EFF0002004C4F82664A4F82A6484F82C642078D9
:10F0000010B104E00720D5E7FF2084F8540004F194
:10F0100055072046C4F81074FFF78DF9A4F81404BE
:10F0200004F2144239462846FFF7C0FE0028C1D139
:10F0300004F23120C4F818042046FFF77CF9A4F844
:10F040001C0404F21C4205F13C00D4F81814FFF72C
:10F05000ADFE0028AED184F85180208BA4F8480082
:10F0600084F83C80266484F8506060690021606404
:10F07000454604F13C02781E72DF00289AD12570C3
:10F0800098E710B50288102A1BD0112A20D0262A12
:10F090001DD1007A0C46012801D0022817D1A07892
:10F0A0000521401CB0FBF1F201FB1201204600F0EB
:10F0B0003AF800280BD0A16B002908D0BDE8104019
:10F0C0000847C27B012A02D18088A1F8240410BD20
:10F0D0000C46002184F82E148088B4F82414884249
:10F0E000F5D120790028F2D10121DFE710B50446DF
:10F0F00090F8540074DF012084F82E04002084F876
:10F10000300484F850000621204602F03EFB00281F
:10F1100008D1A178204600F006F810B1A16B01B12A
:10F120008847002010BD2DE9F05F044600780F46A7
:10F1300098B1A7700025C4F82654A4F82A5484F87E
:10F140002C54A079012608B1012F09D0E07980B1B3
:10F15000012F05D0022F03D00BE00820BDE8F09F5F
:10F16000616B21B184F82D640820884701E084F8A0
:10F170002D5404F2274100200A5C0AB1304603E016
:10F18000401C0628F8D300204FF002084FF0030B74
:10F19000012F06D0022F0CD0032F0FD0042F15D132
:10F1A00010E0A17929B194F8241011B908B13046C2
:10F1B0000DE0E17911B108B1404608E0207A08B1CC
:10F1C000584604E0607A08B1042000E02846A070A8
:10F1D000616B41B1032801D0042804D1607910B1DA
:10F1E00094F82E0498B184F82F5404F13C001821AF
:10F1F0000746F8F763F984F83C6004F12C0007F047
:10F20000E9FE58B194F82C0084F8510008E084F825
:10F21000305484F82F6407208847E6E784F851606B
:10F2200094F8240058B104F1280007F0D3FE20B16F
:10F2300094F8280084F8520001E084F8526084F8C1
:10F240005050A27804F2264104F582694FF0060A74
:10F25000052A64D2DFE802F07C030F22420084F822
:10F260003160C4F82054C4E9101584F83C80802033
:10F27000A4F8480055E084F8318094F824203846FA
:10F2800012B10722027001E080F800B0228A828168
:10F29000C4F820544160E168B96042E06069B86038
:10F2A000208BB88194F824003D460028204602D0E7
:10F2B00084F83CA001E084F83C600AF09BFD50B16A
:10F2C00085F814800421204602F05FFA38BB05213E
:10F2D00084F8311021E084F831B01EE0E069B860B4
:10F2E000208CB88194F824003D460028204602D0A6
:10F2F00084F83CA001E084F83C600AF07BFD48B152
:10F3000085F814800421204602F03FFA38B984F8C9
:10F3100031A002E0042084F83100C4F82094A078E1
:10F3200078B13A4604F15400D4F8201472DF002872
:10F330007FF414AF94F8301094F8540073DF002871
:10F34000F6D1616B11B194F831008847002005E7D0
:10F3500084F83150F5E70000F7B594B01746050082
:10F360003CD0287C9DF854100024884252D00026BE
:10F370004FF0010E0D9615A8ADF834E00E90ADF8E3
:10F380003660E9880DAA4FF6FF70ACDF040026D185
:10F390009DF854002874687CA0B30F9610961196BF
:10F3A0001296E888ADF83C00BDF83600ADF8400094
:10F3B0000DA811900E981290A7F57F408DF83EE0B1
:10F3C000FE3805D039460FA8FFF772FC044621E04D
:10F3D000684600F09DF800256F460FE00E2017B03C
:10F3E000F0BD00BF07EB4506B08800F0EFF802283B
:10F3F00003D144B10FA9B088AEDF6D1C0098A842BC
:10F40000F0D807E005E0B1880FA8FFF751FC0446EB
:10F41000F3E708242046E2E738B50D46040018D08B
:10F42000BDB12868206028796074FF202074012015
:10F430008DF8020041F60F00ADF80000221D69466C
:10F440000120A8DF002803D129462046FFF7C0FB92
:10F4500038BD0E2038BD38B5002924D0002822D070
:10F460000288502A1FD10546487C0C4600281AD035
:10F47000E9886289A81D914215D14189022912D1DA
:10F48000216800290FD00C3000F0B7FC08B1002033
:10F4900000E001208DF80000A888ADF80200226885
:10F4A00069462046904738BD70B5040012D0014629
:10F4B0001C221448F7F7DAFF1248134D0560206844
:10F4C00050B17ADF002806D12068016829604068C1
:10F4D000686005E00E2070BD0B487BDF0028FAD184
:10F4E00008484FF6FF711438084A20F8041B0549F4
:10F4F000343901600021FFF745F80028EBD00320E4
:10F5000070BD000064350020282C00208D9D030074
:10F510000149496801F036BA8035002010B504462B
:10F5200000F0A6F8002805D02146BDE810400248AA
:10F5300003F02CBE10BD00009035002070B51546BC
:10F540000E4604460AF062FC002809D0054800EB8C
:10F550008400C0692A463146BDE8704002F042B9D5
:10F5600070BD00008035002010B5044600F080F822
:10F57000002805D02146BDE81040024803F006BE31
:10F5800010BD00009835002010B5044600F070F85A
:10F59000002805D02146BDE81040024803F0F6BD22
:10F5A00010BD00009435002070B50546002400F021
:10F5B0005FF838B12946044803F0E8FD08B1022499
:10F5C00000E00124204670BD8C35002070B5054652
:10F5D000002400F04DF838B12946044803F0D6FD68
:10F5E00008B1022400E00124204670BD88350020C7
:10F5F00010B51821034803F0A4FD182800D0C0B2AC
:10F6000010BD00008035002070B505460C46084648
:10F610000AF0FCFB60B1284600F02AF840B105482A
:10F62000294600EB8400BDE870401C3003F0AEBDFD
:10F63000002070BD8035002070B5054616460C468A
:10F6400008460AF0E3FB00280ED0284600F010F828
:10F65000002809D00548324600EB84002946BDE861
:10F6600070401C3002F08CB870BD00008035002066
:10F67000142801D3002070470146014803F086BDDD
:10F68000843500207CB5054608880C460930904238
:10F6900001D90C207CBD68466DDF0028FAD1218895
:10F6A0000820685420881B21401C80B220802954E7
:10F6B0002088401C80B220802844DDF801100160C1
:10F6C000BDF8051081802088801D80B220809DF8C3
:10F6D0000010490800D0012129542088401C2080B6
:10F6E00000207CBD1FB5044601208DF8060041F6C0
:10F6F0000A00ADF80400494A01A90120A8DF00284A
:10F700007DD122885AB14548801C009094F83C3045
:10F7100042F62920616800F073FF00287BD122891E
:10F720005AB13E480A30009094F83C3042F624200A
:10F73000E16800F065FF00286DD1228A5AB1374890
:10F740001230009094F83C3042F62520616900F0B8
:10F7500057FF00285FD1228B5AB130481A300090F1
:10F7600094F83C3042F62720E16900F049FF002878
:10F7700051D1228C5AB129482230009094F83C3063
:10F7800042F62620616A00F03BFF002843D1228D1B
:10F790005AB122482A30009094F83C3042F6282092
:10F7A000E16A00F02DFF002835D1216B79B102A864
:10F7B00009F0D4FF194808223230009094F83C3008
:10F7C00002A942F6232000F01BFF002823D1606B22
:10F7D00060B112493A3100910279016894F83C30E5
:10F7E00042F62A2000F00CFF002814D1A16B89B149
:10F7F00002A808F088FA09484230009000E00AE0C8
:10F8000094F83C30072202A942F6502000F0F8FE9E
:10F81000002800D1002004B010BD0000F22C002010
:10F820003EB5044601883048304A801AC008032299
:10F8300002EB0040182941D00ADC2D4D102913D0CD
:10F84000112925D013292AD0172928D129A136E03A
:10F85000192939D0212923D03B292BD056291ED153
:10F86000A088132176DF0DE02AA105F09BFB07207D
:10F8700000F032FC08B1FEF76FFEA18869802848CD
:10F8800003F06CFF00280AD0BDE83E40FEF764BEDE
:10F89000227A24A105F08AFB4FF6FF7068803EBDF6
:10F8A00000200090A08869468FDF0028F7D0FEF77F
:10F8B00053FE3EBDA088132176DFE3E720A103B00D
:10F8C000BDE8304005F06EBBA37A617B227BC3F3B9
:10F8D000C0030093CDE90121617A227AC1F380034C
:10F8E0001F4905F085FB3EBD00F1030028F0030031
:10F8F000E02B0020424C455F4741505F4556545F26
:10F90000415554485F4B45595F52455155455354F5
:10F9100000000000436F6E6E65637465642E000026
:10F92000902F0020446973636F6E6E656374656425
:10F930002C20726561736F6E2025642E000000001C
:10F94000424C455F4741505F4556545F4C455343D9
:10F950005F44484B45595F5245515545535400004B
:10F96000E4AB030010B51A4C0188606810290ED072
:10F9700011292BD1401E606028D1FEF7E4FC00283D
:10F9800024D02168002921D0BDE810400847D0B913
:10F9900000210122084600F07DFB08B107280FD1A5
:10F9A00007220221012000F075FB08B1072807D1CA
:10F9B00004220221002000F06DFB20B1072802D0B4
:10F9C000216801B188476068401C606010BD00007C
:10F9D0001C2C00202DE9F04701883B4E40F2F31922
:10F9E0004FF6FF7510291BD011293ED0122954D093
:10F9F000502946D1C188F289841D914241D1618943
:10FA000002293ED18688304602F056FE050038D0E5
:10FA100004F10C0000F0F1F9A8B3294630464EE09D
:10FA2000C17B8788044601292BD1A846284602F0CD
:10FA300043FE050017D02F8000202872234843463C
:10FA40004A460168C5F80A104068C5F80E0004F17E
:10FA5000100105F10A0002F0F3FE6872F089002837
:10FA60000FD129462AE0042013E0808802F024FE0A
:10FA7000040006D06068FEF7D7FD08B109F094F8DD
:10FA80002580BDE8F087FFE76868FEF7CDFD002818
:10FA9000F7D0BDE8F04709F087B8878806463846B2
:10FAA00002F00AFE0400ECD02B464A4606F108019B
:10FAB00004F10A0002F0C4FE607221463846BDE837
:10FAC000F04700F0C5BF000064350020282C00205E
:10FAD0002DE9F04F044686880188424897B0834656
:10FAE00010290CD0112950D0103019296AD01A29A8
:10FAF00074D1217A0C09042C4DD301224CE0394DEC
:10FB0000083DA868C0430B9069680BA803F062FB2E
:10FB10000B990CA800F036FF2C220CA96846F7F7C9
:10FB2000A5FC0027E946A84610E000BF09EB470006
:10FB30005FF00005B0F804A008EB85005146001DF9
:10FB400003F0E4FA6D1C1E2DF6D37F1C0098B8421A
:10FB5000ECD8142E05D317B00420BDE8F04FFEF703
:10FB6000FBBC3146584603F01CFB314608F104004B
:10FB700003F017FBE07B022830D117B03146BDE817
:10FB8000F04F1848001D03F00CBB17B03146BDE81C
:10FB9000F04F03F0BBBA0022314601F0F1FD032C17
:10FBA00001D3012200E000220E4831460C3001F062
:10FBB000E7FD022C01D3012200E000220948314672
:10FBC000083006E0217A002908D1617AC1F3C00229
:10FBD000314617B0BDE8F04F01F0D2BD17B0BDE817
:10FBE000F08F00008835002010B5044607480078E3
:10FBF00000280AD0204602F08DFB204609F068FA62
:10FC00002046BDE8104001F079BF10BD682C0020EF
:10FC100030B50446008CC3B0A0F57F42FF3A23D034
:10FC20006A46204602F0EAFA0546ADF8F4000020E4
:10FC30003E903F90409041902189ADF8F81001210D
:10FC4000ADF8FC008DF8FA103DA84090CDF804D135
:10FC5000208C3EA9AEDF002804D1BDF8F410A942E3
:10FC600000D00C2043B030BD0820FBE7F0B50446BF
:10FC7000C7B008682060087960714FF6FF70208473
:10FC8000002084F82200A4F84C00F427012684F810
:10FC90004E708DF8166141F60D000D46ADF8140159
:10FCA000A21D45A93046A8DF002847D1202168467B
:10FCB000F7F704FC42F63720ADF80000ADF8047009
:10FCC00008AA0021204602F099FAADF8060008A81B
:10FCD00002908DF80C609DF80D0004F1080240F0D0
:10FCE00010008DF80D00287B8DF81300E088694620
:10FCF00000F0B6FC002821D1A868F0B120216846A8
:10FD0000F7F7DCFB42F63820ADF80460ADF80000F0
:10FD1000ADF80660A86802909DF80D0004F110028D
:10FD200040F002008DF80D00687B8DF81100E0882E
:10FD3000694600F095FC002800D1002047B0F0BDD6
:10FD400038B50288102A15D0112A15D0502A16D19C
:10FD500030F8062F8B899A4211D10C46418902292D
:10FD60000DD1216800290AD00C3000F046F838B1D6
:10FD7000002006E0808801E04FF6FF70088438BD5F
:10FD800001208DF80000226869462046904738BD62
:10FD9000028C4B889A4208D10A88A2F52063773BEF
:10FDA00003D10979C91E80F84E10704770B504461A
:10FDB000B0F84C000D4614280AD104F12601262281
:10FDC000881EF7F753FBB4F84C00401EA4F84C0013
:10FDD000B4F84C0004EB4001401CA4F84C008D84A6
:10FDE00070BD80F82210704770B504460D46084675
:10FDF000F7F76FFB2080656070BD007800F00100B0
:10FE000070470A78027049784170022070470000FC
:10FE10000149085C704700003CA40300084908B58C
:10FE2000085C0090684604F031FED0F81005009997
:10FE3000C84010F0010000D0012080F0010008BD92
:10FE40003CA403002DE9FC410646C0074FF0000525
:10FE50000ED0104F00240122385D0095002311467A
:10FE6000019504F047FD641C042CF4D300F04EF817
:10FE7000B0070DD5074E0024361D0022305D032348
:10FE800000951146019504F035FD641C042CF4D353
:10FE9000BDE8FC8138A40300094908B5085C00905E
:10FEA000684604F0F3FDD0F80425009B0121994039
:10FEB00021EA0203C0F808351140C0F80C1508BD4E
:10FEC00038A403000249085C012104F04CBE000084
:10FED00038A403000249085C002104F044BE00007D
:10FEE00038A40300084908B5085C0090684604F08F
:10FEF000CDFDD0F804050099C84010F0010000D0F5
:10FF0000012080F0010008BD38A4030010B50024D2
:10FF10002046FFF7D7FF641C042CF9D310BD10B5A1
:10FF200000242046FFF7D6FF641C042CF9D310BD33
:10FF300010B50246064B4FF0FF3000215C5C944246
:10FF400001D1084610BD491C0429F7D310BD00009B
:10FF50003CA4030070B50C4E0C004FF0000530605F
:10FF60000BD0012000F06AF808B1022004E0002064
:10FF700000F064F800B10B202070706810B9FEF733
:10FF8000E2F90546284670BD1C2C002010B5002063
:10FF900000F0DCF908B1062806D1012000F0D6F9FE
:10FFA00008B1062800D1002010BD00002DE9F0475F
:10FFB0000D468146FFF7BCFF0446042836D2DFF821
:10FFC00074801B481C4EA8F10C0725B3012D0ED0E0
:10FFD000022D2BD104EB440030444578002D25D070
:10FFE000B968002922D02846BDE8F047084704EB4D
:10FFF0004401755C0E44717849B10E4A4FF480415A
:020000040003F7
:10000000093A8068FEF7F8FA08B987F80390B178E2
:1000100008F80410E2E78068FEF706FB04EB4401F1
:10002000314418F804008D78A842D7D0BDE8F08795
:1000300040A40300182C002040340020042801D2E2
:10004000FFF7ECBE002070470146104810B540880D
:10005000042907D007290ED00A2915D1BDE8104080
:1000600009F022B8132176DF0CE000280CD0BDE89F
:100070001040FEF771BAA0F57F41FF3904D1044862
:10008000FFF734F80828F0D110BD0000E02B002065
:100090009C2F002070B50023042810D20D4D00EBDA
:1000A0004004012A02D101290CD00022094E00EBA4
:1000B0004000304461B1012906D0022906D007234F
:1000C000184670BD0E30C2B22A55F9E74270F7E704
:1000D0008270F5E740340020044A0146002012797E
:1000E000D20702D0084600F04DB870470C2C002013
:1000F00070B506461E480024C0E90161B00720D54E
:100100000025012211462846FFF7C4FF6D1C044656
:10011000042D02D2002CF4D013E094B940F2333213
:1001200004211448FEF796F904000AD1FEF780F97D
:10013000040006D10F48104A0021001FFEF722FAE2
:100140000446F00712D00120FFF77CFE74B909487D
:100150000A4A00210C38FEF715FA040006D10548BA
:10016000074A01210838FEF70DFA0446204670BD03
:100170000C2C00204CA4030059040300D5280300D4
:100180001FE402002DE9F05F6E4C05460026607802
:10019000B34618B184F801B002F084FB6A4F4FF403
:1001A0007A694FF4C87A4FF00108182D69D2DFE858
:1001B00005F00C1313384754696E727B727BC5844B
:1001C00084848484B3B6B9BCC5C502F06BFB3868BF
:1001D000FEF72AFA06465CE00020FFF783FE0028BF
:1001E0004FF0000008D0FFF76DFE022D02D14FF452
:1001F000E16008E0484606E0FFF76CFE022D01D101
:10020000C82000E05046410CC0034FF47A728018B9
:1002100041F10001257052000023F7F7E3F8014691
:100220002AE00020FFF75EFE00284FF0000004D017
:10023000FFF748FE4FF44870E5E7FFF74BFEDFE7B6
:100240000020FFF74FFE00284FF0000002D0FFF71C
:1002500039FECFE7FFF73EFED4E70020FFF742FE6E
:1002600000284FF0000002D0FFF72CFE01E0FFF75E
:1002700031FE257040F6CD4100223868FEF7BCF90A
:10028000064646E00020FFF707FE257008E0002044
:1002900051E025703DE084F801800120FFF7FCFD6E
:1002A000002240F26661E8E784F801800120FFF750
:1002B000F3FD00224FF40051DFE77868FEF7B4F950
:1002C0000646D5F1110000D02EB10220FFF7FAFD4D
:1002D00084F802B01DE0012816D980B2C821484335
:1002E000C117C90341EA5041C0034FF47A72801824
:1002F00041F1000152000023F7F774F80146002293
:100300007868FEF779F906460220FFF7E3FD84F8E6
:1003100002803046BDE8F09F02F0C4FAB9E702F06F
:10032000C1FAB4E702F0BEFA04E002F0BBFA002022
:10033000FFF7D0FD0120FFF7CDFDAAE7FFF7EFFDA6
:10034000A7E700000C2C002040A40300012109F0C5
:10035000EDBD00002DE9F84F0546861C00208DF804
:10036000000091460F464FF0010A6846FEF762F919
:100370001B4C04F21C4860683860D4E90101194F35
:10038000401A3968081A0EE00121404602F01CFFAD
:1003900002F034FC0146404602F016FFD4E90101A8
:1003A000401A3968081A401C8642EDD8B9F1000F8E
:1003B00003D0052065F3891002E0062065F39F5005
:1003C00061683A68114004EB8101C860606830449C
:1003D00060609DF80000FEF751F95046BDE8F88FC7
:1003E00060680020282E002070B50D4604460A29BA
:1003F00002D10D21FFF7F8FFA0682268411CA1601F
:100400001554D4E90101814204D32046BDE870406F
:1004100003F035BF70BD0000044881684068814228
:1004200001D1012070470020704700006068002063
:10043000034630B5074800210478426806E000BF53
:1004400002EBC10005789D4203D0491CA142F7DBB5
:10045000002030BD802D002000780221FFF7A6BDCE
:100460001CB5044602F07AF800236A46092106F01A
:10047000EBFB052805D10348012241792046FFF70F
:10048000DBF81CBD302C00201CB504460020009079
:1004900042F6A620ADF8000001208DF802000848C1
:1004A00001AA6946006801902046A0DF002805D116
:1004B0000448012281792046FFF7BEF81CBD0000E8
:1004C00070A40300302C0020084910B500200860FB
:1004D000BFF35F8FFCF75AFE01004FF0030004D119
:1004E000BDE81040084603F0A3BD10BD482D002014
:1004F00010B50548012102F082FEBFF35F8F08B1FD
:10050000002010BD012010BD482D002010B5054869
:10051000012102F074FEBFF35F8F08B1002010BD0F
:10052000012010BD482D002010B50548012102F022
:1005300066FEBFF35F8F08B1002010BD012010BD23
:10054000482D0020BFF35F8F0149002008607047ED
:10055000482D0020BFF35F8F0149002008607047DD
:10056000482D0020BFF35F8F0149002008607047CD
:10057000482D002010B50021084603F059FD002841
:1005800002D1FCF7FBFD002010BD000005494FF033
:10059000FF32082841F8202002D3084480F8582070
:1005A00070470000A8630020F0B54FF0FF3512B18E
:1005B0000023082601E008230C260C4C05E000BFB0
:1005C00054F823707F1C04D05B1CB342F8D3284638
:1005D000F0BD26185DB286F8305044F82310002A8A
:1005E000F5D1E11881F85800F1E70000A863002078
:1005F0000249084490F9300070470000A8630020C9
:100600002DE9F04188B01E46DDF8388014460D0013
:10061000074602D10020FDF79FFF14B90020FDF727
:100620009BFF20216846F6F749FF9DF80D00ADF8C5
:10063000044040F002008DF80D000848ADF800704D
:10064000ADF8064002958DF8116042466946008873
:1006500000F006F808B0BDE8F0810000F22C0020A0
:100660002DE9F0438146887891B090460C4600B958
:1006700001208DF83E002088ADF83C000025009553
:10068000607C694608F0F8FC6E46A07C711C08F09E
:10069000F3FCE07B00289DF8020002D040F0080047
:1006A00001E020F008008DF80200217C11B140F03B
:1006B000100001E020F010008DF80200217B11B144
:1006C00040F0010001E020F001008DF80200217DE2
:1006D00009B1022100E0012161F342008DF802001E
:1006E0001C2102A8F6F7EAFE607BC10601D4800651
:1006F00017D50E950EAFE07C791C08F0BDFC9DF877
:100700003800079720F00F00401C20F0F000103058
:100710008DF838009DF83A0020F00600801C8DF816
:100720003A00607B8DF80800A07B8DF80900142149
:1007300009A8F6F7C3FE0FA8CDE90906A088ADF811
:100740003000A06820B1E088ADF82C00A0680D90C2
:10075000A06998B301950088ADF81000A06901ADBB
:1007600001A94088ADF81200A06940680695039081
:10077000A069007B08F080FCA069691C407B08F040
:100780007BFCA069807A00289DF8060002D040F02A
:10079000080001E020F008008DF80600A169C97A80
:1007A00011B140F0100001E020F010008DF80600BB
:1007B000A169097A19B140F0010002E00DE020F0D2
:1007C00001008DF80600A169897B09B1022100E0D2
:1007D000012161F342008DF80600E06900B1059047
:1007E000434609AA02A94846AADF11B0BDE8F08332
:1007F00070B504464FF6FF750A462846AC4209D14B
:100800004FF480742146104602F09BFC80B2A04257
:100810000BD070BDFF2CFCD82146104602F081FCA5
:1008200090F0010F01D0204670BD284670BD000039
:1008300070B5084C050009D010342168002907D094
:1008400008682060496828468847F6E70834F4E7D6
:1008500070BD000044630020054A012120B1012839
:1008600005D19170FFF7E4BF51700020FAE770479F
:100870004463002010B5D0E90234D1E90220D11A36
:10088000A04101D3012010BD002010BD7CB50E4653
:10089000202101911C491B4C4978002929D01B4972
:1008A0001B4A90F88133891ACD085BB101A90091E8
:1008B000024604F5DF612346A1F5DB6003F0A2FAEE
:1008C000002818D0022000EB054012A104F06AFBBA
:1008D0002021204603F052FC002809D1032000EB20
:1008E0000540324618A104F061FB0649304681DF1D
:1008F0007CBD03207CBD224620231146204803F006
:10090000CDF9E9E7143700204C2C002050F003000B
:1009100028F003004372656174696E6720696E7622
:10092000616C6964207368617265642073656372C9
:10093000657420746F206D616B65204C45534320B6
:100940006661696C2E00000043616C6C696E672003
:1009500073645F626C655F6761705F6C6573635F32
:1009600064686B65795F7265706C79206F6E206367
:100970006F6E6E5F68616E646C653A20256400007E
:100980001CA8030073B58CB00646002000900D989B
:1009900080B100246D4621460DA802F0F7FB30B16E
:1009A000009805EB400084800098401C0090641C77
:1009B000142CF0D32C2269463046F6F757FD0EB0C2
:1009C00070BD2DE9F04117880646B81D14460D4646
:1009D000984202D90C20BDE8F0813188072206290F
:1009E0000AD34FF4486C4FF6FF73614501D9994221
:1009F00002D17088062801D21046ECE7604501D983
:100A00009842F9D1994203D0984201D08142F3D85B
:100A10000520E85520881221401C80B220802954EE
:100A20002088401C80B220804119308809F027F9C5
:100A30002188084480B220804119708809F01FF98C
:100A40002188084420800020C5E7FDF785BD00000F
:100A500038B54A7A0F4B62B100220A7259690029EF
:100A600006D001228DF80020ADF8020068468847C4
:100A700038BD0A7A62B19B684C6802461946204626
:100A8000FDF7BAFD0028F3D0BDE8384008F08CB877
:100A90005B68F1E764350020F0B585B016460F4677
:100AA00004461D4614220B496846F6F7DFFC0A4847
:100AB0008DF80870ADF80240ADF80A608DF80C5062
:100AC000017800222046FEF7B7FD684600F024FCBE
:100AD00005B0F0BDBCA50300D82C0020FDF768BB15
:100AE00070B588B00646002005900690ADF8141049
:100AF000ADF816100190029001AA05A9304690DFCA
:100B0000050021D004F02CFF03461148114932465C
:100B1000401AC108012000EB014004460E4904F0D0
:100B20004CFABDF8042012B9BDF8060028B1BDF892
:100B30000630204609A104F040FABDF808201AB199
:100B40002046164904F032FA08B0284670BD00006D
:100B500048F0030028F00300CCAF03005468652080
:100B60007265717565737465642054582F525820EE
:100B70007061636B6574206C656E6774682069735F
:100B800020746F6F206C6F6E672062792025752F3F
:100B90002575206F63746574732E000018B0030010
:100BA00070B504460948012102F029FBBFF35F8FAD
:100BB0000025002808D1204601F09AFF002803D123
:100BC000BFF35F8F0148056070BD00003C2C002022
:100BD0002DE9FF410C4620B14FF4064004B0BDE8BA
:100BE000F0812079002748F2096538B141F61D5699
:100BF00001281BD0022826D0681DEFE702202071B3
:100C000002970397E0680190694601A807F036FB58
:100C100050B102988188E18000882081BDF80010E1
:100C2000029807F0A9FBD9E72846D7E70A4B6A469E
:100C30000021A01D07F0DAFA38B1074918398F6191
:100C4000CF61A842CAD13046C8E7034881880198DD
:100C500007F092FBF5E70000E02D0020F0B587B02B
:100C60000C4607461646142101A8F6F727FCA07883
:100C700000B901208DF81A002088ADF8180006A8E8
:100C80000190A079694608F0F7F96D46E079691C92
:100C900008F0F2F9E07800289DF8020002D040F058
:100CA000080001E020F008008DF80200217911B160
:100CB00040F0100001E020F010008DF80200617992
:100CC00011B140F0010001E020F001008DF80200B8
:100CD000217A09B1022100E0012161F342008DF87F
:100CE000020002956089ADF80C00A089ADF80E00F5
:100CF000E089ADF8100020690590324601A9384618
:100D0000ABDF07B0F0BD000070B500240F4D10E060
:100D1000686800EBC406307804F04AFF7178012956
:100D200001D0012100E000214140307800F048FA74
:100D3000641C28788442EBDBD5E90401084303D026
:100D4000BDE8704008F0B0BD70BD0000802D0020EF
:100D500010B50021024802F052FA80F3100010BDD5
:100D60007C6C00204FF480328A400168C1F848232F
:100D70000068C0F8082370474FF4A07202EB8101AD
:100D800089B200F08DBA2DE9F04105460E464FF4C8
:100D9000A07000EB860081B228684FF48034B44024
:100DA000984622F07F47C0F808432868C0F84843B7
:100DB000286804F042FB286800EB8600C0F8407504
:100DC0002868C0F84443B8F1000F02D02868C0F882
:100DD0000443BDE8F0810068D0F8040570470000C6
:100DE00070B54379234C44F823204279231D03EB4B
:100DF000C202224C1579204A121BD4082DB10825B5
:100E0000022000EB04401EA130E005680A88C5F806
:100E1000082590F904208978002A4FEA411104DB63
:100E200002F1E02282F8001405E002F00F0202F164
:100E3000E02282F8141D90F904100122002909DB38
:100E400001F01F0502FA05F54909890001F1E021C9
:100E5000C1F800514179002503EBC1010A714179C4
:100E600043F83100032000EB04400EA104F09AF88F
:100E7000284670BDBC2D0020D8F0030028F00300E8
:100E800052544320696E7374616E636520616C72A5
:100E90006561647920696E697469616C697A6564F9
:100EA0002E0000005254433A20696E697469616CE7
:100EB000697A65642E00000090F90400002809DBBF
:100EC00000F01F02012191404009800000F1E02064
:100ED000C0F8001270470A46022100F067B94FF4CB
:100EE000827100F0DDB9006801210160704700687F
:100EF0000121416070472DE9F05F07460C464FF431
:100F0000A07000EB84001FFA80FA38684FF4803636
:100F1000A6409B4622F07F45C0F848633868C0F879
:100F200008633868D0F8048500EB8402D2F8409555
:100F3000C2F840855146386804F07FFAA9EB0800F2
:100F400020F07F40012806D1102004F075FD5146A5
:100F5000386804F072FA3868D0F80485C0F8446341
:100F6000A5EB080121F07F413868012900EB8400DE
:100F700010D0C0F840553868D0F804156FF07F4C99
:100F80006A1A521E22F07F42ACEB0B03934217D336
:100F900062B118E06D1CC0F84055102004F04CFD03
:100FA0003868D0F8040540450AD10CE000EB840015
:100FB0006D1CC0F840553868D0F80405884202D04E
:100FC0000D20BDE8F09F01223146384600F0EEF8D2
:100FD0000020F6E713460A460021FFF75DBD00003A
:100FE0002DE9F843104D0F4680461E46914669464E
:100FF000286802F05FF8040014D01C21F6F75EFAAE
:1010000001202071C4F81490380BC4F80080C4E9A2
:1010100002606946286802F06EF807F045F8002083
:10102000BDE8F8830420FBE7F0A8030010B50378BF
:101030000022072B06D2DFE803F005040610202962
:1010400030000A7010BD01230B7003898B818388E7
:10105000CB81C06888600A7410BD02220A700289C0
:101060008A818288CA81C2688A60807D062802D00F
:101070000020087410BD0120FBE703220A70C2881B
:101080008A810289CA81C068886010BD04230B7000
:10109000C0888881CA818A6010BD0520087010BD93
:1010A00070B5064D0646002455F8241009B13046A7
:1010B0008847641C042CF7D370BD000038650020FD
:1010C00030B50446006887B00D46806800281FD000
:1010D00018216846F6F7F2F90195A0680590207985
:1010E00010B1012810D107E001208DF8000020691F
:1010F0000290E068039005E002208DF80000E068AF
:1011000000030290606904902068816868468847FF
:1011100007B030BDF0B585B017460C0005463AD093
:10112000112C38D0082C36D01C481D49401AC6084E
:101130000D2C11D0204604F013FC0246012000EBD8
:1011400006402B46174903F038FF2A460721684618
:1011500001F064FF02941BE0022000EB06402A46E7
:10116000114903F023FF2A460321684601F056FF88
:1011700027B13878C00701D0012000E002208DF8A7
:10118000080000208DF80C0041F20110ADF80A00B3
:10119000684600F0CFF805B0F0BD000080F0030015
:1011A00028F0030030BA030020B903000368C3F835
:1011B0004413002A02D00068C0F8041370470000EE
:1011C0002DE9F84F0E463449804601EB5001C00727
:1011D000097801D00F0901E001F00F074FF0000975
:1011E000424601204946F6F72EF9DFF8B0A0044642
:1011F0000D46052F4ED2DFE807F003161B282C0002
:10120000002E47D00121404608F010FA8DF80090DA
:101210006846FDF70FFA5046D0E904120C43154317
:10122000CAE9044532E00EB1022114E0002112E0C7
:101230004EB10321404608F0F9F94046BDE8F84FA9
:10124000012108F0FBBD012105E0002E22D104217F
:1012500001E02EB103214046BDE8F84F08F0E6B9A1
:101260000021404608F0E2F90021404608F0E6FD82
:101270008DF800906846FDF7DDF95046E243D0E96D
:1012800004341A4024EA0501CAE904219DF800004B
:10129000FDF7F4F9BDE8F88F88640020802D002068
:1012A00010B5006842581AB104F0C7F8012010BD0B
:1012B000002010BD10B50446408801F04FF9A08011
:1012C000024801682046BDE810400847382C00203D
:1012D00010B50446808801F08BF8608002480168F0
:1012E0002046BDE810400847482C00202DE9F04179
:1012F00007460024064E074D05E000BF56F82410AF
:1013000038468847641CE8788442F7DBBDE8F08102
:10131000304A0020682C002010B50446408801F0B7
:101320001DF9A080024801682046BDE8104008472A
:101330007CA503000149096808470000F8A50300DF
:1013400070B586B0044614216846F6F7B7F8A08950
:101350000125A0F54040ADF8040020782F4E062866
:1013600033D2DFE800F0320303032C4AA08900F0F7
:10137000EBF930B9E08943F6FE71A0F540408842B0
:1013800023D8A07B8DF80800207803280FD00020F8
:101390008DF80900A0680390606850B109208DF8AD
:1013A000000060680490684605F0A0FB0DE0012095
:1013B000EEE708208DF800008DF81050F3E7A089C3
:1013C00000F0C2F908B1E08930B17078002801D08E
:1013D00005F0E0FC06B070BD606830B10B208DF800
:1013E0000000606802907570DDE70A208DF800004B
:1013F000BDF8040005F072FDF5E7606848B11420FF
:101400008DF80000606802904FF6FF70ADF80400A0
:10141000C9E713208DF80000F6E70000542C0020E7
:1014200038B504460F480078B0B1A4F57F40FF38C6
:101430000FD0684606F068FD88B1052101700121D2
:101440000171C480684606F06DFD06F01FFE0020A5
:1014500038BD48F2036038BD48F2016038BD48F23B
:10146000076038BDE82D00200D4808B5007888B128
:10147000684606F049FD80B106210170684606F015
:1014800051FD0848017809B10121017306F0FEFD04
:10149000002008BD48F2016008BD48F2076008BDA1
:1014A000E82D0020FC650020F0B587B014216846C7
:1014B000F6F704F8304C207818B16846FFF7F0FDD5
:1014C00057E0201D01F07DFE98BB40F6F8700168E2
:1014D000481C02D14FF0102041694FF08050026942
:1014E00040694B1C01D100FB02F12448002201613C
:1014F000A1F54051C160224903F056F8002823D1DC
:1015000021481C238C221F49006801F0C0FD05F012
:1015100079F8050016D0022D14D000270126062DDB
:1015200014D005A806F0F0FC98B106700C2D1BD263
:1015300000E01EE0DFE805F0181018101817181763
:101540001812141248F20A6007B0F0BD26706760E6
:10155000B3E748F20760F7E7077105E0032100E011
:101560000221017100E0067105A806F0DBFC06F01F
:101570008DFD0020E8E70000E82D0020842E0020EB
:1015800000A903004865002068A8030038B50400DE
:1015900014D0694606F072FEB0B1BDF8000000EB51
:1015A00080010B4800EB8100C16851B1A17A41B1C3
:1015B000C168491EC1600020A07238BD48F20460B5
:1015C00038BD48F2056038BD48F2096038BD0000FA
:1015D000D46500201FB501A9684606F007FE04B0D7
:1015E00010BD07B513460A466946002006F0FEFD09
:1015F0000EBD07B513460A460021684606F0F6FD03
:101600000EBD20B119B1006808600020704748F293
:1016100004607047F8B50D46040018D0BDB16946A6
:1016200006F02CFEB0B1BDF800000C4900EB8000C4
:1016300001EB800001210C30666801F0C5FD2E60D1
:1016400060680C3068600120A0720020F8BD48F28C
:101650000460F8BD48F20960F8BD0000D4650020C0
:1016600018B10323002208F0ADBD48F204607047B2
:101670000223002208F0A6BD094910B50A69042A10
:101680000AD0084A096942F82100054801211030B2
:1016900001F09AFD002010BD48F20B6010BD000063
:1016A000C82D0020386500202DE9F84F0446244855
:1016B0000078D8B1F4B112212046F5F7FFFE0320DF
:1016C000DFF880902080002504F1100804F10E0A54
:1016D00005EB850109EB810630897189084487B2E1
:1016E000706804F019FF032807D009E048F2016090
:1016F000BDE8F88F48F20460FAE72088401E208099
:101700006088F168084460802089718908442081DC
:10171000608938446081C7F58060A18980B28142C8
:1017200000D2A0815346A21D211D2846CDF800807D
:1017300006F040FE6D1CADB2022DC9D30020D7E7E4
:10174000E82D0020D465002043F6FE71A0F540404E
:10175000884201D8012070470020704710B5044628
:101760000078182802D1FDF743FF207010BD10B596
:1017700004460078182802D1FDF73AFF207010BD0A
:101780000AB101F00EBD01F0C1BC70B50D460446B2
:10179000B0F81414D0F810040122FDF7C8FB00B112
:1017A000057004F13C0204F5826104F1540072DF1B
:1017B00070BD000070B5134600220546112900D106
:1017C0000122074C33B12179FDF736FF0022617801
:1017D000284600E06178BDE87040FDF72DBF0000AD
:1017E000E02C0020F7B517460E0011D00098002518
:1017F00060B100242146684601F0C8FC18B1A0B2CF
:101800003946B0476D1C641C142CF3D32846FEBD2A
:101810000020FEBD406806F097BB00000EB517A182
:101820009DF8080020F00F00401C20F0F000103060
:101830008DF808000A2202A87CDF08B1FCF78CFEB4
:1018400040F2413078DF08B1FCF786FE00200090BE
:1018500001904FF4A071ADF80400ADF800104FF402
:10186000C8704FF40271ADF80600ADF8021068467A
:101870007ADF002801D0FCF76FFE0EBD4E6F726458
:1018800069635F48524D000010B508880C46A0F50A
:10189000206177390BD109480949A388401AC0084B
:1018A000032101EB0040628806A103F086FB21467C
:1018B000BDE810400F48FEF76BBA000000F10300CE
:1018C00028F003004741545420415454204D5455AE
:1018D000206F6E20636F6E6E656374696F6E20306B
:1018E000782578206368616E67656420746F2025B1
:1018F000642E0000182F002070B510B14FF4064080
:1019000070BD1C4C0025207B08B1257301E000F060
:10191000A5F8207808282AD2DFE800F02904080C6E
:1019200010291422BDE8704000F026B8BDE87040D0
:1019300000F082B8BDE8704000F064B8BDE87040C7
:1019400000F040B80620207060880A4900EB800053
:10195000283901EB80004068BDE8704004F032BED9
:10196000072020706560BDE8704004F039BE48F281
:101970000E6070BDFC6500201149F0B48A1C002087
:101980000346A1F128050C18A67A4EB1A37200EB0C
:10199000800405EB8404E66816B9247C012C0AD087
:1019A000401C80B20228EED30B704B804B60F0BC21
:1019B00041F61D5070471080F0BC00F03DB80000AB
:1019C000FC6500200C48418801EB8102A0F1280150
:1019D00001EB8201CA6852B105210170074802215A
:1019E0008180016800230122054802F041BD0422E4
:1019F00002704968F6E70000FC650020F02D002029
:101A0000842E002038B50A49084803240B68426830
:101A1000898803EB810153880470DB1C00201B04C0
:101A200000909B0B034802F077FE38BDFC65002058
:101A3000F02D0020842E0020074910B54888091D8C
:101A400006F06CFC18B1BDE81040FFF7DBBFBDE845
:101A50001040FFF7B7BF0000FC65002070B5194CBF
:101A60000121207808281AD2DFE800F00419191C97
:101A7000252929182089134A401C208100206080D4
:101A80002073283A00EB800312F8233043B100237F
:101A90002518401C80B2AB720228F3D3217070BDB0
:101AA0000123F5E76068084940888A88C01C104413
:101AB0008880022004E000F009F8062000E00720FA
:101AC000207070BDFC650020F02D00200A490948F7
:101AD0004988026801EB81030749283901EB83013A
:101AE0004B6803604A6082880A810222828000205B
:101AF00008747047F02D0020FC6500202DE9F043AC
:101B0000064680883288DFF85C8185B00746502A17
:101B100037D010DC5449554B06F10A05A1EB0301FF
:101B20004FEAD1014FF0020303EB0144352A3AD0CA
:101B3000362A07D168E0522A02D0542AF9D102E0AD
:101B400000F07AFF82E0142249496846F5F78EFCDE
:101B5000ADF80270384600F001FDADF8040000F069
:101B600001FA0022444698F804103846FDF764FD57
:101B70000022E1783846FDF75FFD6846FFF79AFBE3
:101B800064E0307B012861D1B07A01285ED13089D0
:101B9000A0F52451023959D10121384600F0A0FFA7
:101BA00008F0DCF852E098F80610FDF72DFD00284B
:101BB0004CD0002298F806103846FDF73DFDF2881B
:101BC000B2F5857F17D012B120462AA10BE02A88F2
:101BD000012A03D0204636A103F0E8F96A88012AD9
:101BE00004D0204641A103F0E1F904E0A9880022D5
:101BF0003846A1DF08B1002125E0012298F807103E
:101C00003846FDF719FD21E04FF0000998F807105C
:101C1000FDF7FAFCD0B1002298F807103846FDF71E
:101C20000BFDF28812B1204612A104E0AA88012A15
:101C300004D020462DA103F0B9F903E0A87900B142
:101C4000012081464946384607F052FD00223649B8
:101C500098F80200FDF772FC05B0BDE8F04307F00C
:101C600063B80000302C002030F0030028F003009F
:101C7000C8A40300556E6578706563746564204779
:101C800041545420737461747573207768696C656E
:101C90002067657474696E672043415220636861F0
:101CA000722076616C75653A2030782578000000E6
:101CB0004D756C7469706C6520282564292043413A
:101CC00052206368617261637465726973746963D9
:101CD0007320666F756E642C207573696E6720744F
:101CE00068652066697273742E000000556E657811
:101CF000706563746564204341522063686172615A
:101D00006374657269737469632076616C756520AC
:101D10006C656E67746820282564292C2073746FA5
:101D2000726520302E000000F5E7020070B5044611
:101D30000078002814D1608800F07EFE658828466F
:101D400000F0D2F928B107480122C1782846FDF7F2
:101D500073FC6088FEF784FBBDE8704007F0FEBFAF
:101D600070BD0000302C002070B5204C002525707F
:101D7000FDF73EFC6070FDF73BFCA070FDF738FC02
:101D8000E070FDF735FC2071FDF732FC6071FDF766
:101D90002FFCA071FDF72CFCE07162780121182A5C
:101DA00018D0A278182A15D0E278182A12D02279F1
:101DB000182A0FD06279182A0CD0A279182A09D0D3
:101DC000182807D004F10C000560BFF35F8F217065
:101DD000002070BD0648074A801AC00801EB004089
:101DE000054903F0DFF8032070BD0000302C00200F
:101DF00030F0030028F003008CAC03007CB50446EF
:101E00000078082837D1607A58BB207A1C4E4FF6EC
:101E1000FF75012811D0072802D008282BD121E016
:101E2000A08800F0E5FA0446A84224D0012100F081
:101E300057FE2046FEF714FB1DE0A0886A460121EC
:101E400004F076FD68B90198007850B1A08800F0E0
:101E5000CFFAA8420FD00122F178FDF7EDFB06F092
:101E600063FF08E0F068012805D1BFF35F8F0449E4
:101E700000200C310860BDE87C4007F06FBF000017
:101E8000302C00202DE9F0410D460600174609D000
:101E90005DB1144C14496068884209D048F2025080
:101EA000BDE8F08148F21350FAE748F21450F7E722
:101EB00013462A463146206802F09DF8A0F50541F8
:101EC0007139EDD100221146104602F00BF90028BD
:101ED000E6D13B462A4631462068BDE8F04102F093
:101EE0008AB80000402D00206572E54B8068F6F747
:101EF00041B9000010B50B48FEF76DFF094A083ADA
:101F0000D2E90434C018D2E9063244F10001C31A00
:101F100071EB020204D24FF08072801841F100018F
:101F200010BD0000A02D002010B5C0B2FEF780FA51
:101F30000446007803F03CFE01466078012801D099
:101F4000012000E0002090EA010F08D00449D1E907
:101F50000401084303D1BDE8104007F0A5BC10BD43
:101F6000802D00201CB5054AD2E90212CDE90012ED
:101F70000022694604F0A2FE1CBD0000E0A403009C
:101F800003484FF6FF7181800121017000207047E6
:101F9000402C00202DE9FC41804600F0DFFA0024AF
:101FA00003250127A0F57F412646FF3908D06A4660
:101FB000082104F0BDFC18B90198841D86880568C5
:101FC00032462B4621464046B1DF042804D008287B
:101FD00004D00B2808D002E0112000E00020002FE0
:101FE00000D10B20BDE8FC810027A80701D5012501
:101FF000E6E7344303D0002426460325E0E70648FD
:1020000006494246401AC008012101EB004004493C
:1020100002F0CCFFE5E7000038F0030028F00300F1
:1020200054AF03002DE9FC41804600F097FAA0F57B
:102030007F410646FF390ED001252A466D1C002738
:10204000ADB26B460821304604F0BCFC040006D05B
:10205000072C33D033E043F20200BDE8FC81019944
:1020600003230A1D0B604046891DB2DF040004D023
:102070000C2C09D0052C09D009E032460821104665
:1020800004F018FD04461AE0012700E000240821AE
:10209000304604F005FD70B103F062FC03460948C8
:1020A00009493246401AC008012101EB00400749A6
:1020B00002F083FF0324002FBFD100E00C24204650
:1020C000CBE7000038F0030028F00300D4AE030093
:1020D00004488088A0F57F41FF3901D006F02EBE6C
:1020E00070470000402C00200EB502A9019100F0BD
:1020F00035FA6A46012104F01BFC08B100200EBD30
:10210000019800780EBD00002DE9F04107464FF61A
:10211000FF761048B3DF78B103F022FC02460E4888
:102120000E49401AC008012101EB00400C4902F0A1
:102130003DFF0320BDE8F081064C43F20305A41ED9
:10214000324661883846AFDFA842F3D16088401C30
:102150006080F5E7422C002038F0030028F00300EF
:1021600088AE0300428800EB82020C328A4201D919
:10217000022070478188A1F57F42FF3A06D001888E
:1021800021B18068401C01D00020704701207047B9
:10219000884204D20068401C01D001207047002012
:1021A0007047000010B51249124806F090FD114C1E
:1021B00081B2103C6068401C60600F48FDF728FD4C
:1021C00058B1082809D0132807D0112805D043F2A8
:1021D0000141884201D0FCF7BFF960680321B0FBE0
:1021E000F1F201FB120000B10120207010BD0000CF
:1021F000E0330020F02B0020182F00202DE9F041C3
:10220000044640799046002500B1042594F8220048
:1022100008B145F00205CAB2FF2908D9090A88F8B1
:10222000012045F0010588F80210032602E088F835
:1022300001200226B4F84C0008B145F01005002733
:102240001BE000BF94F84E10B21C91420BD2B4F8C0
:102250004C0004EB4701C01B420004F12400243170
:10226000F5F704F90DE004EB470008EB0601808C5C
:102270000870000A4870D6B27F1CB4F84C00B8420F
:10228000E0DC34F84C0FC01B208088F8005030464A
:10229000BDE8F0813EB5027802230C46B3EB520F45
:1022A00017D1B0F80110ADF80010C1788DF8021008
:1022B0008188ADF8041080798DF8060002AA01A982
:1022C0002046FCF783F8032202A96846F5F708F9CF
:1022D00008B100203EBD01203EBD000070B50D4696
:1022E0000446142810D2FDF7C3F968B1084904EB7D
:1022F000840001EB4000D0F802102960C188A98059
:10230000007AA871002070BD43F2020070BD000089
:10231000FC35002070B5018890B0102961D1011DF5
:102320002C226846F5F7A2F89DF804004FF6FF76D8
:1023300003213446B1EB500F2BD004F07DFC9DF807
:1023400004006D4640080ED001280CD0022820D190
:1023500018E00D99281D1131FBF7C8FF18B100BF17
:10236000BDF82C4015E00CAA0BA9072004F038FC9E
:102370000028EED10DE00D99281D491CFFF78AFFBA
:102380000028EDD10CAA0BA9072004F029FC002895
:10239000F1D1BDF80000B44200EB8001124820F8F2
:1023A000114000EB41000199C0F80210BDF808107F
:1023B000C1809DF80A10017213D0BDF80000ADF87D
:1023C0002E000020ADF83040084E8DF82C000BADEB
:1023D000044600BF56F8241028468847641C022C87
:1023E000F8D310B070BD0000FC350020F4A4030049
:1023F0002DE9F0414FF6FF760546B04213D00B4F62
:10240000002400BF04EB840037F81000A84206D176
:102410002046FDF72DF910B12046BDE8F081641C7F
:10242000A4B2142CEED33046F7E70000FC350020B0
:102430003EB50C46054604F0FFFB0BE0BDF800007E
:10244000A04207D02846029900F00EF810B1BDF85E
:1024500000003EBD01AA6946072004F0C1FB002828
:10246000ECD14FF6FF703EBD2DE9F0410C4605461C
:1024700000F1110701F111061022491C401CF5F76B
:102480002FF848B9681C00F0FDF928B1601C00F075
:10249000F9F908B1012400E0002431463846FBF781
:1024A00025FF3B780222B2EB530F0CD00321B1EB96
:1024B000530F08D03378B2EB530F04D0B1EB530F66
:1024C00001D0012100E00021084201D18C4302D05B
:1024D0000120BDE8F0810020FBE7018811B9421816
:1024E00092780AB101207047491C0829F7D30020CF
:1024F000704710B50C460346FFF7EFFF00280AD0DF
:1025000018882188884205D10822A11C981CF4F75C
:10251000E7FF08B1002010BD012010BD142804D22F
:10252000024A00EB800022F810107047FC350020B2
:1025300070B50546FFF75CFF0446284604F0FCF939
:10254000002808D1142C06D2034B04EB84024FF66A
:10255000FF7123F8121070BDFC35002010B5044641
:10256000142808D2FDF784F828B1044904EB84004C
:1025700031F8100010BD4FF6FF7010BDFC35002083
:102580003EB5044604F058FB0EE001992046463162
:10259000FFF7AFFF28B9019920462A31FFF7A9FFBD
:1025A00010B1BDF808003EBD6A4602A9072004F03C
:1025B00017FB0028E9D14FF6FF703EBD10B50A4960
:1025C00041600A4800F0FDFD58B903F01FF90749C2
:1025D0001C238C22087404488C39001F006800F00A
:1025E00056FD002010BD0000F4A80300A8660020DE
:1025F0002DE9F0412D4F002520B17D604FF40640BC
:10260000BDE8F0810879012258B1294E01280CD08B
:10261000264C4FF002080834022820D0032841D16C
:1026200027E00A7103F0DCFF3AE0002000EB8001B4
:1026300016F82110022908D0401C80B20228F5D3D8
:102640003A707D6041F61D50DAE700EB800006F835
:10265000205006EB8000406803F0B4FF20E00D71CD
:10266000A4F80480002301221248216801F000FF31
:1026700016E00D71206803F0A5FF0D49236828318D
:10268000498801EB810206EB8201D1F804C0C4F84D
:1026900000C04B60A3880B81A4F8048006F8225088
:1026A0000028ADD07D6048F20D60A9E7E82D00203C
:1026B000D4650020842E00200146034802888A4207
:1026C00000D0002070470000503500202DE9FC5F4D
:1026D0000E008346DDE90C47C6F10000984692469D
:1026E000814600D40846012503E000BF90FBFAF0C4
:1026F0006D1C5045FADAA84500D9454624B1002E94
:1027000001DB780700D5641EB80702D5B8F1000FC9
:102710000AD0F80708D13CB1A54205D2202158467D
:10272000641EFDF761FEF6E7002E02DA4E462D210B
:1027300002E0780703D52B215846FDF755FE07F038
:10274000030002280BD1B8F1000F08D13CB1A5421B
:1027500005D230215846641EFDF746FEF6E7CDE966
:102760000047434652463146584607F09DFABDE8B9
:10277000FC9F000070B50D46044600684FF4887158
:1027800003F00EF94FF49071206803F009F94FF44B
:102790009271206803F004F94FF4A271206803F0ED
:1027A000FFF84FF4AC71206803F0FAF82068124982
:1027B000C0F804132068690740F30730090E0028A9
:1027C00004DB00F1E02080F8001405E000F00F00C9
:1027D00000F1E02080F8141D206840F30730002845
:1027E00009DB00F01F02012191404009800000F147
:1027F000E020C0F8001170BD100342000246002026
:102800001268530713D502F00300012802D00228F2
:102810000CD105E0C2F383100B68801C184404E05F
:102820000223086803EB92521044086001207047AD
:102830000248007A002800D001207047A8660020D6
:10284000F0B58488A518944200D82246A41AC288FC
:10285000D6189A4200D81346D21A4B880788BB4232
:102860000CD34088834209D88888A04206D3A84266
:1028700004D8C888904201D3B04201D90020F0BDED
:102880000120F0BD0021425C0AB101207047491CC3
:102890001029F8D300207047800701D0002070472E
:1028A000012070470A4810B5807860B1002401E02B
:1028B000022C06D02046FDF705FB641C042CF7D340
:1028C00010BD0324F6E7BDE81040FDF71FBB000074
:1028D0000C2C002003480179C90702D00078FDF7CD
:1028E00051BC70470C2C0020F7210180172141803A
:1028F000002101714171FB2181711B21C171704760
:102900002DE9FE4F2E4F984692460D00814601D08C
:1029100000260DE0684600F077FB6A460021484635
:1029200003F062FF3878009E10B99DF8090098B155
:1029300052463146484606F08DFD044601460022C7
:102940004846FEF737FF0D2C37D008DCA4B3082C1F
:1029500033D00B2C09D130E00520BDE8FE8F112CBF
:102960001ED0A4F54050023827D0204602F0F8FFD0
:102970000246144814494B46401AC008012101EB95
:102980000040124902F019FB5FF00305B8F1000F97
:1029900004D0324621464846FEF7BCFB2846DCE719
:1029A0002A46F9784846FCF747FE5246B978484629
:1029B000FCF742FE0025E9E7FFE72546E6E70000D1
:1029C000E02C002080F0030028F00300D8B90300B9
:1029D00070B50E460C49154604460978FCF714FEFE
:1029E00000280FD0204603F0A5FE00282A463146D5
:1029F000204603D0BDE8704003F0A2BEBDE87040A1
:102A0000FEF7E8BA70BD0000D82C002070B5094D63
:102A10000646A978FCF7F8FD0446E9783046FCF74D
:102A2000F3FD014622463046BDE870400123FFF722
:102A300067BF0000E02C0020F0B585B005460027F8
:102A400014216846F4F73AFDA5F57F40ADF8025031
:102A5000FF3825D02846FFF79DFA040022D01B48F6
:102A60001B49401AC6080B2C22D0112C1ED0A4F5ED
:102A7000405002380ED0204602F072FF024601207C
:102A800000EB06402B46134902F097FA21462846F0
:102A900006F092F810483A4681782846FCF7CCFDBB
:102AA00005B0F0BD0E208DF800000BE00127F1E726
:102AB0000F208DF80000022000EB06402A4607494F
:102AC00002F074FA6846FEF7F5FBE3E730F0030026
:102AD00028F003005CAD0300302C0020B0AD0300F3
:102AE0000A4602494978FCF7A7BD0000302C0020B7
:102AF0002DE9F041002786B080463E46FFF792FA66
:102B0000040022D0112C22D01B481C49401AC508B1
:102B1000862C1ED0A4F5405002380ED0204602F07C
:102B20001FFF0246012000EB0540434614A102F0BE
:102B300044FA2146404606F03FF839464046FFF742
:102B4000CFFF06B03046BDE8F0810126F5E701274A
:102B5000F3E714221A496846F4F788FC0220ADF81E
:102B6000028000EB0540424616A102F01FFA6846BB
:102B7000FEF7A0FBE1E7000030F0030028F00300BF
:102B80006773636D5F6C6F63616C5F64625F6361E9
:102B90006368655F75706461746528292072657467
:102BA00075726E656420257320666F7220636F6E88
:102BB0006E5F68616E646C653A20256400000000F9
:102BC000A0A40300466C6173682066756C6C2E20AF
:102BD000436F756C64206E6F742073746F72652020
:102BE0006461746120666F7220636F6E6E5F6861EE
:102BF0006E646C653A202564000000002DE9FF41F9
:102C00000026244800F0DAFA2248001F074600F0A8
:102C1000D5FA214C2149A06800900D6800E0009889
:102C20006946284004EB80000C30FFF7E7FD0028E0
:102C3000F5D101AA009901EA050304EB8303491CBD
:102C4000DB6842F82030401C00910228F2D3019842
:102C500000F0030001280BD0022810D101980321B5
:102C600001EB90500099BDF80A6001EB900005E07F
:102C70000198BDF80A60C0F38310084400903846FC
:102C800000F099FA08B10098A06004B03046BDE8A1
:102C9000F0810000786C002060680020282E002061
:102CA000ACB04FF48041002002F008FA08B1FBF705
:102CB00053FC02F04DF806F003FE50490320FDF7E7
:102CC00017FA08B1FBF748FC69460020FDF742F906
:102CD00008B1FBF741FC9DF80000022876D00026E1
:102CE00002F0F6FA08B1FBF737FC02F043FD08B139
:102CF000FBF732FC002469460120009402F0AEFB91
:102D000008B1FBF729FC684602F042FC08B1FBF76A
:102D100023FCFEF783FD3A493A4800F0DBFA08B19C
:102D2000FBF71AFCAC216846F4F7C8FB02208DF8CB
:102D3000000001208DF80200062103258DF87C009B
:102D40008DF80310ADF810504FF496702E49229074
:102D5000059144F2506023902C48299029486946F7
:102D60002030FCF71AF908B1FBF7F6FB25480121E2
:102D70002030FCF70FF906F023F905F051FF1C2174
:102D80006846F4F79BFB4FF4A030CDE900404FF4C8
:102D9000F02002901B488DF80C5064388089ADF803
:102DA0000E001B4805901B4806908DF810406846A1
:102DB000FCF77AFB08B1FBF7CFFB04F0D5F8164817
:102DC0001649401AC00805EB004000E014E014A1C9
:102DD00002F0E8F8FBF76CFC3046FBF7CFFA00BFD7
:102DE00000F094FC08B1FBF7B7FB01F0BFFF00282F
:102DF000F6D102F081FAF3E7012671E749000300FA
:102E0000891803007C2F0020002C0020556203004D
:102E1000A96203004B0A030000F1030028F003003D
:102E2000486561727420526174652053656E736FDA
:102E300072206578616D706C652073746172746561
:102E4000642E000070B5144682880E460546208820
:102E5000111D0144921C994201D8FE2A01D90C206F
:102E600070BD521C32542088FF21401C80B220804B
:102E700031542088401C80B220808119288806F0B7
:102E8000FEFE2188084480B22080AA8842B1A96849
:102E900041B13044F4F7EAFA2088A9880844208038
:102EA000002070BD072070BD2DE9F047C5881E1DAC
:102EB000B6FBF5F78946B6FBF5F1044605FB176C42
:102EC000407916686843DDF820A0F718001F874294
:102ED00000D9C61A166001E02468491E0029FBD1FA
:102EE000A5EB0C078846B74216D818E004EB0C0097
:102EF000001D09EB0803BAF1000F3A4602D0014663
:102F0000184600E01946F4F7B1FA2468F61B4FF0B2
:102F1000000CB844B54201D9374600E02F46002ED8
:102F2000E4D1BDE8F087000030B5024651B102F0AF
:102F3000D9F80021074C08E034F821301568AB427D
:102F400002D11160002030BD491C8142F4D305201C
:102F500030BD000000000000BFF35F8F00F016B925
:102F6000F8B50F46017814460546012901D1687865
:102F700030B12088821C9A4232D8012902D006E062
:102F80000720F8BD69780144891C994228D8181A8D
:102F9000801E86B2ADF800602188B81C08446946DE
:102FA0007DDF0028EDD12978022904D06878BDF8AA
:102FB0000020904205D3BDF80000B04201D809209E
:102FC0000AE00820012905D16978B14202D8ADF89C
:102FD000001001E0ADF80060BDF80010FE2901D935
:102FE0000C20F8BD2288491CB9542188491C89B29B
:102FF000218078542088401C2080BDF800100844AF
:1030000020800020F8BD0000034A00219268C0E93A
:103010000021816070470000E02C002070B586B070
:103020000D460646144614216846F4F747FA8DF813
:103030000050ADF802402046FFF790FAADF80400CA
:10304000142269463046F4F711FA06B070BD70B527
:103050004FF6FF750E46A84201D1002000E0401C4B
:1030600084B208E02146304600F090F808B12046CE
:1030700070BD641CA4B2FF2CF4D9284670BD10B5F5
:10308000F4F713F908B1002010BD112010BD10B5E0
:1030900031B1B2FBF3F403FB14241CB1092010BDC1
:1030A0000E2010BD01600021416081608281C381DA
:1030B000084610BD70B50C460546F4F7ABF800287D
:1030C00002D021882868084470BD10B50A88498854
:1030D0008A4203D1F4F7E0F8012010BD002010BDB2
:1030E00070B50C460546F4F7BAF8002802D061889E
:1030F0002868084470BD10B50A8849888A4203D1FF
:10310000F4F7A4F8012010BD002010BD01F01F034A
:1031100001229A40D243490900EB8100114600F098
:1031200059B80A4601F01F030121994010B5520910
:103130000C4600EB820000F05DF8204000D001203A
:1031400010BD2DE9F04180460D460024481E0121A6
:1031500001EB501716E058F82400C04390FAA0F095
:10316000B0FA80F020280CD200EB4416AE4208D210
:1031700031464046FFF7D5FF0028ECD13046BDE888
:10318000F081641CA742E6D82846F8E74A0950F8BF
:10319000220001F01F0201219140084000D00120CF
:1031A000704701F01F0301229A40490900EB81009A
:1031B000114600F029B8002100F017B8012100F0F5
:1031C00023B8012100F016B808B56A46F4F7B9F83B
:1031D000009808BD08B56A46F4F799F8009808BD4C
:1031E00008B56A46F4F7ADF808BD08B56A46F4F7C5
:1031F0008EF808BD08B56A46F4F77CF808BD08B536
:103200006A46F4F76BF808BD08B56A46F4F772F839
:10321000009808BD08B56A46F4F7A0F8009808BD04
:1032200038B5044600258DF800506846FBF702FAD1
:1032300021686268086890420ED9401E08600178D3
:10324000238AE26801FB0325227A2168101AC0B2A2
:103250000A79824200D208719DF80000FBF70EFA4D
:10326000284638BD38B5054600208DF800000C46CC
:103270006846FBF7DFF9E868298A201AB0FBF1F10C
:103280002A681068431C136001709DF80000FBF76A
:10329000F5F938BD10B530B1017A42680368891A72
:1032A000C9B21A6006E00E2010BD03681A68541CEB
:1032B0001C601170491EC9B2F7D20068002101716B
:1032C000084610BDC20800F007030120895C984041
:1032D0000840704710B560B10161F72120F8021B6A
:1032E00020F8021BFB2100F8021BFFF7FDFA00206B
:1032F00010BD0E2010BD0000F0B5858893B00C46BF
:10330000002D39D1018800263F4F24293BD006DC0F
:10331000102909D011290CD0232958D14FE03A297E
:103320000BD0552953D129E00146204602F0CAFFAF
:103330004DE0A01DFFF7D8FA49E02246408934F855
:10334000061F814200D808466080172800D2172047
:103350006080106970B1607960B1D7E90001CDE992
:103360000301ADF80E506088ADF81000136903A991
:10337000104698476671267113B0F0BD014620468D
:1033800003F074F823E0011D2C2206A8F4F76EF870
:10339000BDF81800BDF81C2004EBC0014A73226977
:1033A000AAB1D7E90423CDE90423ADF81200487B84
:1033B0008DF814002269204604A9904707E0017A9D
:1033C000207B884200D201462846FDF789FBA07A7F
:1033D0000028D1D0E1882846A5DF012580B1112839
:1033E000CAD002F0BDFA02460848094913B0401A93
:1033F000C00805EB0040BDE8F04006A101F0D6BDD5
:10340000A672E572B8E70000FCA4030048F00300D0
:1034100028F0030073645F626C655F6761747463B6
:103420005F65786368616E67655F6D74755F72650F
:10343000717565737428292072657475726E656480
:103440002025732E0000000010B54FF461710E4866
:10345000F4F734F800F026FD04000CD00B480C49BA
:103460002246401AC008012101EB004009A101F0E9
:103470009DFD204610BD1149002008704870BDE830
:10348000104000F01DB80000C444002050F00300BC
:1034900028F003006E72665F63727970746F5F6903
:1034A0006E697428292072657475726E6564206572
:1034B00072726F7220307825782E00004C2C00201C
:1034C000F8B520494020009091F88113002009B1FF
:1034D0001120F8BD1C4E1D4B1D497070B070A3F536
:1034E0004E72A2F5537000F003FC050019481A490A
:1034F0004FF00107A0EB01004FEAD00007EB0044BA
:1035000003D020462A4615A109E06A4621490F4802
:1035100000F056FC050005D020462A461EA101F009
:1035200045FD0CE01B4A40231146094800F0B6FB5C
:10353000050003D020462A4625A1F0E777702846EB
:10354000F8BD0000C44400204C2C00204441002061
:103550001CA8030050F0030028F003006E72665FA1
:1035600063727970746F5F6563635F6B65795F70B9
:103570006169725F67656E65726174652829207282
:10358000657475726E6564206572726F7220307832
:1035900025782E00D43600206E72665F63727970D3
:1035A000746F5F6563635F7075626C69635F6B65A1
:1035B000795F746F5F726177282920726574757204
:1035C0006E6564206572726F7220307825782E00E7
:1035D0006E72665F63727970746F5F6563635F625A
:1035E0007974655F6F726465725F696E7665727417
:1035F00028292072657475726E6564206572726F19
:103600007220307825782E002DE9F0410446868816
:103610000088112810D018281AD1207B1A4DC00715
:103620004FF0010727D0A87800B118486968804694
:1036300081B1304688470EE0C6EB4611C1EB062249
:103640001349002001EB820181F8810381F8800396
:10365000BDE8F081002002464146304684DF02008A
:1036600009D00C480C49401AC00807EB00400BA1D8
:1036700001F09CFC2F7004F10801304602F076FE48
:103680000028E5D02F70E3E74C2C002048480020AC
:10369000C444002050F0030028F0030073645F620C
:1036A0006C655F6761705F6C6573635F6F6F625FAE
:1036B000646174615F736574282920726574757222
:1036C0006E6564206572726F7220307825782E00E6
:1036D000094810B54078002408B1084C09E00848B2
:1036E0000849401AC008012101EB0040064901F0D9
:1036F00059FC204610BD00004C2C0020D436002080
:1037000050F0030028F0030070B003002DE9F041F1
:1037100010490020097811B10320BDE8F081002490
:103720000D4F2646C4EB4411C1EB042107EB810584
:1037300095F8801349B128462146FDF7A7F885F88A
:10374000806385F881630028E7D1641C2404240C7D
:10375000E8D0E2E74C2C0020C444002020B10278DD
:10376000DE2A03D0082070470E20704741800020D9
:10377000704760B159B10278DE2A0AD00968416009
:10378000DE2101704FF6FF714180002070470E204E
:103790007047082070477FB5054600294DD0002DA1
:1037A0004BD008780C46DE2847D1A888618888422B
:1037B00002D1204606F030FB2888012825D00228B7
:1037C0003BD011283AD0512837D135F8040F618801
:1037D000884232D1A978A81C02292ED1017A042965
:1037E00003D0062901D0052927D10021009102220A
:1037F0008DF8002001914FF4C07202910391ADF851
:103800000420007A05280FD010E0297A20460129EB
:1038100013D1A988428891420FD10121017204B0CD
:10382000BDE8704006F0F8BAADF804102888694683
:10383000B0DF002801D0616888477FBDA888618813
:103840008842FAD14FF6FF7060807FBD00F1804062
:103850000068002800D00120704708B500F18040C2
:10386000002101600068009008BD2DE9FF47064671
:1038700048682027994640790C461546B84603907B
:10388000FCF744FE98B10835CDE90057434604F1F2
:10389000080203A948460296F4F7C0F90446FCF76B
:1038A00059FE204600F03CF804B0BDE8F08748F22D
:1038B0000450F9E710B520220830F3F7D7FD0020B7
:1038C00010BD000070B586B0064620200D46144697
:1038D00003900490FCF70CFE98B10B4904ABCDE9C2
:1038E000006105F1080203A904F108000296F4F74B
:1038F00031F90446FCF726FE204600F011F806B028
:1039000070BD48F20450FAE7793C03000B4610B54D
:1039100000F1080120221846F3F7A8FD002010BD91
:1039200000280CD0094940180AD0B0F5617F0AD0B0
:1039300000F26450B0F5005F02D048F216507047B4
:1039400048F24250704748F2025070477CF70FFF30
:103950002DE9F04304464568007AA5B00F4618B13A
:10396000002025B0BDE8F0832846FEF7BFFA814667
:1039700004208DF8080004F10C0102AEAA798846F3
:10398000701CF3F773FDFCF7B3FDB8B1CDE9008708
:10399000AA79012302A94846521CF9F769FF074694
:1039A000FCF7D0FD3846FFF7BBFF070009D0AA7926
:1039B000711C4046F3F75AFD3846D2E748F20450EE
:1039C000CFE701202072F7E72DE9F0430D464F685D
:1039D0008046014697B0994616461046FFF7B8FF55
:1039E00000282AD178790290810705D0C01C20F0E8
:1039F000030005AC029000E04C46FCF787FDF8B1EF
:103A000002AB224605F1080106F10C00CDF800805A
:103A1000F3F7A4FF0546FCF79DFD4C450AD07A79E3
:103A200005A9D01C00F00300C0F103000144484682
:103A3000F3F71CFD2846FFF773FF17B0BDE8F083CE
:103A400048F20450F9E7000070B586B00646202021
:103A5000039040200C4615460490FCF749FD98B1B0
:103A60000B4903ABCDE9006105F1080204A904F19B
:103A700008000296F3F7E4FF0446FCF763FD2046D6
:103A8000FFF74EFF06B070BD48F20450FAE70000A1
:103A9000793C030070B58EB06C4605464020E0626C
:103AA00020200E462063FCF723FDE0B1ADF50C7D30
:103AB0006846E0B184B004F1300104F10C02CDE9B4
:103AC00000210B1F029005F1080220213046F4F777
:103AD0000FF804B00546FCF735FD2846FFF720FF38
:103AE000A5460EB070BD48F20450A546F9E748F26D
:103AF0001550A546F5E70B4610B500F10801202248
:103B00001846F3F7B3FC002010BD104610B5202274
:103B100008302831F3F7AAFC002010BD10B5202290
:103B20000830F3F7A3FC002010BD0B4610B500F1E0
:103B3000080120221846F3F799FC002010BD000070
:103B4000FEB506460D4614464868FEF7CFF907460F
:103B5000FCF7CEFCB0B104F10C0100910022CDE9DC
:103B6000016205F108033A4608493046F4F784FA41
:103B70000546FCF7E7FC012020722846BDE8FE4020
:103B8000FFF7CEBE48F20450FEBD0000793C0300B2
:103B90002DE9F041456804460E462846FEF7A6F991
:103BA0000746FCF7A5FC70B16A7904F108033146B9
:103BB0003846F4F737F90446FCF7C4FC2046BDE864
:103BC000F041FFF7ADBE48F20450BDE8F08138B5D2
:103BD00044680830627900926A46F4F795F9617991
:103BE000009A914202D048F2165038BDFFF798FE75
:103BF00038BD10B504464068827904F10C00F3F733
:103C000035FC0020207210BD70B50E46017A456863
:103C1000A4B000F10C04D9B1FCF76AFCF8B1A879A2
:103C200022AB401C22906A4604212046F4F79EF9FC
:103C30000446FCF787FCAA792299501C884203D1DC
:103C40009DF8000004280DD048F2165024B070BD35
:103C5000AA7921463046F3F709FC0020F6E748F23E
:103C60000450F3E730460DF10101F3F7FFFB204666
:103C7000FFF756FEEAE7000010B5104600F081FAA3
:103C8000002804D0A0F50541023901D0024810BD3A
:103C90000148C01F10BD00000F0CF000F0B540B18E
:103CA00090F8054048F21150002B06D019B12AB106
:103CB00017E01C46F6E748F21050F0BD48F21350EA
:103CC000F0BD0026651E07E08F5D11F805C002F803
:103CD00006C057556D1E761CAE42F5D91B1B2144FC
:103CE0002244A342EDD2002BEAD10020F0BD000017
:103CF0002DE9F041884606466C4617461D4611469A
:103D0000404600F0FBF80028A54616D1294640465B
:103D100000F0F4F80028A5460FD198F804001449E3
:103D200051F820C03431BCF1000F31F8100001D03F
:103D30002EB10CE0A54648F20350BDE8F08130B149
:103D4000C01D20F00700ADEB000D6E4666B11A46AF
:103D500039463046E04708B1A546EEE705493960E7
:103D6000891FA5462960E8E748F21550A546E4E713
:103D7000FCA503007652464D70B516460C46054626
:103D800000F0BCF8002812D1AA791946304600F09C
:103D9000C2F800280BD12879074951F820203AB100
:103DA000314620469047002801D10449216070BD6A
:103DB00048F2035070BD000004A703007052464D46
:103DC00070B50D46144603460C4900F08BF80028E8
:103DD00013D15E6821462846B27900F0A7F8002882
:103DE0000BD13079064951F8202022B12946BDE88F
:103DF00070401846104748F2035070BD7052464D4F
:103E000038A703002DE9F0476C46884605460E4664
:103E10009946174621494046D4F820A000F062F8A0
:103E20000028A5460ED11D493846891F00F05AF8D2
:103E30000028A54606D176687868864204D0A54653
:103E400048F24150BDE8F08772795146484600F08B
:103E50006DF80028A546F5D13079114951F8206058
:103E6000303131F810000EB125B10BE048F20350AB
:103E7000A546E7E730B1C01D20F00700ADEB000D0F
:103E80006D4635B14B463A4641462846B047A546B1
:103E9000D8E748F21550A546D4E700007652464DC3
:103EA000D4A703002DE9F0410B480C4D0C4F401BEB
:103EB000C60801203870002406E000BF55F8340021
:103EC0008047002805D1641CB442F7D30220387023
:103ED0000020BDE8F081000018F0030010F003009E
:103EE0003C2D002028B10068884205D048F240509F
:103EF000704748F2105070470020704728B139B120
:103F00000022C1E900201046704748F21050704767
:103F100048F21350704720B1914205D048F2115039
:103F2000704748F2105070470020704730B149B1D7
:103F30000868904205D248F21450704748F2135076
:103F400070470A600020704705480178022904D0B4
:103F50000078012801D00020704701207047000040
:103F60003C2D002070B50D46044600680A49884281
:103F700001D1002070BDFCF7D7FA50B12946201DB1
:103F8000F4F78AFD04F062FA0446FCF7EBFA2046E7
:103F900070BD48F2045070BD6169614D2DE9F0417A
:103FA000051D1C4617460E460C2B03D948F211502E
:103FB000BDE8F081A00702D048F21650F8E7FCF700
:103FC000B3FA50B164B1A2B239462846F4F7ACF95D
:103FD00004F03CFA04000AD102E048F20450E7E79A
:103FE00031462846F4F7EAFC04F030FA0446FCF7C0
:103FF000B9FA2046DCE72DE9F0411D0016460F46D0
:1040000000F1040402D0FCF78FFA68B1B1B23A466D
:104010002046F4F7EFF904F019FA04460DB1FCF765
:10402000A1FA2046BDE8F08148F20450FAE700000A
:104030002DE9F0416C460D46074601F06BFC70B16E
:104040001B481C49401AC008012101EB00401AA17D
:1040500000F0A8FFA54648F21950BDE8F081FFF72F
:1040600073FF48B11B4A1C4E106848B15068B042FB
:1040700006D10020A546F0E74FF40540A546ECE741
:1040800048F21750002FA546E7D1002DA546E4D1F0
:104090001248154600F1E8011060FFF763FF0028A1
:1040A000A546DAD16E602A680D491160A546D4E7AD
:1040B00000F1030028F00300537461636B206F76F6
:1040C0006572666C6F772064657465637465642ED1
:1040D00000000000402D00206572E54B7C4A002066
:1040E0006169614D2DE9F0416C4615460E46074663
:1040F00001F010FC70B115481549401AC0080121A3
:1041000001EB004013A100F04DFFA54648F2195005
:10411000BDE8F08105B146B11548164A41689142A3
:1041200007D048F20250A546F2E748F21050A546E3
:10413000EEE71FB148F21750A546E9E70E492B46B6
:1041400032460068FFF72AFFA546E1E700F10300C9
:1041500028F00300537461636B206F766572666CA0
:104160006F772064657465637465642E00000000D9
:10417000402D00206572E54B644B00200122FDF7C5
:1041800081BE0022FDF77EBE70B50D4C0125207862
:1041900008B185260EE00020A06060602061E0602C
:1041A000084801F021FC064601F030FB08B901F097
:1041B00005FC257001F0FAFB00B1A570304670BD1A
:1041C000446300205908030038B500258DF80050DD
:1041D0006846FAF72FFA084CE068401EE060E06895
:1041E00028B901F0E3FB10B901F00EFCA5709DF8B1
:1041F0000000FAF743FA38BD44630020F0B50546E5
:104200000478154889B0164640F82420124A0869F7
:104210000832A2F10C0742F82400487F38552022CA
:104220006846F3F723F904942878385C48B10EB156
:104230000A4A00E000226946281D01F0EDFE09B09F
:10424000F0BD0EB1064A00E00022694605F10C00FF
:1042500001F0ACFDF3E70000542D00203D9B03006E
:10426000859903000FB408B50399002904D004AA66
:1042700000926A4600F00FF801B05DF814FB10B52B
:1042800082680446002A05D0D4E9040321689847CF
:104290000020A06010BD2DE9FC4791460C0080462F
:1042A00076D014F8011B39B125290ED04046FCF711
:1042B0009BF820780028F4D198F80C00002867D0EB
:1042C0004046BDE8FC47FFF7DABF00200122217815
:1042D0002B291BD02D2902D0302908D102E040F033
:1042E000010001E040F00200641C002AEFD100252B
:1042F0002A290ED02178A1F130020A2A11D205EB29
:10430000850201EB4205641C303DF1E740F00400FA
:10431000EAE7D9F800100B1DC9F800300968641CE1
:104320000D44217800232E290BD114F8011FA1F18F
:1043300030020A2A05D203EB830201EB4203303B31
:10434000F3E76C290DD068290BD0692921D00BDC4B
:10435000252918D0582931D063290ED0642915D1C8
:1043600017E014F8011FECE7702969D0732932D0E7
:1043700075291BD0782909D120E0D9F80000011D4A
:10438000C9F8001001784046FCF72EF8641C90E74D
:104390006CE0D9F800100A1DC9F800200968CDE9C1
:1043A00000500A224046FEF791F9EFE7D9F80010D5
:1043B0000A1DC9F8002009680A2206E0D9F8001091
:1043C0000A1DC9F8002009681022CDE900504046B6
:1043D00005F06AFCDAE7D9F8001000270A1DC9F8D1
:1043E00000200E68C00705D112E04046761C7F1CF5
:1043F000FBF7FAFF31780029F7D104E0202140468D
:104400006D1EFBF7F1FFBD42C0D9002DF6D1BDE70F
:104410004EB13046F3F75DF8074604E020214046F0
:104420006D1EFBF7E1FFBD4206D9002DF6D103E07A
:104430004046761CFBF7D8FF31780029F8D1A5E774
:10444000D9F80000011DC9F8001005683021404668
:10445000FBF7CAFF78214046FBF7C6FF0820002182
:10446000CDE90001034610222946B0E7BDE8FC87EC
:104470002DE9F843884605002C482D499946A0EBC4
:1044800001004FEAD0004FF00101164601EB004455
:1044900024D0286800282CD0002E34D069684046EB
:1044A0004FF010070A68511E11EA080F11D101469A
:1044B00072432846F9F733FF00282ED028684B4670
:1044C0003246046901B041462846A446BDE8F0439F
:1044D00060472046174B18A2009722E00E2000905C
:1044E0002046144B1EA220A100F06FFD0E20BDE857
:1044F000F8830820009020460E4B26A21AA100F057
:1045000064FD0820F3E7092000902046094B24A20F
:1045100015A100F05AFD0920E9E7064B214A204683
:10452000009711A100F051FD1020E0E7E8F0030032
:1045300028F00300DBA80300616464725F69735FA5
:10454000706167655F616C69676E656428705F663E
:10455000732C20706167655F6164647229000000DC
:10456000705F667300000000257320636865636BED
:10457000206661696C656420696E20257328292096
:10458000776974682076616C756520307825782E9F
:1045900000000000705F66732D3E705F61706900FF
:1045A0006C656E009CBA030038B503001148124DCB
:1045B0004FF00E04A0EB05004FEAD0004FF00105CC
:1045C00005EB004009D061B119600C6801B0A44648
:1045D000BDE83040114618466047084B08A20094D9
:1045E00002E0064B08A2009409A100F0EEFC0E20A8
:1045F00038BD0000E8F0030028F0030090A8030095
:10460000705F667300000000705F617069000000F9
:10461000257320636865636B206661696C6564203F
:10462000696E202573282920776974682076616C6B
:10463000756520307825782E00000000044801219F
:104640004174007A08B100207047012070470000D3
:10465000A8660020012801D0032808D104490022BF
:1046600001284A7400D00020087403F0BFBC7047D2
:10467000A866002070B50246022801D0032A45D161
:10468000234C207A002841D0012833D0022831D190
:1046900020480023022A006802D0032A2AD11BE006
:1046A000E360017911B1012924D10DE0D0E905655C
:1046B000711B4FF48056B14200D3314629448161C9
:1046C0004569A9420ED015E00169491C01614269A2
:1046D00091420FD1237213E0E168491CE16008297F
:1046E00008D9E3602372022A0AD00D21FCF7E8FC06
:1046F00003F020FC607C28B1BDE8704001F08CB86C
:104700000021F3E7BDE8704003F070BC70BD00000D
:10471000A8660020F82D00202DE9F84F90468A4623
:104720003A493B4A0500A1EB02014FEAD1014FF0A3
:104730000102DDF828901E464FF00E0002EB014406
:104740001AD0B8F1000F1CD02868002822D0092008
:10475000002E29D069684968B6FBF1F201FB1261AD
:10476000002926D000902B4B20462BA235A100F02B
:104770002CFC0920BDE8F88F00902046254B3CA278
:1047800003E00090234B20463BA22EA100F01DFC2D
:104790000E20EFE70820009020461E4B38A229A1EA
:1047A00000F013FC0820E5E700902046194B37A2E3
:1047B000DCE75046F9F7ADFD102798B14046F9F710
:1047C000A8FDA0B1324651462846F9F7A8FD98B198
:1047D000CDF80090286833464246C46851462846C2
:1047E000A047C7E720460B4B29A2009708E02046C8
:1047F000084B2DA2009703E0064B204633A20097FA
:1048000010A100F0E2FB1020B4E70000E8F0030084
:1048100028F00300C8A8030021286C656E2025201D
:10482000705F66732D3E705F666C6173685F696E62
:10483000666F2D3E70726F6772616D5F756E697421
:1048400029000000257320636865636B2066616939
:104850006C656420696E2025732829207769746847
:104860002076616C756520307825782E0000000078
:10487000705F667300000000705F73726300000079
:10488000705F66732D3E705F617069006C656E00CD
:10489000616464725F69735F616C69676E656433DC
:1048A0003228646573742900616464725F69735FA0
:1048B000616C69676E65643332282875696E74337C
:1048C000325F7429705F73726329000061646472DF
:1048D0005F69735F77697468696E5F626F756E6434
:1048E0007328705F66732C20646573742C206C656C
:1048F0006E2900002DE9FF411C46DDE90A781546C6
:104900000E46684600F0C2F846EA450141EA8401D5
:1049100041EA072242EA0841009A00EB8200C0F80F
:104920000017BDE8FF812DE9FF411C46DDE90A784B
:1049300015460E46684600F0B7F846EA450141EADA
:10494000840141EA072242EA0841009A00EB820012
:10495000C0F80017BDE8FF812DE9FF411C46DDE9E5
:104960000A7815460E46684600F0ACF846EA45015E
:1049700041EA840141EA072242EA0841009A00EB39
:104980008200C0F80017BDE8FF812DE9FF411C46F9
:10499000DDE90A7815460E46684600F0A1F846EAB9
:1049A000450141EA840141EA072242EA0841009AAE
:1049B00000EB8200C0F80017BDE8FF811CB50021A4
:1049C00000910B4601220191FFF7C6FF1CBD1CB5EB
:1049D000002100910B4601220191FFF7D6FF1CBD7B
:1049E0001CB500220B46009211460192FFF7B4FF5E
:1049F0001CBD1CB500220B46009211460192FFF728
:104A0000C4FF1CBD1CB5002100910B460122019181
:104A10001146FFF7A1FF1CBD1CB5002100910B46FC
:104A2000012201911146FFF7B0FF1CBD13B50C46E2
:104A3000684600F039F8009900EB8101D1F80027B1
:104A400022F44032C1F80027009900EB8100D0F831
:104A5000001741EA0441C0F800171CBD3CB50A4CE0
:104A6000D4E90034CDE900346B46441808E000BFB7
:104A700053F82010D1F8205520C2C1F82055401C11
:104A80008442F5D83CBD000028A803000168202915
:104A900002D24FF0A040704701F01F0101600148B1
:104AA00070470000000300500168202902D24FF037
:104AB000A040704701F01F010160014870470000ED
:104AC000000300500168202902D24FF0A040704737
:104AD00001F01F0101600148704700000003005011
:104AE0000168202902D24FF0A040704701F01F0159
:104AF00001600148704700000003005042094FF078
:104B0000000102D0012A05D102E04FF0FF3101E09F
:104B10004FF6FF7100F01F00012282400A4201D0CF
:104B2000012070470020704701B56846FFF7BCFFC1
:104B3000D0F810050099C84000F0010008BD01B58B
:104B40006846FFF7BFFF009A01219140C0F80815A1
:104B500008BD01B56846FFF7C3FF009A01219140E7
:104B6000C0F8081508BD38B501240090684631B179
:104B7000FFF78CFF00998C40C0F8084538BDFFF75F
:104B800085FF00998C40C0F80C4538BD034908B535
:104B90000844002101600068009008BD00600040EA
:104BA00002494058012800D00020704700600040B2
:104BB00030B5154A01460020D2F8104423460AE0D9
:104BC000DB681D79854205D1401C0A28F6DB4FF0D1
:104BD000FF3030BD1B68002BF2D1431CF9D0CB68ED
:104BE0001871D2F8103443B1DB68CC681B682360BD
:104BF000D2F81024D268116030BDC2F81014C96810
:104C000000220A6030BD000060680020F0B595B059
:104C10001C4615460F4608461A9E00F033FB182125
:104C200009A8F2F74BFC0E96CDE90954002308229F
:104C300003A9384600F03BFB05980690BDF810002C
:104C4000ADF81C00BDF81200ADF81E0000208DF874
:104C500021000398082600F00300012802D0022852
:104C600018D032E003983346850AC0F3C2008DF8AD
:104C7000200003980FA9C0F38314A200384600F067
:104C800016FB09A8009006AB22460FA9284600F0A3
:104C900055FA1AE00398840DC0F3C2008DF8200085
:104CA000082C01D2254600E0082533462A460FA9E4
:104CB000384600F0FCFA2E44641B09AB06AA2946CC
:104CC0000FA800F0A3F9002CEAD1384600F0E0FA72
:104CD00015B0F0BD7047012004F072BE084810B551
:104CE0000178084A515C19B1001D01F02FFA02E069
:104CF0000C3001F029F9BDE81040002004F060BE3E
:104D00000C2E0020502D002008B5034A00924023AD
:104D1000024AFFF77BFF08BDE98C0300C86600204C
:104D20000A4A012902EBC00007D0022907D0032953
:104D300007D0042907D000207047022070470420C4
:104D400070470079704740797047000028F00300F1
:104D500010B5FFF7C0FF04210348FFF729FF024900
:104D60000120C968487110BD18F003002DE9F04F0B
:104D70008DB0FBF751FB18B100200DB0BDE8F08FEE
:104D80007E4C4FF0000BC4F818B4BFF34F8F7C4932
:104D9000A06802900D68D846284004EB80000BE024
:104DA000D4F8180470B961680298814201D8A160F2
:104DB000E2E7284004EB80000C3002A9FDF71EFD5D
:104DC0000028EDD1002005AA029901EA050304EBB1
:104DD0008303491CDB6842F82030401C0291022802
:104DE000F2D3059800F00300022802D001284DD02C
:104DF000AAE005985022810D8946B2EB905F00D859
:104E000050210E4666F39F50059008315D4800F032
:104E1000F0F9070078D000F035FA4346082205A9DA
:104E2000384600F04CFA029908F1080A2940681A3D
:104E30008000001D864222D9504D0C3530B1C2B2DF
:104E400004EB8101301A90460C3104E02946F2B29D
:104E5000002590462846C6B25346384600F02FFA41
:104E60000AEB080325B132462946384600F027FAF6
:104E7000029909F1030001EB900002903BE004EB82
:104E800081015346324638460C31EFE70598C0F3AE
:104E90008310062800D30620059960F38911C1F319
:104EA0008310801C05918100364800F0A2F90700AC
:104EB0004AD000F0E7F94346082205A9384600F039
:104EC000FEF908F1080800260FE00298434600EAC0
:104ED0000501401C04EB81010290042238460C318C
:104EE00000F0EDF908F10408761C0598C0F3831072
:104EF000B042EAD847B1D4F81054D4F8180478B1C5
:104F0000384600F0C5F934E01EE0E8684079012831
:104F100004D12A682846394612689047E86805682F
:104F2000002DF2D1384600F0B3F98DF800B0684694
:104F3000F9F780FBD4F8180408B90298A0609DF82E
:104F40000000F9F79BFB14E0D4F8104405E0216859
:104F5000204689688847E0680468002CF7D10A4831
:104F60000A49401AC008022101EB004008A100F0E4
:104F700019F8FBF751FA80F00100FEE660680020A6
:104F8000282E002020F1030000F1030028F0030088
:104F90004261636B656E647320666C7573686564EB
:104FA0000000000000231A4604F058BB08B5012396
:104FB00000926A4604F052FB08BD1CB5CDE90023FF
:104FC00002236A4604F04AFB1CBD3EB5069C8DE8F0
:104FD0001C0003236A4604F041FB3EBD7FB5DDE9BA
:104FE00008458DE83C0004236A4604F037FB7FBD8A
:104FF00070B586B00DF1280C9CE870008DE87C003F
:1050000005236A4604F02AFB06B070BD2DE9F0477F
:105010000E4680461C469246082940D894F80C90CB
:10502000002020731946104602F016FF0025B542F5
:1050300006D218F805201BA12046FFF713F903E05C
:105040001AA12046FFF70EF96D1C082DEFD318A109
:105050002046FFF707F90025B54212D218F805706F
:105060007E2F08D8F2F7FEF90068C05D10F03E0F01
:1050700001D03A4600E02E220EA12046FFF7F2F8BA
:1050800003E00DA12046FFF7EDF86D1C082DE3D3DA
:1050900001222146504602F0C1FE84F80C90BDE882
:1050A000F08700002025303278000000202020000A
:1050B0007C0000002563000020000000064910B5B8
:1050C00000200870054800F0E1F8002803D10448EA
:1050D00000F0A5F9002010BD6068002020F1030059
:1050E000ACAA030002480349401AC00870470000F8
:1050F00020F1030028F0030013B56846FDF714FF04
:1051000008B100201CBD0248009950F831001CBDB8
:1051100028F0030070B508480125D0F81044057048
:1051200007E0E06845712168204649688847E068E3
:105130000468002CF5D170BD606800202DE9FF47A0
:1051400081460C9D00200C462F7B287398461646FE
:105150002946184602F080FE072E42D2DFE806F00C
:1051600004090F161F2A360049462846FFF77AF829
:1051700037E0494628462268FFF774F831E0D4E961
:10518000002349462846FFF76DF82AE0A068009002
:10519000D4E9002349462846FFF764F821E0D4E922
:1051A0000201CDE90001D4E9002349462846FFF772
:1051B00059F816E004F1080007C88DE80700D4E9A3
:1051C000002349462846FFF74DF80AE004F108009D
:1051D0000FC88DE80F00D4E9002349462846FFF7A1
:1051E00041F800222946404602F018FE2F73BDE820
:1051F000FF872DE9F041058A80462D1F4819C01C04
:10520000B0FBF5F0C6B24046FEF70AF8041E19D00E
:105210000020207101206071E58000272546761E60
:10522000C4F800800BE04046FDF7FAFF60B16179F9
:10523000491C6171286005467F1CC0F80080B74298
:10524000F1D32046BDE8F081204600F002F80020AE
:10525000F8E72DE9F041457901466B1E002201E097
:105260000968521C9A42FBD30F680146002605E0EC
:1052700038460C68FDF7F6FF2146761CAE42F7D3A0
:10528000BDE8F0810121001DFDF79EBFFEF702B8C9
:1052900010B504460121001DFDF7BCFF10F0FF0F03
:1052A00004D12046BDE81040FFF7D3BF10BD1CB5A8
:1052B00001920122009201AAFDF7F6FD1CBD1CB56A
:1052C00001920022009201AAFDF7EEFD1CBD000034
:1052D000064910B500204870091D0860BFF35F8FB4
:1052E0000349044800F0C4FA002010BD002E00203D
:1052F00038A90300BC66002008B500208DF8000026
:105300006846F9F797F9F1EE100A20F09F00E1EEF8
:10531000100ABFF35F8F08494020C1F880029DF852
:105320000000F9F7ABF900F071FA08B141DF08BDF0
:1053300020BF40BF20BF08BD04E000E001680A684C
:1053400049688068884201D9491C00E000219142E7
:1053500001D101207047002070478068884201D940
:10536000481C7047002070472DE9F84304464FF071
:1053700000080E468DF800806846F9F75BF9204674
:10538000FFF7DCFF07000AD0207C40B14FF0040893
:105390009DF80000F9F772F94046BDE8F8832068EF
:1053A000456841682046FFF7D8FF2168486037B15B
:1053B000206801682046FFF7D0FF21680860E26896
:1053C000012A14D0022A16D0042A19D0082A1CD087
:1053D0006068314605FB0200F2F748F8204602F00B
:1053E00075FE21688A688242D2D28860D0E76168FF
:1053F00030784855F2E76168308821F81500EDE70C
:105400006168306841F82500E8E7D6E90001626884
:1054100002EBC502C2E90001E0E7F9F79DB8826836
:105420000021916082681161826851618268D16057
:105430008268516080680160704708B50022425060
:105440004058009008BD000020B103490968016080
:10545000002070470E20704730AB03002DE9FE435B
:1054600007460E460846FFF7EFFF00287DD10024CF
:10547000009401944FF4A0708DF800704FF0010873
:10548000ADF8040002948DF802806946202032684D
:1054900069DF3749374A891AC908012202EB0145F9
:1054A00030B100F05DFA024628463349FFF77EFD31
:1054B00000948DF801808DF80240019402948DF8DB
:1054C000034069464020326869DF30B100F048FA95
:1054D000024628462949FFF769FD00948DF80070BF
:1054E000F720ADF802000194029469462320326847
:1054F00069DF30B100F034FA024628462049FFF750
:1055000055FD0094019402948DF8004069460120F5
:10551000326869DF30B100F023FA024628461949A3
:10552000FFF744FD4FF4B060009001940294694687
:10553000A120326869DF30B100F012FA0246284635
:105540001149FFF733FD0094019402948DF8004057
:105550006946A020326869DF30B100F001FA0246E6
:1055600028460A49FFF722FD0020BDE8FE8300001F
:1055700010F1030028F0030034C003007CC00300D6
:10558000C8C0030094BF0300E0BF030040BF030096
:105590002DE9F0410546076860DF804619491A4841
:1055A0002A68081AC608BA4219D9022000EB064434
:1055B00016A12046FFF7F6FC20463A461FA12B68AD
:1055C000FFF7FBFC4FF08050D0F80C0129688002F7
:1055D00000F10050421A204625A1FFF7E7FCB8F180
:1055E00000004FF001040AD000F0BAF9024604EBC3
:1055F00006402AA1FFF7DAFC4046BDE8F0812F48BB
:105600000470F9E710F1030028F00300496E737588
:105610006666696369656E742052414D20616C6CE9
:105620006F636174656420666F72207468652053CF
:105630006F66744465766963652E00004368616E29
:105640006765207468652052414D207374617274DF
:10565000206C6F636174696F6E2066726F6D2030AD
:1056600078257820746F20307825782E000000008F
:105670004D6178696D756D2052414D2073697A6571
:1056800020666F72206170706C69636174696F6EFF
:1056900020697320307825782E00000073645F62E3
:1056A0006C655F656E61626C652829207265747532
:1056B000726E65642025732E000000007F2E00208E
:1056C00030B51548ADF5017D0078002821D04FF4A4
:1056D000FA7500BFADF8005280A9684661DF38B1A5
:1056E000052816D00DF5017DBDE83040F8F734BF30
:1056F0006C460A497DA800F0BBF806E0D0E900211D
:10570000204690477DA800F0CAF87F980028E1D095
:10571000F4E70DF5017D30BD7F2E002034AB030092
:10572000F8B5134C2078C0B10120A07003F07CF8CC
:10573000112814D0022003F08FF800258DF80050B6
:105740006846F8F777FF11DF064625709DF80000E0
:10575000F8F794FF2EB13046F8BD0820F8BD0020C0
:10576000F8BDA57003F010FF032003F075F8F6E70D
:105770007C2E00207CB5194C207808B108207CBD17
:105780000120A070002003F04FF8112819D000204C
:1057900003F062F812480026006801908DF800605E
:1057A0006846F8F747FF0F4901A810DF05000AD047
:1057B000002020709DF80000F8F760FF2DB128460A
:1057C0007CBD00207CBD0120F3E7A670667003F06D
:1057D000FBFE012003F040F8F3E700007C2E0020E0
:1057E000C8AA0300D5E402000EB50749684600F0D8
:1057F0003FF805E0D0E900108847684600F04FF810
:1058000002980028F6D10EBDE4AA030001480078F2
:10581000704700007C2E00200548817819B100787F
:1058200018B1FFF77DBF08207047FFF7A3BF000046
:105830007C2E00201FB568464BDF30B1052814D000
:1058400004B0BDE81040F8F787BE084901A800F091
:105850000FF806E0D0E900210098904701A800F079
:105860001EF803980028E6D0F4E71FBD50AB0300F4
:10587000016009684160AFF3008010B5D0E90021F4
:105880005368994201D1002104E0D1E90034A342D8
:1058900002D01946816010BD08314160F0E781688F
:1058A00000290BD0026892680A44826041684B6804
:1058B0009A4203D108314160FFF7DFBF704770B5EE
:1058C0000D460646446804E0B2682946904718B180
:1058D000246820680028F7D120682860256070BD02
:1058E00040680068704741680868002801D0026875
:1058F0000A60704702460020526806E08B4203D1DE
:1059000008681060012070471A461368002BF5D113
:105910007047000003496846884201D20120704761
:1059200000207047886C00200C4A10B502F5947373
:105930000EE0991AC91001EBD171491002EBC101B7
:105940000C68844201D90B4602E005D201F108023D
:105950009A42EED3002010BD486810BD58A903003C
:1059600000B5FFF7E1FF002800D1014800BD0000AD
:1059700044A903004058002800D00120704708B512
:10598000002242504058009008BDD0F8040308405F
:1059900000D0012070474058002800D001207047F7
:1059A00008B5002242504058009008BD02480068E7
:1059B000002800D00120704700040140084800681A
:1059C000012110F0010F06D14FF0E020C02280F835
:1059D00000248430C167034901200860704700003B
:1059E00000E100E0180500400649024600200B795E
:1059F0000BB1852070470A6001220A7100224A71AA
:105A000070470000642D0020022010B54107C1F846
:105A100008034FF48270FDF720FF0549012008605C
:105A200004480168C1F300410029FAD110BD00000B
:105A30000C00004018040040002802D001498001F9
:105A40000847704761A803002DE9F0410D4606465E
:105A500001F0DAFA0028304615D0FAF7C9FD083807
:105A600002F0D4F9032802D001280AD003E030461E
:105A7000FFF75AF828B103213046BDE8F041FEF7A0
:105A8000D5BF0221F8E701F0CBFA002822D030463A
:105A9000FAF7AEFD04464FF4807000EB84000E4F21
:105AA00081B207EB8400D0F8102542F00102C0F863
:105AB00010250846FFF76AF8002D0BD03046FAF79C
:105AC00097FD064951F82000002803D00120A0408E
:105AD000C7F80403BDE8F08100600040A86300201F
:105AE0002DE9FC41DFF8BC80044608EB04000027E8
:105AF00090F930001346C0170E46401C01D008270D
:105B00004DE0B0781946C0F340022046FAF74CFD4C
:105B10000546401C42D0B07841071AD4C0070DD0CA
:105B200068460094FEF7C0FF009900EB8101D1F8B0
:105B3000000720F00200C1F8000707E00021737899
:105B4000204600910A460191FEF7EDFE204601F045
:105B50004DFAB078800718D51348317800EB8500EE
:105B6000D0F81025114B1A40C0F810254FF47C5284
:105B70004FF4403302EA042203EA01410A43D0F819
:105B800010150A43C0F8102509E008EB050032782B
:105B900010F8581F41EA8211017000E004273846CE
:105BA000BDE8FC81A863002000600040FFC0FCFF4E
:105BB00010B5FEF7B9FF002800D0012010BD00008D
:105BC00070B51A4D95F86A0008B1082070BD002420
:105BD000661E2046FEF792FF10B1281980F830604B
:105BE000641CE4B2302CF4D300242046FAF7CEFC37
:105BF000641CE4B20C2CF8D30C4800210C4C416618
:105C0000A0F868100B49C02081F80004012640204C
:105C1000891FC1F800014FF4BE70FEF7B7FFA00462
:105C2000C4F8040385F86A60002070BDA8630020F2
:105C30000060004006E000E0034890F86A00002899
:105C400000D0012070470000A86300200121B1EBC3
:105C5000507F01D1012070470020704738B50D46B4
:105C600002F046F9040014D000208DF800006846C8
:105C7000F8F7E0FC207928B19DF80000F8F7FEFC69
:105C8000112038BD0120256020719DF80000F8F733
:105C9000F5FC002038BD10B502F02AF9002802D02A
:105CA00000210160017110BD01B582B000208DF8A6
:105CB00000006846F8F7BEFCFFF7A8FD48B902A946
:105CC0000648FFF751FB0548FFF738FB08B100F025
:105CD00043F89DF80000F8F7D1FC0EBD34F1030045
:105CE000114A13780BB18520704751600178C907BC
:105CF00004D00E490B6843F001030B600C49D1F846
:105D0000003223F00103C1F8003240780949400114
:105D100081F8000401204FF0E0234103C3F8001193
:105D20001070002070470000742D002004D5004042
:105D300000D000400DE000E0064908B5002204480C
:105D40000A60096800910121C0F80413016008BDD0
:105D500000D0004000D1004003490120C1F80803F1
:105D6000091D08607047000000D00040094901206B
:105D7000C1F80803091D086041034FF0E02200202C
:105D8000C2F88011BFF34F8FBFF36F8F02490870C5
:105D90007047000000D00040742D002001490248E7
:105DA00003F036BE14640020002000402DE9F041CD
:105DB0000546007916460F4600EB40012D4A01EBDF
:105DC000C00102EB810494F82A1011B10820BDE84B
:105DD000F081294951F820102868FFF73FFF08B1EA
:105DE0001120F4E739462846F8F78EFC66603869DA
:105DF000206030004FF001062FD03F7F4FF48E71AE
:105E00002868FFF7BCFD4FF4A2712868FFF7B7FDC3
:105E100028681A49C0F8041328684FEA471140F36C
:105E20000730002804DB00F1E02080F8001405E0D2
:105E300000F00F0000F1E02080F8141D286840F306
:105E40000730002809DB00F01F0106FA01F14009C4
:105E5000800000F1E020C0F8001128680421C0F89B
:105E600000150020A061E06184F8290044F8140FB7
:105E7000A675ACE71464002030A80300800002007F
:105E80002DE9F05F054600790B4600EB400101EB80
:105E9000C000244901EB8004284600F045F810B109
:105EA0001120BDE8F09F62614FF00009C4F8209016
:105EB000A36084F828904FF48E784E4641462868B7
:105EC000FFF75DFD28684FF0010AC0F808A02146E1
:105ED000286803F02DFD606808BBD5F800B067693D
:105EE0000FE000BF94F8280008B10F2615E04146E6
:105EF0005846FFF73FFD0028F4D02146584603F0EE
:105F000017FD206AB842F2D3574641462868FFF78A
:105F100031FD0028F9D02868C760C4F814903046D5
:105F2000BFE7000014640020007900EB400101EBA2
:105F3000C000044901EB80004069002800D0012026
:105F400070470000146400202DE9F04704460079F2
:105F50004FF0000900EB400101EBC000284901EBC4
:105F600080072068C0F800957868B0B1206825499E
:105F7000C0F80813206840F3073000280DDB00F05C
:105F80001F02012191404009800000F1E020C0F88B
:105F90008011BFF34F8FBFF36F8F2068D0F80C25AF
:105FA000D0F81485D0F80865D0F810554FF0FF31BF
:105FB000C0F81415C0F80C152068C0F80815C0F812
:105FC0001015501C02D01046FEF7F8FCB8F1FF3F48
:105FD00002D04046FEF7F2FC681C02D02846FEF7CD
:105FE000EDFC701C02D03046FEF7E8FC2068FFF79D
:105FF00052FE87F82A90C7F80490BDE8F0870000A9
:1060000014640020840202000149024803F0AEBD7E
:1060100040640020002000402DE9F041054616466E
:1060200000790F46154A00EBC00102EB810494F899
:10603000201011B10820BDE8F081114951F820105D
:106040002868FFF70BFE08B11120F4E7394628460F
:10605000F8F795FB6660386920601EB1397F2846E5
:10606000FCF788FB28680821C0F800150020A06113
:10607000E0616061012184F82010DCE740640020C9
:1060800034A803002DE9F04704460E46007927495D
:1060900000EBC00001EB800517463046FFF7D6FD48
:1060A00030B1204600F044F820B11120BDE8F0875F
:1060B0001020FBE76F61AE604FF490774FF000085F
:1060C00039462068FFF76CFC4FF4AC763146206807
:1060D000FFF766FC2068AA686969C0F84425C0F823
:1060E000481520684FF00109C0F808906868D0B9D9
:1060F000BA4651462068FFF74EFC074631462068F5
:10610000FFF749FC0743F4D010B14FF00F0808E047
:106110002068C0F80C9031462068FFF73CFC00284E
:10612000F9D0002068614046C0E7000040640020CC
:106130000079054900EBC00001EB800040690028B0
:1061400000D0012070470000406400202DE9F04796
:10615000064600793D4900EBC00001EB800534683C
:1061600068680127A8B13A49C4F80813306840F3B9
:10617000073000280DDB00F01F0107FA01F140098C
:10618000800000F1E020C0F88011BFF34F8FBFF313
:106190006F8FD4F8000220F02000C4F80002A86934
:1061A0004FF4A27820B141462046FFF7F9FB676023
:1061B0004FF4AC7949462046FFF7F2FBE7604746CB
:1061C00049462046FFF7E7FB0028F9D0A86928B127
:1061D00039462046FFF7DFFB0028F1D04FF0000AD8
:1061E000C4F800A53068D0F80C25D0F81495D0F884
:1061F0000885D0F810754FF0FF31C0F80C15C0F8C5
:1062000014153068C0F80815C0F81015501C02D0DD
:106210001046FEF7DCFBB9F1FF3F02D04846FEF71F
:10622000D6FB781C02D03846FEF7D1FBB8F1FF3F11
:1062300002D04046FEF7CBFB2046FFF72CFD85F849
:1062400020A0C5F804A0BDE8F0870000406400204D
:106250001003420010B5A0B1032816D10B480C4919
:10626000401AC008032101EB00400AA1FEF79AFE84
:106270000220F9F731FF002807D0BDE81040F8F7F9
:106280006BB9BDE8104002F00FBF10BD00F1030074
:1062900028F0030046617374206164766572746946
:1062A00073696E672E0000000078002807D104484B
:1062B0003B21408876DF002801D0F8F74DB97047C0
:1062C000E02B002070B58D88027900EBC5042273A5
:1062D000C97BA41D012902D0022904D101E0008854
:1062E00000E04088208021886088814211D92846BA
:1062F000A5DF0126B0B1112816D0FFF731FB024609
:106300000B480C49401AC00806EB00400AA1FEF7F2
:106310004DFEA179E079814208D92846BDE8704058
:10632000FAF7DEBB6671F4E72671F2E770BD000094
:1063300048F0030028F0030073645F626C655F67D8
:10634000617474635F65786368616E67655F6D74BF
:10635000755F72657175657374282920726574752F
:10636000726E65642025732E000000002DE9F04157
:106370000746402090B08046034609686A461A489E
:10638000FDF78CFC0500194819494FF00106A0EBF8
:1063900001004FEAD00006EB004408D020462A4610
:1063A00014A1FEF703FE284610B0BDE8F081C7EB4C
:1063B0004710C0EB07211D48434600EB81010D4605
:1063C0006A460948FDF7D8FC020007D0204618A10C
:1063D000FEF7ECFD002085F8810301E085F881637C
:1063E00085F880630020DFE71CA8030050F003005D
:1063F00028F003006E72665F63727970746F5F6578
:1064000063635F627974655F6F726465725F696E02
:106410007665727428292072657475726E656420C1
:106420006572726F7220307825782E00C444002087
:106430006E72665F63727970746F5F6563635F70BD
:1064400075626C69635F6B65795F66726F6D5F72B1
:10645000617728292072657475726E656420657293
:10646000726F7220307825782E0000007CB50646C9
:106470008D88C88806EBC504A41D172800D21720F4
:106480002188814200D80846608000202071218840
:106490002846B5DF60B1FFF763FA02460F4810499E
:1064A000401AC008012101EB00400EA1FEF77EFD5D
:1064B0006079002810D1306900280DD01549D1E944
:1064C0000201CDE90001ADF802506088ADF804008A
:1064D00032696946304690477CBD000048F00300B1
:1064E00028F0030073645F626C655F6761747473A6
:1064F0005F65786368616E67655F6D74755F72650F
:10650000706C7928292072657475726E6564202517
:10651000732E0000FCA4030048B1064A01689142B2
:1065200005D140680449401802D0012800D003205A
:1065300070470000DEC0ADDE02FEE10E8A7D022A59
:1065400004D90289CB881A44D21C02814289C988A5
:10655000511AC91E418170472DE9F0410D460221B3
:10656000904600F58056298000F10804144F1BE086
:1065700031462046FBF7F6FD40B1B8F1000F02D0DE
:10658000012288F80020022816D004E0A06879696A
:10659000884200D97861288861880844C01C288016
:1065A000608804EB80040C3431462046FBF7F0FD94
:1065B0000028DDD1BDE8F0814FF480602880F9E744
:1065C000C82D002008B50021009101460823024A89
:1065D0000248FEF7A1F808BD78A80300842E002029
:1065E00008B50020009004480823044A01680448C4
:1065F000FEF792F808BD0000F02D002070A80300FF
:10660000842E00202DE9F05F0026DFF81891DFF8D6
:1066100018B134464FF00308B2463746D9F80C009B
:1066200000EB07352846FFF777FF98B301284BD0DA
:10663000032869D12868411C02D03C49884205D111
:106640000120820255F82010491C0ED004EB840171
:106650000BEB8102A8F10100556003221FFA80F8BC
:106660000BF82120641CA4B24EE0401C9042E9D3F8
:106670002F48016879B104EB840002210BF8201047
:106680000BEB800045600181274828304480641C62
:10669000A4B205E007E00221056081804FF0010A05
:1066A00046F0010630E004EB840100220BF82120C3
:1066B0000BEB810101F110024D6028460831FFF714
:1066C0004BFF46F00206CDE7BAF1000F0FD004EB06
:1066D00084000221164A0BF820100BEB8000126890
:1066E00042600181104828304480641CA4B21048E4
:1066F0000022011D05602846FFF72EFF0C48808808
:1067000002280CD0082006437F1CBFB2032F85D37C
:10671000B8F1020F00D20026F0B2BDE8F09F0420CD
:10672000F1E70000842E0020D4650020DEC0ADDE3D
:10673000F02D002001494978F8F766BFD82C0020D9
:106740002DE9F04188461749174604468978F8F73D
:106750005BFF08B1012600E0022604F5807080B2DC
:10676000072100F09DF9050013D0052D11D0FFF78A
:10677000F7F802460C480D492346401AC00801218B
:1067800001EB00400A49FEF718FC2946204602F0BA
:1067900027FA3B46424631462046BDE8F041FAF72B
:1067A0007BB90000D82C002078F0030028F003000B
:1067B0002CB7030000B585B002228DF800200288B6
:1067C000ADF802204079400701D5012000E0022009
:1067D0008DF808008DF809106846FAF79DFD05B0A0
:1067E00000BD002102F0A6BE30B5154685B00C46AE
:1067F000024605216846FCF711FC6846CDE90245D2
:10680000FAF798FD05B030BD70B5054D0646002479
:10681000304655F824108847641C042CF8D370BD0A
:106820002CA503007CB5164D002400BF04EB4400EA
:1068300005EB800003F0A2FC641C042CF6D350216D
:1068400004208A00CDE900010F490E4B01F5A0702C
:1068500000F024FC012468B1FFF782F802460B48DF
:106860000B49401AC00804EB00400AA1FEF79EFB4A
:1068700003207CBD0348001F447000207CBD000045
:10688000C0490020642C00207048002060F0030004
:1068900028F00300504D5F4255464645525F494E31
:1068A000495428292072657475726E6564202573B9
:1068B0002E00000070B504460025C1681A4A28461B
:1068C00000EB400302EB83035B688B4204D100EBD7
:1068D000400002EB800003E0401C0428F0DB0020B5
:1068E0002178082904D0092908D0132914D112E0ED
:1068F000617A89B980B103F04FFC0DE0617A59B932
:1069000050B100214160817A41F002018172074952
:106910000120087003E001252046FFF775FF284697
:10692000BDE8704001F00EBCC0490020602C002082
:10693000002300F089B900007CB5064600200190D4
:1069400001A9304603F002FC04461A481A49401ACD
:10695000C008012101EB004519E0A178304600F0A4
:106960009FF860B105280AD0FEF7FAFF0246A0782A
:106970000090284633461149FEF727FB18E001989E
:1069800001A9401C0190304603F0E0FB0446002CB6
:10699000E3D1304600F0F0F900280AD0072808D0EB
:1069A000FEF7DEFF0346284632460549FEF705FBA3
:1069B00003207CBD60F0030028F0030010B2030048
:1069C00068B203002DE9F0471F00154681460E46C8
:1069D00004D0072E05D0082E06D102E00E20BDE817
:1069E000F0870DB1042D01D90720F8E74FF000081A
:1069F000484603F091FB041E04D0207AA8420BD035
:106A00000F20ECE7FF214FF6FF7003F085FB041E1B
:106A100006D0A0F80090A670607AFF2802D00CE0A3
:106A20001120DCE729461A4800F006FB0146204603
:106A30006172FF2913D04FF001082572617A144862
:106A400000F03EFB02000DD0ABB23146384600F0FC
:106A50001FFAB8F1000F19D0082E10D016E003F07D
:106A60008DFBDDE70B480C49627A401AC008012112
:106A700001EB00400949FEF799FA0320AFE7388897
:106A80006FF0050101EB8000796888800020A6E79F
:106A9000B049002060F0030028F003009CB103001F
:106AA00010B503F039FB18B103F076FB002010BDE0
:106AB000052010BD70B50C4606461546072901D0C5
:106AC000082C0ED1104600F062F950B12146304634
:106AD00003F022FB38B105808470BDE8704003F0FC
:106AE00075BA072070BD052070BD00004FF6FF711C
:106AF000418001490968084714A5030070B588B0B2
:106B00002048FAF7B9FD02001F4820494FF001055F
:106B1000A0EB01004FEAD00005EB004406D0204670
:106B20001B49FEF743FA032008B070BDFAF7BCFC1E
:106B3000020005D0204617A1FEF738FA8620F3E7B9
:106B400000F0F8F9002002904CF2070603900EE0E6
:106B5000694604A8FAF75EFD00988088A0F54040D9
:106B600084B204A8FAF712FD204600F09FF902AAA9
:106B700004A93046FAF735FD0028E9D0154805701C
:106B80000020D1E74113030058F0030028F0030070
:106B9000B4B00300436F756C64206E6F7420696E2F
:106BA000697469616C697A6520666C6173682073C9
:106BB000746F726167652E206664735F696E6974B5
:106BC00028292072657475726E6564203078257886
:106BD0002E000000542C002000F08EB900F092B975
:106BE00070B586B014460E46054600F03FF940B138
:106BF00005F5404080B20F4A6946FAF7F2FC40B909
:106C000002E0012006B070BD03A96846FAF702FD54
:106C100008B10020F6E7A57003984088208004980A
:106C2000606003988088A0F5404030806846FAF79D
:106C3000ADFCE6E7582C002002480021416081604D
:106C400070470000542C0020F0B587B01F46154651
:106C500006460C46FF280AD8084600F007F930B16E
:106C600004AA2146304600F0E9F840B902E00720C6
:106C700007B0F0BD02A904A8FAF7CCFC08B10520C2
:106C8000F6E7AC700298408828807FB184003968AC
:106C90002646B1EB800F00D20C4603992246686865
:106CA000F0F7E4FBB44203D20C20E1E703986860FC
:106CB00004A8FAF76BFC0020DAE7000070B586B094
:106CC00016460D460446FF2828D8A87800F0CEF8CE
:106CD00020B304F54040ADF80000A87803AA00F501
:106CE0004040ADF802006868019028880290A978B9
:106CF000204600F0A3F80528694603A811D0FAF74A
:106D0000AFFC024648F20661401A8A4226D00BDCEC
:106D1000DAB1A2F5064002380AD121E0072006B018
:106D200070BDFAF7A5FCECE7012815D0072813D0B1
:106D30000C480D492346401AC008012101EB0040D0
:106D40000A49FEF73AF90320E9E71EB1314603A8E4
:106D5000FAF757FC0020E2E71120E0E78620DEE7A3
:106D60001020DCE758F0030028F00300F8B003001F
:106D70004FF6FF7000F09AB810B5FF2801D9072030
:106D800010BD00F099F800F005F8002010BD00F0EB
:106D9000D7B80000F0B5244E8DB00020707002907E
:106DA0004FF6FF750390284600F0A6F8044648F217
:106DB000096706E0204600F091F8204600F09CF8B4
:106DC0000446AC422BD004F5404080B202AA04A98C
:106DD000FAF70FFCB842EDD004F5404080B2FAF764
:106DE0001FFB05460120A5F50641073919D0002DE6
:106DF00015D00E490E4A2346891AC90800EB0140F6
:106E00002A460C49FEF7D9F814220B4907A8F0F7D7
:106E10002DFBADF8204007A80995FFF767FE0DB0E0
:106E2000F0BD7070FBE70000542C002058F0030008
:106E300028F0030050B1030018A503007CB50546F7
:106E400016460C46084600F011F80020009005F5A3
:106E50004045019004F54044A8B2A1B26B463246C9
:106E6000FAF7B8FB002800D005207CBD07280DD01C
:106E700001280BD0082809D0052807D0062805D0FE
:106E8000092803D0042801D0002070470120704752
:106E900010B503EB83034FF6FF7404EA031381700C
:106EA000DB1C99084260018010BD00000149F9F720
:106EB0009FBC0000F049002010B50446A0F57F40BB
:106EC000FF3807D004492046F9F792FCA04201D1CF
:106ED000012010BD002010BD104A002010B504464E
:106EE000044901F0ABFA03492046BDE810402031C7
:106EF00001F0A4BAF04900200149FCF7A8B800004D
:106F0000104A002070B50A49FCF7A1F804464FF674
:106F1000FF7507E000F01EF838B105492046FCF780
:106F200096F80446AC42F5D170BD204670BD000015
:106F3000F049002001484021F0F7C0BAF049002094
:106F4000FF2803D801460248FCF720B9002070470B
:106F5000F0490020FF2803D801460248FCF716B983
:106F600000207047104A00201CB500F0E7FB08B174
:106F7000F7F7F2FA0020009001909DF8000020F051
:106F80007A0040F00500303020F080008DF80000DD
:106F900007208DF8010010208DF802009DF80300F5
:106FA00040F003008DF803009DF8040040F003005A
:106FB0008DF80400684600F097FE08B1F7F7CCFAA8
:106FC000034800F07BFE002801D0F7F7C5FA1CBD8E
:106FD0004D7103000068012805D0022803D0042861
:106FE00001D00020704701207047000010B505490E
:106FF000C20800F00703885C01249C4020438854A9
:1070000010BD00000C6400200449084490F93000D1
:10701000082801DB0120704700207047A86300208A
:107020000449084490F93000082801D20120704733
:1070300000207047A86300202DE9F0410F460600AC
:107040002AD0306840B3706830B3FF24002520E0B8
:1070500029467068FCF765F880F00100BFF35F8F88
:1070600048B1FF2C00D12C46281B401CB8420ED141
:107070002046BDE8F081FF2C06D108E021463046CD
:1070800000F032F8641CE4B2AC42F7D3FF246D1C6C
:10709000EDB2B068A842DBD8FF20EAE770B5DDE9C1
:1070A000044558B151B14BB104FB05F6964205D8E1
:1070B00024B11DB180E83A00002070BD072070BDEA
:1070C00070B504000D460DD0206858B1606848B115
:1070D000FF2D07D0FBF740FF20B1E168206805FBDA
:1070E000010070BD002070BD70B504000D4613D0C6
:1070F0002068002810D0606800280DD0FF2D0BD02C
:10710000FBF72AFF002807D060682946BFF35F8F8E
:10711000BDE87040FBF7FABF70BD0000034A12786B
:107120000AB101F0EFBF082070470000682C002072
:10713000054A10B512782AB102F066F8082800D185
:10714000112010BD082010BD682C002010B5044689
:1071500000F040F9204600F00DF820780C2804D10A
:10716000BDE810400020F7F709B910BDFAF7BEB826
:10717000FAF7BCB82DE9F04105460178614C0020D2
:10718000012686B004F1500715291AD2DFE801F074
:107190000B19291919193419901990191919191954
:1071A00019191992AB00A88800F03CFC86280BD076
:1071B000112809D0062804D0072802D0132800D0AF
:1071C000F0BB06B0BDE8F0816068A98827F8101010
:1071D000401CC11700EB517121F00701401A60609B
:1071E0008AE0287A012801D00028EAD1A88806B0D0
:1071F000BDE8F04100F076BF20780028E1D1424898
:107200004249401AC708032000EB0740804640A1CE
:10721000FDF7C8FE607870B96846FAF745FA051EB2
:1072200001D0F7F799F9BDF8060000B101206070B0
:1072300080B1002DC5D1FAF717F9002836D000E04B
:1072400003E0A0F506410739BBD006B0BDE8F04128
:10725000F7F782B900236A461946184600F070FC19
:1072600005000ED14046BDF8002030A1FDF79EFE7E
:10727000BDF8000000F0CCFB051E0AD0F7F76CF952
:107280006670052D07D0062D09D02846F7F764F95A
:1072900097E76670CFE706EB07402FA103E00220D7
:1072A00000EB074034A1FDF77DFE8AE7267088E7F2
:1072B000667086E720706070656800244FF6FF7680
:1072C0006019C11700EB517121F00701401A07EB5B
:1072D00040010888B04202D00E8000F003FF641C19
:1072E000082CEDDB6DE72070A868A0F506410D398C
:1072F00002D0B0F5064FCBD106B0BDE8F04100F0AA
:107300005BB80000782C002070F0030028F0030028
:10731000417474656D7074696E6720746F20636C5E
:1073200065616E20666C6173682E000044656C6553
:1073300074696E67206C6F776573742072616E6B11
:10734000656420706565722028706565725F696488
:107350003A20256429000000546865726520617236
:1073600065206E6F20706565727320746F20646590
:107370006C6574652E000000506565722072616E48
:107380006B732066756E6374696F6E616C69747976
:107390002069732064697361626C65642C20736F6B
:1073A000206E6F2070656572732061726520646560
:1073B0006C657465642E000000B585B01422044924
:1073C0006846F0F753F86846FFF7D4FE05B000BDF5
:1073D00068A5030010B5044600F026F8207890B1A7
:1073E000072816D10B480C49401AC008012101EBAF
:1073F00000400AA1FDF7D6FDA068002809D0BDE82D
:107400001040F7F7A9B86088BDE810400021F9F7EF
:1074100065BB10BD70F0030028F003004173736575
:107420007274696E672E00002DE9FC5F04460278D5
:107430005148524D0221401BC008DFF8389101EB42
:1074400000450323012109F10C0B03EB004701EB7D
:107450000046A9F1080A09F11808152A71D2DFE8D7
:1074600002F019190B1B19192A2D3448575B63694F
:107470001971191919197A006088F8F795F8217AA5
:1074800059F820205BF821000090638838463CA121
:10749000FDF79BFDBDE8FC9F6088F8F785F8237A2F
:1074A00059F8202061895BF82300CDE90001638849
:1074B000384643491AE0284642A137E0A068FEF763
:1074C0004FFA0246304645A14BE0207CC00701D070
:1074D0003AA100E04CA1627A5AF82200CDE90001FD
:1074E000217AA288384658F821304A49FDF776FDBE
:1074F000D0E72069FEF734FA627A5AF82210CDE913
:107500000010217AA288284658F821304249EDE738
:10751000A288304641A124E0A068FEF721FA034684
:10752000A288304647A111E0384652A1BDE8FC5F71
:10753000FDF738BDA068FEF713FA0246304652A1A7
:107540000FE013E0A3886288284658A102B0BDE886
:10755000F05FFDF732BDA068FEF702FA024628464A
:1075600061A102B0BDE8F05FFDF720BD28466AA129
:10757000F7E70000882C002070F0030028F00300DB
:10758000436F6E6E656374696F6E207365637572A9
:1075900065643A20726F6C653A2025732C20636F06
:1075A0006E6E5F68616E646C653A2025642C207095
:1075B000726F6365647572653A2025730000000080
:1075C00020B50300466C6173682073746F72616745
:1075D000652069732066756C6C000000556E6578D7
:1075E00070656374656420666174616C2065727295
:1075F0006F72206F636375727265643A2065727290
:107600006F723A20257300002C206E6F2063686132
:107610006E67650078B603002CB60300506565728E
:107620002064656C6574656420737563636573734A
:1076300066756C6C793A20706565725F69643A2092
:1076400025640000506565722064656C6574696F1F
:107650006E206661696C65643A20706565725F6969
:10766000643A2025642C206572726F723A2025736B
:1076700000000000416C6C207065657273206465C9
:107680006C657465642E0000416C6C2070656572D9
:107690002064656C6574696F6E206661696C6564F1
:1076A0003A206572726F723A202573004C6F6361E5
:1076B0006C20444220636F756C64206E6F7420628E
:1076C00065206170706C6965643A20636F6E6E5FEF
:1076D00068616E646C653A2025642C207065657263
:1076E0005F69643A20256400466C617368206761B5
:1076F000726261676520636F6C6C656374696F6E3D
:10770000206661696C6564207769746820657272AF
:107710006F722025732E0000556E65787065637456
:10772000656420504D206576656E742049443A208A
:10773000307825782E000000F9F7D8BD70B5FFF736
:10774000DDF92749274A891AC908012505EB0144B3
:1077500030B1FEF705F903462046234A23A130E065
:10776000FFF760F830B1FEF7FBF8034620461E4AEB
:1077700029A126E001F018FD30B1FEF7F1F803462B
:107780002046194A2FA11CE001F02CFE30B1FEF773
:10779000E7F803462046144A35A112E0FAF7E4FA66
:1077A00030B1FEF7DDF8034620460F4A3BA108E062
:1077B000FAF7E6FB48B1FEF7D3F8034620460A4A3B
:1077C00041A1FDF7FAFB032070BD4A484FF6FF7157
:1077D00081800021816041700570084670BD000005
:1077E00068F0030028F003003CA503002573206621
:1077F00061696C656420626563617573652070649E
:10780000735F696E697428292072657475726E657C
:10781000642025732E0000002573206661696C6565
:10782000642062656361757365207064625F696E70
:10783000697428292072657475726E6564202573D9
:107840002E0000002573206661696C656420626506
:10785000636175736520736D5F696E697428292093
:1078600072657475726E65642025732E00000000C9
:107870002573206661696C65642062656361757358
:107880006520736D645F696E697428292072657460
:1078900075726E65642025732E00000025732066C6
:1078A00061696C65642062656361757365206763F7
:1078B0006D5F696E697428292072657475726E65D2
:1078C000642025732E0000002573206661696C65B5
:1078D000642062656361757365206773636D5F69BA
:1078E0006E697428292072657475726E656420252E
:1078F000732E0000682C00202DE9F041044686B06C
:1079000001278088FAF774FD6080207800263F4DBB
:10791000082808D0092820D04FF6FF780A2829D057
:107920000B2853D158E0607A10B1012809D04DE0FE
:10793000A86830B1E168814203D1AE60A088A88018
:1079400016E06878E8B3A088A98888423ED1207AFA
:1079500006283BD100F0D4FB38E0607A88BBA868E9
:1079600078B3E168814231D1AE60E868401EE860DA
:10797000E6602BE0A878E8B14046FFF72FF94146D2
:10798000404517D10846FFF727F9404512D1AE70A0
:1079900014216846EFF792FD0C208DF80000ADF839
:1079A0000480ADF8028000272046F9F79FFC684666
:1079B000F9F79CFC687838B1A088A988884203D17F
:1079C00000E003E000F09CFB002F1CD006B0204636
:1079D000BDE8F041F9F78ABCA8780028F6D0AE706F
:1079E00014216846EFF76AFD0D208DF80000ADF810
:1079F0000480ADF80280A06802902046F9F776FC7A
:107A00006846F9F773FC06B0BDE8F081682C0020E9
:107A10000349097809B1FAF78BBD082070470000C7
:107A2000682C0020F0B5324C064687B0207838B17B
:107A30003049D1E90201CDE90501607818B104E0CF
:107A4000082007B0F0BD00F05BFB6078A168401E25
:107A5000084301D0112547E0A088002786421CD1A9
:107A6000E068D0B1002514216846EFF727FD082013
:107A70008DF800003046FAF7BBFCADF80200062096
:107A80008DF80800ADF804608DF8097003978DF843
:107A900010706846F9F72AFC26E0E068411C25D002
:107AA000401C134AE060083205A93046FFF706F98A
:107AB000050019D0A760E068401EE060112D13D0CA
:107AC000862D11D0072D0FD02846FDF749FF02461D
:107AD00009480A493346401AC008012101EB004019
:107AE00007A1FDF76AFA03252846AAE71325FBE755
:107AF000682C00203CA5030068F0030028F0030078
:107B0000436F756C64206E6F74207570646174656A
:107B10002072616E6B2E207064625F7261775F739A
:107B2000746F726528292072657475726E656420A1
:107B300025732E20706565725F69643A20256400A4
:107B40002DE9FF4F344885B09946007892468B4620
:107B5000C0B14FF6FF742046FFF740F88046002082
:107B60000421CDE90210009003A8019002AB6A46FF
:107B700006214046FFF768F800277E1E25460728A5
:107B800004D017E0082009B0BDE8F08F0520FAE71F
:107B90000398B84201D307464546B04201D2064693
:107BA00044464046FFF71AF8804602AB6A46062173
:107BB000FFF74AF80028EBD00528F2D04FF6FF7106
:107BC000884519D18D4201D08C4201D1052000E0B9
:107BD0000020059901B10D80BBF1000F01D0CBF859
:107BE0000070BAF1000F01D0AAF80040B9F1000FFF
:107BF000C9D0C9F80060C6E7FDF7B2FE02460748E3
:107C000007494346401AC008012101EB00400549DD
:107C1000FDF7D3F90320B6E7682C002068F00300D5
:107C200028F003001CB30300F0B51F4E85B0307878
:107C3000D0B101274FF6FF74B7702046FEF7CEFF94
:107C40000546A0422BD10020B07014216846EFF702
:107C500035FC0C208DF80000ADF80440ADF8024072
:107C60006846F9F743FB1CE0082005B0F0BD00BFF3
:107C7000FFF7CEFE78B1FDF773FE03460B480C49C3
:107C80000C4A401AC00807EB00400B490095FDF76D
:107C90009CF90320E9E72846FEF7A0FF0546A54228
:107CA000E6D10020E1E70000682C002068F0030026
:107CB00028F0030058A5030064B30300084A1178B4
:107CC00021B1D178032903D30420704708207047DD
:107CD000044B43F82100491CD1700020704700007C
:107CE000682C0020304A00200349097809B101F0CE
:107CF000C7BA082070470000682C0020002801D077
:107D0000F9F7F4BA704770B50D00044602D10020AF
:107D1000F6F722FC14B90020F6F71EFC2878207034
:107D200069886170090AA170A988E170090A217146
:107D3000E8886071000AA07170BD00002DE9F84F5D
:107D4000314F05464FF001090024381990F96010B1
:107D5000491C46D090F86000294620F0C006304605
:107D6000FBF7B0FA70B3204600F050F88246684640
:107D70000096FCF799FE009900EB8100D0F800070F
:107D8000C0F30148B8F1020F1DD002213046FCF7C4
:107D90004DFE68460096FCF787FE009A09FA02F14C
:107DA000C0F820153046F8F723FC57F820204AB1D8
:107DB0005046BAF1030F11D0B8F1020F05D0B8F157
:107DC000030F07D00DE00321E0E75046BAF1010FA1
:107DD00004D006E05046BAF1020F02D10146304607
:107DE0009047641C042CB0D32A4602210020FCF7E3
:107DF00035FE002055F820100029A5D1401C02288E
:107E0000F8D3BDE8F88F0000A863002002490844B9
:107E100090F8600080097047A863002010B50C46F8
:107E2000017A052908D0407A38B1084808A10268CB
:107E30002046FCF717FA00E01AB106A12046FCF72D
:107E400011FA2046BDE81040FCF719BA582E002060
:107E5000257300000D0A000038B5C3880D4604469E
:107E600033B114A0009015A216A12846FCF7FAF928
:107E7000217A05291CD0607A48B1A088FCF750FF10
:107E8000164951F8202016A12846FCF7EBF9A088E6
:107E90000021FDF731F903461049207A143951F8D1
:107EA000202001B02846BDE830400EA1FCF7DAB929
:107EB00038BD00001B5B306D000000001B5B313BD8
:107EC00033316D0025734C6F67732064726F70706F
:107ED0006564202825642925730D0A00582E00208A
:107EE000257300003C25733E2025733A20000000D6
:107EF0000349884201D103487047002070470000C1
:107F0000002000406C2D00200146054810B5006897
:107F1000FBF7D0F804461C21EFF7D0FA204610BD3D
:107F200068A80300014602480068FBF7E4B80000B7
:107F300068A80300034802490068FBF7C6B80000C0
:107F4000FC2D0020F0A80300F0B5264D264E85B08C
:107F500004460027686828B9224930680831FBF7D1
:107F6000BFF8686001460078072817D2DFE800F004
:107F7000160408080E0E12002046FAF739FB02E03C
:107F8000204602F099F9040029D009E02046F8F7CC
:107F90001FFEF8E72046F9F7AFFCF4E748F20E645D
:107FA00014216846EFF78AFAA4F5E8501D3800D18D
:107FB0000024019469466868F9F738F86846F9F7CB
:107FC0006FF808496F60002408313068FBF77DF8CE
:107FD000044801210C30FBF71DF90028BAD105B087
:107FE000F0BD0000C82D002068A803002DE9F04175
:107FF000234C0025234E207A012730B92248311D19
:108000000068FBF76DF8306038B1022020723168EB
:10801000087928B101281ED116E06560BDE8F0811D
:10802000D1E90503C01A4FF48052904200D31046A4
:10803000B7EB900F01D2820800E001220869C968FD
:108040001844194429DF03E0D1E90301084428DF7B
:1080500058B1112812D003213068F9F731F8257290
:108060006560BDE8F041FFF765BF207C0028D5D1F1
:10807000BDE8F04100210220FCF7FCBA2772CDE7F1
:10808000A8660020F82D0020F0A8030010B50121FB
:108090000448FBF7A5F8002803D1BDE81040FFF71E
:1080A00053BF10BDD42D002010B5074C201DFBF789
:1080B00088F8002806D1607C002803D1BDE8104074
:1080C000FFF794BF10BD0000A866002001680A6891
:1080D0004968914201D3881A70478068801A084421
:1080E000401C704710B586B0044614216846EFF76F
:1080F000E5F9ADF804406846FFF73CF806B010BD5E
:108100000B4910B500231A46A1F10800FFF718FD2E
:1081100007490C39052803D038B10020487010BD3C
:108120004FF6FF7088800020C8600120F6E700004D
:10813000742C002010B510461A46EFF797F900206E
:1081400010BD00002DE9F0438146234885B0017839
:10815000002936D00021214F01700D4680460126AE
:1081600005EB450007EB8004A07A810701D4C10725
:108170002ED088F80060800702D4B9F1000F27D014
:10818000204601F023FF18B34FF6FF71ADF802103F
:108190002188ADF80410862816D007218DF800102C
:1081A0000290FDF7DDFB02460D480E492388401A78
:1081B000C00806EB00400C49FCF7FFFE6846FEF7DE
:1081C00023FB05B0BDE8F08306208DF80000F5E73D
:1081D0006D1C042DC4D3F4E7602C0020C04900209E
:1081E00060F0030028F00300BCB203002DE9F04763
:1081F000074620481C46154600780E4670B18DB1E2
:1082000084B1DFF874804FF00009A08802282DD2D5
:1082100000EB800118F8210020BB1BE048F2016050
:10822000BDE8F08748F20460FAE720681FB1818852
:108230003A8891420ED11EB101883288914209D10B
:1082400080682860206868600B4828300089288191
:108250000020E5E7A088214600F060F80028E4D17E
:10826000C4F80090A088401CA080CEE748F20960C6
:10827000D6E70000E82D0020D4650020F8B50546BB
:108280004068244F0C46002648B32349CA688242FE
:1082900025D80969814222D3FAF7FEFAF8B1288974
:1082A000398988421BD1D5E900018A68904216D1EC
:1082B0000020A7F1280200BF00EB800302EB83033C
:1082C0005B688B4205D203F580538B4201D9208035
:1082D00011E0401C80B20228EED30020F8BD2680B9
:1082E00000960AE0009829688068884205D10098C5
:1082F0006860388928810120F8BD2088694600F02F
:108300000DF80028EED12088401C80B22080022881
:10831000E6D3E2E7FC650020842E002070B50E460F
:1083200000EB8001134800EB81004468306804F5DD
:10833000805518B1418800EB810411E0083410E049
:1083400029462046F9F70EFF20B1012805D0022862
:1083500007D10DE00120346070BD608804EB80041B
:108360000C3429462046F9F713FF0028E8D170BDE8
:10837000002070BDD465002038B50C460021009166
:1083800001460423084A0948FCF7C6F910B148F22F
:108390000D6038BD064A04EB840102EB8101012027
:1083A0000874002038BD00006CA80300842E002053
:1083B000D46500202DE9F047884600EB80011E4877
:1083C0001D4600EB810016464168DDF8209001F162
:1083D000080401F580571BE039462046F9F7C2FE34
:1083E00068B1012802D0022812D119E03088401C5F
:1083F0003080288861880844C01C288004E0B8F8D0
:108400000000401CA8F80000608804EB80040C34D5
:1084100039462046F9F7BCFE0028DDD1BDE8F087DB
:108420003088401C30802988381B01EBA000288050
:10843000012089F80000F1E7D46500200A46FF28F2
:1084400003D801461046FAF761BE7047374A811AD1
:1084500090424CD025DC364AA0EB020190425BD022
:1084600016DC344AA0EB020190424CD009DC002813
:108470003CD03149401840D001283BD0032851D18D
:108480003EE001293FD0022940D003294AD146E0ED
:10849000092947D2DFE801F046464646462E462ED9
:1084A0002B0015293ED012DC112929D008DC012926
:1084B0001DD0032936D00F2922D0102932D125E032
:1084C000122920D013290FD014292BD121E01639DD
:1084D0000F2927D2DFE801F01D262626262626268C
:1084E00026111A17260E0E0048F21750704748F250
:1084F0007050704748F20350704748F2135070476D
:1085000048F21050704748F21150704748F214502A
:10851000704748F20150704748F20250704748F2E5
:108520007150704748F2165070470000110CF0006F
:10853000080CF000040CF00000F40FFF0846704730
:108540001E4810B50078002837D01C481C49183048
:1085500000F0BDFB81B21B48F7F728FC174818490B
:10856000183000F0B4FB81B21648F7F71FFC13482F
:108570001349183000F0ABFB81B21248F7F716FC34
:108580000E480F49183000F0A2FB81B20D48F7F7F2
:108590000DFC0A480A49183000F099FB81B20948DD
:1085A000F7F704FC05480649183000F090FB81B24B
:1085B000BDE810400348F7F7F9BB10BDE02B0020E1
:1085C000F0330020182F002070B50546F8F787FC1F
:1085D000134C40B1D4E904024FF08071411842F1CC
:1085E0000000C4E9041000212846F8F7C5FB30B1AB
:1085F000606820B1606801F0D3F80020606001215C
:108600002846F8F7B9FB18B1F9F774FCC4E906017C
:10861000284601F0F1F82846BDE8704000F034B873
:10862000982D002070B5054600200C460870F9F71B
:1086300061FCD5E90223101A63EB010300263146E1
:10864000361A994112DAB0F5350F03D3F5F794FFD6
:108650000B4942184FF4960300210A48F8F74BFCE7
:1086600010B10D2806D009E0012070BD0021054899
:10867000F8F778FB284601F093F82070002070BDD1
:10868000FFFFB400A02D0020F8B51A4C07460026C5
:108690001948FDF725F9D0B1616871B1D0E9021030
:1086A0006268D2E90232C91A904120D26068007F24
:1086B00018B161681048FDF702F900F0B1FF0546F6
:1086C0006946FFF7AFFF98B1606840B10AE06068A3
:1086D00000280CD13846BDE8F840F8F708BC384609
:1086E000F8F701FC65609DF800000028D0D1F8BDC6
:1086F0006660CDE7982D002048A8030070B50546B8
:1087000088690C4600284FF4847128460AD0FDF78A
:1087100036F9D5F81805626AE1688854606A401C29
:10872000606270BDFDF72BF9D5F8180570BD1FB557
:1087300001238DF80030CDE90121D0E9001268460F
:1087400090471FBD1FB501238DF80030CDE90121F1
:10875000D0E90012684690471FBD000010B50446DE
:10876000064801792046F6F74FFF002804D120463D
:10877000BDE8104000F02CBB10BD0000302C0020E4
:1087800038B50021012548B1012810D003280DD1AA
:10879000FDF714F9BDE83840FBF716BD4FF0E020B7
:1087A000C0F88051BFF34F8FBFF36F8F38BD8DF886
:1087B00000106846F5F73EFF064C207808B9FBF735
:1087C000E3FCE068401CE060A5709DF80000F5F750
:1087D00055FF38BD4463002038B5114C58B103280B
:1087E0001CD100208DF800006846F5F723FF2178A2
:1087F000012909D00EE0207801280FD1FDF7ACFA4D
:10880000BDE83840FDF7B2BA0649601CFDF768FACA
:10881000FDF792FA9DF80000F5F730FF38BD000033
:108820004C2D0020A95C03003EB50446094968466A
:10883000FDF71EF808E000BFD0E900212046904770
:1088400030B16846FDF72BF802980028F4D13EBD00
:1088500011203EBDCCAA03003EB504460849684637
:10886000FDF706F807E000BFD0E900212046904759
:108870006846FDF714F802980028F5D13EBD0000C7
:10888000D8AA03002DE9FE4304460C300027804699
:10889000F9F776FE4FF6FF760546B042208803D101
:1088A000F9F75CFE054602E02946F9F737FE208815
:1088B0000022012100F008F9B54214D001AA0721D5
:1088C0002846FEF735F870B9029EA07D3436C00701
:1088D00009D0307CC00705D1414606F11200F9F7F6
:1088E00008FE00B13746002320881A46394686DF45
:1088F0001649174A0646891A4FEAD108082811D0A6
:10890000BEB1FDF72DF802460121009501EB0840AC
:1089100023881049FCF759FB2088314600F060F9A4
:10892000BDE8FE83022101EB08400B49FCF73AFB4E
:10893000F6E7A07DC007F3D0002FF1D120880022F8
:1089400041F20601F8F746FBEAE7000078F0030081
:1089500028F00300BCB60300F4B703002DE9FC4780
:1089600088460646274828491C00A0EB01004FEA2C
:10897000D0074FF00100914600EB074515D006F5F2
:10898000807080B26B4601220721FEF71BF8112888
:1089900009D080B1FCF7E4FF0246284633461B4964
:1089A000FCF70BFB0320BDE8FC872846184A19A1F9
:1089B000FCF7FCFAF6E750210198EEF77FFD0199EC
:1089C00081F800800198C4F80C9034302060019840
:1089D000183020610198401C60611B48E0610199DA
:1089E00030461131F9F77AFC0028DCD0FCF7B8FFEB
:1089F0000246022000EB074033461449FCF7DDFA3B
:108A00000820D0E778F0030028F00300BCB803008A
:108A1000E4A50300496E7465726E616C2065727224
:108A20006F723A20257320726563656976656420EC
:108A30004E554C4C20666F7220705F7365635F6BA0
:108A400065797365742E00003C4A00203CAC03003D
:108A5000002835D00278910701D411062FD4C2F333
:108A6000021104292BD8930703D5032901D111063C
:108A700025D5437881788B4221D8072B1FD3102925
:108A80001DD8C1784B071AD40079430717D40B07B8
:108A900015D4030713D4D2074FEAC17201D042B1F3
:108AA0000FE062B989070AD4C10708D1800706D44C
:108AB00007E0890705D4C10703D1800701D400204E
:108AC0007047012070470000F0B5154E14460F4660
:108AD0000A4685B005463178F6F7AEFD002F1AD06C
:108AE0000CB1012200E0002271782846F6F7A4FDBF
:108AF000012C12D00022B1782846F6F79DFD1422F1
:108B000008496846EEF7B2FCADF802508DF808400F
:108B10006846F8F701FC05B0F0BD0122EBE7000064
:108B2000D82C002080A50300F8B504461448002581
:108B30002E46806808B36088F6F7F0FCA0B10020EC
:108B40000090207A9DF80020410861F3820260F3D2
:108B5000C302800860F304128DF800206088694623
:108B600000F07AFB80F00106608801B032462946A9
:108B7000BDE8F0400123F9F7C3BE0125F4E700008A
:108B8000E02C002010B586B0044614216846EEF7AC
:108B900095FC04208DF80000ADF802406846F8F717
:108BA000BBFB06B010BD000002498969002900D056
:108BB000084770476435002030B585B00C4605463F
:108BC000142206496846EEF751FCADF8025068469B
:108BD0000294F8F76FFB05B030BD00008CA40300D1
:108BE00030B585B00C460546142206496846EEF7B6
:108BF0003DFCADF8025068460294F8F78DFB05B0D5
