:020000040000FA
:10000000E0330020490300005103000031020000EA
:1000100055030000570300005903000000000000D2
:100020000000000000000000000000005B03000072
:100030005D030000000000005F030000610300009A
:10004000DD1A000063030000FD1C000063030000D4
:1000500063030000000000003918000000000000E9
:1000600063030000630300006303000063030000F8
:1000700063030000ED1A0000630300006303000047
:1000800063030000151B000063030000630300000E
:1000900063030000630300006303000063030000C8
:1000A000630300006303000063030000000000001E
:1000B0000000000000000000000000000000000040
:1000C0000000000000000000000000000000000030
:1000D00000000000000000000000000063030000BA
:1000E0000000000000000000000000000000000010
:1000F0000000000000000000000000000000000000
:1001000000000000000000000000000000000000EF
:1001100000000000000000000000000000000000DF
:1001200000000000000000000000000000000000CF
:1001300000000000000000000000000000000000BF
:1001400000000000000000000000000000000000AF
:10015000000000000000000000000000000000009F
:10016000000000000000000000000000000000008F
:10017000000000000000000000000000000000007F
:10018000000000000000000000000000000000006F
:10019000000000000000000000000000000000005F
:1001A000000000000000000000000000000000004F
:1001B000000000000000000000000000000000003F
:1001C000000000000000000000000000000000002F
:1001D000000000000000000000000000000000001F
:1001E000000000000000000000000000000000000F
:1001F00000000000000000000000000000000000FF
:10020000DFF80CD000F074FC004800479D2B000084
:10021000E033002000B583B002900091019244F2D7
:10022000010071466A4601F033FE03B000BD0000D4
:10023000094B1EF0040F1CBFEFF309801847EFF3C2
:1002400008800649064A884201D8904202D88D4665
:100250004FF0000018470000DD180000E0330020D8
:10026000E013002030B4044654E8000F0D4644E883
:100270000053002BF8D1156030BC704730B40446F1
:1002800054E8000F40EA010544E80053002BF7D181
:10029000156030BC704730B4044654E8000F00EAE3
:1002A000010544E80053002BF7D1156030BC7047BE
:1002B00030B4044654E8000F80EA010544E80053D6
:1002C000002BF7D1156030BC704730B4044654E8B9
:1002D000000F00EB010544E80053002BF7D1156037
:1002E00030BC704730B4044654E8000FA0EB010561
:1002F00044E80053002BF7D1156030BC704770B450
:1003000004464FF0000054E8006F0D68AE4207BF8E
:1003100044E80023012044E800630E60002B1CBF6A
:100320000020F0E770BC704730B4044654E8000F7A
:1003300088422CBF451A054644E80053002BF5D1EE
:10034000156030BC704700000648804706480047EB
:10035000FEE7FEE7FEE7FEE7FEE7FEE7FEE7FEE775
:10036000FEE7FEE7851B00000102000070B491E883
:100370007800B2E802105B1854EB0C04B2E80210EB
:100380004D4156EB0C0680E878008041013070BC8E
:10039000704770B491E87800B2E802105B1A74EB11
:1003A0000C04B2E802108D4176EB0C0680E8780070
:1003B0008041404270BC70472DE9F00791E8F80792
:1003C000B2E802105B1854EB0C04B2E802104D4185
:1003D00056EB0C06B2E802104F4158EB0C08B2E89D
:1003E000021059EB01095AEB0C0A80E8F80780412A
:1003F0000130BDE8F00770472DE9F00791E8F807F4
:10040000B2E802105B1A74EB0C04B2E802108D41E2
:1004100076EB0C06B2E802108F4178EB0C08B2E8DC
:10042000021079EB01097AEB0C0A80E8F8078041A9
:100430004042BDE8F00770472DE9F007524290E8CE
:100440007800B1E880071740DB1918EA020854EB7E
:10045000080419EA020955EB09051AEA020A56EBE3
:100460000A0678C090E87800B1E8800717407B4121
:1004700018EA020854EB080419EA020955EB0905C9
:100480001AEA020A56EB0A0678C080410130BDE83C
:10049000F00770472DE9F007524290E87800B1E884
:1004A00080071740DB1B18EA020874EB080419EAFE
:1004B000020975EB09051AEA020A76EB0A0678C00A
:1004C00090E87800B1E880071740BB4118EA0208BD
:1004D00074EB080419EA020975EB09051AEA020A25
:1004E00076EB0A0678C080414042BDE8F0077047CD
:1004F00090E8300091E8C000A31B1340E41AF618FE
:10050000EB1B1340ED1AFF1830C0C0C17047F0B5A7
:100510005242FFF7EDFFFFF7EBFFFFF7E9FFFFF7B1
:10052000E7FFF0BD2DE9F0073AC91668A1FB069A6E
:100530004FF0000CE3FB06AC4FF00007E4FB06C7EE
:100540004FF00008E5FB067840F8049B56684FF032
:100550000009E1FB06A9E3FB66C9E4FB6679E5FB5C
:10056000668940F804AB96684FF0000AE1FB06CAC2
:10057000E3FB667AE4FB668AE5FB669A40F804CB07
:10058000D6684FF0000CE1FB067CE3FB668CE4FBD5
:10059000669CE5FB66AC80E88017BDE8F007704715
:1005A0000A462DE9F04F92E8F00F2DE9F30F87B0DE
:1005B0001EC90998A1FB00784FF00009E2FB0089F1
:1005C0004FF0000AE3FB009A4FF0000BE4FB00AB96
:1005D0000D984FF0000CE1FB00BC4FF0000EE2FB69
:1005E00000CE4FF00005E3FB00E54FF00006E4FB12
:1005F000005600970A984FF00007E1FB0087E2FBE6
:100600006097E3FB60A7E4FB60B70E98E1FB60C76F
:10061000E2FB60E7E3FB6057E4FB6067CDF8048032
:100620000B984FF00008E1FB0098E2FB60A8E3FBA9
:1006300060B8E4FB60C80F98E1FB60E8E2FB60583B
:10064000E3FB6068E4FB6078CDF808900C984FF00D
:100650000009E1FB00A9E2FB60B9E3FB60C9E4FB30
:1006600060E91098E1FB6059E2FB6069E3FB6079A7
:10067000E4FB6089CDF80CA0089901F110011EC9B6
:1006800009984FF0000AE1FB00BAE2FB60CAE3FB05
:1006900060EAE4FB605A0D98E1FB606AE2FB607A75
:1006A000E3FB608AE4FB609ACDF810B00A984FF043
:1006B000000BE1FB00CBE2FB60EBE3FB605BE4FBE8
:1006C000606B0E98E1FB607BE2FB608BE3FB609B61
:1006D000E4FB60ABCDF814C00B984FF0000CE1FBCD
:1006E00000ECE2FB605CE3FB606CE4FB607C0F9879
:1006F000E1FB608CE2FB609CE3FB60ACE4FB60BC74
:10070000CDF818E00C984FF0000EE1FB005EE2FB24
:10071000606EE3FB607EE4FB608E1098E1FB609E00
:10072000E2FB60AEE3FB60BEE4FB60CE079800F145
:100730001C0181E8E05FBDE8F80380E8F8030AB037
:10074000BDE8F08F30B44FF0000310F8014B11F802
:10075000015B013A84EA050443EA0403F5D1A3F1FD
:1007600001034FEAD37030BC70474FF0000310F81C
:10077000012B013943EA0203F9D1A3F101034FEA46
:10078000D370704711F8013B00F8013B013AF9D1F1
:100790007047002200F8012B0139FBD1704700BFE0
:1007A0002DE9F04FB0E8FE5F83B02DE9015890E8E5
:1007B00000584FF00A00069003984919484019EB79
:1007C000304995EA090511EB355191EA304019EBB2
:1007D000306999EA355592199BEA020B1AEB3B4AAC
:1007E00096EA0A0612EB365292EA3B4B1AEB3B6A48
:1007F0009AEA3656CDE9049ADDE9019ADB199CEABA
:10080000030C19EB3C4997EA090713EB375393EABA
:100810003C4C19EB3C6999EA375714EB08049EEA03
:10082000040E1AEB3E4A98EA0A0814EB385494EA8C
:100830003E4E1AEB3E6A9AEA385811EB766191EA1D
:100840003E6E19EB3E4999EA766611EB365191EA14
:100850003E4E5FEA3E6E19EB0E0999EA36565FEAA4
:10086000766612EB776292EA30601AEB304A9AEAC7
:10087000776712EB375292EA30405FEA30601AEB4A
:10088000000A9AEA37575FEA7767CDE9019ADDE90E
:10089000049A13EB786393EA3B6B19EB3B4999EAB3
:1008A000786813EB385393EA3B4B5FEA3B6B19EBE9
:1008B0000B0999EA38585FEA786814EB756494EA92
:1008C0003C6C1AEB3C4A9AEA756514EB355494EA91
:1008D0003C4C5FEA3C6C1AEB0C0A9AEA35555FEA2D
:1008E00075650390069801387FF465AF01BC80E818
:1008F0000058BDE8005800E9FE5F03B0BDE8F08F86
:100900002DE9F14F90E8F80092E8001F13EB08037F
:1009100054EB090455EB0A0556EB0B0647EB0C07A5
:100920000A68A3FB02894FF0000AE4FB029A4FF029
:10093000000BE5FB02AB4FF0000CE6FB02BC4FF0F6
:100940000000E7FB02C04DF8048D4A684FF0000834
:10095000E3FB0298E4FB62A8E5FB62B8E6FB62C831
:10096000E7FB62084DF8049D8A684FF00009E3FB3D
:1009700002A9E4FB62B9E5FB62C9E6FB6209E7FB99
:1009800062894DF804ADCA684FF0000AE3FB02BA71
:10099000E4FB62CAE5FB620AE6FB628AE7FB629A55
:1009A00034BC4FF4A0364FEA1C4747EA00474FF0EB
:1009B0000001E7FB06514FEA104747EA0847E7FB0B
:1009C00066414FEA184747EA0947E7FB66214FEAC5
:1009D000194747EA0A47E7FB66B11FFA8CFC8C44CB
:1009E0004FEA9C070CF0030C07EB8707EB1954F157
:1009F000000452F100055BF100064CF1000701BC58
:100A000080E8F800BDE8F08F30B490E83C10511D4C
:100A100053F1000154F1000155F100014CF10001C6
:100A20004FEA9101494201F00501521853F10003C8
:100A300054F1000455F100054CF1000C0CF0030CCE
:100A400080E83C1030BC7047004870471C8E0000A6
:100A500010B5441A0346944209D28418114403E0A5
:100A600011F8013D04F8013D521EF9D210BD40EAD3
:100A70000104A40703D009E010C9121F10C3042AFF
:100A8000FAD203E011F8014B03F8014B521EF9D2E0
:100A900010BDD2B201E000F8012B491EFBD2704715
:100AA0000022F6E710B513460A4604461946FFF73A
:100AB000F0FF204610BD421C10F8011B0029FBD19D
:100AC000801A704730B504460020034600E05B1CE6
:100AD000934203D2E05CCD5C401BF8D030BD0346AE
:100AE00011F8012B00F8012B002AF9D118467047A4
:100AF000064C074D06E0E06840F0010394E807006B
:100B000098471034AC42F6D3FFF77EFB889E000076
:100B1000A89E000030B58C1810F8012B12F00F03BE
:100B200001D110F8013B120906D110F8012B03E0A6
:100B300010F8015B01F8015B5B1EF9D101E001F8DF
:100B4000013B521EFBD1A142E6D3002030BD000084
:100B50002DE9F04F97B0146801940D4654689969D7
:100B60009268029403920446019A0491109138A16C
:100B7000D1E90001D3F800B0D3F804A0D3F808906D
:100B8000D3F80C801F695E691392029ADB69149294
:100B9000039A0593CDE90E761193CDE90C98129541
:100BA0001592CDE90ABACDE906012BA2D2E90012CD
:100BB00006A8CDE90812FFF7F3FDDDE90A23129933
:100BC0000C98294448440E9D21635A441099A06111
:100BD000049822612F440D9A27620144119F0598C1
:100BE000A16290440299C4F81C8000EB0708149F8E
:100BF0000F9D139A1248C4F82C803944039FA163B7
:100C0000BC46159F534463610CEB070E0D4B069FCA
:100C10002E443B440C4D079F66623D44019E089F55
:100C200032443844094E099F62633E44C4F83CE0B4
:100C300023606560A060E66017B0BDE8F08F00BF7C
:100C4000322D6279657870616E6420337465206B33
:100C5000657870616E642033322D62797465206B23
:100C60002DE9F04F9BB0DDE926AB289CDDF8949090
:100C700000944FF000081C4615465B465246064657
:100C80000F4612A82021CDF8048000F07DF80DA8B1
:100C900000F0E4FC249912AB4A460DA800F0E6FCF3
:100CA00012AB224629460DA800F0E0FC4FF0010CE3
:100CB000289BCDF808C00193294638465346224662
:100CC000CDF800B000F076FA12AB0DA805A90C2201
:100CD000CDE90598079400F0C9FC12AA0DA809A94E
:100CE00000F09EFC304609A91022FFF72BFD0138C9
:100CF0001BB0BDE8F08F00BF2DE9F04F97B0DDE9E4
:100D000022AB249C00944FF000081C460D4606467A
:100D100017465B4652460EA8CDF804802021DDF828
:100D2000849000F031F8249B4FF0010CCDF808C0FE
:100D300039462246CDE900B32846534600F03AFA38
:100D400009A800F08BFC20990EAB4A4609A800F0D8
:100D50008DFC0EAB2246294609A800F087FC0EAB9D
:100D600009A805A90C22CDE90684CDF8149000F05D
:100D70007DFC0EAA314609A800F052FC17B0BDE870
:100D8000F08F00BF000000002DE9F04FA1B0CDE9C9
:100D90000910DDF8A890002900F01B81002B00F05D
:100DA000E481591E505C8DF83F00002900F0E1817C
:100DB000991E505C8DF83E00002900F0DC81D91EA0
:100DC000505C8DF83D00002900F0D781191F505C60
:100DD0008DF83C00002900F06C81591F505C8DF8A3
:100DE0003B00002900F0CB81991F505C8DF83A0040
:100DF000002900F0C681D91F505C8DF83900002908
:100E000000F0C181A3F10801505C8DF83800002981
:100E100000F0BB81A3F10901505C8DF83700002977
:100E200000F0B581A3F10A01505C8DF8360000296D
:100E300000F0AF81A3F10B01505C8DF83500002963
:100E400000F0A981134413F80C3C8DF83430099B51
:100E50003F2B40F2C1802B9ADDF828A002F1010B54
:100E6000403B9A090BEB9313079310AB0B9208933B
:100E7000D84601E008F10108D9F80020D9F814306B
:100E80000D9801930FF2183CDCE900BC1446D9F828
:100E900004200290CDE910BC0E98D9F80870D9F85A
:100EA0000C6003900FF2003CDCE900BCCDE9144279
:100EB0000F980692019AD9F81830D9F81C10D9F871
:100EC0001050049019922B98029A1A93CDE912BCF3
:100ED000CDE9167605911B911C90189508981D92E6
:100EE000039A1E92049A1F929B46FFF759FCDDE974
:100EF00016301499159ADFF8B8E221443B44CAF839
:100F00001010CAF818301999019B189F0B441C4601
:100F10003D44CAF824401D9F029C059BCAF82050FE
:100F200027441B9D039C1F99CAF834709446069A67
:100F30005D1923461E9CCAF82C506244CAF814203E
:100F400003EB040C1C9A2B9B049C1A44109B214419
:100F5000119C064403F1C243CAF81C601A98129E01
:100F6000A64403F5E003139C03F5F04365335844AE
:100F700006F1F24604F1D644CAF8280006F5C40684
:100F8000CAF838C004F50114CAF80030079BCAF843
:100F90003C1006F5345604F5155432363434984571
:100FA000CAF804E0CAF80860CAF80C40CAF8302051
:100FB000CDF8AC800AF1400A7FF45CAF0B9B0A9A33
:100FC000013302EB83130A93099B13F03F03099348
:100FD00006D121B0BDE8F08F2B9B079310AB08938F
:100FE0004B460DAADDE90710FFF7B2FD099B002B68
:100FF0001A4608BF0122032B40F2B5800A98109BC5
:1010000003609308012B36D011994160022B32D036
:1010100012998160032B2ED01399C160042B2AD022
:1010200014990161052B26D015994161062B22D018
:1010300016998161072B1ED01799C161082B1AD010
:1010400018990162092B16D0199941620A2B12D006
:101050001A9981620B2B0ED01B99C1620C2B0AD0FE
:101060001C9901630D2B06D00F2B1D9908BF1E9BE9
:10107000416308BF836322F003039207A9D020AA2B
:10108000099D0A981A44591C12F8402CC2548D42EA
:101090009FD920AA0A44023312F8402C42549D42A0
:1010A00097D920AA1A4412F8402CC25421B0BDE8A6
:1010B000F08F082220A9931EC8180A44002102F8C4
:1010C0004D1C00F84C1C002B3FF4C1AE20AA591E49
:1010D0005018002200F84C2C00293FF4B8AE991E9D
:1010E00020A8084400F84C2C00293FF4B0AED91ECB
:1010F00020A8084400F84C2C00293FF4A8AE191F82
:1011000020A8084400F84C2C00293FF4A0AE591F39
:1011100020A8084400F84C2C00293FF498AE991FF1
:1011200020A8084400F84C2C00293FF490AED91FA9
:1011300020A8084400F84C2C00293FF488AEA3F105
:10114000080120A8084400F84C2C00293FF47FAE89
:10115000093B20A9194401F84C2C002B3FF477AE31
:101160008DF8342073E6002389E7ADF83E300A237A
:10117000ACE70B229EE70A229CE709229AE70722A6
:1011800098E7062296E7052294E7042292E70322D5
:1011900090E702228EE78DF8341058E6AFF3008016
:1011A000657870616E642033322D62797465206BCE
:1011B0006E6420332DE9F04F9BB0894601901046B4
:1011C00002922699DDE9242B002800F0E680002A0F
:1011D00000F01182501E1C5C8DF82740002800F0A2
:1011E0001282901E1C5C8DF82640002800F00982B7
:1011F000D01E1C5C8DF82540002800F00082101FD6
:101200001C5C8DF82440002800F08381501F1C5C7A
:101210008DF82340002800F0F881901F1C5C8DF8A9
:101220002240002800F0F381D01F1C5C8DF8214083
:10123000002800F0EE81A2F108001C5C8DF820402F
:10124000002800F0E881A2F109001C5C8DF81F4025
:10125000002800F0CC81A2F10A001C5C8DF81E4031
:10126000002800F0C681A2F10B001C5C8DF81D4027
:10127000002800F0D281134413F80C3C8DF81C3088
:10128000029B3F2B40F28C80403B4F1C9A090DF192
:101290001C0807EB93134D46CDF81490019C049263
:1012A000C14603930DF1280A1AAE984648E0DDE9DD
:1012B0000A3128684340236068680C9B41406160A4
:1012C000A8680D994340A360E8680E9B4140E16027
:1012D00028690F99434023616869109B414061610F
:1012E000A86911994340A361E869129B4140E161FB
:1012F000286A139943402362686A149B41406162E3
:10130000A96A4B40A362DDE91531E86A4340E36214
:10131000286B179B41402163686B189943406363B6
:10132000A86B199B4140A163E96B474583EA010320
:10133000E36305F1400504F1400439461ED001374E
:101340005B464A465046FFF703FCEB1C1B1B062B73
:10135000ADD805F1FF3C5146601E11F8013B1CF869
:10136000012F8E4283EA020300F8013FF5D1474581
:1013700004F1400405F140053946E0D1C846DDE9F5
:101380000439019A013302EB831209EB8319029BA2
:10139000019213F03F03029307D11BB0BDE8F08F19
:1013A00003910DF11C080DF1280A5B460399424692
:1013B0005046FFF7CDFB019C09F103031B1B062BD5
:1013C00040F20181029B052B40F2FD80002BD9F8F1
:1013D00000100A9814BF1A46012293084140012BBD
:1013E00021606CD0D9F804100B98022B81EA00011F
:1013F000616064D0D9F808100C98032B81EA0001D1
:10140000A1605CD0D9F80C100D98042B81EA000182
:10141000E16054D0D9F810100E98052B81EA000134
:1014200021614CD0D9F814100F98062B81EA0001E5
:10143000616144D0D9F818101098072B81EA000197
:10144000A1613CD0D9F81C101198082B81EA000149
:10145000E16134D0D9F820101298092B81EA0001FB
:1014600021622CD0D9F8241013980A2B81EA0001AC
:10147000616224D0D9F8281014980B2B81EA00015E
:10148000A1621CD0D9F82C1015980C2B81EA000110
:10149000E16214D0D9F8301016980D2B81EA0001C2
:1014A00021630CD0D9F8341017980F2B81EA000172
:1014B000616304D1D9F8383018994B40A36322F006
:1014C000030392073FF469AF1AAA1A4419F80310EC
:1014D00012F8402C029D019C51405A1C9542E15447
:1014E0007FF65BAF1AA9881819F8021010F8400CA3
:1014F000023341409D42A1547FF64FAF1AAAD11842
:1015000019F8032011F8401C4A40E2541BB0BDE812
:10151000F08F08231AA89A1E84180344002003F8A9
:101520004D0C04F84C0C002A3FF4AAAE1AAB501E26
:101530001C18002304F84C3C00283FF4A1AE901E78
:101540001AAC044404F84C3C00283FF499AED01E79
:101550001AAC044404F84C3C00283FF491AE101F30
:101560001AAC044404F84C3C00283FF489AE501FE8
:101570001AAC044404F84C3C00283FF481AE901FA0
:101580001AAC044404F84C3C00283FF479AED01F58
:101590001AAC044404F84C3C00283FF471AEA2F1AC
:1015A00008001AAC044404F84C3C00283FF468AE30
:1015B000093A1AA8104400F84C3C002A3FF460AEE7
:1015C0008DF81C305CE6019B09F1FF3203F1FF3816
:1015D00013461AF8011B12F8010F414008F8011FC9
:1015E00002330299A3EB09039942F1D8D5E603230C
:1015F00090E702238EE7ADF826200A2296E709231A
:1016000088E70A2386E70B2384E7072382E706237C
:1016100080E705237EE704237CE78DF81C002FE696
:1016200070B5164684B004460D46FFF7EDF97169B2
:10163000B069F26933690191029003922146204614
:101640006A460093FEF792FE23682B6063686B6026
:10165000A368AB60E368EB6004B070BD0023C0E931
:101660000033C0E902330361704700BF2DE9F04346
:10167000704F1E685D689C68DB688FB026F070460E
:101680003D403C403B40CDE90465CDE90643002A9E
:1016900000F0CB80804614468F1802F00F054FF003
:1016A000010910E01E68D3F804C008969E68DB6844
:1016B000CDF83090103CCDE909C60B93FFF720F927
:1016C000002C00F0B280A542A7EB040308AA04A9ED
:1016D0004046E7D1621E022A40F2AA801A680092B0
:1016E000A208012A06D0032A596808BF9A68019106
:1016F00008BF0292A10724F0030214D00EA91144DE
:10170000985C01F8380C511C8C420CD90EA8084486
:101710000232595C00F8381C944204D90EA91144D5
:101720009B5C01F8383C0EAA224400230F2C02F8DF
:10173000383C04F1010269D00EA90A440E2C04F1D0
:10174000020102F8383C61D00EAA11440D2C04F1BC
:10175000030201F8383C59D00EA90A440C2C04F1BC
:10176000040102F8383C51D00EAA11440B2C04F1AC
:10177000050201F8383C49D00EA90A440A2C04F1AC
:10178000060102F8383C41D00EAA1144092C04F19C
:10179000070201F8383C39D00EA90A44082C04F19C
:1017A000080102F8383C31D00EAA1144072C04F18C
:1017B000090201F8383C29D00EA90A44062C04F18C
:1017C0000A0102F8383C21D00EAB1944052C4FF029
:1017D000000301F8383C04F10B0217D00EA90A44AB
:1017E000042C04F10C0102F8383C0FD00EAA11446D
:1017F000032C04F10D0201F8383C07D00EA90A446D
:10180000012C02F8383C08BF8DF80F30DDE9026783
:10181000DDE90045012308AA04A94046CDE90A678D
:10182000CDE908450C93FFF76BF80FB0BDE8F083E6
:10183000002263E7FCFFFF0F2DE9F8430025DFF8E6
:1018400094804FF4807601242F460095304602F0B4
:10185000D7FF38B1D8F80403204203D0304602F055
:10186000C5FF2543361D64007F1CB6B2082FEDD39B
:101870004FF4BE74204602F0C3FF48B1204602F088
:10188000B5FF45F000456A460121002002F0BCFE8C
:1018900015F0FF0F16D0012600242E420ED008EBC3
:1018A0008401D1F81005D1F81015C0F304200A4ABC
:1018B000C1F3014152F8242002B190477600641C24
:1018C000082CEAD3002D02DA684604F0B1FBBDE82B
:1018D000F883000000600040900400201CB58146A1
:1018E00003F076FA03F0A2F80028FBD130485FEA53
:1018F000090507682F4830494FF00106A0EB0100A9
:101900004FEAD00006EB004417D020462BA1AA696D
:1019100003F0AAF9D5E90201CDE90001D5E90023D8
:1019200020462CA103F0B8F9E8690090D5E904231A
:10193000204636A103F0A7F903E020463DA103F0BD
:101940008FF91B48001D0068800703D520464649D3
:1019500003F086F9DFF81481002500BF06FA05F0D0
:10196000384206D058F825201AB1204640A103F08D
:101970007BF96D1C1A2DF1D3380606D50C480C30B6
:10198000026820463DA103F06FF9380406D50848E7
:1019900010300268204641A103F066F90448C830BF
:1019A0000068C00700D000BE484600F085F800007F
:1019B00028ED00E0209F0000D09E000048415244E6
:1019C000204641554C5420617420307825303858D9
:1019D00000000000202052303A2020307825303896
:1019E00058202052313A2020307825303858202095
:1019F00052323A2020307825303858202052333A5D
:101A00002020307825303858000000002020523146
:101A1000323A2030782530385820204C523A202055
:101A200030782530385820205053523A20307825CD
:101A300030385800537461636B2076696F6C617441
:101A4000696F6E3A20737461636B20706F696E7496
:101A50006572206F75747369646520737461636B5C
:101A600020617265612E0000AC940000E40000204B
:101A700043617573653A2025732E00004D656D4DE9
:101A8000616E616765204661756C742041646472A3
:101A90006573733A203078253038580042757320CA
:101AA0004661756C7420416464726573733A2030CA
:101AB0007825303858000000BFF34F8F0548016883
:101AC000054A01F4E06111430160BFF34F8F00BF8D
:101AD000FDE700000CED00E00400FA0510B503F08E
:101AE0009BFDBDE8104003F021BD0000064882B018
:101AF0000021016000680090044800680449C0B2F9
:101B0000496802B00847000000D1004008D50040F5
:101B1000CC00002002490248091F096800680847F4
:101B2000DC00002000F018B970B50E46144900EB37
:101B3000400001EBC0051446E86A183520B10128C1
:101B40000FD0022805D113E0284600F039F9A04251
:101B500001D2002411E022463146284600F068F9FF
:101B60000BE0284600F02CF9A042F4D20446F2E73C
:101B70003146284600F02FF90446204670BD00008B
:101B8000540B002030B54FF080500123D0F83011B5
:101B900000220D2901D0102907D14FF08044C4F84C
:101BA0000C21C4F810214B4C22600D2901D01029C2
:101BB00055D1494C2468494D2C60474C241D24685C
:101BC0002D1D2C60444C083424682D1D2C60424C83
:101BD0000C3424682D1D2C603F4C103424682D1DBE
:101BE0002C603D4C143424682D1D2C603A4C183464
:101BF00024683A4D20352C60374C1C3424682D1D48
:101C00002C60354C203424682D1D2C60324C24343B
:101C100024682D1D2C60304C283424682D1D2C6028
:101C20002D4C2C3424682D1D2C602B4C3034246812
:101C30002A4D40352C60284C343424682D1D2C60EE
:101C4000254C383424682D1D2C60234C3C342468EA
:101C50002D1D2C60204C403424682D1D2C600D2936
:101C600001D0102906D11E480168C90702D06FF0C3
:101C7000010101604FF01021D1F80002002803DBC0
:101C8000D1F80402002821DA164C236016480368B4
:101C9000002BFCD01223C1F800320568002DFCD0C7
:101CA000C1F8043201680029FCD0226001680029D3
:101CB000FCD0BFF34F8F0D4801680D4A01F4E0617D
:101CC00011430160BFF34F8F00BFFDE70A49094888
:101CD000086030BD380500400404001020C50040F5
:101CE0000004004004E5014000E401400CED00E088
:101CF0000400FA050090D003D801002010B5054C6F
:101D0000206818B904A1252000F022FA2068BDE857
:101D100010400047C40000202E2E5C2E2E5C2E2E7C
:101D20005C2E2E5C2E2E5C2E2E5C2E2E5C6D6F6437
:101D3000756C65735C6E7266785C647269766572E8
:101D4000735C7372635C7072735C6E7266785F70E2
:101D500072732E630000000010B5124C0220206147
:101D6000606111A0A06104F17800E0614FF40060AF
:101D700020620020A06260620BA1A164E06204F610
:101D80007801E1641021A065C4E91410E06509A19F
:101D9000E01DFEF7A4FE08A12046FEF7A0FE2020CD
:101DA000A07110BD540B00205465726D696E616C9A
:101DB000000000005254540053454747455200006C
:101DC0000269C1688A4203D88068401A104400E062
:101DD000501A401E70472DE9F047C46817468946DF
:101DE00006464FF000083069A04201D9051B02E009
:101DF000B168201A0D1AB0686D1E001BA84200D8E9
:101E00000546BD4200D33D4670682A4620444946F7
:101E1000FEF71EFEB0687F1B2C44A844A944A042D4
:101E200000D10024F460002FDDD14046BDE8F087EA
:101E30002DE9F04104468846D4E90207C51BE16854
:101E4000606816460844B54206D94146FEF700FED2
:101E5000B819E060BDE8F0812A464146FEF7F8FD7A
:101E6000761B08EB050132466068FEF7F1FDE6607F
:101E7000F0E702E008C8121F08C1002AFAD1704733
:101E80007047002001E001C1121F002AFBD17047FA
:101E9000FEB514460E46074672B602F099FF00BF23
:101EA00002F0C4FD0028FBD11D4A1E496FF480409A
:101EB0003B18A2EB01014FF001004FEAD10100EB0A
:101EC000014519D0012B284610D0324616A102F048
:101ED000CBFE1B480068C00700D000BE224603B0FE
:101EE00031463846BDE8F04000F058B8D4E9003239
:101EF00014A102F0C0FEECE7A06803F083FA0346E9
:101F0000D4E90001CDE900100296284614A1A26888
:101F100002F0CCFE28461CA102F0A2FED9E7000088
:101F2000389F0000D09E0000554E4B4E4F574E201C
:101F30004641554C54206174203078253038580083
:101F4000F0ED00E0415353455254494F4E20464175
:101F5000494C45442061742025733A2575000000E2
:101F60004552524F52202575205B25735D206174C8
:101F70002025733A25750D0A50432061743A2030AC
:101F80007825303878000000456E64206F66206543
:101F900072726F72207265706F72740008B50123DF
:101FA0008DF800309DF80030144B186059609A602D
:101FB0006FF48041401807D001280FD1DA60D8684B
:101FC00000689861D86807E01A61186980685861EC
:101FD00018690068986118694068D861186858687D
:101FE0009868D868186958699869D86972B600BF46
:101FF0009DF800000028FBD162B608BD3C0500201A
:1020000010B504F0E9F8012803D004491D2000F0C0
:102010009FF8BDE8104000F013B800009093000056
:1020200010B504F0D9F8012803D004492B2000F0A2
:102030008FF8BDE8104000F00BB80000909300004E
:1020400072B602480168491C01607047D400002044
:1020500003490868401E086000D162B6704700005E
:10206000D400002070B5054608680C46411C04D019
:1020700002F0A8FB206802F09BFA6068411C02D0C5
:10208000002102F083FA2968A069C1F82405607D67
:10209000227D29681043C1F86C05D4E90012286834
:1020A000C0F81425C0F80C15207D012814D1A068B3
:1020B000411C02D0002102F069FAE068411C04D002
:1020C00002F080FBE06802F073FAD4E9021228689B
:1020D000C0F80825C0F8101570BD70B50546086831
:1020E0000C46411C04D002F077FB206802F06AFA2B
:1020F0006068411C02D0002102F051FA2968A069F1
:10210000C1F82405607D217D2A680843C2F86C056A
:10211000D4E900122868C0F80C15C0F81425207DF9
:10212000012814D1A068411C02D0002102F037FA26
:10213000E068411C04D002F04FFBE06802F042FA74
:10214000D4E902122868C0F80825C0F8101570BD3F
:102150001CB56A46CDE90001002144F20200FFF7F8
:1021600097FE1CBD2DE9F04385B08146DDE91104E1
:10217000DDE90C85DDE90F67DDF838C03DB136B12A
:10218000102C07D048F2625005B0BDE8F08348F249
:102190001150F9E70C2B02D048F26150F4E709F135
:1021A0000804012903D069B148F21750ECE702A9ED
:1021B00081E81C00CDE90085334662463946FEF7CA
:1021C0009BFD0DE002A981E81C00CDE900853346A6
:1021D00062463946FEF744FD10B148F26050D3E73D
:1021E0000020D1E710B542685288B2F5807F02D056
:1021F00048F2185010BD20220830FEF729FC0020BC
:1022000010BD002070472DE9F04FADF53F7D14461D
:102210000E468346B2F5C07F05D96FF037000DF545
:102220003F7DBDE8F08F4FF4D0716846FEF738FC73
:1022300068A800F01EFD200E8DF81000200C8DF80F
:102240001100200A8DF8120020208DF8170006AD2D
:102250008DF81340224631462846FEF7F9FB8020D0
:10226000285504F119080020BAA90854401C102868
:10227000FBDB802268A800F001FD070051D100259A
:10228000AA466E46CDF8B8A2CDF8BCA2CDF8C0A241
:1022900044460DF52E79CDF8C4A217E0002049463A
:1022A000335C0A5C5A400A54401C1028F8DB103694
:1022B000102C01D3102000E02046241AAEAB1A46A1
:1022C000012168A800F0C2FC07002AD1002CE5D14A
:1022D000B2A828441022AEA9FEF7BAFB9DF803006D
:1022E0001035401C8DF80300202DCADB8022B2A9D6
:1022F00068A800F0C3FC070013D1B6AE5C46002509
:1023000033461A46012168A800F0A0FC070008D156
:10231000102231462046FEF79BFB10341035202D4D
:10232000EEDB68A800F09EFC4FF4D071684601F027
:10233000A5FA2021B2A801F0A1FA1021BAA801F053
:102340009DFA1021AEA801F099FA1FB1202158463C
:1023500001F094FA384662E741094A4200EB421024
:1023600010B5044A0124844052F82130234342F836
:10237000213010BD500100202DE9F0470546861C94
:1023800091460F464FF0010A0020FFF739FE1B4C23
:1023900004F21C4860683860D4E90101184F401A03
:1023A0003968081A0EE00121404601F001FB00F0F7
:1023B0009BFB0146404601F0FBFAD4E90101401ABB
:1023C0003968081A401C8642EDD8B9F1000F03D0D5
:1023D000052065F3891002E0062065F39F506168CF
:1023E0003A68114004EB8101C86060683044606065
:1023F0000020FFF715FE5046BDE8F08734070020A7
:102400008001002070B50D4604460A2902D10D2135
:10241000FFF7F8FFA0682268411CA1601554D4E9B9
:102420000101814204D32046BDE8704001F012BF93
:1024300070BD0000044881684068814201D10120DC
:10244000704700207047000034070020024908440C
:1024500090F93000704700009004002070B5084CDF
:10246000050009D010342168002907D008682060D1
:10247000496828468847F6E70834F4E770BD00004D
:102480002C040020054A012120B1012805D19170BA
:10249000FFF7E4BF51700020FAE770472C040020DA
:1024A00030B100680549884205D048F202507047B3
:1024B00048F20150704700207047000041454144F8
:1024C00002681368526831B19A4202D38068801A58
:1024D00007E0981A70479A4201D3D01A7047806873
:1024E000C01A401C704700002DE9F04F4E4E87B0D7
:1024F000002030607060B060F06030617061B06189
:102500004A48FEF7D8FA04460246484948A003F074
:102510009DFF2246454949A000F04EF94348FEF789
:10252000CAFA424A0546203A494906F11C0001F020
:10253000BBFB070047484849A0EB01004FEAD00029
:102540004FF0050101EB004401D038461BE0DFF8F5
:10255000D8B0364A02A80BF1440B80E824084FF0AB
:102560001009A2F1240ACDE905694FF00408CDE96C
:1025700000A8ABF134020C23012102F10C0001F0A0
:1025800054FB070005D001F0BDFB034620463A4648
:1025900028E025492A46443130A000F00DF92249AF
:1025A000102234A000F008F91F4904A8A83180E8DF
:1025B0004202A1F19802CDE902B5CDE900A80C23B1
:1025C000002102F10C0001F030FB060005D1164895
:1025D0001C3001F089FB06000AD001F093FB034692
:1025E0002046324607B026A1BDE8F04F02F043BBBB
:1025F0000D4E2A46A836314627A003F027FF2A466B
:10260000314629A000F0D8F82A4631460748FEF79F
:1026100059FA0028204605D029A107B0BDE8F04F9F
:1026200002F01EBB2EA1F8E7DC01002024000020F0
:10263000506C61696E20746578740000506C61693B
:102640006E20746578742028686578290000000081
:10265000C8690000389F0000D09E0000456E63727C
:1026600079707465642074657874202868657829A9
:10267000000000004D4143202868657829000000D3
:102680000D0A4572726F72203D20307825780D0A50
:1026900025730D0A0000000044656372797074654B
:1026A00064207465787400004465637279707465A1
:1026B000642074657874202868657829000000001B
:1026C0006368616368612D706F6C79206578616DF6
:1026D000706C65206661696C65642121210D0A00BA
:1026E0006368616368612D706F6C79206578616DD6
:1026F000706C6520657865637574656420737563B7
:102700006365737366756C6C792E0D0A00000000AA
:102710002DE9F04389B0884604466E4620213046B4
:10272000FEF7BEF9002504F120091020211811F848
:10273000012D521C12F0FF020A7002D1401E002827
:10274000F4DC334622460121484600F07FFA0700B8
:1027500017D110351036202DE7DB694618F8002018
:102760000B5C53400B54401C2028F7DB802248466A
:1027700000F084FA070004D104AD95E80F0084E866
:102780000F002021684601F079F809B03846BDE80D
:10279000F083000010B50021024801F014F980F325
:1027A000100010BD500B002010B50846114601F076
:1027B0000FFC002010BD00002DE9F0410F468046BF
:1027C0001D481E491646401AC108052000EB01406D
:1027D0001346044642461AA102F04DFA02F026F9C9
:1027E0000028FBD1002516E0280709D145B1204675
:1027F0001AA102F035FA00BF02F018F90028FBD147
:102800007A5D204616A102F02FFA00BF02F00EF901
:102810000028FBD16D1CB542E6D320460FA102F083
:102820001FFA2046424610A102F01EFA02F0FEF8FE
:102830000028FBD1BDE8F081389F0000D09E000049
:102840002D2D2D2D20257320286C656E6774683A18
:1028500020257529202D2D2D2D0D0A000D0A000093
:1028600025303278200000002D2D2D2D20257320BD
:10287000656E64202D2D2D2D0D0A0D0A000000001F
:102880002DE9FC5F0E008346DDE90C47C6F1000030
:1028900098469246814600D40846012503E000BFD1
:1028A00090FBFAF06D1C5045FADAA84500D9454670
:1028B00024B1002E01DB780700D5641EB80702D5CD
:1028C000B8F1000F0AD0F80708D13CB1A54205D2F3
:1028D00020215846641EFFF795FDF6E7002E02DA28
:1028E0004E462D2102E0780703D52B215846FFF7ED
:1028F00089FD07F0030002280BD1B8F1000F08D1C1
:102900003CB1A54205D230215846641EFFF77AFD3E
:10291000F6E7CDE90047434652463146584603F0B4
:1029200095FFBDE8FC9F000070B50E4605460068A7
:102930004FF48E7102F075FD4FF4A271286802F019
:1029400070FD28681549C0F804132868082E40F364
:10295000073403D312A14520FFF7FAFB7007000EDE
:10296000002C04DB04F1E02484F8000405E004F00A
:102970000F0101F1E02181F8140D286840F30730C0
:10298000002809DB00F01F0201219140400980006E
:1029900000F1E020C0F8001170BD000080000200CE
:1029A0002E2E5C2E2E5C2E2E5C2E2E5C2E2E5C2E61
:1029B0002E5C2E2E5C696E746567726174696F6E31
:1029C0005C6E7266785C6E7266785F676C75652E99
:1029D0006800000070B50E46044600684FF4887128
:1029E00002F030FD4FF49071206802F02BFD4FF49F
:1029F0009271206802F026FD4FF4A271206802F067
:102A000021FD4FF4AC71206802F01CFD20681549CF
:102A1000C0F804132068082E40F3073503D312A131
:102A20004520FFF795FB7007000E002D04DB05F134
:102A3000E02585F8000405E005F00F0101F1E02133
:102A400081F8140D206840F30730002809DB00F0FE
:102A50001F02012191404009800000F1E020C0F8F0
:102A6000001170BD100342002E2E5C2E2E5C2E2E07
:102A70005C2E2E5C2E2E5C2E2E5C2E2E5C696E74CF
:102A80006567726174696F6E5C6E7266785C6E7297
:102A900066785F676C75652E68000000024600204E
:102AA0001268530713D502F00300012802D0022850
:102AB0000CD105E0C2F383100B68801C184404E0BD
:102AC0000223086803EB925210440860012070470B
:102AD0000268134602E08A4204D01268002AFAD142
:102AE0000B600160704700002DE9FF410026274878
:102AF00000F05BFF2548001F074600F056FF244CFE
:102B00002449A06800900D6800E0009869462840BC
:102B100004EB80000C30FFF7C1FF0028F5D101AABB
:102B2000009901EA050304EB8303491CDB6842F8C2
:102B30002030401C00910228F2D3019800F00300DD
:102B400001281AD002280ED013494FF4AF70FFF7B6
:102B5000FFFA384600F026FF08B10098A06004B0E4
:102B60003046BDE8F0810198032101EB90500099B7
:102B7000BDF80A6001EB900005E00198BDF80A601D
:102B8000C0F3831008440090E3E700004C0B0020E2
:102B90003407002080010020489D00004FF4804150
:102BA000002002F0E9F818B11AA2C521FDF732FBA6
:102BB00001F014FF1B481C49401AC008052101EB15
:102BC00000401AA102F04CF801F030FF0028FBD1C0
:102BD00001F08EF918B10FA2CC21FDF71BFB0020EC
:102BE00001F0A4F901F0BEF818B10AA2D021FDF756
:102BF00011FB02F05DF918B106A2D321FDF70AFB23
:102C0000FFF772FC01F012FF0028FBD101F00EFF6C
:102C1000F8E700002E2E5C2E2E5C2E2E5C6D616976
:102C20006E2E6300389F0000D09E000063686163D1
:102C300068612D706F6C79206578616D706C6520AE
:102C4000737461727465642E0D0A000030B414460A
:102C500001291A46214602D030BC00F05BB930BCD5
:102C600000F0B2BB002803D04FF48C7100F006BE18
:102C700070474FF48C71FDF713BF0000F0B5802A48
:102C800007D0C02A07D0B2F5807F0BD06FF01F00AD
:102C9000F0BD0A2300E00C23036000F108030024C8
:102CA00043600AE00E23F7E701EB8405EE782D6818
:102CB00066F31F6543F82450641CB4EB521FF3D332
:102CC000544A0168A2F508500A2904D00C292BD0D7
:102CD0000E2928D156E0002453F80C5B52F824103A
:102CE0004D4002CBC1F30726C1F30747865DC75DA0
:102CF00086EA0726754000EB1166367885EA0645B8
:102D000050FA81F63678641C85EA06651D6053F832
:102D10000C6C6E405E6053F8085C75406940C3E916
:102D200002510A2CD8D373E05FF000041D6852F8FA
:102D300024104D405969C1F30726C1F30747865D4A
:102D4000C75D86EA0726754000EB1166367885EA8E
:102D5000064550FA81F63678641C85EA06659D6161
:102D60005E686E40DE619D6875401D62DE686E4083
:102D70005E621D6975406940C3E90A511833082C29
:102D8000D4D345E05FF000051C6852F825104C4094
:102D9000D969C1F30726C1F30747865DC75D86EA97
:102DA0000726744000EB1166367884EA064450FA30
:102DB00081F6367884EA06661E625C6874405C625E
:102DC0009E6866409E62DC687440DC6250FA84F75C
:102DD0003F781E69C4F3074C7E40C4F3072710F800
:102DE0000CC0C75D00EB14643F0287EA0C472478EF
:102DF0007E4086EA04641C635E696D1C66405E6307
:102E00009C6974406140C3E90E412033072DBBD358
:102E10000020F0BD708D000010B504000AD004F150
:102E20002000FFF71FFF2046BDE810404FF4A071BF
:102E300000F024BD10BD4FF4A071FDF731BE2DE9A7
:102E4000F041044685694FF4C070E0B016460F4665
:102E5000854203D8C5F5C071B14204D26FF0370086
:102E600060B0BDE8F081804601466846FDF718FE77
:102E7000D4E94E302A466946984710B16FF03300C6
:102E8000EEE7A5693FB136B10DEB05003246394694
:102E9000FDF7DEFD354469462A460846FFF7B3F9DB
:102EA000050007D169462046FFF732FC050001D135
:102EB000012020614146684600F0E0FC2846CFE74B
:102EC0002DE9FF4704460020DDF830800090019096
:102ED0000290039004F120001F4616460D468146DD
:102EE000FFF7C7FEC4E94E56A06908B92020A061CB
:102EF0004FF6F070E061802269464846FFF7BEFE5B
:102F0000002804D1424639462046FFF798FF04B016
:102F1000BDE8F087F0B589B043680093CC780B68C2
:102F200064F31F63009C019324685C40009B019440
:102F30001B1D0093CC794B6864F31F63009C0293C4
:102F400024685C40009B02941B1D0093CC7A8B6824
:102F500064F31F63009C039324685C40009B03940C
:102F60001B1D0093CB7BC96863F31F61009B049119
:102F70001B684B4000990493091D009100684FF0B5
:102F8000FF3101EB6005FE4800F5806100F500644B
:102F900000F5406EE7E01E68019B039FDBB2C7F3BC
:102FA000074750F8233054F827705E40049BDDF843
:102FB00010C0C3F30723CCF3074C51F823307B40F8
:102FC0005E40029B1F0E73465EF827707E4005969A
:102FD000009E029F361D0096FFB2366850F827709B
:102FE00054F82CC07E40019FC7F3072751F8277083
:102FF00087EA0C077E40039F3F0E53F827707E4000
:103000000696009E039F361D0096FFB2366850F864
:103010002770DDF804C07E40029FCCF3074CC7F355
:10302000072754F82CC051F8277087EA0C077E4018
:10303000049F3F0E53F827707E400796009E049F22
:10304000361D0096FFB2366850F82770DDF808C0CC
:103050007E40039FCCF3074CC7F3072754F82CC0DE
:1030600051F8277087EA0C077E40019FDDF81CC0ED
:103070003F0ECCF3074C53F827707E400896009E15
:10308000361D0096059F3668FFB254F82CC050F8E4
:1030900027707E40089FC7F3072751F8277087EAFB
:1030A0000C077E40069FDDF820C03F0ECCF3074C96
:1030B00053F827707E400196009E069F361D0096AD
:1030C000FFB2366850F8277054F82CC07E40059F38
:1030D000C7F3072751F8277087EA0C077E40079F40
:1030E0003F0E53F827707E400296009E079F361DC4
:1030F0000096FFB2366850F82770DDF814C07E40A5
:10310000069FCCF3074CC7F3072754F82CC051F89F
:10311000277087EA0C077E40089F3F0E53F8277000
:103120007E400396009E089F361D00963668FFB2CB
:10313000DDF818C050F82770CCF3074C7E40079F8D
:1031400054F82CC0C7F3072751F8277087EA0C07FB
:103150007E40059F3F0E5EF827305E40009B049640
:103160001B1D6D1E0093009B002D3FF714AF019DAA
:103170001B68EDB2039E50F82550C6F307466B401E
:10318000049D54F82660C5F3072551F82550754075
:103190006B40029D049E2D0EC6F307465EF8255037
:1031A0006B400593009B029D1B1D0093EDB21B68B5
:1031B00050F8255054F826606B40019DC5F3072553
:1031C00051F8255075406B40039D2D0E5EF825503B
:1031D0006B400693009B039D1B1D0093EDB21B6883
:1031E00050F82550019E6B40029DC6F30746C5F37B
:1031F000072554F8266051F8255075406B40049D12
:103200002D0E5EF825506B400793009B049D1B1DFF
:103210000093EDB21B6850F8250043400398C0F3BB
:10322000072051F820000299C1F3074154F82110FA
:10323000484043400198000E5EF82000434000984B
:103240000893001D009001684E48059B50FA83F3D7
:103250001B78079C5940089BC4F30744C3F307231A
:10326000045DC35C1B0283EA04435940069B00EBE8
:1032700013631B7881EA036101910099069B091D84
:103280000091096850FA83F31B78089C5940059B0C
:10329000C4F30744C3F30723045DC35C1B0283EA42
:1032A00004435940079B00EB13631B7881EA0361D9
:1032B00002910099079B091D0091096850FA83F358
:1032C0001B78059C5940069BC4F30744C3F30723AE
:1032D000045DC35C1B0283EA04435940089B00EB76
:1032E00013631B7881EA036103910099089B091D10
:1032F0000091096850FA83F31B78069C5940079B9C
:10330000C4F30744C3F30723045DC35C1B0283EAD1
:1033100004435940059B00EB1360007881EA00608C
:1033200004900098001D0090019810700198000A08
:1033300050700198000C90700198000ED0700298A7
:103340001071010A5171010C9171000ED071039836
:103350001072010A5172010C9172000ED072049821
:103360001073010A5173010C9173000ED073042184
:1033700001A800F083FA042102A800F07FFA03E01C
:10338000707D0000707C0000042103A800F076FA34
:10339000042104A800F072FA042105A800F06EFAD6
:1033A000042106A800F06AFA042107A800F066FAD2
:1033B000042108A800F062FA0421684600F05EFAD1
:1033C00009B00020F0BD0000F0B589B0436800935B
:1033D000CC780B6864F31F63009C019324685C4005
:1033E000009B01941B1D0093CC794B6864F31F6311
:1033F000009C029324685C40009B02941B1D009378
:10340000CC7A8B6864F31F63009C039324685C4050
:10341000009B03941B1D0093CB7BC96863F31F6162
:10342000009B04911B684B4000990493091D009177
:1034300000684FF0FF3101EB6005FE4800F5806148
:1034400000F5006400F5406EE7E01E68019B039FF5
:10345000DBB2C7F3074750F8233054F827705E40BB
:10346000029BDDF810C0C3F30723CCF3074C51F8DF
:1034700023307B405E40049B1F0E73465EF827702E
:103480007E400596009E029F361D0096FFB236686C
:1034900050F8277054F82CC07E40039FC7F30727CD
:1034A00051F8277087EA0C077E40019F3F0E53F8C2
:1034B00027707E400696009E039F361D0096FFB241
:1034C000366850F82770DDF804C07E40049FCCF3C6
:1034D000074CC7F3072754F82CC051F8277087EA28
:1034E0000C077E40029F3F0E53F827707E400796E0
:1034F000009E049F361D0096FFB2366850F8277074
:10350000DDF808C07E40019FCCF3074CC7F30727C6
:1035100054F82CC051F8277087EA0C077E40039FAF
:10352000DDF81CC03F0ECCF3074C53F827707E40EB
:103530000896009E361D0096059F3668FFB254F827
:103540002CC050F827707E40069FC7F3072751F81C
:10355000277087EA0C077E40089FDDF820C03F0EE9
:10356000CCF3074C53F827707E400196009E069FCF
:10357000361D0096FFB2366850F8277054F82CC0FC
:103580007E40079FC7F3072751F8277087EA0C078B
:103590007E40059F3F0E53F827707E400296009EA6
:1035A000079F361D0096FFB2366850F82770DDF889
:1035B00014C07E40089FCCF3074CC7F3072754F88C
:1035C0002CC051F8277087EA0C077E40069F3F0EFB
:1035D00053F827707E400396009E089F361D009684
:1035E0003668FFB2DDF818C050F82770CCF3074CEE
:1035F0007E40059F54F82CC0C7F3072751F8277069
:1036000087EA0C077E40079F3F0E5EF827305E403A
:10361000009B04961B1D6D1E0093009B002D3FF721
:1036200014AF019D1B68EDB2039E50F82550C6F300
:1036300007466B40029D54F82660C5F3072551F8F4
:10364000255075406B40049D049E2D0EC6F3074621
:103650005EF825506B400593009B029D1B1D009357
:10366000EDB21B6850F8255054F826606B40039D5E
:10367000C5F3072551F8255075406B40019D2D0E6F
:103680005EF825506B400693009B039D1B1D009325
:10369000EDB21B6850F82550019E6B40049DC6F3A7
:1036A0000746C5F3072554F8266051F825507540A4
:1036B0006B40029D2D0E5EF825506B400793009BDA
:1036C000049D1B1D0093EDB21B6850F8250043407C
:1036D0000198C0F3072051F820000299C1F3074177
:1036E00054F82110484043400398000E5EF8200033
:1036F000434000980893001D009001684E48059BC8
:1037000050FA83F31B78079C5940069BC4F3074487
:10371000C3F30723045DC35C1B0283EA04435940DF
:10372000089B00EB13631B7881EA03610191009908
:10373000069B091D0091096850FA83F31B78089CC9
:103740005940079BC4F30744C3F30723045DC35CDC
:103750001B0283EA04435940059B00EB13631B786B
:1037600081EA036102910099079B091D0091096894
:1037700050FA83F31B78059C5940089BC4F3074417
:10378000C3F30723045DC35C1B0283EA044359406F
:10379000069B00EB13631B7881EA03610391009998
:1037A000089B091D0091096850FA83F31B78069C59
:1037B0005940059BC4F30744C3F30723045DC35C6E
:1037C0001B0283EA04435940079B00EB1360007817
:1037D00081EA006004900098001D0090019810702C
:1037E0000198000A50700198000C90700198000E2A
:1037F000D07002981071010A5171010C9171000E84
:10380000D07103981072010A5172010C9172000E6E
:10381000D07204981073010A5173010C9173000E59
:10382000D073042101A800F029F8042102A800F0B7
:1038300025F803E0706C0000706B0000042103A801
:1038400000F01CF8042104A800F018F8042105A8D1
:1038500000F014F8042106A800F010F8042107A8CD
:1038600000F00CF8042108A800F008F804216846CC
:1038700000F004F809B00020F0BD0000002904D0D9
:10388000024B0A4600211B6818477047D4010020EC
:103890002DE9F05F1E46DDF828B091468A46040007
:1038A00003D124A19020FEF753FCB4F80680607980
:1038B00008FB00F8A8F10408464503D31DA19E208B
:1038C000FEF746FCE788301DB0FBF7F1B0FBF7F2DE
:1038D00007FB1200D9F80050AA19424501D9A8EBFC
:1038E0000605C9F8005001E02468491E0029FBD1F3
:1038F0003E1A8846AE4215D817E000BF2044001D8E
:103900000AEB0803BBF1000F324602D0014618460D
:1039100000E01946FDF79CF800202468AD1BB04478
:10392000AF4201D92E4600E03E46002DE6D1BDE86B
:10393000F09F00002E2E5C2E2E5C2E2E5C2E2E5C18
:103940002E2E5C2E2E5C2E2E5C636F6D706F6E655E
:103950006E74735C6C69627261726965735C6D65CB
:103960006D6F626A5C6E72665F6D656D6F626A2E06
:103970006300000030B5024651B101F011FA002198
:10398000074C08E034F821301568AB4202D11160D1
:10399000002030BD491C8142F4D3052030BD000019
:1039A00000000000002100F009B8012100F010B86B
:1039B00008B56A46FCF789FC009808BD08B56A4658
:1039C000FCF769FC08BD08B56A46FCF74BFC08BD6E
:1039D00008B56A46FCF752FC009808BD08B56A466F
:1039E000FCF780FC009808BD70B5040003D113A15A
:1039F000FE20FEF7ADFB00252846FEF701FB206800
:103A000062680168914214D9491E01600D781CB9A1
:103A10001AA1C220FEF79CFB208AE16805FB001575
:103A20002068217A0278891A0279C9B28A4200D2C2
:103A300001710020FEF7F4FA284670BD2E2E5C2E90
:103A40002E5C2E2E5C2E2E5C2E2E5C2E2E5C2E2EB0
:103A50005C636F6D706F6E656E74735C6C696272BF
:103A600061726965735C62616C6C6F635C6E7266D7
:103A70005F62616C6C6F632E630000002E2E5C2E03
:103A80002E5C2E2E5C2E2E5C2E2E5C2E2E5C2E2E70
:103A90005C636F6D706F6E656E74735C6C6962727F
:103AA00061726965735C62616C6C6F635C6E726697
:103AB0005F62616C6C6F632E6300000070B50C4632
:103AC000050004D110A140F22110FEF741FB24B9FA
:103AD0000DA14FF49170FEF73BFB0020FEF790FA2A
:103AE0001DB91949CF20FEF733FBE8682A68211A6F
:103AF000288AB1FBF0F11068431C13600170BDE827
:103B000070400020FEF78CBA2E2E5C2E2E5C2E2EDE
:103B10005C2E2E5C2E2E5C2E2E5C2E2E5C636F6D2A
:103B2000706F6E656E74735C6C69627261726965E8
:103B3000735C62616C6C6F635C6E72665F62616C19
:103B40006C6F632E630000007C3A000010B5040027
:103B500002D0206830B901E00E2010BD17A1D92095
:103B6000FEF7F6FA606818B914A1DA20FEF7F0FA49
:103B7000A06818B911A1DB20FEF7EAFAE06818B9CD
:103B80000EA1DC20FEF7E4FA208A18B90BA1DD2093
:103B9000FEF7DEFA207A61682268401AC0B211602E
:103BA00004E0226811684B1C13600870401EC0B20C
:103BB000F7D221680020087110BD00002E2E5C2E67
:103BC0002E5C2E2E5C2E2E5C2E2E5C2E2E5C2E2E2F
:103BD0005C636F6D706F6E656E74735C6C6962723E
:103BE00061726965735C62616C6C6F635C6E726656
:103BF0005F62616C6C6F632E63000000C20800F0AE
:103C000007030120895C98400840704700F180401C
:103C10000068002800D00120704708B500F18040FE
:103C2000002101600068009008BD2DE9FF4F87B0BA
:103C30000446DDE91758DDE91976DDE915A9DDF857
:103C400050B0FEF72DFC00281AD1099948F2105007
:103C500011B90A99002913D10FB9002E10D1BBF167
:103C6000000F02D1BAF1000F0AD1B9F1000F01D152
:103C7000002D05D1B8F1000F05D125B148F2135040
:103C80000BB0BDE8F08FCDF800B0CDE90358CDE919
:103C90000576CDE901A960680DF1200C9CE80E00C5
:103CA000C5682046A847EBE770B5044616460D00E8
:103CB00048F2105014D0002E12D02046FEF7F0FB30
:103CC00018B1A0F5054102390AD10649C4E9001529
:103CD0006A68204631469047002801D000212160C3
:103CE00070BD00004145414410B50446FEF7D8FBC5
:103CF000002805D16068816820468847002121603E
:103D000010BD000050B1094A002100BF52F8313007
:103D1000834205D102EBC1004068704704A07047A0
:103D2000491C1929F2D305A0704700000069000062
:103D30004E6F206572726F72000000004572726FE4
:103D400072206E6F742072656C6174656420746F8C
:103D5000206E72665F63727970746F206C69627234
:103D6000617279002DE9F0410B480C4D0C4F401B5E
:103D7000C60801203870002406E000BF55F8340062
:103D80008047002805D1641CB442F7D30220387064
:103D90000020BDE8F0810000B09E0000A89E000059
:103DA0008800002005480178022904D00078012805
:103DB00001D00020704701207047000088000020DB
:103DC00038B5041D002000F03FF900280ED1204630
:103DD000FFF731F8002003460246009004492046D0
:103DE000FFF76EF8BDE8384002F04EBA38BD00006B
:103DF000A927000010B5001DFFF70EF800F080F9AC
:103E0000002010BD2DE9F0416C460D46074601F03B
:103E1000D3FA70B11B481C49401AC008012101EBBC
:103E200000401AA100F01CFFA54648F21950BDE859
:103E3000F081FFF7B7FF48B11B4A1C4E106848B12C
:103E40005068B04206D10020A546F0E74FF4054087
:103E5000A546ECE748F21750002FA546E7D1002D04
:103E6000A546E4D110491248083115461060FFF705
:103E7000A7FF0028A546DAD16E602A680D491160B7
:103E8000A546D4E7389F0000D09E000053746163BC
:103E90006B206F766572666C6F77206465746563FE
:103EA0007465642E000000008C0000206572E54BF4
:103EB000E80200206169614D0A4930B40A4B486844
:103EC00048F20252984204D10868084C0368A342A1
:103ED00002D030BC10467047002202604A6030BCFD
:103EE000FFF788BF8C0000206572E54B6169614D6A
:103EF00070B50C4C0125207808B185260BE0002018
:103F0000A06060602061E060074801F0DDFA0646CD
:103F100001F0A6FA257001F09BFA00B1A5703046B9
:103F200070BD00002C0400208524000070B5174CE3
:103F30000546207818B916A1D020FEF709F9A07817
:103F400038B115B16968012088470020FEF758F89C
:103F50000CE00020FEF754F825B10C48294610303B
:103F6000FEF7B6FDE06808B901F008FBE068401C08
:103F7000E0600020FEF754F8E068002805D1BDE8B5
:103F8000704003A1EC20FEF7E3B870BD2C040020C4
:103F90002E2E5C2E2E5C2E2E5C2E2E5C2E2E5C2E5B
:103FA0002E5C2E2E5C696E746567726174696F6E2B
:103FB0005C6E7266785C6C65676163795C6E726674
:103FC0005F6472765F636C6F636B2E63000000004A
:103FD00070B506460C480C460078012811D00BA19C
:103FE000BA20FEF7B5F80CE0402C01D2254600E0DF
:103FF0004025E9B2304600F045F80028F9D1641BAD
:104000002E44002CF0D170BD980000202E2E5C2E86
:104010002E5C2E2E5C2E2E5C2E2E5C2E2E5C2E2EDA
:104020005C696E746567726174696F6E5C6E7266EE
:10403000785C6C65676163795C6E72665F647276EA
:104040005F726E672E63000070B50B4C217809B16A
:10405000852070BD00B9094809490088A4F801000D
:10406000601C01F0E7FB0500F3D101F059FC0120D1
:104070002070284670BD000098000020D86900001C
:104080001558000070B50C460C4905460978012901
:1040900003D00BA19120FEF75BF822462946174872
:1040A00001F0CCF8044601F03BFC2CB1052C03D008
:1040B00003A1AB20FEF74CF8204670BD980000200D
:1040C0002E2E5C2E2E5C2E2E5C2E2E5C2E2E5C2E2A
:1040D0002E5C2E2E5C696E746567726174696F6EFA
:1040E0005C6E7266785C6C65676163795C6E726643
:1040F0005F6472765F726E672E630000549F0000EB
:1041000010B5094C2078012803D008A16A20FEF7D9
:104110001FF801F03DFC01F06DFC134801F0D8F8E8
:104120000020207010BD0000980000202E2E5C2E74
:104130002E5C2E2E5C2E2E5C2E2E5C2E2E5C2E2EB9
:104140005C696E746567726174696F6E5C6E7266CD
:10415000785C6C65676163795C6E72665F647276C9
:104160005F726E672E630000549F0000F0B5054635
:104170000478154889B0164640F82420124A086988
:10418000121DA2F1080742F82400487F385520226A
:104190006846FCF75DFC04942878385C48B10EB1A1
:1041A0000A4A00E000226946281D01F0C3FD09B05B
:1041B000F0BD0EB1064A00E00022694605F10C0090
:1041C00001F05EFCF3E70000A0000020096700009A
:1041D000496500000FB438B5040003D110A11C20BC
:1041E000FDF7B6FF606918B90DA11D20FDF7B0FFFE
:1041F000206818B90AA11E20FDF7AAFF606818B947
:1042000007A11F20FDF7A4FF0599002905D006A8E6
:1042100000906A46204600F049F838BC5DF814FB6F
:104220002E2E5C2E2E5C2E2E5C2E2E5C2E2E5C2EC8
:104230002E5C2E2E5C65787465726E616C5C6670A7
:1042400072696E74665C6E72665F667072696E74B7
:10425000662E630010B5040003D107A10B20FDF703
:1042600077FFA268002A05D0D4E9040321689847A3
:104270000020A06010BD00002E2E5C2E2E5C2E2E85
:104280005C2E2E5C2E2E5C2E2E5C2E2E5C657874A1
:1042900065726E616C5C667072696E74665C6E727B
:1042A000665F667072696E74662E63002DE9FC4766
:1042B00091460C465FEA000804D183A140F25220E7
:1042C000FDF746FFD8F8140020B97FA14FF4157010
:1042D000FDF73EFFD8F8000020B97BA140F2552041
:1042E000FDF736FFD8F8040020B977A140F2562038
:1042F000FDF72EFF002C76D014F8011B39B12529CB
:104300000ED04046FEF77EF820780028F4D198F8C9
:104310000C00002867D04046BDE8FC47FFF79ABF75
:104320000020012221782B291BD02D2902D03029F1
:1043300008D102E040F0010001E040F00200641CFE
:10434000002AEFD100252A290ED02178A1F13002D0
:104350000A2A11D205EB850201EB4205641C303DAF
:10436000F1E740F00400EAE7D9F800100B1DC9F8A6
:1043700000300968641C0D44217800232E290BD1DC
:1043800014F8011FA1F130020A2A05D203EB8302BF
:1043900001EB4203303BF3E76C290DD068290BD0C9
:1043A000692921D00BDC252918D0582931D063295F
:1043B0000ED0642915D117E014F8011FECE770291D
:1043C00069D0732932D075291BD0782909D120E012
:1043D000D9F80000011DC9F8001001784046FEF729
:1043E00011F8641C90E76CE0D9F800100A1DC9F8B8
:1043F00000200968CDE900500A224046FEF740FA45
:10440000EFE7D9F800100A1DC9F8002009680A2250
:1044100006E0D9F800100A1DC9F80020096810222A
:10442000CDE90050404602F011FADAE7D9F8001061
:1044300000270A1DC9F800200E68C00705D112E048
:104440004046761C7F1CFDF7DDFF31780029F7D14F
:1044500004E0202140466D1EFDF7D4FFBD42C0D9C7
:10446000002DF6D1BDE74EB13046FCF724FB0746E0
:1044700004E0202140466D1EFDF7C4FFBD4206D971
:10448000002DF6D103E04046761CFDF7BBFF3178E6
:104490000029F8D1A5E7D9F80000011DC9F80010DE
:1044A000056830214046FDF7ADFF78214046FDF715
:1044B000A9FF08200021CDE900010346102229466A
:1044C000B0E7BDE8FC8700002E2E5C2E2E5C2E2E61
:1044D0005C2E2E5C2E2E5C2E2E5C2E2E5C6578744F
:1044E00065726E616C5C667072696E74665C6E7229
:1044F000665F667072696E74665F666F726D617416
:104500002E6300002DE9FF411C46DDE90A781546BF
:104510000E46684600F0B6F846EA450141EA8401D5
:1045200041EA072242EA0841009A00EB8200C0F803
:104530000017BDE8FF812DE9FF411C46DDE90A783F
:1045400015460E46684600F0DDF846EA450141EAA8
:10455000840141EA072242EA0841009A00EB820006
:10456000C0F80017BDE8FF811CB5002100910B4683
:1045700001220191FFF7C6FF1CBD1CB5002100916F
:104580000B4601220191FFF7D6FF1CBD1CB500228E
:104590000B46009211460192FFF7B4FF1CBD1CB5FB
:1045A00000220B46009211460192FFF7C4FF1CBD8A
:1045B0001CB5002100910B46012201911146FFF725
:1045C000A1FF1CBD1CB5002100910B4601220191E9
:1045D0001146FFF7B0FF1CBD13B50C46684600F04E
:1045E00029F8009900EB8101D1F8002722F440322C
:1045F000C1F80027009900EB8100D0F8001741EACC
:104600000441C0F800171CBD38B5094B44181B689D
:1046100000936B4608E000BF53F82010D1F82055F6
:1046200020C2C1F82055401C8442F5D838BD000096
:10463000DC69000010B5006800F0A4F820B904A1FE
:104640004FF4E370FDF784FD4FF0A04010BD000073
:104650002E2E5C2E2E5C2E2E5C2E2E5C2E2E5C2E94
:104660002E5C2E2E5C6D6F64756C65735C6E72666D
:10467000785C68616C2F6E72665F6770696F2E6818
:104680000000000010B502684FF0000053094FF021
:10469000010108D10B07D3E94C03102800D17BB1ED
:1046A0000848094B184302F01F029140014204D10F
:1046B00006A14FF4E370FDF74BFD4FF0A04010BD95
:1046C0000F48EEE7FFC11770003800032E2E5C2E56
:1046D0002E5C2E2E5C2E2E5C2E2E5C2E2E5C2E2E14
:1046E0005C6D6F64756C65735C6E7266785C686136
:1046F0006C2F6E72665F6770696F2E680000000035
:104700003F8E16F010B502684FF0000053094FF0CD
:10471000010108D10B07D3E94C03102800D17BB16C
:104720000848094B184302F01F029140014204D18E
:1047300006A14FF4E370FDF70BFD4FF0A04010BD54
:104740000F48EEE7FFC11770003800032E2E5C2ED5
:104750002E5C2E2E5C2E2E5C2E2E5C2E2E5C2E2E93
:104760005C6D6F64756C65735C6E7266785C6861B5
:104770006C2F6E72665F6770696F2E6800000000B4
:104780003F8E16F043094FF000014FF0010208D1AF
:104790001307D3E94C13102900D14BB10649074B3D
:1047A000194300F01F0082400A4203D001207047E5
:1047B0000349F4E700207047FFC117700038000379
:1047C0003F8E16F001B56846FFF75CFF009A0121A5
:1047D0009140C0F8081508BD01B56846FFF792FF83
:1047E000009A01219140C0F8081508BD034908B599
:1047F0000844002101600068009008BD006000408E
:1048000002494058012800D0002070470060004055
:1048100000210846FFF7F6BAFFF74EBB30B5154A40
:1048200001460020D2F8104423460AE0DB681D79D7
:10483000854205D1401C0A28F6DB4FF0FF3030BD21
:104840001B68002BF2D1431CF9D0CB681871D2F849
:10485000103443B1DB68CC681B682360D2F81024A5
:10486000D268116030BDC2F81014C96800220A6015
:1048700030BD0000340700207047FDF753B9704782
:1048800008B5034A00924023024A00F005F808BD2B
:10489000096300005C050020F0B595B01C46154684
:1048A0000F4608461A9E00F058FB182109A8FCF78D
:1048B000F7F80E96CDE909540023082203A93846DB
:1048C00000F060FB05980690BDF81000ADF81C00E4
:1048D000BDF81200ADF81E0000208DF821000398ED
:1048E000082600F00300012802D0022818D032E088
:1048F00003983346850AC0F3C2008DF82000039860
:104900000FA9C0F38314A200384600F03BFB09A8AE
:10491000009006AB22460FA9284600F06DFA1AE077
:104920000398840DC0F3C2008DF82000082C01D23A
:10493000254600E0082533462A460FA9384600F0F0
:1049400021FB2E44641B09AB06AA29460FA800F0E0
:10495000BBF9002CEAD1384600F005FB15B0F0BDDC
:104960007047012001F00EBE084810B50178084AD2
:10497000515C19B1001D01F0D7FA02E00C3001F0D2
:1049800071F9BDE81040002001F0FCBD5C01002081
:104990009C00002008B5034A00924023024AFFF71A
:1049A0007BFF08BD596300009C0500200A4A0129CD
:1049B00002EBC00007D0022907D0032907D0042941
:1049C00007D000207047022070470420704700790C
:1049D0007047407970470000D09E000010B5FFF787
:1049E0004CFF04210F48FFF719FF002803DA0E4996
:1049F0001B20FDF7ADFB0B480124C0684471FFF795
:104A0000B0FF084804211030FFF708FF002803DA40
:104A100005492220FDF79CFB02481030C068447114
:104A200010BD0000B09E0000F89C00002DE9F0478A
:104A30008CB0FDF7FFFC18B100200CB0BDE8F0878A
:104A40007D4C0020C4F81804BFF34F8F7B49A06849
:104A500002900D684FF00008284004EB80000BE046
:104A6000D4F8180470B961680298814201D8A16035
:104A7000E2E7284004EB80000C3002A9FEF70EF8B4
:104A80000028EDD1002003AA029901EA050304EBF6
:104A90008303491CDB6842F82030401C0291022845
:104AA000F2D3039800F00300022802D001284DD071
:104AB000A7E003985022810D8946B2EB905F00D8A1
:104AC00050210E4666F39F50039008315C4800F079
:104AD000FBF9070078D000F040FA4346082203A90A
:104AE000384600F07FFA029908F1080A2940681A4E
:104AF0008000001D864222D94F4D0C3530B1C2B224
:104B000004EB8101301A90460C3104E02946F2B2E0
:104B1000002590462846C6B25346384600F062FA51
:104B20000AEB080325B132462946384600F05AFA06
:104B3000029909F1030001EB900002903BE004EBC5
:104B400081015346324638460C31EFE70398C0F3F3
:104B50008310062800D30620039960F38911C1F35E
:104B60008310801C03918100354800F0ADF90700E7
:104B700047D000F0F2F94346082203A9384600F076
:104B800031FA08F1080800260FE00298434600EACF
:104B90000501401C04EB81010290042238460C31CF
:104BA00000F020FA08F10408761C0398C0F3831083
:104BB000B042EAD847B1D4F81054D4F8180478B108
:104BC000384600F0D0F931E01BE0E8684079012870
:104BD00004D12A682846394612689047E868056873
:104BE000002DF2D1384600F0BEF90020FDF708FA9A
:104BF000D4F8180408B90298A0600020FDF710FA54
:104C000014E0D4F8104405E02168204689688847FC
:104C1000E0680468002CF7D10A480B49401AC00824
:104C2000022101EB004009A100F01AF8FDF702FC97
:104C300080F0010001E7000034070020800100201F
:104C4000409F0000389F0000D09E00004261636BCF
:104C5000656E647320666C7573686564000000009F
:104C600000231A4601F09CBB08B5012300926A4656
:104C700001F096FB08BD1CB5CDE9002302236A466E
:104C800001F08EFB1CBD3EB5069C8DE81C00032385
:104C90006A4601F085FB3EBD7FB5DDE908458DE83C
:104CA0003C0004236A4601F07BFB7FBD70B586B0F3
:104CB0000DF1280C9CE870008DE87C0005236A4605
:104CC00001F06EFB06B070BD2DE9F0470E46804640
:104CD0001C469246082940D894F80C900020207376
:104CE0001946104601F02CFA0025B54206D218F8F4
:104CF00005201BA12046FFF76DFA03E01AA120460C
:104D0000FFF768FA6D1C082DEFD318A12046FFF7B6
:104D100061FA0025B54212D218F805707E2F08D826
:104D2000FBF792FE0068C05D10F03E0F01D03A46DE
:104D300000E02E220EA12046FFF74CFA03E00DA161
:104D40002046FFF747FA6D1C082DE3D301222146C8
:104D5000504601F0D7F984F80C90BDE8F0870000C8
:104D60002025303278000000202020007C00000048
:104D70002563000020000000064910B500200870DF
:104D8000054800F0EEF8002803D1044800F006FBC7
:104D9000002010BD34070020409F0000646B00001D
:104DA00002480349401AC00870470000409F0000B5
:104DB000D09E000013B56846FEF7DCFD08B1002068
:104DC0001CBD0248009950F831001CBDD09E000067
:104DD00070B508480125D0F81044057007E0E06878
:104DE00045712168204649688847E0680468002CBE
:104DF000F5D170BD340700202DE9FF4781460C9D99
:104E000000200C462F7B28739846164629461846E4
:104E100001F096F9072E42D2DFE806F004090F16DA
:104E20001F2A360049462846FFF7D4F937E049469D
:104E300028462268FFF7CEF931E0D4E9002349463D
:104E40002846FFF7C7F92AE0A0680090D4E90023BC
:104E500049462846FFF7BEF921E0D4E90201CDE931
:104E60000001D4E9002349462846FFF7B3F916E0CC
:104E700004F1080007C88DE80700D4E9002349467B
:104E80002846FFF7A7F90AE004F108000FC88DE8EB
:104E90000F00D4E9002349462846FFF79BF900227A
:104EA0002946404601F02EF92F73BDE8FF87000028
:104EB00010B50020FDF750FA0249012008700020CB
:104EC00010BD00004C0100202DE9F041058A80460C
:104ED0002D1F4819C01CB0FBF5F0C6B24046FEF7C6
:104EE00083FD041E19D00020207101206071E5802F
:104EF00000272546761EC4F800800BE04046FEF7EA
:104F000073FD60B16179491C6171286005467F1CA1
:104F1000C0F80080B742F1D32046BDE8F0812046BA
:104F200000F002F80020F8E72DE9F041457901464C
:104F30006B1E002201E00968521C9A42FBD30F68E5
:104F40000146002605E038460C68FEF7B7FD21460D
:104F5000761CAE42F7D3BDE8F0810121001DFEF7BB
:104F600027BDFEF7F3BD10B504460121001DFEF775
:104F700035FD10F0FF0F04D12046BDE81040FFF7CB
:104F8000D3BF10BD1CB514460122CDE9002401AAEF
:104F9000FEF77EFC0198A04203D002A1DA20FDF7C3
:104FA000D7F81CBD2E2E5C2E2E5C2E2E5C2E2E5C79
:104FB0002E2E5C2E2E5C2E2E5C636F6D706F6E65D8
:104FC0006E74735C6C69627261726965735C6D6545
:104FD0006D6F626A5C6E72665F6D656D6F626A2E80
:104FE000630000001CB514460022CDE9002401AA8C
:104FF000FEF74EFC0198A04203D002A1D020FDF79D
:10500000A7F81CBD2E2E5C2E2E5C2E2E5C2E2E5C48
:105010002E2E5C2E2E5C2E2E5C636F6D706F6E6577
:105020006E74735C6C69627261726965735C6D65E4
:105030006D6F626A5C6E72665F6D656D6F626A2E1F
:105040006300000008B500F18040014600680022BE
:1050500020B101200A600968009108BD104608BD12
:1050600010B5040004D105A140F20D20FDF770F841
:10507000204600F061F9A168081A10BD2E2E5C2EA2
:105080002E5C2E2E5C2E2E5C2E2E5C2E2E5C2E2E5A
:105090005C636F6D706F6E656E74735C6C69627269
:1050A00061726965735C71756575655C6E72665F6A
:1050B00071756575652E630070B5040003D108A194
:1050C0007220FDF745F8206805684168204600F029
:1050D00025F8A84201D1012070BD002070BD00005C
:1050E0002E2E5C2E2E5C2E2E5C2E2E5C2E2E5C2EFA
:1050F0002E5C2E2E5C636F6D706F6E656E74735CCC
:105100006C69627261726965735C71756575655C05
:105110006E72665F71756575652E630070B50C46BD
:10512000050003D105495D20FDF712F8A868A042EB
:1051300001D9601C70BD002070BD00007C500000D3
:105140002DE9F0410E4604004FF0000803D12CA1D8
:105150007D20FCF7FDFF1EB929A17E20FCF7F8FF9A
:105160000020FCF74DFF2046FFF7A6FF070009D0FF
:10517000207C38B14FF004080020FCF751FF404676
:10518000BDE8F0812068456841682046FFF7C6FF0A
:105190002168486037B1206801682046FFF7BEFFEC
:1051A00021680860E268012A14D0022A16D0042A75
:1051B00019D0082A1CD06068314605FB0200FBF7B5
:1051C00047FC204601F054F821688A688242D3D215
:1051D0008860D1E7616830784855F2E761683088C7
:1051E00021F81500EDE76168306841F82500E8E72F
:1051F000D6E90001626802EBC502C2E90001E0E7FE
:105200002E2E5C2E2E5C2E2E5C2E2E5C2E2E5C2ED8
:105210002E5C2E2E5C636F6D706F6E656E74735CAA
:105220006C69627261726965735C71756575655CE4
:105230006E72665F71756575652E63002DE9F041CC
:1052400015460E4607004FF0000404D111A14FF49B
:10525000D970FCF77DFF26B90EA140F2B310FCF720
:1052600077FF4FF00000002D11D0FCF7C9FE384643
:1052700000F0FEFFA84205D32A463146384600F02A
:10528000C5FF00E005240020FCF7CAFE2046BDE86B
:10529000F08100002E2E5C2E2E5C2E2E5C2E2E5CBD
:1052A0002E2E5C2E2E5C2E2E5C636F6D706F6E65E5
:1052B0006E74735C6C69627261726965735C71753E
:1052C0006575655C6E72665F71756575652E6300E8
:1052D00010B5040004D109A14FF4F570FCF738FFB4
:1052E0000020FCF78DFE2068002101604160816094
:1052F000BDE810400846FCF793BE00002E2E5C2E41
:105300002E5C2E2E5C2E2E5C2E2E5C2E2E5C2E2ED7
:105310005C636F6D706F6E656E74735C6C696272E6
:1053200061726965735C71756575655C6E72665FE7
:1053300071756575652E630010B5040004D108A170
:105340004FF4FC70FCF704FF0020FCF759FE2046E8
:1053500000F08EFF04460020FCF762FE204610BDE0
:105360002E2E5C2E2E5C2E2E5C2E2E5C2E2E5C2E77
:105370002E5C2E2E5C636F6D706F6E656E74735C49
:105380006C69627261726965735C71756575655C83
:105390006E72665F71756575652E630082680021A7
:1053A000916082681161826851618268D16082680F
:1053B000516080680160704703496846884201D2A5
:1053C0000120704700207047E01300200C4A10B500
:1053D00002F58C730EE0991AC91001EBD1714910D6
:1053E00002EBC1010C68844201D90B4602E005D2F0
:1053F00001F108029A42EED3002010BD486810BDAA
:105400000C6A000000B5FFF7E1FF002800D1014859
:1054100000BD0000F86900004058002800D00120BD
:10542000704708B5002242504058009008BDD0F89F
:105430000403084000D0012070474058002800D0E5
:105440000120704708B5002242504058009008BD26
:1054500002480068002800D0012070470004014085
:10546000084810B5007918B907A19720FCF770FE1D
:1054700000F0C2F81349012008600249091F0870B2
:1054800010BD0000AC0000202E2E5C2E2E5C2E2EB7
:105490005C2E2E5C2E2E5C2E2E5C2E2E5C6D6F6490
:1054A000756C65735C6E7266785C64726976657241
:1054B000735C7372635C6E7266785F636C6F636B50
:1054C0002E6300001805004010B5040003D107A1A9
:1054D0007E20FCF73DFE144900200A790AB18520A0
:1054E00010BD01220C600A7110BD00002E2E5C2E32
:1054F0002E5C2E2E5C2E2E5C2E2E5C2E2E5C2E2EE6
:105500005C6D6F64756C65735C6E7266785C6472FA
:1055100069766572735C7372635C6E7266785F63E2
:105520006C6F636B2E630000AC00002070B54FF40D
:1055300080763046FEF76AFB0F4DB40540B1304629
:10554000FEF76BFB0120C4F8080329680020884798
:105550004FF482763046FEF759FB00280AD03046D9
:10556000FEF75BFB0220C4F808032968BDE8704021
:105570000120084770BD0000AC000020094810B5AC
:10558000007918B908A1C420FCF7E2FD4FF482703D
:10559000FEF743FB02204107C1F804031149012033
:1055A000086010BDAC0000202E2E5C2E2E5C2E2E2E
:1055B0005C2E2E5C2E2E5C2E2E5C2E2E5C6D6F646F
:1055C000756C65735C6E7266785C64726976657220
:1055D000735C7372635C6E7266785F636C6F636B2F
:1055E0002E630000080000400121B1EB507F01D183
:1055F000012070470020704706480068012110F024
:10560000010F06D14FF0E020C02280F80024843042
:10561000C167704700E100E070B54FF08040D0F8FE
:105620000453344C68070CD54FF48470FFF70AFD1F
:1056300038B1606818B930A1F020FCF789FD6068C6
:105640008047A8060DD54FF48A70FFF7FBFC40B1E8
:10565000A06818B928A1F920FCF77AFDA1680020FC
:10566000884768060ED54FF48C70FFF7EBFC48B105
:10567000A06820B920A14FF48070FCF769FDA168F3
:105680000120884728060ED54FF48E70FFF7DAFC0C
:1056900048B1E06820B918A140F20910FCF758FDA4
:1056A000E16800208847E8050ED54FF49070FFF7B9
:1056B000C9FC48B1E06820B90FA14FF48870FCF72D
:1056C00047FDE16801208847A80511D54FF4927085
:1056D000FFF7B8FC00280BD0E06820B906A140F223
:1056E0001710FCF735FDE168BDE87040022008475F
:1056F00070BD0000B40000202E2E5C2E2E5C2E2EDD
:105700005C2E2E5C2E2E5C2E2E5C2E2E5C6D6F641D
:10571000756C65735C6E7266785C647269766572CE
:10572000735C7372635C6E7266785F706F776572BC
:105730002E63000070B50D46040003D10DA1512069
:10574000FCF706FD204600F055FD04000FD00020B8
:10575000FCF756FC207920B10020FCF761FC1120F9
:1057600070BD0120256020710020FCF759FC00204D
:1057700070BD00002E2E5C2E2E5C2E2E5C2E2E5C1C
:105780002E2E5C2E2E5C2E2E5C6D6F64756C6573F8
:105790005C6E7266785C647269766572735C737253
:1057A000635C7072735C6E7266785F7072732E6386
:1057B0000000000010B5040003D106A17520FCF71D
:1057C000C7FC204600F016FD002802D00021016031
:1057D000017110BD2E2E5C2E2E5C2E2E5C2E2E5CAA
:1057E0002E2E5C2E2E5C2E2E5C6D6F64756C657398
:1057F0005C6E7266785C647269766572735C7372F3
:10580000635C7072735C6E7266785F7072732E6325
:105810000000000001B569460548FFF791FC044807
:10582000FFF74AFC002801D000F0B2F808BD0000E4
:10583000549F000070B50E46040003D118A1182033
:10584000FCF786FC1EB916A11920FCF781FC234D3C
:10585000287808B1852070BD6E602078C00704D01C
:105860001F48016841F0010101601E48D0F8001294
:1058700021F00101C0F800126478082C03D31AA1AA
:105880004520FCF765FC2549600181F800040120F2
:105890004FF0E0224103C2F800112870002070BDD3
:1058A0002E2E5C2E2E5C2E2E5C2E2E5C2E2E5C2E32
:1058B0002E5C2E2E5C6D6F64756C65735C6E72660B
:1058C000785C647269766572735C7372635C6E7225
:1058D00066785F726E672E6300000000CC000020C7
:1058E00004D5004000D000402E2E5C2E2E5C2E2EC3
:1058F0005C2E2E5C2E2E5C2E2E5C2E2E5C696E7421
:105900006567726174696F6E5C6E7266785C6E72E8
:1059100066785F676C75652E680000000DE000E03A
:10592000094808B50078012803D008A13020FCF709
:105930000FFC1649002214480A60096800910121F1
:10594000C0F80413016008BDCC0000202E2E5C2E90
:105950002E5C2E2E5C2E2E5C2E2E5C2E2E5C2E2E81
:105960005C6D6F64756C65735C6E7266785C647296
:1059700069766572735C7372635C6E7266785F726F
:105980006E672E630000000000D0004000D1004090
:10599000074810B50078012803D006A13820FCF78D
:1059A000D7FB13490120C1F80803091D086010BD89
:1059B000CC0000202E2E5C2E2E5C2E2E5C2E2E5C1B
:1059C0002E2E5C2E2E5C2E2E5C6D6F64756C6573B6
:1059D0005C6E7266785C647269766572735C737211
:1059E000635C6E7266785F726E672E630000000003
:1059F00000D0004010B50D4C2078012803D00CA138
:105A00003F20FCF7A5FB19490120C1F80803091D37
:105A1000086041034FF0E0220020C2F88011BFF37C
:105A20004F8FBFF36F8F207010BD0000CC0000209F
:105A30002E2E5C2E2E5C2E2E5C2E2E5C2E2E5C2EA0
:105A40002E5C2E2E5C6D6F64756C65735C6E726679
:105A5000785C647269766572735C7372635C6E7293
:105A600066785F726E672E630000000000D0004011
:105A70000149024800F0B2BDEC04002000200040C3
:105A80002DE9F04117460D00064603D11AA18420E6
:105A9000FCF75EFB3079274A00EB400101EBC001C7
:105AA00002EB810494F82A1011B10820BDE8F081BE
:105AB000214951F820103068FFF73CFE08B1112051
:105AC000F4E729463046FCF7CDFA67602869206084
:105AD0001FB1297F3046FCF727FF30680421C0F84A
:105AE00000150020A061E06184F8290044F8140F3B
:105AF0000121A175DAE700002E2E5C2E2E5C2E2EE1
:105B00005C2E2E5C2E2E5C2E2E5C2E2E5C6D6F6419
:105B1000756C65735C6E7266785C647269766572CA
:105B2000735C7372635C6E7266785F756172742EFB
:105B300063000000EC040020E06900002DE9F05F44
:105B4000054600790F4600EB400101EBC0002D49EE
:105B5000164601EB800494F82A00012803D02AA1FC
:105B6000F220FCF7F5FA1FB927A1F320FCF7F0FAB1
:105B70001EB925A1F420FCF7EBFA284600F062F8E4
:105B800010B11120BDE8F09F66614FF00009C4F824
:105B90002090A76084F828904FF48E784E464146B6
:105BA0002868FFF73EFC28684FF0010AC0F808A0FB
:105BB0002146286800F09EFC606800BBD5F800B064
:105BC00067690EE094F8280008B10F2615E04146F9
:105BD0005846FFF721FC0028F4D02146584600F033
:105BE00089FC206AB842F2D3574641462868FFF73D
:105BF00013FC0028F9D02868C760C4F81490304618
:105C0000C0E70000EC0400202E2E5C2E2E5C2E2E11
:105C10005C2E2E5C2E2E5C2E2E5C2E2E5C6D6F6408
:105C2000756C65735C6E7266785C647269766572B9
:105C3000735C7372635C6E7266785F756172742EEA
:105C400063000000007900EB400101EBC000044953
:105C500001EB80004069002800D00120704700005F
:105C6000EC0400202DE9F047044600794FF00009CC
:105C700000EB400101EBC000284901EB80072068E0
:105C8000C0F800957868B0B120682549C0F80813BD
:105C9000206840F3073000280DDB00F01F020121CF
:105CA00091404009800000F1E020C0F88011BFF36E
:105CB0004F8FBFF36F8F2068D0F80C25D0F8148574
:105CC000D0F80865D0F810554FF0FF31C0F8141522
:105CD000C0F80C152068C0F80815C0F81015501C45
:105CE00002D01046FEF740FCB8F1FF3F02D040461C
:105CF000FEF73AFC681C02D02846FEF735FC701C03
:105D000002D03046FEF730FC2068FFF753FD87F8DD
:105D10002A90C7F80490BDE8F0870000EC0400204A
:105D2000840202000149024800F006BD1805002067
:105D3000002000402DE9F04117460D00064603D132
:105D400018A1A920FCF704FA3079254A00EBC0011C
:105D500002EB810494F8201011B10820BDE8F08115
:105D6000204951F820103068FFF7E4FC08B11120F9
:105D7000F4E729463046FCF7B0F9676028692060EF
:105D80001FB1297F3046FCF725FE30680821C0F896
:105D900000150020A061E0616061012184F82010FD
:105DA000DCE700002E2E5C2E2E5C2E2E5C2E2E5C50
:105DB0002E2E5C2E2E5C2E2E5C6D6F64756C6573C2
:105DC0005C6E7266785C647269766572735C73721D
:105DD000635C6E7266785F75617274652E63000035
:105DE00018050020E46900002DE9F04704460F463D
:105DF0000079364900EBC00001EB8005164695F8A6
:105E00002000012804D032A140F22D10FCF7A0F9A7
:105E100027B92FA14FF49770FCF79AF926B92CA156
:105E200040F22F10FCF794F9207910B9B6F5803FB5
:105E300004D327A14FF49870FCF78AF93846FFF78E
:105E4000D3FB30B1204600F061F820B11120BDE84D
:105E5000F0871020FBE76E61AF604FF490774FF052
:105E6000000839462068FFF7EDFA4FF4AC7631466A
:105E70002068FFF7E7FA2068AA686969C0F8442536
:105E8000C0F8481520684FF00109C0F8089068680C
:105E9000D0B9BA4651462068FFF7CFFA07463146D7
:105EA0002068FFF7CAFA0743F4D010B14FF00F088B
:105EB00008E02068C0F80C9031462068FFF7BDFA72
:105EC0000028F9D0002068614046C0E7180500208E
:105ED0002E2E5C2E2E5C2E2E5C2E2E5C2E2E5C2EFC
:105EE0002E5C2E2E5C6D6F64756C65735C6E7266D5
:105EF000785C647269766572735C7372635C6E72EF
:105F000066785F75617274652E63000000790549DB
:105F100000EBC00001EB80004069002800D00120A8
:105F200070470000180500202DE9F047064600796B
:105F30003D4900EBC00001EB80053468686801272B
:105F4000A8B13A49C4F80813306840F30730002874
:105F50000DDB00F01F0107FA01F14009800000F19C
:105F6000E020C0F88011BFF34F8FBFF36F8FD4F8DC
:105F7000000220F02000C4F80002A8694FF4A278C3
:105F800020B141462046FFF75DFA67604FF4AC79D7
:105F900049462046FFF756FAE760474649462046FD
:105FA000FFF74BFA0028F9D0A86928B139462046F6
:105FB000FFF743FA0028F1D04FF0000AC4F800A51B
:105FC0003068D0F80C25D0F81495D0F80885D0F8B2
:105FD00010754FF0FF31C0F80C15C0F8141530687B
:105FE000C0F80815C0F81015501C02D01046FEF776
:105FF000C4FAB9F1FF3F02D04846FEF7BEFA781C5A
:1060000002D03846FEF7B9FAB8F1FF3F02D0404659
:10601000FEF7B3FA2046FFF7CDFB85F820A0C5F8C0
:1060200004A0BDE8F087000018050020100342001E
:106030002DE9F84F2E4E05464FF001090024311985
:1060400091F95000401C46D091F85000294620F0AC
:10605000C0073846FDF7D2FD70B3204600F04AF87D
:10606000824668460097FEF7E5FA009900EB81004A
:10607000D0F80007C0F30148B8F1020F1DD002218B
:106080003846FEF7A9FA68460097FEF7D3FA009A59
:1060900009FA02F1C0F820153846FCF7D7F956F88E
:1060A00020204AB15046BAF1030F11D0B8F1020FC7
:1060B00005D0B8F1030F07D00DE00321E0E750460B
:1060C000BAF1010F04D006E05046BAF1020F02D136
:1060D000014638469047641C042CB0D32A4601215F
:1060E0000020FEF791FA28680028A7D1BDE8F88FB4
:1060F000900400200249084490F85000800970473D
:106100009004002010B50C46017A052908D0407A89
:1061100038B1084808A102682046FEF75BF800E0A5
:106120001AB106A12046FEF755F82046BDE81040FA
:10613000FEF790B8B0010020257300000D0A0000A2
:1061400038B5C3880D46044633B114A0009015A29B
:1061500016A12846FEF73EF8217A05291CD0607A60
:1061600048B1A088FEF722FC164951F8202016A15C
:106170002846FEF72FF8A0880021FEF71BFE0346F5
:106180001049207A143951F8202001B02846BDE882
:1061900030400EA1FEF71EB838BD00001B5B306D0D
:1061A000000000001B5B313B33316D0025734C6FE9
:1061B00067732064726F70706564202825642925D8
:1061C000730D0A00B0010020257300003C25733ECA
:1061D0002025733A20000000EFF30580C005C00DB4
:1061E00001D001207047EFF3148040F30000401C01
:1061F000704700000349884201D1034870470020DE
:106200007047000000200040C40000202DE9F04746
:106210000446006816468946076800212046FCF7B8
:106220004FF90546D4F80C806068AE4207FB0801C0
:106230000DD808FB06F24846FAF70AFCA168B8191F
:10624000884200D9002021680860BDE8F08708FB7B
:1062500005F842464846FAF7FBFBE268751B6A43BD
:1062600009EB08006168FAF7F3FB20680560ECE7CA
:1062700001680A684968914201D3881A70478068AA
:10628000801A0844401C704710F1380F07D010F1F5
:10629000360F07D0002801D048F21650704748F258
:1062A0001150704748F21450704770B50546886920
:1062B0000C4600284FF4847128460AD0FFF7B1F845
:1062C000D5F81805626AE1688854606A401C60620B
:1062D00070BDFFF7A6F8D5F8180570BD1FB50123EE
:1062E0008DF80030CDE90121D0E9001268469047D1
:1062F0001FBD1FB501238DF80030CDE90121D0E984
:106300000012684690471FBD2DE9F04114008846F1
:1063100018D000250E4F032608EB05012246002069
:10632000FBF702FC0544241A40B93878002809D04C
:1063300008494FF47A408847761E05D0012038700E
:10634000002CE9D1BDE8F08100203870FAE70000A8
:1063500054010020316B000070B50E4C0020D2B209
:106360002070201D0C4D0378EB5C1BB1001DFFF766
:106370003BFD02E00C30FFF7E1FB18B1074A2D218D
:10638000F9F748FF6078002802D021780029FAD078
:1063900070BD0000580100209C000020AC9C000053
:1063A0002DE9F84F054626489146884606681F465F
:1063B000012269461846FBF7DFFFDFF888A0B0B37B
:1063C000009800210446801C0AE000BF00EA060293
:1063D00059F821C00AEB8202401C491CC2F80CC0CB
:1063E000B942F3D3B9462F0CFCF7D4F98346FEF734
:1063F000D7FCB84204D8144940F28310FBF7A8FE3A
:10640000601C30400AEB800047EA0B423440C26017
:106410000AEB8400C16865F3C50169F3891168F36B
:106420009F2121F00301491C21F00401C1609AF869
:10643000000001E0FEF7FAFA0028FBD1BDE8F88F72
:106440008001002034070020489D00002DE9F04124
:106450000F468046174818491646401AC1080520BD
:1064600000EB014013460446424614A1FEF703FC2C
:10647000FEF7DCFA0028FBD100250AE07A5D204611
:1064800015A1FEF7F1FB00BFFEF7D0FA0028FBD103
:106490006D1CB542F2D320460EA1FEF7E1FB20466B
:1064A00042460EA1FEF7E0FBFEF7C0FA0028FBD142
:1064B000BDE8F081389F0000D09E00002D2D2D2DCD
:1064C000257320286C656E6774683A20257529202D
:1064D0002D2D2D2D0D0A0000256300002D2D2D2DB5
:1064E00020257320656E64202D2D2D2D0D0A0D0A9B
:1064F0000000000070B50C4605464FF48E71FEF7A3
:1065000090FF216AA068415C206A401C2062C5F8A7
:106510001C1570BD1FB500228DF800200291816806
:1065200001914261D0E90012684690471FBD1FB536
:1065300000228DF800200291816801914261D0E92A
:106540000012684690471FBD1FB50A4601788DF8B6
:10655000001041680191017A8DF80810C06803901D
:10656000044850F82210001F50F822206846904737
:106570001FBD0000A40000200149012008707047E1
:106580005801002010B588B0044620220F49684603
:10659000FAF75EFA06200090C01F01900290039067
:1065A0004FF0EB7006900CB1094A00E000226946FA
:1065B0000848FDF7DBFD18B1074A1D21F9F72AFE4F
:1065C0000448001F447008B010BD0000446B000078
:1065D000796500005C010020AC9C00002DE9FF47BC
:1065E0000C4605464FF40071FEF721FF01274FF4DA
:1065F0000178002618B34FF4927949462846FEF7F1
:106600000BFFE0B149462846FEF70BFFC5F80883AB
:1066100094F8290000B96F6002208DF80000D5F8C9
:106620008004C5F880040390A0690290E06801909E
:10663000A661E661D4E900126846904728E004218B
:106640002846FEF7F4FE18B34FF484712846FEF78F
:10665000E3FEE8B121462846FFF727FE616AA069FC
:10666000884215D1E06938B1E268616AA0612069A9
:10667000E6616662E06008E094F8290000B96F60A6
:10668000C5F80883A661E268616A2046FFF726FE26
:106690004FF48E7841462846FEF7BEFE80B1606911
:1066A000216A814202D294F8280028B34146284644
:1066B000FEF7B7FE606918B161692046FFF72AFF4F
:1066C0004FF4A27841462846FEF7A6FE002818D0CF
:1066D00041462846FEF7A5FE94F8290000B12F6038
:1066E000A06900280DD0A661E268616A04B0204666
:1066F000BDE8F047FFF7F2BD21462846FFF7FAFE56
:10670000DEE7BDE8FF8700001FB50A4601788DF877
:10671000001041680191017A8DF80810C06803905B
:10672000044850F82210001F50F822206846904775
:106730001FBD0000A40000202DE9FF410C464FF4CE
:10674000927705463946FEF778FE0026B8B13946FD
:106750002846FEF777FE02208DF80000D5F8800469
:10676000C5F880040390D5F83C050290E0680190DC
:10677000A661E661D4E900126846904723E04FF431
:10678000887739462846FEF758FEE0B13946284654
:10679000FEF758FED5F83C15A069884213D1E06990
:1067A00060B1E268D5F8000220F02000C5F80002D0
:1067B000E069A0612069E661E06001E0A661E2684D
:1067C0002046FFF796FD4FF4A27739462846FEF79C
:1067D00034FE68B139462846FEF734FEA06938B168
:1067E000A661E661D5F83C152046E268FFF781FD19
:1067F0004FF4907631462846FEF71FFE60B13146D1
:106800002846FEF71FFE0120E860606920B1D5F838
:106810004C152046FFF78BFE4FF4AC7631462846E8
:10682000FEF70BFE00280ED031462846FEF70AFE82
:106830006069002807D0D5F84C1504B02046BDE8A3
:10684000F041FFF774BEBDE8FF8100002DE9F05F65
:106850008346DDE90A4A994690460D4608460127D7
:1068600003E000BFB0FBF8F07F1C4045FAD2B94509
:1068700000D94F465FEACA7012D18CB15FEA8A70C4
:1068800002D5B9F1000F01D0202607E0302605E03F
:1068900031465846641EFBF7B5FD0CB1A742F7D34D
:1068A0005FF00106B9F1010F02D9A9F1010903E076
:1068B000B5FBF6F0404502D306FB08F6F2E7DFF839
:1068C0003C9000BFB5FBF6F000FB165519F8001020
:1068D0005846FBF797FDB6FBF8F6002EF2D15FEABB
:1068E000CA7009D0002C07D0A74205D220215846F3
:1068F000641EFBF787FDF5E7BDE8F09FE86900003F
:1069000000850000F09100000185000078910000F2
:1069100002850000D89200000385000084900000EA
:1069200004850000C0900000108500006C8E0000FF
:1069300011850000848F000012850000EC8E00009D
:1069400013850000AC8E000014850000B09100009B
:10695000158500002C8F0000168500003092000085
:1069600017850000B092000018850000DC8F000041
:1069700019850000508F000040850000688F0000DE
:1069800041850000689200004285000040910000AF
:1069900043850000C48F0000508500004C8E00002D
:1069A0006085000070930000618500004C9000003D
:1069B000628500001090000070850000048F0000C8
:1069C00071850000208E000004000001E521000018
:1069D00003220000652100000106000000000050B5
:1069E000715A0000255D00003031323334353637BE
:1069F0003839414243444546556E6B6E6F776E2081
:106A00006572726F7220636F6465000000000000A1
:106A1000509C000001000000109B000002000000DC
:106A20000499000003000000849B000004000000A3
:106A3000D89B000005000000B89A00000600000086
:106A4000549A000007000000C09B000008000000EE
:106A5000CC9A000009000000309B00000A000000F2
:106A6000389C00000B000000EC9800000C000000B7
:106A7000E49A00000D000000889C00000E00000059
:106A8000B09B00000F000000EC9B00001000000015
:106A9000209C0000110000009C9C00008000000071
:106AA0006C9A000081000000A8990000820000009C
:106AB00068990000830000004899000084000000ED
:106AC0008499000085000000909A00008600000074
:106AD000989B000090000000349A00009100000094
:106AE0002899000092000000F89A0000008200003F
:106AF000009C0000018200004C9B0000028200000C
:106B0000689B000000840000C4990000018400001C
:106B10005C9C0000028400000C9A000003840000CA
:106B2000E8990000814800007F4800007948000093
:106B30000338FDD8704700009549000069490000FE
:106B400061490000FFFFFFFFFFFFFFFFFFFFFFFFA7
:106B5000FFFFFFFF00000000000000000000D60162
:106B6000060100009C0600207F0000001C0700209A
:106B7000637C777BF26B6FC53001672BFED7AB76FA
:106B8000CA82C97DFA5947F0ADD4A2AF9CA472C0A5
:106B9000B7FD9326363FF7CC34A5E5F171D8311512
:106BA00004C723C31896059A071280E2EB27B27533
:106BB00009832C1A1B6E5AA0523BD6B329E32F84AB
:106BC00053D100ED20FCB15B6ACBBE394A4C58CFA3
:106BD000D0EFAAFB434D338545F9027F503C9FA877
:106BE00051A3408F929D38F5BCB6DA2110FFF3D245
:106BF000CD0C13EC5F974417C4A77E3D645D1973F9
:106C000060814FDC222A908846EEB814DE5E0BDBF2
:106C1000E0323A0A4906245CC2D3AC629195E47929
:106C2000E7C8376D8DD54EA96C56F4EA657AAE0883
:106C3000BA78252E1CA6B4C6E8DD741F4BBD8B8A1E
:106C4000703EB5664803F60E613557B986C11D9E84
:106C5000E1F8981169D98E949B1E87E9CE5528DFFB
:106C60008CA1890DBFE6426841992D0FB054BB1627
:106C7000C66363A5F87C7C84EE777799F67B7B8D81
:106C8000FFF2F20DD66B6BBDDE6F6FB191C5C554CF
:106C90006030305002010103CE6767A9562B2B7D6F
:106CA000E7FEFE19B5D7D7624DABABE6EC76769A28
:106CB0008FCACA451F82829D89C9C940FA7D7D87D6
:106CC000EFFAFA15B25959EB8E4747C9FBF0F00BB2
:106CD00041ADADECB3D4D4675FA2A2FD45AFAFEA3E
:106CE000239C9CBF53A4A4F7E47272969BC0C05B24
:106CF00075B7B7C2E1FDFD1C3D9393AE4C26266AE5
:106D00006C36365A7E3F3F41F5F7F70283CCCC4FC5
:106D10006834345C51A5A5F4D1E5E534F9F1F10806
:106D2000E2717193ABD8D873623131532A15153F94
:106D30000804040C95C7C752462323659DC3C35E50
:106D400030181828379696A10A05050F2F9A9AB57C
:106D50000E070709241212361B80809BDFE2E23DFA
:106D6000CDEBEB264E2727697FB2B2CDEA75759F32
:106D70001209091B1D83839E582C2C74341A1A2E59
:106D8000361B1B2DDC6E6EB2B45A5AEE5BA0A0FB14
:106D9000A45252F6763B3B4DB7D6D6617DB3B3CE07
:106DA0005229297BDDE3E33E5E2F2F711384849704
:106DB000A65353F5B9D1D16800000000C1EDED2C08
:106DC00040202060E3FCFC1F79B1B1C8B65B5BEDED
:106DD000D46A6ABE8DCBCB4667BEBED97239394BF9
:106DE000944A4ADE984C4CD4B05858E885CFCF4AE4
:106DF000BBD0D06BC5EFEF2A4FAAAAE5EDFBFB167F
:106E0000864343C59A4D4DD76633335511858594D6
:106E10008A4545CFE9F9F91004020206FE7F7F8119
:106E2000A05050F0783C3C44259F9FBA4BA8A8E363
:106E3000A25151F35DA3A3FE804040C0058F8F8A0D
:106E40003F9292AD219D9DBC70383848F1F5F50414
:106E500063BCBCDF77B6B6C1AFDADA754221216315
:106E600020101030E5FFFF1AFDF3F30EBFD2D26DF4
:106E700081CDCD4C180C0C1426131335C3ECEC2F1C
:106E8000BE5F5FE1359797A2884444CC2E1717392F
:106E900093C4C45755A7A7F2FC7E7E827A3D3D4736
:106EA000C86464ACBA5D5DE73219192BE67373955B
:106EB000C06060A0198181989E4F4FD1A3DCDC7F18
:106EC00044222266542A2A7E3B9090AB0B8888830A
:106ED0008C4646CAC7EEEE296BB8B8D32814143CCA
:106EE000A7DEDE79BC5E5EE2160B0B1DADDBDB764A
:106EF000DBE0E03B64323256743A3A4E140A0A1E22
:106F0000924949DB0C06060A4824246CB85C5CE410
:106F10009FC2C25DBDD3D36E43ACACEFC46262A668
:106F2000399191A8319595A4D3E4E437F279798B1E
:106F3000D5E7E7328BC8C8436E373759DA6D6DB77E
:106F4000018D8D8CB1D5D5649C4E4ED249A9A9E056
:106F5000D86C6CB4AC5656FAF3F4F407CFEAEA25D1
:106F6000CA6565AFF47A7A8E47AEAEE910080818A4
:106F70006FBABAD5F07878884A25256F5C2E2E72C4
:106F8000381C1C2457A6A6F173B4B4C797C6C651C3
:106F9000CBE8E823A1DDDD7CE874749C3E1F1F2153
:106FA000964B4BDD61BDBDDC0D8B8B860F8A8A85D0
:106FB000E07070907C3E3E4271B5B5C4CC6666AA66
:106FC000904848D806030305F7F6F6011C0E0E128A
:106FD000C26161A36A35355FAE5757F969B9B9D057
:106FE0001786869199C1C1583A1D1D27279E9EB9C3
:106FF000D9E1E138EBF8F8132B9898B3221111334B
:10700000D26969BBA9D9D970078E8E89339494A7A8
:107010002D9B9BB63C1E1E2215878792C9E9E9204D
:1070200087CECE49AA5555FF50282878A5DFDF7AAC
:10703000038C8C8F59A1A1F8098989801A0D0D172D
:1070400065BFBFDAD7E6E631844242C6D06868B889
:10705000824141C3299999B05A2D2D771E0F0F11E6
:107060007BB0B0CBA85454FC6DBBBBD62C16163AE3
:10707000A5C6636384F87C7C99EE77778DF67B7B7D
:107080000DFFF2F2BDD66B6BB1DE6F6F5491C5C5CB
:107090005060303003020101A9CE67677D562B2B6B
:1070A00019E7FEFE62B5D7D7E64DABAB9AEC767624
:1070B000458FCACA9D1F82824089C9C987FA7D7DD2
:1070C00015EFFAFAEBB25959C98E47470BFBF0F0AE
:1070D000EC41ADAD67B3D4D4FD5FA2A2EA45AFAF3A
:1070E000BF239C9CF753A4A496E472725B9BC0C020
:1070F000C275B7B71CE1FDFDAE3D93936A4C2626E1
:107100005A6C3636417E3F3F02F5F7F74F83CCCCC1
:107110005C683434F451A5A534D1E5E508F9F1F102
:1071200093E2717173ABD8D8536231313F2A151590
:107130000C0804045295C7C7654623235E9DC3C34C
:1071400028301818A13796960F0A0505B52F9A9A78
:10715000090E0707362412129B1B80803DDFE2E2F6
:1071600026CDEBEB694E2727CD7FB2B29FEA75752E
:107170001B1209099E1D838374582C2C2E341A1A55
:107180002D361B1BB2DC6E6EEEB45A5AFB5BA0A010
:10719000F6A452524D763B3B61B7D6D6CE7DB3B303
:1071A0007B5229293EDDE3E3715E2F2F9713848400
:1071B000F5A6535368B9D1D1000000002CC1EDED04
:1071C000604020201FE3FCFCC879B1B1EDB65B5BE9
:1071D000BED46A6A468DCBCBD967BEBE4B723939F5
:1071E000DE944A4AD4984C4CE8B058584A85CFCFE0
:1071F0006BBBD0D02AC5EFEFE54FAAAA16EDFBFB7B
:10720000C5864343D79A4D4D5566333394118585D2
:10721000CF8A454510E9F9F90604020281FE7F7F15
:10722000F0A0505044783C3CBA259F9FE34BA8A85F
:10723000F3A25151FE5DA3A3C08040408A058F8F09
:10724000AD3F9292BC219D9D4870383804F1F5F510
:10725000DF63BCBCC177B6B675AFDADA6342212111
:10726000302010101AE5FFFF0EFDF3F36DBFD2D2F0
:107270004C81CDCD14180C0C352613132FC3ECEC18
:10728000E1BE5F5FA2359797CC884444392E17172B
:107290005793C4C4F255A7A782FC7E7E477A3D3D32
:1072A000ACC86464E7BA5D5D2B32191995E6737357
:1072B000A0C0606098198181D19E4F4F7FA3DCDC14
:1072C000664422227E542A2AAB3B9090830B888806
:1072D000CA8C464629C7EEEED36BB8B83C281414C6
:1072E00079A7DEDEE2BC5E5E1D160B0B76ADDBDB46
:1072F0003BDBE0E0566432324E743A3A1E140A0A1E
:10730000DB9249490A0C06066C482424E4B85C5C0C
:107310005D9FC2C26EBDD3D3EF43ACACA6C4626264
:10732000A8399191A431959537D3E4E48BF279791A
:1073300032D5E7E7438BC8C8596E3737B7DA6D6D7A
:107340008C018D8D64B1D5D5D29C4E4EE049A9A952
:10735000B4D86C6CFAAC565607F3F4F425CFEAEACD
:10736000AFCA65658EF47A7AE947AEAE18100808A0
:10737000D56FBABA88F078786F4A2525725C2E2EC0
:1073800024381C1CF157A6A6C773B4B45197C6C6BF
:1073900023CBE8E87CA1DDDD9CE87474213E1F1F4F
:1073A000DD964B4BDC61BDBD860D8B8B850F8A8ACC
:1073B00090E07070427C3E3EC471B5B5AACC666662
:1073C000D89048480506030301F7F6F6121C0E0E86
:1073D000A3C261615F6A3535F9AE5757D069B9B953
:1073E000911786865899C1C1273A1D1DB9279E9EBF
:1073F00038D9E1E113EBF8F8B32B98983322111147
:10740000BBD2696970A9D9D989078E8EA7339494A4
:10741000B62D9B9B223C1E1E9215878720C9E9E949
:107420004987CECEFFAA5555785028287AA5DFDFA8
:107430008F038C8CF859A1A180098989171A0D0D29
:10744000DA65BFBF31D7E6E6C6844242B8D0686885
:10745000C3824141B0299999775A2D2D111E0F0FE2
:10746000CB7BB0B0FCA85454D66DBBBB3A2C1616DF
:1074700063A5C6637C84F87C7799EE777B8DF67B79
:10748000F20DFFF26BBDD66B6FB1DE6FC55491C5C7
:10749000305060300103020167A9CE672B7D562B67
:1074A000FE19E7FED762B5D7ABE64DAB769AEC7620
:1074B000CA458FCA829D1F82C94089C97D87FA7DCE
:1074C000FA15EFFA59EBB25947C98E47F00BFBF0AA
:1074D000ADEC41ADD467B3D4A2FD5FA2AFEA45AF36
:1074E0009CBF239CA4F753A47296E472C05B9BC01C
:1074F000B7C275B7FD1CE1FD93AE3D93266A4C26DD
:10750000365A6C363F417E3FF702F5F7CC4F83CCBD
:10751000345C6834A5F451A5E534D1E5F108F9F1FE
:107520007193E271D873ABD831536231153F2A158C
:10753000040C0804C75295C723654623C35E9DC348
:107540001828301896A13796050F0A059AB52F9A74
:1075500007090E0712362412809B1B80E23DDFE2F2
:10756000EB26CDEB27694E27B2CD7FB2759FEA752A
:10757000091B1209839E1D832C74582C1A2E341A51
:107580001B2D361B6EB2DC6E5AEEB45AA0FB5BA00C
:1075900052F6A4523B4D763BD661B7D6B3CE7DB3FF
:1075A000297B5229E33EDDE32F715E2F84971384FC
:1075B00053F5A653D168B9D100000000ED2CC1ED00
:1075C00020604020FC1FE3FCB1C879B15BEDB65BE5
:1075D0006ABED46ACB468DCBBED967BE394B7239F1
:1075E0004ADE944A4CD4984C58E8B058CF4A85CFDC
:1075F000D06BBBD0EF2AC5EFAAE54FAAFB16EDFB77
:1076000043C586434DD79A4D3355663385941185CE
:1076100045CF8A45F910E9F9020604027F81FE7F11
:1076200050F0A0503C44783C9FBA259FA8E34BA85B
:1076300051F3A251A3FE5DA340C080408F8A058F05
:1076400092AD3F929DBC219D38487038F504F1F50C
:10765000BCDF63BCB6C177B6DA75AFDA216342210D
:1076600010302010FF1AE5FFF30EFDF3D26DBFD2EC
:10767000CD4C81CD0C14180C13352613EC2FC3EC14
:107680005FE1BE5F97A2359744CC884417392E1727
:10769000C45793C4A7F255A77E82FC7E3D477A3D2E
:1076A00064ACC8645DE7BA5D192B32197395E67353
:1076B00060A0C060819819814FD19E4FDC7FA3DC10
:1076C000226644222A7E542A90AB3B9088830B8802
:1076D00046CA8C46EE29C7EEB8D36BB8143C2814C2
:1076E000DE79A7DE5EE2BC5E0B1D160BDB76ADDB42
:1076F000E03BDBE0325664323A4E743A0A1E140A1A
:1077000049DB9249060A0C06246C48245CE4B85C08
:10771000C25D9FC2D36EBDD3ACEF43AC62A6C46260
:1077200091A8399195A43195E437D3E4798BF27916
:10773000E732D5E7C8438BC837596E376DB7DA6D76
:107740008D8C018DD564B1D54ED29C4EA9E049A94E
:107750006CB4D86C56FAAC56F407F3F4EA25CFEAC9
:1077600065AFCA657A8EF47AAEE947AE081810089C
:10777000BAD56FBA7888F078256F4A252E725C2EBC
:107780001C24381CA6F157A6B4C773B4C65197C6BB
:10779000E823CBE8DD7CA1DD749CE8741F213E1F4B
:1077A0004BDD964BBDDC61BD8B860D8B8A850F8AC8
:1077B0007090E0703E427C3EB5C471B566AACC665E
:1077C00048D8904803050603F601F7F60E121C0E82
:1077D00061A3C261355F6A3557F9AE57B9D069B94F
:1077E00086911786C15899C11D273A1D9EB9279EBB
:1077F000E138D9E1F813EBF898B32B981133221143
:1078000069BBD269D970A9D98E89078E94A73394A0
:107810009BB62D9B1E223C1E87921587E920C9E945
:10782000CE4987CE55FFAA5528785028DF7AA5DFA4
:107830008C8F038CA1F859A1898009890D171A0D25
:10784000BFDA65BFE631D7E642C6844268B8D06881
:1078500041C3824199B029992D775A2D0F111E0FDE
:10786000B0CB7BB054FCA854BBD66DBB163A2C16DB
:107870006363A5C67C7C84F8777799EE7B7B8DF675
:10788000F2F20DFF6B6BBDD66F6FB1DEC5C55491C3
:1078900030305060010103026767A9CE2B2B7D5663
:1078A000FEFE19E7D7D762B5ABABE64D76769AEC1C
:1078B000CACA458F82829D1FC9C940897D7D87FACA
:1078C000FAFA15EF5959EBB24747C98EF0F00BFBA6
:1078D000ADADEC41D4D467B3A2A2FD5FAFAFEA4532
:1078E0009C9CBF23A4A4F753727296E4C0C05B9B18
:1078F000B7B7C275FDFD1CE19393AE3D26266A4CD9
:1079000036365A6C3F3F417EF7F702F5CCCC4F83B9
:1079100034345C68A5A5F451E5E534D1F1F108F9FA
:10792000717193E2D8D873AB3131536215153F2A88
:1079300004040C08C7C7529523236546C3C35E9D44
:10794000181828309696A13705050F0A9A9AB52F70
:107950000707090E1212362480809B1BE2E23DDFEE
:10796000EBEB26CD2727694EB2B2CD7F75759FEA26
:1079700009091B1283839E1D2C2C74581A1A2E344D
:107980001B1B2D366E6EB2DC5A5AEEB4A0A0FB5B08
:107990005252F6A43B3B4D76D6D661B7B3B3CE7DFB
:1079A00029297B52E3E33EDD2F2F715E84849713F8
:1079B0005353F5A6D1D168B900000000EDED2CC1FC
:1079C00020206040FCFC1FE3B1B1C8795B5BEDB6E1
:1079D0006A6ABED4CBCB468DBEBED96739394B72ED
:1079E0004A4ADE944C4CD4985858E8B0CFCF4A85D8
:1079F000D0D06BBBEFEF2AC5AAAAE54FFBFB16ED73
:107A00004343C5864D4DD79A3333556685859411CA
:107A10004545CF8AF9F910E9020206047F7F81FE0D
:107A20005050F0A03C3C44789F9FBA25A8A8E34B57
:107A30005151F3A2A3A3FE5D4040C0808F8F8A0501
:107A40009292AD3F9D9DBC2138384870F5F504F108
:107A5000BCBCDF63B6B6C177DADA75AF2121634209
:107A600010103020FFFF1AE5F3F30EFDD2D26DBFE8
:107A7000CDCD4C810C0C141813133526ECEC2FC310
:107A80005F5FE1BE9797A2354444CC881717392E23
:107A9000C4C45793A7A7F2557E7E82FC3D3D477A2A
:107AA0006464ACC85D5DE7BA19192B32737395E64F
:107AB0006060A0C0818198194F4FD19EDCDC7FA30C
:107AC000222266442A2A7E549090AB3B8888830BFE
:107AD0004646CA8CEEEE29C7B8B8D36B14143C28BE
:107AE000DEDE79A75E5EE2BC0B0B1D16DBDB76AD3E
:107AF000E0E03BDB323256643A3A4E740A0A1E1416
:107B00004949DB9206060A0C24246C485C5CE4B804
:107B1000C2C25D9FD3D36EBDACACEF436262A6C45C
:107B20009191A8399595A431E4E437D379798BF212
:107B3000E7E732D5C8C8438B3737596E6D6DB7DA72
:107B40008D8D8C01D5D564B14E4ED29CA9A9E0494A
:107B50006C6CB4D85656FAACF4F407F3EAEA25CFC5
:107B60006565AFCA7A7A8EF4AEAEE9470808181098
:107B7000BABAD56F787888F025256F4A2E2E725CB8
:107B80001C1C2438A6A6F157B4B4C773C6C65197B7
:107B9000E8E823CBDDDD7CA174749CE81F1F213E47
:107BA0004B4BDD96BDBDDC618B8B860D8A8A850FC4
:107BB000707090E03E3E427CB5B5C4716666AACC5A
:107BC0004848D89003030506F6F601F70E0E121C7E
:107BD0006161A3C235355F6A5757F9AEB9B9D0694B
:107BE00086869117C1C158991D1D273A9E9EB927B7
:107BF000E1E138D9F8F813EB9898B32B111133223F
:107C00006969BBD2D9D970A98E8E89079494A7339C
:107C10009B9BB62D1E1E223C87879215E9E920C941
:107C2000CECE49875555FFAA28287850DFDF7AA5A0
:107C30008C8C8F03A1A1F859898980090D0D171A21
:107C4000BFBFDA65E6E631D74242C6846868B8D07D
:107C50004141C3829999B0292D2D775A0F0F111EDA
:107C6000B0B0CB7B5454FCA8BBBBD66D16163A2CD7
:107C700052096AD53036A538BF40A39E81F3D7FBA1
:107C80007CE339829B2FFF87348E4344C4DEE9CBEB
:107C9000547B9432A6C2233DEE4C950B42FAC34E60
:107CA000082EA16628D924B2765BA2496D8BD12516
:107CB00072F8F66486689816D4A45CCC5D65B692BA
:107CC0006C704850FDEDB9DA5E154657A78D9D845E
:107CD00090D8AB008CBCD30AF7E45805B8B345067E
:107CE000D02C1E8FCA3F0F02C1AFBD0301138A6B98
:107CF0003A9111414F67DCEA97F2CFCEF0B4E673C8
:107D000096AC7422E7AD3585E2F937E81C75DF6E75
:107D100047F11A711D29C5896FB7620EAA18BE1BDB
:107D2000FC563E4BC6D279209ADBC0FE78CD5AF481
:107D30001FDDA8338807C731B11210592780EC5FC7
:107D400060517FA919B54A0D2DE57A9F93C99CEF23
:107D5000A0E03B4DAE2AF5B0C8EBBB3C8353996124
:107D6000172B047EBA77D626E169146355210C7D62
:107D700051F4A7507E4165531A17A4C33A275E9663
:107D80003BAB6BCB1F9D45F1ACFA58AB4BE3039378
:107D90002030FA55AD766DF688CC7691F5024C25FB
:107DA0004FE5D7FCC52ACBD726354480B562A38FD3
:107DB000DEB15A4925BA1B6745EA0E985DFEC0E15F
:107DC000C32F7502814CF0128D4697A36BD3F9C671
:107DD000038F5FE715929C95BF6D7AEB955259DA48
:107DE000D4BE832D587421D349E069298EC9C84473
:107DF00075C2896AF48E797899583E6B27B971DD1E
:107E0000BEE14FB6F088AD17C920AC667DCE3AB45E
:107E100063DF4A18E51A31829751336062537F4518
:107E2000B16477E0BB6BAE84FE81A01CF9082B9493
:107E3000704868588F45FD1994DE6C87527BF8B7FF
:107E4000AB73D323724B02E2E31F8F576655AB2A05
:107E5000B2EB28072FB5C20386C57B9AD33708A596
:107E6000302887F223BFA5B202036ABAED16825CFE
:107E70008ACF1C2BA779B492F307F2F04E69E2A1E6
:107E800065DAF4CD0605BED5D134621FC4A6FE8ADC
:107E9000342E539DA2F355A0058AE132A4F6EB756A
:107EA0000B83EC394060EFAA5E719F06BD6E1051E6
:107EB0003E218AF996DD063DDD3E05AE4DE6BD4626
:107EC00091548DB571C45D050406D46F605015FFE3
:107ED0001998FB24D6BDE997894043CC67D99E7792
:107EE000B0E842BD07898B88E7195B3879C8EEDBBB
:107EF000A17C0A477C420FE9F8841EC900000000FB
:107F000009808683322BED481E1170AC6C5A724E7C
:107F1000FD0EFFFB0F8538563DAED51E362D392799
:107F20000A0FD964685CA6219B5B54D124362E3A93
:107F30000C0A67B19357E70FB4EE96D21B9B919E44
:107F400080C0C54F61DC20A25A774B691C121A16FB
:107F5000E293BA0AC0A02AE53C22E043121B171D97
:107F60000E090D0BF28BC7AD2DB6A8B9141EA9C80A
:107F700057F11985AF75074CEE99DDBBA37F60FD06
:107F8000F701269F5C72F5BC44663BC55BFB7E3403
:107F90008B432976CB23C6DCB6EDFC68B8E4F163ED
:107FA000D731DCCA426385101397224084C6112062
:107FB000854A247DD2BB3DF8AEF93211C729A16DA7
:107FC0001D9E2F4BDCB230F30D8652EC77C1E3D00F
:107FD0002BB3166CA970B999119448FA47E9642239
:107FE000A8FC8CC4A0F03F1A567D2CD8223390EF09
:107FF00087494EC7D938D1C18CCAA2FE98D40B3656
:10800000A6F581CFA57ADE28DAB78E263FADBFA4CC
:108010002C3A9DE45078920D6A5FCC9B547E466268
:10802000F68D13C290D8B8E82E39F75E82C3AFF54B
:108030009F5D80BE69D0937C6FD52DA9CF2512B3EB
:10804000C8AC993B10187DA7E89C636EDB3BBB7BFB
:10805000CD2678096E5918F4EC9AB701834F9AA887
:10806000E6956E65AAFFE67E21BCCF08EF15E8E62F
:10807000BAE79BD94A6F36CEEA9F09D429B07CD69D
:1080800031A4B2AF2A3F2331C6A5943035A266C0D1
:10809000744EBC37FC82CAA6E090D0B033A7D81586
:1080A000F104984A41ECDAF77FCD500E1791F62F84
:1080B000764DD68D43EFB04DCCAA4D54E49604DFF7
:1080C0009ED1B5E34C6A881BC12C1FB84665517F11
:1080D0009D5EEA04018C355DFA877473FB0B412EBB
:1080E000B3671D5A92DBD252E91056336DD647134F
:1080F0009AD7618C37A10C7A59F8148EEB133C890E
:10810000CEA927EEB761C935E11CE5ED7A47B13C50
:108110009CD2DF5955F2733F1814CE7973C737BF1D
:1081200053F7CDEA5FFDAA5BDF3D6F147844DB8631
:10813000CAAFF381B968C43E3824342CC2A3405F6F
:10814000161DC372BCE2250C283C498BFF0D9541DE
:1081500039A80171080CB3DED8B4E49C6456C19010
:108160007BCB8461D532B670486C5C74D0B8574212
:108170005051F4A7537E4165C31A17A4963A275E5F
:10818000CB3BAB6BF11F9D45ABACFA58934BE30374
:10819000552030FAF6AD766D9188CC7625F5024CF7
:1081A000FC4FE5D7D7C52ACB802635448FB562A3CF
:1081B00049DEB15A6725BA1B9845EA0EE15DFEC05B
:1081C00002C32F7512814CF0A38D4697C66BD3F96D
:1081D000E7038F5F9515929CEBBF6D7ADA95525944
:1081E0002DD4BE83D35874212949E069448EC9C86F
:1081F0006A75C28978F48E796B99583EDD27B9711A
:10820000B6BEE14F17F088AD66C920ACB47DCE3A5A
:108210001863DF4A82E51A31609751334562537F14
:10822000E0B1647784BB6BAE1CFE81A094F9082B8F
:1082300058704868198F45FD8794DE6CB7527BF8FB
:1082400023AB73D3E2724B0257E31F8F2A6655AB01
:1082500007B2EB28032FB5C29A86C57BA5D3370892
:10826000F2302887B223BFA5BA02036A5CED1682FA
:108270002B8ACF1C92A779B4F0F307F2A14E69E2E2
:10828000CD65DAF4D50605BE1FD134628AC4A6FED8
:108290009D342E53A0A2F35532058AE175A4F6EB66
:1082A000390B83ECAA4060EF065E719F51BD6E10E2
:1082B000F93E218A3D96DD06AEDD3E05464DE6BD22
:1082C000B591548D0571C45D6F0406D4FF605015DF
:1082D000241998FB97D6BDE9CC8940437767D99E8E
:1082E000BDB0E8428807898B38E7195BDB79C8EEB7
:1082F00047A17C0AE97C420FC9F8841E00000000F7
:108300008309808648322BEDAC1E11704E6C5A7278
:10831000FBFD0EFF560F85381E3DAED527362D3995
:10832000640A0FD921685CA6D19B5B543A24362E8F
:10833000B10C0A670F9357E7D2B4EE969E1B9B9140
:108340004F80C0C5A261DC20695A774B161C121AF7
:108350000AE293BAE5C0A02A433C22E01D121B1793
:108360000B0E090DADF28BC7B92DB6A8C8141EA906
:108370008557F1194CAF7507BBEE99DDFDA37F6002
:108380009FF70126BC5C72F5C544663B345BFB7EFF
:10839000768B4329DCCB23C668B6EDFC63B8E4F1E9
:1083A000CAD731DC10426385401397222084C6115E
:1083B0007D854A24F8D2BB3D11AEF9326DC729A1A3
:1083C0004B1D9E2FF3DCB230EC0D8652D077C1E30B
:1083D0006C2BB31699A970B9FA1194482247E96435
:1083E000C4A8FC8C1AA0F03FD8567D2CEF22339005
:1083F000C787494EC1D938D1FE8CCAA23698D40B52
:10840000CFA6F58128A57ADE26DAB78EA43FADBFC8
:10841000E42C3A9D0D5078929B6A5FCC62547E4664
:10842000C2F68D13E890D8B85E2E39F7F582C3AF47
:10843000BE9F5D807C69D093A96FD52DB3CF2512E7
:108440003BC8AC99A710187D6EE89C637BDB3BBBF7
:1084500009CD2678F46E591801EC9AB7A8834F9A83
:1084600065E6956E7EAAFFE60821BCCFE6EF15E82B
:10847000D9BAE79BCE4A6F36D4EA9F09D629B07C99
:10848000AF31A4B2312A3F2330C6A594C035A266CD
:1084900037744EBCA6FC82CAB0E090D01533A7D882
:1084A0004AF10498F741ECDA0E7FCD502F1791F680
:1084B0008D764DD64D43EFB054CCAA4DDFE49604F3
:1084C000E39ED1B51B4C6A88B8C12C1F7F4665510D
:1084D000049D5EEA5D018C3573FA87742EFB0B41B7
:1084E0005AB3671D5292DBD233E91056136DD6474B
:1084F0008C9AD7617A37A10C8E59F81489EB133C0A
:10850000EECEA92735B761C9EDE11CE53C7A47B14C
:10851000599CD2DF3F55F273791814CEBF73C73719
:10852000EA53F7CD5B5FFDAA14DF3D6F867844DB2D
:1085300081CAAFF33EB968C42C3824345FC2A3406B
:1085400072161DC30CBCE2258B283C4941FF0D95DA
:108550007139A801DE080CB39CD8B4E4906456C10C
:10856000617BCB8470D532B674486C5C42D0B8570E
:10857000A75051F465537E41A4C31A175E963A275B
:108580006BCB3BAB45F11F9D58ABACFA03934BE370
:10859000FA5520306DF6AD76769188CC4C25F502F3
:1085A000D7FC4FE5CBD7C52A44802635A38FB562CB
:1085B0005A49DEB11B6725BA0E9845EAC0E15DFE57
:1085C0007502C32FF012814C97A38D46F9C66BD369
:1085D0005FE7038F9C9515927AEBBF6D59DA955240
:1085E000832DD4BE21D35874692949E0C8448EC96B
:1085F000896A75C27978F48E3E6B995871DD27B916
:108600004FB6BEE1AD17F088AC66C9203AB47DCE56
:108610004A1863DF3182E51A336097517F45625310
:1086200077E0B164AE84BB6BA01CFE812B94F9088B
:1086300068587048FD198F456C8794DEF8B7527BF7
:10864000D323AB7302E2724B8F57E31FAB2A6655FD
:108650002807B2EBC2032FB57B9A86C508A5D3378E
:1086600087F23028A5B223BF6ABA0203825CED16F6
:108670001C2B8ACFB492A779F2F0F307E2A14E69DE
:10868000F4CD65DABED50605621FD134FE8AC4A6D4
:10869000539D342E55A0A2F3E132058AEB75A4F662
:1086A000EC390B83EFAA40609F065E711051BD6EDE
:1086B0008AF93E21063D96DD05AEDD3EBD464DE61E
:1086C0008DB591545D0571C4D46F040615FF6050DB
:1086D000FB241998E997D6BD43CC89409E7767D98A
:1086E00042BDB0E88B8807895B38E719EEDB79C8B3
:1086F0000A47A17C0FE97C421EC9F88400000000F3
:1087000086830980ED48322B70AC1E11724E6C5A74
:10871000FFFBFD0E38560F85D51E3DAE3927362D91
:10872000D9640A0FA621685C54D19B5B2E3A24368B
:1087300067B10C0AE70F935796D2B4EE919E1B9B3C
:10874000C54F80C020A261DC4B695A771A161C12F3
:10875000BA0AE2932AE5C0A0E0433C22171D121B8F
:108760000D0B0E09C7ADF28BA8B92DB6A9C8141E02
:10877000198557F1074CAF75DDBBEE9960FDA37FFE
:10878000269FF701F5BC5C723BC544667E345BFBFB
:1087900029768B43C6DCCB23FC68B6EDF163B8E4E5
:1087A000DCCAD7318510426322401397112084C65A
:1087B000247D854A3DF8D2BB3211AEF9A16DC7299F
:1087C0002F4B1D9E30F3DCB252EC0D86E3D077C107
:1087D000166C2BB3B999A97048FA1194642247E931
:1087E0008CC4A8FC3F1AA0F02CD8567D90EF223301
:1087F0004EC78749D1C1D938A2FE8CCA0B3698D44E
:1088000081CFA6F5DE28A57A8E26DAB7BFA43FADC4
:108810009DE42C3A920D5078CC9B6A5F4662547E60
:1088200013C2F68DB8E890D8F75E2E39AFF582C343
:1088300080BE9F5D937C69D02DA96FD512B3CF25E3
:10884000993BC8AC7DA71018636EE89CBB7BDB3BF3
:108850007809CD2618F46E59B701EC9A9AA8834F7F
:108860006E65E695E67EAAFFCF0821BCE8E6EF1527
:108870009BD9BAE736CE4A6F09D4EA9F7CD629B095
:10888000B2AF31A423312A3F9430C6A566C035A2C9
:10889000BC37744ECAA6FC82D0B0E090D81533A77E
:1088A000984AF104DAF741EC500E7FCDF62F17917C
:1088B000D68D764DB04D43EF4D54CCAA04DFE496EF
:1088C000B5E39ED1881B4C6A1FB8C12C517F466509
:1088D000EA049D5E355D018C7473FA87412EFB0BB3
:1088E0001D5AB367D25292DB5633E91047136DD647
:1088F000618C9AD70C7A37A1148E59F83C89EB1306
:1089000027EECEA9C935B761E5EDE11CB13C7A4748
:10891000DF599CD2733F55F2CE79181437BF73C715
:10892000CDEA53F7AA5B5FFD6F14DF3DDB86784429
:10893000F381CAAFC43EB968342C3824405FC2A367
:10894000C372161D250CBCE2498B283C9541FF0DD6
:10895000017139A8B3DE080CE49CD8B4C190645608
:1089600084617BCBB670D5325C74486C5742D0B80A
:10897000F4A750514165537E17A4C31A275E963A57
:10898000AB6BCB3B9D45F11FFA58ABACE303934B6C
:1089900030FA5520766DF6ADCC769188024C25F5EF
:1089A000E5D7FC4F2ACBD7C53544802662A38FB5C7
:1089B000B15A49DEBA1B6725EA0E9845FEC0E15D53
:1089C0002F7502C34CF012814697A38DD3F9C66B65
:1089D0008F5FE703929C95156D7AEBBF5259DA953C
:1089E000BE832DD47421D358E0692949C9C8448E67
:1089F000C2896A758E7978F4583E6B99B971DD2712
:108A0000E14FB6BE88AD17F020AC66C9CE3AB47D52
:108A1000DF4A18631A3182E551336097537F45620C
:108A20006477E0B16BAE84BB81A01CFE082B94F987
:108A30004868587045FD198FDE6C87947BF8B752F3
:108A400073D323AB4B02E2721F8F57E355AB2A66F9
:108A5000EB2807B2B5C2032FC57B9A863708A5D38A
:108A60002887F230BFA5B223036ABA0216825CEDF2
:108A7000CF1C2B8A79B492A707F2F0F369E2A14EDA
:108A8000DAF4CD6505BED50634621FD1A6FE8AC4D0
:108A90002E539D34F355A0A28AE13205F6EB75A45E
:108AA00083EC390B60EFAA40719F065E6E1051BDDA
:108AB000218AF93EDD063D963E05AEDDE6BD464D1A
:108AC000548DB591C45D057106D46F045015FF60D7
:108AD00098FB2419BDE997D64043CC89D99E776786
:108AE000E842BDB0898B8807195B38E7C8EEDB79AF
:108AF0007C0A47A1420FE97C841EC9F800000000EF
:108B0000808683092BED48321170AC1E5A724E6C70
:108B10000EFFFBFD8538560FAED51E3D2D3927368D
:108B20000FD9640A5CA621685B54D19B362E3A2487
:108B30000A67B10C57E70F93EE96D2B49B919E1B38
:108B4000C0C54F80DC20A261774B695A121A161CEF
:108B500093BA0AE2A02AE5C022E0433C1B171D128B
:108B6000090D0B0E8BC7ADF2B6A8B92D1EA9C814FE
:108B7000F119855775074CAF99DDBBEE7F60FDA3FA
:108B800001269FF772F5BC5C663BC544FB7E345BF7
:108B90004329768B23C6DCCBEDFC68B6E4F163B8E1
:108BA00031DCCAD76385104297224013C611208456
:108BB0004A247D85BB3DF8D2F93211AE29A16DC79B
:108BC0009E2F4B1DB230F3DC8652EC0DC1E3D07703
:108BD000B3166C2B70B999A99448FA11E96422472D
:108BE000FC8CC4A8F03F1AA07D2CD8563390EF22FD
:108BF000494EC78738D1C1D9CAA2FE8CD40B36984A
:108C0000F581CFA67ADE28A5B78E26DAADBFA43FC0
:108C10003A9DE42C78920D505FCC9B6A7E4662545C
:108C20008D13C2F6D8B8E89039F75E2EC3AFF5823F
:108C30005D80BE9FD0937C69D52DA96F2512B3CFDF
:108C4000AC993BC8187DA7109C636EE83BBB7BDBEF
:108C5000267809CD5918F46E9AB701EC4F9AA8837B
:108C6000956E65E6FFE67EAABCCF082115E8E6EF23
:108C7000E79BD9BA6F36CE4A9F09D4EAB07CD62991
:108C8000A4B2AF313F23312AA59430C6A266C035C5
:108C90004EBC377482CAA6FC90D0B0E0A7D815337A
:108CA00004984AF1ECDAF741CD500E7F91F62F1778
:108CB0004DD68D76EFB04D43AA4D54CC9604DFE4EB
:108CC000D1B5E39E6A881B4C2C1FB8C165517F4605
:108CD0005EEA049D8C355D01877473FA0B412EFBAF
:108CE000671D5AB3DBD25292105633E9D647136D43
:108CF000D7618C9AA10C7A37F8148E59133C89EB02
:108D0000A927EECE61C935B71CE5EDE147B13C7A44
:108D1000D2DF599CF2733F5514CE7918C737BF7311
:108D2000F7CDEA53FDAA5B5F3D6F14DF44DB867825
:108D3000AFF381CA68C43EB924342C38A3405FC263
:108D40001DC37216E2250CBC3C498B280D9541FFD2
:108D5000A80171390CB3DE08B4E49CD856C1906404
:108D6000CB84617B32B670D56C5C7448B85742D006
:108D700001000000020000000400000008000000E4
:108D800010000000200000004000000080000000F3
:108D90001B000000360000000040404040404040C2
:108DA00040404141414141404040404040404040BE
:108DB0004040404040404040400502020202020262
:108DC00002020202020202020220202020202020B1
:108DD00020202002020202020202909090909090C5
:108DE0001010101010101010101010101010101083
:108DF00010101010020202020202888888888888F7
:108E000008080808080808080808080808080808E2
:108E1000080808080202020240000000998D0000C4
:108E20005265736565642072657175697265642049
:108E30002872657365656420636F756E7465722052
:108E40006F766572666C6F77656429004D65737324
:108E50006167652070616464696E6720697320636F
:108E60006F727275707465642E0000004F6E65201D
:108E70006F72206D6F7265206F662074686520695F
:108E80006E70757420617267756D656E747320669F
:108E90006F7220746869732066756E6374696F6E93
:108EA00020776173204E554C4C0000004F6E6520BA
:108EB0006F72206D6F7265206F6620746865206F19
:108EC000757470757420617267756D656E7473204A
:108ED000666F7220746869732066756E6374696F5B
:108EE0006E20776173204E554C4C0000496E7075B2
:108EF000742064617461206E6F7420696E20524129
:108F00004D000000496E697469616C697A61746929
:108F10006F6E206F722073746172747570206F664B
:108F200020524E47206661696C656400412072657D
:108F3000717569726564206D656D6F727920616C01
:108F40006C6F636174696F6E206661696C65640043
:108F5000537461636B206F766572666C6F77206403
:108F60006574656374656400454343206B657920CF
:108F7000776173206E6F7420696E697469616C69C2
:108F80007A656400546865206C656E677468206F4C
:108F900066206F6E65206F72206D6F7265206F6640
:108FA0002074686520696E70757420617267756DD4
:108FB000656E74732077617320696E76616C696485
:108FC0000000000050726F7669646564206B6579FB
:108FD00020697320696E76616C69640053697A65F3
:108FE000206F6620746865206B6579206973206E38
:108FF0006F7420737570706F72746564206279206D
:1090000063686F6F73656E206261636B656E640089
:1090100053697A65206F6620746865204D4143204E
:109020002874616729206973206E6F7420737570CE
:10903000706F7274656420696E2074686973204172
:10904000454144206D6F64650000000053697A65F6
:10905000206F6620746865206E6F6E63652069738B
:10906000206E6F7420737570706F72746564206900
:109070006E20746869732041454144206D6F6465BA
:10908000000000005468652066756E6374696F6E39
:10909000207761732063616C6C6564207769746804
:1090A0002061206665617475726520746861742042
:1090B000697320756E617661696C61626C65000030
:1090C0005468652066756E6374696F6E20636F7592
:1090D0006C64206E6F742062652063616C6C6564E3
:1090E00020626563617573652074686520637279B9
:1090F00070746F206261636B656E642077617320AA
:10910000627573792E20506C65617365207265728B
:10911000756E207468652063727970746F67726110
:109120007068696320726F7574696E652061742060
:1091300061206C617465722074696D6500000000C7
:109140005369676E617475726520766572696669C8
:10915000636174696F6E20636865636B207265700C
:109160006F7274656420696E76616C6964207369DE
:10917000676E61747572650041206E756C6C20704D
:109180006F696E746572207761732070726F766993
:1091900064656420666F722074686520636F6E7406
:1091A000657874207374727563747572650000005D
:1091B000546865206C656E677468206F66207468FB
:1091C00065206F6E65206F72206D6F7265206F7500
:1091D0007470757420617267756D656E7473207735
:1091E000617320746F6F20736D616C6C0000000000
:1091F0006E72665F63727970746F5F696E697420F6
:10920000776173206E6F742063616C6C656420708D
:1092100072696F7220746F20746869732063727949
:1092200070746F2066756E6374696F6E0000000065
:10923000416E20696E7465726E616C206572726F2A
:1092400072206F63637572726564207768656E2043
:1092500063616C6C696E6720746869732066756EF3
:109260006374696F6E0000005075626C6963206101
:109270006E642070726976617465206B6579207008
:10928000726F766964656420746F2045434448209A
:109290006861766520646966666572656E742074BF
:1092A00079706573206F6620637572766573000050
:1092B000496E76616C696420636F6D62696E61747A
:1092C000696F6E206F6620696E70757420706172B0
:1092D000616D65746572730054686520636F6E74A8
:1092E00065787420776173206E6F7420696E69747D
:1092F00069616C697A6564207072696F7220746F3D
:1093000020746869732063616C6C206F72206974CB
:109310002077617320636F727275707465642E209C
:10932000506C656173652063616C6C2074686520A6
:10933000636F72726573706F6E64696E6720696EB9
:1093400069742066756E6374696F6E20666F722033
:1093500074686520616C676F726974686D20746FE2
:1093600020696E697469616C697A652069740000AE
:109370004D4143206E6F74206D61746368696E6740
:1093800020656E637279707465642074657874000A
:109390002E2E5C2E2E5C2E2E5C2E2E5C2E2E5C2E07
:1093A0002E5C2E2E5C636F6D706F6E656E74735CD9
:1093B0006C69627261726965735C7574696C5C6119
:1093C00070705F7574696C5F706C6174666F726DDC
:1093D0002E630000446174612062757320657272AF
:1093E0006F72202872657475726E20616464726594
:1093F000737320696E2074686520737461636B20D9
:109400006672616D65206973206E6F742072656C81
:109410006174656420746F2074686520696E73746C
:1094200072756374696F6E2074686174206361750E
:1094300073656420746865206572726F722900001C
:109440004461746120627573206572726F722028A6
:1094500050432076616C756520737461636B65643D
:1094600020666F7220746865206578636570746922
:109470006F6E2072657475726E20706F696E747392
:1094800020746F2074686520696E737472756374DC
:10949000696F6E2074686174206361757365642000
:1094A000746865206661756C74290000436175738A
:1094B000653A204275734661756C74206F6E206149
:1094C00020766563746F72207461626C65207265CA
:1094D000616420647572696E672065786365707475
:1094E000696F6E2070726F63657373696E672E00AB
:1094F0005468652070726F636573736F7220686162
:109500007320657865637574656420616E205344CB
:109510004956206F72205544495620696E73747203
:10952000756374696F6E207769746820612064695F
:109530007669736F72206F66203000005468652072
:1095400070726F636573736F7220686173206174EA
:1095500074656D7074656420746F206578656375DB
:10956000746520616E20696E737472756374696FBF
:109570006E2074686174206D616B657320696C6C1A
:109580006567616C20757365206F6620746865205F
:1095900045505352000000005468652070726F639C
:1095A0006573736F722068617320617474656D7088
:1095B00074656420616E20696C6C6567616C206CF9
:1095C0006F6164206F66204558435F524554555281
:1095D0004E20746F207468652050432C20617320E6
:1095E0006120726573756C74206F6620616E2069EE
:1095F0006E76616C696420636F6E746578742C207C
:109600006F7220616E20696E76616C6964204558C6
:10961000435F52455455524E2076616C756500008B
:109620005468652070726F636573736F7220617424
:1096300074656D707465642061206C6F6164206F67
:10964000722073746F72652061742061206C6F6387
:109650006174696F6E207468617420646F65732033
:109660006E6F74207065726D697420746865206F08
:109670007065726174696F6E0000000041204D6575
:109680006D4D616E616765206661756C74206F63F6
:1096900063757272656420647572696E6720666CAA
:1096A0006F6174696E672D706F696E74206C617A7A
:1096B0007920737461746520707265736572766168
:1096C00074696F6E0000000041206275732066614E
:1096D000756C74206F636375727265642064757253
:1096E000696E6720666C6F6174696E672D706F6953
:1096F0006E74206C617A7920737461746520707265
:1097000065736572766174696F6E000054686520D8
:1097100070726F636573736F722068617320617418
:1097200074656D7074656420746F20657865637509
:10973000746520616E20756E646566696E6564206F
:10974000696E737472756374696F6E00496E7374B9
:1097500072756374696F6E20627573206572726FC3
:10976000720000005468652070726F636573736FD8
:10977000722068617320617474656D707465642013
:10978000746F20616363657373206120636F70720F
:109790006F636573736F7200556E737461636B20D2
:1097A000666F7220616E20657863657074696F6E94
:1097B0002072657475726E206861732063617573C1
:1097C0006564206F6E65206F72206D6F7265206119
:1097D00063636573732076696F6C6174696F6E7310
:1097E00000000000537461636B696E6720666F72DE
:1097F00020616E20657863657074696F6E20656E98
:109800007472792068617320636175736564206F79
:109810006E65206F72206D6F726520616363657382
:10982000732076696F6C6174696F6E73000000005D
:109830005468652070726F636573736F722068611E
:1098400073206D61646520616E20756E616C69675F
:109850006E6564206D656D6F7279206163636573F9
:1098600073000000556E737461636B20666F722025
:10987000616E20657863657074696F6E20726574BF
:1098800075726E2068617320636175736564206F03
:109890006E65206F72206D6F726520427573466130
:1098A000756C747300000000537461636B696E67BC
:1098B00020666F7220616E20657863657074696FD1
:1098C0006E20656E747279206861732063617573B0
:1098D0006564206F6E65206F72206D6F7265204227
:1098E00075734661756C7473000000004E52465FDC
:1098F0004552524F525F494E56414C49445F444194
:10990000544100004E52465F4552524F525F534FF2
:1099100046544445564943455F4E4F545F454E417A
:10992000424C4544000000004E52465F4552524FA3
:10993000525F464541545552455F4E4F545F454E28
:1099400041424C45440000004E52465F4552524F42
:10995000525F4D555445585F554E4C4F434B5F46F3
:1099600041494C45440000004E52465F4552524F1B
:10997000525F4D555445585F4C4F434B5F464149EC
:109980004C4544004E52465F4552524F525F4D5532
:109990005445585F434F4E445F494E49545F4641DA
:1099A000494C4544000000004E52465F4552524F1C
:1099B000525F4D555445585F494E49545F464149A1
:1099C0004C4544004E52465F4552524F525F424C06
:1099D000455F495053505F52585F504B545F54524B
:1099E000554E4341544544004E52465F4552524FF6
:1099F000525F424C455F495053505F504545525F5E
:109A000052454A4543544544000000004E52465FCB
:109A10004552524F525F424C455F495053505F4C44
:109A2000494E4B5F444953434F4E4E454354454482
:109A3000000000004E52465F4552524F525F415067
:109A4000495F4E4F545F494D504C454D454E54452E
:109A5000440000004E52465F4552524F525F4E4FF7
:109A6000545F535550504F52544544004E52465F38
:109A70004552524F525F4D4F44554C455F4E4F54E7
:109A80005F494E495449414C495A45440000000041
:109A90004E52465F4552524F525F4D4F44554C45D2
:109AA0005F414C52454144595F494E495449414CEC
:109AB000495A4544000000004E52465F4552524FFD
:109AC000525F4E4F545F464F554E44004E52465FD4
:109AD0004552524F525F494E56414C49445F535490
:109AE000415445004E52465F4552524F525F4441E9
:109AF00054415F53495A45004E52465F4552524FBA
:109B0000525F494F5F50454E44494E4700000000A8
:109B10004E52465F4552524F525F5356435F484143
:109B20004E444C45525F4D495353494E4700000047
:109B30004E52465F4552524F525F494E56414C4934
:109B4000445F4C454E475448000000004E52465F6B
:109B50004552524F525F4452565F5457495F4552E7
:109B6000525F414E41434B004E52465F4552524F69
:109B7000525F4452565F5457495F4552525F444EBC
:109B800041434B004E52465F4552524F525F494E41
:109B90005445524E414C00004E52465F4552524F82
:109BA000525F53544F524147455F46554C4C00005D
:109BB0004E52465F4552524F525F4E554C4C00003C
:109BC0004E52465F4552524F525F494E56414C49A4
:109BD000445F504152414D004E52465F4552524FF4
:109BE000525F4E4F5F4D454D000000004E52465FA4
:109BF0004552524F525F464F5242494444454E00EF
:109C00004E52465F4552524F525F4452565F545730
:109C1000495F4552525F4F56455252554E00000023
:109C20004E52465F4552524F525F494E56414C4943
:109C3000445F4144445200004E52465F4552524FE9
:109C4000525F494E56414C49445F464C4147530090
:109C50004E52465F53554343455353004E52465F61
:109C60004552524F525F424C455F495053505F43FB
:109C700048414E4E454C5F414C52454144595F4529
:109C800058495354530000004E52465F4552524FBC
:109C9000525F54494D454F55540000004E52465FA7
:109CA0004552524F525F4255535900002E2E5C2EA2
:109CB0002E5C2E2E5C2E2E5C2E2E5C2E2E5C2E2EDE
:109CC0005C636F6D706F6E656E74735C6C696272ED
:109CD00061726965735C6C6F675C7372635C6E72F2
:109CE000665F6C6F675F6261636B656E645F756111
:109CF00072742E63000000002E2E5C2E2E5C2E2E21
:109D00005C2E2E5C2E2E5C2E2E5C2E2E5C636F6DD8
:109D1000706F6E656E74735C6C6962726172696596
:109D2000735C6C6F675C7372635C6E72665F6C6FA2
:109D3000675F64656661756C745F6261636B656EB5
:109D400064732E63000000002E2E5C2E2E5C2E2EDF
:109D50005C2E2E5C2E2E5C2E2E5C2E2E5C636F6D88
:109D6000706F6E656E74735C6C6962726172696546
:109D7000735C6C6F675C7372635C6E72665F6C6F52
:109D8000675F66726F6E74656E642E63000000001C
:109D90007761726E696E67006465627567000000C6
:109DA0001B5B313B33306D001B5B306D00000000EE
:109DB0001B5B313B33316D001B5B313B33326D003C
:109DC0001B5B313B33336D001B5B313B33346D0028
:109DD0001B5B313B33356D001B5B313B33366D0014
:109DE0001B5B313B33376D00696E666F000000000E
:109DF000636C6F636B000000726E6700434C4F43EF
:109E00004B0000004750494F54450000505253004A
:109E1000524E4700554152540000000055415254E3
:109E2000450000006170705F627574746F6E0000B1
:109E30006170705F74696D657200000068617264C2
:109E40006661756C740000006D656D5F6D6E6772A4
:109E500000000000736F72746C697374000000007E
:109E60007274745F6C6F675F6261636B656E6400D0
:109E7000756172745F6C6F675F6261636B656E645E
:109E80000000000061707000689F0000000000206A
:109E9000DC010000140B000038A00000DC010020F1
:109EA00004320000821E0000114800001948000022
:109EB000246B000000000000609E00007001002084
:109EC000386B000000000000709E00007801002048
:109ED000F09D000000000000F89D00000000000060
:109EE000FC9D000000000000049E00000000000037
:109EF0000C9E000000000000109E0000000000000A
:109F0000149E0000000000001C9E000000000000E5
:109F1000249E000000000000309E000000000000B1
:109F20003C9E000000000303489E0000000000006B
:109F3000549E000000000000849E00000000030307
:109F40008C010020840100208C010020DC05002011
:109F5000180000008404002040040020400000009D
:109F60000100000000000000005C8AAABBCCDD4EAE
:109F70004F5244494353454D49434F4E4455435432
:109F80004F52434841434841504F4C594B45594526
:109F900078616D706C6520737472696E672075737B
:109FA000656420746F2064656D6F6E737472617484
:109FB00065204368614368612D506F6C7920657836
:109FC000616D706C652E330C9773209633989733C0
:109FD000E497B37C96334C9733409433D4933364F3
:109FE0009833A898B3C896330C97333C953398951B
:109FF000031364973330980318F09464200040945E
:10A0000020004082FF42FF0220FF335C9733909D87
:10A0100033E89D33989D33A89D33A09D33B09D3385
:10A02000B89D33C09D33C89D33D09D33D89D33E058
:08A030009D43A50A1490D00322
:0400000500000201F4
:00000001FF
