:020000040001F9
:10C00000704A0020C1C30100C9C30100CBC30100B5
:10C01000CDC30100CFC30100D1C301000000000067
:10C02000000000000000000000000000D3C3010079
:10C03000D5C3010000000000D7C30100D9C301002F
:10C040002DEF0100DBC3010039F10100DBC301006A
:10C05000DBC30100DBC3010089EE0100DBC301008B
:10C06000DBC30100DBC30100DBC30100DBC3010054
:10C07000DBC301007DEF0100DBC30100DBC3010076
:10C08000DBC30100A5EF0100DBC30100DBC301003E
:10C09000DBC30100DBC30100B5EF0100DBC301001E
:10C0A000DBC30100DBC30100DBC30100DBC3010014
:10C0B000DBC30100DBC30100000000000000000042
:10C0C000DBC30100DBC30100DBC30100DBC30100F4
:10C0D000DBC30100DBC30100DBC30100DBC30100E4
:10C0E000DBC30100000000000000000000000000B1
:10C0F00000000000DBC3010000000000DBC3010002
:10C10000000000000000000000000000000000002F
:10C11000000000000000000000000000000000001F
:10C12000000000000000000000000000000000000F
:10C1300000000000000000000000000000000000FF
:10C1400000000000000000000000000000000000EF
:10C1500000000000000000000000000000000000DF
:10C1600000000000000000000000000000000000CF
:10C1700000000000000000000000000000000000BF
:10C1800000000000000000000000000000000000AF
:10C19000000000000000000000000000000000009F
:10C1A000000000000000000000000000000000008F
:10C1B000000000000000000000000000000000007F
:10C1C000000000000000000000000000000000006F
:10C1D000000000000000000000000000000000005F
:10C1E000000000000000000000000000000000004F
:10C1F000000000000000000000000000000000003F
:10C20000DFF80CD000F0F6FF00480047553502007B
:10C21000704A002030B450E8012F93B2C4892344FF
:10C220008489A34228BF1B1B0489A34202BFBFF31A
:10C230002F8F002007E0C3EA020340E80134002CFE
:10C24000E9D14FF001000A6030BC704750E8012F7F
:10C25000C2EA024240E801210029F7D1704730B418
:10C2600050E8022F1FFAA2F3C488A34202BFBFF313
:10C270002F8F00200DE0C48923448489A34228BF66
:10C280001B1BC2EA034340E80234002CE8D14FF004
:10C2900001000A6030BC704750E8022FC2EA224217
:10C2A00040E802210029F7D17047034653E8022FE6
:10C2B000D988B2EB324F4FF0000017BF92B241EA7B
:10C2C000014142EA014104E05A68B2EB324F08BF33
:10C2D000012043E80212002AE8D1704730B4044636
:10C2E00054E8000F0D4644E80053002BF8D11560C8
:10C2F00030BC704730B4044654E8000F40EA0105F2
:10C3000044E80053002BF7D1156030BC704730B4BF
:10C31000044654E8000F00EA010544E80053002BEE
:10C32000F7D1156030BC704730B4044654E8000FB4
:10C3300080EA010544E80053002BF7D1156030BCBA
:10C34000704730B4044654E8000F00EB010544E8A0
:10C350000053002BF7D1156030BC704730B4044651
:10C3600054E8000FA0EB010544E80053002BF7D17F
:10C37000156030BC704770B404464FF0000054E8BC
:10C38000006F0D68AE4207BF44E80023012044E877
:10C3900000630E60002B1CBF0020F0E770BC7047EC
:10C3A00030B4044654E8000F88422CBF451A0546B5
:10C3B00044E80053002BF5D1156030BC70470000F5
:10C3C0000648804706480047FEE7FEE7FEE7FEE72F
:10C3D000FEE7FEE7FEE7FEE7FEE7FEE7B9EF010056
:10C3E00001C2010070B491E87800B2E802105B1855
:10C3F00054EB0C04B2E802104D4156EB0C0680E8F9
:10C4000078008041013070BC704770B491E87800CA
:10C41000B2E802105B1A74EB0C04B2E802108D4112
:10C4200076EB0C0680E878008041404270BC704793
:10C430002DE9F00791E8F807B2E802105B1854EB19
:10C440000C04B2E802104D4156EB0C06B2E80210A3
:10C450004F4158EB0C08B2E8021059EB01095AEBB6
:10C460000C0A80E8F80780410130BDE8F00770470A
:10C470002DE9F00791E8F807B2E802105B1A74EBB7
:10C480000C04B2E802108D4176EB0C06B2E8021003
:10C490008F4178EB0C08B2E8021079EB01097AEBD6
:10C4A0000C0A80E8F80780414042BDE8F007704779
:10C4B0002DE9F007524290E87800B1E88007174074
:10C4C000DB1918EA020854EB080419EA020955EBD3
:10C4D00009051AEA020A56EB0A0678C090E87800C5
:10C4E000B1E8800717407B4118EA020854EB0804C2
:10C4F00019EA020955EB09051AEA020A56EB0A067F
:10C5000078C080410130BDE8F00770472DE9F007A1
:10C51000524290E87800B1E880071740DB1B18EA28
:10C52000020874EB080419EA020975EB09051AEA16
:10C53000020A76EB0A0678C090E87800B1E8800736
:10C540001740BB4118EA020874EB080419EA020913
:10C5500075EB09051AEA020A76EB0A0678C08041F3
:10C560004042BDE8F007704790E8300091E8C00015
:10C57000A31B1340E41AF618EB1B1340ED1AFF1827
:10C5800030C0C0C17047F0B55242FFF7EDFFFFF772
:10C59000EBFFFFF7E9FFFFF7E7FFF0BD2DE9F0073D
:10C5A0003AC91668A1FB069A4FF0000CE3FB06ACF3
:10C5B0004FF00007E4FB06C74FF00008E5FB0678E4
:10C5C00040F8049B56684FF00009E1FB06A9E3FB25
:10C5D00066C9E4FB6679E5FB668940F804AB9668BA
:10C5E0004FF0000AE1FB06CAE3FB667AE4FB668AC9
:10C5F000E5FB669A40F804CBD6684FF0000CE1FBEF
:10C60000067CE3FB668CE4FB669CE5FB66AC80E89D
:10C610008017BDE8F00770470A462DE9F04F40EC5F
:10C62000171A92EC080A1EC910EE100AA1FB007836
:10C630004FF00009E2FB00894FF0000AE3FB009A8B
:10C640004FF0000BE4FB00AB12EE100A4FF0000CB1
:10C65000E1FB00BC4FF0000EE2FB00CE4FF0000506
:10C66000E3FB00E54FF00006E4FB005604EE107A11
:10C6700010EE900A4FF00007E1FB0087E2FB6097A5
:10C68000E3FB60A7E4FB60B712EE900AE1FB60C732
:10C69000E2FB60E7E3FB6057E4FB606704EE908A2F
:10C6A00011EE100A4FF00008E1FB0098E2FB60A8D1
:10C6B000E3FB60B8E4FB60C813EE100AE1FB60E83E
:10C6C000E2FB6058E3FB6068E4FB607805EE109ADB
:10C6D00011EE900A4FF00009E1FB00A9E2FB60B9FE
:10C6E000E3FB60C9E4FB60E913EE900AE1FB6059EB
:10C6F000E2FB6069E3FB6079E4FB608905EE90AAE8
:10C7000017EE101A01F110011EC910EE100A4FF0B9
:10C71000000AE1FB00BAE2FB60CAE3FB60EAE4FB6B
:10C72000605A12EE100AE1FB606AE2FB607AE3FBFA
:10C73000608AE4FB609A06EE10BA10EE900A4FF0A1
:10C74000000BE1FB00CBE2FB60EBE3FB605BE4FB97
:10C75000606B12EE900AE1FB607BE2FB608BE3FB17
:10C76000609BE4FB60AB06EE90CA11EE100A4FF03E
:10C77000000CE1FB00ECE2FB605CE3FB606CE4FBC3
:10C78000607C13EE100AE1FB608CE2FB609CE3FB33
:10C7900060ACE4FB60BC07EE10EA11EE900A4FF0CB
:10C7A000000EE1FB005EE2FB606EE3FB607EE4FBFB
:10C7B000608E13EE900AE1FB609EE2FB60AEE3FB4D
:10C7C00060BEE4FB60CE17EE900AA0EC074A80E85A
:10C7D000E05FBDE8F08F00BF30B44FF0000310F809
:10C7E000014B11F8015B013A84EA050443EA0403B2
:10C7F000F5D1A3F101034FEAD37030BC70474FF07D
:10C80000000310F8012B013943EA0203F9D1A3F127
:10C8100001034FEAD370704711F8013B00F8013B68
:10C82000013AF9D17047002200F8012B0139FBD100
:10C83000704700BF2DE9F00791E8F807B2E8021051
:10C840005B1854EB0C04B2E802104D4156EB0C0699
:10C85000B2E802104F4158EB0C08B2E8021059EB55
:10C8600001095AEB0C0A8941B3F1FF3374F1FF342B
:10C8700075F1FF3576F1000677F1000778F10008D1
:10C8800079F101097AF1FF3A51F100014A425B184E
:10C890004C414D4156F1000657F1000758F1000890
:10C8A00059EB02095AEB010A80E8F807BDE8F007E6
:10C8B00070472DE9F00791E8F807B2E802105B1A1B
:10C8C00074EB0C04B2E802108D4176EB0C06B2E872
:10C8D00002108F4178EB0C08B2E8021079EB0109E5
:10C8E0007AEB0C0A89414A425B184C414D4156F1A2
:10C8F000000657F1000758F1000859EB02095AEBFE
:10C90000010A80E8F807BDE8F00770470A462DE9FC
:10C91000F04F40EC171A92EC080A1EC910EE100AEC
:10C92000A1FB00784FF00009E2FB00894FF0000AFC
:10C93000E3FB009A4FF0000BE4FB00AB12EE100A91
:10C940004FF0000CE1FB00BC4FF0000EE2FB00CE0C
:10C950004FF00005E3FB00E54FF00006E4FB005656
:10C9600004EE107A10EE900A4FF00007E1FB00870A
:10C97000E2FB6097E3FB60A7E4FB60B712EE900A6E
:10C98000E1FB60C7E2FB60E7E3FB6057E4FB606745
:10C9900004EE908A11EE100A4FF00008E1FB0098B7
:10C9A000E2FB60A8E3FB60B8E4FB60C813EE100A8A
:10C9B000E1FB60E8E2FB6058E3FB6068E4FB607861
:10C9C00005EE109A11EE900A4FF00009E1FB00A964
:10C9D000E2FB60B9E3FB60C9E4FB60E913EE900A97
:10C9E000E1FB6059E2FB6069E3FB6079E4FB60898D
:10C9F00005EE90AA17EE101A01F110011EC910EEF3
:10CA0000100A4FF0000AE1FB00BAE2FB60CAE3FB48
:10CA100060EAE4FB605A12EE100AE1FB606AE2FB96
:10CA2000607AE3FB608AE4FB609A06EE10BA10EECF
:10CA3000900A4FF0000BE1FB00CBE2FB60EBE3FB65
:10CA4000605BE4FB606B12EE900AE1FB607BE2FB53
:10CA5000608BE3FB609BE4FB60AB06EE90CA11EEDB
:10CA6000100A4FF0000CE1FB00ECE2FB605CE3FB22
:10CA7000606CE4FB607C13EE100AE1FB608CE2FB6F
:10CA8000609CE3FB60ACE4FB60BC07EE10EA11EED7
:10CA9000900A4FF0000EE1FB005EE2FB606EE3FBEC
:10CAA000607EE4FB608E13EE900AE1FB609EE2FB89
:10CAB00060AEE3FB60BEE4FB60CE53EC162A17EEDB
:10CAC000104A12EB0A0253EB0B0354EB0C0455EB28
:10CAD0000E05002040F1000012EB0B0253EB0C039B
:10CAE00054EB0E0455EB0E0546410020474158EB30
:10CAF000000859EB0A0940F10000B2EB0E0273F195
:10CB0000000374F1000475EB0A0576EB0B0677EB76
:10CB10000C0778EB0A0879EB0C0960F10000B5EB23
:10CB20000B0576EB0C0677EB0E0778EB0B0879EB31
:10CB30000E0960F100005FEAE07C7FEA0C0CDCF19A
:10CB4000000EB2EB0C0273EB0C0374EB0C0475F1EA
:10CB5000000576F1000677F1000778EB0E0879EB17
:10CB60000C0960F100005FEAE07CDCF1000E12EBE2
:10CB70000C0253EB0C0354EB0C0455F1000556F179
:10CB8000000657F1000758EB0E0859EB0C0940F16D
:10CB900000005FEAE07CDCF1000E12EB0C0253EBCC
:10CBA0000C0354EB0C0455F1000556F1000657F147
:10CBB000000758EB0E0859EB0C095BEC14AA51EC7A
:10CBC000150A1AEB060A5BEB070B50EB080051EB5A
:10CBD00009015FF0000C4CF1000C1AEB070A5BEB4B
:10CBE000080B50EB090051EB090152EB0C025FF00E
:10CBF000000C53EB0C0354EB0C0475414CF1000C8E
:10CC0000BAEB090A7BF1000B70F10000B141BA41A7
:10CC100073EB0803B44175EB08056CF1000CC91BFC
:10CC200072EB080273EB0903BC4175EB09056CF16B
:10CC3000000C5FEAEC787FEA0808D8F10009BAEB4B
:10CC4000080A7BEB080B70EB080071F1000172F130
:10CC5000000273F1000374EB090475EB08056CF135
:10CC6000000C5FEAEC78D8F100091AEB080A5BEBDC
:10CC7000080B50EB080051F1000152F1000253F192
:10CC8000000354EB090455EB08054CF1000C5FEA76
:10CC9000EC78D8F100091AEB080A5BEB080B50EBB3
:10CCA000080051F1000152F1000253F1000354EB6E
:10CCB000090455EB080517EE907AA7E8000C87E801
:10CCC0003F00BDE8F08F00BF2DE9F00791E8F807BD
:10CCD000B2E802105B1854EB0C04B2E802104D41AC
:10CCE00056EB0C06B2E802104F4158EB0C08B2E8C4
:10CCF000021059EB01095AEB0C0A4FF0260261EBC6
:10CD0000010122EA01015B1854F1000455F100050C
:10CD100056F1000657F1000758F1000859F10009D3
:10CD20005AF1000A61EB010122EA01010B4480E89B
:10CD3000F807BDE8F00770472DE9F00791E8F8071C
:10CD4000B2E802105B1A74EB0C04B2E802108D41D9
:10CD500076EB0C06B2E802108F4178EB0C08B2E8D3
:10CD6000021079EB01097AEB0C0A4FF0260261EB15
:10CD7000010102EA01015B1A74F1000475F100057A
:10CD800076F1000677F1000778F1000879F10009E3
:10CD90007AF1000A61EB010102EA0101A3EB010350
:10CDA00080E8F807BDE8F00770470A462DE9F04F24
:10CDB00040EC171A92EC080A1EC910EE100AA1FBEB
:10CDC00000784FF00009E2FB00894FF0000AE3FB16
:10CDD000009A4FF0000BE4FB00AB12EE100A4FF08C
:10CDE000000CE1FB00BC4FF0000EE2FB00CE4FF068
:10CDF0000005E3FB00E54FF00006E4FB005604EEFF
:10CE0000107A10EE900A4FF00007E1FB0087E2FB7A
:10CE10006097E3FB60A7E4FB60B712EE900AE1FBCA
:10CE200060C7E2FB60E7E3FB6057E4FB606704EE8A
:10CE3000908A11EE100A4FF00008E1FB0098E2FB27
:10CE400060A8E3FB60B8E4FB60C813EE100AE1FBE6
:10CE500060E8E2FB6058E3FB6068E4FB607805EEA5
:10CE6000109A11EE900A4FF00009E1FB00A9E2FBD5
:10CE700060B9E3FB60C9E4FB60E913EE900AE1FBF3
:10CE80006059E2FB6069E3FB6079E4FB608905EED1
:10CE900090AA17EE101A01F110011EC910EE100A27
:10CEA0004FF0000AE1FB00BAE2FB60CAE3FB60EA74
:10CEB000E4FB605A12EE100AE1FB606AE2FB607A62
:10CEC000E3FB608AE4FB609A06EE10BA10EE900A6B
:10CED0004FF0000BE1FB00CBE2FB60EBE3FB605BA0
:10CEE000E4FB606B12EE900AE1FB607BE2FB608B7F
:10CEF000E3FB609BE4FB60AB06EE90CA11EE100A08
:10CF00004FF0000CE1FB00ECE2FB605CE3FB606CCB
:10CF1000E4FB607C13EE100AE1FB608CE2FB609C9A
:10CF2000E3FB60ACE4FB60BC07EE10EA11EE900A94
:10CF30004FF0000EE1FB005EE2FB606EE3FB607E03
:10CF4000E4FB608E13EE900AE1FB609EE2FB60AEB4
:10CF5000E3FB60BEE4FB60CE4FF0260153EC142AE5
:10CF60004FF00000E6FB0120E7FB613057EC156A4B
:10CF7000E8FB6160E9FB617059EC168AEAFB6180AD
:10CF8000EBFB619017EE10AAECFB61A0EEFB615089
:10CF900000FB01F0121853F1000356F1000657F19F
:10CFA000000758F1000859F100095AF1000A55F13B
:10CFB000000B60EB000021EA0000024417EE900A2B
:10CFC00080E8CC0FBDE8F08F2DE9F00791E8F0176D
:10CFD0004EF6A1514FEA4101A4FB01234FF000049A
:10CFE000E5FB01344FF00005E6FB01454FF000067C
:10CFF000E7FB01564FF00007E8FB01674FF0000820
:10D00000E9FB01784FF00009EAFB01894FF0000AC3
:10D01000ECFB019A4FF026010AFB01FA12EB0A021F
:10D0200053F1000354F1000455F1000556F10006D8
:10D0300057F1000758F1000859F100096AEB0A0A94
:10D0400021EA0A010A4480E8FC03BDE8F0077047C2
:10D050002DE9F00390E8F8134FEAEC7202F01302A6
:10D060002CF0004C02F11301591854F1000155F154
:10D07000000156F1000157F1000158F1000159F18A
:10D0800000015CF100014FEAE17101F0130111446C
:10D090005B1854F1000455F1000556F1000657F1F4
:10D0A000000758F1000859F100094CF1000C2CF070
:10D0B000004C80E8F813BDE8F00370472DE9F05FFD
:10D0C0000546002092469B468846064681464024F7
:10D0D0001BE0284641464746224600F07BF853466F
:10D0E0005A46C01A914110D311461846224600F004
:10D0F00016F82D1A67EB01084F4622460120002141
:10D1000000F00DF817EB00094E41201EA4F10104B8
:10D11000DFDC484631462A464346BDE8F09F202AD8
:10D1200004DB203A00FA02F1002070479140C2F17E
:10D13000200320FA03F319439040704700487047DA
:10D1400058EA020010B540EA01040346A40703D0E0
:10D1500009E010C9121F10C3042AFAD203E011F823
:10D16000014B03F8014B521EF9D210BDD2B201E0BF
:10D1700000F8012B491EFBD270470022F6E710B5DC
:10D1800013460A4604461946FFF7F0FF204610BD35
:10D19000421C10F8011B0029FBD1801A704710B502
:10D1A000002200E0521C835C8C5CA34201D1002B66
:10D1B000F8D1D8B2E1B2401A10BD30B50446002013
:10D1C000034600E05B1C934203D2E05CCD5C401B55
:10D1D000F8D030BD202A04DB203A21FA02F00021E9
:10D1E000704721FA02F3D040C2F120029140084377
:10D1F00019467047064C074D06E0E06840F0010311
:10D2000094E8070098471034AC42F6D3FEF7FCFFD1
:10D21000600C0300800C030070B58C1810F8015BE3
:10D2200015F0070301D110F8013B2A1106D110F8BF
:10D23000012B03E010F8016B01F8016B5B1EF9D1C3
:10D240002B0705D40023521E0DD401F8013BFAE749
:10D2500010F8013BCB1A921C03E013F8015B01F8B4
:10D26000015B521EF9D5A142D8D3002070BD000049
:10D270002DE9F0410446B0B00D460A46684604F177
:10D280002007002100F0C0F804F140083A4621468A
:10D2900010A804F16006FFF789FD4146324618A840
:10D2A000FFF784FD4246394620A8FFF77FFD32464E
:10D2B000214628A8FFF77AFDEB0F20466A4610A901
:10D2C00000F034F930B0BDE8F08100BF2DE9F04145
:10D2D0000446B0B00D460A46684604F12007012115
:10D2E00000F092F804F140083A46214610A804F1F3
:10D2F0006006FFF75BFD4146324618A8FFF756FD72
:10D300004246394620A8FFF751FD3246214628A85B
:10D31000FFF74CFDEB0F20466A4610A900F006F916
:10D3200030B0BDE8F08100BF2DE9F041B0B0044657
:10D3300000F1200768460D4604F1400800F098F817
:10D3400004F160063A46214610A8FFF72FFD41463A
:10D35000324618A8FFF72AFD4246394620A8FFF7B3
:10D3600025FD3246214628A8FFF720FDEB0F204679
:10D370006A4610A900F0DAF830B0BDE8F08100BFCD
:10D3800070B5A0B0044601F1200668460D46FFF7CF
:10D390000CFD314608A8FFF708FD05F1400110A873
:10D3A000FFF703FD10AA11461046FFF78DFC6946F2
:10D3B00018A800F007FC324629462046FFF784FCF7
:10D3C00021462046FFF7F1FC6A4621462046FFF73A
:10D3D000B3FC04F1400508AA21462046FFF7ACFC47
:10D3E000284608AA18A9FFF76FFC10AA294604F1DD
:10D3F0002000FFF7A1FC08AA18A904F16000FFF7BC
:10D400009BFC20B070BD00BF2DE9F04102EBE2753E
:10D4100085EAE27582B00C460021064600F120073D
:10D4200000F0C6FB691EC90F384600F0C1FB0F4B68
:10D4300003EB442440344FF0010885EA0802013A26
:10D44000D20F21463046019208F10108FFF730F86B
:10D4500004F12001019A3846FFF72AF8B8F1090FC4
:10D4600004F14004E9D102B0BDE8F0818005030079
:10D470002DE9F04101EBE176074682B086EAE176DC
:10D48000002100F095FB07F12008711EC90F4046EE
:10D4900000F08EFB0C4D012486EA0402013AD20F03
:10D4A0002946384601920134FFF702F805F12001C0
:10D4B000019A4046FEF7FCFF092C05F14005EBD12F
:10D4C00002B0BDE8F08100BFC0090300F0B5D1E9AA
:10D4D00008328E6ACD69144F8DB00C46110F41EAA7
:10D4E00006114FEA137C1B014CEA021C43EA157338
:10D4F0003A460546029104A86946360FCDF804C0A5
:10D5000000930396FFF74AF8009B21461B0704AAE5
:10D5100028460B93FEF7ACFFEA693946D20F28463E
:10D52000FEF7C6FF0DB0F0BD600503002DE9F04128
:10D530000D46A2B01646044620312A4602A81F46D0
:10D5400006F120080191FFF7F7FB01992A460AA886
:10D55000FFF7BAFB4146324612A8FFF7EDFB414602
:10D5600032461AA8FFF7B0FB3A461AA912A8FFF7ED
:10D570000AF802A912AA0846FFF718FC0AA91AAA73
:10D580000846FFF713FC4246314612A8FFF70EFC8F
:10D5900012A905F160020846FFF708FC12A9084627
:10D5A000144AFFF703FC05F1400211461AA8FFF7E1
:10D5B0008BFB02AA0AA92046FFF7BEFB04F1200557
:10D5C00002AA0AA904F16000FFF77EFB4034284656
:10D5D00012AA1AA9FFF7B0FB12AA1AA92046FFF750
:10D5E00073FB3A4629462046FEF7CDFF22B0BDE840
:10D5F000F08100BFC00B03002DE9F047CC7F91F80C
:10D6000000A0C2B00B4604F03F04D1F80110D3F8DB
:10D6100009E0D3F80DC0D3F80580D3F81560D3F82E
:10D620001950D3F81170CDF8491044F04004114658
:10D6300081462AF0070202A893F81DA09B7FCDF82F
:10D6400051E0CDF855C08DF866308DF867408DF803
:10D650004820CDF84D80CDF85D60CDF86150CDF813
:10D6600059708DF865A000F087FA202202A91AA847
:10D67000FFF7D2F802A8012100F09AFA0AA80021C7
:10D6800000F096FA1AA922A82022FFF7C5F82AA8C6
:10D69000012100F08DFA1AAE0DF14808062400258C
:10D6A00016F8017D47FA04F32A4603F001056A40A3
:10D6B00022A902A80192FEF766FF019A2AA90AA8E8
:10D6C000FEF761FF0AAA02A932A8FFF7FDFA0AAA2B
:10D6D000104602A9FFF730FB2AAA22A93AA8FFF7B1
:10D6E000F3FA2AAA104622A9FFF726FB3AA9084610
:10D6F0000AAAFFF75BFB2AA9084632AAFFF756FBE6
:10D700003AAA2AA922A8FFF7DFFA2AA93AAA0846C4
:10D71000FFF712FB22A90846FFF747FB2AA9084694
:10D72000FFF743FB2AA91AAA0846FFF73FFB32A9D5
:10D730000846FFF73AFB0AA93AA8FFF736FB3AAAD0
:10D7400032A902A8FFF732FB32A93AAA0846FFF72E
:10D75000F3FA32A90AA8FFF737FC0AA908463AAA41
:10D76000FFF7B2FA0AA9013C32AA0846FFF71EFBEE
:10D77000631C97D146454FF0070491D10AA908468A
:10D78000012200F031FA02A90AAA0846FFF70EFBAF
:10D7900002A9484600F03AFB42B0BDE8F08700BF5E
:10D7A000014AFFF729BF00BF4002030070B500F136
:10D7B000200690B00D46044600F05CFB05F1200108
:10D7C000304600F057FB214608A8FFF79FF808A94C
:10D7D00008460C4AFFF72EF808A922460846FFF72C
:10D7E00096F808A9084A0846FFF724F83146684623
:10D7F000FFF78CF8694608A82022FEF7EDFF0138F4
:10D8000010B070BDE00B0300000C03002DE9F043E5
:10D81000BBB089468046114612A8514AFEF728FE41
:10D820005049024612A8FEF743FE199E4C4900EAF1
:10D83000D6760746C6F1010212A8FEF739FE199DF9
:10D840004A462AA91AA8ED4301F014F8ED0F22A9BF
:10D85000C5F10102084600F0F1FAC7F10107FE2404
:10D8600002AA1AA92AA800F0B9FF62113AAB03EB89
:10D87000820204F01F0152F8A03CCB402A4603F07C
:10D8800001056A402AA91AA80192FEF77CFE019AB6
:10D8900032A922A8FEF777FE013C2AA91AA800F0B7
:10D8A00037FF631CDCD1C5F101020AA822A900F0F0
:10D8B000C5FA754002AA1AA92AA800F08FFF2AA962
:10D8C0002A461AA8FEF75FFE2A4632A922A8FEF7CA
:10D8D0005AFE0AA902AA0846FFF719F80AA908463B
:10D8E00000F0E2FA0AA908F1200409F12002084632
:10D8F000FFF70DF822A90AAA2046FFF708F80AAA9E
:10D900001AA902A8FFF703F802A90846FEF7FEFFCE
:10D910001AAA02A90AA8FEF7FAFF214602A8FEF7F2
:10D92000F5FF0AAA02A91046FEF7C3FF0E4A0AA98C
:10D9300002A8FEF7BEFF20462021FEF760FF0AA9DD
:10D940004342024602A81F43FEF71DFE4046074A17
:10D9500002A9FEF7DCFF38463BB0BDE8F08300BF0C
:10D96000400C030020050300000C030040050300E9
:10D970000A460149FFF74ABF6002030000F044BBBA
:10D9800038B504460D4600F03FFB05F1200104F1D7
:10D990002000BDE8384000F037BB00BF70B5A8B02C
:10D9A00005466846164600F09DFB3146044618A819
:10D9B000FFF7FCFE6A46034618A908A81C43FFF7B8
:10D9C00025FF08A904432846FFF7D8FF204628B0C2
:10D9D00070BD00BF30B599B00546684600F082FBC7
:10D9E0006946044608A8FFF7C3FF08A90443284670
:10D9F000FFF7C6FF204619B030BD00BF10B520228A
:10DA0000B0B004460DEB020000F096FB9DF83F30ED
:10DA10009DF8202003F07F0343F0400322F007022B
:10DA200008A968468DF83F308DF8202000F006FBED
:10DA3000694618A800F028F818A9204600F002F856
:10DA400030B010BD30B599B004460D4610A8403135
:10DA5000012200F0C9F8294610AA6846FFF7A6F986
:10DA600010AA05F1200108A8FFF7A0F908A920468F
:10DA700000F0CCF9684600F093F8E37F83EAC01029
:10DA8000E07719B030BD00BF2DE9F041B0B0E846F5
:10DA90000446404600F002FB04F140069DF93F10A9
:10DAA0002046FFF7E5FC3046012100F081F804F143
:10DAB00020070DF11505214610A8FFF761FC18AAF3
:10DAC00010A92046FFF772F928AA20A93846FFF7C7
:10DAD0006DF920AA18A93046FFF768F9214610A869
:10DAE000FFF74EFC18AA10A92046FFF75FF928AAF5
:10DAF00020A93846FFF75AF920AA18A93046FFF79F
:10DB000055F9214610A8FFF73BFC18AA10A920469A
:10DB1000FFF74CF928AA20A93846FFF747F920AAB1
:10DB200018A93046FFF742F9214610A8FFF728FC54
:10DB300015F9011D10A8FFF79BFB95F9151010A80A
:10DB4000FFF7C4FB95F92A1010A8FFF7EDFB18AA00
:10DB500010A92046FFF72AF928AA20A93846FFF77E
:10DB600025F920AA18A93046FFF720F9A845A2D127
:10DB700030B0BDE8F08100BF0B6803604B684360C4
:10DB80008B688360CB68C3600B6903614B69436139
:10DB90008B698361CB6923F00043C361704700BF89
:10DBA00010B50446FFF754FA206800F0010010BDDC
:10DBB0000023C0E90013C0E90233C0E90433C0E91F
:10DBC0000633704730B589B0002400250A466946FF
:10DBD000CDE90045CDE90245CDE90445CDE906454D
:10DBE000FFF7AAF809B030BDF0B5A1B00446684609
:10DBF00016460D46FFF7D9F8694618A8FFF7D5F87D
:10DC000018A90846FFF7D1F82A4618A908A8FFF76F
:10DC1000CDF86A4608A96846FFF7C8F8694618A80B
:10DC2000FFF7C3F808AA104618A9FFF7BFF808A91C
:10DC300018A8FFF7BAF818A90846FFF7B6F818A908
:10DC40000846FFF7B2F818A90846FFF7AEF818A97A
:10DC50000846FFF7AAF808AA18A91046FFF7A6F881
:10DC6000022708A900E0012718A8FFF79EF818A9C5
:10DC70000846FFF79AF818A90846FFF796F818A97A
:10DC80000846FFF792F818A90846FFF78EF8012F0B
:10DC900018A9E8D110A808AAFFF788F8042710A946
:10DCA00018A8FFF782F818A90846FFF77EF818A908
:10DCB0000846FFF77AF818A90846FFF776F818A97A
:10DCC0000846FFF772F8013F18A9E9D110AA0846E3
:10DCD000FFF76CF8022700E0012718A90846FFF7B4
:10DCE00064F818A90846FFF760F818A90846FFF776
:10DCF0005CF818A90846FFF758F818A90846FFF776
:10DD000054F8012FE8D118A908AA10A8FFF74EF877
:10DD10000A2710A918A8FFF748F818A90846FFF71E
:10DD200044F818A90846FFF740F818A90846FFF775
:10DD30003CF818A90846FFF738F8013F18A9E9D1BF
:10DD400010AA08A8FFF732F8142708A918A8FFF7A7
:10DD50002CF818A90846FFF728F818A90846FFF775
:10DD600024F818A90846FFF720F818A90846FFF775
:10DD70001CF8013F18A9E9D108AA0846FFF716F8D0
:10DD80000A2718A90846FFF710F818A90846FFF750
:10DD90000CF818A90846FFF708F818A90846FFF775
:10DDA00004F818A90846FFF700F8013FE9D118A9BF
:10DDB000084610AAFEF7FAFF18A9084666B9FEF74A
:10DDC000F4FF18A90846FEF7F0FF2A4618A92046D6
:10DDD000FEF7ECFF21B0F0BDFEF7E7FF18A90846FB
:10DDE000FEF7E3FF18A90846FEF7DFFF18A908466B
:10DDF000FEF7DBFF18A90846FEF7D7FF6A4618A909
:10DE00002046FEF7D3FF21B0F0BD00BF38B50C4669
:10DE100005460846FFF71CF923682B6063686B60B2
:10DE2000A368AB60E368EB6023692B6163696B6196
:10DE3000A369AB61E369EB6138BD00BF70B588B021
:10DE400004460D46684620211646FEF7ECFC0023EA
:10DE50002946204620220093FEF7DEFC2A4669462A
:10DE60006846FEF726FD324669462046FEF78BFBE4
:10DE700008B070BD0B681BBAC3614B681BBA8361E5
:10DE80008B681BBA4361CB681BBA03610B691BBA71
:10DE9000C3604B691BBA83608B691BBA4360CB6953
:10DEA0001BBA0360704700BF70B598B00C460546BA
:10DEB00010A8FEF72BFD224610A96846FEF727FDA5
:10DEC000694610A8FEF722FD10A90846FEF71EFDC0
:10DED0006A4610A908A8FEF71AFD08A910A8FEF7BF
:10DEE00015FD10A90846FEF711FD10A90846FEF71A
:10DEF0000DFD10A90846FEF709FD10A908AA08465D
:10DF0000FEF705FD10A90846FEF700FD10A908461A
:10DF1000FEF7FCFC10A96A4608A8FEF7F8FC0526E7
:10DF200008A910A8FEF7F2FC10A90846FEF7EEFCBF
:10DF3000013E10A9F5D108AA0846FEF7E8FC05261F
:10DF400010A90846FEF7E2FC10A90846FEF7DEFC21
:10DF5000013EF5D110A908AA0846FEF7D8FC10A981
:10DF600008A8FEF7D3FC08A90846FEF7CFFC08A9CD
:10DF70006A466846FEF7CBFC1026694610A8FEF7F5
:10DF8000C5FC10A90846FEF7C1FC013E10A9F5D159
:10DF900022460846FEF7BBFC402610A90846FEF7BD
:10DFA000B5FC10A90846FEF7B1FC013EF5D110A959
:10DFB0006A460846FEF7ABFC102610A90846FEF795
:10DFC000A5FC10A90846FEF7A1FC013EF5D110A959
:10DFD0006A460846FEF79BFC102610A90846FEF785
:10DFE00095FC10A90846FEF791FC013EF5D110A959
:10DFF00008AA0846FEF78BFC224610A92846FEF721
:10E0000086FC18B070BD00BFCB691BBA03608B697A
:10E010001BBA43604B691BBA83600B691BBAC360B0
:10E02000CB681BBA03618B681BBA43614B681BBA90
:10E0300083610B681BBAC361704700BFF0B54B0723
:10E040008DB01AD1D1E90023D1E90245CDE90023F1
:10E05000D1E90467D1E90623CDE90245CDE904679A
:10E06000CDE906230022002300246946CDE90823D8
:10E070000A94FFF72BFA0DB0F0BD4C688A68CB68A4
:10E080000E694D69019402928C69CA6903930B6809
:10E090000093CDE90465CDE90642E3E7F0B400253D
:10E0A000471E2C462E46E30814F0070F08BF51F810
:10E0B000235005F00F03334403F1080202F47F6696
:10E0C00001349B1B3F2C4FEA121607F8013F4FEA21
:10E0D0001515C2F30712E6D12A4480F83F20F0BCA0
:10E0E000704700BF70B50B68124E1BBAC3614B6816
:10E0F0001BBA83618B681BBA4361CB681BBA03618F
:10E100000B691BBAC3604B691BBA83608B691BBA6E
:10E110004360CB691BBA0360324601460446FEF7F2
:10E12000A7F90546314620462A46FEF7C1F9681E82
:10E1300070BD00BF200C03002DE9F04F0FF2E80B7B
:10E14000DBE900AB0FF2E809D9E90089B3B0CDE90A
:10E1500000ABCDE902890FF2E00BDBE900AB0FF277
:10E16000E009D9E90089CDE904ABCDE906890FF2D0
:10E17000D80BDBE900AB0FF2D809D9E90089CDE96A
:10E1800008ABCDE90A890FF2D00BDBE900AB0FF247
:10E19000D009D9E900890025CDE90CABCDE90E897C
:10E1A0000646319230955AB96F464FF0000C314611
:10E1B0003846CDF8C0C000F057F833B0BDE8F08F56
:10E1C0006F4638461446884600F0B0FB241A844651
:10E1D00044440028E9D0431E022B0FD920F003004D
:10E1E0002044234610AA53F8041B42F8041B834220
:10E1F000F9D12CF0030565452C44D8D032AB2B4423
:10E20000227803F8882C6B1C9C45D0D932AA134481
:10E210000235627803F8882CAC45C8D932AB1D446E
:10E22000A37805F8883CC2E708C9BCF367E6096A29
:10E230003BA7CA8485AE67BB2BF894FE72F36E3C95
:10E24000F1361D5F3AF54FA5D182E6AD7F520E51F2
:10E250001F6C3E2B8C68059B6BBD41FBABD9831FAC
:10E2600079217E1319CDE05BF0B5D0F8C0300446BB
:10E27000C218581C8026702883B00D4682F8406072
:10E280006FD804F14001C0F17A03022BC0F17B0783
:10E290000FD900F14003234427F003021A4400265B
:10E2A00043F8046B9A42FBD127F00303BB421844A6
:10E2B00011D0231800227A2883F8402000F10103AE
:10E2C00009D02344792800F1020683F8402002D0C7
:10E2D000264486F84020D4F8C430580F5A0D84F8EC
:10E2E000BB0084F8BC20580B5A09DB0084F8BD0041
:10E2F00084F8BE2084F8BF30204600F0A5FCD4E9A5
:10E30000002312BA1BBA6A602B60D4E9022312BA46
:10E310001BBAEA60AB60D4E9042312BA1BBA6A6183
:10E320002B61D4E9062312BA1BBAEA61AB61D4E9C6
:10E33000082312BA1BBA6A622B62D4E90A2312BA02
:10E340001BBAEA62AB62D4E90C2312BA1BBA6A6345
:10E350002B63D4E90E2312BA1BBAEA63AB6303B092
:10E36000F0BD7F2862D8204400227E2B80F8402018
:10E3700003F102015AD021447D2B03F1030081F8FF
:10E38000402053D020447C2B03F1040180F840202E
:10E390004CD021447B2B03F1050081F8402045D06F
:10E3A00020447A2B03F1060180F840203ED021441E
:10E3B000792B03F1070081F8402037D02044782BD7
:10E3C00003F1080180F8402030D02144772B03F17D
:10E3D000090081F8402029D02044762B80F8402085
:10E3E00003F10A0122D02144752B03F10B0081F8BF
:10E3F00040201BD02044742B03F10C0180F84020F6
:10E4000014D02144732B03F10D0081F840200DD06E
:10E410002044722B03F10E0180F8402006D02144E5
:10E42000702B81F8402001D184F8BF2004F1400115
:10E430002046019100F008FC7A2801997FF623AF6D
:10E4400049E700BF2DE9F04F93B0A1F108030C9309
:10E45000D2E90EB30D93136B0393536B0493936A3A
:10E460000593D36A069393690E93D3690F939368C8
:10E470000193D368099313690793D2E90876D2E927
:10E48000005A53690893034680330A90119300950C
:10E49000B44602975646CDF840B008E00099009384
:10E4A0000B9B0996019106460293CC461F460A999A
:10E4B0000C9C059DF4E90289F1E802ABB80BBB0C9A
:10E4C0000A910C9440EA8C40039CF90543EA8C3392
:10E4D0001AEB080E83EA000341EA5C214BEB090BBF
:10E4E0004B4084EA05094FEA9C304FEA9C414FEAD1
:10E4F000CC58049D41EA873148EA572840EA8740D2
:10E5000009EA0709069F484085EA07040399009F26
:10E5100004EA0C0413EB0E0389EA010984EA0504FA
:10E5200080EA08003D464FEA17784FEA877E4FEAB7
:10E530004761019F4BEB000013EB090344EB000024
:10E54000B946109C2F4645EA090B079D1B194FEA57
:10E5500016794FEA86740BEA050B49EA07193D461E
:10E5600044EA9704019F05EA070A0D9D099F40EBC5
:10E57000050528460E9D5D1948EA06180B954EEADA
:10E58000960E009D88EA0E0E4FEA466848EAD518B6
:10E5900041EAD611089D8EEA01014BEA0A0A46EAD1
:10E5A000070E06EA070B0F9F89EA04040EEA050E20
:10E5B000059D156340EB0709079D069F576311EB07
:10E5C0000A0A84EA08080399049C9163D46395615C
:10E5D000029F1091C2E90A7C019F1761009F059973
:10E5E0000391C2E902760B9F069917624EEA0B0E61
:10E5F000029F089D049148EB0E0E0799D5611AEB16
:10E600000303CDE9057C099D019F0E914EEB0000AF
:10E6100008990D940F91C2E900305561C2F8249019
:10E62000079708950A99119CA1427FF437AF13B060
:10E63000BDE8F08F2DE9F04FA0F1080685B0002568
:10E64000AA1E02F00F022B46013500EBC20105F0B5
:10E650000F0450F832E04A6850F83410073B00EBE2
:10E66000C40403F00F0300EBC3034FEADE474FEA95
:10E67000CE0BD4F804C04BEA527BD3E9004A47EAF8
:10E6800042374FEA9E13F6E9028987EA0B0743EA0D
:10E6900082637B404FEAD24B0393D30014EB080410
:10E6A000CDE900894BEA4E3B4FEA112843EA5E7EF2
:10E6B0004FEA510348EA0C6843EACC738BEA0E0E2A
:10E6C0004FEA5C094FEA1C2B83EA080349EAC17947
:10E6D0004FEAD1184BEA016B019F039948EA4C6855
:10E6E0004AEB070A8EEA9212611883EA080389EA64
:10E6F0000B044AEB020284EADC1CC91842EB0C0250
:10E70000102DC6E900129BD105B0BDE8F08F00BF07
:10E71000F0B599B004460D460A4601466846FEF734
:10E72000C8F869466846FEF7F1F821466A4608A827
:10E7300005F1200604F12007FEF7E9F86A462946AC
:10E740006846FEF7E4F83946324610A8FEF772F83C
:10E75000324639463046FEF7ACF831462846FEF7D9
:10E76000D5F86A4608A92046FEF764F822462946ED
:10E770002846FEF79EF86A4608A96846FEF799F80B
:10E780006A4639463846FEF7C2F82A4608A968465E
:10E79000FEF78FF86A4631463046FEF7B8F83A463B
:10E7A00031463046FEF785F810A96846FEF7AEF808
:10E7B000224669462046FEF77CF808A9224608460C
:10E7C000FEF777F810A908AA0846FEF7A0F83A461F
:10E7D00010A93846FEF76DF819B0F0BD2DE9F041EB
:10E7E0000C4688B005469046014622466846FEF72C
:10E7F00060F869466846FEF789F86A462946284661
:10E8000004F12006FEF783F805F120076A46214649
:10E810006846FEF77CF8324630463946FEF749F83E
:10E8200031462046FEF772F82A4621462046FEF77A
:10E8300040F86A4621462046FEF73BF86A462946DC
:10E840004046FEF736F8424639463846FEF75FF84E
:10E85000224629466846FEF72CF86A46314630467D
:10E86000FEF755F83A4631463046FEF722F808B032
:10E87000BDE8F0812DE9F04188B00C46064602F172
:10E880002001684606F120079046FEF73FF86A46E9
:10E8900069466846FDF7CEFF38466946FEF736F80A
:10E8A0003A463946384604F12005FDF7C3FF6A466B
:10E8B00069466846FDF7BEFF28464146FEF726F842
:10E8C0006A4641463046FEF722F82A4629466846FF
:10E8D000FDF7B0FF2A4669466846FDF7ABFF124ACE
:10E8E00069466846FDF7A6FF69462046FEF70EF822
:10E8F000324621462046FDF7DCFF324621462046BF
:10E90000FDF7D7FF224631462846FDF7D2FF6A467B
:10E9100029462846FDF7FBFF3A4629462846FDF7DB
:10E92000C8FF08B0BDE8F081E00B03002DE9F04F0F
:10E93000BDB07F2A0B9240F279818246A2F1800419
:10E94000DAF818300193DAF81C300293DAF8203044
:10E950000393DAF824300493DAE90AB3D0E900200B
:10E96000DAE9046524F07F0489468034DAE9021785
:10E970004C440593DAE90D8EDAF8303006930A94A8
:10E98000DAF83C30CDF81CB014462A463D4617460E
:10E99000D9F80C200C94D9F8084008940D901197E0
:10E9A000D9F81400099017BA089A109616BA099A5D
:10E9B0000F9515BA019A1292029A1392039A149221
:10E9C000049A1592079A1692059A1792069AD9F800
:10E9D00004B0D9F800C0D9F81040D9F81C000E9145
:10E9E000D9F81810CDE91828CDE91AE3D9F848303C
:10E9F0000193D9F854300293D9F850300393D9F8E1
:10EA00005C300493D9F858300593019BD9F82080E5
:10EA1000D9F82CE0D9F84C209BFA8BFB9CFA8CFCA3
:10EA200024BA00BA09BA1BBACDE91CBCCDE91E76DE
:10EA3000D9F824B0D9F828C0D9F83470D9F83060A2
:10EA4000CDE92054CDE92201D9F83C50D9F838401D
:10EA5000D9F84400D9F840102F93029B1BBA309389
:10EA6000039B1BBA3193049B1BBA3293059B98FA04
:10EA700088F89EFA8EFE9CFA8CFC3FBA36BA2DBA04
:10EA800024BA1BBA9BFA8BFBCDE926ECCDE928769C
:10EA9000D9F860E0D9F86CC0D9F86870D9F874601A
:10EAA0003393CDE92A54D9F87830D9F87050D9F891
:10EAB0007C40CDE924B8D9F8648000BA09BA12BA0A
:10EAC0009EFA8EFE9CFA8CFC1BBACDE92C012E928C
:10EAD0001CA90CAA574898FA88F83FBA36BA2DBA3A
:10EAE00024BACDE9348ECDE936C7CDE93865CDE914
:10EAF0003A43FFF7A7FC1CA8FFF79CFD0CAA1CA932
:10EB00004D48FFF79FFC1CA8FFF794FD0CAA1CA919
:10EB10004A48FFF797FC1CA8FFF78CFD0CAA1CA91C
:10EB20004748FFF78FFC1CA8FFF784FD45480CAA57
:10EB30001CA9FFF787FCDDE90C40DAF80020DAF8C1
:10EB400008300E99119F1419DAF80420CAF8004011
:10EB5000DAE9035642EB000059180F9BDAF824203B
:10EB600043EB0505109BF618DAF8143043EB070762
:10EB7000DAF81830CAF814709C46129B1CEB030399
:10EB80000193DAF81C309C46139B4CEB030CDAF82B
:10EB90002030CDF808C09C46149B1CEB030C159B41
:10EBA000CDF80CC043EB0202019B0492CAE90101BB
:10EBB000CAE90356CAF81830029BCAF81C30CAE9E1
:10EBC00008C2169BDAF82820D3180793179ACAF8B8
:10EBD0002830DAF82C3053410593189ACAF82C30B3
:10EBE000DAF830309B180693199ACAF83030DAF800
:10EBF000343043EB0208DAF838201B9BCAF8348023
:10EC000094461A9A1CEB020EDAF83C2042EB0303FE
:10EC10000A9A09F180099145CAE90EE37FF4B8AE7A
:10EC20000B9B03F07F003DB0BDE8F08F10463DB078
:10EC3000BDE8F08FA002030020030300A00303003F
:10EC400020040300A00403002DE9F041D1F804C022
:10EC50000D68CC688A684B690F69CE69B0B0804690
:10EC60009CFA8CFC2DBA24BA12BA1BBACDE910C595
:10EC7000CDE913231294D8E90223D8E900453FBA1D
:10EC800036BACDE91576CDE90045D8E90467D8E96B
:10EC90000645CDE90223D8E90823CDE90467CDE98B
:10ECA0000645D8E90A67D8E90C45CDE90823886903
:10ECB000D8E90E2300BACDE90A67CDE90C451790D3
:10ECC000CDE90E23CF6A8E6A4D6B0C6BC86B8A6BD5
:10ECD0004B6CD1F824E0D1F820C03FBA36BA2DBA37
:10ECE00024BA00BA12BA1BBA1A971B960F6CCE6CD4
:10ECF0001C951D948D6C4C6D1E901F92086DCA6DF5
:10ED000020938B6D9EFA8EFE9CFA8CFC3FBA36BA2D
:10ED10002DBA24BA00BA12BA1BBACDE92176CDE9D0
:10ED20002354CDE92502CDE918EC2793D1F864E00E
:10ED3000486FCA6F534CD1F860C0CF6E8E6E0D6FA6
:10ED40008B6F00BA11BA9EFA8EFE9CFA8CFC1BBA2D
:10ED50006A462C902E91204610A93FBA36BA2DBA99
:10ED60002F93CDE928ECCDE92A762D95FFF76AFBA4
:10ED700010A8FFF75FFC6A4610A904F18000FFF7B6
:10ED800061FB10A8FFF756FC6A4610A904F58070D5
:10ED9000FFF758FB10A8FFF74DFC6A4610A904F5D1
:10EDA000C070FFF74FFB10A8FFF744FC6A4610A99C
:10EDB00004F50070FFF746FBD8F80000009DD8F876
:10EDC0000410019ED8F80830029CD8F80C20D8F81E
:10EDD0001070401946EB0101039DC8F8000004982B
:10EDE000C8F804101B190599D8F81440D8F8186011
:10EDF000C8F8083045EB0202069B079DC8F80C20B6
:10EE00003F1844EB0101D8F81C00089AC8F81070AC
:10EE1000D8F82070C8F81410F6180999D8F82430DA
:10EE2000C8F8186045EB0000BA1841EB0303C8E9C5
:10EE30000702C8F82430D8E90A01DDE90A56D8F8F3
:10EE400030300C9CD8F83420D8F83870401946EB94
:10EE500001010D9DC8F828000E98C8F82C101B1948
:10EE60000F99D8F83C40C8F8303045EB020238180A
:10EE7000C8E90D2044EB01010020C8F83C1030B077
:10EE8000BDE8F081A00203002DE9FC410025DFF878
:10EE9000948000954FF4807601242F4601953046EA
:10EEA00007F0EAFA38B1D8F80403204203D030461C
:10EEB00007F0D8FA2543361D64007F1CB6B2082F30
:10EEC000EDD34FF4BE74204607F0D6FA48B1204681
:10EED00007F0C8FA45F000456A460221002007F015
:10EEE00029FA15F0FF0F16D0012600242E420ED06D
:10EEF00008EB8401D1F81005D1F81015C0F30520F6
:10EF0000094AC1F3014152F8242002B1904776002A
:10EF1000641C082CEAD3002D02DA68460AF03CFE95
:10EF2000BDE8FC81006000409C39002070B54FF4C2
:10EF30008076304606F0B8F90F4DB40540B1304642
:10EF400006F0B9F90120C4F80803296800208847B1
:10EF50004FF48276304606F0A7F900280AD03046F2
:10EF600006F0A9F90220C4F808032968BDE870403A
:10EF70000120084770BD0000C02E0020064882B066
:10EF80000021016000680090044800680449C0B294
:10EF9000496802B00847000000D1004008D5004091
:10EFA000D02E002002490248091F0968006808475E
:10EFB000182F002008F024B930B54FF080500123FD
:10EFC000D0E94C1000220D2906D18C07C4F80C2181
:10EFD000C4F810214E4C22600D2955D14D4C2468A7
:10EFE0004D4D2C604B4C241D24682D1D2C60494C2C
:10EFF000083424682D1D2C60464C0C3424682D1DCB
:10F000002C60444C103424682D1D2C60414C143469
:10F0100024682D1D2C603F4C183424683E4D20354B
:10F020002C603C4C1C3424682D1D2C60394C203441
:10F0300024682D1D2C60374C243424682D1D2C6031
:10F04000344C283424682D1D2C60324C2C34246818
:10F050002D1D2C602F4C303424682F4D40352C60F2
:10F060002C4C343424682D1D2C602A4C38342468F0
:10F070002D1D2C60274C3C3424682D1D2C60254C04
:10F08000403424682D1D2C600D2906D123480168C9
:10F09000C90702D06FF0010101602148016841F405
:10F0A00070010160BFF34F8FBFF36F8F4FF01021DE
:10F0B000D1F80002002803DBD1F80402002822DA8C
:10F0C000184C236018480368002BFCD01223C1F8A9
:10F0D00000320568002DFCD0C1F804320168002917
:10F0E000FCD0226001680029FCD0BFF34F8F0C4890
:10F0F0007C3801680D4A01F4E06111430160BFF3FF
:10F100004F8F00BFFDE70B490948086030BD000084
:10F11000380500400404001020C5004000040040F1
:10F1200088ED00E004E5014000E401400400FA0538
:10F130000090D003DC2F0020014800680047000049
:10F14000C82E002002E008C8121F08C1002AFAD108
:10F1500070477047002001E001C1121F002AFBD157
:10F16000704700000121202803DA81400548014052
:10F1700003E0402802DA2038814009B101207047BD
:10F1800000207047FC06FFBD2DE9F843804643F29E
:10F19000020659B9694609F0CBFEB04202D008B167
:10F1A00000F0A4F99DF80000800744D400214046F7
:10F1B00009F0C8FE05003ED0112D3CD01F48204963
:10F1C000401AC708022000EB07440D2D0AD00B2D72
:10F1D0001DD0B5421FD11B4920464246BDE8F84329
:10F1E00007F056BB20464246174907F051FB132152
:10F1F000404677DF00281ED008F0BEF8024601B076
:10F2000020464346BDE8F04310A107F048BB204626
:10F2100042461C49E2E7284608F0AEF802460120C3
:10F2200000EB0740434618A107F039FB2846BDE82C
:10F23000F84300F05BB9BDE8F8830000F00C030070
:10F24000980C0300FCF3020088F3020073645F6211
:10F250006C655F6761705F646973636F6E6E656331
:10F260007428292072657475726E65642025732078
:10F270006F6E20636F6E6E5F68616E646C652025D3
:10F28000642E000048F40200417373657274696E65
:10F29000672E20706D5F636F6E6E5F73656375724E
:10F2A0006528292072657475726E65642025732047
:10F2B0006F6E20636F6E6E5F68616E646C65202593
:10F2C000642E000031B500252C462146684605F025
:10F2D000A7F900B16D1C641C142CF6D3284638BD68
:10F2E00010B560B159B102780B785208B2EB530FE8
:10F2F00005D10622401C491CFDF75FFF08B1002024
:10F3000010BD012010BD800701D0002070470120F2
:10F310007047C3688B4206D811440069491E814278
:10F3200001D8012070470020704710B5012202214A
:10F33000002001F031FA08B1072810D1072202217C
:10F34000012001F029FA08B1072808D100210A227A
:10F35000084601F021FA08B1072800D1002010BDAD
:10F3600070B58CB015460E4600236C46C3F10F01F4
:10F37000415CE1545B1C102BF8D30D2104F110000B
:10F38000FDF7FBFE0020C0F10F02315C2244401C5F
:10F3900011740328F7D3684646DF0020C0F10F013F
:10F3A000214491F820102954401C0328F6D30CB0B6
:10F3B00070BD022001F0D4B80149C97800F0EABC60
:10F3C000802E002070B50024064D06E068680121FB
:10F3D00010F8340008F042F8641C28788442F5D311
:10F3E000002070BDD82E0020F8B516460C46054604
:10F3F0000A2A01D20720F8BD08F026F918B908F04A
:10F40000E9F80028F7D1134F202113487D603C70A4
:10F41000BE60FDF7B2FE0020C7E904000F4E0DE00C
:10F4200005EBC4003168009181788DF801100078F7
:10F430000B4A694608F05EF80028DCD1641EE4B28D
:10F44000EED2BDE8F84005480021064A001D00F054
:10F450005FB80000D82E0020783A002094C4020043
:10F46000D92502002111020072B607F0C5FA00BFCB
:10F4700007F0EEF80028FBD111481249401AC408E1
:10F48000012000EB044010A107F0FEF911480068CC
:10F49000C00700D000BE022000EB04400EA107F020
:10F4A000F3F9BFF34F8F0B48E43801680E4A01F4BB
:10F4B000E06111430160BFF34F8F00BFFDE7000023
:10F4C000880D0300980C0300466174616C2065721E
:10F4D000726F7200F0ED00E053797374656D207205
:10F4E00065736574000000000400FA050EB5002184
:10F4F0000091CDE901106A4644F20100FFF7B4FF24
:10F500000EBD0000014801F04ABF0000F82E0020A7
:10F510003AB100680129426100D000210161002058
:10F52000704707207047000038B51148082358225B
:10F53000416800910F49006804F0F3FF002815D1DD
:10F540000D4A69460D4801F02FFF04000ED101213C
:10F550000A4801F0A4FF0123094A1946074801F0AF
:10F56000F6FE0649012008390870204638BD000023
:10F570009CC40200A83A0020D9A50200F82E002061
:10F58000FFFF7F0070B50446007F0D4608B10020E4
:10F5900070BDA26103F006F8401941F10001C4E911
:10F5A0000201206900B125612146BDE870400020BC
:10F5B0000CF0A6B801460020087701200CF0A0B896
:10F5C00030B5EFF3108172B60D4A9468012324B16F
:10F5D0000370002900D162B630BD93604FF0E02384
:10F5E000D3F88051074C25401560C3F88041D3F80B
:10F5F000844154605A17C3F8842100220270E8E75E
:10F60000003B0020FC06FFBD0B498A68002A11D090
:10F6100000280FD1EFF3108072B60B684FF0E02294
:10F62000C2F800314B68C2F8043100228A60002819
:10F6300000D162B670470000003B002070B505465F
:10F6400008680C46411C04D006F0E5FE206806F070
:10F6500045FE6068411C02D0002106F02DFE29689D
:10F66000A069C1F82405607D227D29681043C1F896
:10F670006C05D4E900122868C0F81425C0F80C15F0
:10F68000207D012814D1A068411C02D0002106F081
:10F6900013FEE068411C04D006F0BDFEE06806F0F1
:10F6A0001DFED4E902122868C0F80825C0F810151C
:10F6B00070BD70B5054608680C46411C04D006F0C4
:10F6C000B4FE206806F014FE6068411C02D00021E0
:10F6D00006F0FBFD2968A069C1F82405607D217D45
:10F6E0002A680843C2F86C05D4E900122868C0F8FB
:10F6F0000C15C0F81425207D012814D1A068411CE8
:10F7000002D0002106F0E1FDE068411C04D006F0C3
:10F710008CFEE06806F0ECFDD4E902122868C0F81F
:10F720000825C0F8101570BD03F0E0BD2DE9F047C5
:10F73000814604884E484FF000088EB0017842465A
:10F74000204600F03FFB99F80500400701D4002156
:10F750007FE004F58077B8B205AB0122072108F0FD
:10F76000E5FF05004348444A4FF00101A0EB0200C9
:10F770004FEAD00001EB00460AD0284607F0FCFD16
:10F780000246304623463D4907F089F8294632E0D3
:10F79000204603F071FA4FF6FF710546884234D1D6
:10F7A0008A46069803F0E6F90546504519D0014609
:10F7B000204603F041FA2046FFF7FEFD28BB142146
:10F7C00007A8FDF7DAFC04208DF81C00ADF81E40F8
:10F7D00007A802F08BF82046FFF7EEFD0028B6D010
:10F7E00013E009F079F90546504508D1304624A1C7
:10F7F00007F04AF8042120460BF07AFAA7E7014601
:10F80000204603F019FA4FF00108B8B22A46072142
:10F8100009F004F807001BD0862F1ED007F0ACFDBE
:10F820000246304623462349009507F040F8394602
:10F8300020460BF05DFA0021484608F06FFEB8F153
:10F84000000F02D0284603F001FA0EB0BDE8F087A1
:10F850000121484608F062FEF7E71422164968467F
:10F86000FDF770FCADF80240684602F03FF8EFE7A4
:10F87000802E0020F80C0300980C0300D4F6020040
:10F88000436F756C64206E6F7420616C6C6F636184
:10F890007465206E657720706565725F69642066A7
:10F8A0006F7220696E636F6D696E6720626F6E6440
:10F8B0002E00000080F7020054C3020010B50A7841
:10F8C000044682B11648174BC01AC008032303EB45
:10F8D0000040012A1FD0022A20D10A7912A1BDE8D6
:10F8E000104006F0D5BF48880A1D0146204600F0AA
:10F8F00031F908B1FFF7FAFD204600F007F908B129
:10F90000FFF7F4FD204600F0CFF8002806D0BDE850
:10F910001040FFF7EBBD0A790BA1E0E710BD000036
:10F92000880D0300980C030042617474657279209D
:10F930004C6576656C205265616420617320256496
:10F940002025252E00000000426174746572792024
:10F950004C6576656C207265636569766564202503
:10F96000642025252E000000F8B506464FF0000063
:10F970001500ADF8000015D009236A46304600F0A6
:10F9800015F80446BDF80000064458B154B12846A5
:10F99000FDF7FEFBA04205D1224631462846FDF781
:10F9A0000CFC08B10020F8BD0120F8BD70B5E0B135
:10F9B000DAB1002402E0045D2C44A4B2651C8D423F
:10F9C00006D21688A642F6D8061976789E42F2D15B
:10F9D0008C420AD2A31C005D9BB200B1401E000401
:10F9E000000C02D01C188C4201D9002070BD13807D
:10F9F00070BD2DE9F0418AB006460020ADF8140034
:10FA00001346102088468DF804000D4606AA01A969
:10FA1000184665DFA6B398BB9DF80400022804D001
:10FA2000042807D0102839D10DE003208DF81000EC
:10FA3000022003E005208DF8100004208DF811004D
:10FA4000002404AF0FE007208DF810000620F5E732
:10FA50003B5D05AA41463046FFF7A8FF641CE4B2AF
:10FA60000546022C04D2BDF814000028F0D003E0B3
:10FA7000BDF81400002812D080B2064400240BE028
:10FA80000CE030199DF8042006A9FDF796FB48B15B
:10FA90009DF80400204484B2AC42F2D300200AB0A6
:10FAA000BDE8F0810120FAE770B58AB048B301885B
:10FAB000A1F57F42FF3A22D0012504468DF820505F
:10FAC00000268DF8216020216846FDF756FB0E4880
:10FAD000CDE902048DF800506088ADF812000220D4
:10FAE000ADF8160008A80690ADF814608DF8105017
:10FAF00022886946206904F0FBFE0AB070BD082028
:10FB0000FBE70E20F9E70000C71D020010B588B022
:10FB100004001AD02088A0F57F41FF3913D020219E
:10FB20006846FDF72AFB00208DF800000848CDE963
:10FB30000204A088ADF8100022886946206904F00C
:10FB4000D7FE08B010BD0820FBE70E20F9E7000043
:10FB5000C71D020038B1018012B11268C0F802203E
:10FB6000006904F08DBE0E20704708B5B8B1B1B180
:10FB700001228DF8022041F60F02ADF800204FF669
:10FB8000FF7202800022428082800A6882604A6896
:10FB9000C26089680161684600F03AF908BD0E202C
:10FBA00008BD1CB5002831D000292FD00288112AA9
:10FBB0002DD0362A14D0392A28D10A460B888188BC
:10FBC0008B4223D143899488A3421FD1C389012B3F
:10FBD0001CD1ADF8021001218DF80010007C0FE05F
:10FBE0000A460B8881888B4210D130F80A3F9488EE
:10FBF000A3420BD1ADF8021002218DF800108079DC
:10FC00008DF8040093686946104698471CBD0A8821
:10FC100080888242FAD14FF6FF7008800020488029
:10FC200088801CBD7CB50A78002A38D18A88A2F564
:10FC3000C0530F3B33D18A79012A30D100228DF88D
:10FC400000204A88ADF80220002242F619240B7ADF
:10FC500014E000BF02EBC20501EB4505ED89A542AA
:10FC60000AD102EBC20201EB42010A8BADF804207B
:10FC7000C98AADF8061003E0521CD2B29342E9D80B
:10FC80000188A1F57F42FF3A06D0418821B98188D9
:10FC900011B90199C0F802108268694690477CBD8D
:10FCA000054808B5C16800918168684604F0DCFC2D
:10FCB0000098FFF707FB08BD1833002010B5044675
:10FCC00000F09CF8002805D02146BDE8104002480D
:10FCD00004F0A6BC10BD00002833002070B5154606
:10FCE0000E4604460BF05EFF002809D0054800EBE5
:10FCF0008400C0692A463146BDE8704002F048B829
:10FD000070BD00001833002010B5044600F076F8EE
:10FD1000002805D02146BDE81040024804F080BC10
:10FD200010BD00003033002010B5044600F066F826
:10FD3000002805D02146BDE81040024804F070BC00
:10FD400010BD00002C33002010B5002400F056F840
:10FD500000B10224204610BD70B50546002400F015
:10FD60004DF838B12946044804F05AFC08B1022481
:10FD700000E00124204670BD2033002010B518217A
:10FD8000034804F028FC182800D0C0B210BD0000C1
:10FD90001833002070B505460C4608460BF002FFEC
:10FDA00060B1284600F02AF840B10548294600EB2A
:10FDB0008400BDE870401C3004F032BC002070BDEF
:10FDC0001833002070B5054616460C4608460BF061
:10FDD000E9FE00280ED0284600F010F8002809D0CF
:10FDE0000548324600EB84002946BDE870401C30CF
:10FDF00001F0B0BF70BD000018330020142801D3FB
:10FE0000002070470146014804F00ABC1C33002062
:10FE100070B540B10C4D297839B104460AF026FB83
:10FE200028B1002070BD0E2070BD082070BDE868AC
:10FE3000062807D20549226801EB8001401C0A60B0
:10FE4000E860EEE7042070BDBC2D00209433002054
:10FE500010B558B103684BB142683AB1044900206B
:10FE60000124C8600C70C1E9013210BD0E2010BD24
:10FE7000BC2D0020002827D0002925D0134A127855
:10FE8000002A21D00A460188112911D0302907D033
:10FE9000322909D0332917D1011D104607F0C4BFFC
:10FEA000011D104608F03EB9011D104607F0DCBEEA
:10FEB0008088B2F8CA12884206D1002082F8C802AF
:10FEC0004FF6FF70A2F8CA0270470000BC2D002058
:10FED00048B1084A137843B1D26832B190F8C822C9
:10FEE0002AB1112070470E2070470820704701F09A
:10FEF000D5B90000BC2D00203EB50446011D028886
:10FF00003B483C4BC01AC008032303EB0040192AAE
:10FF10005DD00ADCA2F11002092A46D2DFE802F025
:10FF2000183145454545454F5100212A34D007DC5D
:10FF30001B2A2CD01F2A38D131F8040B76DF38E089
:10FF40003B2A33D0562A30D1A088132177DF30E006
:10FF500029A106F099FCA1882A48FFF7B9FF08B14A
:10FF6000FFF7C4FA5FF0070000F038FC08B1FFF7B4
:10FF7000BDFAFFF795FE002817D1BDE83E400AF014
:10FF8000ADBC0A7920A106F083FC0020ECE70979DA
:10FF900002290AD123A115E000200090A08869461B
:10FFA0008DDF002801D0FFF7A1FA3EBDA088132104
:10FFB00077DF0028F9D0BDE83E40FFF797BA21A1CE
:10FFC00000E028A103B0BDE8304006F05DBCA37A94
:10FFD000617B227BC3F3C0030093CDE90121617AE9
:10FFE000227AC1F38003274906F074FC3EBD00006D
:10FFF000880D0300980C0300436F6E6E6563746593
:020000040002F8
:10000000642E0000C0270020446973636F6E6E6524
:10001000637465642C20726561736F6E203078257F
:10002000782E0000436F6E6E656374696F6E2052A8
:100030006571756573742074696D6564206F75747E
:100040002E000000424C455F4741505F4556545FCB
:10005000415554485F4B45595F524551554553549E
:1000600000000000424C455F4741505F4556545FD9
:100070004C4553435F44484B45595F5245515545A4
:10008000535400005CEA020010B51A4C0188606805
:1000900010290ED011292BD1401E606028D1FFF706
:1000A00044F9002824D02168002921D0BDE810405F
:1000B0000847D0B900210122084600F06DFB08B1C5
:1000C00007280FD107220221012000F065FB08B1AB
:1000D000072807D104220221002000F05DFB20B197
:1000E000072802D0216801B188476068401C606021
:1000F00010BD0000B42D00202DE9F04F0446868885
:100100000188424897B0834610290CD0112950D05D
:10011000103019296AD01A2974D1217A0C09042CBB
:100120004DD301224CE0394D083DA868C0430B90E7
:1001300069680BA804F098FA0B990CA800F08FFEE0
:100140002C220CA96846FCF7FDFF0027E946A846CB
:1001500010E000BF09EB47005FF00005B0F804A015
:1001600008EB85005146001D04F01AFA6D1C1E2D87
:10017000F6D37F1C0098B842ECD8142E05D317B0E4
:100180000420BDE8F04FFFF7B1B93146584604F0FE
:1001900052FA314608F1040004F04DFAE07B0228DF
:1001A00030D117B03146BDE8F04F1848001D04F0BB
:1001B00042BA17B03146BDE8F04F04F0F1B9002261
:1001C000314601F0C7FD032C01D3012200E00022DB
:1001D0000E4831460C3001F0BDFD022C01D3012246
:1001E00000E0002209483146083006E0217A002963
:1001F00008D1617AC1F3C002314617B0BDE8F04FB3
:1002000001F0A8BD17B0BDE8F08F0000203300203A
:1002100010B504460748007800280AD0204602F0AE
:10022000A5FB20460AF0F0FE2046BDE8104001F094
:100230005DBF10BD102E002038B1018012B11268D0
:10024000C0F80220006904F01BBB0E2070470000BC
:1002500030B589B000B3044601258DF82050002048
:100260008DF8210020216846FCF787FF0B48CDE977
:1002700002048DF800506088ADF812000220ADF83D
:10028000160008A806908DF810502288694620694B
:1002900004F02EFB09B030BD0E20FBE7D11D02009B
:1002A00008B5B8B1B1B101228DF8022041F60D02B6
:1002B000ADF800200A6882604A68C26089680161FE
:1002C0004FF6FF7101800021418081806846FFF771
:1002D0009FFD08BD0E2008BD0A460146100012D041
:1002E000002910D00A88112A03D0392A0BD107F02F
:1002F000DFBE028889888A4205D14FF6FF710180EE
:10030000002141808180704730B50A788DB0002A85
:1003100036D18A88A2F5C0530D3B31D18A79012AA2
:100320002ED18DF800204A88ADF80220002242F636
:1003300037240B7A13E000BF02EBC20501EB450541
:10034000ED89A5420AD102EBC20201EB42010A8B00
:10035000ADF80420C98AADF8061002E0521C9342A1
:10036000EAD80188A1F57F42FF3A06D0418821B939
:10037000818811B90199C0F80210826869469047D6
:100380000DB030BD2DE9F04FADF53F7D14460E4662
:100390008346B2F5C07F05D96FF037000DF53F7D7C
:1003A000BDE8F08F4FF4D0716846FCF7E6FE68A810
:1003B00003F093F9200E8DF81000200C8DF8110039
:1003C000200A8DF8120020208DF8170006AD8DF858
:1003D0001340224631462846FCF7B4FE80202855BB
:1003E00004F119080020BAA90854401C1028FBDBAE
:1003F000802268A803F076F9070051D10025AA46AB
:100400006E46CDF8B8A2CDF8BCA2CDF8C0A2444645
:100410000DF52E79CDF8C4A217E000204946335CD3
:100420000A5C5A400A54401C1028F8DB1036102C85
:1004300001D3102000E02046241AAEAB1A46012159
:1004400068A803F037F907002AD1002CE5D1B2A83B
:1004500028441022AEA9FCF775FE9DF80300103564
:10046000401C8DF80300202DCADB8022B2A968A8A9
:1004700003F038F9070013D1B6AE5C4600253346C9
:100480001A46012168A803F015F9070008D11022C7
:1004900031462046FCF756FE10341035202DEEDB99
:1004A00068A803F013F94FF4D071684603F090FF89
:1004B0002021B2A803F08CFF1021BAA803F088FF16
:1004C0001021AEA803F084FF1FB12021584603F08D
:1004D0007FFF384662E700000149085C7047000072
:1004E00060C10200084908B5085C0090684605F044
:1004F00039FFD0F810050099C84010F0010000D075
:10050000012080F0010008BD60C102002DE9FC411E
:100510000646C0074FF000050ED0104F0024012200
:10052000385D009500231146019505F04FFE641CCF
:10053000042CF4D300F04EF8B0070DD5074E00247C
:10054000361D0022305D032300951146019505F00C
:100550003DFE641C042CF4D3BDE8FC815CC10200A8
:10056000094908B5085C0090684605F0FBFED0F824
:100570000425009B0121994021EA0203C0F80835B7
:100580001140C0F80C1508BD5CC102000249085CAE
:10059000012105F054BF00005CC102000249085C63
:1005A000002105F04CBF00005CC10200084908B5FD
:1005B000085C0090684605F0D5FED0F80405009967
:1005C000C84010F0010000D0012080F0010008BDFB
:1005D0005CC1020010B500242046FFF7D7FF641C61
:1005E000042CF9D310BD10B500242046FFF7D6FF28
:1005F000641C042CF9D310BD10B50246064B4FF015
:10060000FF3000215C5C944201D1084610BD491CBA
:100610000429F7D310BD000060C1020070B50C4E74
:100620000C004FF0000530600BD0012000F06AF89C
:1006300008B1022004E0002000F064F800B10B20B3
:100640002070706810B9FEF770FE0546284670BD30
:10065000B42D002010B5002000F0FAF908B10628EA
:1006600006D1012000F0F4F908B1062800D10020DD
:1006700010BD00002DE9F0470D468146FFF7BCFF95
:100680000446042836D2DFF874801B481C4EA8F1BB
:100690000C0725B3012D0ED0022D2BD104EB440005
:1006A00030444578002D25D0B968002922D028464D
:1006B000BDE8F047084704EB4401755C0E447178CF
:1006C00049B10E4A4FF48041093A8068FEF75AFF5B
:1006D00008B987F80390B17808F80410E2E7806859
:1006E000FEF768FF04EB4401314418F804008D78EC
:1006F000A842D7D0BDE8F08764C10200B02D002029
:10070000E8320020042801D2FFF7ECBE0020704739
:1007100010B5164C042808D0072811D00A2824D177
:10072000BDE81040002006F07BBA1321A08877DFD7
:1007300008281AD0002818D0BDE81040FEF7D6BE11
:100740006078002811D10A480A49401AC0080321DC
:1007500001EB004008A106F097F80120607004F05A
:10076000A1FDBDE810400AF0B9B810BDA4270020D3
:10077000880D0300980C030057686974656C6973F1
:10078000742074656D706F726172696C7920646930
:100790007361626C65642E0070B50023042810D26A
:1007A0000D4D00EB4004012A02D101290CD000229A
:1007B000094E00EB4000304461B1012906D0022906
:1007C00006D00723184670BD0E30C2B22A55F9E78D
:1007D0004270F7E78270F5E7E8320020044A0146EC
:1007E00000201279D20702D0084600F04DB87047B9
:1007F000A42D002070B506461E480024C0E9016102
:10080000B00720D50025012211462846FFF7C4FF76
:100810006D1C0446042D02D2002CF4D013E094B9D0
:1008200040F2333204211448FEF7DEFD04000AD101
:10083000FEF7C8FD040006D10F48104A0021001F32
:10084000FEF766FE0446F00712D00120FFF75EFEB9
:1008500074B909480A4A00210C38FEF759FE040011
:1008600006D10548074A01210838FEF751FE044623
:10087000204670BDA42D002070C102005D0B020057
:1008800091300200B3F301002DE9F05F6E4C054694
:1008900000266078B34618B184F801B002F0E0FB9E
:1008A0006A4F4FF47A694FF4C87A4FF00108182D57
:1008B00069D2DFE805F00C1313384754696E727B78
:1008C000727BC58484848484B3B6B9BCC5C502F088
:1008D000C7FB3868FEF76EFE06465CE00020FFF7B7
:1008E00065FE00284FF0000008D0FFF74FFE022DF4
:1008F00002D14FF4E16008E0484606E0FFF74EFE03
:10090000022D01D1C82000E05046410CC0034FF435
:100910007A72801841F10001257052000023FCF723
:10092000CDFB01462AE00020FFF740FE00284FF0F3
:10093000000004D0FFF72AFE4FF44870E5E7FFF708
:100940002DFEDFE70020FFF731FE00284FF000000A
:1009500002D0FFF71BFECFE7FFF720FED4E7002011
:10096000FFF724FE00284FF0000002D0FFF70EFE34
:1009700001E0FFF713FE257040F6CD4100223868F4
:10098000FEF700FE064646E00020FFF7E9FD257071
:1009900008E0002051E025703DE084F8018001204E
:1009A000FFF7DEFD002240F26661E8E784F801808F
:1009B0000120FFF7D5FD00224FF40051DFE77868F2
:1009C000FEF7F8FD0646D5F1110000D02EB1022049
:1009D000FFF7DCFD84F802B01DE0012816D980B2D3
:1009E000C8214843C117C90341EA5041C0034FF42D
:1009F0007A72801841F1000152000023FCF75EFB7F
:100A0000014600227868FEF7BDFD06460220FFF78A
:100A1000C5FD84F802803046BDE8F09F02F020FB5F
:100A2000B9E702F01DFBB4E702F01AFB04E002F0A4
:100A300017FB0020FFF7B2FD0120FFF7AFFDAAE78B
:100A4000FFF7D1FDA7E70000A42D002064C102003C
:100A500001210BF0BDB800002DE9F84F0546861CBA
:100A600000208DF8000091460F464FF0010A6846BD
:100A7000FEF7A6FD1B4C04F21C4860683860D4E900
:100A80000101194F401A3968081A0EE00121404649
:100A900003F0E4FD02F00CFD0146404603F0DEFDEC
:100AA000D4E90101401A3968081A401C8642EDD881
:100AB000B9F1000F03D0052065F3891002E006208C
:100AC00065F39F5061683A68114004EB8101C8608A
:100AD0006068304460609DF80000FEF795FD504668
:100AE000BDE8F88F503E0020802F002070B50D46E5
:100AF00004460A2902D10D21FFF7F8FFA0682268F9
:100B0000411CA1601554D4E90101814204D320465F
:100B1000BDE8704004F0F7BF70BD00000448816874
:100B20004068814201D101207047002070470000D9
:100B3000503E0020034630B5074800210478426843
:100B400006E000BF02EBC10005789D4203D0491CBE
:100B5000A142F7DB002030BDD82E00200078022112
:100B6000FFF788BD1CB5044602F086F800236A46EC
:100B7000092107F01DFF052805D10348012241790D
:100B80002046FFF71FF91CBDCC2D00201CB50446E4
:100B90000020009042F6A620ADF8000001208DF85C
:100BA0000200084801AA6946006801902046A0DFBB
:100BB000002805D10448012281792046FFF702F977
:100BC0001CBD00000CC20200CC2D002005494FF0D6
:100BD000FF32082841F8202002D3084480F8522030
:100BE000704700009C390020F0B54FF0FF3512B17E
:100BF0000023082601E008230C260C4C05E000BF6A
:100C000054F823707F1C04D05B1CB342F8D32846F1
:100C1000F0BD26185DB286F8305044F82310002A43
:100C2000F5D1E11881F85200F1E700009C3900206D
:100C30000249084490F93000704700009C390020B8
:100C400030B589B00D46044620216846FCF795FA78
:100C500094F8C602002300EB8001C1EB801094F8E9
:100C6000C51204EB400041B1491EC9B201EBC101FC
:100C700000EB4101498A491C00E0C188008961F309
:100C80000F0360F31F4303208DF800000548CDE9F2
:100C90000204054804932A466946806803F028FE4A
:100CA00009B030BD4D120200BC2D002070B50446C5
:100CB0004FF6FF750A462846AC4209D14FF48074BE
:100CC0002146104603F087FC80B2A0420BD070BDD5
:100CD000FF2CFCD82146104603F06DFC90F0010F6C
:100CE00001D0204670BD284670BD000070B5084C8C
:100CF000050009D010342168002907D00868206059
:100D0000496828468847F6E70834F4E770BD0000D4
:100D100038390020054A012120B1012805D1917000
:100D2000FFF7E4BF51700020FAE770473839002020
:100D300010B5D0E90234D1E90220D11AA04101D383
:100D4000012010BD002010BD7CB50E462021019170
:100D50001C491B4C4978002929D01B491B4A90F893
:100D60004930891ACD085BB1024601A915480091A6
:100D7000234604F12001001D04F00EFC002818D0C9
:100D8000022000EB054012A105F07EFD2021204647
:100D900004F0A8FD002809D1032000EB05403246ED
:100DA00018A105F075FD0649304682DF7CBD0320A1
:100DB0007CBD224620231146204804F039FBE9E798
:100DC000C4340020EC2D0020C80C0300980C030054
:100DD0004372656174696E6720696E76616C6964DF
:100DE0002073686172656420736563726574207432
:100DF0006F206D616B65204C455343206661696CC3
:100E00002E00000043616C6C696E672073645F6242
:100E10006C655F6761705F6C6573635F64686B6569
:100E2000795F7265706C79206F6E20636F6E6E5F94
:100E300068616E646C653A202564000034C4020069
:100E400010B502460020138806E0546834F81040BC
:100E50008C4203D0401C80B28342F6D810BD73B5DB
:100E60008CB00646002000900D9880B100246D469D
:100E700021460DA803F0D4FB30B1009805EB4000EB
:100E800084800098401C0090641C142CF0D32C2209
:100E900069463046FCF756F90EB070BDF0B585B026
:100EA00016460F4604461D4614220B496846FCF7B9
:100EB00049F90A488DF80870ADF80240ADF80A60AB
:100EC0008DF80C50017800222046FEF77BFF684623
:100ED00000F00CFD05B0F0BD68C30200802E0020BC
:100EE000FEF752B902681368526831B19A4202D3D0
:100EF0008068801A07E0981A70479A4201D3D01A86
:100F000070478068C01A401C70472DE9F04389B0D3
:100F1000884604466E4620213046FCF72EF900250F
:100F200004F120091020211811F8012D521C12F093
:100F3000FF020A7002D1401E0028F4DC334622462C
:100F40000121484602F0B6FB070017D110351036D4
:100F5000202DE7DB694618F800200B5C53400B544A
:100F6000401C2028F7DB8022484602F0BBFB07002C
:100F700004D104AD95E80F0084E80F0020216846F5
:100F800003F026FA09B03846BDE8F08310B50446F0
:100F900001460548FFF7B8F921460348BDE810406F
:100FA0001430FEF73FBE0000EC31002070B504465F
:100FB0000948012103F06DFBBFF35F8F0025002876
:100FC00008D1204602F0EEF9002803D1BFF35F8F6D
:100FD0000148056070BD0000D82D00202DE9FF41BB
:100FE0000C4620B14FF4064004B0BDE8F0812079F2
:100FF000002748F2096538B141F61D5601281BD07B
:10100000022826D0681DEFE702202071029703977F
:10101000E0680190694601A809F048F950B10298CA
:101020008188E18000882081BDF80010029809F0D5
:10103000BBF9D9E72846D7E70A4B6A460021A01D2D
:1010400009F0ECF838B1074918398F61CF61A8422F
:10105000CAD13046C8E703488188019809F0A4F94D
:10106000F5E70000382F00202DE9F04389B00F4646
:101070000546914620216846FCF77FF895F8C602A0
:1010800095F8C54200EB8001C1EB801005EB4006EE
:1010900004EBC40006EB40013279601C0A31904237
:1010A00032D108AB0022284601F086FF78B310E069
:1010B000401EA04201D1002004E004EBC40006EB76
:1010C00040001C308046024608AB284601F074FF01
:1010D00090B10020387004208DF8000008984A462E
:1010E000CDE903500C4802900C486946806803F033
:1010F000FFFB09B0BDE8F08395F8C5024146401CEE
:10110000641C85F8C502E4B23079A042D0D8012031
:1011100038700020EDE700004D120200BC2D0020C9
:1011200070B500240F4D10E0686800EBC4063078FD
:1011300006F048FA7178012901D0012100E0002170
:101140004140307800F026FB641C28788442EBDBB9
:10115000D5E90401084303D0BDE870400AF0ECBAB9
:1011600070BD0000D82E002030B59FB00C4605465B
:101170007C216846FCF701F8ADF8024003208DF8A9
:101180000000044801954168002901D0684688475D
:101190001FB030BDBC2D00202DE9F041044690F871
:1011A000C602884600EB8001C1EB801004EB4006CC
:1011B0001746304609F05AF9050042D0D4F8CC025F
:1011C00006283ED204EBC0107622A0F8D272D4F8E2
:1011D000CC02314604EBC01000F53570FBF7B2FFCE
:1011E0000026B8F1000F06D0D4F8CC0204EBC010F2
:1011F00080F8D06206E0D4F8CC12022004EBC111D2
:1012000081F8D002D4F8CC0204EBC010C0F84C53E3
:10121000D4F8CC020C4D401CC4F8CC02E9688842DA
:101220000FD12746002407E007EBC41101F5347005
:10123000D1F84C138847641CE8688442F4D3C7F89B
:10124000CC62BDE8F0810000BC2D0020F0B5154651
:101250009FB0002281F8C822074691F8C6020C46CA
:1012600000EB8002C2EB801001EB400009F0FEF8B9
:10127000060009D07C2208496846FBF763FFADF8F9
:10128000025068460197B0471FB029462046BDE886
:10129000F040FFF769BF000090C10200F0B50D46B5
:1012A00089B004464FF4BA61FBF767FF2021684616
:1012B000FBF763FF154E2946B06803F0E1FA0028FA
:1012C00021D1A4F8CA52C4F8CC0284F8C70284F829
:1012D000C60284F8C5020E4801272A46006820602D
:1012E00002208DF80000ADF810702068CDF81200D3
:1012F0000848CDE902046946B06803F0F9FA00280D
:1013000001D184F8C87209B0F0BD0000BC2D0020E6
:10131000943300204D12020010B50021024803F062
:10132000B8F980F3100010BD6C4200204FF48032F9
:101330008A400168C1F848230068C0F80823704754
:101340004FF4A07202EB810189B200F093BA2DE94B
:10135000F04105460E464FF4A07000EB860081B2C6
:1013600028684FF48034B440984622F07F47C0F894
:1013700008432868C0F84843286805F06CFD2868D1
:1013800000EB8600C0F840752868C0F84443B8F107
:10139000000F02D02868C0F80443BDE8F08100685F
:1013A000D0F804057047000070B54379234C44F829
:1013B00023204279231D03EBC202224C1579204AD7
:1013C000121BD4082DB10825022000EB04401EA1F9
:1013D00030E005680A88C5F8082590F90420897866
:1013E000002A4FEA411104DB02F1E02282F80014E6
:1013F00005E002F00F0202F1E02282F8141D90F9DC
:1014000004100122002909DB01F01F0502FA05F58D
:101410004909890001F1E021C1F800514179002515
:1014200003EBC1010A71417943F83100032000EB5D
:1014300004400EA105F028FA284670BD142F0020A4
:10144000600D0300980C030052544320696E7374BE
:10145000616E636520616C726561647920696E6993
:101460007469616C697A65642E0000005254433AD5
:1014700020696E697469616C697A65642E00000088
:1014800090F90400002809DB00F01F0201219140BF
:101490004009800000F1E020C0F8001270470A46C1
:1014A000022100F06DB94FF4827100F0E3B90068D9
:1014B00001210160704700680121416070472DE9FA
:1014C000F05F07460C464FF4A07000EB84001FFA53
:1014D00080FA38684FF48036A6409B4622F07F455C
:1014E000C0F848633868C0F808633868D0F80485E5
:1014F00000EB8402D2F84095C2F840855146386826
:1015000005F0A9FCA9EB080020F07F40012806D1D6
:10151000102005F09BFF5146386805F09CFC3868A8
:10152000D0F80485C0F84463A5EB080121F07F41A1
:101530003868012900EB840010D0C0F840553868A5
:10154000D0F804156FF07F4C6A1A521E22F07F42C9
:10155000ACEB0B03934217D362B118E06D1CC0F8DB
:101560004055102005F072FF3868D0F8040540455A
:101570000AD10CE000EB84006D1CC0F840553868BF
:10158000D0F80405884202D00D20BDE8F09F01226A
:101590003146384600F0F4F80020F6E713460A46D4
:1015A0000021FFF77BBC10B50846114604F0DEF9B8
:1015B000002010BD2DE9F843104D0F4680461E4611
:1015C00091466946286802F0BFFF040014D01C2130
:1015D000FBF7D3FD01202071C4F81490380BC4F838
:1015E0000080C4E902606946286802F0CEFF08F076
:1015F00047FD0020BDE8F8830420FBE740C502005A
:1016000010B503780022072B06D2DFE803F00504AB
:101610000610202930000A7010BD01230B700389C9
:101620008B818388CB81C06888600A7410BD0222D8
:101630000A7002898A818288CA81C2688A60807D34
:10164000062802D00020087410BD0120FBE7032209
:101650000A70C2888A810289CA81C068886010BD08
:1016600004230B70C0888881CA818A6010BD052060
:10167000087010BD70B5064D0646002455F82410BC
:1016800009B130468847641C042CF7D370BD0000B4
:10169000283B002030B50446006887B00D468068BE
:1016A00000281FD018216846FBF767FD0195A06848
:1016B0000590207910B1012810D107E001208DF8A4
:1016C000000020690290E068039005E002208DF898
:1016D0000000E0680003029060690490206881685F
:1016E0006846884707B030BDF0B585B017460C0096
:1016F00005463AD0112C38D0082C36D01C481D494C
:10170000401AC6080D2C11D0204605F035FE0246C1
:10171000012000EB06402B46174905F0C0F82A4689
:101720000721684602F0C4FE02941BE0022000EB91
:1017300006402A46114905F0ABF82A4603216846BF
:1017400002F0B6FE27B13878C00701D0012000E0D2
:1017500002208DF8080000208DF80C0041F20110E5
:10176000ADF80A00684600F0CFF805B0F0BD000003
:10177000000D0300980C0300A0F9020090F802008D
:101780000368C3F84413002A02D00068C0F80413A9
:10179000704700002DE9F84F0E463449804601EBB2
:1017A0005001C007097801D00F0901E001F00F07CF
:1017B0004FF00009424601204946FBF7B0FCDFF834
:1017C000B0A004460D46052F4ED2DFE807F0031601
:1017D0001B282C00002E47D00121404609F090FE26
:1017E0008DF800906846FDF7EBFE5046D0E90412F4
:1017F0000C431543CAE9044532E00EB1022114E05E
:10180000002112E04EB10321404609F079FE404626
:10181000BDE8F84F01210AF0CBB9012105E0002E07
:1018200022D1042101E02EB103214046BDE8F84F4A
:1018300009F066BE0021404609F062FE00214046E4
:101840000AF0B6F98DF800906846FDF7B9FE5046EB
:10185000E243D0E904341A4024EA0501CAE904212C
:101860009DF80000FDF7D0FEBDE8F88F783A002023
:10187000D82E002010B5006842581AB105F0EBFAD6
:10188000012010BD002010BD10B50446408801F0B5
:10189000F3F9A080024801682046BDE810400847DF
:1018A000D42D002010B50446808801F0CDF860806A
:1018B000024801682046BDE810400847E42D00209A
:1018C0002DE9F04107460024064E074D05E000BF14
:1018D00056F8241038468847641CE8788442F7DBC1
:1018E000BDE8F081A8370020102E002010B5044676
:1018F000408801F0C1F9A080024801682046BDE897
:101900001040084728C30200014909680847000041
:10191000B8C3020070B586B0044614216846FBF7D0
:101920002CFCA0890125A0F54040ADF804002078EA
:101930002F4E062833D2DFE800F0320303032C4A8F
:10194000A08900F0EBF930B9E08943F6FE71A0F50B
:101950004040884223D8A07B8DF8080020780328D7
:101960000FD000208DF80900A0680390606850B186
:1019700009208DF8000060680490684606F06AFF50
:101980000DE00120EEE708208DF800008DF81050E2
:10199000F3E7A08900F0C2F908B1E08930B17078AE
:1019A000002801D007F0ACF806B070BD606830B117
:1019B0000B208DF80000606802907570DDE70A204A
:1019C0008DF80000BDF8040007F03EF9F5E7606807
:1019D00048B114208DF80000606802904FF6FF7047
:1019E000ADF80400C9E713208DF80000F6E7000009
:1019F000FC2D002038B504460F480078B0B1A4F59E
:101A00007F40FF380FD0684608F0ACF988B1052157
:101A1000017001210171C480684608F0B1F908F035
:101A200021FB002038BD48F2036038BD48F2016058
:101A300038BD48F2076038BD402F00200D4808B57A
:101A4000007888B1684608F08DF980B106210170F0
:101A5000684608F095F90848017809B10121017339
:101A600008F000FB002008BD48F2016008BD48F204
:101A7000076008BD402F0020EC3B0020F0B587B088
:101A800014216846FBF779FB304C207818B1684682
:101A9000FFF7F0FD57E0201D02F0DDFD98BB40F69A
:101AA000F8700168481C02D14FF0102041694FF0D6
:101AB0008050026940694B1C01D100FB02F12448AF
:101AC00000220161A1F54051C160224904F0B0F942
:101AD000002823D121481C238C221F49006802F0D2
:101AE00020FD06F043FC050016D0022D14D000277F
:101AF0000126062D14D005A808F034F998B1067017
:101B00000C2D1BD200E01EE0DFE805F018101810C5
:101B1000181718171812141248F20A6007B0F0BD0F
:101B200026706760B3E748F20760F7E7077105E0E2
:101B3000032100E00221017100E0067105A808F010
:101B40001FF908F08FFA0020E8E70000402F00207E
:101B5000E02F002050C50200383B0020B8C402002E
:101B600038B5040014D0694608F0A0FBB0B1BDF848
:101B7000000000EB80010B4800EB8100C16851B10F
:101B8000A17A41B1C168491EC1600020A07238BD70
:101B900048F2046038BD48F2056038BD48F209607B
:101BA00038BD0000C43B00201FB501A9684608F0FD
:101BB00035FB04B010BD07B513460A466946002040
:101BC00008F02CFB0EBD07B513460A4600216846F7
:101BD00008F024FB0EBD20B119B100680860002098
:101BE000704748F204607047F8B50D46040018D0FD
:101BF000BDB1694608F05AFBB0B1BDF800000C4910
:101C000000EB800001EB800001210C30666802F0DF
:101C100025FD2E6060680C3068600120A0720020F5
:101C2000F8BD48F20460F8BD48F20960F8BD000054
:101C3000C43B002018B1032300220AF041B948F246
:101C400004607047022300220AF03AB9094910B52E
:101C50000A69042A0AD0084A096942F8210005489D
:101C60000121103002F0FAFC002010BD48F20B6098
:101C700010BD0000202F0020283B00202DE9F84F48
:101C8000044624480078D8B1F4B112212046FBF76D
:101C900074FA0320DFF880902080002504F11008FA
:101CA00004F10E0A05EB850109EB81063089718983
:101CB000084487B2706806F0E3FA032807D009E009
:101CC00048F20160BDE8F88F48F20460FAE7208826
:101CD000401E20806088F1680844608020897189F6
:101CE00008442081608938446081C7F58060A189FB
:101CF00080B2814200D2A0815346A21D211D2846F8
:101D0000CDF8008008F06EFB6D1CADB2022DC9D37A
:101D10000020D7E7402F0020C43B002043F6FE718F
:101D2000A0F54040884201D801207047002070474C
:101D300010B504460078182802D1FEF71FF820706D
:101D400010BD10B504460078182802D1FEF716F829
:101D5000207010BD0AB102F06EBC02F021BC000080
:101D600070B5134600220546112900D10122074C07
:101D700033B12179FEF726F800226178284600E089
:101D80006178BDE87040FEF71DB80000882E002085
:101D9000F7B517460E0011D00098002560B1002459
:101DA0002146684602F03CFC18B1A0B23946B04763
:101DB0006D1C641C142CF3D32846FEBD0020FEBD10
:101DC000406808F07BB8C968002900D00847704710
:101DD000C968002900D00847704700000D480E4B25
:101DE0000A88C01AC0080323A2F5206203EB004052
:101DF000773A09D002F6FD72B2F5604F08D10B793F
:101E00004A8806A104F04BBD8B884A880FA1F9E7E8
:101E100070470000880D0300980C03004461746152
:101E2000206C656E67746820666F7220636F6E6EDB
:101E3000656374696F6E20307825782075706461F1
:101E400074656420746F2025642E0000474154544B
:101E500020415454204D5455206F6E20636F6E6E98
:101E6000656374696F6E2030782578206368616ED1
:101E700067656420746F2025642E000070B50D46E0
:101E800001F11004C98A022901D9092070BD04F0AA
:101E900022FE686030B1E2880023A16804F081FE70
:101EA000002070BD042070BD70B50D4601F1100416
:101EB00089690988102901D9092070BD891C04F09D
:101EC0000AFE686068B100230222A16804F069FE7E
:101ED000A068E16802230288686804F062FE0020BE
:101EE00070BD042070BD000070B510B14FF4064005
:101EF00070BD1C4C0025207B08B1257301E000F06B
:101F0000A5F8207808282AD2DFE800F02904080C78
:101F100010291422BDE8704000F026B8BDE87040DA
:101F200000F082B8BDE8704000F064B8BDE87040D1
:101F300000F040B80620207060880A4900EB80005D
:101F4000283901EB80004068BDE8704006F0EEB92A
:101F5000072020706560BDE8704006F0F5B948F2D2
:101F60000E6070BDEC3B00201149F0B48A1C0020CB
:101F70000346A1F128050C18A67A4EB1A37200EB16
:101F8000800405EB8404E66816B9247C012C0AD091
:101F9000401C80B20228EED30B704B804B60F0BC2B
:101FA00041F61D5070471080F0BC00F03DB80000B5
:101FB000EC3B00200C48418801EB8102A0F1280194
:101FC00001EB8201CA6852B1052101700748022164
:101FD0008180016800230122054803F08DBE0422A0
:101FE00002704968F6E70000EC3B0020482F002013
:101FF000E02F002038B50A49084803240B684268DE
:10200000898803EB810153880470DB1C00201B04CA
:1020100000909B0B034803F0EBFF38BDEC3B002026
:10202000482F0020E02F0020074910B54888091DDF
:1020300008F08CF918B1BDE81040FFF7DBBFBDE830
:102040001040FFF7B7BF0000EC3B002070B5194C03
:102050000121207808281AD2DFE800F00419191CA1
:10206000252929182089134A401C208100206080DE
:102070002073283A00EB800312F8233043B1002389
:102080002518401C80B2AB720228F3D3217070BDBA
:102090000123F5E76068084940888A88C01C10441D
:1020A0008880022004E000F009F8062000E0072004
:1020B000207070BDEC3B0020482F00200A490948E1
:1020C0004988026801EB81030749283901EB830144
:1020D0004B6803604A6082880A8102228280002065
:1020E00008747047482F0020EC3B00202DE9F04396
:1020F000064680883288DFF85C8185B00746502A22
:1021000037D010DC5449554B06F10A05A1EB030109
:102110004FEAD1014FF0020303EB0144352A3AD0D4
:10212000362A07D168E0522A02D0542AF9D102E0B7
:1021300001F0DCF882E0142249496846FBF702F816
:10214000ADF80270384600F097FDADF8040000F0DD
:1021500061FA0022444698F804103846FDF732FE32
:102160000022E1783846FDF72DFE6846FFF78CFB2C
:1021700064E0307B012861D1B07A01285ED13089DA
:10218000A0F52451023959D10121384601F002F954
:1021900009F0F0FC52E098F80610FDF7FBFD00286E
:1021A0004CD0002298F806103846FDF70BFEF28856
:1021B000B2F5857F17D012B120462AA10BE02A88FC
:1021C000012A03D0204636A104F062FB6A88012A66
:1021D00004D0204641A104F05BFB04E0A988002262
:1021E0003846A1DF08B1002125E0012298F8071048
:1021F0003846FDF7E7FD21E04FF0000998F8071099
:10220000FDF7C8FDD0B1002298F807103846FDF759
:10221000D9FDF28812B1204612A104E0AA88012A51
:1022200004D020462DA104F033FB03E0A87900B1CF
:10223000012081464946384609F0C4F90022364952
:1022400098F80200FDF74AFD05B0BDE8F04308F03C
:1022500083BD0000CC2D0020A00C0300980C0300CF
:1022600064C20200556E65787065637465642047CA
:1022700041545420737461747573207768696C6578
:102280002067657474696E672043415220636861FA
:10229000722076616C75653A2030782578000000F0
:1022A0004D756C7469706C65202825642920434144
:1022B00052206368617261637465726973746963E3
:1022C0007320666F756E642C207573696E67207459
:1022D00068652066697273742E000000556E65781B
:1022E0007065637465642043415220636861726164
:1022F0006374657269737469632076616C756520B7
:102300006C656E67746820282564292C2073746FAF
:10231000726520302E00000029F7010070B50446D8
:102320000078002814D1608800F0E0FF6588284616
:1023300000F032FA28B107480122C1782846FDF79B
:1023400041FD6088FEF70EFCBDE8704009F012BC4C
:1023500070BD0000CC2D002070B5204C00252570EC
:10236000FDF70CFD6070FDF709FDA070FDF706FD9F
:10237000E070FDF703FD2071FDF700FD6071FDF7D2
:10238000FDFCA071FDF7FAFCE07162780121182ACA
:1023900018D0A278182A15D0E278182A12D02279FB
:1023A000182A0FD06279182A0CD0A279182A09D0DD
:1023B000182807D004F10C000560BFF35F8F21706F
:1023C000002070BD0648074A801AC00801EB004093
:1023D000054904F059FA032070BD0000CC2D0020FF
:1023E000A00C0300980C0300A0EB02007CB504468F
:1023F0000078082837D1607A58BB207A1C4E4FF6F7
:10240000FF75012811D0072802D008282BD121E020
:10241000A08800F019FB0446A84224D0012100F056
:10242000B9FF2046FEF79EFB1DE0A0886A46012109
:1024300006F032F968B90198007850B1A08800F030
:1024400003FBA8420FD00122F178FDF7BBFC08F096
:1024500083FC08E0F068012805D1BFF35F8F0449D1
:1024600000200C310860BDE87C4009F083BB00000F
:10247000CC2D00202DE9F0410D460600174609D06D
:102480005DB1144C14496068884209D048F202508A
:10249000BDE8F08148F21350FAE748F21450F7E72C
:1024A00013462A463146206803F052F9A0F505414B
:1024B0007139EDD100221146104603F0ABF9002826
:1024C000E6D13B462A4631462068BDE8F04103F09C
:1024D0003FB900009C2E00206572E54B2DE9F047C6
:1024E0000024884607461E461546FF212046DDF893
:1024F00020A005E02A5C0AB1295C03E0401C0834F6
:10250000B042F7D3002049000A0A03D1401C641CE2
:102510000828F8D3BFB3BEB3B8F1000148F2105099
:102520002FD0002D2DD03246284600F075FD60B327
:10253000DFF86C90534632463946D9F8000003F074
:1025400007F900281DD1E1083846FAF716FE6007A2
:1025500008D007EBD40004F007030178FF22DA402B
:102560001140017041463246384600F055FD0028C2
:10257000E0D032463946284600F04EFD0028D9D03A
:102580000020BDE8F08701E003E005E048F21350C9
:10259000F7E748F21450F4E748F21750F1E700006B
:1025A0009C2E002010B50B48FEF7F9FE094A083AA8
:1025B000D2E90434C018D2E9063244F10001C31A4A
:1025C00071EB020204D24FF08072801841F10001D9
:1025D00010BD0000F82E002010B5C0B2FEF7AAFA18
:1025E0000446007804F0EEFF01466078012801D02F
:1025F000012000E0002090EA010F08D00449D1E951
:102600000401084303D1BDE8104009F095B810BD9E
:10261000D82E00201CB5054AD2E90212CDE90012DD
:102620000022694606F0FEF91CBD00007CC20200D3
:1026300003484FF6FF71818001210170002070472F
:10264000DC2D00202DE9FC41804600F015FB002424
:1026500003250127A0F57F412646FF3908D06A46A9
:10266000082106F019F818B90198841D86880568B4
:1026700032462B4621464046B1DF042804D00828C4
:1026800004D00B2808D002E0112000E00020002F29
:1026900000D10B20BDE8FC810027A80701D501254A
:1026A000E6E7344303D0002426460325E0E7064846
:1026B00006494246401AC008012101EB0040044986
:1026C00004F0E6F8E5E70000A80C0300980C03000E
:1026D00068EE02002DE9FC41804600F0CDFAA0F53D
:1026E0007F410646FF390ED001252A466D1C002782
:1026F000ADB26B460821304606F018F8040006D04B
:10270000072C33D033E043F20200BDE8FC8101998D
:1027100003230A1D0B604046891DB2DF040004D06C
:102720000C2C09D0052C09D009E0324608211046AE
:1027300006F074F804461AE0012700E0002408219E
:10274000304606F061F870B104F016FE0346094801
:1027500009493246401AC008012101EB00400749EF
:1027600004F09DF80324002FBFD100E00C24204684
:10277000CBE70000A80C0300980C0300E8ED020072
:1027800004488088A0F57F41FF3901D008F0EEBAF7
:1027900070470000DC2D00200EB502A9019100F069
:1027A0006BFA6A46012105F077FF08B100200EBDE3
:1027B000019800780EBD00002DE9F04107464FF664
:1027C000FF761048B3DF78B104F0D6FD02460E481C
:1027D0000E49401AC008012101EB00400C4904F0E9
:1027E00057F80320BDE8F081064C43F20305A41E10
:1027F000324661883846AFDFA842F3D16088401C7A
:102800006080F5E7DE2D0020A80C0300980C030083
:102810009CED0200428800EB82020C328A4201D910
:10282000022070478188A1F57F42FF3A06D00188D7
:1028300021B18068401C01D0002070470120704702
:10284000884204D20068401C01D00120704700205B
:102850007047000070B5054608780C46012812D074
:10286000022834D11A481B49A288401AC008032103
:1028700001EB004018A104F00BF8A279002A26D041
:10288000002108461FE06188221D2846FDF7D4FC80
:1028900008B1FCF72BFE6088002106F053FB1128DD
:1028A00002D008B1FCF722FE2846FDF7D1FC002833
:1028B0000DD0BDE87040FCF719BE00BF04EB40032B
:1028C000401C1B8919448242F8D8B1FBF2F070BD5C
:1028D000880D0300980C03004865617274205261F2
:1028E0007465203D2025642E000000003EB502786E
:1028F00002230C46B3EB520F17D1B0F80110ADF81C
:102900000010C1788DF802108188ADF8041080792C
:102910008DF8060002AA01A92046FCF721FD03223A
:1029200002A96846FAF749FC08B100203EBD012023
:102930003EBD000070B50D460446142810D2FDF7C8
:102940005DFA68B1084904EB840001EB4000D0F85F
:1029500002102960C188A980007AA871002070BD8A
:1029600043F2020070BD0000AC33002070B5018856
:1029700090B0102961D1011D2C226846FAF7E2FBC4
:102980009DF804004FF6FF7603213446B1EB500F5B
:102990002BD006F005F89DF804006D4640080ED0D7
:1029A00001280CD0022820D118E00D99281D1131E2
:1029B000FCF796FC18B100BFBDF82C4015E00CAA3E
:1029C0000BA9072005F0C0FF0028EED10DE00D99FE
:1029D000281D491CFFF78AFF0028EDD10CAA0BA97E
:1029E000072005F0B1FF0028F1D1BDF80000B44286
:1029F00000EB8001124820F8114000EB41000199E2
:102A0000C0F80210BDF80810C1809DF80A100172CC
:102A100013D0BDF80000ADF82E000020ADF8304016
:102A2000084E8DF82C000BAD044600BF56F824105C
:102A300028468847641C022CF8D310B070BD0000F3
:102A4000AC33002090C202002DE9F0414FF6FF7632
:102A50000546B04213D00B4F002400BF04EB8400A6
:102A600037F81000A84206D12046FDF7C7F910B18B
:102A70002046BDE8F081641CA4B2142CEED330468D
:102A8000F7E70000AC3300202DE9F043CFB00E464D
:102A90000746082903D907204FB0BDE8F08317B3D4
:102AA0000EB350204D90E846CDF830D1B82114A88F
:102AB000FAF763FB002043AA0DF15001C0EBC003FD
:102AC00003EB00130B4442F82030401C0828F5D3D8
:102AD0002448254A0024801AC0080222C14602EB7D
:102AE0000045884636E000221146104670DFD3E7E5
:102AF00050216846FAF741FB37F814004DAB4BAA5A
:102B0000072105F055FF052810D007280ED09DF8A5
:102B10001100400812D0012810D037F814202846A0
:102B2000124903F0B5FE43F20220B5E737F814204E
:102B300028460F4903F0ACFE0520ADE7C4EBC40006
:102B400000EB041101EB0800172209F10101FAF76B
:102B5000F9FA641CB442CBD3F2B2002143A870DF6F
:102B60009AE70000B00C0300980C0300E0EE0200AE
:102B700068EF02003EB50C46054605F011FF0BE07C
:102B8000BDF80000A04207D02846029900F00EF8D8
:102B900010B1BDF800003EBD01AA6946072005F04E
:102BA000D3FE0028ECD14FF6FF703EBD2DE9F04179
:102BB0000C46054600F1110701F111061022491CCF
:102BC000401CFAF7FAFA48B9681C00F01BFA28B161
:102BD000601C00F017FA08B1012400E0002431461F
:102BE0003846FCF77DFB3B780222B2EB530F0CD04A
:102BF0000321B1EB530F08D03378B2EB530F04D05D
:102C0000B1EB530F01D0012100E00021084201D1B6
:102C10008C4302D00120BDE8F0810020FBE7018851
:102C200011B9421892780AB101207047491C08294D
:102C3000F7D3002070470000142804D2024A00EBAA
:102C4000800022F810107047AC33002070B50546A4
:102C5000FFF7FAFE0446284605F022FD002808D1B9
:102C6000142C06D2034B04EB84024FF6FF7123F8B9
:102C7000121070BDAC33002010B50446142808D2E1
:102C8000FDF7BCF828B1044904EB840031F81000CA
:102C900010BD4FF6FF7010BDAC3300207CB514465C
:102CA0000A000A49097802D015688D4203D323B17E
:102CB0001D688D4201D204207CBDCDE9004313463E
:102CC0000246034806F03CF87CBD0000E82D0020D9
:102CD0007434002070B50C4606469AB0102118488E
:102CE000FAF74BFA174800252EB324B3047062009C
:102CF00031461348FAF726FA382102A81895FAF750
:102D00003CFA009518AB02AA21463046019506F020
:102D100017F800280DD110AA0DF10801C0EBC0036F
:102D20000B4442F82030401C0828F7D3E1B210468B
:102D30006FDF1AB070BD0570002108466FDFF8E73D
:102D400074340020E82D002010B50A4941600A487B
:102D500001F081FC58B904F065FA07491C238C2264
:102D6000087404488C39001F006801F0DAFB002069
:102D700010BD000044C50200983C00202DE9F04140
:102D80002D4F002520B17D604FF40640BDE8F08155
:102D90000879012258B1294E01280CD0264C4FF059
:102DA00002080834022820D0032841D127E00A7104
:102DB00005F0CAFA3AE0002000EB800116F8211075
:102DC000022908D0401C80B20228F5D33A707D60F9
:102DD00041F61D50DAE700EB800006F8205006EBC4
:102DE0008000406805F0A2FA20E00D71A4F804808C
:102DF000002301221248216802F07EFF16E00D71C7
:102E0000206805F093FA0D4923682831498801EBC1
:102E1000810206EB8201D1F804C0C4F800C04B6007
:102E2000A3880B81A4F8048006F822500028ADD0B6
:102E30007D6048F20D60A9E7402F0020C43B0020D0
:102E4000E02F00202DE9FC5F0E008346DDE90C47F2
:102E5000C6F1000098469246814600D408460125F6
:102E600003E000BF90FBFAF06D1C5045FADAA8456C
:102E700000D9454624B1002E01DB780700D5641E39
:102E8000B80702D5B8F1000F0AD0F80708D13CB155
:102E9000A54205D220215846641EFDF727FEF6E71D
:102EA000002E02DA4E462D2102E0780703D52B21B1
:102EB0005846FDF71BFE07F0030002280BD1B8F1BE
:102EC000000F08D13CB1A54205D230215846641EFE
:102ED000FDF70CFEF6E7CDE9004743465246314682
:102EE000584608F0EDFDBDE8FC9F000070B50D46AA
:102EF000044600684FF4887104F05EFA4FF4907154
:102F0000206804F059FA4FF49271206804F054FAE2
:102F10004FF4A271206804F04FFA4FF4AC712068AE
:102F200004F04AFA20681249C0F8041320686907BF
:102F300040F30730090E002804DB00F1E02080F8A0
:102F4000001405E000F00F0000F1E02080F8141DEF
:102F5000206840F30730002809DB00F01F02012140
:102F600091404009800000F1E020C0F8001170BDE0
:102F700010034200024600201268530713D502F0E6
:102F80000300012802D002280CD105E0C2F383100F
:102F90000B68801C184404E00223086803EB92527B
:102FA00010440860012070470248007A002800D0D1
:102FB00001207047983C002010B509892AB1D088BB
:102FC000491C814218D1002010BD90F8C62202EBA6
:102FD0008204C4EB821200EB420212899142F2D0C9
:102FE000491C198090F8C61201EB8102C2EB8111D5
:102FF00000EB4100008902E01980D088401E588013
:10300000012010BD0021425C0AB101207047491C1B
:103010001029F8D30020704730B500230AE0C45CC3
:10302000CD5CAC4205D02006B0EB056F04D8002083
:1030300030BD5B1C9342F2D3012030BD90F84000BC
:10304000C0F3C100012803D0032801D0002070473D
:1030500001207047800701D0002070470120704791
:103060000A4810B5807860B1002401E0022C06D037
:103070002046FDF78BFA641C042CF7D310BD032403
:10308000F6E7BDE81040FDF7A5BA0000A42D00202A
:1030900003480179C90702D00078FDF7F5BB7047F6
:1030A000A42D0020F721018017214180002101710A
:1030B000417170472DE9FE4F2E4F984692460D0004
:1030C000814601D000260DE0684601F0E7F96A4626
:1030D0000021484605F03CFA3878009E10B99DF86A
:1030E000090098B152463146484608F03DF9044679
:1030F000014600224846FEF733FE0D2C37D008DC8F
:10310000A4B3082C33D00B2C09D130E00520BDE846
:10311000FE8F112C1ED0A4F54050023827D0204637
:1031200004F02AF90246144814494B46401AC008D4
:10313000012101EB0040124903F0B1FB5FF00305F0
:10314000B8F1000F04D0324621464846FEF7CCFACB
:103150002846DCE72A46F9784846FCF733FE524613
:10316000B9784846FCF72EFE0025E9E7FFE725463B
:10317000E6E70000882E0020000D0300980C0300F5
:1031800048F902007FDF042800D1112070470000B9
:1031900070B50D001446064617D01648C178304663
:1031A000FCF710FE3046FFF767FD0146A0F57F40B3
:1031B000FF3800D074B129463046FFF7E3FF0446DC
:1031C0002878C0070BD001220AE0BDE8704000213A
:1031D000FFF7D8BF304600F00FF8044605E00222A2
:1031E0002CB10021304607F00BFD204670BD0121B7
:1031F000F8E70000802E00207CB50E4605466A46A2
:103200000721304605F048FA040013D0052C1DD0E4
:10321000112C2BD004F0B0F8024619481949334656
:10322000401AC008012101EB0040174903F037FBA9
:1032300003241BE0019C94F84400183410F00100B2
:1032400001D0019C34340CB110B106E011240DE022
:1032500004F11200FFF7E3FC38B1224604F1120139
:10326000284686DF040008D000E00B24002100225D
:10327000284607F0C5FC20467CBD0121F7E7000089
:10328000F80C0300980C0300D8F7020070B5144640
:103290000D46064607F0E4FC00280FD0304605F046
:1032A000FDF8002822462946304603D0BDE870408C
:1032B00005F0FAB8BDE87040FEF770B970BD0000C7
:1032C00070B5094D0646A978FCF764FD0446E97817
:1032D0003046FCF75FFD014622463046BDE87040AF
:1032E0000123FFF7E7BE0000882E0020F0B585B06F
:1032F0000546002714216846F9F73FFFA5F57F40F2
:10330000ADF80250FF3825D02846FFF79BF904009E
:1033100022D01B481B49401AC6080B2C22D0112C66
:103320001ED0A4F5405002380ED0204604F024F8F8
:103330000246012000EB06402B46134903F0AFFA8A
:103340002146284607F0C0FC10483A4681782846B6
:10335000FCF738FD05B0F0BD0E208DF800000BE045
:103360000127F1E70F208DF80000022000EB064056
:103370002A46074903F08CFA6846FEF785FAE3E728
:10338000A00C0300980C030070EC0200CC2D002070
:10339000C4EC02000A4602494978FCF713BD00005C
:1033A000CC2D00202DE9F041002786B080463E4616
:1033B000FFF790F9040022D0112C22D01B481C49A1
:1033C000401AC508862C1ED0A4F5405002380ED0F5
:1033D000204603F0D1FF0246012000EB05404346A2
:1033E00014A103F05CFA2146404607F06DFC394613
:1033F0004046FFF7CFFF06B03046BDE8F08101261A
:10340000F5E70127F3E714221A496846F9F79AFE0F
:103410000220ADF8028000EB0540424616A103F001
:1034200037FA6846FEF730FAE1E70000A00C030027
:10343000980C03006773636D5F6C6F63616C5F640E
:10344000625F63616368655F757064617465282994
:103450002072657475726E656420257320666F72C4
:1034600020636F6E6E5F68616E646C653A202564E0
:10347000000000003CC20200466C61736820667563
:103480006C6C2E20436F756C64206E6F74207374A7
:103490006F7265206461746120666F7220636F6E65
:1034A0006E5F68616E646C653A2025640000000000
:1034B0002DE9FF410026244801F0CAF82248001FE8
:1034C000074601F0C5F8214C2149A06800900D681D
:1034D00000E000986946284004EB80000C30FFF7BC
:1034E00049FD0028F5D101AA009901EA050304EB82
:1034F0008303491CDB6842F82030401C00910228FD
:10350000F2D3019800F0030001280BD0022810D15B
:103510000198032101EB90500099BDF80A6001EB7E
:10352000900005E00198BDF80A60C0F383100844DC
:103530000090384601F089F808B10098A06004B006
:103540003046BDE8F081000068420020503E002077
:10355000802F00201FB54FF48041002003F020FA97
:1035600008B1FBF7C3FF03F065F8FBF7DDFF08B117
:10357000FBF7BCFF03F01EFB08B1FBF7B7FF3949AF
:103580000320FDF737F908B1FBF7B0FF01A90020D0
:10359000FDF744F808B1FBF7A9FF9DF804000228E5
:1035A0005ED000208DF8000003F0F0FD08B1FBF7BD
:1035B0009DFF0020019001A9012003F05DFC08B1EE
:1035C000FBF794FF01A803F0EFFC08B1FBF78EFFB7
:1035D0002549264801F0C8F808B1FBF787FF05F038
:1035E00079FB244C2248CDE9010401A8FCF730FC0A
:1035F00008B1FBF77BFF214D1F480394CDE901057E
:103600001A4801A92838FCF74BFE08B1FBF76EFFFA
:103610001B480394CDE90105144801A91438FCF7AF
:10362000A4FA08B1FBF762FF07F00AF9154816493A
:10363000401AC008032101EB004014A103F024F953
:10364000684607F07DF900BF01F032FB08B1FBF7D7
:103650004DFF02F0FDFF0028FBD103F0BFFAF3E7B6
:1036600001209FE711070200DD1D02001432002037
:103670008D0F0200AC2700205528020069AF020020
:10368000BDF80100880D0300980C030048656172C5
:1036900074205261746520636F6C6C6563746F7223
:1036A000206578616D706C652073746172746564F7
:1036B0002E00000030B4144601291A46214602D0DB
:1036C00030BC00F0D1B930BC00F028BC002803D0D9
:1036D0004FF48C7100F07CBE70474FF48C71F9F799
:1036E0004CBD0000F0B5802A07D0C02A07D0B2F543
:1036F000807F0BD06FF01F00F0BD0A2300E00C2389
:10370000036000F10803002443600AE00E23F7E79A
:1037100001EB8405EE782D6866F31F6543F82450AD
:10372000641CB4EB521FF3D3544A0168A2F508504D
:103730000A2904D00C292BD00E2928D156E00024C8
:1037400053F80C5B52F824104D4002CBC1F307260E
:10375000C1F30747865DC75D86EA0726754000EB23
:103760001166367885EA064550FA81F63678641C8B
:1037700085EA06651D6053F80C6C6E405E6053F878
:10378000085C75406940C3E902510A2CD8D373E044
:103790005FF000041D6852F824104D405969C1F3D0
:1037A0000726C1F30747865DC75D86EA0726754091
:1037B00000EB1166367885EA064550FA81F63678D0
:1037C000641C85EA06659D615E686E40DE619D68E9
:1037D00075401D62DE686E405E621D69754069401D
:1037E000C3E90A511833082CD4D345E05FF0000533
:1037F0001C6852F825104C40D969C1F30726C1F363
:103800000747865DC75D86EA0726744000EB1166B0
:10381000367884EA064450FA81F6367884EA0666F9
:103820001E625C6874405C629E6866409E62DC68F2
:103830007440DC6250FA84F73F781E69C4F3074C89
:103840007E40C4F3072710F80CC0C75D00EB14647A
:103850003F0287EA0C4724787E4086EA04641C63B2
:103860005E696D1C66405E639C6974406140C3E99B
:103870000E412033072DBBD30020F0BDACE9020080
:1038800010B504000AD004F12000FFF71FFF204606
:10389000BDE810404FF4A07100F09ABD10BD4FF488
:1038A000A071F9F76ABC08B50023009300F001F895
:1038B00008BD2DE9F0418CB09846129F154604468C
:1038C0000E46B2F5806F04D96FF035000CB0BDE83C
:1038D000F081B7F5807F02D96FF03700F6E720213D
:1038E0006846F9F74AFCE1692069884201DC6069B1
:1038F00038B13A464146204600F04AF80028E5D162
:103900002FE077B33A4641466846FCF73BFD070097
:1039100034D169462046FDF7F8FA07002ED120E0A1
:103920001020211811F8012D521C12F0FF020A700C
:1039300002D1401E0028F4DC08AB2246012140469B
:10394000FFF7B8FE070019D1102D01D9102700E0AC
:103950002F463A4608A93046F9F7F4FB3E44ED1BE2
:1039600001E004F12008002DDAD169462046FDF778
:10397000CCFA070002D12069401C20612021684652
:1039800000F026FD102108A800F022FD38469DE732
:103990002DE9F041044685694FF4C070E0B0164649
:1039A0000F46854203D8C5F5C071B14204D26FF00D
:1039B000370060B0BDE8F081804601466846F9F7FF
:1039C000DCFBD4E94E302A466946984710B16FF0C7
:1039D0003300EEE7A5693FB136B10DEB0500324685
:1039E0003946F9F7AFFB354469462A460846FCF7E5
:1039F000C9FC050007D169462046FDF786FA050097
:103A000001D1012020614146684600F0E1FC2846D2
:103A1000CFE72DE9FF4704460020DDF83080009015
:103A200001900290039004F120001F4616460D46B7
:103A30008146FFF752FEC4E94E56A06908B920201E
:103A4000A0614FF6F070E061802269464846FFF7BA
:103A500049FE002804D1424639462046FFF798FF28
:103A600004B0BDE8F0870000F0B589B0436800936A
:103A7000CC780B6864F31F63009C019324685C405E
:103A8000009B01941B1D0093CC794B6864F31F636A
:103A9000009C029324685C40009B02941B1D0093D1
:103AA000CC7A8B6864F31F63009C039324685C40AA
:103AB000009B03941B1D0093CB7BC96863F31F61BC
:103AC000009B04911B684B4000990493091D0091D1
:103AD00000684FF0FF3101EB6005FE4800F58061A2
:103AE00000F5006400F5406EE7E01E68019B039F4F
:103AF000DBB2C7F3074750F8233054F827705E4015
:103B0000049BDDF810C0C3F30723CCF3074C51F836
:103B100023307B405E40029B1F0E73465EF8277089
:103B20007E400596009E029F361D0096FFB23668C5
:103B300050F8277054F82CC07E40019FC7F3072728
:103B400051F8277087EA0C077E40039F3F0E53F819
:103B500027707E400696009E039F361D0096FFB29A
:103B6000366850F82770DDF804C07E40029FCCF321
:103B7000074CC7F3072754F82CC051F8277087EA81
:103B80000C077E40049F3F0E53F827707E40079637
:103B9000009E049F361D0096FFB2366850F82770CD
:103BA000DDF808C07E40039FCCF3074CC7F307271E
:103BB00054F82CC051F8277087EA0C077E40019F0B
:103BC000DDF81CC03F0ECCF3074C53F827707E4045
:103BD0000896009E361D0096059F3668FFB254F881
:103BE0002CC050F827707E40089FC7F3072751F874
:103BF000277087EA0C077E40069FDDF820C03F0E45
:103C0000CCF3074C53F827707E400196009E069F28
:103C1000361D0096FFB2366850F8277054F82CC055
:103C20007E40059FC7F3072751F8277087EA0C07E6
:103C30007E40079F3F0E53F827707E400296009EFD
:103C4000079F361D0096FFB2366850F82770DDF8E2
:103C500014C07E40069FCCF3074CC7F3072754F8E7
:103C60002CC051F8277087EA0C077E40089F3F0E52
:103C700053F827707E400396009E089F361D0096DD
:103C80003668FFB2DDF818C050F82770CCF3074C47
:103C90007E40079F54F82CC0C7F3072751F82770C0
:103CA00087EA0C077E40059F3F0E5EF827305E4096
:103CB000009B04961B1D6D1E0093009B002D3FF77B
:103CC00014AF019D1B68EDB2039E50F82550C6F35A
:103CD00007466B40049D54F82660C5F3072551F84C
:103CE000255075406B40029D049E2D0EC6F307467D
:103CF0005EF825506B400593009B029D1B1D0093B1
:103D0000EDB21B6850F8255054F826606B40019DB9
:103D1000C5F3072551F8255075406B40039D2D0EC6
:103D20005EF825506B400693009B039D1B1D00937E
:103D3000EDB21B6850F82550019E6B40029DC6F302
:103D40000746C5F3072554F8266051F825507540FD
:103D50006B40049D2D0E5EF825506B400793009B31
:103D6000049D1B1D0093EDB21B6850F825004340D5
:103D70000398C0F3072051F820000299C1F30741CE
:103D800054F82110484043400198000E5EF820008E
:103D9000434000980893001D009001684E48059B21
:103DA00050FA83F31B78079C5940089BC4F30744DF
:103DB000C3F30723045DC35C1B0283EA0443594039
:103DC000069B00EB13631B7881EA03610191009964
:103DD000069B091D0091096850FA83F31B78089C23
:103DE0005940059BC4F30744C3F30723045DC35C38
:103DF0001B0283EA04435940079B00EB13631B78C3
:103E000081EA036102910099079B091D00910968ED
:103E100050FA83F31B78059C5940069BC4F3074472
:103E2000C3F30723045DC35C1B0283EA04435940C8
:103E3000089B00EB13631B7881EA036103910099EF
:103E4000089B091D0091096850FA83F31B78069CB2
:103E50005940079BC4F30744C3F30723045DC35CC5
:103E60001B0283EA04435940059B00EB1360007872
:103E700081EA006004900098001D00900198107085
:103E80000198000A50700198000C90700198000E83
:103E9000D07002981071010A5171010C9171000EDD
:103EA000D07103981072010A5172010C9172000EC8
:103EB000D07204981073010A5173010C9173000EB3
:103EC000D073042101A800F083FA042102A800F0B5
:103ED0007FFA03E0ACD90200ACD80200042103A8A9
:103EE00000F076FA042104A800F072FA042105A873
:103EF00000F06EFA042106A800F06AFA042107A86F
:103F000000F066FA042108A800F062FA042168466D
:103F100000F05EFA09B00020F0BD0000F0B589B0F5
:103F200043680093CC780B6864F31F63009C019393
:103F300024685C40009B01941B1D0093CC794B6866
:103F400064F31F63009C029324685C40009B02940E
:103F50001B1D0093CC7A8B6864F31F63009C039352
:103F600024685C40009B03941B1D0093CB7BC968B5
:103F700063F31F61009B04911B684B4000990493FD
:103F8000091D009100684FF0FF3101EB6005FE480C
:103F900000F5806100F5006400F5406EE7E01E6802
:103FA000019B039FDBB2C7F3074750F8233054F857
:103FB00027705E40029BDDF810C0C3F30723CCF3EB
:103FC000074C51F823307B405E40049B1F0E734624
:103FD0005EF827707E400596009E029F361D009673
:103FE000FFB2366850F8277054F82CC07E40039F0B
:103FF000C7F3072751F8277087EA0C077E40019F17
:104000003F0E53F827707E400696009E039F361D94
:104010000096FFB2366850F82770DDF804C07E4085
:10402000049FCCF3074CC7F3072754F82CC051F872
:10403000277087EA0C077E40029F3F0E53F82770D7
:104040007E400796009E049F361D0096FFB236689C
:1040500050F82770DDF808C07E40019FCCF3074C74
:10406000C7F3072754F82CC051F8277087EA0C07CC
:104070007E40039FDDF81CC03F0ECCF3074C53F885
:1040800027707E400896009E361D0096059F366874
:10409000FFB254F82CC050F827707E40069FC7F33B
:1040A000072751F8277087EA0C077E40089FDDF844
:1040B00020C03F0ECCF3074C53F827707E4001968A
:1040C000009E069F361D0096FFB2366850F8277096
:1040D00054F82CC07E40079FC7F3072751F827707C
:1040E00087EA0C077E40059F3F0E53F827707E40FD
:1040F0000296009E079F361D0096FFB2366850F864
:104100002770DDF814C07E40089FCCF3074CC7F33E
:10411000072754F82CC051F8277087EA0C077E4017
:10412000069F3F0E53F827707E400396009E089F1F
:10413000361D00963668FFB2DDF818C050F82770BB
:10414000CCF3074C7E40059F54F82CC0C7F30727DB
:1041500051F8277087EA0C077E40079F3F0E5EF8F4
:1041600027305E40009B04961B1D6D1E0093009B34
:10417000002D3FF714AF019D1B68EDB2039E50F870
:104180002550C6F307466B40029D54F82660C5F3E0
:10419000072551F8255075406B40049D049E2D0E57
:1041A000C6F307465EF825506B400593009B029DC1
:1041B0001B1D0093EDB21B6850F8255054F8266083
:1041C0006B40039DC5F3072551F8255075406B40A2
:1041D000019D2D0E5EF825506B400693009B039DBC
:1041E0001B1D0093EDB21B6850F82550019E6B40DB
:1041F000049DC6F30746C5F3072554F8266051F819
:10420000255075406B40029D2D0E5EF825506B4089
:104210000793009B049D1B1D0093EDB21B6850F893
:10422000250043400198C0F3072051F8200002996F
:10423000C1F3074154F82110484043400398000E51
:104240005EF82000434000980893001D009001682C
:104250004E48059B50FA83F31B78079C5940069BF8
:10426000C4F30744C3F30723045DC35C1B0283EA62
:1042700004435940089B00EB13631B7881EA0361F8
:1042800001910099069B091D0091096850FA83F37A
:104290001B78089C5940079BC4F30744C3F30723CA
:1042A000045DC35C1B0283EA04435940059B00EB99
:1042B00013631B7881EA036102910099079B091D32
:1042C0000091096850FA83F31B78059C5940089BBC
:1042D000C4F30744C3F30723045DC35C1B0283EAF2
:1042E00004435940069B00EB13631B7881EA03618A
:1042F00003910099089B091D0091096850FA83F306
:104300001B78069C5940059BC4F30744C3F307235D
:10431000045DC35C1B0283EA04435940079B00EB26
:104320001360007881EA006004900098001D0090FE
:10433000019810700198000A50700198000C90705C
:104340000198000ED07002981071010A5171010C91
:104350009171000ED07103981072010A5172010C14
:104360009172000ED07204981073010A5173010CFF
:104370009173000ED073042101A800F029F80421E4
:1043800002A800F025F803E0ACC80200ACC70200A8
:10439000042103A800F01CF8042104A800F018F878
:1043A000042105A800F014F8042106A800F010F874
:1043B000042107A800F00CF8042108A800F008F870
:1043C0000421684600F004F809B00020F0BD0000A8
:1043D000002904D0024B0A4600211B681847704789
:1043E000D82F00202DE9F047C5881E1DB6FBF5F734
:1043F0008946B6FBF5F1044605FB176C4079166853
:104400006843DDF820A0F718001F874200D9C61ABC
:10441000166001E02468491E0029FBD1A5EB0C07BA
:104420008846B74216D818E004EB0C00001D09EBD3
:104430000803BAF1000F3A4602D00146184600E0E0
:104440001946F8F77FFE2468F61B4FF0000CB844BD
:10445000B54201D9374600E02F46002EE4D1BDE831
:10446000F087000030B5024651B102F0ADFA0021EC
:10447000074C08E034F821301568AB4202D11160D6
:10448000002030BD491C8142F4D3052030BD00001E
:1044900000000000BFF35F8F00F0C2B8034A0021A4
:1044A0009268C0E90021816070470000882E0020DA
:1044B00070B586B00D460646144614216846F8F7D6
:1044C0005CFE8DF80050ADF802402046FEF7D4FBAC
:1044D000ADF80400142269463046F8F733FE06B002
:1044E00070BD70B54FF6FF750E46A84201D1002091
:1044F00000E0401C84B208E02146304600F090F80D
:1045000008B1204670BD641CA4B2FF2CF4D9284623
:1045100070BD10B5F7F7C9FE08B1002010BD11201D
:1045200010BD10B531B1B2FBF3F403FB14241CB180
:10453000092010BD0E2010BD016000214160816086
:104540008281C381084610BD70B50C460546F7F759
:1045500061FE002802D021882868084470BD10B58B
:104560000A8849888A4203D1F7F796FE012010BDD8
:10457000002010BD70B50C460546F7F770FE002808
:1045800002D061882868084470BD10B50A8849883F
:104590008A4203D1F7F75AFE012010BD002010BD5A
:1045A00001F01F0301229A40D243490900EB810028
:1045B000114600F059B80A4601F01F030121994045
:1045C00010B552090C4600EB820000F05DF8204067
:1045D00000D0012010BD2DE9F04180460D46002499
:1045E000481E012101EB501716E058F82400C04383
:1045F00090FAA0F0B0FA80F020280CD200EB44161C
:10460000AE4208D231464046FFF7D5FF0028ECD134
:104610003046BDE8F081641CA742E6D82846F8E79A
:104620004A0950F8220001F01F0201219140084080
:1046300000D00120704701F01F0301229A40490970
:1046400000EB8100114600F029B8002100F017B8F6
:10465000012100F023B8012100F016B808B56A4620
:10466000F7F76FFE009808BD08B56A46F7F74FFEEA
:10467000009808BD08B56A46F7F763FE08BD08B59F
:104680006A46F7F744FE08BD08B56A46F7F732FEFA
:1046900008BD08B56A46F7F721FE08BD08B56A46A9
:1046A000F7F728FE009808BD08B56A46F7F756FEEA
:1046B000009808BD38B5044600258DF800506846BE
:1046C000FAF77EFF21686268086890420ED9401EA2
:1046D00008600178238AE26801FB0325227A2168B9
:1046E000101AC0B20A79824200D208719DF8000007
:1046F000FAF78AFF284638BD38B5054600208DF800
:1047000000000C466846FAF75BFFE868298A201A21
:10471000B0FBF1F12A681068431C136001709DF82A
:104720000000FAF771FF38BD10B530B1017A426868
:104730000368891AC9B21A6006E00E2010BD03682A
:104740001A68541C1C601170491EC9B2F7D2006867
:1047500000210171084610BDC20800F007030120C6
:10476000895C98400840704710B560B10161F7213D
:1047700020F8021B20F8021BFB2100F8021BFEF7A9
:1047800091FC002010BD0E2010BD00007CB5858876
:104790000C46002D33D101880026102906D011299E
:1047A00009D03A290BD055292ED129E001462046BF
:1047B00003F0F6FA28E0A01DFEF774FC24E0224680
:1047C000408934F8061F814200D8084660801728C7
:1047D00000D217206080106978B1607968B11849FB
:1047E000D1E90001CDE90001ADF802506088ADF8D3
:1047F00004001369694610469847667126717CBDAE
:104800000146204603F0FEFBA07A0028F7D0E1889D
:104810002846A5DF012580B11128F0D002F0ACFDBB
:1048200002460848084902B0401AC00805EB00409B
:10483000BDE8704005A102F02BB8A672E5727CBD00
:1048400098C20200B80C0300980C030073645F6206
:104850006C655F67617474635F65786368616E67D8
:10486000655F6D74755F7265717565737428292055
:1048700072657475726E65642025732E00000000E9
:104880002DE9F0410F4604004FF000050DD005F072
:1048900015FC39462046FCF7D3FA218881421ED107
:1048A000002005464FF6FF7609E00E20BDE8F081B6
:1048B000626832F81020B24206D1401C80B28142B8
:1048C000F6D8206902F054F9002021880BE06268D4
:1048D00032F81020B24204D1616821F810702846E5
:1048E000E4E7401C80B28142F1D80420DEE70000FA
:1048F0002DE9F04791460D4604004FF0000742D0E5
:10490000EDB305F0DBFB49462046FCF799FA297820
:10491000062902D22188814202D10720BDE8F08712
:10492000A16800EB800601EB860002F0DEF930B1F1
:104930004946284605F0E2FD08B13846EEE72978F9
:10494000DFF8488058F821202AB12069B8B12946FB
:1049500090470028E2D1A068294600EB860002F0CB
:10496000E3F9070006D0297858F8210010B16868EB
:1049700002F0E1F8A068494600EB860000E002E0A2
:1049800005F010FAD9E70E20C8E70000A8C202001F
:10499000F8B505000C4620D0002C1ED02888112820
:1049A00006D0A0F130011F2902D950381F2814D891
:1049B000AE8820463146FCF743FAADF80000218866
:1049C00081420AD02988112908D0A16800EB800013
:1049D00001EB8000314605F0E5F9F8BD62684FF65D
:1049E000FF7122F810106946E06802F09DF9F8BDE9
:1049F00010B54C210D48F8F7C0FB00F01DFE040077
:104A00000CD00B480B492246401AC008012101EB8B
:104A1000004009A101F03CFF204610BD10490020D4
:104A200008704870BDE8104000F01CB874350020D4
:104A3000C80C0300980C03006E72665F6372797095
:104A4000746F5F696E697428292072657475726E5F
:104A50006564206572726F7220307825782E0000B0
:104A6000EC2D0020F8B522494020009091F8491023
:104A7000002009B11120F8BD1E4E1D4B1E4970705B
:104A8000B070483BA3F1480206F1080000F0FAFCC0
:104A900005001A481A494FF00107A0EB01004FEA40
:104AA000D00007EB004403D020462A4615A10BE0B6
:104AB0000F496A46F03901F1A80000F04BFD0500EE
:104AC00005D020462A461DA101F0E2FE0DE0084A6D
:104AD0004023F03A1146084800F0AAFC050003D034
:104AE00020462A4623A1EFE777702846F8BD00004C
:104AF00074350020EC2D002034C40200C80C0300E3
:104B0000980C03006E72665F63727970746F5F65F4
:104B100063635F6B65795F706169725F67656E651E
:104B20007261746528292072657475726E656420DF
:104B30006572726F7220307825782E006E72665F13
:104B400063727970746F5F6563635F7075626C69BF
:104B5000635F6B65795F746F5F726177282920727C
:104B6000657475726E6564206572726F722030783C
:104B700025782E006E72665F63727970746F5F6560
:104B800063635F627974655F6F726465725F696E9B
:104B90007665727428292072657475726E6564205A
:104BA0006572726F7220307825782E002DE9F04101
:104BB000044686880088112810D018281BD1207B35
:104BC0001B4DC0074FF0010728D0A87800B1194845
:104BD000E968804689B1304688470FE006EB460118
:104BE00001EB0612134900204C3901EB820181F8D8
:104BF000490081F84800BDE8F081002002464146A6
:104C0000304685DF020009D00B480C49401AC00825
:104C100007EB00400AA101F03BFE2F7004F10801F0
:104C2000304603F06FF90028E5D02F70E3E700006D
:104C3000EC2D0020C0350020C80C0300980C0300A8
:104C400073645F626C655F6761705F6C6573635FFF
:104C50006F6F625F646174615F736574282920728D
:104C6000657475726E6564206572726F722030783B
:104C700025782E00094810B54078002408B1084C6A
:104C800009E008480849401AC008012101EB00402A
:104C9000064901F0F9FD204610BD0000EC2D002072
:104CA00084340020C80C0300980C03001CF00200A0
:104CB0002DE9F04110490020097811B10320BDE829
:104CC000F08100240D4F264604EB440101EB041152
:104CD00007EB810595F8481041B128462146FCF7BD
:104CE00033F805F8486F00286E70E8D1641C24047E
:104CF000240CE9D0E3E70000EC2D002074350020FF
:104D00002DE9FC4100F12205EC1D0E46207810B182
:104D10000420BDE8FC810027C7EBC7002844062219
:104D20003146401CF8F749FA0028F2D07F1C17F0F2
:104D3000FF07F1D000206946C0F10502B25C0A54B9
:104D4000401CC0B20628F7D3084600F023F843F20F
:104D50000221884201D10846DBE72178C1EBC1017D
:104D60006A5C60F347026A5400202278315CC2EB2F
:104D7000C2022A440244401CC0B251700628F4D337
:104D80000020401CC0B20628FBD32078401C2070B5
:104D90000020BEE70078800908D0012808D002284A
:104DA00003D0032806D043F2022070470320704747
:104DB00000207047012070472DE9F041044600F1C2
:104DC000400700F1360590F83E6090F8340086B058
:104DD00001F10208002814D08ADF14216846F8F790
:104DE000CCF933462A46394640468BDF05218DF8FB
:104DF00000100190002804D0616D002901D06846A0
:104E0000884706B0BDE8F0814FF4C871818706215C
:104E1000C1861821018700214187704710F8401F83
:104E2000064A42605210826021F0180100228281FD
:104E300041F004010170012141707047A08601001A
:104E40002DE9F04150B14AB10025042641B10229B3
:104E500030D0032933D00720BDE8F0810E20FBE7D6
:104E6000074600F1200490461046F8F791F910F03B
:104E7000FF0001D0202801D90C20EDE7207818BBD5
:104E80005FF0000607EB46104146F8F788F918B3C3
:104E9000761C16F0FF06F5D04046F8F779F9024681
:104EA0002078414607EB4013401C20701846F8F765
:104EB00049F911E0BDE8F0411146FFF721BF00F1CB
:104EC0002C0410F8303F0BB13046C5E7168800219E
:104ED00034F82170B74201D12846BDE7491C11F0D2
:104EE000FF01F5D004EB83015B1C037010680860C0
:104EF000F2E740B1212100220A542A210A5480F805
:104F00003120104670470E20704730B515460B46CD
:104F1000040002D0980702D009E00E2030BD5807E7
:104F200005D4D80603D4180701D4072030BD204685
:104F3000FFF7DFFF99074FF0010001D584F82A0041
:104F4000D90701D084F82100590701D584F8310030
:104F500084F83250002030BD70B50D46040012D0E8
:104F600034216265F8F709F9FDB1287984F8340035
:104F7000287B84F83E00296839B1142204F14000EE
:104F8000F8F7E0F804E00E2070BD2046FFF746FF7A
:104F9000A86830B10168C4F836104068C4F83A0017
:104FA0000CE02046FFF730FF08E02046FFF736FF11
:104FB0002046FFF729FF002084F8340004F1580050
:104FC000A0671F20A4F87C00002070BD2DE9F04FE1
:104FD0008BB00D46044600273E4614216846F8F77C
:104FE000CCF804F1400004902046FEF727F80100B9
:104FF00004F17800059010D002208DF80000019592
:10500000616D684688470020059989DF294620465A
:10501000FFF7D2FE0BB0BDE8F08F94F83200069097
:1050200094F82A0094F82110089194F831104FF068
:1050300000090791E0B1012704F1220B94F829A09F
:10504000002012E0C8EBC80202EB0B00AB7802783C
:105050005208B2EB530F05D10622E91C401CF8F7A9
:10506000ACF878B108F10100C0B280465045E9D3F0
:10507000089810B394F820A0B5F81CB04FF00008C1
:105080007F1C1FE09DF808004FF0010940F002006E
:105090008DF80800761CEBE704EB48125946A86926
:1050A000FAF762FC50B19DF80800761C40F0010050
:1050B000F6B28DF808004FF0010905E008F1010093
:1050C00000F0FF08D045E7D3079848B304F12C005F
:1050D000099094F83200079094F830B04FF0000A2D
:1050E000A88BD0467F1C089014E00998089900EB23
:1050F0008802A869FAF77DFC30B10AF1010000F0DE
:10510000FF0A079868B101E0079838B908F1010073
:1051100000F0FF08D845E8D3079810B1DA4503D06E
:105120000CE0BAF1000F09D09DF80800761C40F0A1
:105130000400F6B28DF808004FF0010901950698B9
:1051400008B1BE4203D0069939EA010007D0002019
:105150008DF8000029462046FFF72EFE02E00320CE
:105160008DF80000616D09B16846884700200599F7
:1051700089DF4FE770B50D46014601F108020C1DAD
:1051800028460988403586B010291ED01B2907D033
:105190001D292DD106B01146BDE87040FFF716BF9E
:1051A000064614216846241DF7F7E7FF20780128FA
:1051B0001ED1706D00281BD004208DF800000495CE
:1051C00020788DF80400716D10E0064614216846C1
:1051D000F7F7D3FF06208DF80000201D01902088EE
:1051E000ADF808000495716D002901D06846884724
:1051F00006B070BD70B50D46040008D08ADF45B119
:105200001422294604F14000F7F79CFF04E00E2029
:1052100070BD2046FFF702FE002070BD30B585B09E
:10522000040025D014216846F7F7A7FF8ADF20463F
:10523000FDF704FF012528B1616D19B18DF800500B
:105240006846884704F1780104F1400089DF04468C
:1052500008280FD074B1084808492246401AC008EF
:1052600005EB004006A101F013FB204605B030BD60
:105270000E20FBE70020F9E7D00C0300980C030098
:1052800073645F626C655F6761705F7363616E5FBB
:1052900073746172742072657475726E6564203007
:1052A000782578008ADF704700F180400068002888
:1052B00000D00120704708B500F180400021016056
:1052C0000068009008BD10B5184608310832F8F79C
:1052D00093F9002010BD70B50C4604F10800154686
:1052E0002021064602F0BEFC002810D114F8080F59
:1052F000314600F0F8002070E07F00F07F0040F0C1
:105300004000E07705F10800F8F74AFA002070BD88
:1053100010B502F108000831F8F742FA002010BD7C
:1053200070B50C4604F1080015462021064602F02F
:1053300099FC00280CD104F1280031460446F8F706
:105340005DFB2022214605F10800F7F7FBFE002057
:1053500070BD70B50446083020220546F7F7F2FE0E
:10536000294604F12800F8F749FB002070BD1046DB
:1053700010B5202208302831F7F7E4FE002010BDD8
:10538000024A2023A2F1200100F0AFBA60C402005B
:1053900010B542680830936852799847002010BDD4
:1053A00010B50C4641684A798B6800F10801204627
:1053B0009847002010BD10B5426808309368927974
:1053C0009847002010BD10B50C4641688A798B685B
:1053D00000F1080120469847002010BD10B518467E
:1053E00008310832F8F7DAFA002801D048F21650EE
:1053F00010BD70B501F1080014460546FFF7C0FF67
:10540000002808D1294604F10800F8F7E3FA00283B
:1054100001D048F2165070BD10B502F108000831F5
:10542000F8F7D8FA002801D048F2165010BD000055
:10543000F0B540B190F8054048F21150002B06D06D
:1054400019B12AB117E01C46F6E748F21050F0BD3A
:1054500048F21350F0BD0026651E07E08F5D11F87D
:1054600005C002F806C057556D1E761CAE42F5D930
:105470001B1B21442244A342EDD2002BEAD1002081
:10548000F0BD00002DE9F041884606466C461746FF
:105490001D461146404600F0FBF80028A54616D1EF
:1054A0002946404600F0F4F80028A5460FD198F8A8
:1054B0000400144951F820C00C39BCF1000F31F838
:1054C000100001D02EB10CE0A54648F20350BDE813
:1054D000F08130B1C01D20F00700ADEB000D6E462D
:1054E00066B11A4639463046E04708B1A546EEE7B0
:1054F00005493960891FA5462960E8E748F215503B
:10550000A546E4E7C8C302007652464D70B516467C
:105510000C46054600F0BCF8002812D1AA791946BD
:10552000304600F0C2F800280BD12879074951F81D
:1055300020203AB1314620469047002801D1044945
:10554000216070BD48F2035070BD0000F8C3020036
:105550007052464D70B50D46144603460C4900F096
:105560008BF8002813D15E6821462846B27900F0F6
:10557000A7F800280BD13079064951F8202022B134
:105580002946BDE870401846104748F2035070BDE8
:105590007052464D04C402002DE9F0476C4688461F
:1055A00005460E469946174621494046D4F820A0A4
:1055B00000F062F80028A5460ED11D493846891F23
:1055C00000F05AF80028A54606D176687868864229
:1055D00004D0A54648F24150BDE8F08772795146A3
:1055E000484600F06DF80028A546F5D130791149FC
:1055F00051F82060091F31F810000EB125B10BE001
:1056000048F20350A546E7E730B1C01D20F007007F
:10561000ADEB000D6D4635B14B463A464146284646
:10562000B047A546D8E748F21550A546D4E7000094
:105630007652464D2CC402002DE9F0410B480C4D2A
:105640000C4F401BC60801203870002406E000BF44
:1056500055F834008047002805D1641CB442F7D3C4
:10566000022038700020BDE8F0810000880C0300A3
:10567000800C0300992E002028B10068884205D0D4
:1056800048F24050704748F2105070470020704771
:1056900028B139B10022C1E900201046704748F214
:1056A0001050704748F21350704720B1914205D016
:1056B00048F21150704748F2105070470020704770
:1056C00030B149B10868904205D248F21450704791
:1056D00048F2135070470A6000207047054801786F
:1056E000022904D00078012801D000207047012051
:1056F00070470000992E002038B5041D002000F0EE
:1057000049F900280ED12046FEF7C9F800200346CB
:105710000246009004492046FEF77BF9BDE8384078
:1057200004F046BF38BD0000A715020010B51146B1
:105730001A46001DFEF72CF9BDE8104004F038BFF2
:1057400010B5001DFEF79CF800F080F9002010BD98
:1057500010B5001DFEF7A7F8BDE8104004F028BF03
:105760002DE9F0416C460D46074601F0DFFD70B1B2
:105770001B481C49401AC008012101EB00401AA136
:1057800001F082F8A54648F21950BDE8F081FFF714
:10579000A5FF48B11B4A1C4E106848B15068B04282
:1057A00006D10020A546F0E74FF40540A546ECE7FA
:1057B00048F21750002FA546E7D1002DA546E4D1A9
:1057C00010491248083115461060FFF795FF002870
:1057D000A546DAD16E602A680D491160A546D4E766
:1057E000880D0300980C0300537461636B206F767F
:1057F0006572666C6F772064657465637465642E8A
:10580000000000009C2E00206572E54BF43700205C
:105810006169614D2DE9F0416C4615460E4607461B
:1058200001F084FD70B116481649401AC0080121E4
:1058300001EB004014A101F027F8A54648F21950E9
:10584000BDE8F08105B146B11648174A416891425A
:1058500007D048F20250A546F2E748F21050A5469C
:10586000EEE71FB148F21750A546E9E70D492B4670
:10587000083132460068FFF759FFA546E0E700000F
:10588000880D0300980C0300537461636B206F76DE
:105890006572666C6F772064657465637465642EE9
:1058A000000000009C2E00206572E54B0A4930B4D0
:1058B0000A4B486848F20252984204D10868084CE2
:1058C0000368A34202D030BC104670470022026039
:1058D0004A6030BCFFF734BF9C2E00206572E54B58
:1058E0006169614D0122FCF7C5BD38B50124009402
:1058F000FCF7F4FD38BD000070B50D4C0125207893
:1059000008B185260EE00020A06060602061E060A4
:10591000084801F075FD064601F084FC08B901F065
:1059200059FD257001F04EFD00B1A570304670BDE7
:1059300038390020150D020038B500258DF80050CB
:105940006846F9F73DFE084CE068401EE060E068FC
:1059500028B901F037FD10B901F060FDA5709DF880
:105960000000F9F751FE38BD3839002070B50C46FB
:1059700006460CE0402C01D2254600E04025E9B265
:10598000304600F033F80028F9D1641B2E44002C77
:10599000F0D170BD38B5124C0025217809B18520B1
:1059A00038BD00B90F480088A4F8010000208DF828
:1059B00000006846F9F704FE01F034FC38B90A49E2
:1059C000601C01F095FE0500EAD101F0BDFE01204A
:1059D00020709DF80000F9F717FE284638BD00003A
:1059E000A82E002080C40200B97602002DE9F843F9
:1059F0000F468046002542F2070600BF8DF8005092
:105A00006846F9F7DDFD01F00DFC58B19DF8000086
:105A1000F9F7FAFD3946404631DF0446B0420DD170
:105A200005240DE03A464146074801F0D6F9044600
:105A300001F08AFE9DF80000F9F7E6FD022CDDD0AA
:105A40002046BDE8F8830000E40D030038B50024CB
:105A50008DF800406846F9F7B3FD01F0E3FB18B993
:105A600001F082FE01F08AFE9DF80000F9F7CCFDFE
:105A7000024801F0D1F90248047038BDE40D03007A
:105A8000A82E0020F0B505460478154889B01646C2
:105A900040F82420124A08690832A2F10C0742F8A3
:105AA0002400487F385520226846F7F74BFB0494C2
:105AB0002878385C48B10EB10A4A00E000226946F5
:105AC000281D01F0B1FF09B0F0BD0EB1064A00E09B
:105AD0000022694605F10C0001F070FEF3E70000BA
:105AE000B02E00205DB90200A5B702000FB408B5C2
:105AF0000399002904D004AA00926A4600F00FF826
:105B000001B05DF814FB10B582680446002A05D088
:105B1000D4E90403216898470020A06010BD2DE956
:105B2000FC4791460C00804676D014F8011B39B131
:105B300025290ED04046FAF7D9FF20780028F4D165
:105B400098F80C00002867D04046BDE8FC47FFF7F6
:105B5000DABF0020012221782B291BD02D2902D069
:105B6000302908D102E040F0010001E040F00200DD
:105B7000641C002AEFD100252A290ED02178A1F13A
:105B800030020A2A11D205EB850201EB4205641CA2
:105B9000303DF1E740F00400EAE7D9F800100B1DB2
:105BA000C9F800300968641C0D44217800232E29AF
:105BB0000BD114F8011FA1F130020A2A05D203EB20
:105BC000830201EB4203303BF3E76C290DD06829D7
:105BD0000BD0692921D00BDC252918D0582931D0C8
:105BE00063290ED0642915D117E014F8011FECE7E2
:105BF000702969D0732932D075291BD0782909D131
:105C000020E0D9F80000011DC9F8001001784046D5
:105C1000FAF76CFF641C90E76CE0D9F800100A1DDD
:105C2000C9F800200968CDE900500A224046FDF776
:105C300009F9EFE7D9F800100A1DC9F80020096832
:105C40000A2206E0D9F800100A1DC9F800200968E8
:105C50001022CDE90050404605F032FFDAE7D9F8CE
:105C6000001000270A1DC9F800200E68C00705D1E2
:105C700012E04046761C7F1CFAF738FF3178002985
:105C8000F7D104E0202140466D1EFAF72FFFBD42F8
:105C9000C0D9002DF6D1BDE74EB13046F7F778FAFE
:105CA000074604E0202140466D1EFAF71FFFBD4263
:105CB00006D9002DF6D103E04046761CFAF716FF10
:105CC00031780029F8D1A5E7D9F80000011DC9F8FD
:105CD0000010056830214046FAF708FF7821404659
:105CE000FAF704FF08200021CDE900010346102245
:105CF0002946B0E7BDE8FC872DE9F8438846050052
:105D00002C482D499946A0EB01004FEAD0004FF0F6
:105D10000101164601EB004424D0286800282CD04D
:105D2000002E34D0696840464FF010070A68511EB3
:105D300011EA080F11D1014672432846F9F7E9FA32
:105D400000282ED028684B463246046901B04146EF
:105D50002846A446BDE8F04360472046174B18A2EA
:105D6000009722E00E2000902046144B1EA220A196
:105D700000F09DFD0E20BDE8F8830820009020462D
:105D80000E4B26A21AA100F092FD0820F3E709208D
:105D900000902046094B24A215A100F088FD09209F
:105DA000E9E7064B214A2046009711A100F07FFD4C
:105DB0001020E0E7700D0300980C03002BC50200D3
:105DC000616464725F69735F706167655F616C696C
:105DD000676E656428705F66732C20706167655F0D
:105DE0006164647229000000705F66730000000047
:105DF000257320636865636B206661696C65642048
:105E0000696E202573282920776974682076616C73
:105E1000756520307825782E00000000705F66736D
:105E20002D3E705F617069006C656E000CFA0200B7
:105E300038B503001148124D4FF00E04A0EB0500D9
:105E40004FEAD0004FF0010505EB004009D061B1E9
:105E500019600C6801B0A446BDE8304011461846F0
:105E60006047084B08A2009402E0064B08A2009489
:105E700009A100F01CFD0E2038BD0000700D0300CC
:105E8000980C0300E0C40200705F6673000000001D
:105E9000705F617069000000257320636865636B43
:105EA000206661696C656420696E2025732829204D
:105EB000776974682076616C756520307825782E56
:105EC000000000002DE9F04128B1016819B1C9694D
:105ED000BDE8F04108470D4D0D480024461B14272E
:105EE0000DE000BF04EB840005EB8000016829B1E0
:105EF000C969884710B10120BDE8F081641CB6FB78
:105F0000F7F0A042EED80020F6E70000E02F0020D6
:105F1000F42F0020044801214174007A08B10020C8
:105F20007047012070470000983C0020012801D0F4
:105F3000032808D10449002201284A7400D0002017
:105F4000087404F00DB87047983C002070B5024604
:105F5000022801D0032A45D1234C207A002841D0C1
:105F6000012833D0022831D120480023022A0068BA
:105F700002D0032A2AD11BE0E360017911B1012983
:105F800024D10DE0D0E90565711B4FF48056B14274
:105F900000D33146294481614569A9420ED015E0FC
:105FA0000169491C0161426991420FD1237213E0DA
:105FB000E168491CE160082908D9E3602372022ADC
:105FC0000AD00D21FBF766FB03F0E2FE607C28B1EE
:105FD000BDE8704001F02CB90021F3E7BDE8704046
:105FE00003F0BEBF70BD0000983C0020502F002081
:105FF0002DE9F84F90468A463A493B4A0500A1EB05
:1060000002014FEAD1014FF00102DDF828901E464F
:106010004FF00E0002EB01441AD0B8F1000F1CD073
:106020002868002822D00920002E29D069684968F4
:10603000B6FBF1F201FB1261002926D000902B4B38
:1060400020462BA235A100F032FC0920BDE8F88FD4
:1060500000902046254B3CA203E00090234B2046B5
:106060003BA22EA100F023FC0E20EFE708200090B9
:1060700020461E4B38A229A100F019FC0820E5E7B4
:1060800000902046194B37A2DCE75046F9F73BF960
:10609000102798B14046F9F736F9A0B1324651467B
:1060A0002846F9F736F998B1CDF8009028683346BC
:1060B0004246C46851462846A047C7E720460B4BD6
:1060C00029A2009708E02046084B2DA2009703E084
:1060D000064B204633A2009710A100F0E8FB1020E9
:1060E000B4E70000700D0300980C030018C502000F
:1060F00021286C656E202520705F66732D3E705FD1
:10610000666C6173685F696E666F2D3E70726F6753
:1061100072616D5F756E69742900000025732063DC
:106120006865636B206661696C656420696E202513
:1061300073282920776974682076616C7565203032
:106140007825782E00000000705F66730000000064
:10615000705F737263000000705F66732D3E705F46
:10616000617069006C656E00616464725F69735F81
:10617000616C69676E6564333228646573742900E5
:10618000616464725F69735F616C69676E656433D3
:1061900032282875696E7433325F7429705F7372A8
:1061A00063290000616464725F69735F7769746872
:1061B000696E5F626F756E647328705F66732C2002
:1061C000646573742C206C656E2900002DE9FF4115
:1061D0001C46DDE90A7815460E46684600F0C2F80E
:1061E00046EA450141EA840141EA072242EA0841C0
:1061F000009A00EB8200C0F80017BDE8FF812DE98E
:10620000FF411C46DDE90A7815460E46684600F057
:10621000B7F846EA450141EA840141EA072242EA29
:106220000841009A00EB8200C0F80017BDE8FF812A
:106230002DE9FF411C46DDE90A7815460E46684601
:1062400000F0ACF846EA450141EA840141EA072240
:1062500042EA0841009A00EB8200C0F80017BDE84E
:10626000FF812DE9FF411C46DDE90A7815460E46FF
:10627000684600F0A1F846EA450141EA840141EA96
:10628000072242EA0841009A00EB8200C0F800179A
:10629000BDE8FF811CB5002100910B460122019150
:1062A000FFF7C6FF1CBD1CB5002100910B46012263
:1062B0000191FFF7D6FF1CBD1CB500220B460092D2
:1062C00011460192FFF7B4FF1CBD1CB500220B461E
:1062D000009211460192FFF7C4FF1CBD1CB50021BE
:1062E00000910B46012201911146FFF7A1FF1CBD51
:1062F0001CB5002100910B46012201911146FFF7C8
:10630000B0FF1CBD13B50C46684600F039F8009983
:1063100000EB8101D1F8002722F44032C1F80027B8
:10632000009900EB8100D0F8001741EA0441C0F861
:1063300000171CBD3CB50A4CD4E90034CDE900344B
:106340006B46441808E000BF53F82010D1F82055E0
:1063500020C2C1F82055401C8442F5D83CBD000045
:1063600084C402000168202902D24FF0A040704787
:1063700001F01F0101600148704700000003005058
:106380000168202902D24FF0A040704701F01F01A0
:106390000160014870470000000300500168202997
:1063A00002D24FF0A040704701F01F010160014888
:1063B00070470000000300500168202902D24FF00E
:1063C000A040704701F01F010160014870470000C4
:1063D0000003005042094FF0000102D0012A05D10C
:1063E00002E04FF0FF3101E040F2FF3100F01F000A
:1063F000012282400A4201D00120704700207047EC
:1064000001B56846FFF7BCFFD0F810050099C840F9
:1064100000F0010008BD01B56846FFF7BFFF009A14
:1064200001219140C0F8081508BD01B56846FFF785
:10643000C3FF009A01219140C0F8081508BD38B586
:1064400001240090684631B1FFF78CFF00998C4021
:10645000C0F8084538BDFFF785FF00998C40C0F8AB
:106460000C4538BD034908B50844002101600068A7
:10647000009008BD0060004002494058012800D04B
:10648000002070470060004000210846FFF768B90F
:10649000FFF70CBA30B5154A01460020D2F8104477
:1064A00023460AE0DB681D79854205D1401C0A2895
:1064B000F6DB4FF0FF3030BD1B68002BF2D1431CE0
:1064C000F9D0CB681871D2F8103443B1DB68CC68CE
:1064D0001B682360D2F81024D268116030BDC2F866
:1064E0001014C96800220A6030BD0000503E002030
:1064F000F0B595B01C4615460F4608461A9E00F0AA
:1065000033FB182109A8F6F738FE0E96CDE9095499
:106510000023082203A9384600F03BFB05980690AB
:10652000BDF81000ADF81C00BDF81200ADF81E005B
:1065300000208DF821000398082600F003000128B0
:1065400002D0022818D032E003983346850AC0F3FF
:10655000C2008DF8200003980FA9C0F38314A20095
:10656000384600F016FB09A8009006AB22460FA99A
:10657000284600F055FA1AE00398840DC0F3C200D3
:106580008DF82000082C01D2254600E0082533466E
:106590002A460FA9384600F0FCFA2E44641B09ABCA
:1065A00006AA29460FA800F0A3F9002CEAD1384624
:1065B00000F0E0FA15B0F0BD7047012005F010B909
:1065C000084810B50178084A515C19B1001D01F066
:1065D000C5FA02E00C3001F0BFF9BDE81040002020
:1065E00005F0FEB8642F0020AC2E002008B5034A49
:1065F00000924023024AFFF77BFF08BD19AD02005D
:10660000B83C00200A4A012902EBC00007D0022949
:1066100007D0032907D0042907D0002070470220A3
:106620007047042070470079704740797047000038
:10663000980C030010B5FFF7C0FF04210348FFF7D3
:1066400029FF02490120C968487110BD880C030068
:106650002DE9F04F8DB0FAF761FA18B100200DB0B6
:10666000BDE8F08F7E4C4FF0000BC4F818B4BFF3B8
:106670004F8F7C49A06802900D68D846284004EBF3
:1066800080000BE0D4F8180470B961680298814268
:1066900001D8A160E2E7284004EB80000C3002A999
:1066A000FCF768FC0028EDD1002005AA029901EA58
:1066B000050304EB8303491CDB6842F82030401CCF
:1066C00002910228F2D3059800F00300022802D0BC
:1066D00001284DD0AAE005985022810D8946B2EBE1
:1066E000905F00D850210E4666F39F500590083108
:1066F0005D4800F0F0F9070078D000F035FA434625
:10670000082205A9384600F04CFA029908F1080A57
:106710002940681A8000001D864222D9504D0C3550
:1067200030B1C2B204EB8101301A90460C3104E062
:106730002946F2B2002590462846C6B2534638464E
:1067400000F02FFA0AEB080325B1324629463846F5
:1067500000F027FA029909F1030001EB9000029082
:106760003BE004EB81015346324638460C31EFE7FB
:106770000598C0F38310062800D30620059960F31E
:106780008911C1F38310801C05918100364800F007
:10679000A2F907004AD000F0E7F94346082205A90C
:1067A000384600F0FEF908F1080800260FE00298CC
:1067B000434600EA0501401C04EB810102900422DB
:1067C00038460C3100F0EDF908F10408761C059804
:1067D000C0F38310B042EAD847B1D4F81054D4F8CB
:1067E000180478B1384600F0C5F934E01EE0E868D6
:1067F0004079012804D12A68284639461268904712
:10680000E8680568002DF2D1384600F0B3F98DF83C
:1068100000B06846F8F7D4FED4F8180408B9029816
:10682000A0609DF80000F8F7EFFE14E0D4F81044E3
:1068300005E02168204689688847E0680468002CE4
:10684000F7D10A480A49401AC008022101EB00406A
:1068500008A100F019F8FAF761F980F00100FEE6EE
:10686000503E0020802F0020BC0D0300880D030047
:10687000980C03004261636B656E647320666C75EF
:10688000736865640000000000231A4604F050BEDF
:1068900008B5012300926A4604F04AFE08BD1CB503
:1068A000CDE9002302236A4604F042FE1CBD3EB53A
:1068B000069C8DE81C0003236A4604F039FE3EBDA9
:1068C0007FB5DDE908458DE83C0004236A4604F005
:1068D0002FFE7FBD70B586B00DF1280C9CE87000CE
:1068E0008DE87C0005236A4604F022FE06B070BDE8
:1068F0002DE9F0470E4680461C469246082940D8AE
:1069000094F80C90002020731946104603F0D2F939
:106910000025B54206D218F805201BA12046FFF736
:10692000E5F803E01AA12046FFF7E0F86D1C082DFA
:10693000EFD318A12046FFF7D9F80025B54212D2AF
:1069400018F805707E2F08D8F6F7F8FB0068C05DD0
:1069500010F03E0F01D03A4600E02E220EA1204654
:10696000FFF7C4F803E00DA12046FFF7BFF86D1C48
:10697000082DE3D301222146504603F07DF984F827
:106980000C90BDE8F0870000202530327800000030
:10699000202020007C000000256300002000000073
:1069A000064910B500200870054800F0E1F80028FD
:1069B00003D1044800F041FA002010BD503E0020F1
:1069C000BC0D0300FCC6020002480349401AC0087F
:1069D00070470000A80D0300980C030013B568462B
:1069E000FDF740FD08B100201CBD0248009950F899
:1069F00031001CBD980C030070B508480125D0F883
:106A00001044057007E0E068457121682046496838
:106A10008847E0680468002CF5D170BD503E002026
:106A20002DE9FF4781460C9D00200C462F7B2873E3
:106A3000984616462946184603F03CF9072E42D2DE
:106A4000DFE806F004090F161F2A360049462846DB
:106A5000FFF74CF837E0494628462268FFF746F82A
:106A600031E0D4E9002349462846FFF73FF82AE001
:106A7000A0680090D4E9002349462846FFF736F87D
:106A800021E0D4E90201CDE90001D4E9002349461F
:106A90002846FFF72BF816E004F1080007C88DE838
:106AA0000700D4E9002349462846FFF71FF80AE00B
:106AB00004F108000FC88DE80F00D4E9002349460F
:106AC0002846FFF713F800222946404603F0D4F881
:106AD0002F73BDE8FF872DE9F041058A80462D1F01
:106AE0004819C01CB0FBF5F0C6B24046FDF7E2FD08
:106AF000041E19D00020207101206071E58000275C
:106B00002546761EC4F800800BE04046FDF7D2FD16
:106B100060B16179491C6171286005467F1CC0F82D
:106B20000080B742F1D32046BDE8F081204600F056
:106B300002F80020F8E72DE9F041457901466B1E87
:106B4000002201E00968521C9A42FBD30F680146FB
:106B5000002605E038460C68FDF7CEFD2146761C80
:106B6000AE42F7D3BDE8F0810121001DFDF776BDEF
:106B7000FDF7DABD10B504460121001DFDF794FDB7
:106B800010F0FF0F04D12046BDE81040FFF7D3BF3F
:106B900010BD1CB501920122009201AAFDF722FC52
:106BA0001CBD1CB501920022009201AAFDF71AFC3F
:106BB0001CBD0000064910B500204870091D086082
:106BC000BFF35F8F0349044800F05EFB002010BD57
:106BD000582F002088C50200AC3C002008B50020DA
:106BE0008DF800006846F8F7EBFCF1EE100A20F093
:106BF0009F00E1EE100ABFF35F8F08494020C1F803
:106C000080029DF80000F8F7FFFC00F00BFB08B1D4
:106C100041DF08BD20BF40BF20BF08BD04E000E049
:106C200070B504460C480121FDF733FDBFF35F8FBB
:106C30000025002809D10120074E042C08D0311F5F
:106C40004A781AB1BFF35F8F356070BD0C70487021
:106C500004F09CF9F6E700005C2F00202DE9F843D2
:106C60000446002790460E468DF800706846F8F7F7
:106C7000A7FC204600F039F838B105279DF8000040
:106C8000F8F7C2FC3846BDE8F88320680568B8F11B
:106C9000000F05D10168204600F03FF82168086028
:106CA000E268012A0CD0022A0ED0042A11D06068B2
:106CB000082A13D005FB02013046F6F743FADDE758
:106CC0006068405D3070D9E7606830F8150030804A
:106CD000D4E7606850F825003060CFE700EBC501CD
:106CE000D1E90001C6E90001C8E701680868496800
:106CF000884201D1012070470020704701680A686E
:106D000049688068884201D9491C00E0002191420D
:106D100001D101207047002070478068884201D966
:106D2000481C7047002070472DE9F84304464FF097
:106D300000080E468DF800806846F8F741FC2046B2
:106D4000FFF7DCFF07000AD0207C40B14FF00408B9
:106D50009DF80000F8F758FC4046BDE8F88320682D
:106D6000456841682046FFF7D8FF2168486037B181
:106D7000206801682046FFF7D0FF21680860E268BC
:106D8000012A14D0022A16D0042A19D0082A1CD0AD
:106D90006068314605FB0200F6F7D4F9204603F09F
:106DA00081F921688A688242D2D28860D0E761681E
:106DB00030784855F2E76168308821F81500EDE732
:106DC0006168306841F82500E8E7D6E900016268AB
:106DD00002EBC502C2E90001E0E7F8B507464FF053
:106DE000000415000E46204615D08DF800006846B8
:106DF000F8F7E6FB384603F055F9A84205D32A46D2
:106E00003146384603F0FCF800E005249DF8000008
:106E1000F8F7FAFB2046F8BD38B5054600248DF892
:106E200000406846F8F7CCFB286804604460846042
:106E30009DF80000F8F7E8FB38BD826800219160FA
:106E400082681161826851618268D1608268516094
:106E500080680160704708B5002242504058009099
:106E600008BD000020B10349096801600020704797
:106E70000E20704780C702002DE9FE4307460E46EC
:106E80000846FFF7EFFF00287BD10025009501950C
:106E90004FF4A0708DF800704FF00108ADF80400B9
:106EA00002958DF802806946202032686ADF3649F3
:106EB000364A891AC908012202EB014430B100F0B8
:106EC0005BFA024620463249FFF7E2FC00958DF856
:106ED0000080019502958DF8018069464020326856
:106EE0006ADF30B100F048FA024620462949FFF730
:106EF000CFFC00958DF80070F720ADF802000195E9
:106F000002956946232032686ADF30B100F034FA16
:106F1000024620462049FFF7BBFC009501950295EB
:106F20008DF800506946012032686ADF30B100F008
:106F300023FA024620461949FFF7AAFC4FF4B06035
:106F40000090019502956946A12032686ADF30B150
:106F500000F012FA024620461149FFF799FC00950D
:106F6000019502958DF800506946A02032686ADFCD
:106F700030B100F001FA024620460A49FFF788FCCA
:106F80000020BDE8FE830000980D0300980C03006C
:106F9000A4FF0200ECFF02003800030004FF02001F
:106FA00050FF0200B0FE02002DE9F04105460768DF
:106FB00060DF804619491A482A68081AC608BA428A
:106FC00019D9022000EB064416A12046FFF75CFC0D
:106FD00020463A461FA12B68FFF761FC4FF0805016
:106FE000D0F80C012968800200F10050421A2046B6
:106FF00025A1FFF74DFCB8F100004FF001040AD0C5
:1070000000F0BAF9024604EB06402AA1FFF740FC63
:107010004046BDE8F0812F480470F9E7980D030061
:10702000980C0300496E73756666696369656E74D2
:107030002052414D20616C6C6F6361746564206601
:107040006F722074686520536F6674446576696357
:10705000652E00004368616E676520746865205284
:10706000414D207374617274206C6F636174696F39
:107070006E2066726F6D203078257820746F203016
:107080007825782E000000004D6178696D756D20BF
:1070900052414D2073697A6520666F72206170706D
:1070A0006C69636174696F6E20697320307825782C
:1070B0002E00000073645F626C655F656E61626CD8
:1070C0006528292072657475726E65642025732E9B
:1070D00000000000D72F002030B51548ADF5017D28
:1070E0000078002821D04FF4FA7500BFADF80052A7
:1070F00080A9684661DF38B1052816D00DF5017DFD
:10710000BDE83040F8F7F2B96C460A497DA800F0B6
:10711000BBF806E0D0E90021204690477DA800F0AA
:10712000CAF87F980028E1D0F4E70DF5017D30BD65
:10713000D72F002084C70200F8B5134C2078C0B1C7
:107140000120A07003F078FC112814D0022003F075
:107150008BFC00258DF800506846F8F731FA11DFF6
:10716000064625709DF80000F8F74EFA2EB130461D
:10717000F8BD0820F8BD0020F8BDA57004F06EF938
:10718000032003F071FCF6E7D42F00207CB5194CE6
:10719000207808B108207CBD0120A070002003F0F9
:1071A0004BFC112819D0002003F05EFC1248002689
:1071B000006801908DF800606846F8F701FA0F4901
:1071C00001A810DF05000AD0002020709DF8000003
:1071D000F8F71AFA2DB128467CBD00207CBD0120AD
:1071E000F3E7A670667004F059F9012003F03CFC47
:1071F000F3E70000D42F002018C7020069F4010053
:107200000EB50749684600F03FF805E0D0E90010E8
:107210008847684600F04FF802980028F6D10EBD66
:1072200034C702000148007870470000D42F0020C6
:107230000548817819B1007818B1FFF77DBF0820A3
:107240007047FFF7A3BF0000D42F00201FB568468A
:107250004BDF30B1052814D004B0BDE81040F8F77A
:1072600045B9084901A800F00FF806E0D0E900216F
:107270000098904701A800F01EF803980028E6D077
:10728000F4E71FBDA0C70200016009684160AFF3C9
:10729000008010B5D0E900215368994201D1002146
:1072A00004E0D1E90034A34202D01946816010BD48
:1072B00008314160F0E7816800290BD002689268CC
:1072C0000A44826041684B689A4203D108314160A8
:1072D000FFF7DFBF704770B50D460646446804E00F
:1072E000B2682946904718B1246820680028F7D171
:1072F00020682860256070BD40680068704741685C
:107300000868002801D002680A6070470246002021
:10731000526806E08B4203D1086810600120704774
:107320001A461368002BF5D17047000003496846E0
:10733000884201D20120704700207047704200202F
:107340000C4A10B502F594730EE0991AC91001EBBE
:10735000D171491002EBC1010C68844201D90B467E
:1073600002E005D201F108029A42EED3002010BDDE
:10737000486810BDA8C5020000B5FFF7E1FF00286E
:1073800000D1014800BD000094C50200405800280B
:1073900000D00120704708B50022425040580090AC
:1073A00008BDD0F80403084000D0012070474058C1
:1073B000002800D00120704708B5002242504058F4
:1073C000009008BD02480068002800D001207047E6
:1073D0000004014008480068012110F0010F06D1A7
:1073E0004FF0E020C02280F800248430C1670349B8
:1073F000012008607047000000E100E0180500402F
:107400000549024600200B790BB1852070470A60C0
:1074100001220A7170470000C02E0020022010B522
:107420004107C1F808034FF48270FDF744FF054996
:107430000120086004480168C1F300410029FAD125
:1074400010BD00000C00004018040040002802D0CD
:107450000149800108477047B1C402002DE9F0419D
:107460000D46064601F0DAFC0028304615D0F9F743
:10747000DFFB083802F0F8FB032802D001280AD00D
:1074800003E03046FEF7BCFF28B103213046BDE8DB
:10749000F041FEF737BF0221F8E701F0CBFC0028EE
:1074A00022D03046F9F7C4FB04464FF4807000EB5D
:1074B00084000E4F81B207EB8400D0F8102542F013
:1074C0000102C0F810250846FEF7CCFF002D0BD0B6
:1074D0003046F9F7ADFB064951F82000002803D0EB
:1074E0000120A040C7F80403BDE8F081006000401F
:1074F0009C3900202DE9FC41DFF8BC80044608EBF4
:107500000400002790F930001346C0170E46401CB7
:1075100001D008274DE0B0781946C0F3400220465C
:10752000F9F762FB0546401C42D0B07841071AD4F7
:10753000C0070DD068460094FEF722FF009900EBCB
:107540008101D1F8000720F00200C1F8000707E030
:1075500000217378204600910A460191FEF74FFE04
:10756000204601F04DFCB078800718D513483178DB
:1075700000EB8500D0F81025114B1A40C0F81025FB
:107580004FF47C524FF4403302EA042203EA0141F3
:107590000A43D0F810150A43C0F8102509E008EB9B
:1075A0000500327810F8521F41EA8211017000E0A4
:1075B00004273846BDE8FC819C390020006000406B
:1075C000FFC0FCFF10B5FEF71BFF002800D0012014
:1075D00010BD000070B5194D95F8640008B1082081
:1075E00070BD0024661E2046FEF7F4FE10B1281977
:1075F00080F83060641CE4B22A2CF4D300242046C6
:10760000F9F7E4FA641CE4B20C2CF8D3002045F836
:107610005E0F0C49A8800A4CC02081F800040126A6
:107620004020891FC1F800014FF4BE70FEF71AFF19
:10763000A004C4F80403AE71002070BD9C39002082
:107640000060004006E000E0034890F86400002875
:1076500000D00120704700009C3900200121B1EBCF
:10766000507F01D1012070470020704738B50D468A
:1076700002F06CFB040014D000208DF80000684676
:10768000F7F79EFF207928B19DF80000F7F7BCFFBF
:10769000112038BD0120256020719DF80000F7F70A
:1076A000B3FF002038BD10B502F050FB002802D017
:1076B00000210160017110BD01B582B000208DF87C
:1076C00000006846F7F77CFFFFF7ACFD48B902A958
:1076D0000648FFF729FB0548FFF710FB08B100F04B
:1076E00043F89DF80000F7F78FFF0EBDE40D03008F
:1076F000114A13780BB18520704751600178C90792
:1077000004D00E490B6843F001030B600C49D1F81B
:10771000003223F00103C1F80032407809494001EA
:1077200081F8000401204FF0E0234103C3F8001169
:107730001070002070470000D02E002004D50040BB
:1077400000D000400DE000E0064908B500220448E2
:107750000A60096800910121C0F80413016008BDA6
:1077600000D0004000D1004003490120C1F80803C7
:10777000091D08607047000000D000400949012041
:10778000C1F80803091D086041034FF0E022002002
:10779000C2F88011BFF34F8FBFF36F8F024908709B
:1077A0007047000000D00040D02E00200149024860
:1077B00004F03EB8043A0020002000402DE9F041DA
:1077C0000546007916460F4600EB40012D4A01EBB5
:1077D000C00102EB810494F82A1011B10820BDE821
:1077E000F081294951F820102868FFF73FFF08B1C0
:1077F0001120F4E739462846F7F720FF666038691C
:10780000206030004FF001062FD03F7F4FF48E7183
:107810002868FFF7C0FD4FF4A2712868FFF7BBFD91
:1078200028681A49C0F8041328684FEA471140F342
:107830000730002804DB00F1E02080F8001405E0A8
:1078400000F00F0000F1E02080F8141D286840F3DC
:107850000730002809DB00F01F0106FA01F140099A
:10786000800000F1E020C0F8001128680421C0F871
:1078700000150020A061E06184F8290044F8140F8D
:10788000A675ACE7043A00208CC402008000020018
:107890002DE9F05F054600790B4600EB400101EB56
:1078A000C000244901EB8004284600F045F810B1DF
:1078B0001120BDE8F09F62614FF00009C4F82090EC
:1078C000A36084F828904FF48E784E46414628688D
:1078D000FFF761FD28684FF0010AC0F808A02146B3
:1078E000286803F035FF606808BBD5F800B0676909
:1078F0000FE000BF94F8280008B10F2615E04146BC
:107900005846FFF743FD0028F4D02146584603F0BF
:107910001FFF206AB842F2D3574641462868FFF756
:1079200035FD0028F9D02868C760C4F814903046A7
:10793000BFE70000043A0020007900EB400101EBB2
:10794000C000044901EB80004069002800D00120FC
:1079500070470000043A00202DE9F0470446007902
:107960004FF0000900EB400101EBC000284901EB9A
:1079700080072068C0F800957868B0B12068254974
:10798000C0F80813206840F3073000280DDB00F032
:107990001F02012191404009800000F1E020C0F861
:1079A0008011BFF34F8FBFF36F8F2068D0F80C2585
:1079B000D0F81485D0F80865D0F810554FF0FF3195
:1079C000C0F81415C0F80C152068C0F80815C0F8E8
:1079D0001015501C02D01046FEF75CFCB8F1FF3FBA
:1079E00002D04046FEF756FC681C02D02846FEF73F
:1079F00051FC701C02D03046FEF74CFC2068FFF7AB
:107A000052FE87F82A90C7F80490BDE8F08700007E
:107A1000043A0020840202000149024803F0B6BF84
:107A2000303A0020002000402DE9F041054616467E
:107A300000790F46154A00EBC00102EB810494F86F
:107A4000201011B10820BDE8F081114951F8201033
:107A50002868FFF70BFE08B11120F4E739462846E5
:107A6000F7F727FE6660386920601EB1397F284627
:107A7000FBF73CFA28680821C0F800150020A06137
:107A8000E0616061012184F82010DCE7303A0020D9
:107A900090C402002DE9F04704460E4600792749BC
:107AA00000EBC00001EB800517463046FFF7D6FD1E
:107AB00030B1204600F044F820B11120BDE8F08735
:107AC0001020FBE76F61AE604FF490774FF0000835
:107AD00039462068FFF770FC4FF4AC7631462068D9
:107AE000FFF76AFC2068AA686969C0F84425C0F8F5
:107AF000481520684FF00109C0F808906868D0B9AF
:107B0000BA4651462068FFF752FC074631462068C6
:107B1000FFF74DFC0743F4D010B14FF00F0808E019
:107B20002068C0F80C9031462068FFF740FC002820
:107B3000F9D0002068614046C0E70000303A0020DC
:107B40000079054900EBC00001EB80004069002886
:107B500000D0012070470000303A00202DE9F047A6
:107B6000064600793D4900EBC00001EB8005346812
:107B700068680127A8B13A49C4F80813306840F38F
:107B8000073000280DDB00F01F0107FA01F1400962
:107B9000800000F1E020C0F88011BFF34F8FBFF3E9
:107BA0006F8FD4F8000220F02000C4F80002A8690A
:107BB0004FF4A27820B141462046FFF7FDFB6760F5
:107BC0004FF4AC7949462046FFF7F6FBE76047469D
:107BD00049462046FFF7EBFB0028F9D0A86928B1F9
:107BE00039462046FFF7E3FB0028F1D04FF0000AAA
:107BF000C4F800A53068D0F80C25D0F81495D0F85A
:107C00000885D0F810754FF0FF31C0F80C15C0F89A
:107C100014153068C0F80815C0F81015501C02D0B3
:107C20001046FEF740FBB9F1FF3F02D04846FEF791
:107C30003AFB781C02D03846FEF735FBB8F1FF3F1F
:107C400002D04046FEF72FFB2046FFF72CFD85F8BB
:107C500020A0C5F804A0BDE8F0870000303A00205D
:107C600010034200FDF73EBE2DE9F84F05460C46D5
:107C70000888B5F8CA12884279D195F8C6024FF043
:107C8000000A00EB8001C1EB801005EB4006608824
:107C9000002860D13079E288A71D8146D1B250FA20
:107CA00082F2062A02D80844307111E006203071B1
:107CB000374838493288401AC108022000EB014099
:107CC00080463549FEF7E4FD40463449FEF7DCFDC9
:107CD00048460022D0461BE000EBC00102EB8203C5
:107CE00007EB430306EB4101D3F802C0C1F80AC019
:107CF000D3F806C0C1F80EC05B894B82A1F814808E
:107D0000A1F81680A1F81880401CA1F81A80521C16
:107D100031798142E0D895F8C61200EBC00001EB42
:107D20008102C2EB811105EB410136F8100009898F
:107D3000884210D2307906280DD085F8C5022188F6
:107D40002846F8F77DFF002811D022882946BDE893
:107D5000F84FF9F77BBA85F8C5A22288694628460C
:107D6000F9F782F928B122882946F9F76FFABDE8B8
:107D7000F88F9DF800000028F9D0228801212846BC
:107D8000F9F70AFA2188284600F02CFAEFE70000FC
:107D9000980C0300980C0300B4EA0200FCEA02000D
:107DA00070B502468888C97B02EBC004A41D022975
:107DB00001D15188218021886288914213D9A5DFA1
:107DC000012578B111280FD0FFF7D6FA02460748EF
:107DD0000749401AC00805EB0040BDE8704005A106
:107DE000FEF756BD657170BD257170BDB80C0300FE
:107DF000980C030073645F626C655F676174746301
:107E00005F65786368616E67655F6D74755F7265E5
:107E1000717565737428292072657475726E656456
:107E20002025732E00000000F8B505460C46088892
:107E3000B5F8CA12884255D195F8C602A21D00EBCA
:107E40008001C1EB801005EB400695F8C50200EB00
:107E5000C00006EB400160880A3138B329E000BF5A
:107E600000EB400302EB43039F88B7F5245F0CD07F
:107E70006FF4245C17EB0C070AD0012F02D0072FF8
:107E80000BD108E05B884B8107E05B888B8104E0C5
:107E90005B88CB8101E05B880B824B892BB18B899E
:107EA0001BB1CB890BB10B8A1BB9401C13888342D1
:107EB000D6D800208DF8000095F8C5023179401C15
:107EC000884203D101208DF8000010E085F8C5023A
:107ED000228869462846F9F7C7F820B12288294642
:107EE000F9F7B4F9F8BD9DF800000028FAD022880F
:107EF00001212846F9F750F92188284600F072F947
:107F0000F8BD00002DE9F0410746402090B08046C2
:107F1000034609686A461A48FDF78AFA05001948B7
:107F200019494FF00106A0EB01004FEAD00006EB23
:107F3000004408D020462A4614A1FEF7A9FC284692
:107F400010B0BDE8F08107EB470000EB07111D48BA
:107F5000434600EB81010D466A460948FDF7D6FA13
:107F6000020007D0204618A1FEF792FC002085F8F9
:107F7000490001E085F8496085F848600020DFE7A6
:107F800034C40200C80C0300980C03006E72665FD4
:107F900063727970746F5F6563635F627974655F44
:107FA0006F726465725F696E7665727428292072DB
:107FB000657475726E6564206572726F72203078B8
:107FC00025782E00743500206E72665F63727970BA
:107FD000746F5F6563635F7075626C69635F6B6527
:107FE000795F66726F6D5F726177282920726574A0
:107FF00075726E6564206572726F722030782578B4
:108000002E0000007CB506468D88C88806EBC504A6
:10801000A41D172800D217202188814200D80846C5
:1080200060800020207121882846B5DF60B1FFF70D
:10803000A3F902460F481049401AC008012101EB7C
:1080400000400EA1FEF724FC6079002810D13069B1
:1080500000280DD01549D1E90201CDE90001ADF8A4
:1080600002506088ADF80400326969463046904796
:108070007CBD0000B80C0300980C030073645F62C1
:108080006C655F67617474735F65786368616E6760
:10809000655F6D74755F7265706C792829207265F3
:1080A0007475726E65642025732E000098C20200FC
:1080B00070B502888B888CB09A422BD14A8983880C
:1080C0009A4227D102228DF800200288ADF80220C2
:1080D00000228DF806200A7CD30701F101021BD093
:1080E000128AADF8042003230A7CD2060FD50022A1
:1080F0006D46CC899C4208D9CC1805EB4206248AEF
:10810000521C9B1C3481142AF3D38DF806208268FC
:10811000694690470CB070BD4A7CADF8042002233C
:10812000E2E7000070B505460C4690F8C6022288CA
:1081300000EB8001C1EB801005EB4001B5F8CA02ED
:10814000824238D1608848B100212846F9F724F8E6
:1081500021882846BDE8704000F044B8E268C1F8C4
:108160000620E28895F8C412D0B251FA82F2062AAB
:1081700003D8084485F8C40211E0062085F8C4023B
:108180000D480E49401AC108022000EB01460CA11F
:108190003046FEF779FB30461149FEF775FB218822
:1081A0002846F8F74DFD002805D022882946BDE86D
:1081B0007040F9F74BB870BD980C0300980C0300A1
:1081C0004E6F7420656E6F756768207370616365AC
:1081D00020666F722073657276696365732E000086
:1081E00058EB020070B588B00D4604462021684661
:1081F000F4F7C3FF94F8C7021E4B401CC0B284F8CA
:10820000C702DA68002190422CD284F8C51294F893
:10821000C602194E401CC2B202EB820084F8C6228C
:10822000C0EB821006EB820204EB40001268026091
:10823000017102218DF800100121ADF810100068C5
:10824000CDF812000D48CDE902042A466946986827
:10825000FCF74EFB002803D02A462146F8F7F6FF2C
:1082600008B070BD84F8C81229462046F8F77CFF94
:10827000F6E70000BC2D0020943300204D120200D0
:1082800048B1064A0168914205D140680449401846
:1082900002D0012800D0032070470000DEC0ADDE10
:1082A00002FEE10E8A7D022A04D90289CB881A4493
:1082B000D21C02814289C988511AC91E4181704766
:1082C0002DE9F0410D460221904600F580562980A7
:1082D00000F10804144F1BE031462046FAF79AFAE1
:1082E00040B1B8F1000F02D0012288F80020022826
:1082F00016D004E0A0687969884200D9786128889E
:1083000061880844C01C2880608804EB80040C3419
:1083100031462046FAF794FA0028DDD1BDE8F08115
:108320004FF480602880F9E7202F002008B5002155
:10833000009101460823024A0248FDF759FE08BD94
:10834000C8C40200E02F002008B5002000900448B7
:108350000823044A01680448FDF74AFE08BD0000EE
:10836000482F0020C0C40200E02F00202DE9F05F5C
:108370000026DFF81891DFF818B134464FF00308F3
:10838000B2463746D9F80C0000EB07352846FFF710
:1083900077FF98B301284BD0032869D12868411C86
:1083A00002D03C49884205D10120820255F82010B4
:1083B000491C0ED004EB84010BEB8102A8F10100F3
:1083C000556003221FFA80F80BF82120641CA4B228
:1083D0004EE0401C9042E9D32F48016879B104EB8C
:1083E000840002210BF820100BEB80004560018116
:1083F000274828304480641CA4B205E007E002212D
:10840000056081804FF0010A46F0010630E004EB80
:10841000840100220BF821200BEB810101F11002F5
:108420004D6028460831FFF74BFF46F00206CDE7C6
:10843000BAF1000F0FD004EB84000221164A0BF8AA
:1084400020100BEB80001268426001811048283038
:108450004480641CA4B210480022011D0560284617
:10846000FFF72EFF0C48808802280CD00820064316
:108470007F1CBFB2032F85D3B8F1020F00D20026B4
:10848000F0B2BDE8F09F0420F1E70000E02F0020EB
:10849000C43B0020DEC0ADDE482F002001494978F2
:1084A000F7F778BC802E00202DE9F0418846174967
:1084B000174604468978F7F76DFC08B1012600E0FD
:1084C000022604F5807080B2072100F09DF90500B6
:1084D00013D0052D11D0FEF74FFF02460C480D4971
:1084E0002346401AC008012101EB00400A49FEF76B
:1084F000D6F92946204602F0FBFB3B464246314670
:108500002046BDE8F041F8F7C9BC0000802E0020ED
:10851000F80C0300980C030068F6020000B585B063
:1085200002228DF800200288ADF802204079400731
:1085300001D5012000E002208DF808008DF8091017
:108540006846F9F7D3F905B000BD002102F04CBF31
:1085500030B5154685B00C46024605216846FBF746
:10856000A7FF6846CDE90245F9F7CEF905B030BD61
:1085700070B5054D06460024304655F8241088474E
:10858000641C042CF8D370BDD8C202007CB5164D13
:10859000002400BF04EB440005EB800003F06CFCFA
:1085A000641C042CF6D3502104208A00CDE900017C
:1085B0000F490E4B01F5A07000F07AFC012468B160
:1085C000FEF7DAFE02460B480B49401AC00804EBDE
:1085D00000400AA1FEF75CF903207CBD0348001FA0
:1085E000447000207CBD0000383700200C2E002095
:1085F000E8350020E00C0300980C0300504D5F426A
:1086000055464645525F494E4954282920726574A3
:1086100075726E65642025732E00000070B50446E7
:108620000025C1681A4A284600EB400302EB830389
:108630005B688B4204D100EB400002EB800003E05A
:10864000401C0428F0DB00202178082904D00929E7
:1086500008D0132914D112E0617A89B980B103F0EE
:1086600019FC0DE0617A59B950B100214160817A5D
:1086700041F00201817207490120087003E00125E1
:108680002046FFF775FF2846BDE8704001F072BD37
:1086900038370020082E0020002300F089B90000A0
:1086A0007CB506460020019001A9304603F0CCFBC2
:1086B00004461A481A49401AC008012101EB004536
:1086C00019E0A178304600F09FF860B105280AD083
:1086D000FEF752FE0246A078009028463346114924
:1086E000FEF7E5F818E0019801A9401C019030461A
:1086F00003F0AAFB0446002CE3D1304600F0F0F969
:1087000000280AD0072808D0FEF736FE0346284680
:1087100032460549FEF7C3F803207CBDE00C030098
:10872000980C0300BCF1020014F202002DE9F0479E
:108730001F00154681460E4604D0072E05D0082E90
:1087400006D102E00E20BDE8F0870DB1042D01D95D
:108750000720F8E74FF00008484603F05BFB041ED3
:1087600004D0207AA8420BD00F20ECE7FF214FF66F
:10877000FF7003F04FFB041E06D0A0F80090A67017
:10878000607AFF2802D00CE01120DCE729461A4865
:1087900000F05CFB014620466172FF2913D04FF0C8
:1087A00001082572617A144800F094FB02000DD094
:1087B000ABB23146384600F021FAB8F1000F19D0BB
:1087C000082E10D016E003F057FBDDE70B480C49EC
:1087D000627A401AC008012101EB00400949FEF706
:1087E00057F80320AFE738886FF0050101EB8000F0
:1087F000796888800020A6E728370020E00C030075
:10880000980C030048F1020010B503F003FB18B107
:1088100003F040FB002010BD052010BD70B50C46D4
:1088200006461546072901D0082C0ED1104600F047
:1088300062F950B12146304603F0ECFA38B10580B8
:108840008470BDE8704003F03FBA072070BD05207A
:1088500070BD00004FF6FF7141800149096808476B
:10886000C0C2020070B588B02048F9F7EFF90200E5
:108870001F4820494FF00105A0EB01004FEAD0004E
:1088800005EB004406D020461B49FEF701F8032003
:1088900008B070BDF9F7F2F8020005D0204617A124
:1088A000FDF7F6FF8620F3E700F0FAF900200290CA
:1088B0004CF2070603900EE0694604A8F9F794F914
:1088C00000988088A0F5404084B204A8F9F748F9E0
:1088D000204600F0A1F902AA04A93046F9F76BF985
:1088E0000028E9D0154805700020D1E715190200CD
:1088F000D80C0300980C030060F00200436F756C05
:1089000064206E6F7420696E697469616C697A6540
:1089100020666C6173682073746F726167652E20C6
:108920006664735F696E6974282920726574757254
:108930006E656420307825782E000000FC2D002024
:1089400000F090B900F094B970B586B014460E46A8
:10895000054600F041F940B105F5404080B20F4AAC
:108960006946F9F728F940B902E0012006B070BD68
:1089700003A96846F9F738F908B10020F6E7A570B1
:108980000398408820800498606003988088A0F550
:10899000404030806846F9F7E3F8E6E7002E002013
:1089A000024800214160816070470000FC2D0020DA
:1089B000F0B587B01F46154606460C46FF280AD874
:1089C000084600F009F930B104AA2146304600F00B
:1089D000EBF840B902E0072007B0F0BD02A904A8F7
:1089E000F9F702F908B10520F6E7AC700298408863
:1089F00028807FB1840039682646B1EB800F00D211
:108A00000C46039922466868F4F79CFBB44203D2F3
:108A10000C20E1E70398686004A8F9F7A1F80020AA
:108A2000DAE7000070B586B016460D460446FF280A
:108A300028D8A87800F0D0F820B304F54040ADF86D
:108A40000000A87803AA00F54040ADF8020068686D
:108A5000019028880290A978204600F0A5F8052802
:108A6000694603A811D0F9F7E5F8024648F2066115
:108A7000401A8A4226D00BDCDAB1A2F50640023851
:108A80000AD121E0072006B070BDF9F7DBF8ECE76A
:108A9000012815D0072813D00C480D492346401A49
:108AA000C008012101EB00400A49FDF7F8FE032050
:108AB000E9E71EB1314603A8F9F78DF80020E2E797
:108AC0001120E0E78620DEE71020DCE7D80C030069
:108AD000980C0300A4F002004FF6FF7000F09CB861
:108AE00010B5FF2801D9072010BD00F09BF800F059
:108AF00007F8002010BD00F0D9B800F0E1B8000080
:108B0000F0B5244E8DB00020707002904FF6FF75C6
:108B10000390284600F0A6F8044648F2096706E0EC
:108B2000204600F091F8204600F09CF80446AC4244
:108B30002BD004F5404080B202AA04A9F9F743F80B
:108B4000B842EDD004F5404080B2F8F753FF054637
:108B50000120A5F50641073919D0002D15D00E4981
:108B60000E4A2346891AC90800EB01402A460C49DF
:108B7000FDF795FE14220B4907A8F4F7E3FAADF8C8
:108B8000204007A80995FFF765FE0DB0F0BD707095
:108B9000FBE70000FC2D0020D80C0300980C03001C
:108BA000FCF00200C4C202007CB5054616460C4625
:108BB000084600F011F80020009005F540450190AE
:108BC00004F54044A8B2A1B26B463246F8F7ECFF78
:108BD000002800D005207CBD07280DD001280BD02F
:108BE000082809D0052807D0062805D0092803D071
:108BF000042801D0002070470120704710B503EB16
:108C000083034FF6FF7404EA03138170DB1C990899
:108C10004260018010BD00000149F8F747B800002C
:108C20006837002010B50446A0F57F40FF3807D014
:108C300004492046F8F73AF8A04201D1012010BDBE
:108C4000002010BD8837002010B50446044901F00B
:108C500029FC03492046BDE81040203101F022BC28
:108C6000683700200149FBF73CBC00008837002032
:108C700070B50A49FBF735FC04464FF6FF7507E06F
:108C800000F01EF838B105492046FBF72AFC0446DF
:108C9000AC42F5D170BD204670BD000068370020A1
:108CA00001484021F4F769BA68370020FF2803D84B
:108CB00001460248FBF7B4BC00207047683700202B
:108CC000FF2803D801460248FBF7AABC00207047E2
:108CD000883700201CB500F045FC08B1F6F706FC0B
:108CE0000020009001909DF8000020F07A0040F0F4
:108CF0000500303020F080008DF8000007208DF84E
:108D0000010010208DF802009DF8030040F00300E0
:108D10008DF803009DF8040040F003008DF8040076
:108D2000684600F009FF08B1F6F7E0FB034800F0E1
:108D3000EDFE002801D0F6F7D9FB1CBD758F0200AF
:108D40002DE9FF4F97B04FF05000259E4FF00008DF
:108D500016901D465FEA020B89464746404603D0FF
:108D600015B14FF001082860249911B10EB1012707
:108D70003060EA461490CDF854D000243CE05021F5
:108D80006846F4F7FAF9179816AB14AA30F81400ED
:108D90000721FFF70DFE05280CD007280AD09DF803
:108DA0001100400808D0012806D043F202201BB071
:108DB000BDE8F08F0520FAE7B8F1000F0FD0C4EB43
:108DC000C40101EB0B00DDF811100160BDF81510B6
:108DD00081809DF8171081712868401C286057B168
:108DE0002498102200EB04100AF10101F4F7AAF90B
:108DF0003068401C3060641C4C45C0D30020D6E76E
:108E000010B50549C20800F00703885C01249C40A6
:108E10002043885410BD0000FA390020044908445A
:108E200090F93000082801DB0120704700207047CE
:108E30009C3900200449084490F93000082801D2E8
:108E400001207047002070479C3900202DE9F04137
:108E50000F4606002AD0306840B3706830B3FF2454
:108E6000002520E029467068FBF7A5FB80F0010093
:108E7000BFF35F8F48B1FF2C00D12C46281B401C4C
:108E8000B8420ED12046BDE8F081FF2C06D108E0A3
:108E90002146304600F032F8641CE4B2AC42F7D30D
:108EA000FF246D1CEDB2B068A842DBD8FF20EAE7D2
:108EB00070B5DDE9044558B151B14BB104FB05F67D
:108EC000964205D824B11DB180E83A00002070BD5B
:108ED000072070BD70B504000D460DD0206858B154
:108EE000606848B1FF2D07D0FBF7D4FA20B1E168E4
:108EF000206805FB010070BD002070BD70B5040046
:108F00000D4613D02068002810D0606800280DD0CE
:108F1000FF2D0BD0FBF7BEFA002807D0606829466A
:108F2000BFF35F8FBDE87040FBF73ABB70BD000038
:108F3000034A12780AB102F081B808207047000095
:108F4000102E0020054A10B512782AB102F0F8F868
:108F5000082800D1112010BD082010BD102E0020BF
:108F6000034A12780AB1F9F78FBD08207047000054
:108F7000102E002010B5044600F040F9204600F005
:108F80000DF820780C2803D1BDE8104001F0A6BCF4
:108F900010BDF8F795BCF8F793BC00002DE9F0413F
:108FA00005460178614C0020012686B004F1500787
:108FB00015291AD2DFE801F00B19291919193419EA
:108FC000901990191919191919191992AB00A88833
:108FD00000F050FC86280BD0112809D0062804D0B8
:108FE000072802D0132800D0F0BB06B0BDE8F081FE
:108FF0006068A98827F81010401CC11700EB517158
:1090000021F00701401A60608AE0287A012801D027
:109010000028EAD1A88806B0BDE8F04101F07AB88E
:1090200020780028E1D142484249401AC70803206D
:1090300000EB0740804640A1FDF726FC607870B940
:109040006846F8F71BFE051E01D0F6F74FFABDF88B
:10905000060000B10120607080B1002DC5D1F8F785
:10906000EDFC002836D000E003E0A0F5064107390A
:10907000BBD006B0BDE8F041F6F738BA00236A4627
:109080001946184600F084FC05000ED14046BDF894
:10909000002030A1FDF7FCFBBDF8000000F0E0FB74
:1090A000051E0AD0F6F722FA6670052D07D0062DA8
:1090B00009D02846F6F71AFA97E76670CFE706EB6D
:1090C00007402FA103E0022000EB074034A1FDF789
:1090D000DBFB8AE7267088E7667086E720706070A1
:1090E000656800244FF6FF766019C11700EB5171D7
:1090F00021F00701401A07EB40010888B04202D076
:109100000E8001F007F8641C082CEDDB6DE7207081
:10911000A868A0F506410D3902D0B0F5064FCBD1B5
:1091200006B0BDE8F04100F05BB80000202E002042
:10913000F00C0300980C0300417474656D70746941
:109140006E6720746F20636C65616E20666C61735E
:10915000682E000044656C6574696E67206C6F77DB
:109160006573742072616E6B656420706565722032
:1091700028706565725F69643A20256429000000E3
:10918000546865726520617265206E6F2070656538
:10919000727320746F2064656C6574652E00000026
:1091A000506565722072616E6B732066756E6374B4
:1091B000696F6E616C697479206973206469736189
:1091C000626C65642C20736F206E6F207065657211
:1091D00073206172652064656C657465642E00009F
:1091E00000B585B0142204496846F3F7ABFF684622
:1091F000FFF7D4FE05B000BD14C3020010B504464D
:1092000000F026F8207890B1072816D10B480C49B9
:10921000401AC008012101EB00400AA1FDF734FB10
:10922000A068002809D0BDE81040F6F75FB9608853
:10923000BDE810400021F7F753BE10BDF00C03004D
:10924000980C0300417373657274696E672E000099
:109250002DE9FC5F044602785148524D0221401B23
:10926000C008DFF8389101EB00450323012109F123
:109270000C0B03EB004701EB0046A9F1080A09F1CA
:109280001808152A71D2DFE802F019190B1B1919F9
:109290002A2D3448575B63691971191919197A0015
:1092A0006088F6F751FD217A59F820205BF82100FB
:1092B0000090638838463CA1FDF7F9FABDE8FC9FB1
:1092C0006088F6F741FD237A59F8202061895BF820
:1092D0002300CDE900016388384643491AE0284657
:1092E00042A137E0A068FEF747F80246304645A1A4
:1092F0004BE0207CC00701D03AA100E04CA1627A8B
:109300005AF82200CDE90001217AA288384658F89F
:1093100021304A49FDF7D4FAD0E72069FEF72CF84E
:10932000627A5AF82210CDE90010217AA2882846E4
:1093300058F821304249EDE7A288304641A124E0A7
:10934000A068FEF719F80346A288304647A111E04D
:10935000384652A1BDE8FC5FFDF796BAA068FEF75B
:109360000BF80246304652A10FE013E0A388628852
:10937000284658A102B0BDE8F05FFDF790BAA0689A
:10938000FDF7FAFF0246284661A102B0BDE8F05F92
:10939000FDF77EBA28466AA1F7E70000302E0020CC
:1093A000F00C0300980C0300436F6E6E65637469E4
:1093B0006F6E20736563757265643A20726F6C65B9
:1093C0003A2025732C20636F6E6E5F68616E646C4B
:1093D000653A2025642C2070726F63656475726530
:1093E0003A20257300000000CCF40200466C617343
:1093F000682073746F726167652069732066756C8D
:109400006C000000556E6578706563746564206655
:109410006174616C206572726F72206F6363757224
:109420007265643A206572726F723A20257300008B
:109430002C206E6F206368616E67650024F6020061
:10944000D8F50200506565722064656C65746564CA
:10945000207375636365737366756C6C793A2070FD
:109460006565725F69643A20256400005065657225
:109470002064656C6574696F6E206661696C6564F3
:109480003A20706565725F69643A2025642C206516
:1094900072726F723A20257300000000416C6C20DC
:1094A00070656572732064656C657465642E000078
:1094B000416C6C20706565722064656C6574696FC1
:1094C0006E206661696C65643A206572726F723AEB
:1094D000202573004C6F63616C20444220636F75DC
:1094E0006C64206E6F74206265206170706C6965B9
:1094F000643A20636F6E6E5F68616E646C653A20DB
:1095000025642C20706565725F69643A20256400CB
:10951000466C617368206761726261676520636F82
:109520006C6C656374696F6E206661696C6564203C
:1095300077697468206572726F722025732E00003F
:10954000556E657870656374656420504D2065764E
:10955000656E742049443A20307825782E0000004A
:10956000F8F7AEB970B5FFF77DF92749274A891A90
:10957000C908012505EB014430B1FDF7FDFE0346A6
:109580002046234A23A130E0FFF700F830B1FDF771
:10959000F3FE034620461E4A29A126E001F0A0FD65
:1095A00030B1FDF7E9FE03462046194A2FA11CE021
:1095B00001F0A6FE30B1FDF7DFFE03462046144A57
:1095C00035A112E0F8F7C8FE30B1FDF7D5FE03462D
:1095D00020460F4A3BA108E0F9F72AF848B1FDF709
:1095E000CBFE034620460A4A41A1FDF758F9032065
:1095F00070BD4A484FF6FF71818000218160417043
:109600000570084670BD0000E80C0300980C0300CC
:10961000E8C202002573206661696C65642062659A
:109620006361757365207064735F696E697428295E
:109630002072657475726E65642025732E000000BB
:109640002573206661696C6564206265636175736A
:1096500065207064625F696E697428292072657480
:1096600075726E65642025732E00000025732066D8
:1096700061696C6564206265636175736520736DF3
:109680005F696E697428292072657475726E6564ED
:109690002025732E000000002573206661696C652B
:1096A00064206265636175736520736D645F696EC4
:1096B000697428292072657475726E65642025733B
:1096C0002E0000002573206661696C656420626568
:1096D00063617573652067636D5F696E69742829BE
:1096E0002072657475726E65642025732E0000000B
:1096F0002573206661696C656420626563617573BA
:1097000065206773636D5F696E69742829207265CF
:109710007475726E65642025732E0000102E002073
:1097200010B504460748007848B12046FFF70AF90B
:109730000446FFF7E2F90028F7D1204610BD4FF6A6
:10974000FF7010BD102E00202DE9F041044686B0B8
:1097500001278088F9F778F96080207800263F4D4E
:10976000082808D0092820D04FF6FF780A2829D0E9
:109770000B2853D158E0607A10B1012809D04DE090
:10978000A86830B1E168814203D1AE60A088A880AA
:1097900016E06878E8B3A088A98888423ED1207A8C
:1097A00006283BD100F0C4FC38E0607A88BBA8688A
:1097B00078B3E168814231D1AE60E868401EE8606C
:1097C000E6602BE0A878E8B14046FFF7BBF84146D9
:1097D000404517D10846FFF7B3F8404512D1AE70A7
:1097E00014216846F3F7C9FC0C208DF80000ADF891
:1097F0000480ADF8028000272046F8F761F868463B
:10980000F8F75EF8687838B1A088A988884203D153
:1098100000E003E000F08CFC002F1CD006B02046D6
:10982000BDE8F041F8F74CB8A8780028F6D0AE7043
:1098300014216846F3F7A1FC0D208DF80000ADF867
:109840000480ADF80280A06802902046F8F738F84E
:109850006846F8F735F806B0BDE8F081102E002014
:109860000349097809B1F9F7F1B9082070470000F8
:10987000102E0020F0B5324C064687B0207838B163
:109880003049D1E90201CDE90501607818B104E061
:10989000082007B0F0BD00F04BFC6078A168401EC6
:1098A000084301D0112547E0A088002786421CD13B
:1098B000E068D0B1002514216846F3F75EFC08206B
:1098C0008DF800003046F9F7BFF8ADF80200062029
:1098D0008DF80800ADF804608DF8097003978DF8D5
:1098E00010706846F7F7ECFF26E0E068411C25D0D1
:1098F000401C134AE060083205A93046FFF792F891
:10990000050019D0A760E068401EE060112D13D05B
:10991000862D11D0072D0FD02846FDF72DFD0246CC
:1099200009480A493346401AC008012101EB0040AA
:1099300007A1FCF7B4FF03252846AAE71325FBE798
:10994000102E0020E8C20200E80C0300980C03006F
:10995000436F756C64206E6F7420757064617465FC
:109960002072616E6B2E207064625F7261775F732C
:10997000746F726528292072657475726E65642033
:1099800025732E20706565725F69643A2025640036
:109990002DE9FF4F344885B09946007892468B46B2
:1099A000C0B14FF6FF742046FEF7CCFF8046002082
:1099B0000421CDE90210009003A8019002AB6A4691
:1099C00006214046FEF7F4FF00277E1E25460728A5
:1099D00004D017E0082009B0BDE8F08F0520FAE7B1
:1099E0000398B84201D307464546B04201D2064625
:1099F00044464046FEF7A6FF804602AB6A46062173
:109A0000FEF7D6FF0028EBD00528F2D04FF6FF7105
:109A1000884519D18D4201D08C4201D1052000E04A
:109A20000020059901B10D80BBF1000F01D0CBF8EA
:109A30000070BAF1000F01D0AAF80040B9F1000F90
:109A4000C9D0C9F80060C6E7FDF796FC0246074892
:109A500007494346401AC008012101EB004005496F
:109A6000FCF71DFF0320B6E7102E0020E80C0300D2
:109A7000980C0300C8F20200F0B51F4E85B0307894
:109A8000D0B101274FF6FF74B7702046FEF75AFF9A
:109A90000546A0422BD10020B07014216846F3F790
:109AA0006CFB0C208DF80000ADF80440ADF80240CE
:109AB0006846F7F705FF1CE0082005B0F0BD00BFC1
:109AC000FFF7CEFE78B1FDF757FC03460B480C4973
:109AD0000C4A401AC00807EB00400B490095FCF700
:109AE000E6FE0320E9E72846FEF72CFF0546A542DF
:109AF000E6D10020E1E70000102E0020E80C030072
:109B0000980C030004C3020010F30200084A117805
:109B100021B1D178032903D304207047082070476E
:109B2000044B43F82100491CD1700020704700000D
:109B3000102E0020A83700200349097809B101F050
:109B40003BBB082070470000102E0020002801D0E9
:109B5000F7F7B6BE7047000030B4094C24784CB11A
:109B600050EA020409D000B139B102B12BB130BCC6
:109B7000F9F794B8082030BC70470E20FBE70000CE
:109B8000102E0020034A12780AB1F9F7A3B8082072
:109B900070470000102E00202DE9F84F314F054688
:109BA0004FF001090024381990F95A10491C46D089
:109BB00090F85A00294620F0C0063046FAF7CCFD4E
:109BC00070B3204600F050F8824668460096FCF7D5
:109BD000D7FB009900EB8100D0F80007C0F30148E3
:109BE000B8F1020F1DD002213046FCF78BFB68460E
:109BF0000096FCF7C5FB009A09FA02F1C0F820159F
:109C00003046F7F715F857F820204AB15046BAF118
:109C1000030F11D0B8F1020F05D0B8F1030F07D030
:109C20000DE00321E0E75046BAF1010F04D006E051
:109C30005046BAF1020F02D1014630469047641CEB
:109C4000042CB0D32A4602210020FCF773FB00202D
:109C500055F820100029A5D1401C0228F8D3BDE8F2
:109C6000F88F00009C3900200249084490F85A00FF
:109C7000800970479C39002010B50C46017A0529EF
:109C800008D0407A38B1084808A102682046FBF79E
:109C90002DFF00E01AB106A12046FBF727FF204662
:109CA000BDE81040FBF72FBFB02F00202573000048
:109CB0000D0A000038B5C3880D46044633B114A020
:109CC000009015A216A12846FBF710FF217A05295E
:109CD0001CD0607A48B1A088FCF794FC164951F872
:109CE000202016A12846FBF701FFA0880021FCF7E1
:109CF00075FE03461049207A143951F8202001B02E
:109D00002846BDE830400EA1FBF7F0BE38BD00008C
:109D10001B5B306D000000001B5B313B33316D007D
:109D200025734C6F67732064726F707065642028B0
:109D300025642925730D0A00B02F0020257300002B
:109D40003C25733E2025733A2000000003498842D9
:109D500001D10348704700207047000000200040F8
:109D6000C82E00200146054810B50068FAF7ECFB44
:109D700004461C21F3F701FA204610BDB8C40200C6
:109D8000014602480068FAF700BC0000B8C40200AF
:109D9000034802490068FAF7E2BB0000542F002094
:109DA00040C50200F0B591B00E4607460122694653
:109DB000FCF754FF04005AD19DF8000004AD0628BA
:109DC0005DD2DFE800F0030A181F2327BDF8122038
:109DD000BDF810103046A1DF0BE008A80690014640
:109DE000BDF8162000230198FCF7D3FE2946304623
:109DF000A3DF044626E0BDF8101030460DF1120234
:109E00009BDFF6E7294630469DDFF2E729463046DC
:109E10009EDFEEE70CA807900023022208A9019814
:109E2000FCF7B7FE08A80690BDF82020022307998A
:109E30000198FCF7AEFEBDF820E029463046AEDFC3
:109E4000040016D0112C12D09DF80000114951F8D1
:109E5000200010B10198FCF76EFE002269463846DA
:109E6000FCF7FCFE22463146684600F023FB11B0A9
:109E7000F0BDBDF820008645E6D00C24E4E7064896
:109E80000649401AC008022101EB004004A1FCF77A
:109E9000FBFCD9E7A8C20200C00C0300980C030029
:109EA000556E696D706C656D656E746564204741B3
:109EB000545420526571756573740000F0B5264DD9
:109EC000264E85B004460027686828B922493068C4
:109ED0000831FAF74FFB686001460078072817D26F
:109EE000DFE800F0160408080E0E12002046F8F70E
:109EF00045FF02E0204602F05DF8040029D009E0A9
:109F00002046F7F76BF8F8E72046F7F7EDFFF4E7A0
:109F100048F20E6414216846F3F72FF9A4F5E850CF
:109F20001D3800D10024019469466868F7F768FB82
:109F30006846F7F79FFB08496F60002408313068D6
:109F4000FAF70DFB044801210C30FAF7ADFB0028AD
:109F5000BAD105B0F0BD0000202F0020B8C4020027
:109F60002DE9F041234C0025234E207A012730B9FA
:109F70002248311D0068FAF7FDFA306038B102203E
:109F800020723168087928B101281ED116E0656079
:109F9000BDE8F081D1E90503C01A4FF48052904228
:109FA00000D31046B7EB900F01D2820800E00122E7
:109FB0000869C9681844194429DF03E0D1E903019D
:109FC000084428DF58B1112812D003213068F7F770
:109FD00061FB25726560BDE8F041FFF7D9BE207CCA
:109FE0000028D5D1BDE8F04100210220FBF7AEBF2B
:109FF0002772CDE7983C0020502F002040C502007A
:10A000002DE9F04704460068164689460768002196
:10A010002046F6F767FF0546D4F80C806068AE422C
:10A0200007FB08010DD808FB06F24846F3F78AF84B
:10A03000A168B819884200D9002021680860BDE8ED
:10A04000F08708FB05F842464846F3F77BF8E268DC
:10A05000751B6A4309EB08006168F3F773F8206821
:10A060000560ECE710B501210448FAF703FB00286E
:10A0700003D1BDE81040FFF721BF10BD2C2F0020F9
:10A0800010B5074C201DFAF7E6FA002806D1607CCF
:10A09000002803D1BDE81040FFF762BF10BD0000EB
:10A0A000983C002001680A684968914201D3881AE7
:10A0B00070478068801A0844401C704770B58CB0A7
:10A0C0000446C068002209A9FCF7C8FD104D1BE03A
:10A0D000BDF82410A06801EB810100EB810607E0C8
:10A0E0009DF8000055F8200010B10198FCF723FD01
:10A0F000002269463046FCF7B1FD0028F0D000226E
:10A1000009A9E068FCF7AAFD0028E1D00CB070BDF9
:10A11000A8C2020010B586B0044614216846F3F7C1
:10A120002CF8ADF804406846FEF738FF06B010BDC5
:10A130000B4910B500231A46A1F10800FFF728FCCF
:10A1400007490C39052803D038B10020487010BDEC
:10A150004FF6FF7088800020C8600120F6E70000FD
:10A160001C2E002010B510461A46F2F7EBFF002017
:10A1700010BD00002DE9F0438146234885B00178E9
:10A18000002936D00021214F01700D46804601265E
:10A1900005EB450007EB8004A07A810701D4C107D5
:10A1A0002ED088F80060800702D4B9F1000F27D0C4
:10A1B000204601F089FD18B34FF6FF71ADF802108B
:10A1C0002188ADF80410862816D007218DF80010DC
:10A1D0000290FDF7D1F802460D480E492388401A37
:10A1E000C00806EB00400C49FCF759FB6846FEF737
:10A1F000BFF905B0BDE8F08306208DF80000F5E753
:10A200006D1C042DC4D3F4E7082E0020383700203D
:10A21000E00C0300980C030068F202002DE9F047FF
:10A22000074620481C46154600780E4670B18DB191
:10A2300084B1DFF874804FF00009A08802282DD285
:10A2400000EB800118F8210020BB1BE048F2016000
:10A25000BDE8F08748F20460FAE720681FB1818802
:10A260003A8891420ED11EB101883288914209D1BB
:10A2700080682860206868600B4828300089288141
:10A280000020E5E7A088214600F060F80028E4D12E
:10A29000C4F80090A088401CA080CEE748F2096076
:10A2A000D6E70000402F0020C43B0020F8B505464B
:10A2B0004068244F0C46002648B32349CA688242AE
:10A2C00025D80969814222D3F8F7C4FEF8B128895C
:10A2D000398988421BD1D5E900018A68904216D19C
:10A2E0000020A7F1280200BF00EB800302EB8303EC
:10A2F0005B688B4205D203F580538B4201D92080E5
:10A3000011E0401C80B20228EED30020F8BD268068
:10A3100000960AE0009829688068884205D1009874
:10A320006860388928810120F8BD2088694600F0DE
:10A330000DF80028EED12088401C80B22080022831
:10A34000E6D3E2E7EC3B0020E02F002070B50E469C
:10A3500000EB8001134800EB81004468306804F58D
:10A36000805518B1418800EB810411E0083410E0F9
:10A3700029462046F8F74EFA20B1012805D00228D8
:10A3800007D10DE00120346070BD608804EB8004CB
:10A390000C3429462046F8F753FA0028E8D170BD5E
:10A3A000002070BDC43B002038B50C460021009150
:10A3B00001460423084A0948FBF71AFE10B148F287
:10A3C0000D6038BD064A04EB840102EB81010120D7
:10A3D0000874002038BD0000BCC40200E02F00203B
:10A3E000C43B00202DE9F047884600EB80011E4861
:10A3F0001D4600EB810016464168DDF8209001F112
:10A40000080401F580571BE039462046F8F702FAA8
:10A4100068B1012802D0022812D119E03088401C0E
:10A420003080288861880844C01C288004E0B8F87F
:10A430000000401CA8F80000608804EB80040C3485
:10A4400039462046F8F7FCF90028DDD1BDE8F08751
:10A450003088401C30802988381B01EBA000288000
:10A46000012089F80000F1E7C43B002070B50C4BD7
:10A4700000210A4ADC680DE002EB81058678AD78A0
:10A48000B54206D132F821500688B54201D158684C
:10A4900070BD491CA142EFD3002070BD9433002051
:10A4A000BC2D00200A46FF2803D801461046FAF7C3
:10A4B00077B87047F8B515000E46044616D00C481C
:10A4C0000C490095401AC008012101EB0040227898
:10A4D00033460949FCF7EBF9A368002B06D0E16885
:10A4E00001B032462846BDE8F0401847F8BD0000EC
:10A4F000C00C0300980C0300D0EF02002DE9F041DE
:10A50000044600780E46002504F11001062828D2E2
:10A51000DFE800F003080B111418628A218A304624
:10A52000A1DF0DE03046A3DF0AE0218A04F1120228
:10A5300030469BDF04E030469DDF01E030469EDF81
:10A54000054605E0A06907883046AEDF050002D069
:10A55000112D18D00FE0A0690088B8420BD00C254F
:10A5600009E00A480A49401AC008022101EB0040EC
:10A5700008A1FCF789F92A4631462046FFF79AFFE1
:10A580000120BDE8F0810020FBE70000C00C0300C3
:10A59000980C0300556E696D706C656D656E746521
:10A5A00064204741545420526571756573740000EE
:10A5B00010F1380F07D010F1360F07D0002801D066
:10A5C00048F21650704748F21150704748F2145044
:10A5D000704708467047000070B50546F6F763FF00
:10A5E000134C40B1D4E904024FF08071411842F19C
:10A5F0000000C4E9041000212846F6F7A1FE30B19E
:10A60000606820B1606801F013F8002060600121EB
:10A610002846F6F795FE18B1F7F7C4FFC4E906011E
:10A62000284601F031F82846BDE8704000F034B803
:10A63000F02E002070B5054600200C460870F7F794
:10A64000B1FFD5E90223101A63EB0103002631465E
:10A65000361A994112DAB0F5350F03D3F4F752FFE9
:10A660000B4942184FF4960300210A48F6F727FFDA
:10A6700010B10D2806D009E0012070BD0021054869
:10A68000F6F754FE284600F0D3FF2070002070BD7E
:10A69000FFFFB400F82E0020F8B51A4C074600263C
:10A6A0001948FCF729FED0B1616871B1D0E90210F8
:10A6B0006268D2E90232C91A904120D26068007FF4
:10A6C00018B161681048FCF706FE00F013FF05465C
:10A6D0006946FFF7AFFF98B1606840B10AE0606873
:10A6E00000280CD13846BDE8F840F6F7E4BE3846FD
:10A6F000F6F7DDFE65609DF800000028D0D1F8BDBA
:10A700006660CDE7F02E0020A4C4020070B50546B7
:10A7100088690C4600284FF4847128460AD0FCF75B
:10A720003AFED5F81805626AE1688854606A401CF0
:10A73000606270BDFCF72FFED5F8180570BD1FB51F
:10A7400001238DF80030CDE90121D0E900126846DF
:10A7500090471FBD1FB501238DF80030CDE90121C1
:10A76000D0E90012684690471FBD000010B50446AE
:10A77000064801792046F5F70DFB002804D1204654
:10A78000BDE8104000F03CBB10BD0000CC2D002007
:10A7900010B50178B0B0062928D2DFE801F0270310
:10A7A00027273129382120A8F2F7E7FC80216846C5
:10A7B000F2F7E3FC08202E902F9001F02FFA2FAB38
:10A7C0006A462EA920A8FFF7C7F9DDE92E01144C2F
:10A7D00008436178491E084206D100211148FAF762
:10A7E00009FD08B1F4F782FE0020607030B010BDA2
:10A7F00040680028FAD030B0BDE81040F4F776BECB
:10A8000009480A49401AC008032101EB004008A189
:10A81000FCF73AF830B0BDE8104000F05FB8000037
:10A82000A427002028320020880D0300980C030084
:10A830005363616E2074696D6564206F75742E00BA
:10A8400000B585B000200190029003901F48009051
:10A8500001208DF804008DF80C001D4A69461D4842
:10A86000FAF77AFB08B1F4F741FE184804AA103849
:10A870000321406804901748FAF7E2FA08B1F4F7A8
:10A8800035FE12481038F2F783FC40B10F4A002120
:10A89000103A1048FAF7D4FA08B1F4F727FE0E4838
:10A8A000007840B1094A0221D21F0A48FAF7C8FAD3
:10A8B00008B1F4F71BFE00221F210648FAF725FB1A
:10A8C000002801D0F4F712FE05B000BD48C1020017
:10A8D00091A7020028320020A427002010B50020F4
:10A8E000FBF7F0FA18B10E490120887010BD0D4831
:10A8F0000D49401AC008032101EB00400BA1FBF7F2
:10A90000C3FF0E48FAF78AFC08B1F4F7EFFD012007
:10A91000F5F764FF0028E9D0BDE81040F4F7E6BD84
:10A92000A4270020880D0300980C03005374617263
:10A9300074696E67207363616E2E000028320020F8
:10A9400010B50078012803D0BDE81040FFF7C6BF5E
:10A9500009480A49401AC008032101EB004008A138
:10A96000FBF792FFFFF788F8002803D0BDE81040FE
:10A97000F4F7BCBD10BD0000880D0300980C030067
:10A98000457261736520626F6E6473210000000080
:10A9900038B50021012548B1012810D003280DD178
:10A9A000FCF718FDBDE83840FAF7C6BF4FF0E020CD
:10A9B000C0F88051BFF34F8FBFF36F8F38BD8DF854
:10A9C00000106846F4F7FCFD064C207808B9FAF749
:10A9D00093FFE068401CE060A5709DF80000F4F76C
:10A9E00013FE38BD3839002038B5114C58B1032852
:10A9F0001CD100208DF800006846F4F7E1FD2178B5
:10AA0000012909D00EE0207801280FD1FCF7ACFE17
:10AA1000BDE83840FCF7B2BE0649601CFCF768FE92
:10AA2000FCF792FE9DF80000F4F7EEFD38BD000043
:10AA3000A82E0020B97602003EB5044609496846B2
:10AA4000FCF722FC08E000BFD0E900212046904737
:10AA500030B16846FCF72FFC02980028F4D13EBDC7
:10AA600011203EBD1CC702003EB504460849684699
:10AA7000FCF70AFC07E000BFD0E900212046904720
:10AA80006846FCF718FC02980028F5D13EBD00008E
:10AA900028C702002DE9FC47884606462748284972
:10AAA0001C00A0EB01004FEAD0074FF001009146D7
:10AAB00000EB074515D006F5807080B26B46012289
:10AAC0000721FDF733FE112809D080B1FCF754FCB3
:10AAD0000246284633461B49FBF7E1FE0320BDE84A
:10AAE000FC872846184A19A1FBF7D2FEF6E7502149
:10AAF0000198F2F742FB019981F800800198C4F8AF
:10AB00000C90343020600198183020610198401C6E
:10AB100060611B48E061019930461131F7F70AFF87
:10AB20000028DCD0FCF728FC0246022000EB07409E
:10AB300033461449FBF7B3FE0820D0E7F80C0300B6
:10AB4000980C03002CF8020090C30200496E746553
:10AB5000726E616C206572726F723A20257320727A
:10AB600065636569766564204E554C4C20666F724E
:10AB700020705F7365635F6B65797365742E000089
:10AB8000B437002030F70200002835D00278910752
:10AB900001D411062FD4C2F3021104292BD8930734
:10ABA00003D5032901D1110625D5437881788B423D
:10ABB00021D8072B1FD310291DD8C1784B071AD4D1
:10ABC0000079430717D40B0715D4030713D4D20712
:10ABD0004FEAC17201D042B10FE062B989070AD4CD
:10ABE000C10708D1800706D407E0890705D4C1074B
:10ABF00003D1800701D40020704701207047000076
:10AC0000F0B5154E14460F460A4685B00546317814
:10AC1000F5F7D8F8002F1AD00CB1012200E000227D
:10AC200071782846F5F7CEF8012C12D00022B178C1
:10AC30002846F5F7C7F8142208496846F2F782FA61
:10AC4000ADF802508DF808406846F6F74FFE05B0A3
:10AC5000F0BD0122EBE70000802E00202CC3020093
:10AC600001490978F5F796B8802E0020F8B504461A
:10AC7000144800252E46806808B36088F5F71EF852
:10AC8000A0B100200090207A9DF80020410861F3D7
:10AC9000820260F3C302800860F304128DF8002082
:10ACA0006088694600F074FA80F00106608801B09F
:10ACB00032462946BDE8F0400123F8F7FBB90125EB
:10ACC000F4E70000882E002030B585B00C4605461C
:10ACD000142206496846F2F735FAADF80250684684
:10ACE0000294F6F7D1FD05B030BD000028C2020085
:10ACF00030B585B00C460546142206496846F2F781
:10AD000021FAADF8025068460294F6F7EFFD05B05F
:10AD100030BD000040C3020070B50D4C0020D2B21F
:10AD20002070201D0B4D0378EB5C1BB1001DFCF760
:10AD3000B1FE02E00C30FCF7ABFD08B1F4F7D6FB36
:10AD40006078002802D021780029FAD070BD000078
:10AD5000602F0020AC2E0020034800220149C0785B
:10AD6000F4F7BCBF6DA70200CC2D002070B51F49C1
:10AD700088B01F4CD1E900014FF6FF76CDE90501FF
:10AD800030E0002205A9FDF74DFE050026D0142174
:10AD90006846F2F7F2F9A088ADF80400112D17D03B
:10ADA000862D17D02846FCF7E7FA024611481249CB
:10ADB000A388401AC008012101EB00400F49FBF7AE
:10ADC0006EFD07208DF8000002956846F6F76AFDD3
:10ADD00008B070BD06208DF80000F6E7A088FDF7EA
:10ADE000B1FDA080A088B042CBD1F1E77CC20200C7
:10ADF000DC2D0020A80C0300980C030044ED020099
:10AE00002DE9F04F8DB0054601270026F7F7D4FC59
:10AE10000446112821D005DC68B3062870D0082C20
:10AE200008D134E0A4F54050023816D0A0F54070A7
:10AE3000FF386CD02046FCF79FFA02463648374967
:10AE40002B46401AC008012101EB004034A1FBF75A
:10AE500026FD21462846FFF737FF414C3A46284653
:10AE6000E178F4F7AFFF21790DB032462846BDE80E
:10AE7000F04FF4F7A7BF14223A496846F2F762F997
:10AE8000ADF8025001266846F6F7FEFCE5E70DF145
:10AE900014084FF0000901A8B3DFDFF8C8B001249F
:10AEA0000DF1180AABF1440B42F6052E1FE0DBF85A
:10AEB0000C00CDE9030A002206A92046B4DF70B9D0
:10AEC000BDF81810B9F1000F0BD0A1F524500238CD
:10AED0000BD103AA21462846CDF81080ADDF58B12A
:10AEE0000EE0714501D14FF00109641CA4B2BDF818
:10AEF00004008442DBD303E0BDF814000028ACD189
:10AF000000272846F7F7B8FEF7F784FBA5E72846A1
:10AF1000F8F7ECF9A1E70000A00C0300980C03007F
:10AF20006773636D5F736572766963655F6368619C
:10AF30006E6765645F696E645F73656E642829205F
:10AF400072657475726E656420257320666F722059
:10AF5000636F6E6E5F68616E646C653A2025640095
:10AF6000CC2D002050C20200F4F7C0BA10B5044640
:10AF70000020F5F733FC08B1F4F7B8FA24B9F5F777
:10AF800069FB08B1F4F7B2FA012010BD70B5194D94
:10AF9000194C07E0016820788847002829D0154817
:10AFA000FCF789F9A8680028F4D1FBF725FD00BF5C
:10AFB000FBF74EFB0028FBD1207803280CD0022899
:10AFC0000AD0FCF72FF900B133DF0C4901200860EB
:10AFD000BFF34F8F20BFFDE7BFF34F8F08480168D5
:10AFE000084A01F4E06111430160BFF34F8F00BFD5
:10AFF000FDE770BDAC3C0020582F0020000500404C
:10B000000CED00E00400FA0510B5044600F004F968
:10B010002046F9F7CBFD074C002205492079F4F7CB
:10B020005DFE6078BDE8104000220349F4F756BE8B
:10B030004B850200882E0020C13202002DE9FC4120
:10B040000C00074614D0F4F787FE060013D03846EC
:10B05000F7F712FE05462078022E0FD020F00100EF
:10B06000A5F57F412070FF390BD040F008000AE0C1
:10B070000E20BDE8FC8143F20200FAE740F0010037
:10B08000EEE720F0080020703846F4F717FE21782C
:10B0900060F3410121703846F4F746FE217860F3F1
:10B0A000820121703846F4F72FFE70B93846F4F764
:10B0B00005FE70B128466A460721FDF7EDFA40B952
:10B0C000019890F84400C00703D0207840F01000A9
:10B0D00002E0207820F0100020700020C9E7000076
:10B0E00010B5F9F785FC002816D11148F6F729FEAE
:10B0F0000F48401CF6F725FE0D48801CF6F721FE90
:10B100000B48C01CF6F71DFE09480121401E0279BC
:10B11000182A02D04171002010BD0648064A801A44
:10B12000C00801EB00400549FBF7AEFB032010BD52
:10B13000892E0020000D0300980C0300A0EB0200F4
:10B1400000230A461946F7F7B5BF000010B500788E
:10B150000A2809D004DC082806D0092811D103E008
:10B160000B2801D013280CD1074C00220549207967
:10B17000F4F7B4FD6078BDE8104000220349F4F70D
:10B18000ADBD10BD4B850200882E0020C1320200EB
:10B1900038B50C460749096800916946FFF74EFF2C
:10B1A00021789DF800209143084301D0002038BD4C
:10B1B000012038BDB4C3020070B50B4C05004FF040
:10B1C00001060CD0FFF7E0FC58B12868E060287950
:10B1D000207404F10C00A0602670002070BD0020D7
:10B1E000F9E7072070BD0000882E002010B5044646
:10B1F0000078052802D0122809D105E06088A168EE
:10B20000BDE8104000F0F0B82046FFF72FFD2046C3
:10B21000BDE81040F6F778BB30B50446008885B02D
:10B22000192834D00EDC112826D0132822D1A58865
:10B230001422314968460834F1F784FFADF8025012
:10B24000029414E01A2833D01E2813D1A088FFF7E7
:10B2500007FD00280ED12849142224316846F1F751
:10B2600071FFA088ADF80200207A8DF808006846CA
:10B27000F6F73CFB05B030BD207A3D2804D04FF4F2
:10B280008851A088002209E041F23D01F9E7217AC6
:10B29000201D41B14279008802F0030205B0BDE8EB
:10B2A0003040F7F7F3BF05B0BDE83040F4F73EBAE1
:10B2B000A088FDF7F3F80028DCD1A088F4F7FEFCA5
:10B2C0000028A08810D00D4900220978F4F77AFDF3
:10B2D00002208DF80000A088ADF8020000208DF853
:10B2E00008008DF80900C2E705B00122BDE8304032
:10B2F00041F20601F6F752B97CC30200802E00200D
:10B3000010B51548F6F714FD1348401CF6F710FD6C
:10B310001148801CF6F70CFD0F48C01CF6F708FD1D
:10B320000D4801210278182A0BD04278182A08D03B
:10B330008278182A05D0C278182A02D0017100201C
:10B3400010BD0648064A801AC00801EB00400549B6
:10B35000FBF79AFA032010BD802E0020F80C0300A2
:10B36000980C0300A0EB020070B514460D4606468B
:10B37000F4F7EAFC022802D043F2020070BD224634
:10B3800029463046BDE87040F7F702BF2DE9F0418D
:10B3900088B017460E468046F4F7D6FC04460025D2
:10B3A00020216846F1F7E9FE9CB1AEB13078C007C4
:10B3B00014D06B463A4621464046FFF76BFB002807
:10B3C00004D100226B462946404680DF08B0BDE824
:10B3D000F08143F20200F9E78525F2E7014803977F
:10B3E0000790EEE7B43700203EB505460C466846A8
:10B3F000F9F754F86A4621462846FDF7A9F8F9F707
:10B4000039FC024628460099FFF7C0FF0446014672
:10B4100001222846F6F7A4FC21462846009AF6F7B2
:10B4200063F93EBD022801D0032807D10448817882
:10B43000002903D000218170FFF750BA7047000047
:10B44000A4270020002805D10349012048700020CE
:10B45000F5F74CBC704700003839002010B51620B5
:10B46000F3F780FE48B10C4882684FF4800152B176
:10B47000016821F48001016010BDBDE8104042F276
:10B480000100F4F733B84FF0E020C0F88011BFF3AB
:10B490004F8FBFF36F8F10BD003B002010B51620FB
:10B4A000F3F760FEA0B1114890F8000440090828A5
:10B4B00011D20121814011F0EC0F0CD00C488268B0
:10B4C0004FF480016AB1016841F48001016010BD50
:10B4D00042F2010001E042F20200BDE81040F4F740
:10B4E00005B84FF0E020C0F8001110BD16E000E0F4
:10B4F000003B00200148FBF702BF0000A4C402008B
:10B50000C207002A03D000BF4FF00F0201E04FF046
:10B51000F00201D04FEA0111044B03EB50031878FD
:10B5200000EA020040EA010018707047783A0020F3
:10B530002DE9F84F074621489146884605681E4682
:10B54000012269461846F5F787FADFF874A060B360
:10B55000009800210446801C0AE000BF00EA0502B2
:10B5600059F821C00AEB8202401C491CC2F80CC0E9
:10B57000B142F3D34FEA1749F5F7CEFE611C2940DB
:10B580000AEB810149EA00422C40CA600AEB8401BF
:10B59000C86867F3C50066F3891068F39F2020F040
:10B5A0000300401C20F00400C8609AF8000001E08D
:10B5B000FBF74EF80028FBD1BDE8F88F802F002064
:10B5C000503E00207CB5054614480C460022D0E9C8
:10B5D0000510CDE90010124841792846F4F7F2FB36
:10B5E00014B10E48001D01E00C48083001902846B7
:10B5F000F7F742FB00226946FDF714FA00280CD049
:10B60000FBF7BAFE024607480749401AC008022164
:10B6100001EB00400549FBF73BF97CBD0CC2020081
:10B62000CC2D0020A00C0300980C030010EC0200AD
:10B6300070B50446124800250078F8B1F4B1207FB7
:10B64000E0B1F6F7AFFFD4E90223801A994110D395
:10B650002069002600B92677D4E9051088472069BB
:10B6600060B1217F51B1D4E9022110187141C4E9C0
:10B67000020121460348FBF72EFE0125284670BD36
:10B68000F02E0020A4C40200F8B51B4C69462068C7
:10B69000F8F770FF00260127184D29E0017821B145
:10B6A00001290CD002291BD114E041680A7FBAB9E4
:10B6B0000F77416810480830FBF70DFE10E0416835
:10B6C0006868814201D16E600AE00B480830FBF7E0
:10B6D0001DFE05E0FFF70EFF08B10677FAE72F70B1
:10B6E00069462068F8F73BFF69462068F8F742FF93
:10B6F0000028D3D1F8BD00009CC40200F02E002029
:10B70000F8B50B4C0D46064669462068F8F71CFF55
:10B7100058B10670456069462068F8F736FF10B1E9
:10B720000448F5F7ADFE0020F8BD0420F8BD000088
:10B730009CC40200F82E002003488068410803489A
:10B7400000224068F3F71EBFD82E002094C40200E8
:10B7500070B50C4605464FF48E71FBF71CFE216A4E
:10B76000A068415C206A401C2062C5F81C1570BDB1
:10B770001FB500228DF8002002918168019142617D
:10B78000D0E90012684690471FBD1FB500228DF812
:10B7900000200291816801914261D0E9001268465F
:10B7A00090471FBD1FB50A4601788DF8001041680B
:10B7B0000191017A8DF80810C0680390044850F890
:10B7C0002210083850F82220684690471FBD00001C
:10B7D000B82E00200149012008707047602F00201A
:10B7E00010B588B0044620220E496846F1F7AAFC3D
:10B7F00006200090C01F0190029003904FF0EB7064
:10B8000006900CB1084A00E0002269460748FAF7A2
:10B8100039F908B1F3F76AFE0448001F447008B014
:10B8200010BD0000DCC60200D5B70200642F002066
:10B830002DE9FF470C4605464FF40071FBF7B1FDBB
:10B8400001274FF40178002618B34FF49279494646
:10B850002846FBF79BFDE0B149462846FBF79BFDD8
:10B86000C5F8088394F8290000B96F6002208DF8AC
:10B870000000D5F88004C5F880040390A069029008
:10B88000E0680190A661E661D4E90012684690473D
:10B8900028E004212846FBF784FD18B34FF4847197
:10B8A0002846FBF773FDE8B121462846FEF72EFF38
:10B8B000616AA069884215D1E06938B1E268616ABD
:10B8C000A0612069E6616662E06008E094F8290002
:10B8D00000B96F60C5F80883A661E268616A204616
:10B8E000FEF72DFF4FF48E7841462846FBF74EFDBC
:10B8F00080B16069216A814202D294F8280028B39D
:10B9000041462846FBF747FD606918B1616920464A
:10B91000FFF72EFF4FF4A27841462846FBF736FD8D
:10B92000002818D041462846FBF735FD94F8290039
:10B9300000B12F60A06900280DD0A661E268616A9D
:10B9400004B02046BDE8F047FEF7F9BE2146284680
:10B95000FFF7FEFEDEE7BDE8FF8700001FB50A46E1
:10B9600001788DF8001041680191017A8DF8081076
:10B97000C0680390044850F82210083850F822207C
:10B98000684690471FBD0000B82E00202DE9FF41FA
:10B990000C464FF4927705463946FBF708FD002622
:10B9A000B8B139462846FBF707FD02208DF80000A4
:10B9B000D5F88004C5F880040390D5F83C050290C2
:10B9C000E0680190A661E661D4E9001268469047FC
:10B9D00023E04FF4887739462846FBF7E8FCE0B1CE
:10B9E00039462846FBF7E8FCD5F83C15A0698842A3
:10B9F00013D1E06960B1E268D5F8000220F02000C0
:10BA0000C5F80002E069A0612069E661E06001E03C
:10BA1000A661E2682046FEF79DFE4FF4A277394604
:10BA20002846FBF7C4FC68B139462846FBF7C4FC3E
:10BA3000A06938B1A661E661D5F83C152046E268F8
:10BA4000FEF788FE4FF4907631462846FBF7AFFCB0
:10BA500060B131462846FBF7AFFC0120E860606921
:10BA600020B1D5F84C152046FFF78FFE4FF4AC7689
:10BA700031462846FBF79BFC00280ED0314628466D
:10BA8000FBF79AFC6069002807D0D5F84C1504B084
:10BA90002046BDE8F041FFF778BEBDE8FF81000019
:10BAA00010B514210448F1F768FB04480068F8F762
:10BAB00030FD002010BD0000983C002040C5020071
:10BAC0002DE9F05F8346DDE90A4A994690460D4626
:10BAD0000846012703E000BFB0FBF8F07F1C40459B
:10BAE000FAD2B94500D94F465FEACA7012D18CB17B
:10BAF0005FEA8A7002D5B9F1000F01D0202607E075
:10BB0000302605E031465846641EF4F7EFFF0CB1CD
:10BB1000A742F7D35FF00106B9F1010F02D9A9F1ED
:10BB2000010903E0B5FBF6F0404502D306FB08F639
:10BB3000F2E7DFF83C9000BFB5FBF6F000FB1655CE
:10BB400019F800105846F4F7D1FFB6FBF8F6002EAE
:10BB5000F2D15FEACA7009D0002C07D0A74205D203
:10BB600020215846641EF4F7C1FFF5E7BDE8F09FB9
:10BB7000D0C4020010B5094C002207496078F4F7E0
:10BB8000ADF8002806D16079BDE8104000220449D4
:10BB9000F4F7A4B810BD0000AD0F0200CC2D0020BA
:10BBA0008D0B020001460148F8F73ABD183300201A
:10BBB00070B50C460546F4F7BDFF002807D0426873
:10BBC000002A04D021462846BDE87040104770BDC9
:10BBD00010B504281DD209B1032400E00024F4F7B5
:10BBE0007BFC202802D24FF0A04102E00A4900F07D
:10BBF0001F0001EB8000D0F8001721F44031C0F89D
:10BC00000017D0F8001741EA0441C0F800170020DF
:10BC100010BD062010BD0000000300502DE9FF41BB
:10BC20004FF6FF752A4610216846F1F79FFA6F46D6
:10BC300008262846FDF774FD002404E027F81400C8
:10BC4000641CFDF76DFDA84201D0761EF6D2214698
:10BC50006846FDF797FF08B1F3F748FC21466846B0
:10BC6000FDF77EF9062803D0002801D0F3F73EFC4B
:10BC7000BDE8FF81002070472DE9F84F114D88463F
:10BC800081461E4617466946DDF828A02868F8F761
:10BC90005BFC040013D01C21F1F76FFA0020207127
:10BCA000C4F80090C4E90486C4E902A7694628687C
:10BCB000F8F76BFCFEF7E4F90020BDE8F88F0420EC
:10BCC000FBE7000040C502002DE9FC4104460020CE
:10BCD00000900190A0788DF80200617A2D48FDF760
:10BCE000F9F82D492D4A891AC908012606EB0145A4
:10BCF00080B10246A178237A6846FCF77FFF9DF861
:10BD0000020001280ED006280CD0072808D00828E9
:10BD100011D10AE0627A284621A1FAF7B9FD1FE0A5
:10BD2000142006E0ADF8006005E001988088093035
:10BD30008008ADF800002088221D6946FCF772FEDD
:10BD400088B107280DD02649112811D0862818D08F
:10BD5000FBF712FB02462388284622A1FAF79FFD33
:10BD60000320BDE8FC81A17A21F00301A172F8E76C
:10BD7000A07A20F0010040F00200A0720E700020B6
:10BD8000EFE7A27A22F0020242F00102A2720E70E4
:10BD9000E7E7000028370020E00C0300980C0300C0
:10BDA000706D5F6275666665725F7074725F6765FD
:10BDB00074282920636F756C64206E6F742072651F
:10BDC0007472696576652052414D206275666665BC
:10BDD000722E20626C6F636B5F69643A2025640089
:10BDE000082E00207064735F706565725F64617413
:10BDF000615F73746F726528292072657475726E45
:10BE000065642025732E20706565725F69643A2031
:10BE10002564000038B505460C46002001E0009876
:10BE2000401C00906946284600F00EF800280AD011
:10BE30008178A142F3D1817A8A07F0D4C907EED183
:10BE400041680029EBD138BD10B50A4B0A680CE0F7
:10BE500002EB420433F82440844205D102EB420055
:10BE600003EB80000A6010BD521C042AF0D30020AE
:10BE700010BD0000383700204FF6FF710180FF2110
:10BE800081704172817A21F0030181720021017277
:10BE90004160704770B50546002406E0687A20448A
:10BEA000C1B20648FDF72AF8641C287AA042F5D8EA
:10BEB0002846BDE87040FFF7DFBF000028370020AC
:10BEC0002DE9FC47064639489846144600780D4649
:10BED0004FF0000978B37DB32888A0F57F41FF3982
:10BEE00033D0688848B36868F7F7B4F880B384B390
:10BEF0002088ADF80000678801A8FDF733FF040033
:10BF000034D084F800804FF0000A84F816A0BDF801
:10BF10000000A08268682061244801210C38F8F7ED
:10BF20009DFBE060288820816888A080E780B8F1C8
:10BF3000030F23D026E001E004E006E048F20160B0
:10BF4000BDE8FC8748F20460FAE748F20360F7E7CF
:10BF500000E002E048F20260F2E72889694687B211
:10BF6000384600F0AFF80028EAD1C5E7BDF8001068
:10BF7000384600F09BF848F20760E1E70420A0751E
:10BF80003068A061A4F80A9001A8FDF7F9FE46B157
:10BF9000C6F804A0E1680648316086F80AA0008966
:10BFA0003081FEF75FF80020CAE70000402F002034
:10BFB000EC3B00202DE9F8430D46898A384A01EB15
:10BFC000810102EB810638B129463046FCF76AF957
:10BFD0004FF40640BDE8F88331897068002400EB17
:10BFE00081072F48A97DA83848F20D6807294FD24C
:10BFF000DFE801F00D2E172504414B004460A969CC
:10C00000016027482749A838FEF750F930B10220CF
:10C01000A875042339462A1D009424E048F20960DB
:10C02000D8E728692A4608B1032000E0012090756E
:10C03000042305F10C0207F10801009413E001202C
:10C04000A8750094E88807F10C0183002A690AE0CA
:10C0500028782A4603280CD006209075042305F181
:10C060000802391D00941048F9F7C2FFB0B14446E8
:10C0700010E00520F1E70621A9750A494068098802
:10C08000FEF792F9040005D108E041F61D5401E0E5
:10C0900048F20E6429463046FCF704F9204699E739
:10C0A000C43B0020202F0020E02F002001EB810264
:10C0B000034901EB82014A89101AC01E488170476A
:10C0C000C43B002070B5C01C82B240F2FE308242F8
:10C0D00002D948F2086070BD114B00204FF4806512
:10C0E00000EB800413F8246096B903EB84063489CE
:10C0F000768914443444A4B2AC4209D8088000EBD9
:10C10000800003EB8000418911444181002070BD13
:10C11000401C80B20228E3D348F2066070BD0000E4
:10C12000C43B002014310020F42F00200800000040
:10C130002000000001000000000000000D180100B8
:10C14000028DFE238677D9000C010000A086010035
:10C1500050C30000B80B0000000000000D0E0F10CF
:10C160000B0C1819A8320020C8320020F832002029
:10C170000B000300750602000C00030075060200A8
:10C18000180003007506020019000300750602007E
:10C19000010000000000000000000000000000009E
:10C1A000000000000000000000000000000000008F
:10C1B000000000000000000000000000000000007F
:10C1C000000000000000000000000000000000006F
:10C1D000000000000000000000000000000000005F
:10C1E000000000000000000000000000000000004F
:10C1F000000000000000000000000000000000003F
:10C200000000000000000000000000000100FFFF2F
:10C21000010000000000000002000000000000001B
:10C2200001000900000000000700000000000000FD
:10C2300000000000000000000000000006000000F8
:10C2400000000000000000000000000000000000EE
:10C2500010000000000000000000000000000000CE
:10C2600000000000110000000000000000000000BD
:10C2700000000000000000000100000001000100BB
:10C2800078C20200010001008CC202000000000020
:10C29000619502001D230200770A000000000000E3
:10C2A000770A000000000000000000007D1E020070
:10C2B000000000000000000000000000A91E0200B5
:10C2C0001D860200070000000000000000000000C2
:10C2D0000000000000000000499702004DB102007C
:10C2E00081270200ED230200706D5F696E697400A2
:10C2F000010006001C2E0020706D5F706565725F86
:10C300006E657700706D5F70656572735F64656CF4
:10C3100065746500060000000000000000000000D9
:10C320000000000000000000EDB10200010000006C
:10C3300000000000000000000000000000000000FD
:10C3400007000000000000000000000000000000E6
:10C3500000000000060000000000000000000000D7
:10C3600000000000000000000300000000000000CA
:10C3700000000000000000000000000005000000B8
:10C3800000000000000000000000000000000000AD
:10C390007365635F6B65797365745F66696C6C0068
:10C3A000120000000000000000000000000000007B
:10C3B00000000000E00000004D9B020000000000B3
:10C3C0000000000000000000F3530200D7520200FA
:10C3D0002153020019540200115302006F5302004E
:10C3E000915302009153020053530200A1530200E3
:10C3F000A1530200A1530200B7530200B753020039
:10C40000B7530200C7530200C7530200C7530200CC
:10C41000000000000000000000000000000000001C
:10C42000000000000000000000000000DD530200DA
:10C43000C7520200480028000020400045D10100FA
:10C4400000000000000000000000000000000000EC
:10C4500000000000000000000000000000000001DB
:10C46000FFFFFFFF00000000FFFFFFFFFFFFFFFFD8
:10C47000BCE6FAADA7179E84F3B9CAC2FC63255087
:10C48000010600000000005000030050AD770200DC
:10C49000197A020003000000583A0020983A002060
:10C4A0000100060000000000102F0020310D0200E6
:10C4B0000338FDD8704700000C3B00200000FFFF50
:10C4C000DEC0ADDEFF011EF1DEC0ADDEFE011EF1FD
:10C4D00030313233343536373839414243444546BA
:10C4E0006E72665F6673746F726167655F696E69AD
:10C4F00074006E72665F6673746F726167655F75F4
:10C500006E696E6974006E72665F6673746F7261D5
:10C5100067655F72656164006E72665F6673746FF3
:10C52000726167655F7772697465006E72665F66D7
:10C5300073746F726167655F657261736500000097
:10C54000FC3B00200010000004000000010000007F
:10C55000492D0200A1BA020065A1020079BC0200C7
:10C56000B5150200D3A5020075BC0200A92F020078
:10C570000000000000000000F80D0300FC0D0300A7
:10C58000000000000000000070C5020088C5020025
:10C5900004000000556E6B6E6F776E206572726FCF
:10C5A0007220636F6465000000000000D4FD02008B
:10C5B0000100000080FC02000200000074FA02008A
:10C5C00003000000F4FC02000400000048FD02002B
:10C5D0000500000028FC020006000000C4FB020069
:10C5E0000700000030FD0200080000003CFC0200D3
:10C5F00009000000A0FC02000A000000BCFD0200CF
:10C600000B0000005CFA02000C00000054FC020069
:10C610000D00000024FE02000E00000020FD0200BC
:10C620000F0000005CFD02001000000090FD020001
:10C630001100000038FE0200120000000CFE020093
:10C6400013000000A8FD020080000000DCFB0200D7
:10C650008100000018FB020082000000D8FA0200EE
:10C6600083000000B8FA020084000000F4FA02001F
:10C670008500000000FC02008600000008FD0200AA
:10C6800090000000A4FB02009100000098FA020054
:10C690009200000068FC02000082000070FD0200B1
:10C6A00001820000BCFC020002820000D8FC0200F3
:10C6B0000084000034FB020001840000E0FD020061
:10C6C000028400007CFB02000384000058FB02008F
:10C6D000ED650200C1650200B9650200FFFFFFFFC2
:10C6E000FFFFFFFFFFFFFFFFFFFFFFFF0000000056
:10C6F000000000000000D60106010000B83D002047
:10C700007F000000383E00204C0E0300540E030052
:10C7100000000000000000000100000708C7020040
:10C7200018C702000800000040C7020050C70200FE
:10C730000800000050C7020060C7020008000000A7
:10C740007C0E0300940E03000000000000000000B7
:10C750006C0E03007C0E03000000000000000000CF
:10C76000FC0D0300040E0300040E0300340E03004E
:10C77000340E0300440E0300440E03004C0E03006D
:10C78000A027002060C7020080C702000800000048
:10C79000540E0300640E0300640E03006C0E0300CD
:10C7A00090C70200A0C7020008000000637C777BEE
:10C7B000F26B6FC53001672BFED7AB76CA82C97D9D
:10C7C000FA5947F0ADD4A2AF9CA472C0B7FD93262E
:10C7D000363FF7CC34A5E5F171D8311504C723C332
:10C7E0001896059A071280E2EB27B27509832C1A76
:10C7F0001B6E5AA0523BD6B329E32F8453D100EDD0
:10C8000020FCB15B6ACBBE394A4C58CFD0EFAAFBB3
:10C81000434D338545F9027F503C9FA851A3408F7B
:10C82000929D38F5BCB6DA2110FFF3D2CD0C13EC93
:10C830005F974417C4A77E3D645D197360814FDC28
:10C84000222A908846EEB814DE5E0BDBE0323A0A0C
:10C850004906245CC2D3AC629195E479E7C8376D90
:10C860008DD54EA96C56F4EA657AAE08BA78252EB5
:10C870001CA6B4C6E8DD741F4BBD8B8A703EB5663E
:10C880004803F60E613557B986C11D9EE1F898112F
:10C8900069D98E949B1E87E9CE5528DF8CA1890D1E
:10C8A000BFE6426841992D0FB054BB16C66363A51D
:10C8B000F87C7C84EE777799F67B7B8DFFF2F20D26
:10C8C000D66B6BBDDE6F6FB191C5C5546030305013
:10C8D00002010103CE6767A9562B2B7DE7FEFE19E7
:10C8E000B5D7D7624DABABE6EC76769A8FCACA4520
:10C8F0001F82829D89C9C940FA7D7D87EFFAFA15AA
:10C90000B25959EB8E4747C9FBF0F00B41ADADEC86
:10C91000B3D4D4675FA2A2FD45AFAFEA239C9CBF0E
:10C9200053A4A4F7E47272969BC0C05B75B7B7C2FC
:10C93000E1FDFD1C3D9393AE4C26266A6C36365ABB
:10C940007E3F3F41F5F7F70283CCCC4F6834345C2F
:10C9500051A5A5F4D1E5E534F9F1F108E27171933F
:10C96000ABD8D873623131532A15153F0804040C33
:10C9700095C7C752462323659DC3C35E3018182848
:10C98000379696A10A05050F2F9A9AB50E07070943
:10C99000241212361B80809BDFE2E23DCDEBEB26BA
:10C9A0004E2727697FB2B2CDEA75759F1209091B20
:10C9B0001D83839E582C2C74341A1A2E361B1B2D63
:10C9C000DC6E6EB2B45A5AEE5BA0A0FBA45252F6D3
:10C9D000763B3B4DB7D6D6617DB3B3CE5229297B8A
:10C9E000DDE3E33E5E2F2F7113848497A65353F546
:10C9F000B9D1D16800000000C1EDED2C40202060CD
:10CA0000E3FCFC1F79B1B1C8B65B5BEDD46A6ABECA
:10CA10008DCBCB4667BEBED97239394B944A4ADEBC
:10CA2000984C4CD4B05858E885CFCF4ABBD0D06B87
:10CA3000C5EFEF2A4FAAAAE5EDFBFB16864343C5D7
:10CA40009A4D4DD766333355118585948A4545CF28
:10CA5000E9F9F91004020206FE7F7F81A05050F030
:10CA6000783C3C44259F9FBA4BA8A8E3A25151F3C0
:10CA70005DA3A3FE804040C0058F8F8A3F9292AD98
:10CA8000219D9DBC70383848F1F5F50463BCBCDFCE
:10CA900077B6B6C1AFDADA754221216320101030C3
:10CAA000E5FFFF1AFDF3F30EBFD2D26D81CDCD4C61
:10CAB000180C0C1426131335C3ECEC2FBE5F5FE18A
:10CAC000359797A2884444CC2E17173993C4C4577E
:10CAD00055A7A7F2FC7E7E827A3D3D47C86464ACD0
:10CAE000BA5D5DE73219192BE6737395C06060A0DB
:10CAF000198181989E4F4FD1A3DCDC7F44222266AE
:10CB0000542A2A7E3B9090AB0B8888838C4646CA79
:10CB1000C7EEEE296BB8B8D32814143CA7DEDE7933
:10CB2000BC5E5EE2160B0B1DADDBDB76DBE0E03BB3
:10CB300064323256743A3A4E140A0A1E924949DB5C
:10CB40000C06060A4824246CB85C5CE49FC2C25DF3
:10CB5000BDD3D36E43ACACEFC46262A6399191A849
:10CB6000319595A4D3E4E437F279798BD5E7E732B0
:10CB70008BC8C8436E373759DA6D6DB7018D8D8C10
:10CB8000B1D5D5649C4E4ED249A9A9E0D86C6CB4FD
:10CB9000AC5656FAF3F4F407CFEAEA25CA6565AF56
:10CBA000F47A7A8E47AEAEE9100808186FBABAD593
:10CBB000F07878884A25256F5C2E2E72381C1C244C
:10CBC00057A6A6F173B4B4C797C6C651CBE8E823FD
:10CBD000A1DDDD7CE874749C3E1F1F21964B4BDD6C
:10CBE00061BDBDDC0D8B8B860F8A8A85E0707090ED
:10CBF0007C3E3E4271B5B5C4CC6666AA904848D822
:10CC000006030305F7F6F6011C0E0E12C26161A3BE
:10CC10006A35355FAE5757F969B9B9D0178686912D
:10CC200099C1C1583A1D1D27279E9EB9D9E1E13807
:10CC3000EBF8F8132B9898B322111133D26969BB22
:10CC4000A9D9D970078E8E89339494A72D9B9BB652
:10CC50003C1E1E2215878792C9E9E92087CECE495E
:10CC6000AA5555FF50282878A5DFDF7A038C8C8FD2
:10CC700059A1A1F8098989801A0D0D1765BFBFDA7E
:10CC8000D7E6E631844242C6D06868B8824141C3E3
:10CC9000299999B05A2D2D771E0F0F117BB0B0CB6B
:10CCA000A85454FC6DBBBBD62C16163AA5C66363BC
:10CCB00084F87C7C99EE77778DF67B7B0DFFF2F222
:10CCC000BDD66B6BB1DE6F6F5491C5C5506030300F
:10CCD00003020101A9CE67677D562B2B19E7FEFEE3
:10CCE00062B5D7D7E64DABAB9AEC7676458FCACA1C
:10CCF0009D1F82824089C9C987FA7D7D15EFFAFAA6
:10CD0000EBB25959C98E47470BFBF0F0EC41ADAD82
:10CD100067B3D4D4FD5FA2A2EA45AFAFBF239C9C0A
:10CD2000F753A4A496E472725B9BC0C0C275B7B7F8
:10CD30001CE1FDFDAE3D93936A4C26265A6C3636B7
:10CD4000417E3F3F02F5F7F74F83CCCC5C6834342B
:10CD5000F451A5A534D1E5E508F9F1F193E271713B
:10CD600073ABD8D8536231313F2A15150C0804042F
:10CD70005295C7C7654623235E9DC3C32830181844
:10CD8000A13796960F0A0505B52F9A9A090E07073F
:10CD9000362412129B1B80803DDFE2E226CDEBEBB6
:10CDA000694E2727CD7FB2B29FEA75751B1209091C
:10CDB0009E1D838374582C2C2E341A1A2D361B1B5F
:10CDC000B2DC6E6EEEB45A5AFB5BA0A0F6A45252CF
:10CDD0004D763B3B61B7D6D6CE7DB3B37B52292986
:10CDE0003EDDE3E3715E2F2F97138484F5A6535342
:10CDF00068B9D1D1000000002CC1EDED60402020C9
:10CE00001FE3FCFCC879B1B1EDB65B5BBED46A6AC6
:10CE1000468DCBCBD967BEBE4B723939DE944A4AB8
:10CE2000D4984C4CE8B058584A85CFCF6BBBD0D083
:10CE30002AC5EFEFE54FAAAA16EDFBFBC5864343D3
:10CE4000D79A4D4D5566333394118585CF8A454524
:10CE500010E9F9F90604020281FE7F7FF0A050502C
:10CE600044783C3CBA259F9FE34BA8A8F3A25151BC
:10CE7000FE5DA3A3C08040408A058F8FAD3F929294
:10CE8000BC219D9D4870383804F1F5F5DF63BCBCCA
:10CE9000C177B6B675AFDADA6342212130201010BF
:10CEA0001AE5FFFF0EFDF3F36DBFD2D24C81CDCD5D
:10CEB00014180C0C352613132FC3ECECE1BE5F5F86
:10CEC000A2359797CC884444392E17175793C4C47A
:10CED000F255A7A782FC7E7E477A3D3DACC86464CC
:10CEE000E7BA5D5D2B32191995E67373A0C06060D7
:10CEF00098198181D19E4F4F7FA3DCDC66442222AA
:10CF00007E542A2AAB3B9090830B8888CA8C464675
:10CF100029C7EEEED36BB8B83C28141479A7DEDE2F
:10CF2000E2BC5E5E1D160B0B76ADDBDB3BDBE0E0AF
:10CF3000566432324E743A3A1E140A0ADB92494958
:10CF40000A0C06066C482424E4B85C5C5D9FC2C2EF
:10CF50006EBDD3D3EF43ACACA6C46262A839919145
:10CF6000A431959537D3E4E48BF2797932D5E7E7AC
:10CF7000438BC8C8596E3737B7DA6D6D8C018D8D0C
:10CF800064B1D5D5D29C4E4EE049A9A9B4D86C6CF9
:10CF9000FAAC565607F3F4F425CFEAEAAFCA656552
:10CFA0008EF47A7AE947AEAE18100808D56FBABA8F
:10CFB00088F078786F4A2525725C2E2E24381C1C48
:10CFC000F157A6A6C773B4B45197C6C623CBE8E8F9
:10CFD0007CA1DDDD9CE87474213E1F1FDD964B4B68
:10CFE000DC61BDBD860D8B8B850F8A8A90E07070E9
:10CFF000427C3E3EC471B5B5AACC6666D89048481E
:10D000000506030301F7F6F6121C0E0EA3C26161BA
:10D010005F6A3535F9AE5757D069B9B99117868629
:10D020005899C1C1273A1D1DB9279E9E38D9E1E103
:10D0300013EBF8F8B32B989833221111BBD269691E
:10D0400070A9D9D989078E8EA7339494B62D9B9B4E
:10D05000223C1E1E9215878720C9E9E94987CECE5A
:10D06000FFAA5555785028287AA5DFDF8F038C8CCE
:10D07000F859A1A180098989171A0D0DDA65BFBF7A
:10D0800031D7E6E6C6844242B8D06868C3824141DF
:10D09000B0299999775A2D2D111E0F0FCB7BB0B067
:10D0A000FCA85454D66DBBBB3A2C161663A5C663B8
:10D0B0007C84F87C7799EE777B8DF67BF20DFFF21E
:10D0C0006BBDD66B6FB1DE6FC55491C5305060300B
:10D0D0000103020167A9CE672B7D562BFE19E7FEDF
:10D0E000D762B5D7ABE64DAB769AEC76CA458FCA18
:10D0F000829D1F82C94089C97D87FA7DFA15EFFAA2
:10D1000059EBB25947C98E47F00BFBF0ADEC41AD7E
:10D11000D467B3D4A2FD5FA2AFEA45AF9CBF239C06
:10D12000A4F753A47296E472C05B9BC0B7C275B7F4
:10D13000FD1CE1FD93AE3D93266A4C26365A6C36B3
:10D140003F417E3FF702F5F7CC4F83CC345C683427
:10D15000A5F451A5E534D1E5F108F9F17193E27137
:10D16000D873ABD831536231153F2A15040C08042B
:10D17000C75295C723654623C35E9DC31828301840
:10D1800096A13796050F0A059AB52F9A07090E073B
:10D1900012362412809B1B80E23DDFE2EB26CDEBB2
:10D1A00027694E27B2CD7FB2759FEA75091B120918
:10D1B000839E1D832C74582C1A2E341A1B2D361B5B
:10D1C0006EB2DC6E5AEEB45AA0FB5BA052F6A452CB
:10D1D0003B4D763BD661B7D6B3CE7DB3297B522982
:10D1E000E33EDDE32F715E2F8497138453F5A6533E
:10D1F000D168B9D100000000ED2CC1ED20604020C5
:10D20000FC1FE3FCB1C879B15BEDB65B6ABED46AC2
:10D21000CB468DCBBED967BE394B72394ADE944AB4
:10D220004CD4984C58E8B058CF4A85CFD06BBBD07F
:10D23000EF2AC5EFAAE54FAAFB16EDFB43C58643CF
:10D240004DD79A4D335566338594118545CF8A4520
:10D25000F910E9F9020604027F81FE7F50F0A05028
:10D260003C44783C9FBA259FA8E34BA851F3A251B8
:10D27000A3FE5DA340C080408F8A058F92AD3F9290
:10D280009DBC219D38487038F504F1F5BCDF63BCC6
:10D29000B6C177B6DA75AFDA2163422110302010BB
:10D2A000FF1AE5FFF30EFDF3D26DBFD2CD4C81CD59
:10D2B0000C14180C13352613EC2FC3EC5FE1BE5F82
:10D2C00097A2359744CC884417392E17C45793C476
:10D2D000A7F255A77E82FC7E3D477A3D64ACC864C8
:10D2E0005DE7BA5D192B32197395E67360A0C060D3
:10D2F000819819814FD19E4FDC7FA3DC22664422A6
:10D300002A7E542A90AB3B9088830B8846CA8C4671
:10D31000EE29C7EEB8D36BB8143C2814DE79A7DE2B
:10D320005EE2BC5E0B1D160BDB76ADDBE03BDBE0AB
:10D33000325664323A4E743A0A1E140A49DB924954
:10D34000060A0C06246C48245CE4B85CC25D9FC2EB
:10D35000D36EBDD3ACEF43AC62A6C46291A8399141
:10D3600095A43195E437D3E4798BF279E732D5E7A8
:10D37000C8438BC837596E376DB7DA6D8D8C018D08
:10D38000D564B1D54ED29C4EA9E049A96CB4D86CF5
:10D3900056FAAC56F407F3F4EA25CFEA65AFCA654E
:10D3A0007A8EF47AAEE947AE08181008BAD56FBA8B
:10D3B0007888F078256F4A252E725C2E1C24381C44
:10D3C000A6F157A6B4C773B4C65197C6E823CBE8F5
:10D3D000DD7CA1DD749CE8741F213E1F4BDD964B64
:10D3E000BDDC61BD8B860D8B8A850F8A7090E070E5
:10D3F0003E427C3EB5C471B566AACC6648D890481A
:10D4000003050603F601F7F60E121C0E61A3C261B6
:10D41000355F6A3557F9AE57B9D069B98691178625
:10D42000C15899C11D273A1D9EB9279EE138D9E1FF
:10D43000F813EBF898B32B981133221169BBD2691A
:10D44000D970A9D98E89078E94A733949BB62D9B4A
:10D450001E223C1E87921587E920C9E9CE4987CE56
:10D4600055FFAA5528785028DF7AA5DF8C8F038CCA
:10D47000A1F859A1898009890D171A0DBFDA65BF76
:10D48000E631D7E642C6844268B8D06841C38241DB
:10D4900099B029992D775A2D0F111E0FB0CB7BB063
:10D4A00054FCA854BBD66DBB163A2C166363A5C6B4
:10D4B0007C7C84F8777799EE7B7B8DF6F2F20DFF1A
:10D4C0006B6BBDD66F6FB1DEC5C554913030506007
:10D4D000010103026767A9CE2B2B7D56FEFE19E7DB
:10D4E000D7D762B5ABABE64D76769AECCACA458F14
:10D4F00082829D1FC9C940897D7D87FAFAFA15EF9E
:10D500005959EBB24747C98EF0F00BFBADADEC417A
:10D51000D4D467B3A2A2FD5FAFAFEA459C9CBF2302
:10D52000A4A4F753727296E4C0C05B9BB7B7C275F0
:10D53000FDFD1CE19393AE3D26266A4C36365A6CAF
:10D540003F3F417EF7F702F5CCCC4F8334345C6823
:10D55000A5A5F451E5E534D1F1F108F9717193E233
:10D56000D8D873AB3131536215153F2A04040C0827
:10D57000C7C7529523236546C3C35E9D181828303C
:10D580009696A13705050F0A9A9AB52F0707090E37
:10D590001212362480809B1BE2E23DDFEBEB26CDAE
:10D5A0002727694EB2B2CD7F75759FEA09091B1214
:10D5B00083839E1D2C2C74581A1A2E341B1B2D3657
:10D5C0006E6EB2DC5A5AEEB4A0A0FB5B5252F6A4C7
:10D5D0003B3B4D76D6D661B7B3B3CE7D29297B527E
:10D5E000E3E33EDD2F2F715E848497135353F5A63A
:10D5F000D1D168B900000000EDED2CC120206040C1
:10D60000FCFC1FE3B1B1C8795B5BEDB66A6ABED4BE
:10D61000CBCB468DBEBED96739394B724A4ADE94B0
:10D620004C4CD4985858E8B0CFCF4A85D0D06BBB7B
:10D63000EFEF2AC5AAAAE54FFBFB16ED4343C586CB
:10D640004D4DD79A33335566858594114545CF8A1C
:10D65000F9F910E9020206047F7F81FE5050F0A024
:10D660003C3C44789F9FBA25A8A8E34B5151F3A2B4
:10D67000A3A3FE5D4040C0808F8F8A059292AD3F8C
:10D680009D9DBC2138384870F5F504F1BCBCDF63C2
:10D69000B6B6C177DADA75AF2121634210103020B7
:10D6A000FFFF1AE5F3F30EFDD2D26DBFCDCD4C8155
:10D6B0000C0C141813133526ECEC2FC35F5FE1BE7E
:10D6C0009797A2354444CC881717392EC4C4579372
:10D6D000A7A7F2557E7E82FC3D3D477A6464ACC8C4
:10D6E0005D5DE7BA19192B32737395E66060A0C0CF
:10D6F000818198194F4FD19EDCDC7FA322226644A2
:10D700002A2A7E549090AB3B8888830B4646CA8C6D
:10D71000EEEE29C7B8B8D36B14143C28DEDE79A727
:10D720005E5EE2BC0B0B1D16DBDB76ADE0E03BDBA7
:10D73000323256643A3A4E740A0A1E144949DB9250
:10D7400006060A0C24246C485C5CE4B8C2C25D9FE7
:10D75000D3D36EBDACACEF436262A6C49191A8393D
:10D760009595A431E4E437D379798BF2E7E732D5A4
:10D77000C8C8438B3737596E6D6DB7DA8D8D8C0104
:10D78000D5D564B14E4ED29CA9A9E0496C6CB4D8F1
:10D790005656FAACF4F407F3EAEA25CF6565AFCA4A
:10D7A0007A7A8EF4AEAEE94708081810BABAD56F87
:10D7B000787888F025256F4A2E2E725C1C1C243840
:10D7C000A6A6F157B4B4C773C6C65197E8E823CBF1
:10D7D000DDDD7CA174749CE81F1F213E4B4BDD9660
:10D7E000BDBDDC618B8B860D8A8A850F707090E0E1
:10D7F0003E3E427CB5B5C4716666AACC4848D89016
:10D8000003030506F6F601F70E0E121C6161A3C2B2
:10D8100035355F6A5757F9AEB9B9D0698686911721
:10D82000C1C158991D1D273A9E9EB927E1E138D9FB
:10D83000F8F813EB9898B32B111133226969BBD216
:10D84000D9D970A98E8E89079494A7339B9BB62D46
:10D850001E1E223C87879215E9E920C9CECE498752
:10D860005555FFAA28287850DFDF7AA58C8C8F03C6
:10D87000A1A1F859898980090D0D171ABFBFDA6572
:10D88000E6E631D74242C6846868B8D04141C382D7
:10D890009999B0292D2D775A0F0F111EB0B0CB7B5F
:10D8A0005454FCA8BBBBD66D16163A2C52096AD547
:10D8B0003036A538BF40A39E81F3D7FB7CE3398285
:10D8C0009B2FFF87348E4344C4DEE9CB547B9432D4
:10D8D000A6C2233DEE4C950B42FAC34E082EA1661C
:10D8E00028D924B2765BA2496D8BD12572F8F664F3
:10D8F00086689816D4A45CCC5D65B6926C7048506E
:10D90000FDEDB9DA5E154657A78D9D8490D8AB0022
:10D910008CBCD30AF7E45805B8B34506D02C1E8F4B
:10D92000CA3F0F02C1AFBD0301138A6B3A91114187
:10D930004F67DCEA97F2CFCEF0B4E67396AC742270
:10D94000E7AD3585E2F937E81C75DF6E47F11A71EE
:10D950001D29C5896FB7620EAA18BE1BFC563E4B27
:10D96000C6D279209ADBC0FE78CD5AF41FDDA833E9
:10D970008807C731B11210592780EC5F60517FA929
:10D9800019B54A0D2DE57A9F93C99CEFA0E03B4D58
:10D99000AE2AF5B0C8EBBB3C83539961172B047ECC
:10D9A000BA77D626E169146355210C7D51F4A7504E
:10D9B0007E4165531A17A4C33A275E963BAB6BCBE7
:10D9C0001F9D45F1ACFA58AB4BE303932030FA5559
:10D9D000AD766DF688CC7691F5024C254FE5D7FCF7
:10D9E000C52ACBD726354480B562A38FDEB15A490C
:10D9F00025BA1B6745EA0E985DFEC0E1C32F75028C
:10DA0000814CF0128D4697A36BD3F9C6038F5FE765
:10DA100015929C95BF6D7AEB955259DAD4BE832D41
:10DA2000587421D349E069298EC9C84475C2896AEE
:10DA3000F48E797899583E6B27B971DDBEE14FB607
:10DA4000F088AD17C920AC667DCE3AB463DF4A18C2
:10DA5000E51A31829751336062537F45B16477E0B4
:10DA6000BB6BAE84FE81A01CF9082B9470486858EB
:10DA70008F45FD1994DE6C87527BF8B7AB73D323C7
:10DA8000724B02E2E31F8F576655AB2AB2EB2807B1
:10DA90002FB5C20386C57B9AD33708A5302887F2F5
:10DAA00023BFA5B202036ABAED16825C8ACF1C2B93
:10DAB000A779B492F307F2F04E69E2A165DAF4CDEA
:10DAC0000605BED5D134621FC4A6FE8A342E539DEE
:10DAD000A2F355A0058AE132A4F6EB750B83EC396D
:10DAE0004060EFAA5E719F06BD6E10513E218AF91B
:10DAF00096DD063DDD3E05AE4DE6BD4691548DB545
:10DB000071C45D050406D46F605015FF1998FB249D
:10DB1000D6BDE997894043CC67D99E77B0E842BD2E
:10DB200007898B88E7195B3879C8EEDBA17C0A4747
:10DB30007C420FE9F8841EC900000000098086833A
:10DB4000322BED481E1170AC6C5A724EFD0EFFFB6D
:10DB50000F8538563DAED51E362D39270A0FD964AC
:10DB6000685CA6219B5B54D124362E3A0C0A67B11F
:10DB70009357E70FB4EE96D21B9B919E80C0C54F82
:10DB800061DC20A25A774B691C121A16E293BA0A7A
:10DB9000C0A02AE53C22E043121B171D0E090D0B05
:10DBA000F28BC7AD2DB6A8B9141EA9C857F11985B7
:10DBB000AF75074CEE99DDBBA37F60FDF701269F93
:10DBC0005C72F5BC44663BC55BFB7E348B432976B7
:10DBD000CB23C6DCB6EDFC68B8E4F163D731DCCA10
:10DBE000426385101397224084C61120854A247D04
:10DBF000D2BB3DF8AEF93211C729A16D1D9E2F4B46
