:020000040000FA
:10000000D04A0020150300001D0300001F0300005C
:10001000210300002303000025030000000000006E
:1000200000000000000000000000000027030000A6
:1000300029030000000000002B0300002D03000036
:100040002F0300002F030000052F00002F030000E6
:100050002F0300002F0300002F0300002F030000D8
:100060002F0300002F0300002F0300002F030000C8
:100070002F030000A92C00002F0300002F03000015
:100080002F0300002F0300002F0300002F030000A8
:100090002F0300002F0300002F0300002F03000098
:1000A0002F0300002F0300002F0300002F03000088
:1000B0002F0300002F0300000000000000000000DC
:1000C0002F0300002F0300002F0300002F03000068
:1000D0002F0300002F0300002F0300002F03000058
:1000E0002F0300002F0300000504000000000000A3
:1000F000000000002F030000000000002F0300009C
:1001000000000000000000000000000000000000EF
:1001100000000000000000000000000000000000DF
:1001200000000000000000000000000000000000CF
:1001300000000000000000000000000000000000BF
:1001400000000000000000000000000000000000AF
:10015000000000000000000000000000000000009F
:10016000000000000000000000000000000000008F
:10017000000000000000000000000000000000007F
:10018000000000000000000000000000000000006F
:10019000000000000000000000000000000000005F
:1001A000000000000000000000000000000000004F
:1001B000000000000000000000000000000000003F
:1001C000000000000000000000000000000000002F
:1001D000000000000000000000000000000000001F
:1001E000000000000000000000000000000000000F
:1001F00000000000000000000000000000000000FF
:10020000DFF80CD000F0ECF8004800478D3A000011
:10021000D04A002000B583B002900091019244F2D0
:10022000010071466A4602F037FF03B000BD0000CE
:1002300030B4044654E8000F0D4644E80053002B48
:10024000F8D1156030BC704730B4044654E8000F54
:1002500040EA010544E80053002BF7D1156030BC9B
:10026000704730B4044654E8000F00EA010544E842
:100270000053002BF7D1156030BC704730B40446F2
:1002800054E8000F80EA010544E80053002BF7D141
:10029000156030BC704730B4044654E8000F00EBE2
:1002A000010544E80053002BF7D1156030BC7047BE
:1002B00030B4044654E8000FA0EB010544E80053B5
:1002C000002BF7D1156030BC704770B404464FF076
:1002D000000054E8006F0D68AE4207BF44E80023F9
:1002E000012044E800630E60002B1CBF0020F0E7F3
:1002F00070BC704730B4044654E8000F88422CBFED
:10030000451A054644E80053002BF5D1156030BC72
:10031000704700000648804706480047FEE7FEE7B2
:10032000FEE7FEE7FEE7FEE7FEE7FEE7FEE7FEE7A5
:10033000312D000001020000004870479462000067
:1003400010B5441A0346944209D28418114403E0BC
:1003500011F8013D04F8013D521EF9D210BD40EAEA
:100360000104A40703D009E010C9121F10C3042A16
:10037000FAD203E011F8014B03F8014B521EF9D2F7
:1003800010BDD2B201E000F8012B491EFBD270472C
:100390000022F6E710B513460A4604461946FFF751
:1003A000F0FF204610BD421C10F8011B0029FBD1B4
:1003B000801A704730B504460020034600E05B1CFD
:1003C000934203D2E05CCD5C401BF8D030BD0346C5
:1003D00011F8012B00F8012B002AF9D118467047BB
:1003E000064C074D06E0E06840F0010394E8070082
:1003F00098471034AC42F6D3FFF706FF2C6F00008D
:100400004C6F00000B490C4B0C4A4FF0FF3008605A
:100410001B68BFF35B8F52E8001F42E800300028E2
:10042000F9D1BFF35B8F9942F3D1BFF35F8F044AD9
:100430001360704704BA025000BA0250C42A002068
:1004400008BA0250F0B5BDB004460E466846F02129
:1004500017461D4601F034FF042C2FD8DFE804F0C6
:1004600030351F2E0300032300938023294A17935E
:10047000294B2A4C3994CDE93A236846A047284CA9
:10048000A0421BD032D828B3B0F5720F3BD1254C17
:100490006846F02101F014FF20463DB0F0BD224C2B
:1004A000224A39940123009340231793204B684636
:1004B000CDE93A23A0471A4CA042E3D11D4CE7E70F
:1004C000194C1A4A39940023EDE7174C174A39940E
:1004D0000223E8E78FB1DEB1019BBBB93A46314652
:1004E000684602F0E5FAA042E8D004D9124B9842DF
:1004F00009D1124CCCE70028C6D12946684600F045
:1005000023F80446C4E74FF47504C1E70C4CBFE779
:100510000C4CBDE7B11D0000E50D0000BD10000052
:100520000100F2000002F00069100000891B0000C9
:10053000610D00000102F0000200F2000202F00072
:100540000C02F0000302F00070B5002837D00E4610
:10055000002937D0026E0446DAB9114601236360E0
:100560002046D4F8E8309847B0B9D4F8EC302046AB
:1005700098470546C0B923682066032B1CD8144A47
:1005800004F1080152F82320304601F095FE284678
:1005900070BD00F16401E1E7A0F57203022B13D8EE
:1005A000A0F5FF35284670BDA0F57203022B0BD8CD
:1005B000A0F5FF35284670BD064D284670BD064D96
:1005C000284670BD054DE2E74FF47505DFE700BF33
:1005D000C86900000102F0000002F0000502F0000E
:1005E000002849D038B50D46F021044601F068FED8
:1005F000042D04D8DFE805F01E2A310305001F484A
:1006000038BD1F491F4A204BC4F8E430C4E93A12F0
:10061000032580202560E065204698471B4B9842C3
:10062000EDD021D80028EBD0B0F5720F21D1A0F584
:10063000FF3038BD164B1749174AC4F8E43000257F
:100640004020C4E93A122560E065E5E7104B114906
:10065000114AC4F8E4300225F2E70D4B0D490E4A69
:10066000C4F8E4300125EBE70C4B984201D10C486B
:1006700038BD4FF4750038BD0A4870470102F000DC
:10068000B11D0000E50D0000BD1000000100F200EA
:1006900069100000891B0000610D00000200F200DB
:1006A0000202F0000002F0002DE9F041002853D0D2
:1006B000154622B30E46002961D0D0F804800446C6
:1006C000B8F1000F20D1D0E91723D01AB0FBF2F710
:1006D00002FB1707AF4228BF2F4687BB9A4224D0A0
:1006E000B5FBF2F702FB07F747B1D4F8E8303A461A
:1006F000314620469847A0BB3E44ED1B4DB94FF014
:1007000000084046BDE8F081DFF88C804046BDE837
:10071000F081206E19302A46314604EB800001F04A
:10072000CBFD226E2A442266EBE7D4F8E83004F1D0
:10073000640120469847A0B9E26D2066D0E704F135
:10074000640018443A4601F0B7FDD4E917233B444E
:100750003E44ED1B2366C1E7DFF838804046BDE824
:10076000F0810B4B984210D0013398420AD0094BCC
:10077000B0F5720F14BF4FF475089846C1E7DFF863
:100780001C80BEE7DFF81880BBE7DFF81880B8E709
:100790000100F2000002F0000C02F0000302F00081
:1007A0000202F0000102F00070B3F0B51F4B0268C6
:1007B0009A4291B0044624D10D4639B3D0F8843022
:1007C00000F18806032B3046694634BF4027802756
:1007D000FFF7BAFE08B111B0F0BDD4F8841030466E
:1007E000FFF7FEFE0028F6D13A46211D3046FFF7FE
:1007F0005BFF0028EFD1D4F88430042B08D90C48D3
:10080000E9E70C4811B0F0BD0B4870470B48E2E730
:100810000B4A6946D25C3046FFF746FF0028DAD122
:1008200029463046FFF790FED5E700BF896745238C
:100830000103F0000203F0000003F0000503F000E4
:10084000A8690000002864D02DE9F0419046B0B0BE
:10085000002A60D01E46002B57D002290D460446C0
:100860001FD9CB1E012B1ED880274FF4BC71204608
:1008700001F026FD802110A801F022FDBE42324683
:10088000414614D96B462846FFF7DCFD60B9042DBC
:1008900009D8224B694633F8152010A801F00CFD49
:1008A00008E04027E1E71E4830B0BDE8F08110A81D
:1008B00001F002FDBE08201D10A9002251F8043BE2
:1008C000013283F05C33B24240F8043BF6D300219E
:1008D00010AA1368013183F036338E4242F8043B8C
:1008E000F7D804F1880630462946FFF779FE00283C
:1008F000DAD13A4610A93046FFF7D6FE0028D3D108
:10090000084BC4F884502360CEE7074830B0BDE8F8
:10091000F081064870470648C6E700BF9C690000A2
:100920000103F000896745230703F0000003F0008E
:100930000603F000B0B170B40B4D0668AE4205D1AD
:1009400039B162B170BC8830FFF7AEBE074870BCE9
:100950007047002A064870BC08BF00207047104648
:1009600070BC704703487047896745230203F00055
:100970000303F0000003F00070B5002849D00D46D5
:10098000002943D0244E04464FF0FF31306801F077
:10099000B7FC90BB002001F0DFFC50BB20462A468C
:1009A000012101F077FE0446012001F0D5FCB8B921
:1009B000306801F0BFFC50B9012001F0CDFC08B94E
:1009C000204670BD154801F01DFC204670BD14483E
:1009D00001F018FC012001F0BFFC0028F0D0F1E785
:1009E0000E4801F00FFC306801F0A4FC0028E3D0B1
:1009F000EDE70C4801F006FCD0E70B4801F002FCE3
:100A0000002001F0A9FC0028C8D0F2E7074C2046DE
:100A100070BD074C204670BDD44A00205C690000C0
:100A2000446900007C6900002C690000200CF00083
:100A3000250CF00000284CD0F0B50D4689B00029F7
:100A400038D00446E42101F03BFC01A9204601F026
:100A5000F5F910B1204809B0F0BD204F4FF0FF313B
:100A6000386801F04DFC80BB002001F075FC40BBF4
:100A700001A92A46204600F0D1FE0646012001F0D9
:100A80006BFCD0B9386801F055FC78B9002EE1D183
:100A90002046E42101F014FC29462046FFF76CFFB4
:100AA0000F4B002818BF184609B0F0BD0D4801F0E3
:100AB000A9FBEBE70C4809B0F0BD0C4801F0A2FB24
:100AC000E0E70B4801F09EFBD2E70A4801F09AFBF1
:100AD000CAE70948704700BF110CF000D44A002053
:100AE000120CF00044690000200CF0005C6900006A
:100AF0007C6900002C690000250CF0002DE9F04114
:100B0000002800F081801D46036A072B0F4604462B
:100B100016D055B9032B0FD1036B6BB9C0E90F5534
:100B2000C0E9115500F13C0710252B4639462046F7
:100B3000BDE8F04100F0B6BE2E463046BDE8F0817B
:100B4000436B002B37D1B5F5805F39D215B9236BD4
:100B5000002B35D167484FF0FF3101F0D1FB002861
:100B600040F09780002001F0F7FB002840F09980CA
:100B7000614B01221A60236A032B23DC002B23DA4A
:100B80005E4E5F4A1368002BFCD15B495D4A0B60E7
:100B9000106840F0400001F0BDFA012001F0DCFBDC
:100BA00000287AD1534801F0C5FB0028C5D056482B
:100BB00001F028FBC1E7012BC8D1B5F5803FC5D3B3
:100BC000524EBAE7072BDBD1636A012B78D8636BEF
:100BD000012B57D8A36B012B00F28480204600F034
:100BE000E9F906460028CCD1A36A012B6AD033F07C
:100BF000020271D0236A013B062B13D8DFE803F011
:100C000009440912121209004FF471063046BDE87A
:100C1000F0813F4B22681A6062685A60A2689A604D
:100C2000E268DA603B493C4A01230B601560002D05
:100C30003BD1226B0AB9394A1360314B1E68002E32
:100C4000FCD1236A013B062B9BD801A252F823F06A
:100C50006D0C00008D0C00006D0C0000830B00007B
:100C6000830B0000830B00006D0C0000284A2C4B06
:100C7000126822601A6862605A68A26008331B68B2
:100C8000E3607EE7274E7CE7274BC3E7264A274BE6
:100C9000EEE7274801F0B6FA64E7264801F0B2FA19
:100CA00080E7254801F0AEFA62E7636B012B1BD0A9
:100CB000224A234B176010201D6001F033FABCE775
:100CC000204E5EE7204B22691A6062695A60A26971
:100CD0009A60E269DA608DE71C491D4A0B600123C6
:100CE000136087E71B4E4CE71B4A1C4B17604020E4
:100CF0001D60E2E7E44A002010B802500100F10054
:100D000010B9025004BA0250386D00000500F1001D
:100D100040B402507CB40250BCB4025024B502501E
:100D200044B402500300F10060B4025064B40250B5
:100D3000206D0000E06C0000006D000030BC02502F
:100D400034BC02500200F10000B4025038BA025024
:100D500078B402500400F10028BC02502CBC0250B0
:100D600000283BD0F0B482B0436A0193836893FAC1
:100D700083FC019BD0E90712D0E90376D0E9055442
:100D80001BBA4362436C019309BA836AC16112BA08
:100D900002623FBAD0E90F1236BA2DBA24BAC0E9BE
:100DA00002C7C0E90465C76A066B456B846193FAA4
:100DB00083FC846B019B3FBA36BA2DBA24BA09BAB8
:100DC00012BA1BBAC0E90AC7C0E90C65C0E90E41F6
:100DD000C0E91023002002B0F0BC70474FF472004D
:100DE000704700BF002800F098802DE9F0414C4B7F
:100DF000826D9A42E0B0804603D04A4860B0BDE8B8
:100E0000F081016E00F148052846C900042200F077
:100E10008BF8D8F8543020A84FF4807200211CBA07
:100E200001F04CFAD8F85C20E308B3FBF2F402FBC3
:100E30001434141B102C98BFA41820ABA4F110007C
:100E400018442946102280258DF8805001F034FA8C
:100E50002A46684608F1640101F02EFAD8E9172302
:100E60000DEB05010DEB0300D21A01F025FAD8E9CC
:100E70001753ED1AADB26946404600F039F9A54264
:100E80003FD3D8E90641D8E90823D8E90207D8E9D1
:100E9000046500BA3FBA24BA09BA12BAC8E90270A6
:100EA00036BAD8F83400C8F81C402DBAD8F830400B
:100EB000C8F818101BBAC8F82420D8E90F12D8F8BF
:100EC0003870C8F81460C8F81050D8F82860D8F8FE
:100ED0002C50C8F82030D8F8443024BA00BAC8E9F9
:100EE0000C0436BA2DBA3FBA09BA12BA1BBA00209E
:100EF000C8E90A56C8E90E17C8E9103260B0BDE863
:100F0000F08120AB59196846D8F85C2001F0D4F97B
:100F10006946404600F0ECF8B3E74FF472007047C2
:100F2000785634120200F200F0B48AB3051F2B4643
:100F300005EB8206970053F8044F24BA9E421C60CA
:100F4000F9D13C1F03595918015116D3931E00EBD8
:100F5000830150F82340661CA64240F823600CD859
:100F60000BB90AE03BB151F8044D651CA54203F1F1
:100F7000FF330D60F6D94AB1051F2846002150F80D
:100F8000043F01311BBA8A420360F8D8F0BC7047B5
:100F900050F8043C5B1840F8043CF7D350F8084C78
:100FA000631C9C4240F8083CA0F10801EED36FF0AE
:100FB0000103D8E738B5224B224A012105461960C2
:100FC0001368002BFCD1204A1368002BFCD11F4A68
:100FD0001368002BFCD11E4A1368002BFCD11D4B5B
:100FE0001C68002CFCD14FF0FF3001F087F82B6A11
:100FF00023F00403032B184B18680CBF20F04000AB
:1010000020F0800001F086F8144B00221A602B6A51
:1010100023F00402032A18BF6C6A114A4FEA8303C3
:1010200018BF04F0010403F01C031C4314602B6A76
:10103000072B02D10B4B01221A60002038BD00BFE4
:1010400000B9025070B4025020BD025020BC0250C2
:1010500038BD025038BC025004BA0250BCB4025031
:10106000C0B402507CB40250E8B110B50468012C41
:1010700004D0022C10D044B10C4810BD0C490830EB
:10108000202201F019F9002010BD0A49083014226D
:1010900001F012F9204610BD07490830202201F066
:1010A0000BF9002010BD4FF4720070470100F200F0
:1010B0000C6A0000D8690000EC69000078B110B536
:1010C0000368032B044601D0064810BD06494022A0
:1010D000083001F0F1F8054BA365002010BD4FF476
:1010E000720070470100F200EC680000785634127C
:1010F0002DE9F04F2DED028BADF5597D00F108057E
:101100000C464022002128A8FFF744F9294628A8C8
:10111000402201F0D1F82A9B1493319B1593329B06
:101120001693339B1793349B1893359B1993369BD7
:101130001A93379B1B93289B1293299B2B9A2D98CC
:101140002F9F309E2C99139308EE105A784B2E9DAA
:101150001C921E9021971F961D91209504F1040C5E
:1011600001930D92DDE915420292179A0392189AA3
:10117000149B0B92199A0093DDE91AAB03460C926B
:101180003046DDE912620DF1E009CDE90607CDF840
:1011900020A0CDF824B00A9104951746CA469B4674
:1011A00012E002990B9103990C9100990A9106990A
:1011B000DDF834B00096CDE902140D97CDF818E0B3
:1011C00044461E461746704683044FEA844EA103E8
:1011D0004EEA903E43EA943841EA90410B9BC205A7
:1011E000850302988EEA010142EA542283EA000E46
:1011F00006984A4045EA9445E10588EA05030EEA67
:10120000000E0C9D249241EA502103980B9ADDF8C0
:101210009090594045400C9B2591DCF800005CF80B
:10122000041C25405D408EEA0202964690FA80F842
:10123000259A259509BA3D01CAE9008101982599A9
:1012400045EA1678B50745EA970519EB0E0388EAD3
:101250000505F0E9028941EB0202710641EAD71166
:101260004D4001900A9900982495350145EA177E72
:101270000143BD070A9845EA96058EEA05058646AC
:10128000009831400EEA000E41EA0E010D982291BD
:10129000790641EAD61113EB080385EA01054BEA0A
:1012A000000142EB09023940FAE8028925950BEA70
:1012B00000050D43DDF890E022992395089D0998DB
:1012C00013EB080342EB09025B1942EB00000246F4
:1012D000DDF894800498239D11EB0E0145EB080581
:1012E00010EB030E0798CDF81CB040EB0208CDE9D7
:1012F0002215CB180B99089158A945EB02020A98C0
:101300000C9D049051450CF1080C09957FF449AFF0
:101310001946084B0E93B6ABCDF83CB0CDE9074665
:10132000DDF800B00997CDE9001236A8119314E05A
:10133000286A0000A86A0000069A0292079A03929F
:10134000DDE908B20D92009A0892019A0992CDE95E
:101350000034CDE906E8CE46D046D0E91E64F3005D
:10136000620343EA547342EAD6425A40A30643EA70
:101370009613D0E9047C5A404FEAC409730343EA48
:10138000D44349EA5676056D5E4086EA94164FEAE4
:10139000CC73446DA91843EA57094FEA0C6344EB38
:1013A000060643EA17234FEA884489EA030344EA1E
:1013B0009E394FEA883444EA9E44C0E9221689EAFD
:1013C0000404F0E9029ACDE9049A4FEA4C6949EA2B
:1013D000D71983EA090326934FEA0769FB0743EA13
:1013E0005C0349EA1C275F404FEACE53029A069DF0
:1013F000DDF898A043EA58235C40249414466C40DE
:1014000004EA0E04079D5440039A87EADC174FEA6A
:101410008E434FEA8E3C27974CEA984C82EA0507A8
:1014200043EA9833049D83EA0C0307EA08074FEA6E
:10143000C85C57404CEA5E2C4A19059D83EA0C03B0
:10144000DDF89CC0259345EB060612EB0A0246EB3D
:101450000C01019E249B009D2494DDE92494259792
:10146000370147EA15770E9DDDF894C0C0F880205B
:1014700013EB0903F5E9029A0E95009D109144EBD8
:101480000C044FEA857C009DC0F88410CDE9049AD5
:101490004CEA960C4FEA0519009D009987EA0C0763
:1014A00049EA16794FEA867C089E4CEA950C009D25
:1014B00089EA0C094BEA060C0CEA050C049D5B1941
:1014C000059D45EB0404019D4FEA416A4AEAD51A9D
:1014D000009987EA0A0A6F0647EAD117099D0D9914
:1014E00089EA07070BEA06094CEA090CCDF888C01F
:1014F0009B1841EA050C01EA0502109D019E45EB8F
:1015000004040B9DCDE924A75B190C9D0CEA060C85
:101510004CEA020244EB0505DDF888C091462C46F2
:10152000259A0A9DCDF828B01CEB0A0749EB020268
:1015300015EB03090F9D0F9145EB040AFB1842EBD5
:101540000404CDE92272029A0B92039A0C92119A2A
:1015500082427FF4F1AE129A0898219E159FD3180B
:10156000139ADDE9001542EB0404149A52181C99F1
:10157000009241EB05051D99099A2B9509181E98B3
:10158000019140EB020220980D99049210EB0B00A0
:1015900046EB01011F9E08901698069A049D09913A
:1015A00016EB090647EB0A0710EB0E0E179840EBF7
:1015B0000808189810EB020C1998079A40EB0209DA
:1015C0001A98029A10EB020A1B98039A2D95099D0E
:1015D0002F95009D2A95019D2C9540EB020B089DAF
:1015E000CDF8C8E038A84FF420720021CDE92834A6
:1015F000CDF8D0C03197CDF8CC80CDF8D490CDF8CF
:10160000DCB02E953096CDF8D8A000F057FE18EE3D
:10161000100A28A9402200F04FFE0DF5597DBDECBF
:10162000028BBDE8F08F00BF002861D02DE9F041AA
:101630004C1EB4F5047F27D233B32AB3CD00012B5F
:1016400005F1FF3E30D000218C460F460E4603F1D7
:10165000FF384C0901F01F0550F824401F2D24FAD3
:1016600005F418BF04F0010421B90126B44631463F
:101670002746EEE7B34213D0A74201D10CF1010C8B
:10168000464504D1624502D21A48BDE8F0813C4685
:1016900001318E4506F10106EAD20020BDE8F08155
:1016A00000264FF0010CF3E70026B44637463446D7
:1016B000610904F01F0350F821101F2B21FA03F1D8
:1016C00018BF01F001013CB15FB98C4501D0614602
:1016D00008E00136614605E0012634468C460127C4
:1016E000E6E73E46B242CFD30134AC42F6D1D4E76E
:1016F00000487047370CF10030B585B004460D4600
:10170000104803924FF0FF3100F0FAFD039A68B9D8
:10171000204600950123002100F0D0F90446094835
:1017200000F008FE38B9204605B030BD064800F08C
:1017300069FD039AECE7054800F064FD204605B01A
:1017400030BD00BFE44A0020B06C0000C86C00004F
:101750000B6802E0082B0B6006D8426813424FEA80
:101760004303F7D00020704700487047310CF10068
:101770000138072805D8DFE800F00A0E0412040437
:101780000406094870478B698B6000207047CB685E
:101790008B60002070470B698B60002070474B699D
:1017A0008B600020704700BF310CF10030B4DDE9E0
:1017B0000234049D02940024CDE9035430BC01F0AE
:1017C00045B800BFF0B4C900002401F1FF3C264633
:1017D000274606E09F4216D00126654519D82C46BB
:1017E0001F46630904F01F0150F823301F2923FA14
:1017F00001F304F1010518BF03F00103002CE9D146
:1018000001263546EBE701369642E6D10248F0BCA8
:1018100070470020F0BC7047360CF10010B586B060
:1018200005AB0124CDE901240093002204AB01F0B3
:101830000DF806B010BD00BF084B094A0021196021
:101840001368002BFCD107480749084A03604FF48E
:1018500080604FF0FF330860136070472CB1025076
:1018600010B90250C4B1025008BA025008B1025077
:1018700038B504464FF4806000F054FC054D06482E
:101880000649074A00232B6003600B68236013603E
:1018900038BD00BFC8B102502CB1025004B1025093
:1018A00008B10250002800F0BF80F8B51D46436B18
:1018B0000E4617460446002B35D0012B02D1B5F554
:1018C000803F33D265484FF0FF3100F019FD00280A
:1018D00057D1002000F040FD00284ED1604B01227E
:1018E0001A60236A032B28DC002B28DA5D4A136870
:1018F000002BFCD15A4A1360236A23F00403032B04
:10190000594B18680CBF40F0400040F0800000F0D8
:1019100001FC012000F020FD002836D14F4800F0E6
:1019200009FD28B9F8BDB5F5805FCBD34F48F8BDA8
:101930004F4800F067FC0020F8BD072BD6D1636A42
:10194000012BD3D8636B012BD0D8A36B012BCDD83F
:101950002046FFF72FFB0028C8D1A36A012B6CD0CB
:1019600033F0020263D0236A5A1E062A1BD8DFE82E
:1019700002F0104B101A1A1A10003E4800F042FCF8
:10198000ACE73D4800F03EFCA3E73C4800F03AFCE1
:10199000C4E73B4B22681A6062685A60A2689A608A
:1019A000E268DA60236A23F00403032B31D0A36BCF
:1019B000012B4CD0334A344B176020201D60636BE1
:1019C000012B2CD0314A324B16601D6000F0AAFB6F
:1019D000244A1368002BFCD1236A013B062B10D844
:1019E000DFE803F00414040F0F0F0400244A294B0E
:1019F000126822601A6862605A68A26008331B6825
:101A0000E3600123236371E7234BC3E7224A234B9F
:101A1000EEE7636B012B01D01020D3E74020204A72
:101A2000204B16601D60D1E74FF4710070471E49CE
:101A30001E4A0B600123136095E71D4B22691A6053
:101A400062695A60A2699A60E269DA608BE7194AB2
:101A5000194B176080201D60B1E700BFE44A0020E9
:101A600010B8025010B9025004BA02500500F1003B
:101A7000386D0000006D0000206D0000E06C00007B
:101A800040B4025030BD025034BD025030BC025050
:101A900034BC025044B4025060B4025064B40250EA
:101AA00028BC02502CBC025038BA025078B4025004
:101AB00000B4025028BD02502CBD0250F8B5069E5D
:101AC000002E33D001292FD8012B31D81C4C0746CA
:101AD00000251C4825600468002CFCD11A4D2C6898
:101AE000002CFCD1194D2C68002CFCD1184D2C6811
:101AF000002CFCD1174D2C68002CFCD1012B19D0E7
:101B00001548164B026020201E6001290BBF144BA4
:101B1000144B154A154A17601E6000F003FB144B66
:101B200018680028FCD1F8BD1248F8BD1248F8BD6D
:101B30001248F8BD1248134B026080201E60E4E793
:101B400000B9025070B4025020BD025020BC0250B7
:101B500038BD025038BC025030BD025034BD025076
:101B60002CBC025034BC025028BC025030BC025085
:101B700010B902500200F4000100F4000300F40068
:101B800028BD02502CBD0250002800F0DE80F8B5C0
:101B900003680E4615460446002B00F0B480013B56
:101BA000012B00F2C3806A484FF0FF31022700F09A
:101BB000A7FB002840F0B080002000F0CDFB0028FB
:101BC00040F0BB80634A1368002BFCD1624A136863
:101BD000002BFCD161480368002BFCD14FF0FF3093
:101BE00000F08CFA5E4B186820F0400000F092FA8A
:101BF0005C485D4A5D4901230360072010600B606B
:101C0000A2F59A72A36C1360594BE16C51601F608E
:101C100023685BB1013B012B17D8564B626A1A60EF
:101C2000226A43F8042CE26943F8082C524BA2695B
:101C30001A60626943F8042C226943F8082CE268B0
:101C400043F80C2CA26843F8102C434A1368002B6D
:101C5000FCD1002D53D06368012B04BF474A1360A9
:101C6000474A484B166040201D6000F05BFA3A4A34
:101C70001368002BFCD1394A1368002BFCD1236870
:101C80005BB1013B012B17D83A4A3F4B12686262A5
:101C90001A682262043B1B68E361374A3B4B1268B7
:101CA000A2611A68626153F8042C226153F8082C6F
:101CB000E2600C3B1B68A360354A364B1268A26495
:101CC0001B682A4D2D483449E364234A002301242C
:101CD0002C6003600B601368002BFCD12149204A63
:101CE0000B60106840F0400000F014FA012000F092
:101CF00033FB30BB164800F01DFBC8B9F8BD264BBE
:101D000004221A60B3E712484FF0FF31012700F0B8
:101D1000F7FA00283FF450AF204800F073FA002093
:101D200000F01AFB00283FF44DAF06E01C48F8BD58
:101D30001C4800F067FA0020F8BD1B4800F062FA6A
:101D400040E71A4800F05EFAD4E74FF4720070479B
:101D5000E44A00201CB9025010B9025020BC0250C5
:101D600004BA025018B8025000B90250C4B7025069
:101D7000C0B702505CB6025050B6025084B6025052
:101D800028BC02502CBC025058B602504CB602502F
:101D9000CCB70250D0B70250C8B70250906D0000C7
:101DA0000100F200A86D0000706D0000506D000091
:101DB00000283CD02DE9F0431E4B9046826D9A429C
:101DC000A1B0064603D01C4821B0BDE8F083D0F88E
:101DD0005C90B8FBF9F707FB09F30C460422D90025
:101DE0004830FFF7A1F814F0030514D0C1450ED810
:101DF000F26D00252146684600F05EFA69463046DD
:101E0000FFF776F90135F26DAF421444F2D80020A5
:101E100021B0BDE8F083C145F9D821463046FFF72F
:101E200067F90135F36DAF421C44F6D8EFE74FF484
:101E300072007047785634120200F20030B5042266
:101E400085B00123C0F8D0200B6068460023CDE99F
:101E50000033CDE902330C4600F0F8FA0546C8B964
:101E6000DDE90030DDE90212E360003BC4E9040172
:101E700018BF0123A26108B143F0020309B143F086
:101E800004030AB143F00803002228466360A260FD
:101E900005B030BD014800F0B5F9E1E7C06D0000C4
:101EA00038B349B31AB338B512F00F051BD1046A21
:101EB00024F00404032C01D003B31D4613462A4624
:101EC000FFF7F0FC58B1A0F57100052818D80528D7
:101ED00016D8DFE800F005030A0303080A4838BDF6
:101EE0004FF4700038BD094838BD094838BD07486F
:101EF00070474FF47000704706487047064838BD79
:101F00004FF4750038BD00BF0200F0000A00F00079
:101F10000600F0000800F0000900F000F8B5079F87
:101F200048B30E460546002A35D0994239D8002FCD
:101F300041D02B6A23F00401032906991FD0002900
:101F400032D03968B14233D3300703D0012B1CD8CB
:101F5000EB6A23B311463346069A2846FEF7CEFDB8
:101F6000044660B3A0F57104052C37D8DFE804F00F
:101F70000310251010174FF470042046F8BDA9B1C6
:101F800039680F2914D93107E4D0032BE2D1DFE7F8
:101F9000144C2046F8BD0029C9D0134CEDE7134C72
:101FA000EBE7134C2046F8BD002ED3D0114CE4E7EC
:101FB000114C2046F8BD114CDFE7114CDDE72B6AD0
:101FC00023F00403032B01D03E60D6E70698294690
:101FD000102200F071F910233B60CEE74FF4750436
:101FE000CBE700BF0200F0000800F0000A00F0009C
:101FF0000C00F0000900F0000D00F0001100F000EE
:102000000600F00078B3032A70B50E461546044664
:1020100001D9052A1CD1012E18D8ABB9022D19D02F
:10202000052D17D04C21204600F04AF9052D88BF18
:102030004FF0FF3213D900200123C4E90826C4E978
:102040000B00C4E90D3370BD094870BD094870BD6F
:10205000094870BD56B94C21204600F031F9074BB4
:1020600053F82520E7E74FF470007047044870BD2F
:102070000E00F0000600F0000200F000B069000061
:102080001200F00070B108B5036A013B022B05D8BD
:1020900031B1102200F010F9002008BD034808BD3E
:1020A000034808BD4FF47000704700BF0200F00005
:1020B0000100F000C8B110B50C4682B18CB9082BF4
:1020C0000DD15368102B0ED1136843B101238362E5
:1020D000D2E90012103000F0EFF8204610BD04489D
:1020E00010BD044810BD044810BD4FF47000704787
:1020F0000400F0000500F0000300F000014B186040
:10210000704700BF08BA0250014B002018607047AA
:10211000C42A0020014B1860704700BF04BA025067
:102120000020704710B5044682B0C0B1124A134B6C
:10213000C14311601B680193019B18420AD1104AE8
:1021400020BFBFF35B8F1368BFF35B8F0193019BCD
:102150002342F5D00B4B1C60019802B010BD0A4819
:1021600000F050F8044A054B4FF0FF3111601B6836
:102170000193019BE3E700BF04BA025000BA02508A
:10218000C42A002008BA0250F06D000008B5FFF71D
:10219000C7FFBDE8084000F02DB900BF10B500F042
:1021A00045F8A0B9FFF7B0FF20B1032400F022F9F1
:1021B000204610BD00F0D0F8034680B90D4A1268E1
:1021C000120EF02A06D00524FFF7AAFFEEE704243A
:1021D000204610BD0849094A0968914201D00624E9
:1021E000F2E7074A0120136000F0B6F80446002821
:1021F000DED0E8E728B9025024BA02500000E020FF
:102200000CBA0250BFF34F8F0549064BCA6802F45F
:10221000E0621343CB60BFF34F8F00BFFDE700BF09
:1022200000ED00E00400FA05704700BF08B518484B
:1022300000F04AF898B9174800F046F8B8B91648BF
:1022400000F042F8D8B9154B124A15481A6000F050
:102250003BF8C0B9134B124A1A60002008BD12485F
:10226000FFF7D0FF0B4800F02FF80028E7D00F4809
:10227000FFF7C8FF084800F027F80028E3D00C4813
:10228000FFF7C0FFDFE70B48FFF7BCFFE2E700BF47
:10229000E44A0020D84A0020E04A0020D44A002026
:1022A000DC4A0020D04A0020206E00003C6E000076
:1022B000786E0000586E0000FEF742B8FEF76AB86C
:1022C0000A460021FEF766B810B5044610B100209A
:1022D000206010BD0248FFF795FF0020206010BD70
:1022E000986E000010B5044610B10020206010BDAB
:1022F0000248FFF787FF0020206010BD986E0000A5
:1023000010B5044680B10123BFF35B8F54E8002F62
:1023100044E800310029F9D1BFF35B8F012AF3D0E3
:10232000BFF35F8F002010BD0148FFF76BFFEAE7A6
:10233000BC6E000010B5044620B1BFF35F8F0020D3
:10234000206010BD0348FFF75DFFBFF35F8F0020E3
:10235000206010BDDC6E000038B54FF0FF31044640
:102360001E48FFF7CDFF08BB1D4A54B11368C3B127
:10237000012B1CD0013B1360BDE838401748FFF724
:10238000D9BF106858B9174C174B18490125C4F824
:1023900000554FF480645C600B68002BFCD1013069
:1023A0001060BDE838400D48FFF7C4BF38BD0F4985
:1023B0000B68002BFCD10B480B49C0F800354FF4DB
:1023C0008063C1F88430BFF34F8FBFF36F8F084B2A
:1023D0006FF07E4119601368CCE700BFE04A00202F
:1023E000C82A002000A0025000E100E010B902500D
:1023F00004BA025008B5FFF717FF0F48FFF772FF46
:1024000004210D48FFF75CFF0C48FFF76BFF0B48FA
:102410000421FFF755FF0A48FFF764FF40B9094858
:10242000FFF760FFBDE8084006480421FFF748BFFA
:102430000548FFF7E7FEF2E7E44A0020D84A00200B
:10244000E04A0020DC4A0020786E000000234FF4B0
:10245000FA714FF47A72C0E900228160C3601846B5
:10246000704700BF2DE9F04F864C80469E460F46D0
:1024700094460FCCB7B00DF11C0A55460FC594E831
:102480000F0004F1100685E80F000FCE0FAD0FC549
:1024900096E80F00303485E80F000FCC17AD0FC55C
:1024A0000FCC0FC594E80F00D8F8D040CDF80CE061
:1024B000042C85E80F0001D0082C6BD1409A231D15
:1024C000B2EB830F4FEA830B03D06F4837B0BDE800
:1024D000F08F07EB0C019CFA8CF30CF118060CF151
:1024E00009003B609BFA8BF5802326F00F06321A19
:1024F0007D6038440B720021FFF7E0FE409B1B0912
:10250000ABF1100B00F0BB80042C47D0DDF80C9031
:10251000CDF808B04B4617ADB1464FF0000823ACDC
:10252000BB461E4624E0029FCDF814A00697FFF795
:10253000C1FD03462946204610353BBBFFF7A2FDEF
:1025400084464FF0100E4B465A4649462046BCF191
:10255000000F1BD10DEB0E07CDE90067CDF810E0A1
:10256000FFF7DCFC103688B9409BB8EB131F58D23C
:102570000023194602222046FFF744FD014608F1D8
:102580000108082305AA20460029CCD03F4837B0CF
:10259000BDE8F08F3E4837B0BDE8F08FDDF80C9015
:1025A000CDF808B033460FAD4E464FF0000823ACCF
:1025B000BB46994626E0029FCDF814A00697FFF788
:1025C00079FD0346294620461035002BDED1FFF762
:1025D00059FD84464FF0100E4B465A464946204658
:1025E000BCF1000FD2D10DEB0E07CDE90067CDF89D
:1025F00010E0FFF793FC10360028C7D1409BB8EBE2
:10260000131F0ED20023194602222046FFF7FAFCC0
:10261000014608F10108082305AA20460029CAD06E
:10262000B4E7DDF808B0039D0023194601222046D7
:10263000CDE9055BFFF7E6FC01460028A6D108239B
:1026400005AA2046FFF736FD00289FD105EB0B01B8
:102650002046FFF717FD0146002897D1409A2846EB
:10266000FFF72CFE409B009540A901912A46204689
:102670001946FFF753FC00283FF428AF86E723AC48
:10268000D1E700BF7C680000230CF000360CF0009E
:10269000210CF0002DE9F0438FB0884607A91746BA
:1026A0000446FFF7CBFB054600284ED1D4F8D050A6
:1026B000042D01D0082D4ED1D4F8C4300C2B62D893
:1026C000B8F1000F45D02E1D760106AA04ABCDE966
:1026D0000032029707A905AB002220460596FFF7B6
:1026E00065F800283CD1069B0498D4F8C42023F058
:1026F0000303083304F18409184492004946FFF7A4
:10270000DBFDD4F8C400069A04992B1D9E0002EB51
:10271000800200964B4620460692FFF7A3FE054630
:1027200050B9B8F1010F33D003462246494620463E
:1027300000F050F8B0B105462046E421FFF7C0FD97
:1027400038464FF4BF51FFF7BBFD28460FB0BDE838
:10275000F0836E01B9E71B4D28460FB0BDE8F0834A
:10276000194DE9E7D4F8D430012243F00103C4F84D
:10277000D430C4F8CC2000234846C4F8C4304021EB
:10278000FFF79EFDDCE7114D28460FB0BDE8F08352
:1027900031462046FFF794FD2B4622464946204607
:1027A00000F018F80028C6D1D4F8D430084AC4F88C
:1027B000CC8023F4803343F00103C4F8D430C4F850
:1027C000DC20D8E7210CF000260CF000040CF0000F
:1027D000CDAB2301F0B5054699B01F4600230E4648
:1027E000144605A819460322D5F8D050FFF70AFC75
:1027F00038BB0146AD00082303AA05A8CDE903456F
:10280000FFF758FCE8B9611905A8FFF73BFCC0B910
:1028100037B923461022314605A8FFF741FB80B99E
:1028200005F1100302A9019100941946324605A84A
:102830000293FFF773FB044B002818BF184619B02A
:10284000F0BD014819B0F0BD360CF0002DE9F04F95
:1028500089B01D46149BDDF84CA004460E46174671
:102860004BB94FF08053D3F8002C013200F0A9800F
:10287000D3F800BC08E04FF08053D3F80C2C0132A1
:1028800000F0A280D3F80CBC7C480AF5C1622A6033
:10289000129A00234FF0FF311360FFF731FD00283B
:1028A00040F08680764A774B774910600432196091
:1028B00013680693069BD907FAD5714A714B00211C
:1028C00011601B680793043213680793079BDB07AB
:1028D000FAD56C4B6D4A1B680793DDF81C901368A2
:1028E0000793079BD807FAD56448FFF723FD002814
:1028F0005AD1654B994540F0B680D4F8D43013F4E2
:1029000000790ED1D90512D52B68129A1B68136075
:102910003BB1D4F8D4309B055BD5484609B0BDE83F
:10292000F08FDFF87C91484609B0BDE8F08F002FAA
:1029300000F08780564A574B1168B2681B689A426C
:1029400045D10A2943D194F8DB3005930AF5C26AD0
:10295000042500274FF0805804A8FEF789FF04984B
:10296000820602D510F01A0039D0D4F8D810059A92
:102970000B0A03F47F030B4323F07F43082AC4F8B8
:10298000D83077D0149B4FEA420CCDE90073002277
:1029900005AB31462046CDF814C000F0DBF8002826
:1029A0005FD1013DD8D1B4E73B48FFF72BFCA0E74E
:1029B0003A48DFF8F090FFF725FC484609B0BDE83B
:1029C000F08F4FF0900B5FE74FF4047B5CE7DFF88C
:1029D000D890FEF731FF484609B0BDE8F08F129B52
:1029E0005246C3F800B05946FEF786FE002838D19B
:1029F000D8F8043C129A013318BFD8F8043C116887
:102A000008BF51230293D8F8083C01332ED0D8F8E0
:102A1000083C03934B1EB3F5047F0FD2029A029138
:102A20005046FEF7CFFE48B90299039A4FF48063EF
:102A30005046FEF7F9FD00283FF46BAF129B1F6074
:102A400093E723F00F03C4F8D430149B0122CDE99F
:102A50000093314605AB204600F07CF800283FF497
:102A600075AF814655E7DFF83C9056E740F23733C3
:102A70000393CFE7DFF834904BE700BFE44A002030
:102A800004BF025000BF025012FA12FA08BF0250EF
:102A900038B1025030B10250146F0000FC6E0000DB
:102AA000330CF000350CF000300CF100320CF1006A
:102AB0002DE9F0410546D0E917301E1AB6FBF3F4B4
:102AC00003FB1464944228BF1446174688469CBBF7
:102AD000984224D0B7FBF3F403FB04F46CB1D5F8AF
:102AE000E8302246414628469847064610B93E1B24
:102AF000A0442EB93046BDE8F0813E46002EF9D004
:102B0000286E193005EB800032464146FFF7D4FBB2
:102B10002A6E32442A6600263046BDE8F0811A4605
:102B200005F16401D5F8E8302846984706460028A4
:102B3000E0D1EB6D2866CDE705F164031844224629
:102B4000FFF7BAFBD5E917302044A0443F1B2866A5
:102B5000BEE700BF002877D0F8B50C46002971D039
:102B60001D46002B6ED0064622B1012200232A60AA
:102B7000C0F8D8302B68002B62D029462046FEF7DB
:102B8000E7FD00285BD128682146FEF7F1FD00280B
:102B900055D1364B3649374A01271F609C460F6096
:102BA000CCF80070A368136011688B42F8D1324FE3
:102BB0003249334A334B4FF0000CC7F800C00427AA
:102BC0000F600A2111606FF03A021A60079B012B17
:102BD0004FF080533AD0D3F8002C013243D0D3F8D1
:102BE000002C294BA3FB02321209A368274C284969
:102BF000284F03FB02F303EB4303DB039B09236032
:102C0000254B2C680C601A60069A244C3A604FF4ED
:102C10008062226001224FF0FF3441F8C44C43F837
:102C20000C2CD6F8D8302A6823F07F4343EA02639D
:102C3000C6F8D8302A6843EA0223C6F8D830F8BD6F
:102C40001748F8BD1748F8BD16487047D3F80C2C44
:102C5000013206D0D3F80C2C0B4BA3FB0232FA4006
:102C6000C3E71622C1E70622BFE700BFC4B1025086
:102C700040B1025030B102502CB102500CB10250A0
:102C800038B1025000B10250ABAAAAAAD8B1025082
:102C9000CCB10250D0B10250D4B1025008BA0250A7
:102CA000310CF100350CF100064882B000210160C2
:102CB00000680090044800680449C0B2496802B046
:102CC0000847000000D1004008D5004080000020E7
:102CD00000F046B970B50E46144900EB400001EB18
:102CE000C0051446E86A183520B101280FD0022823
:102CF00005D113E0284600F067F9A04201D2002474
:102D000011E022463146284600F096F90BE02846AD
:102D100000F05AF9A042F4D20446F2E731462846C0
:102D200000F05DF90446204670BD00003C22002002
:102D300070B54FF080520124D2E94C1000230829CD
:102D400006D1CD06C5F80C31C5F810315E4D2B60AB
:102D5000082955D15D4D2D685D4E35605B4D2D1DAB
:102D60002D68361D3560594D08352D68361D356086
:102D7000564D0C352D68361D3560544D10352D6877
:102D8000361D3560514D14352D68361D35604F4D5B
:102D900018352D684E4E203635604C4D1C352D684B
:102DA000361D3560494D20352D68361D3560474D3F
:102DB00024352D68361D3560444D28352D68361D67
:102DC0003560424D2C352D68361D35603F4D303510
:102DD0002D683F4E403635603C4D34352D68361DEC
:102DE00035603A4D38352D68361D3560374D3C35E8
:102DF0002D68361D3560354D40352D68361D3560E2
:102E0000082904D1050002D1334E324D356008291E
:102E100004D1050002D1314EFB253560082908D1C7
:102E2000050006D192F858622D4A156866F303052D
:102E30001560082904D1020002D12A4D8A012A60B6
:102E4000082906D128480168C90702D06FF001019E
:102E500001602648016841F470010160BFF34F8FA3
:102E6000BFF36F8F4FF01021D1F80002002803DB71
:102E7000D1F80402002822DA1D4A14601D480468B3
:102E8000002CFCD01224C1F800420568002DFCD0B3
:102E9000C1F8044201680029FCD0136001680029D0
:102EA000FCD0BFF34F8F11487C380168124A01F4FF
:102EB000E06111430160BFF34F8F00BFFDE7104990
:102EC0000E48086070BD0000380500400404001082
:102ED00020C50040488103008C56004018F5004092
:102EE000E40E0040409602400004004088ED00E0FF
:102EF00004E5014000E401400400FA050090D0031D
:102F00000C01002010B5054C206818B904A12B2035
:102F100000F022FA2068BDE8104000477800002049
:102F20002E2E5C2E2E5C2E2E5C2E2E5C2E2E5C2EDB
:102F30002E5C2E2E5C6D6F64756C65735C6E7266B4
:102F4000785C647269766572735C7372635C7072CC
:102F5000735C6E7266785F7072732E63000000009F
:102F600010B5124C02202061606111A0A06104F133
:102F70007800E0614FF4006020620020A06260628F
:102F80000BA1A164E06204F67801E1641021A06560
:102F9000C4E91410E06509A1E01DFDF718FA08A1C5
:102FA0002046FDF714FA2020A07110BD3C2200201D
:102FB0005465726D696E616C0000000052545400DB
:102FC00053454747455200000269C1688A4203D809
:102FD0008068401A104400E0501A401E70472DE9E6
:102FE000F047C4681746894606464FF00008306926
:102FF000A04201D9051B02E0B168201A0D1AB06881
:103000006D1E001BA84200D80546BD4200D33D46B8
:1030100070682A4620444946FDF792F9B0687F1B44
:103020002C44A844A944A04200D10024F460002FFD
:10303000DDD14046BDE8F0872DE9F04104468846E1
:10304000D4E90207C51BE168606816460844B5422A
:1030500006D94146FDF774F9B819E060BDE8F08182
:103060002A464146FDF76CF9761B08EB050132460E
:103070006068FDF765F9E660F0E702E008C8121F36
:1030800008C1002AFAD170477047002001E001C151
:10309000121F002AFBD17047FEB514460E460746A4
:1030A00072B601F0D7FE00BF01F014FD0028FBD17D
:1030B0001D4A1E496FF480403B18A2EB01014FF0FE
:1030C00001004FEAD10100EB014519D0012B284640
:1030D00010D0324616A101F01BFE1B480068C00745
:1030E00000D000BE224603B031463846BDE8F0406D
:1030F00000F058B8D4E9003214A101F010FEECE75A
:10310000A06802F009F80346D4E90001CDE90010F7
:103110000296284614A1A26801F009FE28461CA1C7
:1031200001F0F2FDD9E70000A46F0000746F000009
:10313000554E4B4E4F574E204641554C54206174CE
:103140002030782530385800F0ED00E041535345E9
:103150005254494F4E204641494C45442061742009
:1031600025733A25750000004552524F52202575AF
:10317000205B25735D2061742025733A25750D0A47
:1031800050432061743A20307825303878000000B0
:10319000456E64206F66206572726F722072657072
:1031A0006F72740008B501238DF800309DF800306F
:1031B000144B186059609A606FF48041401807D032
:1031C00001280FD1DA60D86800689861D86807E0F4
:1031D0001A611869806858611869006898611869EF
:1031E0004068D861186858689868D868186958693C
:1031F0009869D86972B600BF9DF800000028FBD11D
:1032000062B608BD241C002010B502F075FB012831
:1032100003D004491D2000F09FF8BDE8104000F0E5
:1032200013B80000DC62000010B502F065FB012855
:1032300003D004492B2000F08FF8BDE8104000F0C7
:103240000BB80000DC62000072B602480168491C3D
:10325000016070478800002003490868401E08602C
:1032600000D162B6704700008800002070B50546A6
:1032700008680C46411C04D001F010FB206801F0E6
:1032800075FA6068411C02D0002101F05DFA2968DE
:10329000A069C1F82405607D227D29681043C1F82A
:1032A0006C05D4E900122868C0F81425C0F80C1584
:1032B000207D012814D1A068411C02D0002101F01A
:1032C00043FAE068411C04D001F0E8FAE06801F03C
:1032D0004DFAD4E902122868C0F80825C0F8101584
:1032E00070BD70B5054608680C46411C04D001F05D
:1032F000DFFA206801F044FA6068411C02D0002126
:1033000001F02BFA2968A069C1F82405607D217DB0
:103310002A680843C2F86C05D4E900122868C0F88E
:103320000C15C0F81425207D012814D1A068411C7B
:1033300002D0002101F011FAE068411C04D001F034
:10334000B7FAE06801F01CFAD4E902122868C0F864
:103350000825C0F8101570BD1CB56A46CDE90001FE
:10336000002144F20200FFF797FE1CBD2DE9F04753
:103370000546861C91460F464FF0010A0020FFF7D4
:1033800043FF1B4C04F21C4860683860D4E901011B
:10339000184F401A3968081A0EE00121404600F023
:1033A0008DFC00F019FB0146404600F087FCD4E993
:1033B0000101401A3968081A401C8642EDD8B9F15B
:1033C000000F03D0052065F3891002E0062065F3A5
:1033D0009F5061683A68114004EB8101C8606068E1
:1033E000304460600020FFF71FFF5046BDE8F087C3
:1033F0001C1E0020B800002070B50D4604460A29A6
:1034000002D10D21FFF7F8FFA0682268411CA160DE
:103410001554D4E90101814204D32046BDE870402F
:1034200000F0F6BF70BD000004488168406881422A
:1034300001D1012070470020704700001C1E0020B1
:1034400070B50446002015460E46106000F0B6F830
:1034500090B1314604F10800FDF7A6F9064600F0E8
:10346000C9F8304602F062FA0146002E03D16068C6
:10347000C0682860084670BD48F2045070BD000066
:103480002DE9F0410446406815460E46007D78B1AE
:1034900001280FD016481749401AC008012101EB36
:1034A000004015A101F030FC48F20350BDE8F08166
:1034B000022700E00427084601F054FE88B100F01E
:1034C0007DF888B1ABB23246394604F10800FDF709
:1034D000B9F9044600F08EF82046BDE8F04102F04C
:1034E00025BA48F21250E1E748F20450DEE7000046
:1034F000A46F0000746F00004861736820616C67FE
:103500006F726974686D206E6F7420737570706F60
:1035100072746564206279204343333130206261E4
:10352000636B656E64207772617070657200000075
:103530002DE9F0470D4606461446284601F012FED6
:1035400060B100F03BF868B14FF480384FF6FF7976
:1035500006F1080A444508D34E4607E048F21250E7
:10356000BDE8F08748F20450FAE72646324629467D
:103570005046FDF7DFF90700A4EB0604354401D1FE
:10358000002CE7D100F036F83846BDE8F04702F0ED
:10359000CDB90000084810B500210160BFF35F8F6E
:1035A000FEF7FCFD01004FF0030004D1BDE8104020
:1035B000084600F031BE10BD6000002010B505487F
:1035C000012100F086FBBFF35F8F08B1002010BD22
:1035D000012010BD6000002010B50548012100F059
:1035E00078FBBFF35F8F08B1002010BD012010BD34
:1035F0006000002010B5064C2068012803D005A10A
:103600006D20FFF7A9FEBFF35F8F0020206010BD83
:10361000600000202E2E5C2E2E5C2E2E5C2E2E5C4A
:103620002E2E5C2E2E5C2E2E5C636F6D706F6E6581
:103630006E74735C6C69627261726965735C6D75DE
:103640007465785C6E72665F6D74782E6800000039
:1036500010B5064C2068012803D005A16D20FFF7A6
:103660007BFEBFF35F8F0020206010BD6000002054
:103670002E2E5C2E2E5C2E2E5C2E2E5C2E2E5C2E84
:103680002E5C2E2E5C636F6D706F6E656E74735C56
:103690006C69627261726965735C6D757465785C82
:1036A0006E72665F6D74782E6800000010B50021A0
:1036B000084600F0B1FD002802D1FEF767FD0020AA
:1036C00010BD000010B50021024800F002FB80F39D
:1036D000100010BD382200202DE9FF4FCD6883B0C7
:1036E0005819401EB0FBF5F7DDF840B099468A4600
:1036F0004FF00008FF2F04D948F2145007B0BDE87E
:10370000F08F002634463BE0601C8DF80000DDE9B8
:1037100013235146039800F0EBFC0028EED134B19E
:103720002A461299039800F00BFD0028E6D1BBF160
:10373000000006D00146119A039800F001FD002810
:10374000DCD101226946039800F0FAFC0028D5D1AB
:1037500001AA01951299039800F0AFFCB0F100089E
:10376000CCD19DF80000B84201D02A4601E0A9EB77
:103770000602059812993044FCF7E2FD2E44641CC1
:10378000BC42C1D34046B9E72DE9FC5F0E00834639
:10379000DDE90C47C6F1000098469246814600D408
:1037A0000846012503E000BF90FBFAF06D1C504570
:1037B000FADAA84500D9454624B1002E01DB780786
:1037C00000D5641EB80702D5B8F1000F0AD0F8077B
:1037D00008D13CB1A54205D220215846641EFFF70E
:1037E0000BFEF6E7002E02DA4E462D2102E07807A6
:1037F00003D52B215846FFF7FFFD07F003000228F1
:103800000BD1B8F1000F08D13CB1A54205D230214F
:103810005846641EFFF7F0FDF6E7CDE90047434642
:1038200052463146584602F0B3FBBDE8FC9F00000B
:1038300070B50E46054600684FF48E7101F07BFCB2
:103840004FF4A271286801F076FC28681549C0F889
:1038500004132868082E40F3073403D312A145202F
:10386000FFF77AFD7007000E002C04DB04F1E02462
:1038700084F8000405E004F00F0101F1E02181F873
:10388000140D286840F30730002809DB00F01F0200
:10389000012191404009800000F1E020C0F80011B2
:1038A00070BD0000800002002E2E5C2E2E5C2E2E9D
:1038B0005C2E2E5C2E2E5C2E2E5C2E2E5C696E7481
:1038C0006567726174696F6E5C6E7266785C6E7249
:1038D00066785F676C75652E6800000070B50E46EF
:1038E000044600684FF4887101F036FC4FF4907183
:1038F000206801F031FC4FF49271206801F02CFC3B
:103900004FF4A271206801F027FC4FF4AC712068DD
:1039100001F022FC20681549C0F804132068082E25
:1039200040F3073503D312A14520FFF715FD7007BB
:10393000000E002D04DB05F1E02585F8000405E00C
:1039400005F00F0101F1E02181F8140D206840F32A
:103950000730002809DB00F01F02012191404009D7
:10396000800000F1E020C0F8001170BD100342009B
:103970002E2E5C2E2E5C2E2E5C2E2E5C2E2E5C2E81
:103980002E5C2E2E5C696E746567726174696F6E51
:103990005C6E7266785C6E7266785F676C75652EB9
:1039A00068000000024600201268530713D502F099
:1039B0000300012802D002280CD105E0C2F38310D5
:1039C0000B68801C184404E00223086803EB925241
:1039D00010440860012070472DE9FF410026274868
:1039E00000F069F92548001F074600F064F9244CEF
:1039F0002449A06800900D6800E0009869462840BE
:103A000004EB80000C30FFF7CDFF0028F5D101AAB0
:103A1000009901EA050304EB8303491CDB6842F8C3
:103A20002030401C00910228F2D3019800F00300DE
:103A300001281AD002280ED013494FF4AF70FFF7B7
:103A40008BFC384600F034F908B10098A06004B04F
:103A50003046BDE8F0810198032101EB90500099B8
:103A6000BDF80A6001EB900005E00198BDF80A601E
:103A7000C0F3831008440090E3E7000034220020E4
:103A80001C1E0020B80000207C67000088B02A209F
:103A900000210790084601F0B1F918B121A23A219E
:103AA000FCF7B8FB00F0EEFF00F062FB18B11DA2BE
:103AB0004721FCF7AFFB1F481F49401AC5080320E8
:103AC00000EB054004461DA101F01EF90DF10C0CA0
:103AD00000230A221F490D208CE80F00A1F10D02DE
:103AE0001621A2F116008DE807001B4A07AB1B49FF
:103AF00002F12C0000F008FA18B10AA25621FCF7D6
:103B000089FB14492A220A311348FCF753FC30B1CF
:103B1000012000EB054012A101F0F6F8FEE7204677
:103B200015A1F9E72E2E5C2E2E5C2E2E5C6D6169A0
:103B30006E2E6300A46F0000746F0000484B444673
:103B4000206578616D706C65207374617274656452
:103B50002E000000230000201001002064600000FF
:103B6000484B4446206578616D706C6520666169DC
:103B70006C65642121210000484B44462065786132
:103B80006D706C6520657865637574656420737508
:103B9000636365737366756C6C792E002DE9F05F55
:103BA0001E46DDF828B091468A46040003D124A1C0
:103BB0009020FFF7D1FBB4F80680607908FB00F88D
:103BC000A8F10408464503D31DA19E20FFF7C4FBBE
:103BD000E788301DB0FBF7F1B0FBF7F207FB1200EE
:103BE000D9F80050AA19424501D9A8EB0605C9F831
:103BF000005001E02468491E0029FBD13E1A884686
:103C0000AE4215D817E000BF2044001D0AEB0803A0
:103C1000BBF1000F324602D00146184600E01946BB
:103C2000FCF78EFB00202468AD1BB044AF4201D9E5
:103C30002E4600E03E46002DE6D1BDE8F09F000094
:103C40002E2E5C2E2E5C2E2E5C2E2E5C2E2E5C2EAE
:103C50002E5C2E2E5C636F6D706F6E656E74735C80
:103C60006C69627261726965735C6D656D6F626AC1
:103C70005C6E72665F6D656D6F626A2E6300000038
:103C800030B5024651B101F0CDF80021074C08E0F3
:103C900034F821301568AB4202D11160002030BDEC
:103CA000491C8142F4D3052030BD00000000000013
:103CB000002100F009B8012100F010B808B56A46EB
:103CC000FCF7E9FA009808BD08B56A46FCF7C9FA9E
:103CD00008BD08B56A46FCF7ABFA08BD08B56A46E8
:103CE000FCF7B2FA009808BD08B56A46FCF7E0FA9E
:103CF000009808BD70B5040003D113A1FE20FFF7A2
:103D00002BFB00252846FFF77FFA206862680168D0
:103D1000914214D9491E01600D781CB91AA1C22024
:103D2000FFF71AFB208AE16805FB00152068217A5D
:103D30000278891A0279C9B28A4200D20171002040
:103D4000FFF772FA284670BD2E2E5C2E2E5C2E2EAA
:103D50005C2E2E5C2E2E5C2E2E5C2E2E5C636F6DE8
:103D6000706F6E656E74735C6C69627261726965A6
:103D7000735C62616C6C6F635C6E72665F62616CD7
:103D80006C6F632E630000002E2E5C2E2E5C2E2E98
:103D90005C2E2E5C2E2E5C2E2E5C2E2E5C636F6DA8
:103DA000706F6E656E74735C6C6962726172696566
:103DB000735C62616C6C6F635C6E72665F62616C97
:103DC0006C6F632E6300000070B50C46050004D1D3
:103DD00010A140F22110FFF7BFFA24B90DA14FF452
:103DE0009170FFF7B9FA0020FFF70EFA1DB91949D3
:103DF000CF20FFF7B1FAE8682A68211A288AB1FBB8
:103E0000F0F11068431C13600170BDE870400020A1
:103E1000FFF70ABA2E2E5C2E2E5C2E2E5C2E2E5C08
:103E20002E2E5C2E2E5C2E2E5C636F6D706F6E6579
:103E30006E74735C6C69627261726965735C6261F5
:103E40006C6C6F635C6E72665F62616C6C6F632E2C
:103E500063000000883D000010B5040002D0206817
:103E600030B901E00E2010BD17A1D920FFF774FA78
:103E7000606818B914A1DA20FFF76EFAA06818B9C3
:103E800011A1DB20FFF768FAE06818B90EA1DC2069
:103E9000FFF762FA208A18B90BA1DD20FFF75CFA60
:103EA000207A61682268401AC0B2116004E022687A
:103EB00011684B1C13600870401EC0B2F7D2216815
:103EC0000020087110BD00002E2E5C2E2E5C2E2EC0
:103ED0005C2E2E5C2E2E5C2E2E5C2E2E5C636F6D67
:103EE000706F6E656E74735C6C6962726172696525
:103EF000735C62616C6C6F635C6E72665F62616C56
:103F00006C6F632E630000002DE9FF4FA9B06C4673
:103F10000F0004F1E001D4E93B8C91E82202D4E9DE
:103F200036BA4FF04000C4F898001A68A5461E46FD
:103F300048F21050C4F8942030D0D4F8AC3053B3C9
:103F40007AB35FEA0B02A54628D05FEA0A0248F27C
:103F50001150A54622D011B1002DA5461ED05FEA12
:103F6000090203D05FEA0802A54617D0002030609E
:103F7000D4F8A400D0B1C4F89C0000BFBCF1000F7D
:103F800023D086B004F11402CDF80090CDE901826F
:103F9000CDE903BA46E048F21350A5462DB0BDE87E
:103FA000F08FFFE748F21450A546F7E73869C01DC7
:103FB00020F00700ADEB000D684610B1C4F89CD0AE
:103FC000DCE748F21550A546E8E769B9FD68402DE1
:103FD00003D91E498520FFF7BFF9294604F11400D3
:103FE000FCF7D6F904F1140184B004F19803CDF87C
:103FF0000CA08DE8220804F154023946D4F8A4003C
:1040000000F026F804B008B1A546C7E786B0D4F89A
:10401000982004F1540304F11400CDE90203CDE922
:10402000009804923946D4F89430D4F8AC20D4F8EF
:104030009C00FFF751FB06B008B1A546AEE7D4F8E7
:10404000940030600020A546A8E7000098620000B8
:104050002DE9F0476C46174604F120021E4692E80F
:104060000C02D4F82C80B9B1D0B10546284600F036
:104070003FF810B1A546BDE8F087424649462846BC
:1040800000F05EF808B1A546F5E732463946284605
:1040900000F013F8A546EEE748F21050A546EAE70F
:1040A0000869C01D20F00700ADEB000D6D46002D26
:1040B000DCD148F21550A546DDE770B515460E4631
:1040C000044601F0BFFF002807D13EB160682968AF
:1040D000C268914205D248F2145070BD48F21350A4
:1040E00070BD83682A4631462046BDE870401847B7
:1040F0002DE9F0411E4617460D46044600F058F8DB
:1041000098B1ACB148F21050002D0CD0002F0AD05D
:104110008EB165602B6820463246394698470028A4
:1041200001D106492160BDE8F0814FF40540FAE76E
:1041300048F20150F7E748F21150F4E711BADEBA3D
:1041400070B515460E46044601F07CFF00280BD1E1
:1041500046B155B160682A46314643682046BDE8FD
:104160007040184748F2105070BD48F2115070BDB1
:104170002DE9F0410B480C4D0C4F401BC6080120A7
:104180003870002406E000BF55F83400804700284E
:1041900005D1641CB442F7D3022038700020BDE87A
:1041A000F0810000546F00004C6F000057000020A9
:1041B00003480078022801D0002070470120704792
:1041C0005700002005480178022904D00078012812
:1041D00001D00020704701207047000057000020E8
:1041E00070B50D46044600680A49884201D1002096
:1041F00070BDFFF7F1F950B12946201DFCF71AFCFC
:1042000001F0D0FB0446FFF723FA204670BD48F2C8
:10421000045070BD6169614D2DE9F0416C460D4659
:10422000074600F053FF70B11B481C49401AC008F4
:10423000012101EB00401AA100F066FDA54648F2FD
:104240001950BDE8F081FFF7BDFF48B11B4A1C4E75
:10425000106848B15068B04206D10020A546F0E78A
:104260004FF40540A546ECE748F21750002FA5464D
:10427000E7D1002DA546E4D11248154600F1E8012A
:104280001060FFF7ADFF0028A546DAD16E602A68FE
:104290000D491160A546D4E7A46F0000746F0000BB
:1042A000537461636B206F766572666C6F77206400
:1042B000657465637465642E00000000580000207A
:1042C0006572E54BBC0200206169614D2DE9F0414A
:1042D000054604781C4888B00F4640F82420086939
:1042E000194916460831012C41F8240005D1787F80
:1042F00018B916A15020FFF72FF8DFF84C80797F0E
:10430000A8F10408202208F8041039466846FCF792
:1043100017F80494297818F8010050B10EB11A4A20
:1043200000E000226946281D01F0FEF808B0BDE853
:10433000F0810EB1154A00E00022694605F10C003B
:1043400000F098FFF2E70000680000202E2E5C2E9F
:104350002E5C2E2E5C2E2E5C2E2E5C2E2E5C2E2E97
:104360005C696E746567726174696F6E5C6E7266AB
:10437000785C6C65676163795C6E72665F647276A7
:104380005F756172742E63004D5E00008D5C0000ED
:104390000FB438B5040003D110A11C20FEF7DCFFD8
:1043A000606918B90DA11D20FEF7D6FF206818B965
:1043B0000AA11E20FEF7D0FF606818B907A11F20D0
:1043C000FEF7CAFF0599002905D006A800906A46A5
:1043D000204600F049F838BC5DF814FB2E2E5C2E08
:1043E0002E5C2E2E5C2E2E5C2E2E5C2E2E5C2E2E07
:1043F0005C65787465726E616C5C667072696E740F
:10440000665C6E72665F667072696E74662E6300BB
:1044100010B5040003D107A10B20FEF79DFFA26891
:10442000002A05D0D4E90403216898470020A06041
:1044300010BD00002E2E5C2E2E5C2E2E5C2E2E5CCF
:104440002E2E5C2E2E5C2E2E5C65787465726E614D
:104450006C5C667072696E74665C6E72665F6670C4
:1044600072696E74662E63002DE9FC4791460C4616
:104470005FEA000804D183A140F25220FEF76CFFEE
:10448000D8F8140020B97FA14FF41570FEF764FF2F
:10449000D8F8000020B97BA140F25520FEF75CFF60
:1044A000D8F8040020B977A140F25620FEF754FF57
:1044B000002C76D014F8011B39B125290ED04046C6
:1044C000FEF79AFF20780028F4D198F80C00002815
:1044D00067D04046BDE8FC47FFF79ABF00200122A5
:1044E00021782B291BD02D2902D0302908D102E0B8
:1044F00040F0010001E040F00200641C002AEFD10E
:1045000000252A290ED02178A1F130020A2A11D2E1
:1045100005EB850201EB4205641C303DF1E740F0FC
:104520000400EAE7D9F800100B1DC9F8003009684B
:10453000641C0D44217800232E290BD114F8011F8F
:10454000A1F130020A2A05D203EB830201EB4203F8
:10455000303BF3E76C290DD068290BD0692921D0B5
:104560000BDC252918D0582931D063290ED06429B5
:1045700015D117E014F8011FECE7702969D07329F1
:1045800032D075291BD0782909D120E0D9F8000054
:10459000011DC9F8001001784046FEF72DFF641C8C
:1045A00090E76CE0D9F800100A1DC9F800200968EE
:1045B000CDE900500A224046FFF7E6F8EFE7D9F8C8
:1045C00000100A1DC9F8002009680A2206E0D9F87F
:1045D00000100A1DC9F8002009681022CDE900501A
:1045E000404601F0D5FCDAE7D9F8001000270A1D93
:1045F000C9F800200E68C00705D112E04046761CBD
:104600007F1CFEF7F9FE31780029F7D104E0202164
:1046100040466D1EFEF7F0FEBD42C0D9002DF6D11A
:10462000BDE74EB13046FBF7BEFE074604E0202151
:1046300040466D1EFEF7E0FEBD4206D9002DF6D1C4
:1046400003E04046761CFEF7D7FE31780029F8D10A
:10465000A5E7D9F80000011DC9F800100568302150
:104660004046FEF7C9FE78214046FEF7C5FE082009
:104670000021CDE90001034610222946B0E7BDE83C
:10468000FC8700002E2E5C2E2E5C2E2E5C2E2E5CC7
:104690002E2E5C2E2E5C2E2E5C65787465726E61FB
:1046A0006C5C667072696E74665C6E72665F667072
:1046B00072696E74665F666F726D61742E6300005E
:1046C0002DE9FF411C46DDE90A7815460E4668468D
:1046D00000F060F846EA450141EA840141EA072218
:1046E00042EA0841009A00EB8200C0F80017BDE8DA
:1046F000FF812DE9FF411C46DDE90A7815460E468B
:10470000684600F089F846EA450141EA840141EA39
:10471000072242EA0841009A00EB8200C0F8001725
:10472000BDE8FF811CB5002100910B4601220191DB
:10473000FFF7C6FF1CBD1CB5002100910B460122EE
:104740000191FFF7D6FF1CBD1CB500220B4600925D
:1047500011460192FFF7B4FF1CBD1CB500220B46A9
:10476000009211460192FFF7C4FF1CBD1CB5002149
:1047700000910B46012201911146FFF7A1FF1CBDDC
:104780001CB5002100910B46012201911146FFF753
:10479000B0FF1CBD10B5016804464A094FF0000087
:1047A00002D0012A05D102E04FF0FF3001E04FF6C0
:1047B000FF7001F01F0201219140014204D108A1C4
:1047C0004FF4E370FEF7C8FD2068202802D24FF0B6
:1047D000A04010BD00F01F0020600E4810BD00007A
:1047E0002E2E5C2E2E5C2E2E5C2E2E5C2E2E5C2E03
:1047F0002E5C2E2E5C6D6F64756C65735C6E7266DC
:10480000785C68616C2F6E72665F6770696F2E6886
:10481000000000000003005010B5016804464A097A
:104820004FF0000002D0012A05D102E04FF0FF3026
:1048300001E04FF6FF7001F01F020121914001429B
:1048400004D108A14FF4E370FEF786FD206820280C
:1048500002D24FF0A04010BD00F01F0020600E48B3
:1048600010BD00002E2E5C2E2E5C2E2E5C2E2E5C9B
:104870002E2E5C2E2E5C2E2E5C6D6F64756C657317
:104880005C6E7266785C68616C2F6E72665F6770D2
:10489000696F2E68000000000003005001B56846F3
:1048A000FFF778FF009A01219140C0F8081508BD74
:1048B00001B56846FFF7B0FF009A01219140C0F8AA
:1048C000081508BD30B5154A01460020D2F810443D
:1048D00023460AE0DB681D79854205D1401C0A2881
:1048E000F6DB4FF0FF3030BD1B68002BF2D1431CCC
:1048F000F9D0CB681871D2F8103443B1DB68CC68BA
:104900001B682360D2F81024D268116030BDC2F851
:104910001014C96800220A6030BD00001C1E00206F
:104920007047FEF7D5B9704708B5034A0092402397
:10493000024A00F005F808BDF55A0000441C0020AA
:10494000F0B595B01C4615460F4608461A9E00F075
:1049500039FB182109A8FBF71BFD0E96CDE9095478
:104960000023082203A9384600F042FB0598069070
:10497000BDF81000ADF81C00BDF81200ADF81E0027
:1049800000208DF821000398082600F0030001287C
:1049900002D0022818D032E003983346850AC0F3CB
:1049A000C2008DF8200003980FA9C0F38314A20061
:1049B000384600F01DFB09A8009006AB22460FA95F
:1049C000284600F05BFA1AE00398840DC0F3C20099
:1049D0008DF82000082C01D2254600E0082533463A
:1049E0002A460FA9384600F003FB2E44641B09AB8E
:1049F00006AA29460FA800F0A9F9002CEAD13846EA
:104A000000F0E6FA15B0F0BD7047002001F05CB987
:104A1000084810B50178084A515C19B1001D00F032
:104A20007DFE02E00C3000F017FDBDE810400020D4
:104A300001F04AB9940000206400002008B5034A40
:104A400000924023024AFFF77BFF08BD455B000050
:104A5000841C00200A4A012902EBC00007D0022969
:104A600007D0032907D0042907D00020704702206F
:104A70007047042070470079704740797047000004
:104A8000746F000010B5FFF74CFF04210F48FFF7CB
:104A900019FF002803DA0E491B20FEF75DFC0B48C6
:104AA0000124C0684471FFF7B0FF084804211030AA
:104AB000FFF708FF002803DA05492220FEF74CFC27
:104AC00002481030C068447110BD0000546F0000EF
:104AD0002C6700002DE9F0478CB0FEF7A5FC18B15B
:104AE00000200CB0BDE8F0877D4C0020C4F818040D
:104AF000BFF34F8F7B49A06802900D684FF000080C
:104B0000284004EB80000BE0D4F8180470B9616809
:104B10000298814201D8A160E2E7284004EB8000BE
:104B20000C3002A9FEF73EFF0028EDD1002003AAB9
:104B3000029901EA050304EB8303491CDB6842F890
:104B40002030401C02910228F2D3039800F00300A9
:104B5000022802D001284DD0A7E003985022810DF1
:104B60008946B2EB905F00D850210E4666F39F5005
:104B7000039008315C4800F0DCF9070078D000F0C1
:104B800021FA4346082203A9384600F061FA029947
:104B900008F1080A2940681A8000001D864222D9BF
:104BA0004F4D0C3530B1C2B204EB8101301A904642
:104BB0000C3104E02946F2B2002590462846C6B2E0
:104BC0005346384600F044FA0AEB080325B1324652
:104BD0002946384600F03CFA029909F1030001EB3E
:104BE000900002903BE004EB810153463246384688
:104BF0000C31EFE70398C0F38310062800D306209A
:104C0000039960F38911C1F38310801C0391810023
:104C1000354800F08EF9070047D000F0D3F943463D
:104C2000082203A9384600F013FA08F10808002604
:104C30000FE00298434600EA0501401C04EB8101A5
:104C40000290042238460C3100F002FA08F1040800
:104C5000761C0398C0F38310B042EAD847B1D4F869
:104C60001054D4F8180478B1384600F0B1F931E0A6
:104C70001BE0E8684079012804D12A6828463946B3
:104C800012689047E8680568002DF2D1384600F0B8
:104C90009FF90020FEF7B8FAD4F8180408B9029872
:104CA000A0600020FEF7C0FA14E0D4F8104405E03C
:104CB0002168204689688847E0680468002CF7D19D
:104CC0000A480B49401AC008022101EB004009A123
:104CD00000F01AF8FEF7A8FB80F0010001E70000E1
:104CE0001C1E0020B8000020AC6F0000A46F000064
:104CF000746F00004261636B656E647320666C754F
:104D0000736865640000000000231A4600F03EBF8F
:104D100008B5012300926A4600F038FF08BD1CB5B3
:104D2000CDE9002302236A4600F030FF1CBD70B5B8
:104D300086B00DF1280C9CE870008DE87C000523FE
:104D40006A4600F023FF06B070BD00002DE9F04771
:104D50000E4680461C469246082940D894F80C908E
:104D6000002020731946104600F07AFD0025B54258
:104D700006D218F805201BA12046FFF709FB03E027
:104D80001AA12046FFF704FB6D1C082DEFD318A1D4
:104D90002046FFF7FDFA0025B54212D218F805703B
:104DA0007E2F08D8FBF7C8FA0068C05D10F03E0FF0
:104DB00001D03A4600E02E220EA12046FFF7E8FA85
:104DC00003E00DA12046FFF7E3FA6D1C082DE3D3A5
:104DD00001222146504600F025FD84F80C90BDE8E4
:104DE000F0870000202530327800000020202000CD
:104DF0007C0000002563000020000000064910B57B
:104E000001200870054800F0E1F8002803D10448AB
:104E100000F04EF9002010BD1C1E0020AC6F0000F9
:104E20000462000002480349401AC00870470000AD
:104E3000AC6F0000746F000013B56846FEF720FFEA
:104E400008B100201CBD0248009950F831001CBD7B
:104E5000746F000070B508480125D0F81044057043
:104E600007E0E06845712168204649688847E068A6
:104E70000468002CF5D170BD1C1E00202DE9FF47F1
:104E800081460C9D00200C462F7B287398461646C1
:104E90002946184600F0E4FC072E42D2DFE806F06F
:104EA00004090F161F2A360049462846FFF770FAF4
:104EB00037E0494628462268FFF76AFA31E0D4E92C
:104EC000002349462846FFF763FA2AE0A0680090CD
:104ED000D4E9002349462846FFF75AFA21E0D4E9ED
:104EE0000201CDE90001D4E9002349462846FFF735
:104EF0004FFA16E004F1080007C88DE80700D4E96E
:104F0000002349462846FFF743FA0AE004F1080067
:104F10000FC88DE80F00D4E9002349462846FFF763
:104F200037FA00222946404600F07CFC2F73BDE88A
:104F3000FF872DE9F041058A80462D1F4819C01CC6
:104F4000B0FBF5F0C6B24046FEF7D4FE041E19D001
:104F50000020207101206071E58000272546761E23
:104F6000C4F800800BE04046FEF7C4FE60B16179F2
:104F7000491C6171286005467F1CC0F80080B7425B
:104F8000F1D32046BDE8F081204600F002F8002071
:104F9000F8E72DE9F041457901466B1E002201E05A
:104FA0000968521C9A42FBD30F680146002605E0AF
:104FB00038460C68FEF708FF2146761CAE42F7D350
:104FC000BDE8F0810121001DFEF778BEFEF744BF69
:104FD00010B504460121001DFEF786FE10F0FF0FFC
:104FE00004D12046BDE81040FFF7D3BF10BD00003C
:104FF0001CB514460122CDE9002401AAFEF7CEFD1E
:105000000198A04203D002A1DA20FEF7A5F91CBD49
:105010002E2E5C2E2E5C2E2E5C2E2E5C2E2E5C2ECA
:105020002E5C2E2E5C636F6D706F6E656E74735C9C
:105030006C69627261726965735C6D656D6F626ADD
:105040005C6E72665F6D656D6F626A2E6300000054
:105050001CB514460022CDE9002401AAFEF79EFDEE
:105060000198A04203D002A1D020FEF775F91CBD23
:105070002E2E5C2E2E5C2E2E5C2E2E5C2E2E5C2E6A
:105080002E5C2E2E5C636F6D706F6E656E74735C3C
:105090006C69627261726965735C6D656D6F626A7D
:1050A0005C6E72665F6D656D6F626A2E63000000F4
:1050B0008268002191608268116182685161826812
:1050C000D16082685160806801607047034968461A
:1050D000884201D20120704700207047D02A00206A
:1050E0000C4A10B502F58C730EE0991AC91001EB49
:1050F000D171491002EBC1010C68844201D90B4601
:1051000002E005D201F108029A42EED3002010BD60
:10511000486810BDA860000000B5FFF7E1FF002857
:1051200000D1014800BD00009460000040580028F4
:1051300000D00120704708B500224250405800902E
:1051400008BDD0F80403084000D001207047405843
:10515000002800D00120704708B500224250405876
:10516000009008BD0121B1EB507F01D101207047B3
:10517000002070470121B1EB507F01D10120704721
:105180000020704770B50D46040003D10DA15120D9
:10519000FEF7E2F8204600F0BDFB04000FD000202F
:1051A000FEF732F8207920B10020FEF73DF81120FB
:1051B00070BD0120256020710020FEF735F8002029
:1051C00070BD00002E2E5C2E2E5C2E2E5C2E2E5CD2
:1051D0002E2E5C2E2E5C2E2E5C6D6F64756C6573AE
:1051E0005C6E7266785C647269766572735C737209
:1051F000635C7072735C6E7266785F7072732E633C
:105200000000000010B5040003D106A17520FEF7D0
:10521000A3F8204600F07EFB002802D000210160A8
:10522000017110BD2E2E5C2E2E5C2E2E5C2E2E5C5F
:105230002E2E5C2E2E5C2E2E5C6D6F64756C65734D
:105240005C6E7266785C647269766572735C7372A8
:10525000635C7072735C6E7266785F7072732E63DB
:10526000000000000149024800F05ABDD41B002094
:10527000002000402DE9F04117460D00064603D1FD
:105280001AA18420FEF768F83079274A00EB400124
:1052900001EBC00102EB810494F82A1011B108203F
:1052A000BDE8F081214951F820103068FFF76AFF0E
:1052B00008B11120F4E729463046FDF7D7FF6760B3
:1052C000286920601FB1297F3046FEF7B1FA3068A7
:1052D0000421C0F800150020A061E06184F82900D5
:1052E00044F8140F0121A175DAE700002E2E5C2E80
:1052F0002E5C2E2E5C2E2E5C2E2E5C2E2E5C2E2EE8
:105300005C6D6F64756C65735C6E7266785C6472FC
:1053100069766572735C7372635C6E7266785F75D2
:105320006172742E63000000D41B00207C600000BA
:105330002DE9F05F054600790F4600EB400101EBD7
:10534000C0002D49164601EB800494F82A0001287C
:1053500003D02AA1F220FDF7FFFF1FB927A1F320F8
:10536000FDF7FAFF1EB925A1F420FDF7F5FF284649
:1053700000F062F810B11120BDE8F09F66614FF0B7
:105380000009C4F82090A76084F828904FF48E7824
:105390004E4641462868FFF7CEFE28684FF0010AC6
:1053A000C0F808A02146286800F046FC606800BBF1
:1053B000D5F800B067690EE094F8280008B10F2610
:1053C00015E041465846FFF7B1FE0028F4D02146CB
:1053D000584600F031FC206AB842F2D357464146A5
:1053E0002868FFF7A3FE0028F9D02868C760C4F832
:1053F00014903046C0E70000D41B00202E2E5C2EF7
:105400002E5C2E2E5C2E2E5C2E2E5C2E2E5C2E2ED6
:105410005C6D6F64756C65735C6E7266785C6472EB
:1054200069766572735C7372635C6E7266785F75C1
:105430006172742E63000000007900EB400101EB03
:10544000C000044901EB80004069002800D0012021
:1054500070470000D41B00202DE9F0470446007976
:105460004FF0000900EB400101EBC000284901EBBF
:1054700080072068C0F800957868B0B12068254999
:10548000C0F80813206840F3073000280DDB00F057
:105490001F02012191404009800000F1E020C0F886
:1054A0008011BFF34F8FBFF36F8F2068D0F80C25AA
:1054B000D0F81485D0F80865D0F810554FF0FF31BA
:1054C000C0F81415C0F80C152068C0F80815C0F80D
:1054D0001015501C02D01046FFF724F9B8F1FF3F19
:1054E00002D04046FFF71EF9681C02D02846FFF79D
:1054F00019F9701C02D03046FFF714F92068FFF745
:1055000081FE87F82A90C7F80490BDE8F087000074
:10551000D41B0020840202000149024800F0AEBC06
:10552000001C0020002000402DE9F04117460D002E
:10553000064603D118A1A920FDF70EFF3079254AB0
:1055400000EBC00102EB810494F8201011B1082097
:10555000BDE8F081204951F820103068FFF712FEB5
:1055600008B11120F4E729463046FDF7BAFE67601E
:10557000286920601FB1297F3046FEF7AFF93068F7
:105580000821C0F800150020A061E06160610121E0
:1055900084F82010DCE700002E2E5C2E2E5C2E2ED0
:1055A0005C2E2E5C2E2E5C2E2E5C2E2E5C6D6F647F
:1055B000756C65735C6E7266785C64726976657230
:1055C000735C7372635C6E7266785F75617274652A
:1055D0002E630000001C0020806000002DE9F047D1
:1055E00004460F460079364900EBC00001EB800508
:1055F000164695F82000012804D032A140F22D1063
:10560000FDF7AAFE27B92FA14FF49770FDF7A4FE6E
:1056100026B92CA140F22F10FDF79EFE207910B97B
:10562000B6F5803F04D327A14FF49870FDF794FEA0
:105630003846FFF79FFD30B1204600F061F820B1F9
:105640001120BDE8F0871020FBE76E61AF604FF4DA
:1056500090774FF0000839462068FFF77DFD4FF442
:10566000AC7631462068FFF777FD2068AA68696943
:10567000C0F84425C0F8481520684FF00109C0F86B
:1056800008906868D0B9BA4651462068FFF75FFDB8
:10569000074631462068FFF75AFD0743F4D010B1A2
:1056A0004FF00F0808E02068C0F80C9031462068E1
:1056B000FFF74DFD0028F9D0002068614046C0E7A3
:1056C000001C00202E2E5C2E2E5C2E2E5C2E2E5CBE
:1056D0002E2E5C2E2E5C2E2E5C6D6F64756C6573A9
:1056E0005C6E7266785C647269766572735C737204
:1056F000635C6E7266785F75617274652E6300001C
:105700000079054900EBC00001EB800040690028EA
:1057100000D0012070470000001C00202DE9F04758
:10572000064600793D4900EBC00001EB8005346876
:1057300068680127A8B13A49C4F80813306840F3F3
:10574000073000280DDB00F01F0107FA01F14009C6
:10575000800000F1E020C0F88011BFF34F8FBFF34D
:105760006F8FD4F8000220F02000C4F80002A8696E
:105770004FF4A27820B141462046FFF7EDFC676068
:105780004FF4AC7949462046FFF7E6FCE760474610
:1057900049462046FFF7DBFC0028F9D0A86928B16C
:1057A00039462046FFF7D3FC0028F1D04FF0000A1D
:1057B000C4F800A53068D0F80C25D0F81495D0F8BE
:1057C0000885D0F810754FF0FF31C0F80C15C0F8FF
:1057D00014153068C0F80815C0F81015501C02D018
:1057E0001046FEF7A8FFB9F1FF3F02D04846FEF78A
:1057F000A2FF781C02D03846FEF79DFFB8F1FF3FAC
:1058000002D04046FEF797FF2046FFF7FBFC85F8E5
:1058100020A0C5F804A0BDE8F0870000001C00200F
:105820001003420010B50C46017A052908D0407AD1
:1058300038B1084808A102682046FEF7A9FD00E03B
:105840001AB106A12046FEF7A3FD2046BDE8104090
:10585000FEF7DEBDE8000020257300000D0A000001
:1058600038B5C3880D46044633B114A0009015A284
:1058700016A12846FEF78CFD217A05291CD0607AF6
:1058800048B1A088FFF7E6F8164951F8202016A184
:105890002846FEF77DFDA0880021FFF7CDFA0346DC
:1058A0001049207A143951F8202001B02846BDE86B
:1058B00030400EA1FEF76CBD38BD00001B5B306DA3
:1058C000000000001B5B313B33316D0025734C6FD2
:1058D00067732064726F70706564202825642925C1
:1058E000730D0A00E8000020257300003C25733E7C
:1058F0002025733A20000000EFF30580C005C00D9D
:1059000001D001207047EFF3148040F30000401CE9
:10591000704700000349884201D1034870470020C6
:105920007047000000200040780000201A4A811AC9
:10593000904221D012DC194AA0EB020190421BD008
:1059400007DC002814D0164940180FD002281FD1B8
:105950000FE0012919D002291AD110E0072917D226
:10596000DFE801F0161316161616100048F2015063
:10597000704748F20250704748F21050704748F2A2
:105980001350704748F21750704748F21150704753
:1059900048F21650704700000603F0000303F000C1
:1059A00000FD0FFF374A811A90424CD025DC364A61
:1059B000A0EB020190425BD016DC344AA0EB02015E
:1059C00090424CD009DC00283CD03149401840D0EE
:1059D00001283BD0032851D13EE001293FD00229C4
:1059E00040D003294AD146E0092947D2DFE801F037
:1059F00046464646462E462E2B0015293ED012DC42
:105A0000112929D008DC01291DD0032936D00F29FE
:105A100022D0102932D125E0122920D013290FD00D
:105A200014292BD121E016390F2927D2DFE801F004
:105A30001D2626262626262626111A17260E0E0095
:105A400048F21750704748F27050704748F20350C0
:105A5000704748F21350704748F21050704748F2B0
:105A60001150704748F21450704748F20150704787
:105A700048F20250704748F27150704748F2165091
:105A800070470000110CF000080CF000040CF0004E
:105A900000F40FFF70B5054688690C4600284FF4E6
:105AA000847128460AD0FFF746FBD5F81805626ACC
:105AB000E1688854606A401C606270BDFFF73BFB80
:105AC000D5F8180570BD1FB501238DF80030CDE95C
:105AD0000121D0E90012684690471FBD1FB5012380
:105AE0008DF80030CDE90121D0E9001268469047D9
:105AF0001FBD00002DE9F0411400884618D0002594
:105B00000E4F032608EB050122460020FDF7E2F8C0
:105B10000544241A40B93878002809D008494FF4C0
:105B20007A408847761E05D001203870002CE9D1D4
:105B3000BDE8F08100203870FAE700008C000020FA
:105B4000D161000070B50E4C0020D2B22070201D33
:105B50000C4D0378EB5C1BB1001DFFF73FFD02E02D
:105B60000C30FFF7E5FB18B1074A2D21FAF752FB7D
:105B70006078002802D021780029FAD070BD00009A
:105B80009000002064000020E06600002DE9F84F3E
:105B9000054626489146884606681F460122694602
:105BA0001846FDF7E3FBDFF888A0B0B300980021AA
:105BB0000446801C0AE000BF00EA060259F821C032
:105BC0000AEB8202401C491CC2F80CC0B942F3D354
:105BD000B9462F0CFDF776FD8346FFF723F9B8424F
:105BE00004D8144940F28310FDF7B6FB601C304026
:105BF0000AEB800047EA0B423440C2600AEB8400A3
:105C0000C16865F3C50169F3891168F39F2121F02B
:105C10000301491C21F00401C1609AF8000001E071
:105C2000FEF758FF0028FBD1BDE8F88FB800002030
:105C30001C1E00207C67000070B50C4605464FF422
:105C40008E71FFF778FA216AA068415C206A401CD7
:105C50002062C5F81C1570BD1FB500228DF800200C
:105C60000291816801914261D0E900126846904733
:105C70001FBD1FB500228DF800200291816801919F
:105C80004261D0E90012684690471FBD1FB50A4621
:105C900001788DF8001041680191017A8DF80810A3
:105CA000C0680390044850F82210083850F82220A9
:105CB000684690471FBD0000700000200149012088
:105CC000087070479000002010B588B0044620226C
:105CD0000F496846FAF734FB06200090C01F019078
:105CE000029003904FF0EB7006900CB1094A00E06F
:105CF000002269460848FEF7E9FA18B1074A1D2153
:105D0000FAF788FA0448001F447008B010BD00007C
:105D1000E4610000BD5C000094000020E06600002B
:105D20002DE9FF470C4605464FF40071FFF709FACD
:105D300001274FF40178002618B34FF492794946B1
:105D40002846FFF7F3F9E0B149462846FFF7F3F993
:105D5000C5F8088394F8290000B96F6002208DF817
:105D60000000D5F88004C5F880040390A069029073
:105D7000E0680190A661E661D4E9001268469047A8
:105D800028E004212846FFF7DCF918B34FF48471AA
:105D90002846FFF7CBF9E8B121462846FFF77AFEFF
:105DA000616AA069884215D1E06938B1E268616A28
:105DB000A0612069E6616662E06008E094F829006D
:105DC00000B96F60C5F80883A661E268616A204681
:105DD000FFF779FE4FF48E7841462846FFF7A6F983
:105DE00080B16069216A814202D294F8280028B308
:105DF00041462846FFF79FF9606918B1616920465E
:105E0000FFF72AFF4FF4A27841462846FFF78EF9A4
:105E1000002818D041462846FFF78DF994F829004C
:105E200000B12F60A06900280DD0A661E268616A08
:105E300004B02046BDE8F047FFF745BE214628469E
:105E4000FFF7FAFEDEE7BDE8FF8700001FB50A4650
:105E500001788DF8001041680191017A8DF80810E1
:105E6000C0680390044850F82210083850F82220E7
:105E7000684690471FBD0000700000202DE9FF41DB
:105E80000C464FF4927705463946FFF760F9002635
:105E9000B8B139462846FFF75FF902208DF80000B7
:105EA000D5F88004C5F880040390D5F83C0502902D
:105EB000E0680190A661E661D4E900126846904767
:105EC00023E04FF4887739462846FFF740F9E0B1E0
:105ED00039462846FFF740F9D5F83C15A0698842B5
:105EE00013D1E06960B1E268D5F8000220F020002B
:105EF000C5F80002E069A0612069E661E06001E0A8
:105F0000A661E2682046FFF7E9FD4FF4A277394623
:105F10002846FFF71CF968B139462846FFF71CF9F7
:105F2000A06938B1A661E661D5F83C152046E26863
:105F3000FFF7D4FD4FF4907631462846FFF707F976
:105F400060B131462846FFF707F90120E860606933
:105F500020B1D5F84C152046FFF78BFE4FF4AC76F8
:105F600031462846FFF7F3F800280ED03146284680
:105F7000FFF7F2F86069002807D0D5F84C1504B097
:105F80002046BDE8F041FFF774BEBDE8FF81000088
:105F90002DE9F05F8346DDE90A4A994690460D46B1
:105FA0000846012703E000BFB0FBF8F07F1C404526
:105FB000FAD2B94500D94F465FEACA7012D18CB106
:105FC0005FEA8A7002D5B9F1000F01D0202607E000
:105FD000302605E031465846641EFDF70DFA0CB137
:105FE000A742F7D35FF00106B9F1010F02D9A9F179
:105FF000010903E0B5FBF6F0404502D306FB08F6C5
:10600000F2E7DFF83C9000BFB5FBF6F000FB165559
:1060100019F800105846FDF7EFF9B6FBF8F6002E18
:10602000F2D15FEACA7009D0002C07D0A74205D28E
:1060300020215846641EFDF7DFF9F5E7BDE8F09F23
:106040008460000030B100680549884205D048F2FC
:106050000250704748F2015070470020704700001E
:1060600011BADEBA8134000031350000413400003D
:1060700020000000800100000000000065520000C8
:106080001955000030313233343536373839414212
:1060900043444546556E6B6E6F776E206572726F26
:1060A0007220636F646500000000000084660000D9
:1060B0000100000044650000020000003863000099
:1060C00003000000B8650000040000000C6600003A
:1060D00005000000EC640000060000008864000079
:1060E00007000000F46500000800000000650000E3
:1060F00009000000646500000A0000006C660000F2
:106100000B000000206300000C0000001865000078
:106110000D000000BC6600000E000000E4650000F9
:106120000F00000020660000100000005466000010
:1061300011000000D066000080000000A064000094
:1061400081000000DC630000820000009C6300000E
:10615000830000007C63000084000000B86300003E
:1061600085000000C464000086000000CC650000CB
:106170009000000068640000910000005C63000073
:10618000920000002C6500000082000034660000D0
:106190000182000080650000028200009C65000012
:1061A00000840000F8630000018400009066000095
:1061B0000284000040640000038400001C640000AE
:1061C0002949000027490000214900000000000083
:1061D0000338FDD8704700003D4A0000114A000016
:1061E000094A0000FFFFFFFFFFFFFFFFFFFFFFFF68
:1061F000FFFFFFFF00000000000000000000D601CC
:1062000006010000841D00207F000000041E002005
:1062100000404040404040404040414141414140B9
:10622000404040404040404040404040404040406E
:1062300040050202020202020202020202020202FD
:106240000220202020202020202020020202020202
:10625000020290909090909010101010101010105A
:106260001010101010101010101010100202020266
:1062700002028888888888880808080808080808AA
:1062800008080808080808080808080802020202A6
:1062900040000000116200002E2E5C2E2E5C2E2E7F
:1062A0005C2E2E5C2E2E5C2E2E5C2E2E5C636F6D73
:1062B000706F6E656E74735C6C6962726172696531
:1062C000735C63727970746F5C6E72665F6372790F
:1062D00070746F5F686B64662E6300002E2E5C2EF8
:1062E0002E5C2E2E5C2E2E5C2E2E5C2E2E5C2E2EE8
:1062F0005C636F6D706F6E656E74735C6C696272F7
:1063000061726965735C7574696C5C6170705F75EE
:1063100074696C5F706C6174666F726D2E630000DF
:106320004E52465F4552524F525F494E56414C497C
:10633000445F4441544100004E52465F4552524F23
:10634000525F534F46544445564943455F4E4F5460
:106350005F454E41424C4544000000004E52465FAE
:106360004552524F525F464541545552455F4E4F3C
:10637000545F454E41424C45440000004E52465F3A
:106380004552524F525F4D555445585F554E4C4FF4
:10639000434B5F4641494C45440000004E52465F26
:1063A0004552524F525F4D555445585F4C4F434BE9
:1063B0005F4641494C4544004E52465F4552524F5C
:1063C000525F4D555445585F434F4E445F494E49C7
:1063D000545F4641494C4544000000004E52465F20
:1063E0004552524F525F4D555445585F494E49549E
:1063F0005F4641494C4544004E52465F4552524F1C
:10640000525F424C455F495053505F52585F504B6A
:10641000545F5452554E4341544544004E52465FDA
:106420004552524F525F424C455F495053505F5066
:106430004545525F52454A454354454400000000DB
:106440004E52465F4552524F525F424C455F495053
:1064500053505F4C494E4B5F444953434F4E4E455A
:1064600043544544000000004E52465F4552524F8F
:10647000525F4150495F4E4F545F494D504C454D1E
:10648000454E5445440000004E52465F4552524F1F
:10649000525F4E4F545F535550504F525445440035
:1064A0004E52465F4552524F525F4D4F44554C45F8
:1064B0005F4E4F545F494E495449414C495A4544F7
:1064C000000000004E52465F4552524F525F4D4F02
:1064D00044554C455F414C52454144595F494E49F2
:1064E0005449414C495A4544000000004E52465F11
:1064F0004552524F525F4E4F545F464F554E4400E7
:106500004E52465F4552524F525F494E56414C499A
:10651000445F5354415445004E52465F4552524FDA
:10652000525F444154415F53495A45004E52465FC1
:106530004552524F525F494F5F50454E44494E4776
:10654000000000004E52465F4552524F525F535674
:10655000435F48414E444C45525F4D495353494E69
:10656000470000004E52465F4552524F525F494E1F
:1065700056414C49445F4C454E475448000000008A
:106580004E52465F4552524F525F4452565F5457E7
:10659000495F4552525F414E41434B004E52465F68
:1065A0004552524F525F4452565F5457495F4552CD
:1065B000525F444E41434B004E52465F4552524F4C
:1065C000525F494E5445524E414C00004E52465F78
:1065D0004552524F525F53544F524147455F4655C3
:1065E0004C4C00004E52465F4552524F525F4E5542
:1065F0004C4C00004E52465F4552524F525F494E3E
:1066000056414C49445F504152414D004E52465F05
:106610004552524F525F4E4F5F4D454D00000000B6
:106620004E52465F4552524F525F464F5242494486
:1066300044454E004E52465F4552524F525F4452BF
:10664000565F5457495F4552525F4F564552525517
:106650004E0000004E52465F4552524F525F494E27
:1066600056414C49445F4144445200004E52465FFB
:106670004552524F525F494E56414C49445F464C39
:10668000414753004E52465F5355434345535300D1
:106690004E52465F4552524F525F424C455F495001
:1066A00053505F4348414E4E454C5F414C5245412B
:1066B00044595F4558495354530000004E52465FB9
:1066C0004552524F525F54494D454F5554000000BA
:1066D0004E52465F4552524F525F42555359000049
:1066E0002E2E5C2E2E5C2E2E5C2E2E5C2E2E5C2EE4
:1066F0002E5C2E2E5C636F6D706F6E656E74735CB6
:106700006C69627261726965735C6C6F675C7372ED
:10671000635C6E72665F6C6F675F6261636B656E10
:10672000645F756172742E63000000002E2E5C2E73
:106730002E5C2E2E5C2E2E5C2E2E5C2E2E5C2E2E93
:106740005C636F6D706F6E656E74735C6C696272A2
:1067500061726965735C6C6F675C7372635C6E72A7
:10676000665F6C6F675F64656661756C745F6261BC
:10677000636B656E64732E63000000002E2E5C2E2A
:106780002E5C2E2E5C2E2E5C2E2E5C2E2E5C2E2E43
:106790005C636F6D706F6E656E74735C6C69627252
:1067A00061726965735C6C6F675C7372635C6E7257
:1067B000665F6C6F675F66726F6E74656E642E6382
:1067C000000000007761726E696E67006465627533
:1067D000670000001B5B313B33306D001B5B306D8D
:1067E000000000001B5B313B33316D001B5B313B14
:1067F00033326D001B5B313B33336D001B5B313B30
:1068000033346D001B5B313B33356D001B5B313B1B
:1068100033366D001B5B313B33376D00696E666F3D
:10682000000000006572726F72000000726E6700F7
:1068300050525300524E4700554152540000000040
:1068400055415254450000006D656D5F6D6E677275
:10685000000000007274745F6C6F675F6261636B4D
:10686000656E6400756172745F6C6F675F6261630F
:106870006B656E640000000061707000000102032F
:106880000405060708090A0B0C0D0E0F1011121350
:106890001415161718191A1B1C1D1E1FC6A13B37ED
:1068A000878F5B826F4F8162A1C8D8799503E3A27D
:1068B000245A2BE43C9874EDFE1BED9EF29000B63A
:1068C0002A499FD0A9F39A6ADD2E77809DBA41A705
:1068D00077F3B46A37B7AAAE49D6DF8D2F7A3C601A
:1068E0000708D124ACD3C5DE3B65844708C9BCF397
:1068F00067E6096A3BA7CA8485AE67BB2BF894FE9E
:1069000072F36E3CF1361D5F3AF54FA5D182E6ADCC
:106910007F520E511F6C3E2B8C68059B6BBD41FB5B
:10692000ABD9831F79217E1319CDE05B4661696C79
:1069300020746F2061637175697265206D7574656F
:10694000780A00004661696C20746F2072656C657E
:10695000617365206D757465780A00004661696C25
:1069600020746F20646563726561736520504D20EB
:10697000636F756E7465720A000000004661696C91
:1069800020746F20696E63726561736520504D20BD
:10699000636F756E7465720A0000000014001C00BD
:1069A0002000300040000000141C20304000000097
:1069B00000000000010000000300000002000000D1
:1069C000FFFFFFFF07000000140000002000000090
:1069D0001C000000400000000123456789ABCDEF9B
:1069E000FEDCBA9876543210F0E1D2C3D89E05C1CD
:1069F00007D57C3617DD703039590EF7310BC0FFE3
:106A000011155868A78FF964A44FFABE67E6096AA2
:106A100085AE67BB72F36E3C3AF54FA57F520E51BF
:106A20008C68059BABD9831F19CDE05B000000008B
:106A300022AE28D7982F8A42CD65EF239144377133
:106A40002F3B4DECCFFBC0B5BCDB8981A5DBB5E9A5
:106A500038B548F35BC2563919D005B6F111F15972
:106A60009B4F19AFA4823F9218816DDAD55E1CABA3
:106A7000420203A398AA07D8BE6F7045015B831238
:106A80008CB2E44EBE853124E2B4FFD5C37D0C55F3
:106A90006F897BF2745DBE72B196163BFEB1DE80EB
:106AA0003512C725A706DC9B942669CF74F19BC1DC
:106AB000D24AF19EC1699BE4E3254F388647BEEF79
:106AC000B5D58C8BC69DC10F659CAC77CCA10C2431
:106AD00075022B596F2CE92D83E4A66EAA84744AA3
:106AE000D4FB41BDDCA9B05CB5531183DA88F976DB
:106AF000ABDF66EE52513E981032B42D6DC631A810
:106B00003F21FB98C82703B0E40EEFBEC77F59BFF3
:106B1000C28FA83DF30BE0C625A70A934791A7D5DE
:106B20006F8203E05163CA06706E0E0A672929144A
:106B3000FC2FD246850AB72726C9265C38211B2E92
:106B4000ED2AC45AFC6D2C4DDFB3959D130D3853BF
:106B5000DE63AF8B54730A65A8B2773CBB0A6A76D2
:106B6000E6AEED472EC9C2813B358214852C729268
:106B70006403F14CA1E8BFA2013042BC4B661AA8E5
:106B80009197F8D0708B4BC230BE5406A3516CC79E
:106B90001852EFD619E892D110A96555240699D656
:106BA0002A20715785350EF4B8D1BB3270A06A1017
:106BB000C8D0D2B816C1A41953AB4151086C371EC6
:106BC00099EB8EDF4C774827A8489BE1B5BCB034E1
:106BD000635AC9C5B30C1C39CB8A41E34AAAD84EC3
:106BE00073E363774FCA9C5BA3B8B2D6F36F2E688A
:106BF000FCB2EF5DEE828F74602F17436F63A57850
:106C000072ABF0A11478C884EC39641A0802C78CFE
:106C1000281E6323FAFFBE90E9BD82DEEB6C50A410
:106C20001579C6B2F7A3F9BE2B5372E3F27871C699
:106C30009C6126EACE3E27CA07C2C021C7B886D1CA
:106C40001EEBE0CDD67DDAEA78D16EEE7F4F7DF592
:106C5000BA6F1772AA67F006A698C8A2C57D630A24
:106C6000AE0DF9BE04983F111B471C13350B711B69
:106C7000847D0423F577DB289324C7407BABCA329D
:106C8000BCBEC9150ABE9E3C4C0D109CC4671D437A
:106C9000B6423ECBBED4C54C2A7E65FC9C297F59AA
:106CA000ECFAD63AAB6FCB5F1758474A8C19446C55
:106CB0004661696C20746F2061637175697265202B
:106CC0006D757465780A00004661696C20746F20E8
:106CD00072656C65617365206D757465780A000076
:106CE0004661696C20746F206465637265617365C9
:106CF00020504D20636F756E7465720A00000000AD
:106D00004661696C20746F20696E6372656173659A
:106D100020504D20636F756E7465720A000000008C
:106D20004661696C20746F206163717569726520BA
:106D30006D757465780A00004661696C20746F2077
:106D400072656C65617365206D757465780A000005
:106D50004661696C20746F20646563726561736558
:106D600020504D20636F756E7465720A000000003C
:106D70004661696C20746F20696E6372656173652A
:106D800020504D20636F756E7465720A000000001C
:106D90004661696C20746F2061637175697265204A
:106DA0006D757465780A00004661696C20746F2007
:106DB00072656C65617365206D757465780A000095
:106DC0004661696C20746F206765742054524E4789
:106DD00020636861726163746572697A6174696F56
:106DE0006E20706172616D6574657273200A0000B7
:106DF000536153695F48616C57616974496E74658A
:106E000072727570742063616E742077616974208A
:106E1000666F72206E6F7468696E670A000000000A
:106E20004661696C20746F206372656174652053DC
:106E3000594D206D757465780A0000004661696CD3
:106E400020746F20637265617465204153594D2031
:106E50006D757465780A00004661696C20746F2056
:106E60006372656174652047656E566563206D7554
:106E70007465780A000000004661696C65642074DE
:106E80006F2063726561746520506F776572206D45
:106E9000757465780A00000043616E277420696E7E
:106EA000697469616C697A65206D757465782C20E8
:106EB000776173204E554C4C0D0A000043616E27DC
:106EC00074206C6F636B206D757465782C2077610E
:106ED00073204E554C4C0D0A0000000043616E2794
:106EE0007420756E6C6F636B206D757465782C20E3
:106EF000776173204E554C4C0D0A00004661696C59
:106F000020746F2061637175697265206D75746599
:106F1000780A00004661696C20746F2072656C65A8
:106F2000617365206D757465780A0000D46F000088
:106F300000000020100100007A300000E470000022
:106F400010010020D84900008A300000953500006B
:106F5000AD360000C0610000000000005468000071
:106F6000A8000020D8610000000000006468000054
:106F7000B00000202C680000000000003068000015
:106F800000000000346800000000000038680000C5
:106F90000000000040680000000000004868000099
:106FA000000000007868000000000404C400002015
:106FB000BC000020C4000020C41C002018000000F9
:106FC000C81B0020841B00204000000001000000BE
:106FD000000000000B0B0B0B0B0B0B0B0B0B0B0B2D
:106FE0000B0B0B0B0B0B0B0B0B0B00010203040524
:106FF000060708090A0B0CF0F1F2F3F4F5F6F7F8BE
:10700000F93CB25F25FAACD57A90434F64D0362F65
:107010002A2D2D0A90CF1A5A4C5DB02D56ECC4C5BE
:10702000BF34007208D5B88718586500000000000A
:107030000000000000000000000000000000000050
:107040000000000000000000000000000000000040
:107050000000000000000000000000000000000030
:1070600000000000000000000000000000200040C0
:1070700000000000002000400000000000000000B0
:10708000FF00000000000000FF000000FF00000003
:1070900000000000000000000000000000000000F0
:1070A0000000000000000000000000002468000054
:1070B000C46700001C680000CC670000DC670000AB
:1070C000D4670000E4670000EC670000F46700008C
:1070D000FC670000046800000C68000014680000F1
:0470E0000090D00349
:0400000500000201F4
:00000001FF
