:020000040000FA
:1000000090200020150200001D0200001F020000C9
:100010002102000023020000250200000000000071
:1000200000000000000000000000000027020000A7
:1000300029020000000000002B0200002D02000039
:100040002F0200002F0200002F0200002F020000EC
:100050002F0200002F0200005D0200002F020000AE
:100060002F020000390600002F0200002F020000BE
:100070002F0200002F0200002F0200002F020000BC
:100080002F020000010300002F0200002F020000D9
:100090002F0200002F0200002F0200002F0200009C
:1000A0002F0200002F0200002F0200002F0200008C
:1000B0002F0200002F0200000000000000000000DE
:1000C0002F0200002F0200002F0200002F0200006C
:1000D0002F0200002F0200002F020000000000008D
:1000E0000000000000000000000000000000000010
:1000F0000000000000000000000000000000000000
:1001000000000000000000000000000000000000EF
:1001100000000000000000000000000000000000DF
:1001200000000000000000000000000000000000CF
:1001300000000000000000000000000000000000BF
:1001400000000000000000000000000000000000AF
:10015000000000000000000000000000000000009F
:10016000000000000000000000000000000000008F
:10017000000000000000000000000000000000007F
:10018000000000000000000000000000000000006F
:10019000000000000000000000000000000000005F
:1001A000000000000000000000000000000000004F
:1001B000000000000000000000000000000000003F
:1001C000000000000000000000000000000000002F
:1001D000000000000000000000000000000000001F
:1001E000000000000000000000000000000000000F
:1001F00000000000000000000000000000000000FF
:10020000DFF80CD000F018F800480047CD080000D7
:10021000902000200648804706480047FEE7FEE79A
:10022000FEE7FEE7FEE7FEE7FEE7FEE7FEE7FEE7A6
:100230001103000001020000064C074D06E0E068D3
:1002400040F0010394E8070098471034AC42F6D31D
:10025000FFF7DAFFF40C0000140D00002DE9F8435D
:100260000025DFF894804FF4807601242F46009516
:10027000304600F0ADFB38B1D8F80403204203D07B
:10028000304600F09BFB2543361D64007F1CB6B250
:10029000082FEDD34FF4BE74204600F099FB48B10F
:1002A000204600F08BFB45F000456A460121002006
:1002B00000F062FB15F0FF0F16D0012600242E423D
:1002C0000ED008EB8401D1F81005D1F81015C0F359
:1002D00004200A4AC1F3014152F8242002B1904798
:1002E0007600641C082CEAD3002D02DA684600F080
:1002F0002BFCBDE8F88300000060004028000020CF
:1003000002490248091F0968006808471C000020CC
:10031000F0B5B74AB7494FF080541368D4F83001AC
:100320000978D4F83421451CC1F3031106D0844662
:1003300001270025BCF1060F03D00AE003F0FF0CF3
:10034000F6E7B4F82463DFF8B0C2C6F30426CCF8AD
:100350000060DEB2062E06D1032904D1DFF8A0C268
:10036000A64ECCF87460461C04D08446BCF1060F3F
:1003700003D00AE003F0FF0CF8E7D4F84462DFF89A
:1003800084C2C6F34236CCF80060DEB2062E08D135
:10039000032906D19C4ED6F800C02CF0807CC6F80C
:1003A00000C0461C04D08446BCF1060F03D00BE00D
:1003B00003F0FF0CF8E74FF08046C6F80C51C6F882
:1003C0001051904E361F3560DEB2062E08D103293B
:1003D00006D1DFF830C203260CF1640CCCF80060C3
:1003E000DEB2062E11D103290FD1DFF820C2052677
:1003F000CCF80060854E78363760844E083635601C
:100400000CF1040C3F26CCF80060461C06D0844654
:100410004FEA0206BCF1060F04D081E003F0FF0CA6
:100420000E46F7E7032E7BD0042E79D0784E36683F
:10043000DFF8E0C1CCF80060754E361D36680CF16F
:10044000040CCCF80060724E083636680CF1040CCF
:10045000CCF800606E4E0C3636680CF1040CCCF80B
:1004600000606B4E103636680CF1040CCCF800605E
:10047000674E143636680CF1040CCCF80060644EFC
:1004800018363668DFF88CC10CF1200CCCF800600F
:100490005F4E1C3636680CF1040CCCF800605C4EE4
:1004A000203636680CF1040CCCF80060584E243627
:1004B00036680CF1040CCCF80060554E28363668CE
:1004C0000CF1040CCCF80060514E2C3636680CF15F
:1004D000040CCCF800604E4E30363668DFF834C17C
:1004E0000CF1400CCCF80060494E343636680CF103
:1004F000040CCCF80060464E383636680CF1040C1B
:10050000CCF80060424E3C3636680CF1040CCCF856
:1005100000603F4E403636680CF1040CCCF80060A9
:10052000461C05D04FEA000CBCF1060F03D008E0D2
:1005300003F0FF0CF8E7D4F85842374E04F04F04AC
:100540003460441C03D00346062B02D008E0DBB223
:10055000FAE732490B68DB0702D06FF001030B604A
:1005600006280AD1032A08D0042A06D0052A04D076
:100570002B48016841F480610160234874380168A8
:1005800041F470010160BFF34F8FBFF36F8F4FF0E5
:100590001021D1F80002002803DBD1F80402002862
:1005A00022DA204A176020480368002BFCD015236C
:1005B000C1F800320468002CFCD0C1F80432016894
:1005C0000029FCD0156001680029FCD0BFF34F8FD3
:1005D0000D48F0380168154A01F4E06111430160EB
:1005E000BFF34F8F00BFFDE7124911480860F0BD0F
:1005F000E00F00F0E80F00F0403501400DF0ADBA1B
:1006000000C007403C050040FCED00E010560040F3
:100610000404001020C50040E40E00400004004027
:100620003C17004004E5014000E401400400FA05E5
:100630000090D003240000202DE9F047104E04273D
:1006400000244FF4A0784FF4803900BF08EB8405F4
:1006500009FA04F0715961B1D6F80413014208D0C7
:100660002946304600F0BCF90648D0E9002128466A
:100670009047641CE4B2BC42E8D3BDE8F0870000B8
:10068000009000408400002002E008C8121F08C14A
:10069000002AFAD170477047002001E001C1121F03
:1006A000002AFBD1704700F0E3F84FF47A7420463B
:1006B00000F02EF9002000F0B9F8012000F0B6F8A3
:1006C000F5E70EB500210091CDE901106A4644F22C
:1006D0000100FFF7E8FF0EBDB0F5A07F07D1044988
:1006E000487808B902200870886849680847704748
:1006F0000C0000201CB50C490C4AD1E90201CDE9DF
:10070000000100208DF801008DF8020004208DF812
:1007100000006946044800F0AFF9002802D1044AFD
:10072000012111701CBD0000E40C0000D90600007E
:100730000C0000202DE9F843984691460F0005462D
:1007400005D0012D05D035B10720BDE8F8830E2076
:10075000FBE7012601E04FF48076154C207810B1BC
:10076000032802D006E00820EFE700F025F808B1E2
:10077000FFF7A7FF2078022802D10E4800F036F9D3
:100780006570C4E901780120009033464A46002193
:10079000084800F05BF920780228064805D000F0F0
:1007A00047F9032020700020CFE700F0C9F9F8E7EF
:1007B0000C000020E40C000010B5054C2078032844
:1007C00004D1044800F0B8F902202070002010BDC8
:1007D0000C000020E40C00002DE9FC410646C00797
:1007E0004FF000050ED0104F00240122385D009517
:1007F00000231146019500F09BF8641C042CF4D3EF
:1008000000F036F8B0070DD5074E0024361D002243
:10081000305D032300951146019500F089F8641CB2
:10082000042CF4D3BDE8FC81D60C000007490B5C16
:100830004FF0A041D1F804250120984020EA02039E
:10084000C1F808351040C1F80C057047D60C0000FF
:100850000249085C012100F0A5B80000D60C000098
:100860000249085C002100F09DB80000D60C000091
:1008700010B500242046FFF7EBFF641C042CF9D3CD
:1008800010BD00000249084490F930007047000094
:100890002800002010B50C46FFF7C8FF094A2820A1
:1008A00050600A20906000234CF2503206492046E6
:1008B000FFF740FF002803D0BDE81040FFF701BF5D
:1008C00010BD000000000020310C0000FFF712FFF7
:1008D00008B1FFF7F6FE0120FFF77EFF0020FFF7CB
:1008E000BFFF0120FFF7BCFF4FF47A7000F010F853
:1008F000002000F08BF920BF40BF20BFFBE7C208FB
:1009000000F007030120895C984008407047000010
:100910002DE9F041040007D0044E4FF47A47751CCE
:100920003846A847641EFAD1BDE8F081D00C00001B
:1009300070B541EA4201DDE904564FF0A04441EAB6
:10094000830141EA052104EB800041EA0641C0F839
:10095000001770BD4FF0A04202EB8000D0F80027D6
:1009600022F44032C0F80027D0F8002742EA0141C3
:10097000C0F800177047000038B5094B44181B68D1
:1009800000936B4608E000BF53F82010D1F82055C3
:1009900020C2C1F82055401C8442F5D838BD000063
:1009A000E00C000001224FF0A043824011B1C3F8D7
:1009B00008257047C3F80C2570470000034908B5A7
:1009C0000844002101600068009008BD00600040FC
:1009D00002494058012800D00020704700600040C4
:1009E00008B5002242504058009008BD006801211F
:1009F000C16070472DE9F04106460D464FF4803442
:100A000000681746AC404BB14FF4A07101EB850173
:100A1000FFF7E6FF3068C0F8044301E0C0F8084380
:100A2000306800EB8500C0F84075BDE8F08100003B
:100A3000016801220A600079034A00EB400002EBE2
:100A4000800002210172704784000020F0B4046825
:100A5000049E40F20115D4F800728D40AF43C4F8F3
:100A600000720468D4F800521D43C4F800523346A3
:100A7000F0BCFFF7BFBF00002DE9F04104460E4671
:100A800000792C4900EB400001EB8007387A10B167
:100A90000820BDE8F0813A60706800254FF4A07826
:100AA000786006E008EB85012068FFF799FF6D1C70
:100AB000EDB26079A842F5D82068F17840F30730AC
:100AC00000284FEA411104DB00F1E02080F8001417
:100AD00005E000F00F0000F1E02080F8141D206810
:100AE000012140F30730002809DB00F01F0201FA62
:100AF00002F24009800000F1E020C0F800212068E7
:100B00007278D0F8043562F30103C0F80435206828
:100B1000B278D0F8083562F30103C0F808352068D0
:100B20003278D0F8103562F30303C0F8103539720B
:100B30000020AEE78400002000680121416070477A
:100B400000680121016070472DE9F05F2A4F0646D9
:100B50004FF0A04A4FF0010B0024381990F95010C3
:100B6000491C3CD090F85000314620F0C005284682
:100B7000FFF7C5FE20B3204600F040F881460AEB9F
:100B80008500D0F80007C0F30148B8F1020F18D073
:100B900002212846FFF7DEFE0BFA05F1CAF8201500
:100BA0002846FFF76FFE57F820204AB14846B9F1B2
:100BB000030F11D0B8F1020F05D0B8F1030F07D021
:100BC0000DE00321E5E74846B9F1010F04D006E046
:100BD0004846B9F1020F02D1014628469047641CED
:100BE000042CBAD3324601210020FFF7C5FE30683D
:100BF0000028B1D1BDE8F09F280000200249084438
:100C000090F85000800970472800002007490870BC
:100C1000087820B1012805D00878FFF752BD0021DF
:100C2000084601E001210846FFF734BE000000201D
:100C3000234810B502780A211AB1012A1DD0007884
:100C400015E04268521E426015D08268521E8260D2
:100C500003D181600020FFF7E9FD00234CF2503200
:100C6000AFF233011846FFF765FD002827D0BDE835
:100C70001040FFF726BD01201DE04268521E426071
:100C800009D08268521E826019D18160BDE810408F
:100C90000120FFF7CBBD0020FFF7E2FD0120FFF7A9
:100CA000DFFDFFF789FD08B1FFF70BFD4FF47A7008
:100CB000FFF72EFE0020BDE81040FFF7A7BF10BDD4
:100CC0000000002000000000000000000000000004
:100CD0000338FDD87047111213140D0E0F100000C9
:100CE00000000050009000400004000000000006DA
:100CF00000000000140D000000000020280000008B
:100D0000880600003C0D000028000020682000003C
:100D10009806000000000000000000000000000035
:100D200000000000000000000000000000000000C3
:0C0D300000000000000000000090D00354
:0400000500000201F4
:00000001FF
