:020000040000FA
:10000000182A0020C1030000C9030000CB03000030
:10001000CD030000CF030000D1030000000000006A
:10002000000000000000000000000000D3030000FA
:10003000D503000000000000D7030000D903000032
:1000400005060000DB030000C5090000DB0300001B
:10005000DB030000DB03000061050000DB030000A0
:10006000DB030000DB030000DB030000DB03000018
:10007000DB030000DB030000DB030000DB03000008
:10008000DB0300008D060000DB030000DB03000043
:10009000DB030000DB030000DB030000DB030000E8
:1000A000DB030000DB030000DB030000DB030000D8
:1000B0005D060000DB0300000000000000000000FF
:1000C000DB0300006D0600007D060000DB0300007E
:1000D000DB030000DB030000DB0300000000000086
:1000E0000000000000000000000000000000000010
:1000F0000000000000000000000000000000000000
:1001000000000000000000000000000000000000EF
:1001100000000000000000000000000000000000DF
:1001200000000000000000000000000000000000CF
:1001300000000000000000000000000000000000BF
:1001400000000000000000000000000000000000AF
:10015000000000000000000000000000000000009F
:10016000000000000000000000000000000000008F
:10017000000000000000000000000000000000007F
:10018000000000000000000000000000000000006F
:10019000000000000000000000000000000000005F
:1001A000000000000000000000000000000000004F
:1001B000000000000000000000000000000000003F
:1001C000000000000000000000000000000000002F
:1001D000000000000000000000000000000000001F
:1001E000000000000000000000000000000000000F
:1001F00000000000000000000000000000000000FF
:10020000DFF80CD000F06EF900480047211F000015
:10021000182A002030B450E8012F93B2C489234437
:100220008489A34228BF1B1B0489A34202BFBFF3DA
:100230002F8F002007E0C3EA020340E80134002CBE
:10024000E9D14FF001000A6030BC704750E8012F3F
:10025000C2EA024240E801210029F7D1704730B4D8
:1002600050E8022F1FFAA2F3C488A34202BFBFF3D3
:100270002F8F00200DE0C48923448489A34228BF26
:100280001B1BC2EA034340E80234002CE8D14FF0C4
:1002900001000A6030BC704750E8022FC2EA2242D7
:1002A00040E802210029F7D17047034653E8022FA6
:1002B000D988B2EB324F4FF0000017BF92B241EA3B
:1002C000014142EA014104E05A68B2EB324F08BFF3
:1002D000012043E80212002AE8D1704730B40446F6
:1002E00054E8000F0D4644E80053002BF8D1156088
:1002F00030BC704730B4044654E8000F40EA0105B2
:1003000044E80053002BF7D1156030BC704730B47F
:10031000044654E8000F00EA010544E80053002BAE
:10032000F7D1156030BC704730B4044654E8000F74
:1003300080EA010544E80053002BF7D1156030BC7A
:10034000704730B4044654E8000F00EB010544E860
:100350000053002BF7D1156030BC704730B4044611
:1003600054E8000FA0EB010544E80053002BF7D13F
:10037000156030BC704770B404464FF0000054E87C
:10038000006F0D68AE4207BF44E80023012044E837
:1003900000630E60002B1CBF0020F0E770BC7047AC
:1003A00030B4044654E8000F88422CBF451A054675
:1003B00044E80053002BF5D1156030BC70470000B5
:1003C0000648804706480047FEE7FEE7FEE7FEE7EF
:1003D000FEE7FEE7FEE7FEE7FEE7FEE79D0600001C
:1003E000010200002DE9F05F0546002092469B4681
:1003F00088460646814640241BE02846414647463B
:10040000224600F05EF853465A46C01A914110D376
:1004100011461846224600F016F82D1A67EB01081F
:100420004F4622460120002100F00DF817EB00098D
:100430004E41201EA4F10104DFDC484631462A4625
:100440004346BDE8F09F202A04DB203A00FA02F17F
:10045000002070479140C2F1200320FA03F31943B2
:1004600090407047004870471444000040EA010380
:100470009B0703D009E008C9121F08C0042AFAD25A
:1004800003E011F8013B00F8013B521EF9D270471E
:10049000D2B201E000F8012B491EFBD270470022C6
:1004A000F6E710B513460A4604461946FFF7F0FF73
:1004B000204610BD421C10F8011B0029FBD1801AF8
:1004C0007047202A04DB203A21FA02F0002170470D
:1004D00021FA02F3D040C2F12002914008431946AC
:1004E00070470000064C074D06E0E06840F001034D
:1004F00094E8070098471034AC42F6D3FFF784FE27
:10050000EC4400000C45000070B58C1810F8015B3D
:1005100015F0070301D110F8013B2A1106D110F89C
:10052000012B03E010F8016B01F8016B5B1EF9D1A0
:100530002B0705D40023521E0DD401F8013BFAE726
:1005400010F8013BCB1A921C03E013F8015B01F891
:10055000015B521EF9D5A142D8D3002070BD000026
:100560002DE9F8430025DFF894804FF480760124CC
:100570002F460095304602F081F838B1D8F80403D0
:10058000204203D0304602F06FF82543361D640048
:100590007F1CB6B2082FEDD34FF4BE74204602F094
:1005A0006DF848B1204602F05FF845F000456A4614
:1005B0000121002002F028F815F0FF0F16D00126C7
:1005C00000242E420ED008EB8401D1F81005D1F89A
:1005D0001015C0F304200A4AC1F3014152F8242047
:1005E00002B190477600641C082CEAD3002D02DA91
:1005F000684603F007F9BDE8F8830000006000409A
:10060000E402002070B54FF48076304601F0DFFD43
:10061000114CB50560B1304601F0E0FD0120C5F890
:100620000803607920B901206071216800208847A3
:100630004FF48276304601F0CAFD00280AD03046D9
:1006400001F0CCFD0220C5F808032168BDE8704028
:100650000120084770BD00008C00002001490248BD
:1006600001F090BB4003002000C001400149024856
:1006700001F088BB480300200010024001490248F5
:1006800001F080BB500300200020024002490248D4
:10069000091F096800680847E4000020F0B5B74A60
:1006A000B7494FF080541368D4F830010978D4F872
:1006B0003421451CC1F3031106D0844601270025CF
:1006C000BCF1060F03D00AE003F0FF0CF6E7B4F824
:1006D0002463DFF8B0C2C6F30426CCF80060DEB2B3
:1006E000062E06D1032904D1DFF8A0C2A64ECCF80D
:1006F0007460461C04D08446BCF1060F03D00AE0A7
:1007000003F0FF0CF8E7D4F84462DFF884C2C6F3C4
:100710004236CCF80060DEB2062E08D1032906D19D
:100720009C4ED6F800C02CF0807CC6F800C0461C59
:1007300004D08446BCF1060F03D00BE003F0FF0C9D
:10074000F8E74FF08046C6F80C51C6F81051904EAD
:10075000361F3560DEB2062E08D1032906D1DFF838
:1007600030C203260CF1640CCCF80060DEB2062E19
:1007700011D103290FD1DFF820C20526CCF8006083
:10078000854E78363760844E083635600CF1040C9F
:100790003F26CCF80060461C06D084464FEA02068D
:1007A000BCF1060F04D081E003F0FF0C0E46F7E722
:1007B000032E7BD0042E79D0784E3668DFF8E0C166
:1007C000CCF80060754E361D36680CF1040CCCF880
:1007D0000060724E083636680CF1040CCCF80060EC
:1007E0006E4E0C3636680CF1040CCCF800606B4E83
:1007F000103636680CF1040CCCF80060674E1436E5
:1008000036680CF1040CCCF80060644E183636687B
:10081000DFF88CC10CF1200CCCF800605F4E1C3668
:1008200036680CF1040CCCF800605C4E203636685B
:100830000CF1040CCCF80060584E243636680CF1EC
:10084000040CCCF80060554E283636680CF1040CC8
:10085000CCF80060514E2C3636680CF1040CCCF804
:1008600000604E4E30363668DFF834C10CF1400C73
:10087000CCF80060494E343636680CF1040CCCF8E4
:100880000060464E383636680CF1040CCCF8006037
:10089000424E3C3636680CF1040CCCF800603F4EFA
:1008A000403636680CF1040CCCF80060461C05D0CC
:1008B0004FEA000CBCF1060F03D008E003F0FF0C78
:1008C000F8E7D4F85842374E04F04F043460441C23
:1008D00003D00346062B02D008E0DBB2FAE7324928
:1008E0000B68DB0702D06FF001030B6006280AD10A
:1008F000032A08D0042A06D0052A04D02B48016810
:1009000041F48061016023487438016841F470014A
:100910000160BFF34F8FBFF36F8F4FF01021D1F8FD
:100920000002002803DBD1F80402002822DA204A62
:10093000176020480368002BFCD01523C1F8003253
:100940000468002CFCD0C1F8043201680029FCD0F6
:10095000156001680029FCD0BFF34F8F0D48F038B7
:100960000168154A01F4E06111430160BFF34F8F44
:1009700000BFFDE7124911480860F0BDE00F00F02C
:10098000E80F00F0403501400DF0ADBA00C007405F
:100990003C050040FCED00E010560040040400104F
:1009A00020C50040E40E0040000400403C17004019
:1009B00004E5014000E401400400FA050090D00382
:1009C00060010020014800680047000094000020FA
:1009D00002E008C8121F08C1002AFAD17047704708
:1009E000002001E001C1121F002AFBD17047022044
:1009F00000F0C2B970B50024064D06E06868012118
:100A000010F8340002F05CFA641C28788442F5D3B4
:100A1000002070BDA0000020F8B516460C46054623
:100A20000A2A01D20720F8BD02F044FB18B902F0EF
:100A300007FB0028F7D1134F102113487D603C704D
:100A4000BE60FFF72CFD0020C7E904000F4E0DE04B
:100A500005EBC4003168009181788DF801100078B1
:100A60000B4A694602F07CFA0028DCD1641EE4B22D
:100A7000EED2BDE8F84005480021064A001D00F00E
:100A80005BB80000A0000020C8030020184300004D
:100A9000E51B0000E517000070B514460D4606463C
:100AA00000F0A5F9224629463046BDE8704000F026
:100AB0000BB80EB500210091CDE901106A4644F251
:100AC0000100FFF7E9FF0EBD08B501238DF80030E6
:100AD0009DF80030144B186059609A606FF48041A3
:100AE000401807D001280FD1DA60D86800689861F3
:100AF000D86807E01A611869806858611869006849
:100B0000986118694068D861186858689868D8680A
:100B1000186958699869D86972B600BF9DF80000D5
:100B20000028FBD162B608BDD8030020014800F0C0
:100B3000C0BE0000C00000203AB100680129426137
:100B400000D000210161002070470720704700009D
:100B500038B5114808235822416800910F490068B0
:100B600001F080FA002815D10D4A69460D4800F0C1
:100B7000A5FE04000ED101210A4800F01AFF01234E
:100B8000094A1946074800F06CFE06490120083959
:100B90000870204638BD00002043000008040020F3
:100BA000B5390000C0000020FFFF7F0070B504468B
:100BB000007F0D4608B1002070BDA26100F0F8FF73
:100BC000401941F10001C4E90201206900B1256129
:100BD0002146BDE87040002003F0CCB8014600205B
:100BE0000877012003F0C6B800F002B800F008B89A
:100BF00072B602480168491C01607047DC000020A1
:100C000003490868401E086000D162B670470000C2
:100C1000DC0000202DE9F041064608680C46411C26
:100C20004FF0A0474FF0010506D005FA00F1C7F8D4
:100C30000815206801F0C2FC6068411C02D0002148
:100C400001F0AAFC3168A069C1F82405607D227D0D
:100C500031681043C1F86C05D4E900123068C0F85F
:100C60001425C0F80C15207D012815D1A068411C61
:100C700002D0002101F090FCE068411C05D08540C5
:100C8000C7F80855E06801F099FCD4E90212306811
:100C9000C0F80825C0F81015BDE8F0812DE9F04135
:100CA000064608680C46411C4FF0A0474FF001056E
:100CB00006D005FA00F1C7F80815206801F088FC95
:100CC0006068411C02D0002101F06FFC3168A0690E
:100CD000C1F82405607D217D32680843C2F86C05A7
:100CE000D4E900123068C0F80C15C0F81425207D36
:100CF000012815D1A068411C02D0002101F055FC4B
:100D0000E068411C05D08540C7F80855E06801F04F
:100D10005FFCD4E902123068C0F80825C0F810154D
:100D2000BDE8F0812DE9FC410646C0074FF0000503
:100D30000ED0104F00240122385D0095002311468B
:100D4000019501F0CFFB641C042CF4D300F046F8AD
:100D5000B0070DD5074E0024361D0022305D032359
:100D600000951146019501F0BDFB641C042CF4D3E1
:100D7000BDE8FC81D842000007490B5C4FF0A04160
:100D8000D1F804250120984020EA0203C1F8083573
:100D90001040C1F80C057047D84200000249085CB9
:100DA000012101F056BC0000D84200000249085C55
:100DB000002101F04EBC0000D84200000649095C49
:100DC0004FF0A040D0F80405C84010F0010000D05A
:100DD000012080F001007047D842000010B50024C7
:100DE0002046FFF7DBFF641C042CF9D310BD10B5BF
:100DF00000242046FFF7DAFF641C042CF9D310BD51
:100E000010B50246064B4FF0FF3000215C5C944267
:100E100001D1084610BD491C0429F7D310BD0000BC
:100E2000DC4200002DE9F0470D468146FFF7E8FF60
:100E30000446042836D2DFF874801B481C4EA8F103
:100E40000C0725B3012D0ED0022D2BD104EB44004D
:100E500030444578002D25D0B968002922D0284695
:100E6000BDE8F047084704EB4401755C0E44717817
:100E700049B10E4A4FF48041093A8068FFF796FE67
:100E800008B987F80390B17808F80410E2E78068A1
:100E9000FFF7A4FE04EB4401314418F804008D78F8
:100EA000A842D7D0BDE8F087E04200007C000020D7
:100EB000A0020020FFF79EBD70B50023042810D2C9
:100EC0000D4D00EB4004012A02D101290CD0002273
:100ED000094E00EB4000304461B1012906D00229DF
:100EE00006D00723184670BD0E30C2B22A55F9E766
:100EF0004270F7E78270F5E7A002002070B586B077
:100F00000646142219496846FFF7B0FA184C002526
:100F10000E2E617806D00F2E25D1042908D2491C47
:100F2000617006E009B1491EFAE70420607000E034
:100F300065702078C00703D00D48001D02F0C0F98D
:100F40002078800703D50A480C3002F0B9F92078E0
:100F5000400703D50648143002F0B2F925706178D5
:100F60005DF82100804706B070BD0000C44200005B
:100F70000000002070B506461E480024C0E901614B
:100F8000B00720D50025012211462846FFF794FF1F
:100F90006D1C0446042D02D2002CF4D013E094B949
:100FA00040F2333204211448FFF736FD04000AD121
:100FB000FFF720FD040006D10F48104A0021001F52
:100FC000FFF7BAFD0446F00712D00120FFF7AAFE92
:100FD00074B909480A4A00210C38FFF7ADFD040036
:100FE00006D10548074A01210838FFF7A5FD044648
:100FF000204670BD70000020EC420000CD120000C1
:10100000691E0000EF0900002DE9F05F6E4C0546F7
:1010100000266078B34618B184F801B000F00CFFE8
:101020006A4F4FF47A694FF4C87A4FF00108182DCF
:1010300069D2DFE805F00C1313384754696E727BF0
:10104000727BC58484848484B3B6B9BCC5C500F002
:10105000F3FE3868FFF7C2FD06465CE00020FFF7AC
:10106000ADFE00284FF0000008D0FFF797FE022DDC
:1010700002D14FF4E16008E0484606E0FFF796FE33
:10108000022D01D1C82000E05046410CC0034FF4AE
:101090007A72801841F10001257052000023FFF799
:1010A000A1F901462AE00020FFF788FE00284FF052
:1010B000000004D0FFF772FE4FF44870E5E7FFF739
:1010C00075FEDFE70020FFF779FE00284FF00000F3
:1010D00002D0FFF763FECFE7FFF768FED4E70020FA
:1010E000FFF76CFE00284FF0000002D0FFF756FE1D
:1010F00001E0FFF75BFE257040F6CD410022386825
:10110000FFF754FD064646E00020FFF735FE257048
:1011100008E0002051E025703DE084F801800120C6
:10112000FFF72AFE002240F26661E8E784F80180BA
:101130000120FFF721FE00224FF40051DFE778681D
:10114000FFF74CFD0646D5F1110000D02EB102206C
:10115000FFF724FE84F802B01DE0012816D980B202
:10116000C8214843C117C90341EA5041C0034FF4A5
:101170007A72801841F1000152000023FFF732F922
:10118000014600227868FFF711FD06460220FFF7AE
:101190000DFE84F802803046BDE8F09F00F04CFE62
:1011A000B9E700F049FEB4E700F046FE04E000F0C5
:1011B00043FE0020FFF7FAFD0120FFF7F7FDAAE745
:1011C000FFF715FEA7E7000070000020E0420000D6
:1011D0002DE9F0470546861C91460F464FF0010A5F
:1011E0000020FFF701FD1B4C04F21C4860683860CA
:1011F000D4E90101184F401A3968081A0EE001219C
:10120000404600F074FF00F039FE0146404600F011
:101210006EFFD4E90101401A3968081A401C864261
:10122000EDD8B9F1000F03D0052065F3891002E075
:10123000062065F39F5061683A68114004EB810114
:10124000C8606068304460600020FFF7CFFC504603
:10125000BDE8F087F80500200C01002070B50D46B0
:1012600004460A2902D10D21FFF7F8FFA068226881
:10127000411CA1601554D4E90101814204D32046E8
:10128000BDE8704001F035B870BD000004488168C9
:101290004068814201D10120704700207047000062
:1012A000F8050020034630B507480021047842685D
:1012B00006E000BF02EBC10005789D4203D0491C47
:1012C000A142F7DB002030BDA00000200078022101
:1012D000FFF7A8BD05494FF0FF32082841F820204C
:1012E00002D3084480F8482070470000E402002040
:1012F000F0B54FF0FF3512B10023082601E00823B6
:101300000C260C4C05E000BF54F823707F1C04D061
:101310005B1CB342F8D32846F0BD26185DB286F8B0
:10132000305044F82310002AF5D1E11881F8480024
:10133000F1E70000E40200200249084490F930007F
:1013400070470000E402002070B5084C050009D089
:1013500010342168002907D00868206049682846B1
:101360008847F6E70834F4E770BD0000D00200209B
:10137000054A012120B1012805D19170FFF7E4BF92
:1013800051700020FAE77047D002002010B5D0E974
:101390000234D1E90220D11AA04101D3012010BDAD
:1013A000002010BDFFB5002301244FF0A0456E467C
:1013B000CA5CFF2A12D0D70922F0800246F8232007
:1013C00004FA02F702D0C5F8087501E0C5F80C75FB
:1013D00005EB82020327C2F8007703E04FF0FF32EB
:1013E00046F823205B1CDBB2042BE1D301683246B4
:1013F0005FF0000001EB800452F82030C4F8603543
:10140000401CC0B20428F5D3FFBD00000EB516483D
:101410001649401AC008032101EB004014A101F055
:101420002DFB154A07CA8DE80700144A694614487F
:1014300001F0A2FE08B1FFF73CFB114A0223121F84
:1014400002F11C01107840F00100107000200880AB
:1014500048808880C8809070074901221039084868
:1014600001F0F6FE0EBD00006C4500001C450000BA
:1014700044656D6F20310000F841000085140000C4
:101480000400002070B5002822D112484FF000025D
:1014900000F11C0483785D0813F0010F34F8151077
:1014A00004D0C8390904090C06D006E0C83189B255
:1014B00042F21076B14200D3012224F81510002A1E
:1014C00006D05B1CD9B28170082901D3002181703C
:1014D00070BD0000000000202148224910B5401ACC
:1014E000C008032101EB00408CB01FA101F0C6FA37
:1014F0001F4C09AB04F11C0007C883E80700002259
:1015000009A91C4801F038FE08B1FFF7D2FA1948C2
:10151000194B001F4FF4C872017841F001010170AE
:1015200000210846114489B223F81010401CC0B2B3
:101530001928F7D328340DF1040C0FCC8CE80F00D8
:1015400094E80F000DF1140C8CE80F0002200090BD
:10155000012305AA01A9074801F0E0FD0CB010BD68
:101560006C4500001C45000044656D6F2032000092
:10157000E8410000040000206401002016481749DB
:1015800010B5401AC008032101EB004088B014A137
:1015900001F074FA144C04AB04F1480007C883E866
:1015A0000700002204A9114801F0E6FD08B1FFF789
:1015B00080FA0E485434001F017841F00101017097
:1015C00094E80F008DE80F000123032269460748C5
:1015D00001F03EFE08B010BD6C4500001C45000047
:1015E00044656D6F20330000E841000004000020D6
:1015F00058485949F0B5401AC008032101EB004092
:101600009BB056A101F03AFA564E02AB06F16400C7
:10161000FF2407C883E8070091208DF808008DF8A3
:10162000094092208DF80A0007208DF80D0047F63A
:101630001220ADF8100001208DF812008DF80B403B
:10164000002202A9484801F097FD08B1FFF731FADE
:10165000454D05AF2D1F7036287840F001002870E9
:1016600096E80F0087E80F0004208DF80D00002099
:1016700041F28833ADF810303C4A8DF81200014633
:101680006426314489B222F8101002EB400C5F1A34
:10169000401CC0B2ACF864703228F2D38DF8084018
:1016A0008DF8094093208DF80A002F488DF80B40E3
:1016B000002202A9083001F05FFD08B1FFF7F9F937
:1016C0002878284E40F00200803628700FCE09AFEF
:1016D00087E80F0096E80F000DAF103E87E80F0077
:1016E0008DF808408DF809408DF80A4094208DF857
:1016F0000B001D48002202A9103001F03DFD08B189
:10170000FFF7D7F92878203640F0040028700FCE74
:1017100011AC84E80F0096E80F0015AC84E80F00C8
:101720000223012205A9104801F092FD0E4802246F
:1017300001230DAA09A90830009401F0EFFC0A4822
:10174000012315AA11A91030009401F0E7FC1BB089
:10175000F0BD00006C4500001C45000044656D6F45
:1017600020340000E8410000040000209601002021
:101770001648174910B5401AC008032101EB004074
:1017800088B014A101F07AF9144C04AB04F14000C4
:1017900007C883E80700002204A9114801F0ECFC07
:1017A00008B1FFF786F90E484C34001F017841F06C
:1017B0000101017094E80F008DE80F00022301225F
:1017C0006946074801F044FD08B010BD6C450000B3
:1017D0001C45000044656D6F203500006842000024
:1017E0000400002070B500240F4D10E0686800EB85
:1017F000C406307801F01AFC7178012901D001216A
:1018000000E000214140307800F05CF9641C287849
:101810008442EBDBD5E90401084303D0BDE8704006
:1018200002F0C4BA70BD0000A000002010B5002175
:10183000024800F067FC80F3100010BD140A00207D
:101840004FF480328A400168C1F848230068C0F82C
:10185000082370474FF4A07202EB810189B200F0B7
:101860009DB92DE9F04105460E464FF4A07000EBFE
:10187000860081B228684FF48034B440984622F044
:101880007F47C0F808432868C0F84843286801F03B
:101890006EFA286800EB8600C0F840752868C0F82A
:1018A0004443B8F1000F02D02868C0F80443BDE8F3
:1018B000F0810068D0F804057047000070B54379E6
:1018C000234C44F823204279231D03EBC202224C0F
:1018D0001579204A121BD4082DB10825022000EBEF
:1018E00004401EA130E005680A88C5F8082590F973
:1018F00004208978002A4FEA411104DB02F1E0223A
:1019000082F8001405E002F00F0202F1E02282F8F2
:10191000141D90F904100122002909DB01F01F05B4
:1019200002FA05F54909890001F1E021C1F80051E9
:101930004179002503EBC1010A71417943F8310077
:10194000032000EB04400EA101F098F8284670BD7A
:10195000E00000205C4500001C450000525443207C
:10196000696E7374616E636520616C726561647920
:1019700020696E697469616C697A65642E00000083
:101980005254433A20696E697469616C697A65647E
:101990002E00000090F90400002809DB00F01F026F
:1019A000012191404009800000F1E020C0F80012C0
:1019B00070470A46022100F07BB84FF4827100F0B4
:1019C000EDB80068012101607047006801214160A5
:1019D00070472DE9F05F07460C464FF4A07000EB0E
:1019E00084001FFA80FA38684FF48036A6409B4680
:1019F00022F07F45C0F848633868C0F8086338684B
:101A0000D0F8048500EB8402D2F84095C2F84085F6
:101A10005146386801F0ABF9A9EB080020F07F408F
:101A2000012806D1102001F043FA5146386801F030
:101A30009EF93868D0F80485C0F84463A5EB080126
:101A400021F07F413868012900EB840010D0C0F8F4
:101A500040553868D0F804156FF07F4C6A1A521E52
:101A600022F07F42ACEB0B03934217D362B118E034
:101A70006D1CC0F84055102001F01AFA3868D0F8F3
:101A8000040540450AD10CE000EB84006D1CC0F851
:101A900040553868D0F80405884202D00D20BDE8D2
:101AA000F09F01223146384600F002F80020F6E7A8
:101AB0000368C3F84413002A02D00068C0F8041376
:101AC000704700002DE9F0470E463249804601EB91
:101AD0005001C007097801D00F0901E001F00F079C
:101AE000424601200021FEF7AEFCDFF8AC90044630
:101AF0000D46052F4BD2DFE807F0031419262A0004
:101B0000002E44D00121404602F06AF80020FFF781
:101B10006BF84846D0E904120C431543C9E9044563
:101B200030E00EB1022114E0002112E04EB1032199
:101B3000404602F055F84046BDE8F047012102F06A
:101B400043BB012105E0002E21D1042101E02EB18B
:101B500003214046BDE8F04702F042B8002140466C
:101B600002F03EF80021404602F02EFB0020FFF775
:101B70003BF84A46E043D2E90434184024EA050120
:101B8000C9E90401BDE8F0470020FFF72FB8BDE820
:101B9000F0870000C8030020A000002010B50068F6
:101BA00042581AB101F0E3F8012010BD002010BD29
:101BB00010B50B48FFF77DFE094A083AD2E9043414
:101BC000C018D2E9063244F10001C31A71EB0202D7
:101BD00004D24FF08072801841F1000110BD000066
:101BE000C000002010B5C0B2FFF75CFB04460078CF
:101BF00001F01CFA01466078012801D0012000E0C4
:101C0000002090EA010F08D00449D1E904010843FB
:101C100003D1BDE8104002F0C9B810BDA0000020FB
:101C20002DE9FC5F0E008346DDE90C47C6F100009C
:101C300098469246814600D40846012503E000BF3D
:101C400090FBFAF06D1C5045FADAA84500D94546DC
:101C500024B1002E01DB780700D5641EB80702D539
:101C6000B8F1000F0AD0F80708D13CB1A54205D25F
:101C700020215846641EFFF7F1FAF6E7002E02DA3B
:101C80004E462D2102E0780703D52B215846FFF759
:101C9000E5FA07F0030002280BD1B8F1000F08D1D4
:101CA0003CB1A54205D230215846641EFFF7D6FA52
:101CB000F6E7CDE90047434652463146584602F022
:101CC00029FABDE8FC9F000070B50D460446006887
:101CD0004FF4887101F091F84FF49071206801F091
:101CE0008CF84FF49271206801F087F84FF4A271DC
:101CF000206801F082F84FF4AC71206801F07DF8A3
:101D000020681249C0F804132068690740F30730BF
:101D1000090E002804DB00F1E02080F8001405E043
:101D200000F00F0000F1E02080F8141D206840F35F
:101D30000730002809DB00F01F0201219140400913
:101D4000800000F1E020C0F8001170BD10034200D7
:101D5000024600201268530713D502F00300012841
:101D600002D002280CD105E0C2F383100B68801C5E
:101D7000184404E00223086803EB92521044086000
:101D80000120704770B50C464FF488760546314601
:101D900000F0C5FF50B13146284600F0C5FF60791C
:101DA000400703D5216809B1012088474FF48A769E
:101DB0003146284600F0B3FF50B13146284600F0C6
:101DC000B3FF6079000703D5216809B10220884775
:101DD0004FF48E763146284600F0A1FF50B13146CF
:101DE000284600F0A1FF6079C00603D4216809B13C
:101DF000002088474FF482763146284600F08FFF56
:101E000000280CD03146284600F08EFF01202071BA
:101E10002168002903D0BDE870400320084770BD49
:101E20000268134602E08A4204D01268002AFAD1FE
:101E30000B600160704700000A4810B5807860B1FF
:101E4000002401E0022C06D02046FEF7A7FF641C08
:101E5000042CF7D310BD0324F6E7BDE81040FEF7CD
:101E6000BDBF00007000002003480179C90702D0FF
:101E70000078FFF7C9B87047700000202DE9FF41D6
:101E80000026244800F030F92248001F074600F0E1
:101E90002BF9214C2149A06800900D6800E00098C2
:101EA0006946284004EB80000C30FFF751FF002802
:101EB000F5D101AA009901EA050304EB8303491C4B
:101EC000DB6842F82030401C00910228F2D30198D0
:101ED00000F0030001280BD0022810D10198032143
:101EE00001EB90500099BDF80A6001EB900005E00D
:101EF0000198BDF80A60C0F383100844009038468A
:101F000000F0EFF808B10098A06004B03046BDE8DA
:101F1000F0810000100A0020F80500200C010020CC
:101F20004FF48041002000F005FE08B1FEF7C1FD2E
:101F300000F07CFC00F05AF908B1FEF7BAFD002071
:101F400000F072F9FEF704FE08B1FEF7B2FD104989
:101F50000220FFF70FF808B1FEF7ABFDFEF7AAFF6E
:101F600008B1FEF7A6FD0B480B49401AC008032133
:101F700001EB004009A100F081FDFFF747FA20BF07
:101F800040BF20BF00F060FC0028FBD1F7E7000055
:101F9000FD0E00006C4500001C45000050574D2010
:101FA0006578616D706C6520737461727465642E00
:101FB000000000002DE9F047C5881E1DB6FBF5F7AF
:101FC0008946B6FBF5F1044605FB176C40791668A7
:101FD0006843DDF820A0F718001F874200D9C61A11
:101FE000166001E02468491E0029FBD1A5EB0C070F
:101FF0008846B74216D818E004EB0C00001D09EB28
:102000000803BAF1000F3A4602D00146184600E034
:102010001946FEF72BFA2468F61B4FF0000CB84463
:10202000B54201D9374600E02F46002EE4D1BDE885
:10203000F087000030B5024651B100F08FFD00215D
:10204000074C08E034F821301568AB4202D111602A
:10205000002030BD491C8142F4D3052030BD000072
:102060000000000010B531B1B2FBF3F403FB1424FF
:102070001CB1092010BD0E2010BD0160002141607F
:1020800081608281C381084610BD70B50C4605464B
:10209000FEF7C0F8002802D021882868084470BDE7
:1020A00010B50A8849888A4203D1FEF7F5F8012065
:1020B00010BD002010BD70B50C460546FEF7CFF8E8
:1020C000002802D061882868084470BD10B50A88CD
:1020D00049888A4203D1FEF7B9F8012010BD0020DB
:1020E00010BD002100F009B8012100F010B808B5BA
:1020F0006A46FEF726F9009808BD08B56A46FEF75D
:1021000006F908BD08B56A46FEF7E8F808BD08B547
:102110006A46FEF7EFF8009808BD08B56A46FEF774
:102120001DF9009808BD70B5044600252846FEF745
:102130005BFD21686268086890420ED9401E086005
:102140000178238AE26801FB0325227A2168101AAC
:10215000C0B20A79824200D208710020FEF746FD23
:10216000284670BD70B505460C460020FEF73CFDC4
:10217000E868298A201AB0FBF1F12A681068431C2C
:1021800013600170BDE870400020FEF72FBD10B550
:1021900030B1017A42680368891AC9B21A6006E050
:1021A0000E2010BD03681A68541C1C601170491E73
:1021B000C9B2F7D2006800210171084610BDC208FB
:1021C00000F007030120895C98400840704700F147
:1021D00080400068002800D00120704708B500F159
:1021E0008040002101600068009008BD70B50C4C73
:1021F0000125207808B185260BE00020A0606060F2
:102200002061E060074800F01DFE064600F004FE75
:10221000257000F0F9FD00B1A570304670BD0000DA
:10222000D00200207113000070B5104D0446A8784C
:1022300038B114B16168012088470020FEF7D4FC52
:102240000CE00020FEF7D0FC24B1084821461030F5
:10225000FFF7E6FDE86808B900F004FEE868401CF6
:10226000E860BDE870400020FEF7C0BCD00200204E
:10227000F0B505460478154889B0164640F8242084
:10228000124A0869121DA2F1080742F82400487F8B
:10229000385520226846FEF7E9F804942878385C1F
:1022A00048B10EB10A4A00E000226946281D01F03B
:1022B00065F909B0F0BD0EB1064A00E0002269469A
:1022C00005F10C0001F024F8F3E700008400002081
:1022D000D13F0000193E00000FB408B50399002952
:1022E00004D004AA00926A4600F00FF801B05DF82D
:1022F00014FB10B582680446002A05D0D4E9040313
:10230000216898470020A06010BD2DE9FC47914648
:102310000C00804676D014F8011B39B125290ED067
:102320004046FEF79BFF20780028F4D198F80C0077
:10233000002867D04046BDE8FC47FFF7DABF002021
:10234000012221782B291BD02D2902D0302908D138
:1023500002E040F0010001E040F00200641C002AAD
:10236000EFD100252A290ED02178A1F130020A2AC6
:1023700011D205EB850201EB4205641C303DF1E70B
:1023800040F00400EAE7D9F800100B1DC9F800304E
:102390000968641C0D44217800232E290BD114F800
:1023A000011FA1F130020A2A05D203EB830201EBDF
:1023B0004203303BF3E76C290DD068290BD0692923
:1023C00021D00BDC252918D0582931D063290ED013
:1023D000642915D117E014F8011FECE7702969D0C2
:1023E000732932D075291BD0782909D120E0D9F87A
:1023F0000000011DC9F8001001784046FEF72EFFCD
:10240000641C90E76CE0D9F800100A1DC9F80020A0
:102410000968CDE900500A224046FFF701FCEFE7CA
:10242000D9F800100A1DC9F8002009680A2206E040
:10243000D9F800100A1DC9F8002009681022CDE95A
:102440000050404601F066FEDAE7D9F80010002798
:102450000A1DC9F800200E68C00705D112E04046E9
:10246000761C7F1CFEF7FAFE31780029F7D104E0D4
:10247000202140466D1EFEF7F1FEBD42C0D9002D61
:10248000F6D1BDE74EB13046FEF714F8074604E03A
:10249000202140466D1EFEF7E1FEBD4206D9002D0B
:1024A000F6D103E04046761CFEF7D8FE31780029CD
:1024B000F8D1A5E7D9F80000011DC9F8001005689A
:1024C00030214046FEF7CAFE78214046FEF7C6FEA0
:1024D00008200021CDE90001034610222946B0E77B
:1024E000BDE8FC8770B541EA4201DDE904564FF0D2
:1024F000A04441EA830141EA052104EB800041EA5E
:102500000641C0F8001770BD70B541EA4201DDE92F
:1025100004564FF0A04441EA830141EA052104EB4F
:10252000800041EA0641C0F8001770BD70B541EA6D
:102530004201DDE904564FF0A04441EA830141EA3B
:10254000052104EB800041EA0641C0F8001770BD88
:1025500070B541EA4201DDE904564FF0A04441EA7A
:10256000830141EA052104EB800041EA0641C0F8FD
:10257000001770BD1CB5002100910B46012201918E
:10258000FFF7D4FF1CBD1CB5002100910B460122B2
:102590000191FFF7DDFF1CBD1CB500220B46009228
:1025A00011460192FFF7C2FF1CBD1CB500220B466D
:1025B000009211460192FFF7CBFF1CBD1CB5002114
:1025C00000910B46012201911146FFF7AFFF1CBDA0
:1025D0001CB5002100910B46012201911146FFF725
:1025E000B7FF1CBD4FF0A04202EB8000D0F80027DF
:1025F00022F44032C0F80027D0F8002742EA014117
:10260000C0F800177047000038B5094B44181B6824
:1026100000936B4608E000BF53F82010D1F8205516
:1026200020C2C1F82055401C8442F5D838BD0000B6
:102630000C43000042094FF0000100D1491E00F098
:102640001F00012282400A4201D001207047002071
:10265000704701224FF0A043824011B1C3F8082512
:102660007047C3F80C257047034908B5084400219A
:1026700001600068009008BD0060004002494058B9
:10268000012800D0002070470060004030B5154A96
:1026900001460020D2F8104423460AE0DB681D7989
:1026A000854205D1401C0A28F6DB4FF0FF3030BDD3
:1026B0001B68002BF2D1431CF9D0CB681871D2F8FB
:1026C000103443B1DB68CC681B682360D2F8102457
:1026D000D268116030BDC2F81014C96800220A60C7
:1026E00030BD0000F8050020F0B595B01C46154639
:1026F0000F4608461A9E00F0EDFA182109A8FDF7CA
:10270000CEFE0E96CDE909540023082203A93846CF
:1027100000F0F5FA05980690BDF81000ADF81C0021
:10272000BDF81200ADF81E0000208DF821000398BE
:10273000082600F00300012802D0022818D032E059
:1027400003983346850AC0F3C2008DF82000039831
:102750000FA9C0F38314A200384600F0D0FA09A8EC
:10276000009006AB22460FA9284600F00FFA1AE0A7
:102770000398840DC0F3C2008DF82000082C01D20C
:10278000254600E0082533462A460FA9384600F0C2
:10279000B6FA2E44641B09AB06AA29460FA800F01E
:1027A00071F9002CEAD1384600F09AFA15B0F0BD64
:1027B0007047012001F04EBB084810B50178084A67
:1027C000515C19B1001D00F073FF02E00C3000F005
:1027D0006DFEBDE81040002001F03CBBF000002081
:1027E0008000002008B5034A00924023024AFFF708
:1027F0007BFF08BD493B0000600400200A4A012914
:1028000002EBC00007D0022907D0032907D0042912
:1028100007D00020704702207047042070470079DD
:1028200070474079704700001C45000010B5FFF765
:10283000C0FF04210348FFF729FF02490120C968AE
:10284000487110BD0C4500002DE9F0478CB0FEF733
:102850001DFD18B100200CB0BDE8F0877D4C0020B4
:10286000C4F81804BFF34F8F7B49A06802900D682D
:102870004FF00008284004EB80000BE0D4F8180467
:1028800070B961680298814201D8A160E2E72840EE
:1028900004EB80000C3002A9FFF75AFA0028EDD1B2
:1028A000002003AA029901EA050304EB8303491CF3
:1028B000DB6842F82030401C02910228F2D30398D2
:1028C00000F00300022802D001284DD0A7E00398B1
:1028D0005022810D8946B2EB905F00D850210E4600
:1028E00066F39F50039008315C4800F0AAF9070096
:1028F00078D000F0EFF94346082203A9384600F0EB
:1029000006FA029908F1080A2940681A8000001D99
:10291000864222D94F4D0C3530B1C2B204EB810151
:10292000301A90460C3104E02946F2B20025904658
:102930002846C6B25346384600F0E9F90AEB0803C8
:1029400025B132462946384600F0E1F9029909F1ED
:10295000030001EB900002903BE004EB8101534641
:10296000324638460C31EFE70398C0F3831006284F
:1029700000D30620039960F38911C1F38310801CF2
:1029800003918100354800F05CF9070047D000F062
:10299000A1F94346082203A9384600F0B8F908F126
:1029A000080800260FE00298434600EA0501401C93
:1029B00004EB81010290042238460C3100F0A7F9A3
:1029C00008F10408761C0398C0F38310B042EAD8DB
:1029D00047B1D4F81054D4F8180478B1384600F050
:1029E0007FF931E01BE0E8684079012804D12A68CA
:1029F0002846394612689047E8680568002DF2D1EC
:102A0000384600F06DF90020FEF7EEF8D4F818040F
:102A100008B90298A0600020FEF7E8F814E0D4F8A6
:102A2000104405E02168204689688847E06804680A
:102A3000002CF7D10A480B49401AC008022101EBCB
:102A4000004009A100F01AF8FEF720FC80F0010018
:102A500001E70000F80500200C010020744500008B
:102A60006C4500001C4500004261636B656E647339
:102A700020666C75736865640000000000231A46C8
:102A800001F0C6B82DE9F0470E4680461C46924636
:102A9000082940D894F80C9000202073194610465D
:102AA00000F030FF0025B54206D218F805201BA122
:102AB0002046FFF711FC03E01AA12046FFF70CFCAB
:102AC0006D1C082DEFD318A12046FFF705FC00254B
:102AD000B54212D218F805707E2F08D8FDF7C2FC57
:102AE0000068C05D10F03E0F01D03A4600E02E2293
:102AF0000EA12046FFF7F0FB03E00DA12046FFF7F3
:102B0000EBFB6D1C082DE3D301222146504600F05B
:102B1000DBFE84F80C90BDE8F08700002025303201
:102B200078000000202020007C00000025630000C9
:102B300020000000064910B500200870054800F08C
:102B4000CDF8002803D1044800F003F9002010BD9F
:102B5000F805002074450000844300000248034942
:102B6000401AC00870470000744500001C45000072
:102B700013B56846FFF75EFA08B100201CBD024895
:102B8000009950F831001CBD1C4500002DE9FF479D
:102B900081460C9D00200C462F7B287398461646D4
:102BA0002946184600F0AEFE072E42D2DFE806F0B6
:102BB00004090F161F2A360049462846FFF78CFBEA
:102BC00037E0494628462268FFF786FB31E0D4E922
:102BD000002349462846FFF77FFB2AE0A0680090C3
:102BE000D4E9002349462846FFF776FB21E0D4E9E3
:102BF0000201CDE90001D4E9002349462846FFF748
:102C00006BFB16E004F1080007C88DE80700D4E963
:102C1000002349462846FFF75FFB0AE004F108005D
:102C20000FC88DE80F00D4E9002349462846FFF776
:102C300053FB00222946404600F046FE2F73BDE8B4
:102C4000FF872DE9F041058A80462D1F4819C01CD9
:102C5000B0FBF5F0C6B24046FFF765FA041E19D086
:102C60000020207101206071E58000272546761E36
:102C7000C4F800800BE04046FFF755FA60B1617977
:102C8000491C6171286005467F1CC0F80080B7426E
:102C9000F1D32046BDE8F081204600F002F8002084
:102CA000F8E72DE9F041457901466B1E002201E06D
:102CB0000968521C9A42FBD30F680146002605E0C2
:102CC00038460C68FFF74EFA2146761CAE42F7D321
:102CD000BDE8F0810121001DFFF709BAFFF757BADF
:102CE00010B504460121001DFFF717FA10F0FF0F81
:102CF00004D12046BDE81040FFF7D3BF10BD1CB57E
:102D000001920122009201AAFFF754F91CBD1CB5E3
:102D100001920022009201AAFFF74CF91CBD405815
:102D2000002800D00120704708B5002242504058CA
:102D3000009008BD00EB41101368C0F82035918861
:102D4000C0F824159168C0F82815D168C0F82C1572
:102D500070478268002191608268116182685161C8
:102D60008268D1608268516080680160704708B5F0
:102D7000002242504058009008BD70B50D460646EE
:102D8000446804E0B2682946904718B12468206876
:102D90000028F7D120682860256070BD4068006871
:102DA000704741680868002801D002680A607047CF
:102DB00002460020526806E08B4203D1086810608A
:102DC000012070471A461368002BF5D17047405810
:102DD000002800D00120704708B50022425040581A
:102DE000009008BDD0F80403084000D001207047CF
:102DF0004058002800D00120704708B500224250FA
:102E00004058009008BD000002480068002800D02B
:102E1000012070470004014008480068012110F0BB
:102E2000010F06D14FF0E020C02280F8002484304A
:102E3000C1670349012008607047000000E100E01D
:102E4000180500400649024600200B790BB1852089
:102E500070470A6001220A7100224A71704700001F
:102E60008C00002070B54FF48270FFF7B7F9022094
:102E70004107C1F804030B4B196841F080701860DA
:102E80000948026842F00104046044684FF40A559E
:102E90004668361BAE42FBD302601960034901202D
:102EA000086070BDFCED00E0001000E0080000408C
:102EB000002802D0014980010847704741430000C3
:102EC0002DE9F0410E46054600F084FC0028284616
:102ED00019D0FEF731FA083800F0EEFC032802D0D2
:102EE00001280ED007E04FF0A040D0F81005E840D0
:102EF00010F0010F05D003212846BDE8F041FFF78F
:102F000071BB0221F8E700F071FC002822D02846AE
:102F1000FEF712FA04464FF4807000EB84000E4F67
:102F200081B207EB8400D0F8102542F00102C0F80E
:102F300010250846FFF798FB002E0BD02846FEF719
:102F4000FBF9064951F82000002803D00120A040D9
:102F5000C7F80403BDE8F08100600040E4020020EF
:102F60002DE9FC41DFF8B880044608EB0400002797
:102F700090F930001346C0170E46401C01D00827B8
:102F80004AE0B0781946C0F340022046FEF7B0F997
:102F90000546401C3FD0B078410717D4C0070AD07F
:102FA0004FF0A04000EB8400D0F8001721F00201A0
:102FB000C0F8001707E000217378204600910A4608
:102FC0000191FFF7A1FA204600F0F6FBB0788007E8
:102FD00018D51448317800EB8500D0F81025124B35
:102FE0001A40C0F810254FF4F8524FF4403302EA6B
:102FF000042203EA01410A43D0F810150A43C0F83D
:10300000102509E008EB0500327810F8481F41EA66
:103010008211017000E004273846BDE8FC81000001
:10302000E402002000600040FFE0FCFF4FF0A04100
:10303000D1F81015C14011F0010000D001207047F7
:1030400070B5194D95F8580008B1082070BD0024DE
:10305000661E2046FFF7EEFA10B1281980F830609E
:10306000641CE4B2202CF4D300242046FEF732F98D
:10307000641CE4B20C2CF8D300200D4968650B4C9D
:10308000C02081F8000401264020891FC1F80001FA
:103090004FF4BE70FFF7E8FAA004C4F8040385F803
:1030A0005860002070BD0000E40200200060004075
:1030B00006E000E0034890F85800002800D0012006
:1030C00070470000E40200200121B1EB507F01D1E4
:1030D000012070470020704770B50D4600F05EFC7F
:1030E00004000FD00020FDF77FFD207920B10020E3
:1030F000FDF77CFD112070BD0120256020710020AE
:10310000FDF774FD002070BD10B500F047FC0028ED
:1031100002D000210160017110BD00002DE9F041D5
:10312000904604460079134A1F4602EBC0060A4641
:10313000069D00212068FFF7FDFD42460121206821
:10314000FFF7F8FD2068C0F81475E80701D01020DB
:1031500004E0A80701D5042000E000202168C1F8A0
:103160000002EAB231462046BDE8F041082300F0F3
:1031700011BD0000400300202DE9F0410D4604463A
:103180000079324901EBC006307910B10820BDE862
:10319000F081294620463260FEF704F920680127B5
:1031A000C0F8007520686B79AA792989C0F80C35B8
:1031B000C0F80425C0F80815AA7AE97A206842EA1E
:1031C0000121C0F8101520680021C0F80012206805
:1031D000C0F800134FF48E712068FFF7A5FD4FF47F
:1031E00088712068FFF7A0FD4FF48A712068FFF70F
:1031F0009BFD4FF482712068FFF796FD306808B39D
:103200002068297940F3073000284FEA411104DB98
:1032100000F1E02080F8001405E000F00F0000F15C
:10322000E02080F8141D206840F30730002809DBF7
:1032300000F01F0107FA01F14009800000F1E020D1
:10324000C0F8001137710020A1E700004003002002
:103250002DE9F0410F46044600791849164601EB66
:10326000C0081D463A4600212068FFF763FD3A4634
:1032700001212068FFF75EFD206806F0010101EBE7
:103280005602C0F81425E80701D0102007E0A8076F
:1032900004D509B1082002E0042000E000202268E3
:1032A000C2F8000209B10C2300E00823EAB241464B
:1032B0002046BDE8F04100F06DBC00004003002056
:1032C00010B501790D4A02EBC102016841F30731E3
:1032D00000290DDB01F01F040123A34049098900E7
:1032E00001F1E021C1F88031BFF34F8FBFF36F8F41
:1032F00000680021C0F80015117110BD40030020C6
:103300000149024800F0CEBD5803002000200040D3
:103310002DE9F0410546007916460F4600EB4001C5
:103320002D4A01EBC00102EB810494F82A1011B17F
:103330000820BDE8F081294951F820102868FFF7DE
:10334000CBFE08B11120F4E739462846FDF762FCB0
:1033500066603869206030004FF001062FD03F7F53
:103360004FF48E712868FFF737FD4FF4A27128687B
:10337000FFF732FD28681A49C0F8041328684FEA9D
:10338000471140F30730002804DB00F1E02080F80B
:10339000001405E000F00F0000F1E02080F8141D9B
:1033A000286840F30730002809DB00F01F0106FA07
:1033B00001F14009800000F1E020C0F80011286808
:1033C0000421C0F800150020A061E06184F8290004
:1033D00044F8140FA675ACE7580300201043000012
:1033E000800002002DE9F05F054600790B4600EBF6
:1033F000400101EBC000244901EB8004284600F0A5
:1034000045F810B11120BDE8F09F62614FF000094E
:10341000C4F82090A36084F828904FF48E784E462C
:1034200041462868FFF7D8FC28684FF0010AC0F829
:1034300008A02146286800F0C5FC606808BBD5F8E4
:1034400000B067690FE000BF94F8280008B10F26AC
:1034500015E041465846FFF7BAFC0028F4D0214653
:10346000584600F0AFFC206AB842F2D357464146B6
:103470002868FFF7ACFC0028F9D02868C760C4F8BA
:1034800014903046BFE7000058030020007900EB9D
:10349000400101EBC000044901EB800040690028B5
:1034A00000D0012070470000580300202DE9F047AC
:1034B000044600794FF0000900EB400101EBC00029
:1034C000284901EB80072068C0F800957868B0B102
:1034D00020682549C0F80813206840F30730002809
:1034E0000DDB00F01F02012191404009800000F136
:1034F000E020C0F88011BFF34F8FBFF36F8F2068BB
:10350000D0F80C25D0F81485D0F80865D0F81055FF
:103510004FF0FF31C0F81415C0F80C152068C0F842
:103520000815C0F81015501C02D01046FFF722F8FD
:10353000B8F1FF3F02D04046FFF71CF8681C02D0EC
:103540002846FFF717F8701C02D03046FFF712F834
:103550002068FFF7D9FD87F82A90C7F80490BDE8E6
:10356000F08700005803002084020200014902484D
:1035700000F046BD84030020002000402DE9F0410A
:103580000546164600790F46154A00EBC00102EBCE
:10359000810494F8201011B10820BDE8F081114990
:1035A00051F820102868FFF797FD08B11120F4E7C3
:1035B00039462846FDF772FB6660386920601EB107
:1035C000397F2846FEF780FB28680821C0F80015DF
:1035D0000020A061E0616061012184F82010DCE737
:1035E00084030020144300002DE9F04704460E46F2
:1035F0000079274900EBC00001EB800517463046F3
:10360000FFF762FD30B1204600F044F820B11120F0
:10361000BDE8F0871020FBE76F61AE604FF4907754
:103620004FF0000839462068FFF7E7FB4FF4AC760F
:1036300031462068FFF7E1FB2068AA686969C0F895
:103640004425C0F8481520684FF00109C0F80890DB
:103650006868D0B9BA4651462068FFF7C9FB0746EB
:1036600031462068FFF7C4FB0743F4D010B14FF098
:103670000F0808E02068C0F80C9031462068FFF77A
:10368000B7FB0028F9D0002068614046C0E7000081
:10369000840300200079054900EBC00001EB8000A5
:1036A0004069002800D001207047000084030020FA
:1036B0002DE9F047064600793D4900EBC00001EBDB
:1036C0008005346868680127A8B13A49C4F808132E
:1036D000306840F3073000280DDB00F01F0107FAC7
:1036E00001F14009800000F1E020C0F88011BFF333
:1036F0004F8FBFF36F8FD4F8000220F02000C4F882
:103700000002A8694FF4A27820B141462046FFF795
:1037100074FB67604FF4AC7949462046FFF76DFBB8
:10372000E760474649462046FFF762FB0028F9D08C
:10373000A86928B139462046FFF75AFB0028F1D086
:103740004FF0000AC4F800A53068D0F80C25D0F876
:103750001495D0F80885D0F810754FF0FF31C0F8F7
:103760000C15C0F814153068C0F80815C0F810150D
:10377000501C02D01046FEF706FFB9F1FF3F02D001
:103780004846FEF700FF781C02D03846FEF7FBFEE5
:10379000B8F1FF3F02D04046FEF7F5FE2046FFF7A6
:1037A000B3FC85F820A0C5F804A0BDE8F0870000B0
:1037B000840300201003420010B50549C20800F040
:1037C0000703885C01249C402043885410BD0000FE
:1037D000380300200449084490F93000082801DB30
:1037E0000120704700207047E4020020044908448B
:1037F00090F93000082801D201207047002070475E
:10380000E40200202DE9F05F2A4F06464FF0A04A5F
:103810004FF0010B0024381990F95010491C3CD08E
:1038200090F85000314620F0C0052846FEF7C7FC4E
:1038300020B3204600F040F881460AEB8500D0F81E
:103840000007C0F30148B8F1020F18D00221284642
:10385000FEF7C8FE0BFA05F1CAF820152846FDF759
:103860006BFD57F820204AB14846B9F1030F11D03B
:10387000B8F1020F05D0B8F1030F07D00DE0032116
:10388000E5E74846B9F1010F04D006E04846B9F132
:10389000020F02D1014628469047641C042CBAD37B
:1038A000324601210020FEF7AFFE30680028B1D17A
:1038B000BDE8F09FE40200200249084490F850005F
:1038C00080097047E402002010B50C46017A0529F2
:1038D00008D0407A38B1084808A102682046FEF7AF
:1038E000FBFC00E01AB106A12046FEF7F5FC2046DD
:1038F000BDE81040FEF7FDBC3C0100202573000030
:103900000D0A000038B5C3880D46044633B114A033
:10391000009015A216A12846FEF7DEFC217A0529A3
:103920001CD0607A48B1A088FEF768FF164951F8AC
:10393000202016A12846FEF7CFFCA0880021FFF723
:1039400017F903461049207A143951F8202001B0A4
:103950002846BDE830400EA1FEF7BEBC38BD0000D1
:103960001B5B306D000000001B5B313B33316D0091
:1039700025734C6F67732064726F707065642028C4
:1039800025642925730D0A003C01002025730000E1
:103990003C25733E2025733A2000000003498842ED
:1039A00001D103487047002070470000002000400C
:1039B0009400002070B50546FDF7FFFF134C40B1A1
:1039C000D4E904024FF08071411842F10000C4E9CB
:1039D000041000212846FDF73DFF30B1606820B19A
:1039E000606800F05FF90020606001212846FDF763
:1039F00031FF18B1FEF7DCF8C4E90601284600F0F3
:103A00007DF92846BDE8704000F034B8B8000020C9
:103A100070B5054600200C460870FEF7C9F8D5E9D8
:103A20000223101A63EB010300263146361A99412E
:103A300012DAB0F5350F03D3FDF778F80B494218C9
:103A40004FF4960300210A48FDF7C3FF10B10D287B
:103A500006D009E0012070BD00210548FDF7F0FE09
:103A6000284600F01FF92070002070BDFFFFB40051
:103A7000C0000020F8B51A4C074600261948FFF789
:103A80008DF9D0B1616871B1D0E902106268D2E9F4
:103A90000232C91A904120D26068007F18B1616873
:103AA0001048FFF76AF900F06FF805466946FFF71E
:103AB000AFFF98B1606840B10AE0606800280CD19F
:103AC0003846BDE8F840FDF780BF3846FDF779FF7E
:103AD00065609DF800000028D0D1F8BD6660CDE794
:103AE000B80000202843000070B5054688690C46E0
:103AF00000284FF4847128460AD0FFF76DF9D5F8F5
:103B00001805626AE1688854606A401C606270BD92
:103B1000FFF762F9D5F8180570BD1FB501238DF8C0
:103B20000030CDE90121D0E90012684690471FBD61
:103B30001FB501238DF80030CDE90121D0E9001235
:103B4000684690471FBD000070B50D4C0020D2B2F2
:103B50002070201D0B4D0378EB5C1BB1001DFFF79F
:103B600043FD02E00C30FFF73DFC08B1FCF7A1FF7C
:103B70006078002802D021780029FAD070BD0000BA
:103B8000EC000020800000200148FFF70AB9000087
:103B90002843000070B5054602201E4614460871F1
:103BA0004A71086870B18221600700D59221200710
:103BB00001D541F02001E00601D521F080012868FF
:103BC000C0F800134FF482712868FFF7ADF82006A3
:103BD000286801D5304470BD01218151002070BD9D
:103BE000C207002A03D000BF4FF00F0201E04FF0E0
:103BF000F00201D04FEA0111044B03EB5003187897
:103C000000EA020040EA010018707047C803002073
:103C10002DE9F84F074621489146884605681E461B
:103C2000012269461846FDF7D3FADFF874A060B3A5
:103C3000009800210446801C0AE000BF00EA05024B
:103C400059F821C00AEB8202401C491CC2F80CC082
:103C5000B142F3D34FEA1749FDF7E8FD611C294053
:103C60000AEB810149EA00422C40CA600AEB840158
:103C7000C86867F3C50066F3891068F39F2020F0D9
:103C80000300401C20F00400C8609AF8000001E026
:103C9000FEF7DAFD0028FBD1BDE8F88F0C0100200B
:103CA000F805002070B50446124800250078F8B1E8
:103CB000F4B1207FE0B1FDF77BFFD4E90223801A45
:103CC000994110D32069002600B92677D4E9051060
:103CD0008847206960B1217F51B1D4E902211018D1
:103CE0007141C4E9020121460348FFF746F8012566
:103CF000284670BDB800002028430000F8B51B4CD2
:103D000069462068FEF7D7F900260127184D29E0FB
:103D1000017821B101290CD002291BD114E041689E
:103D20000A7FBAB90F77416810480830FFF725F8C5
:103D300010E041686868814201D16E600AE00B487A
:103D40000830FFF735F805E0FFF71EFF08B10677EA
:103D5000FAE72F7069462068FEF7A2F969462068E5
:103D6000FEF7A9F90028D3D1F8BD000020430000D8
:103D7000B8000020F8B50B4C0D4606466946206891
:103D8000FEF783F958B10670456069462068FEF772
:103D90009DF910B10448FDF7FDFD0020F8BD042099
:103DA000F8BD000020430000C000002003488068E8
:103DB0004108034800224068FCF7F8BEA00000203C
:103DC0001843000070B50C4605464FF48E71FFF79E
:103DD00003F8216AA068415C206A401C2062C5F893
:103DE0001C1570BD1FB500228DF80020029181685E
:103DF00001914261D0E90012684690471FBD1FB58E
:103E000000228DF800200291816801914261D0E981
:103E10000012684690471FBD1FB50A4601788DF80D
:103E2000001041680191017A8DF80810C068039074
:103E3000044850F82210001F50F82220684690478E
:103E40001FBD000088000020014901200870704754
:103E5000EC00002010B588B0044620220E496846C8
:103E6000FCF704FB06200090C01F01900290039015
:103E70004FF0EB7006900CB1084A00E00022694652
:103E80000748FEF7F5F908B1FCF713FE0448001FD8
:103E9000447008B010BD000064430000493E0000BB
:103EA000F00000202DE9FF470C4605464FF4007155
:103EB000FEF798FF01274FF40178002618B34FF45E
:103EC000927949462846FEF782FFE0B149462846E6
:103ED000FEF782FFC5F8088394F8290000B96F60E7
:103EE00002208DF80000D5F88004C5F88004039006
:103EF000A0690290E0680190A661E661D4E9001231
:103F00006846904728E004212846FEF76BFF18B367
:103F10004FF484712846FEF75AFFE8B1214628463F
:103F2000FFF7E2FD616AA069884215D1E06938B106
:103F3000E268616AA0612069E6616662E06008E0AB
:103F400094F8290000B96F60C5F80883A661E2689B
:103F5000616A2046FFF7E1FD4FF48E78414628461E
:103F6000FEF735FF80B16069216A814202D294F880
:103F7000280028B341462846FEF72EFF606918B195
:103F800061692046FFF72EFF4FF4A278414628468C
:103F9000FEF71DFF002818D041462846FEF71CFFFB
:103FA00094F8290000B12F60A06900280DD0A66107
:103FB000E268616A04B02046BDE8F047FFF7ADBD96
:103FC00021462846FFF7FEFEDEE7BDE8FF8700003A
:103FD0001FB50A4601788DF8001041680191017AF9
:103FE0008DF80810C0680390044850F82210001F94
:103FF00050F82220684690471FBD0000880000202E
:104000002DE9FF410C464FF4927705463946FEF7FD
:10401000EFFE0026B8B139462846FEF7EEFE022034
:104020008DF80000D5F88004C5F880040390D5F819
:104030003C050290E0680190A661E661D4E90012B7
:104040006846904723E04FF4887739462846FEF7C4
:10405000CFFEE0B139462846FEF7CFFED5F83C1535
:10406000A069884213D1E06960B1E268D5F8000226
:1040700020F02000C5F80002E069A0612069E66137
:10408000E06001E0A661E2682046FFF751FD4FF4D1
:10409000A27739462846FEF7ABFE68B13946284676
:1040A000FEF7ABFEA06938B1A661E661D5F83C1514
:1040B0002046E268FFF73CFD4FF4907631462846F3
:1040C000FEF796FE60B131462846FEF796FE0120C7
:1040D000E860606920B1D5F84C152046FFF78FFEE7
:1040E0004FF4AC7631462846FEF782FE00280ED00B
:1040F00031462846FEF781FE6069002807D0D5F8D2
:104100004C1504B02046BDE8F041FFF778BEBDE88D
:10411000FF8100002DE9F05F8346DDE90A4A9946F8
:1041200090460D460846012703E000BFB0FBF8F0BB
:104130007F1C4045FAD2B94500D94F465FEACA70A4
:1041400012D18CB15FEA8A7002D5B9F1000F01D0AB
:10415000202607E0302605E031465846641EFDF76C
:104160007DF80CB1A742F7D35FF00106B9F1010F5A
:1041700002D9A9F1010903E0B5FBF6F0404502D3ED
:1041800006FB08F6F2E7DFF83C9000BFB5FBF6F05F
:1041900000FB165519F800105846FDF75FF8B6FBFE
:1041A000F8F6002EF2D15FEACA7009D0002C07D0D1
:1041B000A74205D220215846641EFDF74FF8F5E7C7
:1041C000BDE8F09F4643000070B50C460546FDF77C
:1041D00069F8002807D04268002A04D02146284602
:1041E000BDE87040104770BD1C00002004000000B6
:1041F000000000000000000091929493070400006A
:1042000010270200919293940705000010270000E8
:1042100064010020190000000100000000000000FF
:104220002400002006000000040000000000000040
:1042300091FFFFFF07070000A86100003000002089
:104240000600000000000000040000000000000064
:1042500007000000000000003C00002008000000F3
:104260000100000000000000960100206400000032
:1042700000000000000000004C00002002000000D0
:1042800095000000000000004C000020020000002B
:1042900031000000000000009601002064000000D2
:1042A00002000000000000009193949207070000B4
:1042B000093D020050000020100000000000000036
:1042C000000000000D140000D91400007D1500004E
:1042D000F115000071170000111213140D0E0F10CC
:1042E0006002002080020020B00200200D000300C8
:1042F000250E00000E000300250E00000F00030035
:10430000250E000010000300250E000000000050E4
:10431000013300006D35000003000000A8030020F9
:10432000F80300200100060000000000D800002073
:104330008D130000000000000000000000000000DD
:104340000338FDD870473031323334353637383999
:104350004142434445460000E5270000B9270000DC
:10436000B1270000FFFFFFFFFFFFFFFFFFFFFFFF81
:10437000FFFFFFFF00000000000000000000D6016A
:1043800006010000600500207F000000E00500201D
:104390000040404040404040404041414141414058
:1043A000404040404040404040404040404040400D
:1043B000400502020202020202020202020202029C
:1043C00002202020202020202020200202020202A1
:1043D00002029090909090901010101010101010F9
:1043E0001010101010101010101010100202020205
:1043F0000202888888888888080808080808080849
:104400000808080808080808080808080202020244
:1044100040000000914300007761726E696E670092
:1044200064656275670000001B5B313B33306D00D3
:104430001B5B306D000000001B5B313B33316D00B6
:104440001B5B313B33326D001B5B313B33336D0003
:104450001B5B313B33346D001B5B313B33356D00EF
:104460001B5B313B33366D001B5B313B33376D00DB
:10447000696E666F000000006572726F7200000066
:10448000636C6F636B000000434C4F434B000000B4
:104490004750494F544500005052530050574D006B
:1044A000554152540000000055415254450000004F
:1044B0006170705F627574746F6E00006170705F20
:1044C00074696D6572000000736F72746C69737447
:1044D00000000000756172745F6C6F675F626163FA
:1044E0006B656E640000000061707000884500001C
:1044F000000000206401000008050000EC450000F9
:1045000064010020B4280000E009000058430000C6
:1045100000000000D444000004010020804400009A
:1045200000000000884400000000000090440000EB
:104530000000000098440000000000009C440000BF
:1045400000000000A044000000000000A84400009B
:1045500000000000B044000000000000BC44000067
:1045600000000000C844000000000000E844000013
:104570000000030318010020100100201801002092
:10458000A0040020180000005154C0014045100252
:104590004001E5200240025A8004890A490E89162A
:1045A0002902891009200A01481510014011022E24
:1045B00004122049F06908315AFF04011C23784491
:1045C0001A18041A70041A20041A30041A28041A3B
:1045D00038041A40041A48041A50041A58041A607D
:0C45E000041A680411040090D0030000CD
:0400000500000201F4
:00000001FF
