:020000040000FA
:1000000010200020150200001D0200005D0200000B
:100010002102000023020000250200000000000071
:1000200000000000000000000000000027020000A7
:1000300029020000000000002B0200002D02000039
:100040002F0200002F0200008D0500002F0200008B
:100050002F0200002F0200002F0200002F020000DC
:100060002F0200002F0200002F0200002F020000CC
:100070002F0200002F0200002F0200002F020000BC
:100080002F0200002F0200002F0200002F020000AC
:100090002F0200002F0200002F0200002F0200009C
:1000A0002F0200002F0200002F0200002F0200008C
:1000B0002F0200002F0200000000000000000000DE
:1000C0002F0200002F0200002F0200002F0200006C
:1000D0002F0200002F0200002F020000000000008D
:1000E0000000000000000000000000000000000010
:1000F0000000000000000000000000000000000000
:1001000000000000000000000000000000000000EF
:1001100000000000000000000000000000000000DF
:1001200000000000000000000000000000000000CF
:1001300000000000000000000000000000000000BF
:1001400000000000000000000000000000000000AF
:10015000000000000000000000000000000000009F
:10016000000000000000000000000000000000008F
:10017000000000000000000000000000000000007F
:10018000000000000000000000000000000000006F
:10019000000000000000000000000000000000005F
:1001A000000000000000000000000000000000004F
:1001B000000000000000000000000000000000003F
:1001C000000000000000000000000000000000002F
:1001D000000000000000000000000000000000001F
:1001E000000000000000000000000000000000000F
:1001F00000000000000000000000000000000000FF
:10020000DFF80CD000F018F8004800475106000055
:10021000102000200648804706480047FEE7FEE71A
:10022000FEE7FEE7FEE7FEE7FEE7FEE7FEE7FEE7A6
:100230006502000001020000064C074D06E0E06880
:1002400040F0010394E8070098471034AC42F6D31D
:10025000FFF7DAFF600700008007000000F0EFF909
:10026000FEE70000F0B5B74AB7494FF08054136875
:10027000D4F830010978D4F83421451CC1F30311B6
:1002800006D0844601270025BCF1060F03D00AE002
:1002900003F0FF0CF6E7B4F82463DFF8B0C2C6F34E
:1002A0000426CCF80060DEB2062E06D1032904D164
:1002B000DFF8A0C2A64ECCF87460461C04D0844679
:1002C000BCF1060F03D00AE003F0FF0CF8E7D4F806
:1002D0004462DFF884C2C6F34236CCF80060DEB276
:1002E000062E08D1032906D19C4ED6F800C02CF06A
:1002F000807CC6F800C0461C04D08446BCF1060FC2
:1003000003D00BE003F0FF0CF8E74FF08046C6F88F
:100310000C51C6F81051904E361F3560DEB2062ED5
:1003200008D1032906D1DFF830C203260CF1640C92
:10033000CCF80060DEB2062E11D103290FD1DFF810
:1003400020C20526CCF80060854E78363760844E92
:10035000083635600CF1040C3F26CCF80060461CD2
:1003600006D084464FEA0206BCF1060F04D081E0B5
:1003700003F0FF0C0E46F7E7032E7BD0042E79D056
:10038000784E3668DFF8E0C1CCF80060754E361D57
:1003900036680CF1040CCCF80060724E08363668F2
:1003A0000CF1040CCCF800606E4E0C3636680CF183
:1003B000040CCCF800606B4E103636680CF1040C5F
:1003C000CCF80060674E143636680CF1040CCCF89B
:1003D0000060644E18363668DFF88CC10CF1200CD2
:1003E000CCF800605F4E1C3636680CF1040CCCF87B
:1003F00000605C4E203636680CF1040CCCF80060CE
:10040000584E243636680CF1040CCCF80060554E7A
:10041000283636680CF1040CCCF80060514E2C36AE
:1004200036680CF1040CCCF800604E4E303636685D
:10043000DFF834C10CF1400CCCF80060494E343682
:1004400036680CF1040CCCF80060464E383636683D
:100450000CF1040CCCF80060424E3C3636680CF1CE
:10046000040CCCF800603F4E403636680CF1040CAA
:10047000CCF80060461C05D04FEA000CBCF1060F1A
:1004800003D008E003F0FF0CF8E7D4F85842374EE9
:1004900004F04F043460441C03D00346062B02D002
:1004A00008E0DBB2FAE732490B68DB0702D06FF0F5
:1004B00001030B6006280AD1032A08D0042A06D0BB
:1004C000052A04D02B48016841F48061016023486B
:1004D0007438016841F470010160BFF34F8FBFF3BE
:1004E0006F8F4FF01021D1F80002002803DBD1F804
:1004F0000402002822DA204A176020480368002BF3
:10050000FCD01523C1F800320468002CFCD0C1F8DF
:10051000043201680029FCD0156001680029FCD074
:10052000BFF34F8F0D48F0380168154A01F4E061C0
:1005300011430160BFF34F8F00BFFDE7124911481F
:100540000860F0BDE00F00F0E80F00F0403501401A
:100550000DF0ADBA00C007403C050040FCED00E0E6
:10056000105600400404001020C50040E40E004076
:10057000000400403C17004004E5014000E4014055
:100580000400FA050090D00308000020014800682C
:10059000004700000000002002E008C8121F08C148
:1005A000002AFAD170477047002001E001C1121FF4
:1005B000002AFBD1704700002DE9FC410646C00728
:1005C0004FF000050ED0104F00240122385D009539
:1005D00000231146019500F099F8641C042CF4D313
:1005E00000F024F8B0070DD5074E0024361D002278
:1005F000305D032300951146019500F087F8641CD7
:10060000042CF4D3BDE8FC81560700000249085CC5
:10061000012100F08DB80000560700000249085C77
:10062000002100F085B800005607000010B5002436
:100630002046FFF7EBFF641C042CF9D310BD10B566
:1006400000242046FFF7EAFF641C042CF9D310BDF8
:1006500008B54FF0202000900120FFF7ADFF2049A2
:100660001E480024C1F80007012000F03FF81D4893
:1006700001680D221C4DB2EB111F12D101680460FC
:1006800011F00F0F04D004600120FFF7C7FFFEE751
:1006900000990968A94202D0FFF7D1FFFEE700994F
:1006A0000C60D12101600020FFF7B8FF4FF47A7091
:1006B00000F01CF80B480830016841F4403101603B
:1006C00000980560FFF7B2FF064901201C39086059
:1006D000BFF34F8F00BFFFF7B2FFFEE70C00030030
:1006E000340000501C050040EFBEEDFE2DE9F04146
:1006F000040007D0044E4FF47A47751C3846A847CB
:10070000641EFAD1BDE8F0815007000070B541EADF
:100710004201DDE904564FF0A04441EA830141EA79
:10072000052104EB800041EA0641C0F8001770BDC6
:1007300001224FF0A043824011B1C3F80825704751
:10074000C3F80C2570470000000000000000000006
:100750000338FDD87047111213140D0E0F1000004E
:1007600080070000000000200C0000009805000039
:100770008C0700000C00002004200000A8050000E9
:0C07800000000000000000000090D0030A
:0400000500000201F4
:00000001FF
