:020000040000FA
:10000000C82F0020F5030000FD03000015020000CA
:1000100001040000030400000504000000000000CB
:1000200000000000000000000000000007040000C5
:1000300009040000000000000B0400000D04000093
:10004000F90800000F040000750B00000F04000009
:100050000F040000050700000F0400000F0400005B
:100060000F0400000F0400000F0400000F04000044
:100070000F0400000F0400000F0400000F04000034
:100080000F0400000F0400000F0400000F04000024
:100090000F0400000F0400000F0400000F04000014
:1000A0000F0400000F0400000F040000250B0000E7
:1000B0000F0400000F04000000000000000000001A
:1000C0000F0400000F0400000F0400000F040000E4
:1000D0000F0400000F0400000F0400000F040000D4
:1000E0000F0400000F0400000F04000000000000D7
:1000F000000000000F040000000000000F040000DA
:1001000000000000000000000000000000000000EF
:1001100000000000000000000000000000000000DF
:1001200000000000000000000000000000000000CF
:1001300000000000000000000000000000000000BF
:1001400000000000000000000000000000000000AF
:10015000000000000000000000000000000000009F
:10016000000000000000000000000000000000008F
:10017000000000000000000000000000000000007F
:10018000000000000000000000000000000000006F
:10019000000000000000000000000000000000005F
:1001A000000000000000000000000000000000004F
:1001B000000000000000000000000000000000003F
:1001C000000000000000000000000000000000002F
:1001D000000000000000000000000000000000001F
:1001E000000000000000000000000000000000000F
:1001F00000000000000000000000000000000000FF
:10020000DFF80CD000F054F900480047F52000005A
:10021000C82F0020094B1EF0040F1CBFEFF309800C
:100220001847EFF308800649064A884201D89042F1
:1002300002D88D464FF0000018470000110500005D
:10024000C82F0020C80F002030B450E8012F93B20F
:10025000C48923448489A34228BF1B1B0489A34269
:1002600002BFBFF32F8F002007E0C3EA020340E87C
:100270000134002CE9D14FF001000A6030BC704716
:1002800050E8012FC2EA024240E801210029F7D1DB
:10029000704730B450E8022F1FFAA2F3C488A3427B
:1002A00002BFBFF32F8F00200DE0C489234484894F
:1002B000A34228BF1B1BC2EA034340E80234002CC0
:1002C000E8D14FF001000A6030BC704750E8022FBF
:1002D000C2EA224240E802210029F7D170470346D2
:1002E00053E8022FD988B2EB324F4FF0000017BF0E
:1002F00092B241EA014142EA014104E05A68B2EB9C
:10030000324F08BF012043E80212002AE8D17047AB
:1003100030B4044654E8000F0D4644E80053002B67
:10032000F8D1156030BC704730B4044654E8000F73
:1003300040EA010544E80053002BF7D1156030BCBA
:10034000704730B4044654E8000F00EA010544E861
:100350000053002BF7D1156030BC704730B4044611
:1003600054E8000F80EA010544E80053002BF7D160
:10037000156030BC704730B4044654E8000F00EB01
:10038000010544E80053002BF7D1156030BC7047DD
:1003900030B4044654E8000FA0EB010544E80053D4
:1003A000002BF7D1156030BC704770B404464FF095
:1003B000000054E8006F0D68AE4207BF44E8002318
:1003C000012044E800630E60002B1CBF0020F0E712
:1003D00070BC704730B4044654E8000F88422CBF0C
:1003E000451A054644E80053002BF5D1156030BC92
:1003F000704700000648804706480047FEE7FEE7D2
:10040000FEE7FEE7FEE7FEE7FEE7FEE7FEE7FEE7C4
:100410005109000001020000202A04DB203A21FAE1
:1004200002F00021704721FA02F3D040C2F120020D
:10043000914008431946704700487047485C0000E7
:1004400040EA01039B0703D009E008C9121F08C056
:10045000042AFAD203E011F8013B00F8013B521ED6
:10046000F9D27047D2B201E000F8012B491EFBD24D
:1004700070470022F6E710B513460A4604461946AF
:10048000FFF7F0FF204610BD421C10F8011B0029A9
:10049000FBD1801A704730B504460020034600E0C7
:1004A0005B1C934203D2E05CCD5C401BF8D030BDB6
:1004B000064C074D06E0E06840F0010394E80700B1
:1004C00098471034AC42F6D3FFF79EFE88620000D6
:1004D000A862000030B58C1810F8012B12F00F0341
:1004E00001D110F8013B120906D110F8012B03E0ED
:1004F00010F8015B01F8015B5B1EF9D101E001F826
:10050000013B521EFBD1A142E6D3002030BD0000CA
:100510001CB5814603F08AFB03F0CCF90028FBD11F
:100520002D485FEA090507682C482D494FF0010660
:10053000A0EB01004FEAD00006EB004417D02046A4
:1005400028A1AA6903F0D4FAD5E90201CDE9000196
:10055000D5E90023204629A103F0DAFAE8690090E2
:10056000D5E90423204633A103F0C9FA03E020466D
:100570003AA103F0B9FA1848001D0068800703D5B6
:100580002046434903F0B0FADFF80881002500BF98
:1005900006FA05F0384206D058F825201AB1204650
:1005A0003DA103F0A5FA6D1C1A2DF1D3380606D52E
:1005B00009480C30026820463AA103F099FA380441
:1005C00006D505481030026820463EA103F090FA97
:1005D000484600F085F8000028ED00E0F8620000D1
:1005E000B862000048415244204641554C542061B5
:1005F0007420307825303858000000002020523018
:100600003A2020307825303858202052313A2020A6
:10061000307825303858202052323A202030782542
:10062000303858202052333A20203078253038583E
:100630000000000020205231323A20307825303836
:100640005820204C523A202030782530385820202D
:100650005053523A20307825303858005374616333
:100660006B2076696F6C6174696F6E3A2073746188
:10067000636B20706F696E746572206F7574736937
:10068000646520737461636B20617265612E000084
:10069000245D00008800002043617573653A2025C1
:1006A000732E00004D656D4D616E6167652046617A
:1006B000756C7420416464726573733A20307825D8
:1006C00030385800427573204661756C742041645F
:1006D00064726573733A2030782530385800000012
:1006E000BFF34F8F05480168054A01F4E0611143EB
:1006F0000160BFF34F8F00BFFDE700000CED00E08D
:100700000400FA052DE9FF5F4FF4827500242846A6
:1007100003F06AFB38B1022003F076FB18B12846DB
:1007200003F06AFB02244FF48475284603F05CFB57
:1007300058B1042003F068FB38B1284603F05CFB95
:100740000CB1032402E0012400E014B1204603F0C0
:1007500063FD4FF48C7003F047FBDFF88891624F24
:10076000624E634C4FF000084FF4947A4FF4867B4E
:1007700078B3402003F048FB58B34FF48C7003F07B
:100780003BFBB068CDE90008D9F80000039055485C
:10079000143000685546C0F30B001038C0F3CC008D
:1007A0000290504603F020FB60B1381503F02CFB9B
:1007B00040B1386800F00D000190284603F01CFBA2
:1007C0000D203860616809B168468847584603F0D3
:1007D00013FB4FF4887003F007FBA0B1102003F067
:1007E00013FB80B14FF4887003F006FB06F118008C
:1007F0000FC88DE80F003F491820C1F80803616851
:1008000009B1684688474FF4A67003F0EDFA364DFB
:10081000083D30B34FF4002003F0F6FA08B34FF46C
:10082000A67003F0E9FA4FF48C7003F0E5FA504635
:1008300003F0E2FA584603F0DFFA4FF4887003F051
:10084000DBFA002003F044FD0D2038600120286011
:1008500006F128000FC88DE80F00616809B16846ED
:1008600088474FF48E7A504603F0BEFAC0B180201C
:1008700003F0CAFAA0B12F68504603F0BDFA38362B
:1008800096E80F008DE80F00F80707D001202860D8
:100890008DF80480616809B16846884701202860A6
:1008A0005D46584603F0A0FA002819D0082003F04E
:1008B000ABFA002814D0284603F09EFA616800299C
:1008C0000ED008200090D9F80000029005480C30A6
:1008D000006840F2FF1202EAD000019068468847A3
:1008E000BDE8FF9F105500400C540040E059000047
:1008F000FC0500200050004070B54FF48076304673
:1009000002F0AFFA114CB50560B1304602F0B0FA12
:100910000120C5F80803607920B9012060712168C1
:10092000002088474FF48276304602F09AFA002879
:100930000AD0304602F09CFA0220C5F8080321686C
:10094000BDE870400120084770BD00002400002071
:1009500070B54FF080520124D2E94C1000230829D1
:1009600006D1CD06C5F80C31C5F810315E4D2B60AF
:10097000082955D15D4D2D685D4E35605B4D2D1DAF
:100980002D68361D3560594D08352D68361D35608A
:10099000564D0C352D68361D3560544D10352D687B
:1009A000361D3560514D14352D68361D35604F4D5F
:1009B00018352D684E4E203635604C4D1C352D684F
:1009C000361D3560494D20352D68361D3560474D43
:1009D00024352D68361D3560444D28352D68361D6B
:1009E0003560424D2C352D68361D35603F4D303514
:1009F0002D683F4E403635603C4D34352D68361DF0
:100A000035603A4D38352D68361D3560374D3C35EB
:100A10002D68361D3560354D40352D68361D3560E5
:100A2000082904D1050002D1334E324D3560082922
:100A300004D1050002D1314EFB253560082908D1CB
:100A4000050006D192F858622D4A156866F3030531
:100A50001560082904D1020002D12A4D8A012A60BA
:100A6000082906D128480168C90702D06FF00101A2
:100A700001602648016841F470010160BFF34F8FA7
:100A8000BFF36F8F4FF01021D1F80002002803DB75
:100A9000D1F80402002822DA1D4A14601D480468B7
:100AA000002CFCD01224C1F800420568002DFCD0B7
:100AB000C1F8044201680029FCD0136001680029D4
:100AC000FCD0BFF34F8F11487C380168124A01F403
:100AD000E06111430160BFF34F8F00BFFDE7104994
:100AE0000E48086070BD0000380500400404001086
:100AF00020C50040488103008C56004018F5004096
:100B0000E40E0040409602400004004088ED00E002
:100B100004E5014000E401400400FA050090D00320
:100B2000700100202DE9F047104E062700244FF4F5
:100B3000A0784FF4803900BF08EB840509FA04F06F
:100B4000715961B1D6F80413014208D029463046E4
:100B500003F022FA0648D0E9002128469047641C99
:100B6000E4B2BC42E8D3BDE8F087000000B0014029
:100B70000C06002001480068004700003C000020EF
:100B8000002809DB00F01F0201219140400980008C
:100B900000F1E020C0F88012704702E008C8121F80
:100BA00008C1002AFAD170477047002001E001C156
:100BB000121F002AFBD17047800701D00020704728
:100BC00001207047C3688B4206D811440069491E52
:100BD000814201D80120704700207047F8B5264CAB
:100BE000A04239D100250446052935D2DFE801F0BD
:100BF00003350E151A00D4F82C61002E2CD00023DA
:100C000000951A460121D4F8300133E0C4E90223EB
:100C10002046BDE8F84001F035B82046BDE8F84070
:100C200000F073BF107800F0F700F22804D0002025
:100C300084F8240118B901E00120F9E70023A36139
:100C4000107800F0E601022903D1C00601D5012089
:100C500000E0002084F82301F8BD204600F02CFFBE
:100C6000D4F82C61002EF7D0002300951A460221FB
:100C7000D4F83001B047F8BD700D002072B602F014
:100C8000D5FF00BF02F016FE0028FBD11148124923
:100C9000401AC408012000EB044010A102F024FF18
:100CA00011480068C00700D000BE022000EB0440DD
:100CB0000EA102F019FFBFF34F8F0B48E438016813
:100CC0000E4A01F4E06111430160BFF34F8F00BF92
:100CD000FDE7000008630000B8620000466174612F
:100CE0006C206572726F7200F0ED00E053797374DE
:100CF000656D207265736574000000000400FA05DC
:100D00000EB500210091CDE901106A4644F20100C0
:100D1000FFF7B4FF0EBD00002DE9F047244C8146DB
:100D2000924660880E4681423FD84FF6FF770020FA
:100D300000F076F822786078A188884201DA401CB9
:100D400000E00020C0B2904203D1002000F06AF819
:100D500029E065784FF000086078884201DA401C8D
:100D600000E000206070002000F05CF8BD421AD066
:100D7000A068B9F1000F40F835A00DD066B16188C8
:100D8000E068324605FB01004946FFF759FBA068C1
:100D900000EBC500868003E000EBC500A0F80480EE
:100DA0000020BDE8F0870420FBE70920F9E70000F8
:100DB0004400002010B50E4C03E0401C00E0002071
:100DC000207020786178814210D022786188E068B4
:100DD000A36802FB010003EBC20153F832208988AB
:100DE00090472078A1888842E9DAE6E710BD000044
:100DF0004400002030B5CB0008339DB293074FF07C
:100E0000000401D0072030BD044B9A602A44DA6008
:100E10005C701C7058809980002030BD4400002018
:100E200000F002B800F008B872B602480168491C28
:100E3000016070475400002003490868401E0860A4
:100E400000D162B6704700005400002070B505461E
:100E500008680C46411C04D002F026FC206802F011
:100E6000E4FB6068411C02D0002102F0CCFB296841
:100E7000A069C1F82405607D227D29681043C1F86E
:100E80006C05D4E900122868C0F81425C0F80C15C8
:100E9000207D012814D1A068411C02D0002102F05D
:100EA000B2FBE068411C04D002F0FEFBE06802F0F7
:100EB000BCFBD4E902122868C0F80825C0F8101558
:100EC00070BD70B5054608680C46411C04D002F0A0
:100ED000F5FB206802F0B3FB6068411C02D00021E2
:100EE00002F09AFB2968A069C1F82405607D217D84
:100EF0002A680843C2F86C05D4E900122868C0F8D3
:100F00000C15C0F81425207D012814D1A068411CBF
:100F100002D0002102F080FBE068411C04D002F006
:100F2000CDFBE06802F08BFBD4E902122868C0F820
:100F30000825C0F8101570BD084908B5085C009078
:100F4000684602F087FBD0F810050099C84010F001
:100F5000010000D0012080F0010008BDDA59000036
:100F60002DE9FC410646C0074FF000050ED0104F9A
:100F700000240122385D009500231146019502F0FE
:100F8000E5FA641C042CF4D300F024F8B0070DD566
:100F9000074E0024361D0022305D032300951146C4
:100FA000019502F0D3FA641C042CF4D3BDE8FC8153
:100FB000D65900000249085C012102F089BB0000FB
:100FC000D65900000249085C002102F081BB0000F4
:100FD000D659000010B500242046FFF7EBFF641C33
:100FE000042CF9D310BD00002DE9F0470546861CFE
:100FF00091460F464FF0010A0020FFF711FF1B4CEE
:1010000004F21C4860683860D4E90101184F401AA6
:101010003968081A0EE00121404601F0AAFE01F0ED
:1010200017F80146404601F0A4FED4E90101401A38
:101030003968081A401C8642EDD8B9F1000F03D078
:10104000052065F3891002E0062065F39F50616872
:101050003A68114004EB8101C86060683044606008
:101060000020FFF7DFFE5046BDE8F087F0080020C3
:101070001401002070B50D4604460A2902D10D2145
:10108000FFF7F8FFA0682268411CA1601554D4E95D
:101090000101814204D32046BDE8704001F089BFC0
:1010A00070BD0000044881684068814201D1012080
:1010B0007047002070470000F008002070B5084C11
:1010C000050009D010342168002907D00868206085
:1010D000496828468847F6E70834F4E770BD000001
:1010E000E8050020002801D103F0F8B9704700009E
:1010F000054A012120B1012805D19170FFF7DEBF1B
:1011000051700020FAE77047E80500202DE9FF4103
:101110000C4620B14FF4064004B0BDE8F0812079C0
:10112000002748F2096538B141F61D5601281BD049
:10113000022826D0681DEFE702202071029703974E
:10114000E0680190694601A803F07CFF50B1029865
:101150008188E18000882081BDF80010029803F0AA
:10116000EFFFD9E72846D7E70A4B6A460021A01DC2
:1011700003F020FF38B1074918398F61CF61A842C9
:10118000CAD13046C8E703488188019803F0D8FFE8
:10119000F5E700007000002010B50021024801F0C2
:1011A00003FE80F3100010BD0C0D00202DE9FC4162
:1011B00080461F4615460E4600240D4801F0D6FD18
:1011C00038B11120BDE8FC8106EB043002F09CFE32
:1011D000641CAC42F8D1064801F0BFFDCDE90057D0
:1011E000334600220221404600F04EF80020E9E795
:1011F000F000002010B503780022072B06D2DFE8AC
:1012000003F005040610202930000A7010BD0123E8
:101210000B7003898B818388CB81C06888600A74D6
:1012200010BD02220A7002898A818288CA81C2683E
:101230008A60807D062802D00020087410BD01203D
:10124000FBE703220A70C2888A810289CA81C068CA
:10125000886010BD04230B70C0888881CA818A60B1
:1012600010BD0520087010BD70B5064D064600245F
:1012700055F8241009B130468847641C042CF7D374
:1012800070BD0000840600202DE9F04387B00446BD
:10129000DDE90E8980681D4616460F4600280BD0F2
:1012A00018216846FFF7E5F802A88DF8007080E87D
:1012B0006003A1686846884707B0BDE8F083000076
:1012C00070B50278224CEAB12249234BC91AC908E9
:1012D000032303EB0145012A22D0022A19D0052A53
:1012E00016D1406808B1FFF70BFD28461BA102F09C
:1012F000FBFB61780020E9B16070D4E9011000F0D7
:10130000D9FF1FE0406808B1FFF7FAFC0120207008
:1013100070BD406808B1FFF7F3FC284619A105E04D
:10132000406808B1FFF7ECFC28461BA1BDE87040FF
:1013300002F0DABBA1780029EAD0A070D4E901104C
:1013400001F09CF80028E3D0BDE87040FFF7D8BC5E
:1013500004000020B8620000B862000047617262B9
:1013600061676520436F6C6C6563746F72206163A5
:101370007469766974792066696E69736865642E2C
:10138000000000004644532075706461746520734A
:101390007563636573732E004644532077726974D6
:1013A0006520737563636573732E00000D4808B57F
:1013B000007888B1684603F07FFD80B10621017096
:1013C000684603F087FD0848017809B101210173DF
:1013D00003F0DAFD002008BD48F2016008BD48F2C4
:1013E000076008BD7800002048070020F0B587B0EE
:1013F00014216846FFF73DF82C4C207818B1684658
:10140000FFF732FF50E0201D01F0B0FCC0BB4FF0F1
:10141000102041690004026940694B1C01D100FBA6
:1014200002F1234800220161A1F54051C160214928
:1014300001F054FF002821D120481C238C221E4992
:10144000006801F04BFC03F029FC051E14D00228B3
:1014500012D000270126062D13D005A803F02CFD7D
:1014600090B106700C2D1AD2DFE805F01911191190
:10147000191819181913151348F20A6007B0F0BDAE
:1014800012E026706760BAE748F20760F6E7077176
:1014900005E0032100E00221017100E0067105A8CA
:1014A00003F018FD03F070FD0020E7E7780000204E
:1014B00094010020C45A000094060020305A000015
:1014C00038B5040014D0694603F0BCFDB0B1BDF8D6
:1014D000000000EB80010B4800EB8100C16851B1B6
:1014E000A17A41B1C168491EC1600020A07238BD17
:1014F00048F2046038BD48F2056038BD48F2096022
:1015000038BD0000200700201FB501A9684603F080
:1015100051FD04B010BD0000F8B50D46040018D010
:10152000BDB1694603F08EFDB0B1BDF800000C49B5
:1015300000EB800001EB800001210C30666801F0B7
:1015400018FC2E6060680C3068600120A0720020DA
:10155000F8BD48F20460F8BD48F20960F8BD00002B
:101560002007002018B10323002204F0FBB848F242
:10157000046070470223002204F0F4B8094910B552
:101580000A69042A0AD0084A096942F82100054874
:101590000121103001F0EDFB002010BD48F20B607E
:1015A00010BD00005800002084060020406803F0B1
:1015B00099BC000070B510B14FF4064070BD1C4CD2
:1015C0000025207B08B1257301E000F0A5F8207804
:1015D00008282AD2DFE800F02904080C1029142278
:1015E000BDE8704000F026B8BDE8704000F082B859
:1015F000BDE8704000F064B8BDE8704000F040B84D
:101600000620207060880A4900EB8000283901EB31
:1016100080004068BDE8704003F020BB07202070C8
:101620006560BDE8704003F027BB48F20E6070BDF6
:10163000480700201149F0B48A1C00200346A1F19C
:1016400028050C18A67A4EB1A37200EB800405EBB6
:101650008404E66816B9247C012C0AD0401C80B2B0
:101660000228EED30B704B804B60F0BC41F61D504E
:1016700070471080F0BC00F03DB800004807002023
:101680000C48418801EB8102A0F1280101EB8201A5
:10169000CA6852B1052101700748022181800168A2
:1016A00000230122054801F07DBD04220270496833
:1016B000F6E7000048070020800000209401002089
:1016C00038B50A49084803240B684268898803EB47
:1016D000810153880470DB1C00201B0400909B0BCD
:1016E000034801F045FE38BD480700208000002077
:1016F00094010020074910B54888091D03F0F2FC49
:1017000018B1BDE81040FFF7DBBFBDE81040FFF7A0
:10171000B7BF00004807002070B5194C01212078A0
:1017200008281AD2DFE800F00419191C2529291805
:101730002089134A401C2081002060802073283AB1
:1017400000EB800312F8233043B100232518401C1E
:1017500080B2AB720228F3D3217070BD0123F5E78C
:101760006068084940888A88C01C1044888002202C
:1017700004E000F009F8062000E00720207070BDAA
:1017800048070020800000200A490948498802686B
:1017900001EB81030749283901EB83014B680360A2
:1017A0004A6082880A810222828000200874704781
:1017B0008000002048070020428800EB82020C32A3
:1017C0008A4201D9022070478188A1F57F42FF3A01
:1017D00006D0018821B18068401C01D000207047EC
:1017E00001207047884204D20068401C01D00120CB
:1017F0007047002070470000014941600020704799
:10180000B85A00002DE9F0412D4F002520B17D6030
:101810004FF40640BDE8F0810879012258B1294E05
:1018200001280CD0264C4FF002080834022820D0A2
:10183000032841D127E00A7103F01EFA3AE00020A4
:1018400000EB800116F82110022908D0401C80B25C
:101850000228F5D33A707D6041F61D50DAE700EBBF
:10186000800006F8205006EB8000406803F0F6F98F
:1018700020E00D71A4F804800023012212482168A1
:1018800001F090FC16E00D71206803F0E7F90D49B6
:1018900023682831498801EB810206EB8201D1F8E7
:1018A00004C0C4F800C04B60A3880B81A4F8048076
:1018B00006F822500028ADD07D6048F20D60A9E7FF
:1018C0007800002020070020940100202DE9FC5F13
:1018D0000E008346DDE90C47C6F1000098469246AB
:1018E000814600D40846012503E000BF90FBFAF0D2
:1018F0006D1C5045FADAA84500D9454624B1002EA2
:1019000001DB780700D5641EB80702D5B8F1000FD7
:101910000AD0F80708D13CB1A54205D2202158468B
:10192000641EFFF7A7FBF6E7002E02DA4E462D21D4
:1019300002E0780703D52B215846FFF79BFB07F001
:10194000030002280BD1B8F1000F08D13CB1A54229
:1019500005D230215846641EFFF78CFBF6E7CDE92F
:101960000047434652463146584603F07DFEBDE8E7
:10197000FC9F000070B50D46044600684FF4887166
:1019800002F026FB4FF49071206802F021FB4FF427
:101990009271206802F01CFB4FF4A271206802F0E3
:1019A00017FB4FF4AC71206802F012FB206812495B
:1019B000C0F804132068690740F30730090E0028B7
:1019C00004DB00F1E02080F8001405E000F00F00D7
:1019D00000F1E02080F8141D206840F30730002853
:1019E00009DB00F01F02012191404009800000F155
:1019F000E020C0F8001170BD100342000246002034
:101A00001268530713D502F00300012802D0022800
:101A10000CD105E0C2F383100B68801C184404E06D
:101A20000223086803EB92521044086001207047BB
:101A300002480068002800D001207047F000002014
:101A4000800701D0002070470120704738B5194C3D
:101A5000049DA0422DD104F1280080E82C002046EE
:101A60000022D0E9015001290DD0022917D0052903
:101A700005D006291DD1BDE8384000F097BEBDE86D
:101A8000384000F0DBBE0B49002D0A644A648A64CA
:101A9000CA640ED0002300921A46012108E04FF0DC
:101AA000FF316162002D04D0002300921A4602210A
:101AB000A84738BD100D002001210177002180F8D2
:101AC000241180F8251180F8231180F8281180F85E
:101AD000291101714171C0F84011C0F83411C0F8EA
:101AE00038117047826811780B07017906D5527852
:101AF00002F00F028A4202D1012102E009B1002066
:101B0000704780F8291101207047F8B504468069B4
:101B1000002813D194F8260100280FD00025009545
:101B2000D4E94C03D4F82C61D4F84021052104F504
:101B30009274B047E56104F8025CA570F8BD10B579
:101B4000044690F8240118B1002084F8240110BD47
:101B50002046FFF7C7FF0028F9D0204600F0DEF945
:101B60002046BDE81040FFF7A7BFF8B504460125A1
:101B700090F82401002610B184F82461F8BD2046B5
:101B8000FFF7B0FF0028F9D0A06801780A0700D558
:101B9000022594F8232112B184F82361F8BD490786
:101BA00004D5415D6279914200D16D1C217F81F0A5
:101BB000010121770278D307B3EBC17FEED1D106C3
:101BC0004FF001070CD50097E1684B1B4219D4E98F
:101BD0004B500621A8472046BDE8F84000F00CB95C
:101BE000204600F0ABF984F822710096E068431BB0
:101BF000A0684219D4F83001D4F82C410621A0473E
:101C0000F8BD70B504460125FFF76CFF002838D0F9
:101C1000A0680078010700D50225E168A94230D10B
:101C2000C6064FF0010204F21F1304F11D051AD479
:101C300000F00101207F81421FD080F00100207759
:101C40002046BDE8704000F0ECB884F82421002262
:101C5000184604E06169002913D000222846BDE837
:101C6000704000F07BBF217F00F00100884204D06B
:101C70002046BDE8704000F0BFB8A1690029E9D056
:101C8000E3E770BD70B5C16800292FD081680029D5
:101C90002CD0097801F0F002902A27D0D02A25D044
:101CA0008A0748D590F828218AB34A0635D501F02D
:101CB000F701C2291BD0F22918D1044690F824015B
:101CC0000125002812D02046FFF70CFF00280DD078
:101CD000A0680178090700D502256119405D91F8D7
:101CE0001F110025884206D084F8245170BDBDE83C
:101CF0007040FFF724BF94F8250148B1002204F199
:101D00001D00616900F02AFF84F82551ECE712E01C
:101D10002046BDE8704000F011B901F0E60102294B
:101D200005D0A229E2D1BDE87040FFF76ABFBDE847
:101D30007040FFF71ABF1D29D8D05029D6D0E0290E
:101D4000D4D190F828110029D0D10121017780F851
:101D5000281181680D4A4978090952F82110891E15
:101D600001618168497811F00F01017100D00121F2
:101D700080F8291101790F2903D0BDE8704000F0E7
:101D80001BB8BDE87040FFF797BE0000745B000011
:101D9000024610B50920074B002100BF53F821402F
:101DA000944201D1084610BD491CC9B20929F5D396
:101DB00010BD0000745B000010B504460068FFF71A
:101DC000E7FF092816D040F07000A0778021E17766
:101DD000E179A279022041EA021184F8201084F806
:101DE00021000521617704F11D00BDE810400022AB
:101DF00000F0B4BE032010BD027F002102F00102FA
:101E000042F0A202427790F829312BB142F008014A
:101E1000417702790121827700221D30491C00F0B0
:101E20009DBE2DE9F0410446007F002700F001012E
:101E3000891C617794F82921D4F838013E4632B1E3
:101E400028B941F00801617721790127A177D4F8F9
:101E500034117F1C0D1A2169C91B8D4204D9627F80
:101E60000D4642F0100262773DB1D4F840112A4687
:101E70000144E0191D30FEF7E3FA627F7919D006BC
:101E800029D4D4F83C0108B323698B4232D9D4F861
:101E90004421C0F10200105C621801F10101507789
:101EA000D4F83C01401EC4F83C0114D022698A4297
:101EB0000DD9D4F84421C0F10200105C62185077AB
:101EC000D4F83C01401E491CC4F83C0103E0607F8B
:101ED00040F0100060776161D4F838010122284495
:101EE000C4F83801D4F83431984208D3D4F83C010E
:101EF00018B104E042F01000ECE784F8262194F8D1
:101F0000240120B184F825213046BDE8F08100226B
:101F100004F11D0000F022FE0646F5E70021C22272
:101F2000427790F8292122B1CA2141770279012113
:101F3000827700221D30491C00F010BE82790021FA
:101F4000C2F1070301229A40F22380F81F3190F872
:101F50002931D2B233B1FA2180F81F11037901215E
:101F600080F82031491C3B2A00D93B22431800F25B
:101F70001F1083F81F210122491C00F0EFBD000053
:101F80002DE9F843164C042680468DF8006094F83D
:101F9000270115460F4608BB05B34FF4A471204630
:101FA000FEF767FAB00120600220E071A6712C6094
:101FB000C4E94B7801226946104600F075FD0028FF
:101FC00008D12146074800F0D5FD28B15FF0000197
:101FD00084F82711BDE8F8830121F9E70720F9E724
:101FE000700D0020DD0B000030B4124CA04204D173
:101FF00019B14FF6F074A24202D9072030BC7047E5
:10200000D0F8404154B990F822413CB100243BB192
:102010000225C0F83C51C0F8443103E00820EDE748
:10202000C0F83C41C0F84011C0E94D2430BCFFF776
:10203000F8BE0000700D00200268134602E08A42DC
:1020400004D01268002AFAD10B60016070470000CA
:102050002DE9FF410026244800F085FE2248001F9C
:10206000074600F080FE214C2149A06800900D68D1
:1020700000E000986946284004EB80000C30FFF730
:10208000BDFC0028F5D101AA009901EA050304EB83
:102090008303491CDB6842F82030401C0091022871
:1020A000F2D3019800F0030001280BD0022810D1D0
:1020B0000198032101EB90500099BDF80A6001EBF3
:1020C000900005E00198BDF80A60C0F38310084451
:1020D0000090384600F044FE08B10098A06004B0BB
:1020E0003046BDE8F0810000080D0020F008002017
:1020F0001401002008B50021084601F06BFD08B16D
:10210000FEF7FEFD01F0C8FB0320FEF729FF294A78
:1021100004210020FEF76EFE08B1FEF7F1FD00F08D
:1021200099F908B1FEF7ECFD22484FF4806421468E
:10213000283000F013F908B1FEF7E2FD0020FEF7A9
:10214000FBFE80B11B4869462830009400F0FAF885
:1021500008B1FEF7D5FD17482146283000F08EF96A
:1021600008B1FEF7CDFD0021134800F059FD08B17C
:10217000FEF7C6FD0F482146283000F023FD08B1C8
:10218000FEF7BEFD0D480E49401AC008032101EBC1
:1021900000400CA101F0A8FC00F07AFC08B1FEF7A9
:1021A000AFFDFEF707FE00BF01F084FB0028FBD166
:1021B00020BFF6E7A8010020912800000863000076
:1021C000B86200005772697461626C65204E4445C4
:1021D00046206D657373616765206578616D706C0D
:1021E0006520737461727465642E00002DE9F047F8
:1021F000C5881E1DB6FBF5F78946B6FBF5F104460A
:1022000005FB176C407916686843DDF820A0F718C5
:10221000001F874200D9C61A166001E02468491ED3
:102220000029FBD1A5EB0C078846B74216D818E069
:1022300004EB0C00001D09EB0803BAF1000F3A464D
:1022400002D00146184600E01946FEF7F9F8246866
:10225000F61B4FF0000CB844B54201D9374600E0F8
:102260002F46002EE4D1BDE8F087000030B50246CD
:1022700051B101F0C3FC0021074C08E034F82130D3
:102280001568AB4202D11160002030BD491C81426B
:10229000F4D3052030BD00000000000004480022F7
:1022A000816B11B101618263816180F83E207047CA
:1022B000100D002070B50C46054600F0BDF80E4923
:1022C000A1F10C00FFF756F9A0F50641063912D12D
:1022D0000A4801214170C0E9014509480949401AED
:1022E000C008032101EB004007A101F0FDFBBDE8A0
:1022F0007040FFF75BB870BDDC05002004000020D3
:10230000B8620000B8620000464453206861732040
:102310006E6F2066726565207370616365206C6501
:1023200066742C204761726261676520436F6C6C34
:102330006563746F72207472696767657265642182
:102340000000000008B5034600910E22024901205A
:1023500000F082FC08BD0000C859000013B586B02B
:1023600004460020039042F22221049003AB1B4A52
:102370004810FFF7C9F81A491A4A891AC9080322EE
:1023800002EB0143A0B1A0F5064109390ED1024686
:1023900015A1184601F0ACFB07A92046FFF7D2FFB4
:1023A000002803D120460799FFF784FF08B010BD2D
:1023B00018461BA101F098FB69460848FFF7ACF8E6
:1023C0000028F3D100980199408882002046FEF74A
:1023D00037F80248FFF774F8E8E70000D00500205E
:1023E000B8620000B86200004E4445462066696C41
:1023F00065207265636F7264206E6F7420666F75FE
:102400006E642C2064656661756C74204E4445468C
:102410002066696C6520637265617465642E0000D6
:10242000466F756E64204E4445462066696C652093
:102430007265636F72642E00054A41F21113C91C64
:1024400013805B00538050608808906070470000E4
:10245000DC05002010B50748FFF790F8002807D1E9
:10246000FEF7C4FF002803D103490A78002AFCD0F4
:1024700010BD0000C11200000400002070B50C4621
:102480000546FFF7D9FF0E49A1F10C00FFF76AF8E6
:10249000A0F50641063912D10A4801218170C0E930
:1024A000014509480949401AC008032101EB0040D1
:1024B00007A101F019FBBDE87040FEF777BF70BDC2
:1024C000DC05002004000020B8620000B8620000B3
:1024D00046445320686173206E6F2073706163659A
:1024E000206C6566742C20476172626167652043C9
:1024F0006F6C6C6563746F72207472696767657264
:10250000656421000848018CC268090AD172C2685A
:1025100090F82010117390F83D1009B1002100E0EF
:10252000FF21C06881737047100D002010B50F2285
:1025300009490A48FDF784FF0849A1F15000C1602C
:1025400041610F21C161002101614A1E8161C0E921
:10255000081280F83D1010BD635B0000600D002084
:1025600070B50D4D0D4A00212C7800BF01EB4103E1
:10257000D65CA6420AD113445B78834206D101EBB4
:102580004100104480782870002070BD491C052946
:10259000ECD3082070BD0000100D00207401002055
:1025A000F8B51C4D05F140042869A1680844D5E937
:1025B0000A12FDF745FFA068E96A0844A060296B8C
:1025C000012926D061682268134E401A00279042E4
:1025D00010D1361F01290DD82A695078117800973B
:1025E00000EB0124D5E901C023460421E0470CB1EA
:1025F000FFF754FE0748334607490764476487647A
:10260000C764686B01B00022BDE8F040491FFFF7C6
:10261000EBBCF8BD100D0020465B00002DE9F04139
:102620001848174B0022C46A591F052C23D3856A0A
:10263000476AEC78AE782D7904EB062400EB870628
:1026400004EB050CD6F81CE0F44514D84B1C71695A
:102650002A462144012F0ED185696E782D7806EB2C
:102660000525AD1CAC4203D2AC4501D3012400E0EA
:10267000002480F83C40406BBDE8F041FFF7B4BC5B
:10268000465B0000100D002070B51D4C1B4D002650
:10269000E06A0D2808D10D2205F11201A06AFDF7AC
:1026A000FAFE08B9AD1E6662606A401C1DD0E06A81
:1026B00007281AD111490722091DA06AFDF7EBFE70
:1026C00010B90E4D6662AD1E606A401C0DD0E06A06
:1026D00007280AD1094907220B31A06AFDF7DBFE62
:1026E00018B90120054D6062AD1E2B46606BBDE838
:1026F000704002490022C91EFFF776BC445B00000F
:10270000100D0020F8B5284D264FEA6A052A2FD370
:10271000686A01282CD195F83D0028B3A96AC878C9
:102720008B780E7900EB03242B6AA01998421FD8EE
:102730002846531F0069B34217D12044491D521F38
:10274000FDF77EFE3F1F012C12D82A6950781178C0
:1027500000EB012400200090D5E90160234604210C
:10276000B0470CB1FFF79AFD02E02B6B012B09D0AB
:10277000686B01B03B46BDE8F0400A490022491FA2
:10278000FFF732BC2044491D521FFDF759FE064891
:102790000121403001734460E96A641F21440660EE
:1027A0008160F8BD465B0000100D002038B521495E
:1027B0000878022814D10846D0E90A230C690CB91C
:1027C000886938B11B484030007B50B1BDE83840C3
:1027D000FFF7E6BE086B0090D1E901400621A04753
:1027E00038BD022B09D3107838B95078A42810D0FE
:1027F0000122B02811D0D62815D00E48406B03B165
:102800000D4B01B00C49BDE830400022C91EFFF756
:10281000EBBBBDE83840FFF737BF81F83E20BDE88D
:102820003840FFF7FBBE81F83E20BDE83840FFF797
:1028300069BF0000100D0020445B0000F8B5134C88
:102840000025A06918B14178007801EB002594F8C3
:102850003C0060B1FFF722FD002635B10096002351
:10286000D4E901501A460321A84784F83C60206946
:1028700000280AD1A069002807D1206B0090D4E974
:102880000A23A06864680521A047F8BD100D002048
:1028900010B51C46012917D0022917D0032919D0D9
:1028A00004291CD1002C1AD00120FEF78BFB0C4808
:1028B00000210C4A04700846FEF72EFA00280ED0BC
:1028C000BDE81040FEF71CBA002004E0BDE810404F
:1028D000FEF780BB0320BDE81040FEF773BB10BDC0
:1028E00000000020E15100002DE9F84F17465FEA93
:1028F00000080D460DD067B1D8F800005FEA000966
:1029000007D08A464DB13868022804D20420BDE8B9
:10291000F88F0E20FBE70AF10205022400261EE0D4
:1029200026B1711C884207D1402106E0012801D060
:10293000802102E0C02100E0002138686B46001BC6
:1029400000902A46D9F8000000F02AF80028DED1CD
:102950000098044405B1054409F10409761CD8F82F
:102960000800B042DCD855B1A01EB0F5803F01D3BD
:102970000620CCE7020A8AF800208AF8010000202D
:102980003C60C4E7D0E901329A4201D30420704789
:10299000036843F822108168491C81600020704759
:1029A0002DE9F843144698460A4605004FF0000703
:1029B0004AD06878297A4618B61D00B1761C8CB3C7
:1029C00032F0C00002D00720BDE8F883D8F800003C
:1029D000B04201D20420F7E722702B78601C1A4322
:1029E00022702A7A00F8012B21460746041D6878D8
:1029F00028B104F8010B087840F0080008702A7A22
:102A00002046E968FDF71CFD287A6A7804442AB15B
:102A100020466968FDF714FD68780444D8F8000082
:102A2000801B00902B697BB16A46214668699847F4
:102A30000028C9D114B1009800BA38600098311844
:102A40000020C8F80010BFE70E20BDE7006802288C
:102A500003D0042804D100F013BA024800F026BACB
:102A60007047000068010020084810B50649416021
:102A70000021016000F03EFA852803D0002800D034
:102A8000032010BD002010BDE510000068010020EB
:102A900010B50220FFF764FD08B1082010BD00F05A
:102AA0008FF8002010BD00003EB52A4C012804D04C
:102AB000022813D0032823D020E00D784FF4805053
:102AC000A840012A2CD1002101908DF80010684601
:102AD00001F0B2FC002812D165700FE0012A1FD16D
:102AE00001208DF8000008788DF80400684601F098
:102AF000A3FC002803D19DF80400E07000203EBD37
:102B0000012A06D0042A15D0072A13D00A2A11D088
:102B100006E00878042805D0072803D00A2801D049
:102B200009203EBD20710A210B4801F055FC002808
:102B3000F7D103E022710848FDF782FC02208DF8EE
:102B400000000548019020798DF80800684601F0E2
:102B500073FC3EBD84010020B80F00201CB5CDE9F8
:102B600000100AB1022100E00321684601F0C4FC14
:102B70001CBD00001CB5104BD3E90223CDE9002396
:102B80000E4AC2E902010D490122C91C0220FFF7C9
:102B90008BFF00280ED109490122491C1046FFF77E
:102BA00083FF002806D1FFF75FFF002802D16846A7
:102BB00001F09CFB1CBD0000B45B00008401002000
:102BC00001F0A2BA70B504464FF6F0700D4681428E
:102BD0000BD805B14CB10120FFF7C2FC0F4AA0B1E0
:102BE000106AA84203D0062070BD0C2070BD106989
:102BF000A04201D10B2070BD92F83E0008B1946351
:102C000001E014619461002070BD1461156201201F
:102C1000946182F83D00FFF775FCF4E7100D002089
:102C200070B50D46040005D00020FFF799FC18B1DF
:102C3000082070BD072070BDFFF778FC04480549E7
:102C400000F13402C0E90145BDE87040FFF798B9D2
:102C5000100D00204D1A000070B51D46134B0C4698
:102C60008EB0D3E90113129ECDE907130DA9069189
:102C70000E498DF824008DF82C200A9418220C316E
:102C80006846FDF7DDFB09A80590694606A8FFF731
:102C900079FE002805D134B13246294606A8FFF74F
:102CA00023FE0EB070BD0E20FBE700001C5B000091
:102CB00070B51546044661B1207A2A68904201D366
:102CC000042070BD20780870481C227A6168FDF7E6
:102CD000B7FB207A401C2860002070BD10B531B1D0
:102CE000B2FBF3F403FB14241CB1092010BD0E2029
:102CF00010BD01600021416081608281C38108466E
:102D000010BD70B50C460546FDF79EFA002802D0AE
:102D100021882868084470BD10B50A8849888A420D
:102D200003D1FDF7D3FA012010BD002010BD70B50E
:102D30000C460546FDF7ADFA002802D061882868E8
:102D4000084470BD10B50A8849888A4203D1FDF74E
:102D500097FA012010BD002010BD002100F00FB82F
:102D6000002100F017B8012100F023B8012100F084
:102D700016B808B56A46FDF7FEFA009808BD08B512
:102D80006A46FDF7DEFA009808BD08B56A46FDF709
:102D9000F2FA08BD08B56A46FDF7D3FA08BD08B5D2
:102DA0006A46FDF7C1FA08BD08B56A46FDF7B0FAF4
:102DB00008BD08B56A46FDF7B7FA009808BD08B522
:102DC0006A46FDF7E5FA009808BD70B5044600258F
:102DD0002846FEF725F821686268086890420ED9F7
:102DE000401E08600178238AE26801FB0325227AED
:102DF0002168101AC0B20A79824200D208710020FC
:102E0000FEF710F8284670BD70B505460C46002048
:102E1000FEF706F8E868298A201AB0FBF1F12A6863
:102E20001068431C13600170BDE870400020FDF77E
:102E3000F9BF10B530B1017A42680368891AC9B286
:102E40001A6006E00E2010BD03681A68541C1C604E
:102E50001170491EC9B2F7D20068002101710846FD
:102E600010BD00F180400068002800D001207047AC
:102E700008B500F18040002101600068009008BDA5
:102E800010B50020FDF7CCFF074C6068401E606065
:102E9000606818B901F0CCF800206070BDE81040FF
:102EA0000020FDF7BFBF0000E805002070B5104D01
:102EB0000446687838B114B1616800208847002062
:102EC000FDF7AEFF0CE00020FDF7AAFF24B1084893
:102ED00021460830FFF7B0F8686808B901F09CF89F
:102EE0006868401C6860BDE870400020FDF79ABF2C
:102EF000E805002070B50C4C0125207808B1852626
:102F00000BE00020A06060602061E060074801F0F5
:102F1000ADF8064601F06AF8257001F05FF800B1DF
:102F2000A570304670BD0000E8050020F1100000DB
:102F3000F0B505460478154889B0164640F82420B7
:102F4000124A08690832A2F10C0742F82400487FAF
:102F5000385520226846FDF773FA04942878385CC7
:102F600048B10EB10A4A00E000226946281D01F06E
:102F700001FD09B0F0BD0EB1064A00E0002269462D
:102F800005F10C0001F0C0FBF3E700001400002085
:102F9000155500005D5300000FB408B503990029D2
:102FA00004D004AA00926A4600F00FF801B05DF860
:102FB00014FB10B582680446002A05D0D4E9040346
:102FC000216898470020A06010BD2DE9FC4791467C
:102FD0000C00804676D014F8011B39B125290ED09B
:102FE0004046FEF747F820780028F4D198F80C0006
:102FF000002867D04046BDE8FC47FFF7DABF002055
:10300000012221782B291BD02D2902D0302908D16B
:1030100002E040F0010001E040F00200641C002AE0
:10302000EFD100252A290ED02178A1F130020A2AF9
:1030300011D205EB850201EB4205641C303DF1E73E
:1030400040F00400EAE7D9F800100B1DC9F8003081
:103050000968641C0D44217800232E290BD114F833
:10306000011FA1F130020A2A05D203EB830201EB12
:103070004203303BF3E76C290DD068290BD0692956
:1030800021D00BDC252918D0582931D063290ED046
:10309000642915D117E014F8011FECE7702969D0F5
:1030A000732932D075291BD0782909D120E0D9F8AD
:1030B0000000011DC9F8001001784046FDF7DAFF55
:1030C000641C90E76CE0D9F800100A1DC9F80020D4
:1030D0000968CDE900500A224046FEF7F7FBEFE70A
:1030E000D9F800100A1DC9F8002009680A2206E074
:1030F000D9F800100A1DC9F8002009681022CDE98E
:103100000050404602F0B0FADAE7D9F80010002784
:103110000A1DC9F800200E68C00705D112E040461C
:10312000761C7F1CFDF7A6FF31780029F7D104E05B
:10313000202140466D1EFDF79DFFBD42C0D9002DE8
:10314000F6D1BDE74EB13046FDF79EF9074604E0E3
:10315000202140466D1EFDF78DFFBD4206D9002D92
:10316000F6D103E04046761CFDF784FF3178002954
:10317000F8D1A5E7D9F80000011DC9F800100568CD
:1031800030214046FDF776FF78214046FDF772FF7B
:1031900008200021CDE90001034610222946B0E7AE
:1031A000BDE8FC872DE9F843884605002C482D49E9
:1031B0009946A0EB01004FEAD0004FF001011646FE
:1031C00001EB004424D0286800282CD0002E34D0F5
:1031D000696840464FF010070A68511E11EA080F4F
:1031E00011D1014672432846FDF7ECFC00282ED091
:1031F00028684B463246046901B041462846A44639
:10320000BDE8F04360472046174B18A2009722E024
:103210000E2000902046144B1EA220A100F06FFC4F
:103220000E20BDE8F8830820009020460E4B26A211
:103230001AA100F064FC0820F3E709200090204662
:10324000094B24A215A100F05AFC0920E9E7064B1E
:10325000214A2046009711A100F051FC1020E0E720
:1032600000630000B8620000A35A00006164647249
:103270005F69735F706167655F616C69676E6564E4
:1032800028705F66732C20706167655F616464728B
:1032900029000000705F6673000000002573206342
:1032A0006865636B206661696C656420696E2025C2
:1032B00073282920776974682076616C75652030E1
:1032C0007825782E00000000705F66732D3E705FD9
:1032D000617069006C656E006461000038B50300C0
:1032E0001148124D4FF00E04A0EB05004FEAD0003C
:1032F0004FF0010505EB004009D061B119600C6881
:1033000001B0A446BDE83040114618466047084B5E
:1033100008A2009402E0064B08A2009409A100F064
:10332000EEFB0E2038BD000000630000B862000014
:10333000585A0000705F667300000000705F617093
:1033400069000000257320636865636B206661690E
:103350006C656420696E202573282920776974685C
:103360002076616C756520307825782E000000008D
:103370002DE9F84F90468A463A493B4A0500A1EBB1
:1033800002014FEAD1014FF00102DDF828901E46FC
:103390004FF00E0002EB01441AD0B8F1000F1CD020
:1033A0002868002822D00920002E29D069684968A1
:1033B000B6FBF1F201FB1261002926D000902B4BE5
:1033C00020462BA235A100F09AFB0920BDE8F88F1A
:1033D00000902046254B3CA203E00090234B204662
:1033E0003BA22EA100F08BFB0E20EFE708200090FF
:1033F00020461E4B38A229A100F081FB0820E5E7FA
:1034000000902046194B37A2DCE75046FDF7D4FB6D
:10341000102798B14046FDF7CFFBA0B13246514688
:103420002846FDF7CFFB98B1CDF8009028683346C9
:103430004246C46851462846A047C7E720460B4B82
:1034400029A2009708E02046084B2DA2009703E030
:10345000064B204633A2009710A100F050FB10202D
:10346000B4E7000000630000B8620000905A00005A
:1034700021286C656E202520705F66732D3E705F7D
:10348000666C6173685F696E666F2D3E70726F6700
:1034900072616D5F756E6974290000002573206389
:1034A0006865636B206661696C656420696E2025C0
:1034B00073282920776974682076616C75652030DF
:1034C0007825782E00000000705F66730000000011
:1034D000705F737263000000705F66732D3E705FF3
:1034E000617069006C656E00616464725F69735F2E
:1034F000616C69676E656433322864657374290092
:10350000616464725F69735F616C69676E6564337F
:1035100032282875696E7433325F7429705F737254
:1035200063290000616464725F69735F776974681E
:10353000696E5F626F756E647328705F66732C20AE
:10354000646573742C206C656E2900002DE9FF41C1
:103550001C46DDE90A7815460E46684600F07AF802
:1035600046EA450141EA840141EA072242EA08416C
:10357000009A00EB8200C0F80017BDE8FF812DE93A
:10358000FF411C46DDE90A7815460E46684600F004
:103590006FF846EA450141EA840141EA072242EA1E
:1035A0000841009A00EB8200C0F80017BDE8FF81D7
:1035B0002DE9FF411C46DDE90A7815460E466846AE
:1035C00000F064F846EA450141EA840141EA072235
:1035D00042EA0841009A00EB8200C0F80017BDE8FB
:1035E000FF811CB5002100910B4601220191FFF7DC
:1035F000C6FF1CBD1CB5002100910B4601220191A4
:10360000FFF7D6FF1CBD1CB500220B4600921146E9
:103610000192FFF7B4FF1CBD1CB500220B460092BF
:1036200011460192FFF7C4FF1CBD1CB5002100919B
:103630000B46012201911146FFF7A1FF1CBD1CB5ED
:10364000002100910B46012201911146FFF7B0FFC6
:103650001CBD00000168202902D24FF0A040704735
:1036600001F01F0101600148704700000003005095
:103670000168202902D24FF0A040704701F01F01DD
:1036800001600148704700000003005001682029D4
:1036900002D24FF0A040704701F01F0101600148C5
:1036A000704700000003005001B56846FFF7E0FFD7
:1036B000009A01219140C0F8081508BD01B568467F
:1036C000FFF7E4FF009A01219140C0F8081508BDFA
:1036D00038B501240090684631B1FFF7BBFF00996F
:1036E0008C40C0F8084538BDFFF7B4FF00998C4006
:1036F000C0F80C4538BD000030B5154A0146002021
:10370000D2F8104423460AE0DB681D79854205D1D2
:10371000401C0A28F6DB4FF0FF3030BD1B68002B41
:10372000F2D1431CF9D0CB681871D2F8103443B1F0
:10373000DB68CC681B682360D2F81024D268116063
:1037400030BDC2F81014C96800220A6030BD000004
:10375000F0080020F0B595B01C4615460F46084607
:103760001A9E00F01BFB182109A8FCF782FE0E969A
:10377000CDE909540023082203A9384600F023FBB1
:1037800005980690BDF81000ADF81C00BDF81200B9
:10379000ADF81E0000208DF821000398082600F0E7
:1037A0000300012802D0022818D032E003983346E3
:1037B000850AC0F3C2008DF8200003980FA9C0F35A
:1037C0008314A200384600F0FEFA09A8009006AB68
:1037D00022460FA9284600F03DFA1AE00398840D0E
:1037E000C0F3C2008DF82000082C01D2254600E06D
:1037F000082533462A460FA9384600F0E4FA2E443D
:10380000641B09AB06AA29460FA800F08BF9002C0F
:10381000EAD1384600F0C8FA15B0F0BD7047002074
:1038200001F0BABD084810B50178084A515C19B1D9
:10383000001D01F039F902E00C3001F033F8BDE869
:103840001040002001F0A8BDF8000020100000206A
:1038500008B5034A00924023024AFFF77BFF08BDE8
:1038600035520000580700200A4A012902EBC00027
:1038700007D0022907D0032907D0042907D0002048
:1038800070470220704704207047007970474079E4
:1038900070470000B862000010B5FFF7C0FF0421B8
:1038A0000348FFF729FF02490120C968487110BD8C
:1038B000A86200002DE9F0478CB0FDF7F3FB18B1CA
:1038C00000200CB0BDE8F0877D4C0020C4F818043F
:1038D000BFF34F8F7B49A06802900D684FF000083E
:1038E000284004EB80000BE0D4F8180470B961683C
:1038F0000298814201D8A160E2E7284004EB8000F1
:103900000C3002A9FEF77AF80028EDD1002003AAB6
:10391000029901EA050304EB8303491CDB6842F8C2
:103920002030401C02910228F2D3039800F00300DB
:10393000022802D001284DD0A7E003985022810D23
:103940008946B2EB905F00D850210E4666F39F5037
:10395000039008315C4800F0D8F9070078D000F0F7
:103960001DFA4346082203A9384600F034FA0299AA
:1039700008F1080A2940681A8000001D864222D9F1
:103980004F4D0C3530B1C2B204EB8101301A904674
:103990000C3104E02946F2B2002590462846C6B212
:1039A0005346384600F017FA0AEB080325B13246B1
:1039B0002946384600F00FFA029909F1030001EB9D
:1039C000900002903BE004EB8101534632463846BA
:1039D0000C31EFE70398C0F38310062800D30620CC
:1039E000039960F38911C1F38310801C0391810056
:1039F000354800F08AF9070047D000F0CFF9434678
:103A0000082203A9384600F0E6F908F10808002664
:103A10000FE00298434600EA0501401C04EB8101D7
:103A20000290042238460C3100F0D5F908F1040860
:103A3000761C0398C0F38310B042EAD847B1D4F89B
:103A40001054D4F8180478B1384600F0ADF931E0DC
:103A50001BE0E8684079012804D12A6828463946E5
:103A600012689047E8680568002DF2D1384600F0EA
:103A70009BF90020FDF7D4F9D4F8180408B902988E
:103A8000A0600020FDF7CEF914E0D4F8104405E062
:103A90002168204689688847E0680468002CF7D1CF
:103AA0000A480B49401AC008022101EB004009A155
:103AB00000F01AF8FDF7F6FA80F0010001E70000C7
:103AC000F0080020140100201063000008630000CB
:103AD000B86200004261636B656E647320666C754A
:103AE000736865640000000000231A4601F0C2BB41
:103AF00008B5012300926A4601F0BCFB08BD3EB543
:103B0000069C8DE81C0003236A4601F0B3FB3EBD12
:103B10007FB5DDE908458DE83C0004236A4601F0E5
:103B2000A9FB7FBD2DE9F0470E4680461C46924614
:103B3000082940D894F80C900020207319461046AC
:103B400001F062F90025B54206D218F805201BA144
:103B50002046FFF721FA03E01AA12046FFF71CFADE
:103B60006D1C082DEFD318A12046FFF715FA00258C
:103B7000B54212D218F805707E2F08D8FCF75CFC0D
:103B80000068C05D10F03E0F01D03A4600E02E22E2
:103B90000EA12046FFF700FA03E00DA12046FFF733
:103BA000FBF96D1C082DE3D301222146504601F09C
:103BB0000DF984F80C90BDE8F08700002025303224
:103BC00078000000202020007C0000002563000019
:103BD00020000000064910B501200870054800F0DB
:103BE000E1F8002803D1044800F0C8F9002010BD16
:103BF000F008002010630000105B00000248034939
:103C0000401AC0087047000010630000B86200004E
:103C100013B56846FEF72AFB08B100201CBD024818
:103C2000009950F831001CBDB862000070B508481A
:103C30000125D0F81044057007E0E068457121685F
:103C4000204649688847E0680468002CF5D170BDBB
:103C5000F00800202DE9FF4781460C9D00200C460E
:103C60002F7B2873984616462946184601F0CCF853
:103C7000072E42D2DFE806F004090F161F2A36008D
:103C800049462846FFF788F937E049462846226822
:103C9000FFF782F931E0D4E9002349462846FFF7CF
:103CA0007BF92AE0A0680090D4E900234946284621
:103CB000FFF772F921E0D4E90201CDE90001D4E96E
:103CC000002349462846FFF767F916E004F108008B
:103CD00007C88DE80700D4E9002349462846FFF7C6
:103CE0005BF90AE004F108000FC88DE80F00D4E981
:103CF000002349462846FFF74FF90022294640464F
:103D000001F064F82F73BDE8FF872DE9F041058AC3
:103D100080462D1F4819C01CB0FBF5F0C6B24046C6
:103D2000FFF753F8041E19D00020207101206071A4
:103D3000E58000272546761EC4F800800BE040464B
:103D4000FFF743F860B16179491C6171286005464D
:103D50007F1CC0F80080B742F1D32046BDE8F08157
:103D6000204600F002F80020F8E72DE9F0414579FF
:103D700001466B1E002201E00968521C9A42FBD3E7
:103D80000F680146002605E038460C68FFF73CF84E
:103D90002146761CAE42F7D3BDE8F0810121001D1B
:103DA000FEF7E7BFFFF745B810B504460121001D37
:103DB000FFF705F810F0FF0F04D12046BDE81040D2
:103DC000FFF7D3BF10BD1CB501920122009201AADA
:103DD000FEF70CFA1CBD1CB501920022009201AA4C
:103DE000FEF704FA1CBD000002494058002800D02C
:103DF0000120704700500040024A00218150BFF36B
:103E00004F8F7047005000400449D1F8041301421D
:103E100001D0012070470020704700000050004092
:103E2000C02903D0E9B1802902D00DE040210BE088
:103E300010F8012B10F8013B120442EA032210F89B
:103E4000013B1A430F4B1A6010F8012B10F8013B8D
:103E5000120442EA032210F8013B1A43094B1B1FCC
:103E60001A600268C07812BA22F0FF0202430548C5
:103E70000838026003480830026822F0C0020A4392
:103E8000026070479855004070B5054600681B4CAD
:103E9000002860790AD020B1BDE87040184800F0D1
:103EA00003BBBDE87040292000F078BA68B114481F
:103EB00000F0FAFAA668002E1ED06B68E068B446DF
:103EC000BDE870400F4A022160470E480178012684
:103ED000E02907D14178C943090703D000F004F96C
:103EE0006671E7E70078502803D0292000F056FAE1
:103EF000E0E726702820F9E770BD0000840100206B
:103F0000B45B0000B80E0020094902220A60BFF32A
:103F10006F8FBFF34F8F0A1D106006480268002A9A
:103F2000FCD000200860BFF36F8FBFF34F8F704746
:103F300004E5014000E4014070B50E4C012323600C
:103F4000BFF36F8FBFF34F8F00230B4D08E000BF0F
:103F500051F8236040F823602E68002EFCD05B1CD3
:103F60009342F5D300202060BFF36F8FBFF34F8FD4
:103F700070BD000004E5014000E4014082680021BA
:103F8000916082681161826851618268D160826843
:103F9000516080680160704708B500224250405867
:103FA000009008BD4058002800D00120704708B597
:103FB000002242504058009008BDD0F80403084049
:103FC00000D0012070474058002800D001207047E1
:103FD00008B5002242504058009008BD02480068D1
:103FE000002800D001207047000401400848006804
:103FF000012110F0010F06D14FF0E020C02280F81F
:1040000000248430C1670349012008607047000024
:1040100000E100E01805004010B54FF48070FEF795
:1040200027FF01208107C1F80403086010BD0000CC
:10403000012010B58107C1F808030002FEF718FF40
:1040400007490120086007494FF001100A6802F093
:1040500001128242FAD004490020487110BD0000CC
:10406000040000400C0400402400002006490246E1
:1040700000200B790BB1852070470A6001220A717C
:1040800000224A7170470000240000200121B1EB9A
:10409000507F01D10120704700207047104810B5B3
:1040A00003780021021D33B101701172BDE8104088
:1040B000032000F0B1B8517A002910D0917A00297C
:1040C0000DD0084A0121116001700548001D00F063
:1040D00060FA0348BDE81040001D00F089BA10BD29
:1040E0002C000020005000400248016841F001010E
:1040F000016070479C5500400248016821F00101B1
:10410000016070479C550040074901200860074A3C
:1041100001460832054811600549C0F8041304211E
:10412000C0F80413704700000454004000500040E1
:104130008200080070B50546FEF788FC2868002656
:104140002F4C402821D00FDC042843D0082821D050
:10415000102819D1A07890B3FFF7CEFF282000F0E7
:104160001DF9A67066712EE0802840D0B0F5002FB2
:104170000AD1244800F098F9A56825B100231A4611
:104180001946E068A847667170BD281DBDE87040FB
:10419000FFF77ABE60790028F6D0AA68107800F0A0
:1041A000F700C22801D10120A070A668002EEBD034
:1041B0006B68E068B446BDE8704004216047FFE7E3
:1041C000104800F071F9A568002DDDD000231A46D3
:1041D000032107E0FFF790FFA568002DD4D000234E
:1041E0001A460121E068AC46BDE870406047287976
:1041F0000028C9D120780028C6D0267070BD0000E4
:1042000084010020B45B000002480068800700D0F1
:10421000012070473C54004031B5214984B0087AF0
:10422000002826D19DF81000032807D1FFF7ECFFE6
:1042300008B1022000E001208DF810009DF8102048
:1042400000200125174C012A15D0022A11D1627ACB
:10425000002A0ED1487288720D72114800F099F947
:104260000F4800F0C5F965720220009014E068461E
:10427000884705B030BD617A0029FAD00A4A0A4958
:10428000083215604FF48F62C1F808236072042071
:104290000090012000F01CF861680029E7D1E8E7F0
:1042A00030000020FC0500200050004010B5B0F5A3
:1042B000A07F09D1054901208872084600F08AF9DB
:1042C000BDE81040FFF7EABE10BD0000300000203E
:1042D000044908B1881403E00348C068C0F3130020
:1042E0000860704708550040FC050020FEB5254CCD
:1042F000217A09B10820FEBDD0E90010216060607C
:1043000021490320086020489430016821F01F01F2
:1043100041F0040101600520FCF732FC1B49C0207C
:1043200081F8000401252020491FC1F80001184927
:10433000184AD1E90001CDE9010101A9164800F0B0
:104340007BF90028D7D114480068D0F81005002167
:10435000C2B24FF47A50FCF75FF802460123002105
:104360000D48009500F052F90721684600F034F836
:104370000646C0216846FFF753FD25722803E0601A
:104380003046FEBDFC0500200C55004005E000E075
:10439000E0590000AD4200003000002010B50121BE
:1043A0000B4C292801D0204409E00A48006810F08D
:1043B000010F02D00648283001E005482430016092
:1043C0000120FFF785FF4FF48F60C4F8080310BD8C
:1043D000005000402054004030B5042905D0072982
:1043E00003D00A2901D0092030BD124A1468121DD9
:1043F0001268104B08331B680470250A240C4570A2
:104400008470D4B2C470042912D0150A0571150C39
:10441000120E457182710A2902D0882C06D007E05D
:10442000C371190A0172190C417201E09921C1701E
:10443000002030BD5004001010B5017821B10129D1
:104440000DD0022923D117E040681449B0F5801F30
:1044500008D8884200D908461149C86017E0007999
:10446000032801D9072010BD0E490A6822F0600216
:1044700042EA401008600AE0017A042909D00729BD
:1044800001D00A2907D040214068FFF7C9FC00206D
:1044900010BD0021F8E78021F6E70000FFFF0F00C4
:1044A000FC050020A4550040094A416800881160BD
:1044B000111DC0F30800086006480749008800F491
:1044C0008C60C1F80403044901201C310860704766
:1044D00010550040FC05002000500040012110B1A3
:1044E000034A8150704703484172FFF7D7BD00006F
:1044F000005000403000002010B50268FAB1114CA5
:1045000043682360231DC2F308021A6000884FF637
:10451000FF7202EAC0000B4AC0F30B000C321060BD
:10452000201F016008480949007800F01800C1F810
:104530000403064901200C310860002010BD092049
:1045400010BD000010550040FC0500200050004048
:1045500070B50D4600F0A4FC04000FD00020FCF75D
:104560005FFC207920B10020FCF75CFC112070BDBD
:104570000120256020710020FCF754FC002070BD54
:1045800010B500F08DFC002802D0002101600171FF
:1045900010BD00680121C16070472DE9F041064659
:1045A0000D464FF4803400681746AC404BB14FF4D1
:1045B000A07101EB8501FFF7EFFC3068C0F8044300
:1045C00001E0C0F80843306800EB8500C0F8407592
:1045D000BDE8F0810268012111610079034A00EB16
:1045E000400002EB80000172704700000C060020C2
:1045F000016801220A600079034A00EB400002EBE7
:1046000080000221017270470C060020F0B404689B
:10461000049E40F20115D4F800728D40AF43C4F8F7
:1046200000720468D4F800521D43C4F800523346A7
:10463000F0BCFFF7B2BF00002DE9F04104460E4682
:1046400000792C4900EB400001EB8007387A10B16B
:104650000820BDE8F0813A60706800254FF4A0782A
:10466000786006E008EB85012068FFF795FC6D1C7B
:10467000EDB26079A842F5D82068F17840F30730B0
:1046800000284FEA411104DB00F1E02080F800141B
:1046900005E000F00F0000F1E02080F8141D206814
:1046A000012140F30730002809DB00F01F0201FA66
:1046B00002F24009800000F1E020C0F800212068EB
:1046C0007278D0F8043562F30103C0F8043520682D
:1046D000B278D0F8083562F30103C0F808352068D5
:1046E0003278D0F8103562F30303C0F81035397210
:1046F0000020AEE70C0600200149024800F074BE1D
:1047000018060020002000402DE9F0410546007900
:1047100016460F4600EB40012D4A01EBC00102EBAB
:10472000810494F82A1011B10820BDE8F0812949CC
:1047300051F820102868FFF70BFF08B11120F4E7AB
:1047400039462846FCF782FB6660386920603000F5
:104750004FF001062FD03F7F4FF48E712868FFF78E
:1047600026FC4FF4A2712868FFF721FC28681A493B
:10477000C0F8041328684FEA471140F307300028B7
:1047800004DB00F1E02080F8001405E000F00F00E9
:1047900000F1E02080F8141D286840F3073000285D
:1047A00009DB00F01F0106FA01F14009800000F169
:1047B000E020C0F8001128680421C0F8001500208E
:1047C000A061E06184F8290044F8140FA675ACE7F5
:1047D00018060020285A0000800002002DE9F05F32
:1047E000054600790B4600EB400101EBC00024496F
:1047F00001EB8004284600F045F810B11120BDE817
:10480000F09F62614FF00009C4F82090A36084F823
:1048100028904FF48E784E4641462868FFF7C7FB34
:1048200028684FF0010AC0F808A02146286800F067
:104830006BFD606808BBD5F800B067690FE000BF8A
:1048400094F8280008B10F2615E041465846FFF7B6
:10485000A9FB0028F4D02146584600F055FD206AF7
:10486000B842F2D3574641462868FFF79BFB002821
:10487000F9D02868C760C4F814903046BFE700003C
:1048800018060020007900EB400101EBC00004494C
:1048900001EB80004069002800D001207047000033
:1048A000180600202DE9F047044600794FF0000972
:1048B00000EB400101EBC000284901EB80072068B4
:1048C000C0F800957868B0B120682549C0F8081391
:1048D000206840F3073000280DDB00F01F020121A3
:1048E00091404009800000F1E020C0F88011BFF342
:1048F0004F8FBFF36F8F2068D0F80C25D0F8148548
:10490000D0F80865D0F810554FF0FF31C0F81415F5
:10491000C0F80C152068C0F80815C0F81015501C18
:1049200002D01046FEF75DFEB8F1FF3F02D04046D0
:10493000FEF757FE681C02D02846FEF752FE701C98
:1049400002D03046FEF74DFE2068FFF719FE87F8CB
:104950002A90C7F80490BDE8F087000018060020F0
:10496000840202000149024800F0ECBD4406002028
:10497000002000402DE9F0410546164600790F461B
:10498000154A00EBC00102EB810494F8201011B12C
:104990000820BDE8F081114951F820102868FFF780
:1049A000D7FD08B11120F4E739462846FCF789FA0B
:1049B0006660386920601EB1397F2846FCF7DAFF4F
:1049C00028680821C0F800150020A061E06160613E
:1049D000012184F82010DCE7440600202C5A000056
:1049E0002DE9F04704460E460079274900EBC00048
:1049F00001EB800517463046FFF748FB30B12046F3
:104A000000F044F820B11120BDE8F0871020FBE74A
:104A10006F61AE604FF490774FF000083946206820
:104A2000FFF7D6FA4FF4AC7631462068FFF7D0FA9C
:104A30002068AA686969C0F84425C0F8481520684C
:104A40004FF00109C0F808906868D0B9BA465146DD
:104A50002068FFF7B8FA074631462068FFF7B3FA37
:104A60000743F4D010B14FF00F0808E02068C0F8F9
:104A70000C9031462068FFF7A6FA0028F9D00020F4
:104A800068614046C0E700004406002000790549FF
:104A900000EBC00001EB80004069002800D001203D
:104AA00070470000440600202DE9F04706460079D3
:104AB0003D4900EBC00001EB8005346868680127C0
:104AC000A8B13A49C4F80813306840F30730002809
:104AD0000DDB00F01F0107FA01F14009800000F131
:104AE000E020C0F88011BFF34F8FBFF36F8FD4F871
:104AF000000220F02000C4F80002A8694FF4A27858
:104B000020B141462046FFF763FA67604FF4AC7965
:104B100049462046FFF75CFAE7604746494620468B
:104B2000FFF751FA0028F9D0A86928B13946204684
:104B3000FFF749FA0028F1D04FF0000AC4F800A5A9
:104B40003068D0F80C25D0F81495D0F80885D0F846
:104B500010754FF0FF31C0F80C15C0F8141530680F
:104B6000C0F80815C0F81015501C02D01046FEF70A
:104B700041FDB9F1FF3F02D04846FEF73BFD781CEE
:104B800002D03846FEF736FDB8F1FF3F02D040466E
:104B9000FEF730FD2046FFF7F3FC85F820A0C5F8AE
:104BA00004A0BDE8F0870000440600201003420086
:104BB00048B1064A0168914205D14068044940184D
:104BC00002D0012800D0032070470000DEC0ADDE17
:104BD00002FEE10E8A7D022A04D90289CB881A449A
:104BE000D21C02814289C988511AC91E418170476D
:104BF0002DE9F0410D460221904600F580562980AE
:104C000000F10804144F1BE031462046FCF7D4FDA8
:104C100040B1B8F1000F02D0012288F8002002282C
:104C200016D004E0A0687969884200D978612888A4
:104C300061880844C01C2880608804EB80040C3420
:104C400031462046FCF7CEFD0028DDD1BDE8F081DD
:104C50004FF480602880F9E75800002008B5002153
:104C6000009101460823024A0248FEF781FB08BD75
:104C7000405A00009401002008B50020009004482C
:104C80000823044A01680448FEF772FB08BD0000CF
:104C900080000020385A0000940100202DE9F05FC8
:104CA0000026DFF81891DFF818B134464FF00308FA
:104CB000B2463746D9F80C0000EB07352846FFF717
:104CC00077FF98B301284BD0032869D12868411C8D
:104CD00002D03C49884205D10120820255F82010BB
:104CE000491C0ED004EB84010BEB8102A8F10100FA
:104CF000556003221FFA80F80BF82120641CA4B22F
:104D00004EE0401C9042E9D32F48016879B104EB92
:104D1000840002210BF820100BEB8000456001811C
:104D2000274828304480641CA4B205E007E0022133
:104D3000056081804FF0010A46F0010630E004EB87
:104D4000840100220BF821200BEB810101F11002FC
:104D50004D6028460831FFF74BFF46F00206CDE7CD
:104D6000BAF1000F0FD004EB84000221164A0BF8B1
:104D700020100BEB8000126842600181104828303F
:104D80004480641CA4B210480022011D056028461E
:104D9000FFF72EFF0C48808802280CD0082006431D
:104DA0007F1CBFB2032F85D3B8F1020F00D20026BB
:104DB000F0B2BDE8F09F0420F1E70000940100206C
:104DC00020070020DEC0ADDE8000002010B50C46BC
:104DD000017A052908D0407A38B1084808A102684C
:104DE0002046FEF7D9F800E01AB106A12046FEF7EA
:104DF000D3F82046BDE81040FEF7DBB844010020A0
:104E0000257300000D0A000038B5C3880D4604461E
:104E100033B114A0009015A216A12846FEF7BCF8E5
:104E2000217A05291CD0607A48B1A088FEF71CFDC4
:104E3000164951F8202016A12846FEF7ADF8A088A3
:104E40000021FEF7E5FE03461049207A143951F897
:104E5000202001B02846BDE830400EA1FEF79CB8E6
:104E600038BD00001B5B306D000000001B5B313B58
:104E700033316D0025734C6F67732064726F7070EF
:104E80006564202825642925730D0A00440100204B
:104E9000257300003C25733E2025733A2000000056
:104EA0000349884201D10348704700207047000041
:104EB000002000403C0000200146054810B5006875
:104EC000FDF71FFF04461C21FBF7D3FA204610BD57
:104ED000305A0000014602480068FDF733BF000069
:104EE000305A0000F0B5264D264E85B00446002706
:104EF000686828B9224930680831FDF718FF6860F2
:104F000001460078072817D2DFE800F016040808E9
:104F10000E0E12002046FCF775FC02E0204600F061
:104F20009BFC040029D009E02046FCF7EFF8F8E7E5
:104F30002046FCF73FFBF4E748F20E641421684674
:104F4000FBF797FAA4F5E8501D3800D1002401942E
:104F500069466868FCF74EF96846FCF785F9084928
:104F60006F60002408313068FDF7D6FE0448012147
:104F70000C30FDF724FF0028BAD105B0F0BD0000C9
:104F800058000020305A000010B501210448FDF7F8
:104F9000FCFE002803D1BDE81040FFF7A3BF10BD01
:104FA0006400002010B510461A46FBF749FA0020AD
:104FB00010BD00002DE9F047074620481C46154665
:104FC00000780E4670B18DB184B1DFF874804FF077
:104FD0000009A08802282DD200EB800118F82100DA
:104FE00020BB1BE048F20160BDE8F08748F2046096
:104FF000FAE720681FB181883A8891420ED11EB12C
:1050000001883288914209D18068286020686860F0
:105010000B482830008928810020E5E7A088214638
:1050200000F060F80028E4D1C4F80090A088401C8B
:10503000A080CEE748F20960D6E7000078000020A3
:1050400020070020F8B505464068244F0C4600268E
:1050500048B32349CA68824225D80969814222D3CC
:10506000FCF7EEFCF8B12889398988421BD1D5E9D3
:1050700000018A68904216D10020A7F1280200BFE3
:1050800000EB800302EB83035B688B4205D203F5E0
:1050900080538B4201D9208011E0401C80B202284D
:1050A000EED30020F8BD268000960AE0009829681B
:1050B0008068884205D1009868603889288101207D
:1050C000F8BD2088694600F00DF80028EED1208850
:1050D000401C80B220800228E6D3E2E74807002087
:1050E0009401002070B50E4600EB8001134800EBE0
:1050F00081004468306804F5805518B1418800EBA0
:10510000810411E0083410E029462046FCF754FBE6
:1051100020B1012805D0022807D10DE0012034601C
:1051200070BD608804EB80040C3429462046FCF7EF
:1051300059FB0028E8D170BD002070BD2007002079
:1051400038B50C460021009101460423084A09485D
:10515000FEF70EF910B148F20D6038BD064A04EBB7
:10516000840102EB810101200874002038BD000099
:10517000345A0000940100202007002008467047A0
:1051800070B5054688690C4600284FF4847128469E
:105190000AD0FEF70CFFD5F81805626AE16888545A
:1051A000606A401C606270BDFEF701FFD5F818050B
:1051B00070BD1FB501238DF80030CDE90121D0E984
:1051C0000012684690471FBD1FB501238DF80030BF
:1051D000CDE90121D0E90012684690471FBD0000CB
:1051E0000A4810B501780A48891CFDF747F908B14B
:1051F000FBF786FD07480849BDE81040401AC00883
:10520000032101EB004005A1FEF76EBC0000002069
:10521000D001002008630000B86200004E444546FB
:10522000206D657373616765207570646174656472
:105230002100000070B50D4C0020D2B22070201D5E
:105240000B4D0378EB5C1BB1001DFFF7C9FB02E0BF
:105250000C30FFF7C3FA08B1FBF752FD6078002865
:1052600002D021780029FAD070BD0000F40000209F
:10527000100000202DE9F84F074621489146884646
:1052800005681E46012269461846FBF7ADFEDFF8A9
:1052900074A060B3009800210446801C0AE000BF9F
:1052A00000EA050259F821C00AEB8202401C491CA1
:1052B000C2F80CC0B142F3D34FEA1749FBF76CFFB9
:1052C000611C29400AEB810149EA00422C40CA6076
:1052D0000AEB8401C86867F3C50066F3891068F3B8
:1052E0009F2020F00300401C20F00400C8609AF8C2
:1052F000000001E0FEF7DEFA0028FBD1BDE8F88FE0
:1053000014010020F008002070B50C4605464FF44B
:105310008E71FEF74CFE216AA068415C206A401C39
:105320002062C5F81C1570BD1FB500228DF8002045
:105330000291816801914261D0E90012684690476C
:105340001FBD1FB500228DF80020029181680191D8
:105350004261D0E90012684690471FBD1FB50A465A
:1053600001788DF8001041680191017A8DF80810DC
:10537000C0680390044850F82210083850F82220E2
:10538000684690471FBD00001C0000200149012015
:1053900008707047F400002010B588B00446202241
:1053A0000E496846FBF74CF806200090C01F01909C
:1053B000029003904FF0EB7006900CB1084A00E0A9
:1053C000002269460748FDF7B3FD08B1FBF798FCDA
:1053D0000448001F447008B010BD0000F05A0000DF
:1053E0008D530000F80000202DE9FF470C460546CC
:1053F0004FF40071FEF7E1FD01274FF4017800261C
:1054000018B34FF4927949462846FEF7CBFDE0B138
:1054100049462846FEF7CBFDC5F8088394F82900D5
:1054200000B96F6002208DF80000D5F88004C5F83F
:1054300080040390A0690290E0680190A661E66193
:10544000D4E900126846904728E004212846FEF778
:10545000B4FD18B34FF484712846FEF7A3FDE8B1FC
:1054600021462846FFF78CFE616AA069884215D163
:10547000E06938B1E268616AA0612069E66166624C
:10548000E06008E094F8290000B96F60C5F808836F
:10549000A661E268616A2046FFF78BFE4FF48E78C2
:1054A00041462846FEF77EFD80B16069216A81424F
:1054B00002D294F8280028B341462846FEF777FD2B
:1054C000606918B161692046FFF72EFF4FF4A2789A
:1054D00041462846FEF766FD002818D0414628467A
:1054E000FEF765FD94F8290000B12F60A06900283F
:1054F0000DD0A661E268616A04B02046BDE8F047BD
:10550000FFF757BE21462846FFF7FEFEDEE7BDE85F
:10551000FF8700001FB50A4601788DF8001041682A
:105520000191017A8DF80810C0680390044850F882
:105530002210083850F82220684690471FBD00000E
:105540001C0000202DE9FF410C464FF492770546E0
:105550003946FEF738FD0026B8B139462846FEF731
:1055600037FD02208DF80000D5F88004C5F88004CE
:105570000390D5F83C050290E0680190A661E661D1
:10558000D4E900126846904723E04FF48877394603
:105590002846FEF718FDE0B139462846FEF718FD0B
:1055A000D5F83C15A069884213D1E06960B1E26882
:1055B000D5F8000220F02000C5F80002E069A061E3
:1055C0002069E661E06001E0A661E2682046FFF73D
:1055D000FBFD4FF4A27739462846FEF7F4FC68B18C
:1055E00039462846FEF7F4FCA06938B1A661E661A9
:1055F000D5F83C152046E268FFF7E6FD4FF49076BB
:1056000031462846FEF7DFFC60B131462846FEF7FA
:10561000DFFC0120E860606920B1D5F84C15204618
:10562000FFF78FFE4FF4AC7631462846FEF7CBFCF1
:1056300000280ED031462846FEF7CAFC60690028D3
:1056400007D0D5F84C1504B02046BDE8F041FFF76F
:1056500078BEBDE8FF81000010B50248FDF77DFB74
:10566000002010BDF00000202DE9F05F8346DDE949
:105670000A4A994690460D460846012703E000BFB6
:10568000B0FBF8F07F1C4045FAD2B94500D94F462F
:105690005FEACA7012D18CB15FEA8A7002D5B9F1A3
:1056A000000F01D0202607E0302605E0314658469D
:1056B000641EFBF7DFFC0CB1A742F7D35FF00106D5
:1056C000B9F1010F02D9A9F1010903E0B5FBF6F028
:1056D000404502D306FB08F6F2E7DFF83C9000BF36
:1056E000B5FBF6F000FB165519F800105846FBF70D
:1056F000C1FCB6FBF8F6002EF2D15FEACA7009D001
:10570000002C07D0A74205D220215846641EFBF783
:10571000B1FCF5E7BDE8F09F485A00000020704753
:105720002DE9FC4180461C4617460E460C48089D54
:10573000FDF71CFB10B11120BDE8FC81A208394621
:105740003046FEF7F9FB0648FDF707FB33463A46BD
:1057500001214046CDE90045FBF796FD0020EBE72F
:10576000F00000202DE9FC470646394898461446CB
:1057700000780D464FF0000978B37DB32888A0F576
:105780007F41FF3933D0688848B36868FCF758F91F
:1057900080B384B32088ADF80000678801A8FFF7C4
:1057A0008BFB040034D084F800804FF0000A84F8AA
:1057B00016A0BDF80000A08268682061244801217D
:1057C0000C38FDF7D6FAE060288820816888A08030
:1057D000E780B8F1030F23D026E001E004E006E003
:1057E00048F20160BDE8FC8748F20460FAE748F23D
:1057F0000360F7E700E002E048F20260F2E7288980
:10580000694687B2384600F0AFF80028EAD1C5E70C
:10581000BDF80010384600F09BF848F20760E1E759
:105820000420A0753068A061A4F80A9001A8FFF7D1
:1058300051FB46B1C6F804A0E1680648316086F81D
:105840000AA000893081FFF79FFB0020CAE7000013
:1058500078000020480700202DE9F8430D46898A8A
:10586000384A01EB810102EB810638B12946304606
:10587000FFF7B0F94FF40640BDE8F883318970684E
:10588000002400EB81072F48A97DA83848F20D6855
:1058900007294FD2DFE801F00D2E172504414B00F8
:1058A0004460A969016027482749A838FFF7CAFB67
:1058B00030B10220A875042339462A1D009424E043
:1058C00048F20960D8E728692A4608B1032000E0B9
:1058D00001209075042305F10C0207F108010094E2
:1058E00013E00120A8750094E88807F10C018300FB
:1058F0002A690AE028782A4603280CD006209075E9
:10590000042305F10802391D00941048FDF730FD0D
:10591000B0B1444610E00520F1E70621A9750A4917
:1059200040680988FFF70CFC040005D108E041F647
:105930001D5401E048F20E6429463046FFF74AF94B
:10594000204699E7200700205800002094010020FD
:1059500001EB8102034901EB82014A89101AC01E42
:10596000488170472007002070B5C01C82B240F209
:10597000FE30824202D948F2086070BD114B00200F
:105980004FF4806500EB800413F8246096B903EBB4
:1059900084063489768914443444A4B2AC4209D8CC
:1059A000088000EB800003EB8000418911444181B5
:1059B000002070BD401C80B20228E3D348F206608C
:1059C00070BD0000200700206E6F7264696373650C
:1059D0006D692E636F6D0D0E0F100B0C1819000002
:1059E000040000060000000040000000000000006D
:1059F0000000000000000000100000000000000097
:105A0000000000000000000000000800000000008E
:105A10000000000000000000800000000000000006
:105A20000000000000000000F94600006549000089
:105A3000680600200000FFFFDEC0ADDEFF011EF1A2
:105A4000DEC0ADDEFE011EF1303132333435363783
:105A500038394142434445466E72665F6673746FDF
:105A6000726167655F696E6974006E72665F667306
:105A7000746F726167655F756E696E6974006E72CE
:105A8000665F6673746F726167655F7265616400FB
:105A90006E72665F6673746F726167655F77726955
:105AA0007465006E72665F6673746F726167655FBE
:105AB00065726173650000000010000004000000C2
:105AC00001000000F917000059560000A54F000022
:105AD00021570000AD1100007D5100001D5700004E
:105AE000311A000051380000253800001D38000030
:105AF000FFFFFFFFFFFFFFFFFFFFFFFFFFFFFFFFB6
:105B000000000000000000000000D60106010000B7
:105B1000580800207F000000D80800200000000086
:105B20000100000000000000010000000000000073
:105B300001000000405B0000B12C000000000000EC
:105B4000550090006A826B0000A4000C02E1030083
:105B5000A4000C02E10400A4040007D27600008532
:105B6000010100000F2000F800F80406E104000025
:105B700000000000100000001800000020000000DD
:105B8000280000003000000040000000600000001D
:105B90008000000000010000000000000000000084
:105BA00000000000000000000000000000000000F5
:105BB0000000000000010000B80E002058040000A2
:105BC000354100000040404040404040404041419D
:105BD00041414140404040404040404040404040C2
:105BE000404040404005020202020202020202025C
:105BF0000202020202202020202020202020200259
:105C000002020202020290909090909010101010E8
:105C10001010101010101010101010101010101084
:105C20000202020202028888888888880808080818
:105C300008080808080808080808080808080808E4
:105C40000202020240000000C55B00004461746172
:105C500020627573206572726F7220287265747588
:105C6000726E206164647265737320696E2074685B
:105C70006520737461636B206672616D6520697362
:105C8000206E6F742072656C6174656420746F207F
:105C900074686520696E737472756374696F6E20C1
:105CA000746861742063617573656420746865202D
:105CB0006572726F722900004461746120627573AD
:105CC000206572726F72202850432076616C756572
:105CD00020737461636B656420666F7220746865FD
:105CE00020657863657074696F6E20726574757273
:105CF0006E20706F696E747320746F2074686520F5
:105D0000696E737472756374696F6E207468617400
:105D10002063617573656420746865206661756CC5
:105D20007429000043617573653A204275734661BA
:105D3000756C74206F6E206120766563746F7220BD
:105D40007461626C65207265616420647572696E4D
:105D50006720657863657074696F6E2070726F6319
:105D6000657373696E672E005468652070726F6387
:105D70006573736F722068617320657865637574ED
:105D8000656420616E2053444956206F722055444B
:105D9000495620696E737472756374696F6E2077EB
:105DA00069746820612064697669736F72206F6618
:105DB000203000005468652070726F636573736FE4
:105DC000722068617320617474656D7074656420FD
:105DD000746F206578656375746520616E20696EE7
:105DE000737472756374696F6E2074686174206D6A
:105DF000616B657320696C6C6567616C2075736598
:105E0000206F6620746865204550535200000000E2
:105E10005468652070726F636573736F7220686178
:105E20007320617474656D7074656420616E20699F
:105E30006C6C6567616C206C6F6164206F662045D7
:105E400058435F52455455524E20746F2074686514
:105E50002050432C206173206120726573756C742F
:105E6000206F6620616E20696E76616C69642063C4
:105E70006F6E746578742C206F7220616E20696E6D
:105E800076616C6964204558435F52455455524EC3
:105E90002076616C756500005468652070726F63D0
:105EA0006573736F7220617474656D7074656420BE
:105EB00061206C6F6164206F722073746F72652053
:105EC00061742061206C6F636174696F6E20746807
:105ED000617420646F6573206E6F74207065726DDD
:105EE000697420746865206F7065726174696F6E83
:105EF0000000000041204D656D4D616E61676520B9
:105F00006661756C74206F6363757272656420647A
:105F10007572696E6720666C6F6174696E672D704B
:105F20006F696E74206C617A792073746174652076
:105F3000707265736572766174696F6E000000003F
:105F40004120627573206661756C74206F636375A0
:105F50007272656420647572696E6720666C6F6129
:105F600074696E672D706F696E74206C617A792028
:105F7000737461746520707265736572766174699B
:105F80006F6E00005468652070726F636573736F85
:105F9000722068617320617474656D70746564202B
:105FA000746F206578656375746520616E20756E09
:105FB000646566696E656420696E73747275637476
:105FC000696F6E00496E737472756374696F6E20C9
:105FD000627573206572726F7200000054686520EC
:105FE00070726F636573736F722068617320617480
:105FF00074656D7074656420746F2061636365738C
:1060000073206120636F70726F636573736F7200CA
:10601000556E737461636B20666F7220616E2065CC
:106020007863657074696F6E2072657475726E2026
:1060300068617320636175736564206F6E65206F9E
:1060400072206D6F7265206163636573732076697A
:106050006F6C6174696F6E7300000000537461634C
:106060006B696E6720666F7220616E20657863656C
:106070007074696F6E20656E747279206861732028
:10608000636175736564206F6E65206F72206D6F3C
:106090007265206163636573732076696F6C6174E8
:1060A000696F6E73000000005468652070726F6342
:1060B0006573736F7220686173206D616465206120
:1060C0006E20756E616C69676E6564206D656D6FBD
:1060D000727920616363657373000000556E737499
:1060E00061636B20666F7220616E206578636570F6
:1060F00074696F6E2072657475726E2068617320AA
:10610000636175736564206F6E65206F72206D6FBB
:106110007265204275734661756C747300000000EF
:10612000537461636B696E6720666F7220616E20C5
:10613000657863657074696F6E20656E747279201E
:1061400068617320636175736564206F6E65206F8D
:1061500072206D6F7265204275734661756C747341
:1061600000000000616464725F69735F776974683E
:10617000696E5F626F756E647328705F66732C2042
:10618000706167655F616464722C20286C656E20A5
:106190002A20705F66732D3E705F666C6173685F66
:1061A000696E666F2D3E65726173655F756E6974A9
:1061B000292900007761726E696E670064656275F7
:1061C000670000001B5B313B33306D001B5B306DA3
:1061D000000000001B5B313B33316D001B5B313B2A
:1061E00033326D001B5B313B33336D001B5B313B46
:1061F00033346D001B5B313B33356D001B5B313B32
:1062000033366D001B5B313B33376D00696E666F53
:10621000000000006E6465665F66696C655F6D0016
:10622000636C6F636B000000434C4F434B000000F6
:106230004E464354000000005052530054494D450F
:106240005200000055415254000000005541525484
:1062500045000000686172646661756C740000003E
:106260006E72665F6673746F72616765000000002E
:10627000756172745F6C6F675F6261636B656E649A
:106280000000000061707000246300000000002026
:10629000A8010000D4040000B0630000A8010020A1
:1062A000202E0000AA0B0000E45A000000000000AD
:1062B000706200000C010020146200000000030363
:1062C00020620000000000002862000000000000C2
:1062D0003062000000000000386200000000000092
:1062E0003C6200000000000044620000000000006A
:1062F0004C62000000000000546200000000030334
:1063000060620000000003038462000000000303D9
:106310002001002018010020200100209807002003
:106320001800000001320653B00140000633845FBC
:1063300073985E331060335C60B3F45E33C45F33D4
:10634000B85C334C5C33DC60332061B3405F338432
:106350005F33B45D33105E0313DC5F33A86003105A
:10636000685D642000409420004042FF0220FF331B
:10637000D45F33B461330C6233BC6133CC6133C45A
:106380006133D46133DC6133E46133EC6133F46154
:1063900033FC61C304623790D0030203014A010158
:1063A000010101020201040415040001B3AD15004E
:0400000500000201F4
:00000001FF
