:020000040000FA
:1000000000270020F90200000103000003030000A4
:1000100005030000070300000903000000000000C2
:100020000000000000000000000000000B030000C2
:100030000D030000000000000F030000110300008A
:1000400013030000130300009D05000013030000CC
:100050001303000013030000130300001303000048
:100060001303000013030000130300001303000038
:1000700013030000A103000013030000130300009A
:100080001303000013030000130300001303000018
:100090001303000013030000130300001303000008
:1000A00013030000130300001303000013030000F8
:1000B0001303000013030000000000000000000014
:1000C00013030000130300001303000013030000D8
:1000D00013030000130300001303000013030000C8
:1000E00013030000130300001303000000000000CE
:1000F00000000000130300000000000013030000D4
:1001000000000000000000000000000000000000EF
:1001100000000000000000000000000000000000DF
:1001200000000000000000000000000000000000CF
:1001300000000000000000000000000000000000BF
:1001400000000000000000000000000000000000AF
:10015000000000000000000000000000000000009F
:10016000000000000000000000000000000000008F
:10017000000000000000000000000000000000007F
:10018000000000000000000000000000000000006F
:10019000000000000000000000000000000000005F
:1001A000000000000000000000000000000000004F
:1001B000000000000000000000000000000000003F
:1001C000000000000000000000000000000000002F
:1001D000000000000000000000000000000000001F
:1001E000000000000000000000000000000000000F
:1001F00000000000000000000000000000000000FF
:10020000DFF80CD000F0BAF800480047950A00006B
:100210000027002030B4044654E8000F0D4644E89F
:100220000053002BF8D1156030BC704730B4044641
:1002300054E8000F40EA010544E80053002BF7D1D1
:10024000156030BC704730B4044654E8000F00EA33
:10025000010544E80053002BF7D1156030BC70470E
:1002600030B4044654E8000F80EA010544E8005326
:10027000002BF7D1156030BC704730B4044654E809
:10028000000F00EB010544E80053002BF7D1156087
:1002900030BC704730B4044654E8000FA0EB0105B1
:1002A00044E80053002BF7D1156030BC704770B4A0
:1002B00004464FF0000054E8006F0D68AE4207BFDF
:1002C00044E80023012044E800630E60002B1CBFBB
:1002D0000020F0E770BC704730B4044654E8000FCB
:1002E00088422CBF451A054644E80053002BF5D13F
:1002F000156030BC7047000006488047064800473C
:10030000FEE7FEE7FEE7FEE7FEE7FEE7FEE7FEE7C5
:10031000FEE7FEE7C9030000010200000048704745
:100320001C27000040EA01039B0703D009E008C92D
:10033000121F08C0042AFAD203E011F8013B00F8AA
:10034000013B521EF9D27047D2B201E000F8012BF6
:10035000491EFBD270470022F6E710B513460A4645
:1003600004461946FFF7F0FF204610BD421C10F866
:10037000011B0029FBD1801A70470000064C074D75
:1003800006E0E06840F0010394E807009847103465
:10039000AC42F6D3FFF738FFBC270000DC27000093
:1003A000064882B00021016000680090044800689F
:1003B0000449C0B2496802B00847000000D10040BB
:1003C00008D500402000002070B54FF08052012475
:1003D000D2E94C100023082906D1CD06C5F80C310E
:1003E000C5F810315E4D2B60082955D15D4D2D6843
:1003F0005D4E35605B4D2D1D2D68361D3560594DA8
:1004000008352D68361D3560564D0C352D68361D66
:100410003560544D10352D68361D3560514D1435FD
:100420002D68361D35604F4D18352D684E4E2036DF
:1004300035604C4D1C352D68361D3560494D2035D5
:100440002D68361D3560474D24352D68361D3560C5
:10045000444D28352D68361D3560424D2C352D68AC
:10046000361D35603F4D30352D683F4E4036356086
:100470003C4D34352D68361D35603A4D38352D6884
:10048000361D3560374D3C352D68361D3560354D90
:1004900040352D68361D3560082904D1050002D18C
:1004A000334E324D3560082904D1050002D1314E5A
:1004B000FB253560082908D1050006D192F858625D
:1004C0002D4A156866F303051560082904D102005A
:1004D00002D12A4D8A012A60082906D128480168DC
:1004E000C90702D06FF0010101602648016841F49C
:1004F00070010160BFF34F8FBFF36F8F4FF010217A
:10050000D1F80002002803DBD1F80402002822DA27
:100510001D4A14601D480468002CFCD01224C1F848
:1005200000420568002DFCD0C1F804420168002992
:10053000FCD0136001680029FCD0BFF34F8F114835
:100540007C380168124A01F4E06111430160BFF395
:100550004F8F00BFFDE710490E48086070BD0000D6
:10056000380500400404001020C500404881030005
:100570008C56004018F50040E40E004040960240C2
:100580000004004088ED00E004E5014000E4014083
:100590000400FA050090D003A00000200148006884
:1005A000004700001800002002E008C8121F08C120
:1005B000002AFAD170477047002001E001C1121FE4
:1005C000002AFBD17047000072B601F069F800BF45
:1005D00000F070FE0028FBD111481249401AC408EF
:1005E000012000EB044010A100F0D2FF1148006888
:1005F000C00700D000BE022000EB04400EA100F0B6
:10060000C7FFBFF34F8F0B48E43801680E4A01F46F
:10061000E06111430160BFF34F8F00BFFDE70000B1
:1006200014280000EC270000466174616C2065729C
:10063000726F7200F0ED00E053797374656D207293
:1006400065736574000000000400FA050EB5002112
:100650000091CDE901106A4644F20100FFF7B4FFB2
:100660000EBD00F003B800F009B8000072B60248F1
:100670000168491C01607047280000200349086890
:10068000401E086000D162B67047000028000020BC
:1006900070B5054608680C46411C04D000F018FDF2
:1006A000206800F0E5FC6068411C02D0002100F0E9
:1006B000CDFC2968A069C1F82405607D227D2968E8
:1006C0001043C1F86C05D4E900122868C0F814255D
:1006D000C0F80C15207D012814D1A068411C02D05F
:1006E000002100F0B3FCE068411C04D000F0F0FCF5
:1006F000E06800F0BDFCD4E902122868C0F80825C3
:10070000C0F8101570BD70B5054608680C46411C50
:1007100004D000F0E7FC206800F0B4FC6068411CE5
:1007200002D0002100F09BFC2968A069C1F82405D3
:10073000607D217D2A680843C2F86C05D4E9001267
:100740002868C0F80C15C0F81425207D012814D1A4
:10075000A068411C02D0002100F081FCE068411C2F
:1007600004D000F0BFFCE06800F08CFCD4E9021279
:100770002868C0F80825C0F8101570BD2DE9F047AD
:100780000546861C91460F464FF0010A0020FFF7F0
:1007900068FF1B4C04F21C4860683860D4E9010112
:1007A000184F401A3968081A0EE00121404600F03F
:1007B00031FA00F01DF90146404600F02BFAD4E969
:1007C0000101401A3968081A401C8642EDD8B9F177
:1007D000000F03D0052065F3891002E0062065F3C1
:1007E0009F5061683A68114004EB8101C8606068FD
:1007F000304460600020FFF736FF5046BDE8F087C8
:10080000DC0200204C00002070B50D4604460A2989
:1008100002D10D21FFF7F8FFA0682268411CA160FA
:100820001554D4E90101814204D32046BDE870404B
:1008300000F0CFBA70BD0000044881684068814272
:1008400001D101207047002070470000DC02002029
:1008500002681368526831B19A4202D38068801AE4
:1008600007E0981A70479A4201D3D01A70478068FF
:10087000C01A401C7047000010B50021024800F06B
:10088000D4F980F3100010BDF80600202DE9FC5FBC
:100890000E008346DDE90C47C6F1000098469246FB
:1008A000814600D40846012503E000BF90FBFAF022
:1008B0006D1C5045FADAA84500D9454624B1002EF2
:1008C00001DB780700D5641EB80702D5B8F1000F28
:1008D0000AD0F80708D13CB1A54205D220215846DC
:1008E000641EFFF791FFF6E7002E02DA4E462D2137
:1008F00002E0780703D52B215846FFF785FF07F064
:10090000030002280BD1B8F1000F08D13CB1A54279
:1009100005D230215846641EFFF776FFF6E7CDE991
:100920000047434652463146584601F029FEBDE88D
:10093000FC9F000070B50D46044600684FF48871B6
:1009400001F046F84FF49071206801F041F84FF43F
:100950009271206801F03CF84FF4A271206801F018
:1009600037F84FF4AC71206801F032F82068124972
:10097000C0F804132068690740F30730090E002807
:1009800004DB00F1E02080F8001405E000F00F0027
:1009900000F1E02080F8141D206840F307300028A3
:1009A00009DB00F01F02012191404009800000F1A5
:1009B000E020C0F8001170BD100342000246002084
:1009C0001268530713D502F00300012802D0022851
:1009D0000CD105E0C2F383100B68801C184404E0BE
:1009E0000223086803EB925210440860012070470C
:1009F0002DE9FF410026244800F009F92248001F94
:100A0000074600F004F9214C2149A06800900D68C8
:100A100000E000986946284004EB80000C30FFF7A6
:100A2000CDFF0028F5D101AA009901EA050304EBE6
:100A30008303491CDB6842F82030401C00910228E7
:100A4000F2D3019800F0030001280BD0022810D146
:100A50000198032101EB90500099BDF80A6001EB69
:100A6000900005E00198BDF80A60C0F383100844C7
:100A70000090384600F0C8F808B10098A06004B0B3
:100A80003046BDE8F0810000F4060020DC020020C2
:100A90004C000020002186B0084600F0D5FD08B1CA
:100AA000FFF7D4FD00F0F8FB002000F025F908B1B5
:100AB000FFF7CCFD1B481C49401AC108032000EB7E
:100AC0000140044619A100F063FD6E46102504A8FC
:100AD00000F008F99DF81000102800D805462946B6
:100AE000304600F027F908B1FFF7B0FD204615A108
:100AF00000F04EFD20462A46694600F0F5FC2046EF
:100B00000FA100F045FD00BF00F0D4FB0028FBD191
:100B1000104D64264FF47A47691C38468847761E84
:100B2000FAD1D2E714280000EC270000524E4720EB
:100B30006578616D706C6520737461727465642E84
:100B40000000000052616E646F6D20566563746F23
:100B5000723A0000402600002DE9F047C5881E1DAE
:100B6000B6FBF5F78946B6FBF5F1044605FB176CB5
:100B7000407916686843DDF820A0F718001F874207
:100B800000D9C61A166001E02468491E0029FBD16D
:100B9000A5EB0C078846B74216D818E004EB0C000A
:100BA000001D09EB0803BAF1000F3A4602D00146D6
:100BB000184600E01946FFF7B5FB2468F61B4FF016
:100BC000000CB844B54201D9374600E02F46002E4C
:100BD000E4D1BDE8F087000030B5024651B100F025
:100BE00047FD0021074C08E034F821301568AB427E
:100BF00002D11160002030BD491C8142F4D3052090
:100C000030BD000000000000002100F009B8012103
:100C100000F010B808B56A46FFF72FFB009808BD32
:100C200008B56A46FFF70FFB08BD08B56A46FFF72F
:100C3000F1FA08BD08B56A46FFF7F8FA009808BD52
:100C400008B56A46FFF726FB009808BD70B5044654
:100C500000252846FFF705FD216862680868904274
:100C60000ED9401E08600178238AE26801FB032543
:100C7000227A2168101AC0B20A79824200D2087121
:100C80000020FFF7F0FC284670BD70B505460C4605
:100C90000020FFF7E6FCE868298A201AB0FBF1F192
:100CA0002A681068431C13600170BDE87040002082
:100CB000FFF7D9BC10B530B1017A42680368891AD0
:100CC000C9B21A6006E00E2010BD03681A68541CF1
:100CD0001C601170491EC9B2F7D200680021017171
:100CE000084610BD10B50446024800F03FFE2070D3
:100CF00010BD00003028000070B50B4C217809B100
:100D0000852070BD00B9094809490088A4F8010090
:100D1000601C00F09DFE0500F3D100F0C5FE01202F
:100D20002070284670BD000000000020462600000C
:100D3000311A00000A4610B50146044800F0F9FDDA
:100D4000044600F0B1FE204610BD0000302800002F
:100D5000F0B505460478154889B0164640F82420B9
:100D6000124A08690832A2F10C0742F82400487FB1
:100D7000385520226846FFF7D5FA04942878385C65
:100D800048B10EB10A4A00E000226946281D00F071
:100D9000E3FF09B0F0BD0EB1064A00E0002269464B
:100DA00005F10C0000F0A2FEF3E7000008000020AF
:100DB0003D240000852200000FB408B503990029E6
:100DC00004D004AA00926A4600F00FF801B05DF862
:100DD00014FB10B582680446002A05D0D4E9040348
:100DE000216898470020A06010BD2DE9FC4791467E
:100DF0000C00804676D014F8011B39B125290ED09D
:100E00004046FFF701FD20780028F4D198F80C0047
:100E1000002867D04046BDE8FC47FFF7DABF002056
:100E2000012221782B291BD02D2902D0302908D16D
:100E300002E040F0010001E040F00200641C002AE2
:100E4000EFD100252A290ED02178A1F130020A2AFB
:100E500011D205EB850201EB4205641C303DF1E740
:100E600040F00400EAE7D9F800100B1DC9F8003083
:100E70000968641C0D44217800232E290BD114F835
:100E8000011FA1F130020A2A05D203EB830201EB14
:100E90004203303BF3E76C290DD068290BD0692958
:100EA00021D00BDC252918D0582931D063290ED048
:100EB000642915D117E014F8011FECE7702969D0F7
:100EC000732932D075291BD0782909D120E0D9F8AF
:100ED0000000011DC9F8001001784046FFF794FC9E
:100EE000641C90E76CE0D9F800100A1DC9F80020D6
:100EF0000968CDE900500A224046FFF7C7FCEFE73A
:100F0000D9F800100A1DC9F8002009680A2206E075
:100F1000D9F800100A1DC9F8002009681022CDE98F
:100F20000050404601F02CFBDAE7D9F8001000270A
:100F30000A1DC9F800200E68C00705D112E040461E
:100F4000761C7F1CFFF760FC31780029F7D104E0A4
:100F5000202140466D1EFFF757FCBD42C0D9002D31
:100F6000F6D1BDE74EB13046FFF700FA074604E080
:100F7000202140466D1EFFF747FCBD4206D9002DDB
:100F8000F6D103E04046761CFFF73EFC317800299D
:100F9000F8D1A5E7D9F80000011DC9F800100568CF
:100FA00030214046FFF730FC78214046FFF72CFC0B
:100FB00008200021CDE90001034610222946B0E7B0
:100FC000BDE8FC872DE9FF411C46DDE90A7815469E
:100FD0000E46684600F060F846EA450141EA8401A1
:100FE00041EA072242EA0841009A00EB8200C0F879
:100FF0000017BDE8FF812DE9FF411C46DDE90A78B5
:1010000015460E46684600F055F846EA450141EAA5
:10101000840141EA072242EA0841009A00EB82007B
:10102000C0F80017BDE8FF811CB5002100910B46F8
:1010300001220191FFF7C6FF1CBD1CB500210091E4
:101040000B4601220191FFF7D6FF1CBD1CB5002203
:101050000B46009211460192FFF7B4FF1CBD1CB570
:1010600000220B46009211460192FFF7C4FF1CBDFF
:101070001CB5002100910B46012201911146FFF79A
:10108000A1FF1CBD1CB5002100910B46012201915E
:101090001146FFF7B0FF1CBD0168202902D24FF0B6
:1010A000A040704701F01F01016001487047000037
:1010B000000300500168202902D24FF0A040704781
:1010C00001F01F010160014870470000000300505B
:1010D00001B56846FFF7E0FF009A01219140C0F892
:1010E000081508BD01B56846FFF7E4FF009A012125
:1010F0009140C0F8081508BD30B5154A01460020DA
:10110000D2F8104423460AE0DB681D79854205D1F8
:10111000401C0A28F6DB4FF0FF3030BD1B68002B67
:10112000F2D1431CF9D0CB681871D2F8103443B116
:10113000DB68CC681B682360D2F81024D268116089
:1011400030BDC2F81014C96800220A6030BD00002A
:10115000DC020020F0B595B01C4615460F46084647
:101160001A9E00F055FB182109A8FFF7F4F80E9617
:10117000CDE909540023082203A9384600F05DFB9D
:1011800005980690BDF81000ADF81C00BDF81200DF
:10119000ADF81E0000208DF821000398082600F00D
:1011A0000300012802D0022818D032E00398334609
:1011B000850AC0F3C2008DF8200003980FA9C0F380
:1011C0008314A200384600F038FB09A8009006AB53
:1011D00022460FA9284600F077FA1AE00398840DFA
:1011E000C0F3C2008DF82000082C01D2254600E093
:1011F000082533462A460FA9384600F01EFB2E4428
:10120000641B09AB06AA29460FA800F0C5F9002CFB
:10121000EAD1384600F002FB15B0F0BD704701205E
:1012200001F04EB8084810B50178084A515C19B170
:10123000001D00F02BFE02E00C3000F025FDBDE8A3
:101240001040002001F03CB83000002004000020D5
:1012500008B5034A00924023024AFFF77BFF08BD0E
:101260005D210000440100200A4A012902EBC00070
:1012700007D0022907D0032907D0042907D000206E
:10128000704702207047042070470079704740790A
:1012900070470000EC27000010B5FFF7C0FF0421E5
:1012A0000348FFF729FF02490120C968487110BDB2
:1012B000DC2700002DE9F0478CB0FFF7BDFA18B12C
:1012C00000200CB0BDE8F0877D4C0020C4F8180465
:1012D000BFF34F8F7B49A06802900D684FF0000864
:1012E000284004EB80000BE0D4F8180470B9616862
:1012F0000298814201D8A160E2E7284004EB800017
:101300000C3002A9FFF75AFB0028EDD1002003AAF8
:10131000029901EA050304EB8303491CDB6842F8E8
:101320002030401C02910228F2D3039800F0030001
:10133000022802D001284DD0A7E003985022810D49
:101340008946B2EB905F00D850210E4666F39F505D
:10135000039008315C4800F012FA070078D000F0E2
:1013600057FA4346082203A9384600F06EFA02995C
:1013700008F1080A2940681A8000001D864222D917
:101380004F4D0C3530B1C2B204EB8101301A90469A
:101390000C3104E02946F2B2002590462846C6B238
:1013A0005346384600F051FA0AEB080325B132469D
:1013B0002946384600F049FA029909F1030001EB89
:1013C000900002903BE004EB8101534632463846E0
:1013D0000C31EFE70398C0F38310062800D30620F2
:1013E000039960F38911C1F38310801C039181007C
:1013F000354800F0C4F9070047D000F009FA434629
:10140000082203A9384600F020FA08F1080800264F
:101410000FE00298434600EA0501401C04EB8101FD
:101420000290042238460C3100F00FFA08F104084B
:10143000761C0398C0F38310B042EAD847B1D4F8C1
:101440001054D4F8180478B1384600F0E7F931E0C8
:101450001BE0E8684079012804D12A68284639460B
:1014600012689047E8680568002DF2D1384600F010
:10147000D5F90020FFF7F5F8D4F8180408B9029858
:10148000A0600020FFF7EFF814E0D4F8104405E066
:101490002168204689688847E0680468002CF7D1F5
:1014A0000A480B49401AC008022101EB004009A17B
:1014B00000F06EF8FFF7C0F980F0010001E70000CE
:1014C000DC0200204C0000201C2800001428000032
:1014D000EC2700004261636B656E647320666C7577
:1014E00073686564000000002DE9F84F8146264FBF
:1014F000D01C15468A468008002269463E68FFF7E0
:101500003DF9DFF88880B0B3009CA01C00903968DA
:101510003040091A8F003F1DBD4208EB800002D801
:101520002A46514608E03A4651460C30FEF7FAFE8C
:101530001648EA1B0AEB07010C30FEF7F3FE4FEAF0
:101540001947FFF799F947EA0042601C304008EB61
:101550008000344008EB8401C260C8684FF6C07256
:1015600069F3C500904365F39F5020F00300801C91
:1015700020F00400C86098F8000001E0FFF79AFE30
:101580000028FBD1BDE8F88F4C000020DC020020D1
:1015900000231A4600F002BE2DE9F0470E468046B1
:1015A0001C469246082940D894F80C9000202073DD
:1015B0001946104600F00CFD0025B54206D218F879
:1015C00005201BA12046FFF7F7FB03E01AA12046E8
:1015D000FFF7F2FB6D1C082DEFD318A12046FFF793
:1015E000EBFB0025B54212D218F805707E2F08D803
:1015F000FEF794FE0068C05D10F03E0F01D03A4641
:1016000000E02E220EA12046FFF7D6FB03E00DA13D
:101610002046FFF7D1FB6D1C082DE3D301222146A4
:10162000504600F0B7FC84F80C90BDE8F08700004D
:101630002025303278000000202020007C000000AF
:101640002563000020000000064910B50020087046
:10165000054800F0E1F8002803D1044800F094F9AF
:10166000002010BDDC0200201C2800008C26000099
:1016700002480349401AC008704700001C280000B7
:10168000EC27000013B56846FFF7A6FA08B1002062
:101690001CBD0248009950F831001CBDEC27000029
:1016A00070B508480125D0F81044057007E0E068DF
:1016B00045712168204649688847E0680468002C25
:1016C000F5D170BDDC0200202DE9FF4781460C9D5D
:1016D00000200C462F7B287398461646294618464C
:1016E00000F076FC072E42D2DFE806F004090F1660
:1016F0001F2A360049462846FFF75EFB37E0494679
:1017000028462268FFF758FB31E0D4E90023494618
:101710002846FFF751FB2AE0A0680090D4E9002397
:1017200049462846FFF748FB21E0D4E90201CDE90C
:101730000001D4E9002349462846FFF73DFB16E0A7
:1017400004F1080007C88DE80700D4E900234946E2
:101750002846FFF731FB0AE004F108000FC88DE8C6
:101760000F00D4E9002349462846FFF725FB002255
:101770002946404600F00EFC2F73BDE8FF872DE997
:10178000F041058A80462D1F4819C01CB0FBF5F0BA
:10179000C6B24046FFF75AFA041E19D00020207145
:1017A00001206071E58000272546761EC4F8008080
:1017B0000BE04046FFF74AFA60B16179491C61715C
:1017C000286005467F1CC0F80080B742F1D3204650
:1017D000BDE8F081204600F002F80020F8E72DE98E
:1017E000F041457901466B1E002201E00968521C58
:1017F0009A42FBD30F680146002605E038460C6884
:10180000FFF743FA2146761CAE42F7D3BDE8F081DC
:101810000121001DFFF7FEB9FFF74CBA10B50446D1
:101820000121001DFFF70CFA10F0FF0F04D1204634
:10183000BDE81040FFF7D3BF10BD1CB501920122D7
:10184000009201AAFFF788F91CBD1CB50192002285
:10185000009201AAFFF780F91CBD01680A68496877
:101860008068884201D9491C00E00021914201D1E1
:1018700001207047002070478068884201D9481CC9
:101880007047002070472DE9F04104464FF00008F2
:101890000E464046FEF7E5FE2046FFF7DEFF070056
:1018A00009D0207C38B14FF004080020FEF7DBFEA1
:1018B0004046BDE8F0812068456841682046FFF752
:1018C000DBFF2168486037B1206801682046FFF7D8
:1018D000D3FF21680860E268012A14D0022A16D0DA
:1018E000042A19D0082A1CD06068314605FB020082
:1018F000FEF718FD204600F0F5FB21688A68824259
:10190000D3D28860D1E7616830784855F2E76168E2
:10191000308821F81500EDE76168306841F825004E
:10192000E8E7D6E90001626802EBC502C2E90001FE
:10193000E0E72DE9F04107464FF0000415000E46A0
:10194000204611D0FEF78DFE384600F0CBFBA842B2
:1019500005D32A463146384600F092FB00E00524C4
:101960000020FEF780FE2046BDE8F08110B5044659
:101970000020FEF776FE204600F0B4FB044600206F
:10198000FEF771FE204610BD8268002191608268DA
:101990001161826851618268D1608268516080689B
:1019A000016070474058002800D00120704708B5FA
:1019B000002242504058009008BDD0F8040308406F
:1019C00000D0012070474058002800D00120704707
:1019D00008B5002242504058009008BD0121B1EBEB
:1019E000507F01D1012070470020704770B50D462F
:1019F00000F03AFB04000FD00020FEF732FE207901
:101A000020B10020FEF72FFE112070BD01202560BF
:101A100020710020FEF727FE002070BD10B500F0F9
:101A200023FB002802D000210160017110BD0000DD
:101A300001B569460548FFF726FF0448FFF70DFF8B
:101A4000002801D000F040F808BD00003028000058
:101A5000114A13780BB18520704751600178C9078E
:101A600004D00E490B6843F001030B600C49D1F818
:101A7000003223F00103C1F80032407809494001E7
:101A800081F8000401204FF0E0234103C3F8001166
:101A900010700020704700002000002004D5004096
:101AA00000D000400DE000E0064908B500220448DF
:101AB0000A60096800910121C0F80413016008BDA3
:101AC00000D0004000D1004003490120C1F80803C4
:101AD000091D08607047000000D00040014902481D
:101AE00000F016BCF4000020002000402DE9F04179
:101AF0000546007916460F4600EB40012D4A01EBE2
:101B0000C00102EB810494F82A1011B10820BDE84D
:101B1000F081294951F820102868FFF767FF08B1C4
:101B20001120F4E739462846FEF7B2FD66603869B1
:101B3000206030004FF001062FD03F7F4FF48E71B0
:101B40002868FFF734FF4FF4A2712868FFF72FFFD2
:101B500028681A49C0F8041328684FEA471140F36F
:101B60000730002804DB00F1E02080F8001405E0D5
:101B700000F00F0000F1E02080F8141D286840F309
:101B80000730002809DB00F01F0106FA01F14009C7
:101B9000800000F1E020C0F8001128680421C0F89E
:101BA00000150020A061E06184F8290044F8140FBA
:101BB000A675ACE7F4000020482600008000020073
:101BC0002DE9F05F054600790B4600EB400101EB83
:101BD000C000244901EB8004284600F045F810B10C
:101BE0001120BDE8F09F62614FF00009C4F8209019
:101BF000A36084F828904FF48E784E4641462868BA
:101C0000FFF7D5FE28684FF0010AC0F808A021466A
:101C1000286800F00DFB606808BBD5F800B0676964
:101C20000FE000BF94F8280008B10F2615E04146E8
:101C30005846FFF7B7FE0028F4D02146584600F07A
:101C4000F7FA206AB842F2D3574641462868FFF7B0
:101C5000A9FE0028F9D02868C760C4F8149030465F
:101C6000BFE70000F4000020007900EB400101EB29
:101C7000C000044901EB80004069002800D0012029
:101C800070470000F40000202DE9F0470446007979
:101C90004FF0000900EB400101EBC000284901EBC7
:101CA00080072068C0F800957868B0B120682549A1
:101CB000C0F80813206840F3073000280DDB00F05F
:101CC0001F02012191404009800000F1E020C0F88E
:101CD0008011BFF34F8FBFF36F8F2068D0F80C25B2
:101CE000D0F81485D0F80865D0F810554FF0FF31C2
:101CF000C0F81415C0F80C152068C0F80815C0F815
:101D00001015501C02D01046FFF78EF9B8F1FF3FB6
:101D100002D04046FFF788F9681C02D02846FFF73A
:101D200083F9701C02D03046FFF77EF92068FFF778
:101D300075FE87F82A90C7F80490BDE8F087000088
:101D4000F4000020840202000149024800F08EBB2A
:101D500020010020002000402DE9F04105461646F4
:101D600000790F46154A00EBC00102EB810494F89C
:101D7000201011B10820BDE8F081114951F8201060
:101D80002868FFF733FE08B11120F4E739462846EA
:101D9000FEF7B9FC6660386920601EB1397F2846BD
:101DA000FEF7C8FD28680821C0F800150020A061D2
:101DB000E0616061012184F82010DCE7200100204F
:101DC0004C2600002DE9F04704460E4600792749CD
:101DD00000EBC00001EB800517463046FFF7FEFD23
:101DE00030B1204600F044F820B11120BDE8F08762
:101DF0001020FBE76F61AE604FF490774FF0000862
:101E000039462068FFF7E4FD4FF4AC763146206890
:101E1000FFF7DEFD2068AA686969C0F84425C0F8AC
:101E2000481520684FF00109C0F808906868D0B9DB
:101E3000BA4651462068FFF7C6FD0746314620687E
:101E4000FFF7C1FD0743F4D010B14FF00F0808E0D1
:101E50002068C0F80C9031462068FFF7B4FD0028D8
:101E6000F9D0002068614046C0E700002001002052
:101E70000079054900EBC00001EB800040690028B3
:101E800000D0012070470000200100202DE9F0471C
:101E9000064600793D4900EBC00001EB800534683F
:101EA00068680127A8B13A49C4F80813306840F3BC
:101EB000073000280DDB00F01F0107FA01F140098F
:101EC000800000F1E020C0F88011BFF34F8FBFF316
:101ED0006F8FD4F8000220F02000C4F80002A86937
:101EE0004FF4A27820B141462046FFF771FD6760AC
:101EF0004FF4AC7949462046FFF76AFDE760474654
:101F000049462046FFF75FFD0028F9D0A86928B1AF
:101F100039462046FFF757FD0028F1D04FF0000A60
:101F2000C4F800A53068D0F80C25D0F81495D0F886
:101F30000885D0F810754FF0FF31C0F80C15C0F8C7
:101F400014153068C0F80815C0F81015501C02D0E0
:101F50001046FFF772F8B9F1FF3F02D04846FFF78D
:101F60006CF8781C02D03846FFF767F8B8F1FF3FED
:101F700002D04046FFF761F82046FFF74FFD85F895
:101F800020A0C5F804A0BDE8F087000020010020D3
:101F90001003420010B50C46017A052908D0407A9A
:101FA00038B1084808A102682046FEF705FF00E0A6
:101FB0001AB106A12046FEF7FFFE2046BDE81040FC
:101FC000FEF707BF7C000020257300000D0A00000B
:101FD00038B5C3880D46044633B114A0009015A24D
:101FE00016A12846FEF7E8FE217A05291CD0607A62
:101FF00048B1A088FFF738F9164951F8202016A1FA
:102000002846FEF7D9FEA0880021FFF73BFB0346D8
:102010001049207A143951F8202001B02846BDE833
:1020200030400EA1FEF7C8BE38BD00001B5B306D0E
:10203000000000001B5B313B33316D0025734C6F9A
:1020400067732064726F7070656420282564292589
:10205000730D0A007C000020257300003C25733EB0
:102060002025733A200000000349884201D103482B
:10207000704700207047000000200040180000203A
:102080002DE9F04704460068164689460768002196
:102090002046FEF7DDFB0546D4F80C806068AE42B2
:1020A00007FB08010DD808FB06F24846FEF73AF98F
:1020B000A168B819884200D9002021680860BDE8ED
:1020C000F08708FB05F842464846FEF72BF9E26820
:1020D000751B6A4309EB08006168FEF723F9206865
:1020E0000560ECE701680A684968914201D3881AE3
:1020F00070478068801A0844401C704770B50546D8
:1021000088690C4600284FF4847128460AD0FFF7EE
:102110004EFCD5F81805626AE1688854606A401C74
:10212000606270BDFFF743FCD5F8180570BD1FB5A0
:1021300001238DF80030CDE90121D0E90012684675
:1021400090471FBD1FB501238DF80030CDE9012157
:10215000D0E90012684690471FBD000070B50D4CD5
:102160000020D2B22070201D0B4D0378EB5C1BB118
:10217000001DFFF727FE02E00C30FFF721FD08B13C
:10218000FEF764FA6078002802D021780029FAD09E
:1021900070BD00002C000020040000202DE9F84F45
:1021A000074621489146884605681E460122694631
:1021B0001846FEF7E3FADFF874A060B30098002138
:1021C0000446801C0AE000BF00EA050259F821C05D
:1021D0000AEB8202401C491CC2F80CC0B142F3D386
:1021E0004FEA1749FEF748FB611C29400AEB8101C1
:1021F00049EA00422C40CA600AEB8401C86867F3D0
:10220000C50066F3891068F39F2020F00300401C8E
:1022100020F00400C8609AF8000001E0FFF74AF8D7
:102220000028FBD1BDE8F88F4C000020DC02002024
:1022300070B50C4605464FF48E71FFF7B8FB216A66
:10224000A068415C206A401C2062C5F81C1570BD66
:102250001FB500228DF80020029181680191426132
:10226000D0E90012684690471FBD1FB500228DF8C7
:1022700000200291816801914261D0E90012684614
:1022800090471FBD1FB50A4601788DF800104168C0
:102290000191017A8DF80810C0680390044850F845
:1022A0002210083850F82220684690471FBD0000D1
:1022B0001000002001490120087070472C00002008
:1022C00010B588B0044620220E496846FEF72AF869
:1022D00006200090C01F0190029003904FF0EB7019
:1022E00006900CB1084A00E0002269460748FEF754
:1022F0002FFD08B1FEF7AAF90448001F447008B08A
:1023000010BD00006C260000B52200003000002047
:102310002DE9FF470C4605464FF40071FFF74DFBD2
:1023200001274FF40178002618B34FF492794946FB
:102330002846FFF737FBE0B149462846FFF737FB51
:10234000C5F8088394F8290000B96F6002208DF861
:102350000000D5F88004C5F880040390A0690290BD
:10236000E0680190A661E661D4E9001268469047F2
:1023700028E004212846FFF720FB18B34FF48471AE
:102380002846FFF70FFBE8B121462846FFF7B6FEC7
:10239000616AA069884215D1E06938B1E268616A72
:1023A000A0612069E6616662E06008E094F82900B7
:1023B00000B96F60C5F80883A661E268616A2046CB
:1023C000FFF7B5FE4FF48E7841462846FFF7EAFA4C
:1023D00080B16069216A814202D294F8280028B352
:1023E00041462846FFF7E3FA606918B16169204663
:1023F000FFF72EFF4FF4A27841462846FFF7D2FAA6
:10240000002818D041462846FFF7D1FA94F8290051
:1024100000B12F60A06900280DD0A661E268616A52
:1024200004B02046BDE8F047FFF781BE21462846AC
:10243000FFF7FEFEDEE7BDE8FF8700001FB50A4696
:1024400001788DF8001041680191017A8DF808102B
:10245000C0680390044850F82210083850F8222031
:10246000684690471FBD0000100000202DE9FF4185
:102470000C464FF4927705463946FFF7A4FA00263A
:10248000B8B139462846FFF7A3FA02208DF80000BC
:10249000D5F88004C5F880040390D5F83C05029077
:1024A000E0680190A661E661D4E9001268469047B1
:1024B00023E04FF4887739462846FFF784FAE0B1E5
:1024C00039462846FFF784FAD5F83C15A0698842BA
:1024D00013D1E06960B1E268D5F8000220F0200075
:1024E000C5F80002E069A0612069E661E06001E0F2
:1024F000A661E2682046FFF725FE4FF4A277394631
:102500002846FFF760FA68B139462846FFF760FAB7
:10251000A06938B1A661E661D5F83C152046E268AD
:10252000FFF710FE4FF4907631462846FFF74BFA3E
:1025300060B131462846FFF74BFA0120E860606938
:1025400020B1D5F84C152046FFF78FFE4FF4AC763E
:1025500031462846FFF737FA00280ED03146284684
:10256000FFF736FA6069002807D0D5F84C1504B09B
:102570002046BDE8F041FFF778BEBDE8FF810000CE
:102580002DE9F05F8346DDE90A4A994690460D46FB
:102590000846012703E000BFB0FBF8F07F1C404570
:1025A000FAD2B94500D94F465FEACA7012D18CB150
:1025B0005FEA8A7002D5B9F1000F01D0202607E04A
:1025C000302605E031465846641EFEF71DF90CB171
:1025D000A742F7D35FF00106B9F1010F02D9A9F1C3
:1025E000010903E0B5FBF6F0404502D306FB08F60F
:1025F000F2E7DFF83C9000BFB5FBF6F000FB1655A4
:1026000019F800105846FEF7FFF8B6FBF8F6002E52
:10261000F2D15FEACA7009D0002C07D0A74205D2D8
:1026200020215846641EFEF7EFF8F5E7BDE8F09F5D
:102630005026000000000000000000000000000024
:102640000338FDD870470106DD1A0000491D00005F
:1026500030313233343536373839414243444546D8
:1026600051120000251200001D120000FFFFFFFFA5
:10267000FFFFFFFFFFFFFFFFFFFFFFFF0000000066
:10268000000000000000D601060100004402002006
:102690007F000000C4020020004040404040404015
:1026A0004040414141414140404040404040404025
:1026B00040404040404040404005020202020202C9
:1026C0000202020202020202022020202020202018
:1026D000202020020202020202029090909090902C
:1026E00010101010101010101010101010101010EA
:1026F000101010100202020202028888888888885E
:102700000808080808080808080808080808080849
:102710000808080802020202400000009926000092
:102720007761726E696E67006465627567000000AC
:102730001B5B313B33306D001B5B306D00000000D4
:102740001B5B313B33316D001B5B313B33326D0022
:102750001B5B313B33336D001B5B313B33346D000E
:102760001B5B313B33356D001B5B313B33366D00FA
:102770001B5B313B33376D00696E666F00000000F4
:102780006572726F72000000726E670050525300E3
:10279000524E4700554152540000000055415254DA
:1027A00045000000756172745F6C6F675F62616302
:1027B0006B656E64000000006170700044280000CA
:1027C00000000020A4000000A8050000E828000088
:1027D000A40000205C260000B80500006026000070
:1027E00000000000A427000044000020882700000B
:1027F000000000008C27000000000000902700006F
:102800000000000094270000000000009C2700004A
:1028100000000000B827000000000303580000205B
:102820005000002058000020840100201800000003
:10283000E8000020A400002040000000010000008B
:102840000000000000000000000000000000000088
:102850000000000000000000000000000000000078
:102860000000000000000000000000000000000068
:1028700000000000000000000020004000000000F8
:10288000002000400000000000000000FF000000E9
:10289000FF00000000000000000000000000000039
:1028A0000000000000000000000000000000000028
:1028B000802700002027000078270000282700003C
:1028C000382700003027000040270000482700007C
:1028D00050270000582700006027000068270000EC
:0828E000702700000090D003F6
:0400000500000201F4
:00000001FF
