:020000040000FA
:1000000070270020F9020000010300000303000034
:1000100005030000070300000903000000000000C2
:100020000000000000000000000000000B030000C2
:100030000D030000000000000F030000110300008A
:1000400013030000130300007D06000055040000A8
:100050001303000013030000A103000013030000BA
:100060001303000013030000130300001303000038
:100070001303000013030000130300001303000028
:1000800013030000450400001303000013030000E5
:100090001303000013030000130300001303000008
:1000A00013030000130300001303000013030000F8
:1000B0001303000013030000000000000000000014
:1000C00013030000130300001303000013030000D8
:1000D00013030000130300001303000013030000C8
:1000E00013030000130300001303000000000000CE
:1000F00000000000130300000000000013030000D4
:1001000000000000000000000000000000000000EF
:1001100000000000000000000000000000000000DF
:1001200000000000000000000000000000000000CF
:1001300000000000000000000000000000000000BF
:1001400000000000000000000000000000000000AF
:10015000000000000000000000000000000000009F
:10016000000000000000000000000000000000008F
:10017000000000000000000000000000000000007F
:10018000000000000000000000000000000000006F
:10019000000000000000000000000000000000005F
:1001A000000000000000000000000000000000004F
:1001B000000000000000000000000000000000003F
:1001C000000000000000000000000000000000002F
:1001D000000000000000000000000000000000001F
:1001E000000000000000000000000000000000000F
:1001F00000000000000000000000000000000000FF
:10020000DFF80CD000F0BAF800480047010C0000FD
:100210007027002030B4044654E8000F0D4644E82F
:100220000053002BF8D1156030BC704730B4044641
:1002300054E8000F40EA010544E80053002BF7D1D1
:10024000156030BC704730B4044654E8000F00EA33
:10025000010544E80053002BF7D1156030BC70470E
:1002600030B4044654E8000F80EA010544E8005326
:10027000002BF7D1156030BC704730B4044654E809
:10028000000F00EB010544E80053002BF7D1156087
:1002900030BC704730B4044654E8000FA0EB0105B1
:1002A00044E80053002BF7D1156030BC704770B4A0
:1002B00004464FF0000054E8006F0D68AE4207BFDF
:1002C00044E80023012044E800630E60002B1CBFBB
:1002D0000020F0E770BC704730B4044654E8000FCB
:1002E00088422CBF451A054644E80053002BF5D13F
:1002F000156030BC7047000006488047064800473C
:10030000FEE7FEE7FEE7FEE7FEE7FEE7FEE7FEE7C5
:10031000FEE7FEE7A9040000010200000048704764
:10032000902C000040EA01039B0703D009E008C9B4
:10033000121F08C0042AFAD203E011F8013B00F8AA
:10034000013B521EF9D27047D2B201E000F8012BF6
:10035000491EFBD270470022F6E710B513460A4645
:1003600004461946FFF7F0FF204610BD421C10F866
:10037000011B0029FBD1801A70470000064C074D75
:1003800006E0E06840F0010394E807009847103465
:10039000AC42F6D3FFF738FF5C2D00007C2D000047
:1003A0002DE9FC410025DFF8948000954FF480761C
:1003B00001242F460195304601F042F838B1D8F8B3
:1003C0000403204203D0304601F030F82543361DA7
:1003D00064007F1CB6B2082FEDD34FF4BE742046E4
:1003E00001F02EF848B1204601F020F845F0004514
:1003F0006A460221002000F07FFF15F0FF0F16D0A3
:10040000012600242E420ED008EB8401D1F81005FD
:10041000D1F81015C0F30520094AC1F3014152F883
:10042000242002B190477600641C082CEAD3002DEA
:1004300002DA684601F062FFBDE8FC81006000401E
:10044000D400002002490248091F096800680847D3
:1004500034000020F8B51248124E04464FF48C7157
:1004600001F0B5FB00281AD00025C4F81851D4F8C3
:1004700018010090F07F3446FF2806D0A17F11B10B
:1004800000F052FF01E000F09FFF65772572D4E98C
:10049000002101B004F10800BDE8F0401047F8BDAC
:1004A000003000404001002070B54FF08052012420
:1004B000D2E94C100023082906D1CD06C5F80C312D
:1004C000C5F810315E4D2B60082955D15D4D2D6862
:1004D0005D4E35605B4D2D1D2D68361D3560594DC7
:1004E00008352D68361D3560564D0C352D68361D86
:1004F0003560544D10352D68361D3560514D14351D
:100500002D68361D35604F4D18352D684E4E2036FE
:1005100035604C4D1C352D68361D3560494D2035F4
:100520002D68361D3560474D24352D68361D3560E4
:10053000444D28352D68361D3560424D2C352D68CB
:10054000361D35603F4D30352D683F4E40363560A5
:100550003C4D34352D68361D35603A4D38352D68A3
:10056000361D3560374D3C352D68361D3560354DAF
:1005700040352D68361D3560082904D1050002D1AB
:10058000334E324D3560082904D1050002D1314E79
:10059000FB253560082908D1050006D192F858627C
:1005A0002D4A156866F303051560082904D1020079
:1005B00002D12A4D8A012A60082906D128480168FB
:1005C000C90702D06FF0010101602648016841F4BB
:1005D00070010160BFF34F8FBFF36F8F4FF0102199
:1005E000D1F80002002803DBD1F80402002822DA47
:1005F0001D4A14601D480468002CFCD01224C1F868
:1006000000420568002DFCD0C1F8044201680029B1
:10061000FCD0136001680029FCD0BFF34F8F114854
:100620007C380168124A01F4E06111430160BFF3B4
:100630004F8F00BFFDE710490E48086070BD0000F5
:10064000380500400404001020C500404881030024
:100650008C56004018F50040E40E004040960240E1
:100660000004004088ED00E004E5014000E40140A2
:100670000400FA050090D003B00000200148006893
:10068000004700002400002002E008C8121F08C133
:10069000002AFAD170477047002001E001C1121F03
:1006A000002AFBD17047000072B601F0A5F900BF27
:1006B00000F0ACFF0028FBD111481249401AC408D1
:1006C000012000EB044010A101F00EF91148006870
:1006D000C00700D000BE022000EB04400EA101F0D4
:1006E00003F9BFF34F8F0B48E43801680E4A01F459
:1006F000E06111430160BFF34F8F00BFFDE70000D1
:10070000CC2D00008C2D0000466174616C20657258
:10071000726F7200F0ED00E053797374656D2072B2
:1007200065736574000000000400FA050EB5002131
:100730000091CDE901106A4644F20100FFF7B4FFD1
:100740000EBD00F003B800F009B8000072B6024810
:100750000168491C016070472C00002003490868AB
:10076000401E086000D162B6704700002C000020D7
:1007700070B5054608680C46411C04D000F02EFEFA
:10078000206800F08DFD6068411C02D0002100F05F
:100790006BFD2968A069C1F82405607D227D296868
:1007A0001043C1F86C05D4E900122868C0F814257C
:1007B000C0F80C15207D012814D1A068411C02D07E
:1007C000002100F051FDE068411C04D000F006FE5D
:1007D000E06800F065FDD4E902122868C0F8082539
:1007E000C0F8101570BD70B5054608680C46411C70
:1007F00004D000F0FDFD206800F05CFD6068411C45
:1008000002D0002100F039FD2968A069C1F8240553
:10081000607D217D2A680843C2F86C05D4E9001286
:100820002868C0F80C15C0F81425207D012814D1C3
:10083000A068411C02D0002100F01FFDE068411CAF
:1008400004D000F0D5FDE06800F034FDD4E90212D8
:100850002868C0F80825C0F8101570BD2DE9FC41C6
:100860000646C0074FF000050ED0104F00240122AD
:10087000385D009500231146019500F07FFC641C53
:10088000042CF4D300F032F8B0070DD5074E002445
:10089000361D0022305D032300951146019500F0BE
:1008A0006DFC641C042CF4D3BDE8FC81982B000083
:1008B000094908B5085C0090684600F03FFDD0F893
:1008C0000425009B0121994021EA0203C0F8083564
:1008D0001140C0F80C1508BD982B00000249085CB7
:1008E000012100F08FBD0000982B000010B50024FE
:1008F0002046FFF7F3FF641C042CF9D310BD000061
:100900002DE9F0470546861C91460F464FF0010A37
:100910000020FFF716FF1B4C04F21C48606838608B
:10092000D4E90101184F401A3968081A0EE0012174
:10093000404600F041FA00F011F90146404600F04F
:100940003BFAD4E90101401A3968081A401C864272
:10095000EDD8B9F1000F03D0052065F3891002E04E
:10096000062065F39F5061683A68114004EB8101ED
:10097000C8606068304460600020FFF7E4FE5046C5
:10098000BDE8F0874C0300205C00002070B50D46E8
:1009900004460A2902D10D21FFF7F8FFA06822685A
:1009A000411CA1601554D4E90101814204D32046C1
:1009B000BDE8704000F0E9BA70BD000004488168ED
:1009C0004068814201D1012070470020704700003B
:1009D0004C0300200249084490F9300070470000A1
:1009E000D400002010B50021024800F0F0F980F397
:1009F000100010BD680700202DE9FC5F0E00834643
:100A0000DDE90C47C6F1000098469246814600D4C5
:100A10000846012503E000BF90FBFAF06D1C50452D
:100A2000FADAA84500D9454624B1002E01DB780743
:100A300000D5641EB80702D5B8F1000F0AD0F80738
:100A400008D13CB1A54205D220215846641EFFF7CB
:100A50009DFFF6E7002E02DA4E462D2102E07807D0
:100A600003D52B215846FFF791FF07F0030002281A
:100A70000BD1B8F1000F08D13CB1A54205D230210D
:100A80005846641EFFF782FFF6E7CDE9004743466C
:100A900052463146584602F00FF8BDE8FC9F000070
:100AA00070B50D46044600684FF4887101F0AAF84D
:100AB0004FF49071206801F0A5F84FF4927120680E
:100AC00001F0A0F84FF4A271206801F09BF84FF4F8
:100AD000AC71206801F096F820681249C0F8041340
:100AE0002068690740F30730090E002804DB00F195
:100AF000E02080F8001405E000F00F0000F1E02095
:100B000080F8141D206840F30730002809DB00F04E
:100B10001F02012191404009800000F1E020C0F84F
:100B2000001170BD100342000246002012685307F6
:100B300013D502F00300012802D002280CD105E0F1
:100B4000C2F383100B68801C184404E00223086879
:100B500003EB925210440860012070472DE9FF41D9
:100B60000026244800F025F92248001F074600F01F
:100B700020F9214C2149A06800900D6800E0009800
:100B80006946284004EB80000C30FFF7CDFF0028B9
:100B9000F5D101AA009901EA050304EB8303491C7E
:100BA000DB6842F82030401C00910228F2D3019803
:100BB00000F0030001280BD0022810D10198032176
:100BC00001EB90500099BDF80A6001EB900005E040
:100BD0000198BDF80A60C0F38310084400903846BD
:100BE00000F0E4F808B10098A06004B03046BDE819
:100BF000F0810000640700204C0300205C0000200E
:100C00008EB00120FFF72AFE4FF48041002000F053
:100C1000C7FE08B1FFF78AFD00F0EAFC2C4B0DF18E
:100C2000100C0FCB8CE80F001F208DF813001E2036
:100C30008DF812001D208DF811001A208DF810007B
:100C400023480023234A04A9103800F025F908B1ED
:100C5000FFF76CFD20482149401AC008032101EB31
:100C600000401FA100F040FE234C4FF0000800BFE1
:100C7000C4F80880A4F80C8084F80E8084F8008002
:100C80001D490722491CCB1D15468DE82E00104832
:100C900000220C38694601F0A3F818B1FFF746FDB1
:100CA00000E020BF20780028FBD000BF00F0AEFCA1
:100CB0000028FBD1FFF7FCFD054DC826183D4FF479
:100CC0007A47691C38468847761EFAD1D0E700007B
:100CD000882B000069250000CC2D00008C2D000021
:100CE000535049206578616D706C65207374617232
:100CF0007465642E00000000000000202DE9F0471C
:100D0000C5881E1DB6FBF5F78946B6FBF5F104460E
:100D100005FB176C407916686843DDF820A0F718CA
:100D2000001F874200D9C61A166001E02468491ED8
:100D30000029FBD1A5EB0C078846B74216D818E06E
:100D400004EB0C00001D09EB0803BAF1000F3A4652
:100D500002D00146184600E01946FFF7E3FA24687E
:100D6000F61B4FF0000CB844B54201D9374600E0FD
:100D70002F46002EE4D1BDE8F087000030B50246D2
:100D800051B100F021FE0021074C08E034F8213079
:100D90001568AB4202D11160002030BD491C814270
:100DA000F4D3052030BD000000000000002100F059
:100DB00009B8012100F010B808B56A46FFF75DFADE
:100DC000009808BD08B56A46FFF73DFA08BD08B5AA
:100DD0006A46FFF71FFA08BD08B56A46FFF726FA0C
:100DE000009808BD08B56A46FFF754FA009808BD98
:100DF00070B5044600252846FFF7A3FC2168626809
:100E0000086890420ED9401E08600178238AE26883
:100E100001FB0325227A2168101AC0B20A798242A6
:100E200000D208710020FFF78EFC284670BD70B517
:100E300005460C460020FFF784FCE868298A201A42
:100E4000B0FBF1F12A681068431C13600170BDE823
:100E500070400020FFF777BC10B530B1017A4268CE
:100E60000368891AC9B21A6006E00E2010BD036833
:100E70001A68541C1C601170491EC9B2F7D2006870
:100E800000210171084610BDC20800F007030120CF
:100E9000895C9840084070472DE9FF411C46037863
:100EA000164D174E45F82320103545F82340F0CE57
:100EB0008DE8F0000C788DF800404C788DF80140FA
:100EC0008C788DF80240CC788DF803400C798DF841
:100ED00005404C798DF806408C6802940C7B8DF8A7
:100EE0000C40497B8DF80D1002B1064A6946001D81
:100EF00000F0C0FE04B0BDE8F0810000B4000020A6
:100F0000A02B0000E1250000F0B505460478154847
:100F100089B0164640F82420124A08690832A2F126
:100F20000C0742F82400487F385520226846FFF716
:100F3000F9F904942878385C48B10EB10A4A00E007
:100F400000226946281D01F0BBF809B0F0BD0EB1C2
:100F5000064A00E00022694605F10C0000F07AFF25
:100F6000F3E700001400002075290000BD270000F1
:100F70000FB408B50399002904D004AA00926A4668
:100F800000F00FF801B05DF814FB10B5826804465C
:100F9000002A05D0D4E90403216898470020A06006
:100FA00010BD2DE9FC4791460C00804676D014F820
:100FB000011B39B125290ED04046FFF7E7FC207808
:100FC0000028F4D198F80C00002867D04046BDE80E
:100FD000FC47FFF7DABF0020012221782B291BD024
:100FE0002D2902D0302908D102E040F0010001E0B3
:100FF00040F00200641C002AEFD100252A290ED0FF
:101000002178A1F130020A2A11D205EB850201EB09
:101010004205641C303DF1E740F00400EAE7D9F8EE
:1010200000100B1DC9F800300968641C0D442178BC
:1010300000232E290BD114F8011FA1F130020A2A36
:1010400005D203EB830201EB4203303BF3E76C294B
:101050000DD068290BD0692921D00BDC252918D0A7
:10106000582931D063290ED0642915D117E014F81E
:10107000011FECE7702969D0732932D075291BD084
:10108000782909D120E0D9F80000011DC9F8001025
:1010900001784046FFF77AFC641C90E76CE0D9F8D1
:1010A00000100A1DC9F800200968CDE900500A2285
:1010B0004046FFF7A1FCEFE7D9F800100A1DC9F878
:1010C000002009680A2206E0D9F800100A1DC9F8B4
:1010D000002009681022CDE90050404601F0ECFCE8
:1010E000DAE7D9F8001000270A1DC9F800200E68B9
:1010F000C00705D112E04046761C7F1CFFF746FC76
:1011000031780029F7D104E0202140466D1EFFF719
:101110003DFCBD42C0D9002DF6D1BDE74EB13046F1
:10112000FFF724F9074604E0202140466D1EFFF733
:101130002DFCBD4206D9002DF6D103E04046761CB9
:10114000FFF724FC31780029F8D1A5E7D9F8000091
:10115000011DC9F80010056830214046FFF716FC54
:1011600078214046FFF712FC08200021CDE900015C
:10117000034610222946B0E7BDE8FC872DE9FF4170
:101180001C46DDE90A7815460E46684600F0D6F89A
:1011900046EA450141EA840141EA072242EA084160
:1011A000009A00EB8200C0F80017BDE8FF812DE92E
:1011B000FF411C46DDE90A7815460E46684600F0F8
:1011C000D9F846EA450141EA840141EA072242EAA8
:1011D0000841009A00EB8200C0F80017BDE8FF81CB
:1011E0002DE9FF411C46DDE90A7815460E466846A2
:1011F00000F0CEF846EA450141EA840141EA0722BF
:1012000042EA0841009A00EB8200C0F80017BDE8EE
:10121000FF812DE9FF411C46DDE90A7815460E469F
:10122000684600F0C3F846EA450141EA840141EA14
:10123000072242EA0841009A00EB8200C0F800173A
:10124000BDE8FF811CB5002100910B4601220191F0
:10125000FFF7C6FF1CBD1CB5002100910B46012203
:101260000191FFF7D6FF1CBD1CB500220B46009272
:1012700011460192FFF7B4FF1CBD1CB500220B46BE
:10128000009211460192FFF7C4FF1CBD1CB500215E
:1012900000910B46012201911146FFF788FF1CBD0A
:1012A0001CB5002100910B46012201911146FFF768
:1012B00097FF1CBD1CB5002100910B460122019136
:1012C0001146FFF7A6FF1CBD13B50C46684600F09B
:1012D00043F8009900EB8101D1F8002722F4403255
:1012E000C1F80027009900EB8100D0F8001741EA0F
:1012F0000441C0F800171CBD3CB50A4CD4E90034C9
:10130000CDE900346B46441808E000BF53F82010C4
:10131000D1F8205520C2C1F82055401C8442F5D890
:101320003CBD0000B02B000001B5684600F022F87B
:10133000009A01219140C0F80C1508BD01682029D0
:1013400002D24FF0A040704701F01F010160014838
:1013500070470000000300500168202902D24FF0BE
:10136000A040704701F01F01016001487047000074
:10137000000300500168202902D24FF0A0407047BE
:1013800001F01F0101600148704700000003005098
:101390000168202902D24FF0A040704701F01F01E0
:1013A00001600148704700000003005001682029D7
:1013B00002D24FF0A040704701F01F0101600148C8
:1013C000704700000003005001B56846FFF7D2FFE8
:1013D000009A01219140C0F8081508BD01B5684682
:1013E000FFF7D6FF009A01219140C0F8081508BD0B
:1013F00001B56846FFF7DAFF009A01219140C0F875
:10140000081508BD38B501240090684631B1FFF7D2
:1014100095FF00998C40C0F8084538BDFFF78EFF56
:1014200000998C40C0F80C4538BD0000034908B550
:101430000844002101600068009008BD0060004081
:1014400002494058012800D0002070470060004049
:1014500030B5154A01460020D2F8104423460AE070
:10146000DB681D79854205D1401C0A28F6DB4FF068
:10147000FF3030BD1B68002BF2D1431CF9D0CB6884
:101480001871D2F8103443B1DB68CC681B68236054
:10149000D2F81024D268116030BDC2F81014C968A7
:1014A00000220A6030BD00004C030020F0B595B06A
:1014B0001C4615460F4608461A9E00F055FB18219B
:1014C00009A8FEF748FF0E96CDE90954002308222B
:1014D00003A9384600F05DFB05980690BDF81000A2
:1014E000ADF81C00BDF81200ADF81E0000208DF80C
:1014F00021000398082600F00300012802D00228EA
:1015000018D032E003983346850AC0F3C2008DF844
:10151000200003980FA9C0F38314A200384600F0FE
:1015200038FB09A8009006AB22460FA9284600F018
:1015300077FA1AE00398840DC0F3C2008DF82000FA
:10154000082C01D2254600E0082533462A460FA97B
:10155000384600F01EFB2E44641B09AB06AA294640
:101560000FA800F0C5F9002CEAD1384600F002FBC4
:1015700015B0F0BD7047012001F03EB9084810B524
:101580000178084A515C19B1001D00F033FE02E0F9
:101590000C3000F02DFDBDE81040002001F02CB90A
:1015A000400000201000002008B5034A00924023AC
:1015B000024AFFF77BFF08BD29250000B401002087
:1015C0000A4A012902EBC00007D0022907D00329EB
:1015D00007D0042907D0002070470220704704205C
:1015E0007047007970474079704700008C2D0000EB
:1015F00010B5FFF7C0FF04210348FFF729FF024998
:101600000120C968487110BD7C2D00002DE9F0470C
:101610008CB0FFF7D3F918B100200CB0BDE8F0870B
:101620007D4C0020C4F81804BFF34F8F7B49A0689D
:1016300002900D684FF00008284004EB80000BE09A
:10164000D4F8180470B961680298814201D8A16089
:10165000E2E7284004EB80000C3002A9FFF764FAAF
:101660000028EDD1002003AA029901EA050304EB4A
:101670008303491CDB6842F82030401C0291022899
:10168000F2D3039800F00300022802D001284DD0C5
:10169000A7E003985022810D8946B2EB905F00D8F5
:1016A00050210E4666F39F50039008315C4800F0CD
:1016B00012FA070078D000F057FA4346082203A92F
:1016C000384600F06EFA029908F1080A2940681AB3
:1016D0008000001D864222D94F4D0C3530B1C2B278
:1016E00004EB8101301A90460C3104E02946F2B235
:1016F000002590462846C6B25346384600F051FAB7
:101700000AEB080325B132462946384600F049FA6B
:10171000029909F1030001EB900002903BE004EB19
:1017200081015346324638460C31EFE70398C0F347
:101730008310062800D30620039960F38911C1F3B2
:101740008310801C03918100354800F0C4F9070024
:1017500047D000F009FA4346082203A9384600F0B2
:1017600020FA08F1080800260FE00298434600EA34
:101770000501401C04EB81010290042238460C3123
:1017800000F00FFA08F10408761C0398C0F38310E8
:10179000B042EAD847B1D4F81054D4F8180478B15C
:1017A000384600F0E7F931E01BE0E86840790128AD
:1017B00004D12A682846394612689047E8680568C7
:1017C000002DF2D1384600F0D5F90020FEF7B9FF20
:1017D000D4F8180408B90298A0600020FEF7B3FFFF
:1017E00014E0D4F8104405E0216820468968884751
:1017F000E0680468002CF7D10A480B49401AC00879
:10180000022101EB004009A100F06EF8FFF7D6F8C5
:1018100080F0010001E700004C0300205C00002084
:10182000D42D0000CC2D00008C2D00004261636B94
:10183000656E647320666C757368656400000000F3
:101840002DE9F84F8146264FD01C15468A46800860
:10185000002269463E68FFF753F8DFF88880B0B38E
:10186000009CA01C009039683040091A8F003F1D71
:10187000BD4208EB800002D82A46514608E03A46AD
:1018800051460C30FEF74EFD1648EA1B0AEB0701E5
:101890000C30FEF747FD4FEA1947FFF7A3F847EA78
:1018A0000042601C304008EB8000344008EB8401AB
:1018B000C260C8684FF6C07269F3C500904365F313
:1018C0009F5020F00300801C20F00400C86098F8AE
:1018D000000001E0FFF79AFE0028FBD1BDE8F88F79
:1018E0005C0000204C03002000231A4600F0F2BEEA
:1018F0002DE9F0470E4680461C469246082940D8FE
:1019000094F80C90002020731946104600F084FDD6
:101910000025B54206D218F805201BA12046FFF786
:1019200027FB03E01AA12046FFF722FB6D1C082DC0
:10193000EFD318A12046FFF71BFB0025B54212D2BA
:1019400018F805707E2F08D8FEF7E8FC0068C05D27
:1019500010F03E0F01D03A4600E02E220EA12046A4
:10196000FFF706FB03E00DA12046FFF701FB6D1C0E
:10197000082DE3D301222146504600F02FFD84F8C4
:101980000C90BDE8F0870000202530327800000080
:10199000202020007C0000002563000020000000C3
:1019A000064910B500200870054800F0E1F800284D
:1019B00003D1044800F0FDF8002010BD4C030020C6
:1019C000D42D0000002C000002480349401AC00832
:1019D00070470000D42D00008C2D000013B5684620
:1019E000FFF7CCF908B100201CBD0248009950F85F
:1019F00031001CBD8C2D000070B508480125D0F8C1
:101A00001044057007E0E068457121682046496888
:101A10008847E0680468002CF5D170BD4C030020B5
:101A20002DE9FF4781460C9D00200C462F7B287333
:101A3000984616462946184600F0EEFC072E42D27C
:101A4000DFE806F004090F161F2A3600494628462B
:101A5000FFF78EFA37E0494628462268FFF788FAF2
:101A600031E0D4E9002349462846FFF781FA2AE00D
:101A7000A0680090D4E9002349462846FFF778FA89
:101A800021E0D4E90201CDE90001D4E9002349466F
:101A90002846FFF76DFA16E004F1080007C88DE844
:101AA0000700D4E9002349462846FFF761FA0AE017
:101AB00004F108000FC88DE80F00D4E9002349465F
:101AC0002846FFF755FA00222946404600F086FCDA
:101AD0002F73BDE8FF872DE9F041058A80462D1F51
:101AE0004819C01CB0FBF5F0C6B24046FFF780F9BC
:101AF000041E19D00020207101206071E5800027AC
:101B00002546761EC4F800800BE04046FFF770F9CA
:101B100060B16179491C6171286005467F1CC0F87D
:101B20000080B742F1D32046BDE8F081204600F0A6
:101B300002F80020F8E72DE9F041457901466B1ED7
:101B4000002201E00968521C9A42FBD30F6801464B
:101B5000002605E038460C68FFF769F92146761C37
:101B6000AE42F7D3BDE8F0810121001DFFF724B993
:101B7000FFF772B910B504460121001DFFF732F9D5
:101B800010F0FF0F04D12046BDE81040FFF7D3BF8F
:101B900010BD1CB501920122009201AAFFF7AEF818
:101BA0001CBD1CB501920022009201AAFFF7A6F805
:101BB0001CBD826800219160826811618268516158
:101BC0008268D160826851608068016070474058C7
:101BD000002800D0012070474058002800D0012084
:101BE000704708B5002242504058009008BDD0F818
:101BF0000403084000D0012070474058002800D05E
:101C00000120704708B5002242504058009008BD9E
:101C10000121B1EB507F01D10120704700207047B6
:101C20000121B1EB507F01D10120704700207047A6
:101C300070B50D4600F03CFC04000FD00020FEF70C
:101C400080FD207920B10020FEF77DFD112070BDC0
:101C50000120256020710020FEF775FD002070BD79
:101C600010B500F025FC002802D0002101600171B0
:101C700010BD00002DE9FC470C4615460179804651
:101C8000554A01EBC10002EB80069946307F10B146
:101C90000820BDE8FC87514AD8F80000074652F8F2
:101CA0002110FFF7C5FF08B11120F2E7C6E900597E
:101CB000207B0128207802D8FFF736FB01E0FFF7F0
:101CC00083FB4FF0000ACDF800A0CDF804A02078E7
:101CD000534652460121FFF76AFA60784FF0FF350C
:101CE000FF2806D08146FFF71FFB4846FFF7CEFAD4
:101CF00000E0A946A078FF2809D00022054601236C
:101D0000CDF800A01146CDF804A0FFF750FAA07856
:101D100086F82000E078F077E078FF280BD0217972
:101D200011B1FFF701FB01E0FFF74EFBE078FFF791
:101D3000ADFA2079B0772178C7F80815C7F80C9567
:101D4000C7F81055A068C7F82405217B607B00B157
:101D50000120012904D0022905D0032908D105E07A
:101D600040F0020004E040F0040001E040F0060012
:101D7000C7F85405A079C7F8C0050720C7F80005C3
:101D80003068012218B3D8F80000617940F30730B9
:101D900000284FEA411104DB00F1E02080F8001434
:101DA00005E000F00F0000F1E02080F8141DD8F8E5
:101DB000000040F30730002809DB00F01F0102FAA1
:101DC00001F14009800000F1E020C0F80011504608
:101DD00086F81DA032775CE740010020B82B000098
:101DE0002DE9F04105460F460079154900EBC0008A
:101DF00001EB80041646607F10B11120BDE8F08130
:101E0000206820B116F0140F01D10120607797E807
:101E10000F0004F10C0888E80F00E07FFF2806D0CF
:101E2000A17F11B1FFF7D0FA01E0FFF77DFA334649
:101E30003A4621462868BDE8F04100F0EDBB0000BD
:101E4000400100200149024800F0FEBC640100206E
:101E5000002000402DE9F0410546007916460F4666
:101E600000EB40012D4A01EBC00102EB810494F824
:101E70002A1011B10820BDE8F081294951F820103D
:101E80002868FFF7D5FE08B11120F4E73946284647
:101E9000FEF76EFC66603869206030004FF0010686
:101EA0002FD03F7F4FF48E712868FFF79AFE4FF4D2
:101EB000A2712868FFF795FE28681A49C0F8041334
:101EC00028684FEA471140F30730002804DB00F18F
:101ED000E02080F8001405E000F00F0000F1E020A1
:101EE00080F8141D286840F30730002809DB00F053
:101EF0001F0106FA01F14009800000F1E020C0F85E
:101F0000001128680421C0F800150020A061E061DC
:101F100084F8290044F8140FA675ACE7640100208A
:101F2000BC2B0000800002002DE9F05F054600791F
:101F30000B4600EB400101EBC000244901EB80049B
:101F4000284600F045F810B11120BDE8F09F62610D
:101F50004FF00009C4F82090A36084F828904FF453
:101F60008E784E4641462868FFF73BFE28684FF0C2
:101F7000010AC0F808A02146286800F0F5FB606857
:101F800008BBD5F800B067690FE000BF94F82800DF
:101F900008B10F2615E041465846FFF71DFE002800
:101FA000F4D02146584600F0DFFB206AB842F2D355
:101FB000574641462868FFF70FFE0028F9D02868E9
:101FC000C760C4F814903046BFE7000064010020E9
:101FD000007900EB400101EBC000044901EB8000F7
:101FE0004069002800D001207047000064010020F3
:101FF0002DE9F047044600794FF0000900EB40015D
:1020000001EBC000284901EB80072068C0F800956B
:102010007868B0B120682549C0F80813206840F3FB
:10202000073000280DDB00F01F020121914040091C
:10203000800000F1E020C0F88011BFF34F8FBFF3A4
:102040006F8F2068D0F80C25D0F81485D0F808657B
:10205000D0F810554FF0FF31C0F81415C0F80C152A
:102060002068C0F80815C0F81015501C02D01046A2
:10207000FFF7E8F8B8F1FF3F02D04046FFF7E2F87B
:10208000681C02D02846FFF7DDF8701C02D03046ED
:10209000FFF7D8F82068FFF7E3FD87F82A90C7F824
:1020A0000490BDE8F0870000640100208402020073
:1020B0000149024800F076BC900100200020004059
:1020C0002DE9F0410546164600790F46154A00EB0A
:1020D000C00102EB810494F8201011B10820BDE882
:1020E000F081114951F820102868FFF7A1FD08B1CF
:1020F0001120F4E739462846FEF775FB666038691B
:1021000020601EB1397F2846FEF7CAFC28680821E6
:10211000C0F800150020A061E0616061012184F831
:102120002010DCE790010020C02B00002DE9F047D3
:1021300004460E460079274900EBC00001EB8005FC
:1021400017463046FFF76CFD30B1204600F044F8EA
:1021500020B11120BDE8F0871020FBE76F61AE6071
:102160004FF490774FF0000839462068FFF74AFD9A
:102170004FF4AC7631462068FFF744FD2068AA682A
:102180006969C0F84425C0F8481520684FF0010976
:10219000C0F808906868D0B9BA4651462068FFF781
:1021A0002CFD074631462068FFF727FD0743F4D092
:1021B00010B14FF00F0808E02068C0F80C903146CD
:1021C0002068FFF71AFD0028F9D00020686140461A
:1021D000C0E70000900100200079054900EBC00035
:1021E00001EB80004069002800D00120704700000A
:1021F000900100202DE9F047064600793D4900EBAB
:10220000C00001EB8005346868680127A8B13A492D
:10221000C4F80813306840F3073000280DDB00F0E5
:102220001F0107FA01F14009800000F1E020C0F829
:102230008011BFF34F8FBFF36F8FD4F8000220F0EF
:102240002000C4F80002A8694FF4A27820B14146EA
:102250002046FFF7D7FC67604FF4AC79494620462B
:10226000FFF7D0FCE760474649462046FFF7C5FC2C
:102270000028F9D0A86928B139462046FFF7BDFCEF
:102280000028F1D04FF0000AC4F800A53068D0F85B
:102290000C25D0F81495D0F80885D0F810754FF0BB
:1022A000FF31C0F80C15C0F814153068C0F80815D7
:1022B000C0F81015501C02D01046FEF7CCFFB9F143
:1022C000FF3F02D04846FEF7C6FF781C02D03846D2
:1022D000FEF7C1FFB8F1FF3F02D04046FEF7BBFF5B
:1022E0002046FFF7BDFC85F820A0C5F804A0BDE896
:1022F000F087000090010020100342002DE9F84F04
:10230000314F05464FF001090024381990F960104B
:10231000491C46D090F86000294620F0C00630469F
:10232000FEF7B2FD70B3204600F050F882466846D2
:102330000096FFF711F8009900EB8100D0F8000734
:10234000C0F30148B8F1020F1DD002213046FEF75C
:10235000BBFF68460096FEF7FFFF009A09FA02F1FC
:10236000C0F820153046FEF735FB57F820204AB15B
:102370005046BAF1030F11D0B8F1020F05D0B8F1F1
:10238000030F07D00DE00321E0E75046BAF1010F3B
:1023900004D006E05046BAF1020F02D101463046A1
:1023A0009047641C042CB0D32A4602210020FEF77B
:1023B000A3FF002055F820100029A5D1401C0228B9
:1023C000F8D3BDE8F88F0000D4000020024908448B
:1023D00090F8600080097047D400002010B50C46CA
:1023E000017A052908D0407A38B1084808A1026866
:1023F0002046FEF7BDFD00E01AB106A12046FEF71B
:10240000B7FD2046BDE81040FEF7BFBD8C000020A0
:10241000257300000D0A000038B5C3880D46044638
:1024200033B114A0009015A216A12846FEF7A0FD16
:10243000217A05291CD0607A48B1A088FFF7C0F83E
:10244000164951F8202016A12846FEF791FDA088D4
:102450000021FFF7C3FA03461049207A143951F8D6
:10246000202001B02846BDE830400EA1FEF780BD17
:1024700038BD00001B5B306D000000001B5B313B72
:1024800033316D0025734C6F67732064726F707009
:102490006564202825642925730D0A008C0000201E
:1024A000257300003C25733E2025733A2000000070
:1024B0000349884201D1034870470020704700005B
:1024C000002000402400002070B5054688690C46B5
:1024D00000284FF4847128460AD0FFF782FBD5F814
:1024E0001805626AE1688854606A401C606270BDC9
:1024F000FFF777FBD5F8180570BD1FB501238DF8E0
:102500000030CDE90121D0E90012684690471FBD97
:102510001FB501238DF80030CDE90121D0E900126B
:10252000684690471FBD000070B50D4C0020D2B228
:102530002070201D0B4D0378EB5C1BB1001DFFF7D5
:10254000F5FD02E00C30FFF7EFFC08B1FEF7EEF806
:102550006078002802D021780029FAD070BD0000F0
:102560003C00002010000020124910B50120087026
:1025700011481249401AC108032000EB01400446EB
:102580000FA1FFF7B1F90B480830007800280FD0F1
:10259000204610A1FFF7A8F906480830FDF7E6FE2F
:1025A00082B220460349BDE810400831FFF748B920
:1025B00010BD000000000020CC2D00008C2D00007C
:1025C0005472616E7366657220636F6D706C6574B2
:1025D00065642E002052656365697665643A000083
:1025E00000B585B00A4601788DF800104168019168
:1025F000017A8DF80810C1680391007C8DF81000F5
:10260000044850F82210103850F8222068469047AD
:1026100005B000BDC40000202DE9F8430446106851
:102620001E4615460F464FF0000810B1FFF7F0FAAE
:10263000F8B1A86810B1FFF7EBFAD0B1D5E9000105
:10264000C4F84405C4F84815D5E90201C4F83405B6
:10265000C4F838154FF48C754046C4F81881D4F886
:1026600018110091F2074FF0010107D0C4F850157E
:1026700006E087F81D801020BDE8F883C4F85005F7
:10268000B20702D5C4F8401501E0C4F84005300790
:1026900000D42161386848B146F38000401C4FF0F7
:1026A000400014D0C4F804030020E5E72946204682
:1026B000FFF78DFA0028F9D0F87FFF28F4D0B97F12
:1026C00011B1FEF731FEEFE7FEF77EFEECE7C4F84E
:1026D0000803E9E72DE9F84F074621489146884667
:1026E00005681E46012269461846FEF709F9DFF81B
:1026F00074A060B3009800210446801C0AE000BF6B
:1027000000EA050259F821C00AEB8202401C491C6C
:10271000C2F80CC0B142F3D34FEA1749FEF762F991
:10272000611C29400AEB810149EA00422C40CA6041
:102730000AEB8401C86867F3C50066F3891068F383
:102740009F2020F00300401C20F00400C8609AF88D
:10275000000001E0FEF75AFF0028FBD1BDE8F88F2A
:102760005C0000204C03002070B50C4605464FF479
:102770008E71FFF736FA216AA068415C206A401C1E
:102780002062C5F81C1570BD1FB500228DF8002011
:102790000291816801914261D0E900126846904738
:1027A0001FBD1FB500228DF80020029181680191A4
:1027B0004261D0E90012684690471FBD1FB50A4626
:1027C00001788DF8001041680191017A8DF80810A8
:1027D000C0680390044850F82210083850F82220AE
:1027E000684690471FBD00001C00002001490120E1
:1027F000087070473C00002010B588B004462022C5
:102800000E496846FDF78EFD06200090C01F01901E
:10281000029003904FF0EB7006900CB1084A00E074
:10282000002269460748FEF76FFB08B1FDF77EFFFF
:102830000448001F447008B010BD0000E02B0000E9
:10284000ED270000400000202DE9FF470C4605461B
:102850004FF40071FFF7CBF901274FF40178002600
:1028600018B34FF4927949462846FFF7B5F9E0B11D
:1028700049462846FFF7B5F9C5F8088394F82900BA
:1028800000B96F6002208DF80000D5F88004C5F80B
:1028900080040390A0690290E0680190A661E6615F
:1028A000D4E900126846904728E004212846FFF743
:1028B0009EF918B34FF484712846FFF78DF9E8B1FB
:1028C00021462846FFF700FE616AA069884215D1BB
:1028D000E06938B1E268616AA0612069E661666218
:1028E000E06008E094F8290000B96F60C5F808833B
:1028F000A661E268616A2046FFF7FFFD4FF48E781B
:1029000041462846FFF768F980B16069216A814233
:1029100002D294F8280028B341462846FFF761F90F
:10292000606918B161692046FFF72EFF4FF4A27865
:1029300041462846FFF750F9002818D0414628465E
:10294000FFF74FF994F8290000B12F60A069002823
:102950000DD0A661E268616A04B02046BDE8F04788
:10296000FFF7CBBD21462846FFF7FEFEDEE7BDE8B8
:10297000FF8700001FB50A4601788DF800104168F6
:102980000191017A8DF80810C0680390044850F84E
:102990002210083850F82220684690471FBD0000DA
:1029A0001C0000202DE9FF410C464FF492770546AC
:1029B0003946FFF722F90026B8B139462846FFF715
:1029C00021F902208DF80000D5F88004C5F88004B4
:1029D0000390D5F83C050290E0680190A661E6619D
:1029E000D4E900126846904723E04FF488773946CF
:1029F0002846FFF702F9E0B139462846FFF702F909
:102A0000D5F83C15A069884213D1E06960B1E2684D
:102A1000D5F8000220F02000C5F80002E069A061AE
:102A20002069E661E06001E0A661E2682046FFF708
:102A30006FFD4FF4A27739462846FFF7DEF868B1FC
:102A400039462846FFF7DEF8A06938B1A661E6618D
:102A5000D5F83C152046E268FFF75AFD4FF4907612
:102A600031462846FFF7C9F860B131462846FFF7DE
:102A7000C9F80120E860606920B1D5F84C152046FE
:102A8000FFF78FFE4FF4AC7631462846FFF7B5F8D6
:102A900000280ED031462846FFF7B4F860690028B8
:102AA00007D0D5F84C1504B02046BDE8F041FFF73B
:102AB00078BEBDE8FF8100002DE9F05F8346DDE9C7
:102AC0000A4A994690460D460846012703E000BF92
:102AD000B0FBF8F07F1C4045FAD2B94500D94F460B
:102AE0005FEACA7012D18CB15FEA8A7002D5B9F17F
:102AF000000F01D0202607E0302605E03146584679
:102B0000641EFDF743FF0CB1A742F7D35FF0010647
:102B1000B9F1010F02D9A9F1010903E0B5FBF6F003
:102B2000404502D306FB08F6F2E7DFF83C9000BF11
:102B3000B5FBF6F000FB165519F800105846FDF7E6
:102B400025FFB6FBF8F6002EF2D15FEACA7009D075
:102B5000002C07D0A74205D220215846641EFDF75D
:102B600015FFF5E7BDE8F09FC42B00000000000052
:102B70000338FDD87047000000000000003000401E
:102B80000000000001000000FFFFFFFF06FF000043
:102B900000000040000000000D0E0F100B0C181973
:102BA000FFFFFFFF0006FF000000004000000000E4
:102BB000000000500003005055040000451E0000B6
:102BC000B1200000303132333435363738394142A4
:102BD00043444546A91500007D1500007515000009
:102BE000FFFFFFFFFFFFFFFFFFFFFFFFFFFFFFFFF5
:102BF00000000000000000000000D60106010000F7
:102C0000B40200207F000000340300200040404058
:102C100040404040404041414141414040404040AF
:102C2000404040404040404040404040400502025B
:102C3000020202020202020202020202022020201A
:102C40002020202020202002020202020202909076
:102C50009090909010101010101010101010101074
:102C600010101010101010100202020202028888C8
:102C700088888888080808080808080808080808D4
:102C800008080808080808080202020240000000BC
:102C90000D2C00007761726E696E67006465627565
:102CA000670000001B5B313B33306D001B5B306DF8
:102CB000000000001B5B313B33316D001B5B313B7F
:102CC00033326D001B5B313B33336D001B5B313B9B
:102CD00033346D001B5B313B33356D001B5B313B87
:102CE00033366D001B5B313B33376D00696E666FA9
:102CF000000000006572726F720000004750494F7B
:102D000054450000505253005350494D00000000FC
:102D100055415254000000005541525445000000F6
:102D20006170705F627574746F6E00006170705FC7
:102D300074696D6572000000736F72746C697374EE
:102D400000000000756172745F6C6F675F626163A1
:102D50006B656E640000000061707000E82D00007B
:102D600000000020B4000000880600009C2E000037
:102D7000B4000020BC26000098060000D42B000000
:102D800000000000442D000054000020FC2C000036
:102D900000000000042D000000000000082D0000CD
:102DA00000000000102D000000000000182D0000A1
:102DB00000000000202D0000000000002C2D00006D
:102DC00000000000382D000000000000582D000019
:102DD000000003036800002060000020680000205D
:102DE000F401002018000000004E6F726469630057
:102DF00000000000000000000000000000000000D3
:102E000000000000000000000000000000000000C2
:102E100000000000000000000000000000000000B2
:102E20000000000000000000000000000020004042
:102E30000000000000200040000000000000000032
:102E4000FF000000FF000000000000000000000084
:102E50000000000000000000000000000000000072
:102E600000000000F42C0000942C0000EC2C00006A
:102E70009C2C0000AC2C0000A42C0000B42C000002
:102E8000BC2C0000C42C0000CC2C0000D42C000072
:0C2E9000DC2C0000E42C00000090D003BB
:0400000500000201F4
:00000001FF
