:020000040000FA
:10000000002F0020C1030000C9030000CB03000043
:10001000CD030000CF030000D1030000000000006A
:10002000000000000000000000000000D3030000FA
:10003000D503000000000000D7030000D903000032
:10004000250700007D070000050A0000DB03000013
:10005000DB030000DB030000DB030000DB03000028
:10006000B5090000DB030000DB030000DB03000038
:10007000DB030000DB030000DB030000DB03000008
:10008000DB030000D1070000DB030000DB030000FE
:10009000DB030000DB030000DB030000DB030000E8
:1000A000DB030000DB030000DB030000DB030000D8
:1000B000DB030000DB030000000000000000000084
:1000C000DB030000DB030000DB030000DB030000B8
:1000D000DB030000DB030000DB030000DB030000A8
:1000E000DB030000DB030000DB0300000000000076
:1000F00000000000DB03000000000000DB03000044
:1001000000000000000000000000000000000000EF
:1001100000000000000000000000000000000000DF
:1001200000000000000000000000000000000000CF
:1001300000000000000000000000000000000000BF
:1001400000000000000000000000000000000000AF
:10015000000000000000000000000000000000009F
:10016000000000000000000000000000000000008F
:10017000000000000000000000000000000000007F
:10018000000000000000000000000000000000006F
:10019000000000000000000000000000000000005F
:1001A000000000000000000000000000000000004F
:1001B000000000000000000000000000000000003F
:1001C000000000000000000000000000000000002F
:1001D000000000000000000000000000000000001F
:1001E000000000000000000000000000000000000F
:1001F00000000000000000000000000000000000FF
:10020000DFF80CD000F0F4F900480047ED420000A0
:10021000002F002030B450E8012F93B2C48923444A
:100220008489A34228BF1B1B0489A34202BFBFF3DA
:100230002F8F002007E0C3EA020340E80134002CBE
:10024000E9D14FF001000A6030BC704750E8012F3F
:10025000C2EA024240E801210029F7D1704730B4D8
:1002600050E8022F1FFAA2F3C488A34202BFBFF3D3
:100270002F8F00200DE0C48923448489A34228BF26
:100280001B1BC2EA034340E80234002CE8D14FF0C4
:1002900001000A6030BC704750E8022FC2EA2242D7
:1002A00040E802210029F7D17047034653E8022FA6
:1002B000D988B2EB324F4FF0000017BF92B241EA3B
:1002C000014142EA014104E05A68B2EB324F08BFF3
:1002D000012043E80212002AE8D1704730B40446F6
:1002E00054E8000F0D4644E80053002BF8D1156088
:1002F00030BC704730B4044654E8000F40EA0105B2
:1003000044E80053002BF7D1156030BC704730B47F
:10031000044654E8000F00EA010544E80053002BAE
:10032000F7D1156030BC704730B4044654E8000F74
:1003300080EA010544E80053002BF7D1156030BC7A
:10034000704730B4044654E8000F00EB010544E860
:100350000053002BF7D1156030BC704730B4044611
:1003600054E8000FA0EB010544E80053002BF7D13F
:10037000156030BC704770B404464FF0000054E87C
:10038000006F0D68AE4207BF44E80023012044E837
:1003900000630E60002B1CBF0020F0E770BC7047AC
:1003A00030B4044654E8000F88422CBF451A054675
:1003B00044E80053002BF5D1156030BC70470000B5
:1003C0000648804706480047FEE7FEE7FEE7FEE7EF
:1003D000FEE7FEE7FEE7FEE7FEE7FEE7E1070000D7
:1003E00001020000202A04DB203A21FA02F0002159
:1003F000704721FA02F3D040C2F120029140084335
:100400001946704700487047408800002DE9FE43B8
:10041000994615468846074601AC022942D3002D6D
:1004200040D000200290A8F101004FF0FF3600906C
:1004300022E000FB057201FB057011464A46904719
:10044000002805DC54F82600304444F8260013E068
:1004500060682A4600FB057154F8040C00FB057027
:1004600007E00B7890F800C001F801CB00F8013BE1
:10047000521E002AF5D1764254F8040C6168884275
:10048000D7DC4B462A463846FFF7C0FF54F8040C29
:100490004B46A8EB0001401C00FB05702A46491E94
:1004A000FFF7B4FFBDE8FE8310B5431A934209D2AB
:1004B0008318881803E010F8011D03F8011D521E6F
:1004C000F9D210BD40EA01039B0703D009E008C937
:1004D000121F08C0042AFAD203E011F8013B00F809
:1004E000013B521EF9D210BDD2B201E000F8012B3F
:1004F000491EFBD270470022F6E710B513460A46A4
:1005000004461946FFF7F0FF204610BD421C10F8C4
:10051000011B0029FBD1801A704710B5002200E0B2
:10052000521C835C8C5CA34201D1002BF8D1D8B261
:10053000E1B2401A10BD034611F8012B00F8012B5F
:10054000002AF9D11846704730B505460020034609
:1005500000E05B1C934205D2EC5CC85C201A01D120
:10056000002CF6D130BD70B5064600F051FA046893
:1005700005460A220021304600F002F82C6070BDCA
:100580002DE9F04791460F4680460446002614F8B0
:10059000015B2DB1FFF736FF0068405DC007F6D163
:1005A0002B2D02D02D2D18D0641E4A4639462046E8
:1005B00000F030F827B13968A14201D1C7F80080B6
:1005C00071054FF002040BD54042002803DD00F016
:1005D0001FFA0460A007BDE8F08746F48066E4E7F0
:1005E0000028F8DA00F014FA04606FF00040F2E737
:1005F000064C074D06E0E06840F0010394E8070070
:1006000098471034AC42F6D3FFF7FEFDB8980000CF
:10061000D89800002DE9F05F824600780027154643
:100620008B460AF10104B946302801D09DB113E090
:1006300014F8010B0127782803D0582801D045B1C0
:100640000AE00DB1102D07D10027102514F8010B79
:1006500002E0082500E00A250026B0460EE005FB72
:10066000080005FB06F1012701EB10461FFA80F890
:10067000B6F5803F00D3B94614F8010B294600F0C7
:1006800018F80028EBDABBF1000F05D00FB1641E9B
:1006900000E05446CBF80040B9F1000F06D000F05E
:1006A000B7F902210160C81EBDE8F09F48EA064084
:1006B000FAE73A2800D2303820F02002412A01D34C
:1006C000A2F13700884201D34FF0FF30704770B578
:1006D0008C1810F8015B15F0070301D110F8013BED
:1006E0002A1106D110F8012B03E010F8016B01F874
:1006F000016B5B1EF9D12B0705D40023521E0DD4CC
:1007000001F8013BFAE710F8013BCB1A921C03E019
:1007100013F8015B01F8015B521EF9D5A142D8D351
:10072000002070BD70B54FF48076304604F0D8FDDF
:10073000114CB50560B1304604F0D9FD0120C5F873
:100740000803607920B90120607121680020884782
:100750004FF48276304604F0C3FD00280AD03046BC
:1007600004F0C5FD0220C5F808032168BDE870400B
:100770000120084770BD00009C00002070B54FF4B8
:100780009875284605F080FD104C28B1284605F0E4
:1007900083FDE068401CE0604FF48675284605F054
:1007A00073FD002810D0284605F076FDA068401C97
:1007B000A06061688968814206D106F015FD606815
:1007C000C068BDE87040004770BD000078000020A0
:1007D00002490248091F096800680847F000002024
:1007E00070B54FF080520124D2E94C100023082943
:1007F00006D1CD06C5F80C31C5F810315E4D2B6021
:10080000082955D15D4D2D685D4E35605B4D2D1D20
:100810002D68361D3560594D08352D68361D3560FB
:10082000564D0C352D68361D3560544D10352D68EC
:10083000361D3560514D14352D68361D35604F4DD0
:1008400018352D684E4E203635604C4D1C352D68C0
:10085000361D3560494D20352D68361D3560474DB4
:1008600024352D68361D3560444D28352D68361DDC
:100870003560424D2C352D68361D35603F4D303585
:100880002D683F4E403635603C4D34352D68361D61
:1008900035603A4D38352D68361D3560374D3C355D
:1008A0002D68361D3560354D40352D68361D356057
:1008B000082904D1050002D1334E324D3560082994
:1008C00004D1050002D1314EFB253560082908D13D
:1008D000050006D192F858622D4A156866F30305A3
:1008E0001560082904D1020002D12A4D8A012A602C
:1008F000082906D128480168C90702D06FF0010114
:1009000001602648016841F470010160BFF34F8F18
:10091000BFF36F8F4FF01021D1F80002002803DBE6
:10092000D1F80402002822DA1D4A14601D48046828
:10093000002CFCD01224C1F800420568002DFCD028
:10094000C1F8044201680029FCD013600168002945
:10095000FCD0BFF34F8F11487C380168124A01F474
:10096000E06111430160BFF34F8F00BFFDE7104905
:100970000E48086070BD00003805004004040010F7
:1009800020C50040488103008C56004018F5004007
:10099000E40E0040409602400004004088ED00E074
:1009A00004E5014000E401400400FA050090D00392
:1009B000980100202DE9F047104E042700244FF441
:1009C000A0784FF4803900BF08EB840509FA04F0E1
:1009D000715961B1D6F80413014208D02946304656
:1009E00005F0CEFD0648D0E9002128469047641C5A
:1009F000E4B2BC42E8D3BDE8F087000000800040CC
:100A0000940800200148006800470000A40000206E
:100A1000004870479C01002002E008C8121F08C16E
:100A2000002AFAD170477047002001E001C1121F6F
:100A3000002AFBD17047000072B605F009FA00BF2A
:100A400004F0B4FF0028FBD1144D154915486A88FD
:100A5000081AC4082AB1012000EB044012A105F0D5
:100A6000DFF814480068C00700D000BE688802287C
:100A700005D3022000EB04400FA105F0D1F8BFF32D
:100A80004F8F0C48E43801680F4A01F4E0611143CC
:100A90000160BFF34F8F00BFFDE700003802002068
:100AA000289A0000B0990000466174616C2065725C
:100AB000726F7200F0ED00E053797374656D20720F
:100AC00065736574000000000400FA050EB500218E
:100AD0000091CDE901106A4644F20100FFF7ACFF36
:100AE0000EBD0000014802F0B6BC0000B8000020B6
:100AF0003AB100680129426100D000210161002063
:100B0000704707207047000038B511480823582265
:100B1000416800910F49006803F0A8FD002815D135
:100B20000D4A69460D4802F09BFC04000ED10121DC
:100B30000A4802F01AFD0123094A1946074802F043
:100B400062FC0649012008390870204638BD0000C3
:100B5000B0830000F008002075750000B800002088
:100B6000FFFF7F0070B5044690F820000D4608B1E5
:100B7000002070BDA26102F04BFE401941F100015E
:100B8000C4E90201206900B125612146BDE8704039
:100B9000002006F079BF0146002081F820000120E6
:100BA00006F072BF00F002B800F008B872B6024852
:100BB0000168491C01607047E8000020034908688B
:100BC000401E086000D162B670470000E8000020B7
:100BD00070B5054608680C46411C04D004F0AEFD13
:100BE000206804F07BFD6068411C02D0002104F005
:100BF00063FD2968A069C1F82405607D227D29680C
:100C00001043C1F86C05D4E900122868C0F8142517
:100C1000C0F80C15207D012814D1A068411C02D019
:100C2000002104F049FDE068411C04D004F086FD79
:100C3000E06804F053FDD4E902122868C0F80825E2
:100C4000C0F8101570BD70B5054608680C46411C0B
:100C500004D004F07DFD206804F04AFD6068411C6A
:100C600002D0002104F031FD2968A069C1F82405F3
:100C7000607D217D2A680843C2F86C05D4E9001222
:100C80002868C0F80C15C0F81425207D012814D15F
:100C9000A068411C02D0002104F017FDE068411C4F
:100CA00004D004F055FDE06804F022FDD4E90212FE
:100CB0002868C0F80825C0F8101570BDF0B50022EE
:100CC0000D4BCA60C1E901230C4B0D4D1446EE1AC1
:100CD0000A600CE003EB0215EF683F79FF2F05D0A7
:100CE000A04202D1A8680860F0BD641C521CB2EB9F
:100CF000161FEFD3F0BD0000588600009099000049
:100D0000B09900002DE9F0470546861C91460F4634
:100D10004FF0010A0020FFF745FF1B4C04F21C486E
:100D200060683860D4E90101184F401A3968081A20
:100D30000EE00121404603F0E4FC03F0E5F9014632
:100D4000404603F0DEFCD4E90101401A3968081A74
:100D5000401C8642EDD8B9F1000F03D0052065F3A1
:100D6000891002E0062065F39F5061683A681140DF
:100D700004EB8101C8606068304460600020FFF7C8
:100D800013FF5046BDE8F087E00A00201C01002058
:100D900070B50D4604460A2902D10D21FFF7F8FF70
:100DA000A0682268411CA1601554D4E90101814268
:100DB00004D32046BDE8704004F041BB70BD000084
:100DC000044881684068814201D1012070470020B9
:100DD00070470000E00A002070B5816804468A7FF1
:100DE000002A4DD0C87F00284AD0121A0844D5B234
:100DF00000F120016A1C1F30FFF756FBA068C17F7D
:100E0000491EC177A068817F491E81778DB3082272
:100E10001C49206904F006FB204603F0FFFB8178A3
:100E2000C078814211D1A06817A2C17F4318082160
:100E30002046203304F006F8204600F013F9294636
:100E40002046BDE8704002F0D1B9204600F01EF9FE
:100E5000204600F007F9A0680BA2C17F43180821C3
:100E60002046203303F0EEFF2046BDE8704000F03E
:100E700003B92069BDE87040044A03A104F0D2BA66
:100E800070BD000060100000257300009185000017
:100E900070B504468068827FC17F521A12F0FF0548
:100EA0003AD0084400F121012A462030FFF7FCFA2D
:100EB000A068817F491E8177204603F0AFFB8178CF
:100EC000C078814214D1A06814A2C17F43180821C0
:100ED0002046203303F0B6FF114A10A1206904F028
:100EE000A1FA6D1EE9B22046BDE8704002F07EB95D
:100EF000204600F0CBF8204600F0B4F8A06807A226
:100F0000C17F431808212046203303F09BFF204671
:100F1000BDE8704000F0B0B870BD0000257300005F
:100F2000958500002DE9F041044680680F46D0F811
:100F30006411C27F11F00106817FA1EB0203DDB2D3
:100F40000BD07F2901D3002D7ED0A068C17F08443B
:100F5000002180F8207066B113E07F297CD2002D3B
:100F6000F3D0831803F120012A46481CFFF79CFAAE
:100F7000EBE7A068827F521CD2B28277A068203251
:100F800081544DB3204603F049FB8178C0788142FB
:100F90000ED1A06831A2C17F43180821204620331A
:100FA00003F050FFA81BC1B2204602F01FF921E058
:100FB000204600F06BF8A06828A2C17F43180821E2
:100FC0002046203303F03EFF204600F055F8012173
:100FD000204602F0E5F90DE03EB1A068827F521C88
:100FE000D2B28277A068203281543A461CA120698F
:100FF00004F018FAA168C87F401CC877204602F0A8
:10100000E2F80028204603D0BDE8F04102F0FAB82B
:1010100002F0B7FB00281FD0204603F0FFFA054678
:10102000C078A978401A401EC1B2204602F06CF880
:10103000204602F0E7F8E878A978401AC1B22046C5
:1010400002F0BAF9287800E006E0401EC1B220465E
:10105000BDE8F04102F0A4B9BDE8F08125730000BD
:10106000256300000069024A02A104F0DBB9000018
:1010700089850000257300000069024A024904F0D6
:10108000D1B9000083850000741000000069024A95
:10109000024904F0C7B90000808500007410000008
:1010A0002DE9F04F4FF0000995B005464F464C46EC
:1010B00001F0BAFE284602F0D7FC284602F030F8CC
:1010C000284602F080F810B9284602F09BF8AA687A
:1010D0000C2301A90EA8203203F07AF903460E98DA
:1010E00040B15BB149A20221284603F0ABFE15B026
:1010F000BDE8F08F284602F085F8F8E749484849EE
:101100000026A1EB00080DF1040A834613E008D382
:1011100045A0009049A202212846019B03F092FEBF
:10112000E5E70BEBC604606801685AF82900FFF791
:10113000F4F918B1761CB6EBD80FE8D94FF00000DF
:101140000F90A96848608860C86008616168C868D5
:1011500028B14AC9AA68C2E90360C2E901136068FC
:1011600009F101044FF00006D0F808800E9884427F
:1011700035D25AF8240033A1FFF7CFF940B35AF81B
:10118000240031A1FFF7C9F910B310A8324600902E
:10119000761C0FAB2146404600F0BEFEFEB10F9814
:1011A000E8B101685AF82400FFF7B7F90028DDD14B
:1011B0000F98C16839B190E84810AA682746C2E97B
:1011C00003C1C2E901360026641CD0F80880CDE7CF
:1011D000A868D0F8641141F00201C0F86411A86851
:1011E000036933B10E980AEB8702C11B2846984762
:1011F00004E017A20221284603F024FEA868D0F8D4
:10120000641121F00201C0F8641170E76E6F742060
:101210007465726D696E617465643A2025630A00B5
:1012200090990000D89800003A20636F6D6D616E50
:1012300064206E6F7420666F756E6400257325736D
:101240000A0000002D6800002D2D68656C700000FC
:10125000506C6561736520737065636966792061A0
:1012600020737562636F6D6D616E642E0A000000FD
:101270008068D0F86401C0F3C00070472DE9F041E8
:101280000446C0688EB00D464068002632460068AD
:1012900001A904F0BBFE18B100200EB0BDE8F0813A
:1012A0006DB1019804F092FEA168D1F85401401C80
:1012B000C1F8540100F0070001287AD10126204628
:1012C00003F0ACF905468078012804D9401EC1B26C
:1012D000204602F071F82878012804D9401EC1B2D6
:1012E000204601F083FF2046FFF7BCFE2EB132A25C
:1012F0000221204603F0A6FD5BE04FF0000800232A
:10130000082202A9019804F070FE04980590BDF827
:101310000C00ADF81800BDF80E00ADF81A008DF8FD
:101320001D800298082700F00300012802D002283F
:1013300018D032E002983B46860AC0F3C2008DF80E
:101340001C00029808A9C0F38315AA00019804F0B4
:101350004CFE2069009005AB2A4608A9304604F0EF
:101360008BFD1AE00298850DC0F3C2008DF81C00B9
:10137000082D01D22E4600E008263B46324608A939
:10138000019804F032FE3744AD1B05AA314608A887
:10139000236904F051FC002DEAD1019804F016FEF7
:1013A000E068002201A94068006804F02FFE0028D0
:1013B000A5D0012071E700004C6F7374206C6F673B
:1013C00073202D20696E637265617365206C6F6791
:1013D000206261636B656E6420717565756520734D
:1013E000697A652E0A00000030B4406804682469F8
:1013F000A44630BC60472DE9FC4100260446012785
:10140000019601AB012269462046FFF7EDFF0198E6
:10141000002836D09DF800007F28F2D804F0F5FDB2
:10142000A068417821B101296FD002296ED18DE0E9
:101430009DF800500D2D09D00A2D07D0D0F8642159
:10144000002161F38D12C0F8642122E0D0F864110C
:10145000C1F3871129B1D0F86411C1F38711A942F2
:1014600017D1D0F8641165F38D11C0F86411A0682C
:10147000817F41B12046FFF713FE0221204600F094
:10148000F5F8BDE8FC81C0F86061204601F0BAFEC5
:10149000F3E7092D1ED004DC002DB2D0082D04D1B5
:1014A00021E01B2D12D07F2D26D0FEF7ABFF006868
:1014B000405D10F03E0FA4D02046FFF7D9FE30B3B8
:1014C0009DF800102046FFF72DFD9AE7A168012046
:1014D000487096E72046FFF7CBFE002891D02046C3
:1014E00000F0DEF88DE72046FFF7C2FE002888D026
:1014F0002046FFF771FC84E72046FFF7B9FE00287D
:10150000E3D02046FFF7C4FC7BE716E019E0A168B2
:101510009DF80020887F7F28D7D2C87F0B18401CF9
:10152000C87783F82020A068C17F084480F8206035
:10153000A168887F401C887763E79DF800105B29CD
:1015400001D0002100E0022141705AE700214170E2
:101550002046FFF78DFE002893D09DF8000042281A
:1015600040D01BDC33287CD012DC312872D03228EA
:10157000ABD1A16803204870A068D0F86411D0F8FE
:10158000642127EA010161F30002C0F8642138E711
:10159000342856D0412898D1012124E0462853D040
:1015A0001BDC432823D044288FD1204603F036F893
:1015B00005460078A979491C884202D1A9780129F9
:1015C00087D001284FF0010120462FD001F00EFEF8
:1015D000A168C87F401EC87713E748283DD04C2833
:1015E00089D1C9E70021204602F02CF909E72046FD
:1015F00003F014F8054600786978884203D1A97889
:10160000EA78914298D0697988424FF001012046EA
:1016100006D101F079FD6979204601F0E7FD01E08E
:1016200001F0BEFEA168C87F401CD4E701F0C4FEF3
:101630006979204601F0B4FEA068C17F491EC177D8
:10164000DFE6A16803204870204601F069FDD8E676
:1016500007E0FFE7A16803204870204601F089FDFC
:10166000CFE6A1680320487046E70000826802299F
:1016700011700CD18268002182F820108268D17725
:101680008268917702A20321036803F0DBBB7047F5
:1016900025730000002801D0FEF738BF7047000016
:1016A0002DE9F04F05460020A7B0074615900646E5
:1016B00020900690A868817FC1F17F01C9B25FEADE
:1016C000010970D0C27F00F12001A030FEF7ECFECE
:1016D000A8680024C17F084480F8A040FEF792FE6D
:1016E00021900168A8680C23C27F0244D27F895CE4
:1016F000C0F86041AA6801F0010A07A916A8A03243
:1017000002F066FE0798FFF7C5FF00F0FF08A3464A
:1017100017941894169818B15044401EB0426CD8D3
:10172000BAF1000F01D0002005E007A850F826000C
:10173000FFF7B0FFC0B28046002419A822460090EF
:10174000641C17AB3146584600F0E6FB179800289A
:101750006CD0016807A8424650F8260002F0D2FA81
:101760000028EAD018987F1CF0B117980068FFF79E
:1017700091FF0699C0B2884200D90690B9F1000FD6
:101780002ED022A8009018AB31465846159A00F08A
:10179000C3FB17980168189801EB08020168002044
:1017A00001EB080316E08DE0601E2090179800689A
:1017B000FFF770FFC0B20690A0EB080048450FDAB3
:1017C000C0B20CE013F800C0614506D1401C10F017
:1017D000FF0010D0115C0029F4D1814500D9814669
:1017E000601E159017981890A7D266A2042128466B
:1017F00003F028FB1AE0FF20EFE7002419A8224697
:101800000090641C17AB3146584600F085FBECB3E2
:101810001798002856D0016807A850F82600FEF750
:101820007CFE0028EAD11798D0F808B0BBF1000F71
:1018300009D0179838B11699761CF6B201EB0A0058
:101840008642FFF467AF002F3CD0012F43D0002128
:101850002846069A05F04CFB209C0DF11C0A19A89D
:1018600022460090641C17AB3146584600F054FBEA
:101870001798424601685AF8260002F043FA40B130
:1018800017987F1E069A0168284600E01DE005F0C3
:101890002FFB002FE3D146A2032128462B6803F03B
:1018A000D1FAAB6843A208212846203303F0CAFAD4
:1018B000284601F03FFD18984A46016828464144F1
:1018C00001F0D8FB27B0BDE8F08F2EA204212846F6
:1018D00003F0B8FAF6E79BF8000038B119A80090B9
:1018E00018AB31465846159A00F016FB1898006858
:1018F000FFF7D0FE404506D018984A4601682846B2
:10190000414401F0B7FB2198A9680268C87F0B1811
:1019100093F82030D25CD20715D0897F8842D1D28B
:10192000284602F07BFE8478A868C17F491CC177F5
:10193000284602F073FE8078A0421FD1012128467C
:1019400001F02EFDBEE7D1F86401C00711D0D1F837
:10195000640120F00100C1F8640120212846FFF74E
:10196000E1FAA868D0F8641141F00101C0F86411EF
:10197000A8E720212846FFF7D5FAA3E7284601F07B
:1019800041FC9FE75461622066756E6374696F6EF7
:101990003A20636F6D6D616E647320636F756E7452
:1019A0006572206F766572666C6F7765642E0A00CB
:1019B0000A25730025730000002806D08868D0F837
:1019C000641141F02001C0F86411704770B50446FD
:1019D00040680D4690F8280030B1A0680068FFF715
:1019E000DAF808B108280CD1012685B1606903F046
:1019F0000DFD616800220831606903F0C3FC08B185
:101A0000062070BD606880F82960002070BD6068A5
:101A100090F8280048B9074A0021A068FFF768F845
:101A20006168002881F82860F0D12046BDE8704048
:101A300005F07CBEF179000070B5044640680D46A3
:101A40000260606800224360606880F82820606857
:101A500080F82920606820220830FEF725FD2C61DF
:101A6000074A2946606903F08DFC050005D1E0684E
:101A700004F030FD206904F02DFD284670BD000003
:101A8000857B00001A60C0681A4604F061BC10B57E
:101A90000446406903F0BAFCA0680068BDE8104045
:101AA000FFF779B87CB51A60044600691A4604F05D
:101AB0008DFC050025D16069134A0178515C19B18C
:101AC000001D05F083F902E00C3004F0E3FFC0B91B
:101AD000FF20009001236A4601A9206904F0C2FC9E
:101AE00078B900980199C2B2606903F07FFC05469D
:101AF000606890F8290020B11DB92069009904F0B0
:101B00009EFC28467CBD0000880000202DE9F8439B
:101B10001E4615468846074600241BE0786808EBF9
:101B200004016B460268D2F80CC02A46E0470098D0
:101B300004442D1A70B9B868017803290AD000BF8F
:101B4000D0F864118906FBD5D0F8641121F020018A
:101B5000C0F86411002DE1D1002E01D00098306052
:101B6000BDE8F88370B5084C050009D01034216831
:101B7000002907D008682060496828468847F6E7AA
:101B80000834F4E770BD000080080020054A0121F8
:101B900020B1012805D19170FFF7E4BF51700020FA
:101BA000FAE7704780080020034A032103A351701D
:101BB00009A203F047B90000680000204E52465FBA
:101BC000524144494F5F4D4F44455F424C455F3160
:101BD0004D424954000000004461746120726174F8
:101BE000653A2025730D0A00034A042103A35170AE
:101BF00009A2032103F026B9680000204E52465F77
:101C0000524144494F5F4D4F44455F424C455F321E
:101C10004D424954000000004461746120726174B7
:101C2000653A2025730D0A00034A0F2103A3517062
:101C30000BA2032103F006B9680000204E52465F54
:101C4000524144494F5F4D4F44455F4945454538F2
:101C500030323135345F3235304B42495400000068
:101C60004461746120726174653A2025730D0A0025
:101C7000034A052103A351700AA2032103F0E2B82D
:101C8000680000204E52465F524144494F5F4D4F1D
:101C900044455F424C455F4C523132354B424954CA
:101CA000000000004461746120726174653A20256F
:101CB000730D0A00034A062103A351700AA20321EF
:101CC00003F0C0B8680000204E52465F52414449BC
:101CD0004F5F4D4F44455F424C455F4C523530306D
:101CE0004B424954000000004461746120726174E9
:101CF000653A2025730D0A0010B5044603F008FA72
:101D000030B120460022BDE81040114603F0C2B8B1
:101D1000BDE8104005F058BB70B514460D460646A8
:101D2000012902D003F0F4F930B13046BDE870402B
:101D30000022114603F0AEB8022D02D906A2236894
:101D400002E008D163680BA23046BDE870404FF056
:101D5000020103F077B870BD25733A2062616420F8
:101D6000706172616D657465727320636F756E74F6
:101D70002E0D0A00556B6E6F776E20617267756D60
:101D8000656E743A2025732E0D0A000070B5144656
:101D90000E460546012902D003F0BAF930B12846B3
:101DA000BDE870400022114603F074B8022E07D936
:101DB00028462368BDE8704016A2022103F042B80D
:101DC0006068FEF7D0FB642806D92846BDE870405D
:101DD00017A2032103F036B81F4CE060E1782846D3
:101DE00001F086FE1D48002101604160C1600521AF
:101DF000017061784170A178017121784171E178B9
:101E00008171E168816005F037FB0120211F0870B6
:101E100070BD000025733A206261642070617261B8
:101E20006D657465727320636F756E742E0D0A0094
:101E300044757479206379636C65206D75737420C3
:101E40006265206265747765656E203120616E641D
:101E50002039392E0D0A000068000020700600208D
:101E600070B514460D460646012902D003F050F91C
:101E700030B13046BDE870400022114603F00AB888
:101E8000022D03D90CA20221236810E06068FEF73E
:101E90006AFB0346502806D93046BDE870400DA2C3
:101EA000022102F0CFBF144814A20321037130466F
:101EB000BDE8704002F0C6BF25733A20626164201D
:101EC000706172616D657465727320636F756E7495
:101ED0002E0D0A004368616E6E656C206D7573741B
:101EE000206265206265747765656E203020616EC2
:101EF000642038302E0D0A0068000020456E6420F2
:101F00006368616E6E656C2073657420746F3A202F
:101F100025642E0D0A0000002DE9F05F1C460A9E84
:101F200015464FF0000959B180B3017839B34268C2
:101F30003146284690473068D8B12660BDE8F09F0A
:101F400014491548A1EB0008B5EBD80F11D2DFF802
:101F50004CA00026834609E00BEBC60778680168B1
:101F60005AF82500FEF7D9FA30B1761CB6EBD80F37
:101F7000F2D3C4F80090E1E778682060DEE74068BB
:101F800000EB0210016809B11860D7E7FFE7C3F85A
:101F90000090D3E790990000D8980000A00100209D
:101FA000034AF42103A3917009A2032102F04ABF5E
:101FB000680000204E52465F524144494F5F5458DA
:101FC000504F5745525F4E4547313244424D000015
:101FD000545820706F7765723A2025730D0A0000FF
:101FE000034AF02103A3917009A2032102F02ABF42
:101FF000680000204E52465F524144494F5F54589A
:10200000504F5745525F4E4547313644424D0000D0
:10201000545820706F7765723A2025730D0A0000BE
:10202000034AEC2103A3917009A2032102F00ABF25
:10203000680000204E52465F524144494F5F545859
:10204000504F5745525F4E4547323044424D000095
:10205000545820706F7765723A2025730D0A00007E
:10206000034AE22103A3917009A2032102F0EABE10
:10207000680000204E52465F524144494F5F545819
:10208000504F5745525F4E4547333044424D000054
:10209000545820706F7765723A2025730D0A00003E
:1020A000034AD82103A3917009A2032102F0CABEFA
:1020B000680000204E52465F524144494F5F5458D9
:1020C000504F5745525F4E4547343044424D000013
:1020D000545820706F7765723A2025730D0A0000FE
:1020E000034AFC2103A3917009A2032102F0AABEB6
:1020F000680000204E52465F524144494F5F545899
:10210000504F5745525F4E45473444424D00000002
:10211000545820706F7765723A2025730D0A0000BD
:10212000034AF82103A3917009A2032102F08ABE99
:10213000680000204E52465F524144494F5F545858
:10214000504F5745525F4E45473844424D000000BE
:10215000545820706F7765723A2025730D0A00007D
:10216000034A002103A3517009A2032102F06ABEB1
:10217000680000204E52465F524144494F5F4D4F28
:1021800044455F4E52465F314D42495400000000C5
:102190004461746120726174653A2025730D0A00F0
:1021A000034A012103A3517009A2032102F04ABE90
:1021B000680000204E52465F524144494F5F4D4FE8
:1021C00044455F4E52465F324D4249540000000084
:1021D0004461746120726174653A2025730D0A00B0
:1021E00070B514460D460646012902D002F090FF54
:1021F00030B13046BDE870400022114602F04ABEC0
:10220000022D02D906A2236802E008D163680BA25E
:102210003046BDE870404FF0020102F013BE70BDC1
:1022200025733A2062616420706172616D65746526
:10223000727320636F756E742E0D0A00556B6E6F8E
:10224000776E20617267756D656E743A2025732E06
:102250000D0A0000034A022103A3117009A2032101
:1022600002F0F0BD680000205452414E534D4954D5
:102270005F5041545445524E5F313130303131302E
:10228000300000005472616E736D697373696F6E14
:10229000207061747465726E3A2025732E0D0A00E9
:1022A000034A012103A3117009A2032102F0CABD50
:1022B000680000205452414E534D49545F504154E0
:1022C0005445524E5F3131313130303030000000F2
:1022D0005472616E736D697373696F6E207061748F
:1022E0007465726E3A2025732E0D0A00034A002190
:1022F00003A3117008A2032102F0A4BD680000200E
:102300005452414E534D49545F5041545445524EDE
:102310005F52414E444F4D005472616E736D69734C
:1023200073696F6E207061747465726E3A202573E4
:102330002E0D0A00034A002103A3917008A2032175
:1023400002F080BD680000204E52465F5241444971
:102350004F5F5458504F5745525F3044424D000034
:10236000545820706F7765723A2025730D0A00006B
:10237000034A022103A3917009A2032102F062BD66
:10238000680000204E52465F524144494F5F545806
:10239000504F5745525F504F533244424D0000005A
:1023A000545820706F7765723A2025730D0A00002B
:1023B000034A032103A3917009A202F043BD000068
:1023C000680000204E52465F524144494F5F5458C6
:1023D000504F5745525F504F533344424D00000019
:1023E000545820706F7765723A2025730D0A0000EB
:1023F000034A042103A3917009A2032102F022BD24
:10240000680000204E52465F524144494F5F545885
:10241000504F5745525F504F533444424D000000D7
:10242000545820706F7765723A2025730D0A0000AA
:10243000034A052103A3917009A2032102F002BD02
:10244000680000204E52465F524144494F5F545845
:10245000504F5745525F504F533544424D00000096
:10246000545820706F7765723A2025730D0A00006A
:10247000034A062103A3917009A2032102F0E2BCE2
:10248000680000204E52465F524144494F5F545805
:10249000504F5745525F504F533644424D00000055
:1024A000545820706F7765723A2025730D0A00002A
:1024B000034A072103A3917009A2032102F0C2BCC1
:1024C000680000204E52465F524144494F5F5458C5
:1024D000504F5745525F504F533744424D00000014
:1024E000545820706F7765723A2025730D0A0000EA
:1024F000034A082103A3917009A2032102F0A2BCA0
:10250000680000204E52465F524144494F5F545884
:10251000504F5745525F504F533844424D000000D2
:10252000545820706F7765723A2025730D0A0000A9
:102530003EB5054602F0ECFD38B103B02846BDE8D3
:1025400030400022114602F0A5BC42A203212846D9
:1025500002F078FC434C6378042B24D005DC63B193
:10256000012B0CD0032B06D11BE0052B1DD0062B15
:102570001DD00F2B1DD03CA203E045A300E04BA3D0
:1025800051A20321284602F05DFCA378082B22D03B
:1025900011DC082B1DD2DFE803F0391C333735314D
:1025A0002F204DA3ECE753A3EAE759A3E8E760A384
:1025B000E6E767A3E4E7F42B2ED006DCD82B31D076
:1025C000EC2B2DD0F02B04D128E0F82B22D0FC2BC3
:1025D0001ED068A203E06DA300E073A379A20321DB
:1025E000284602F02FFC2378002B1DD0012B1DD094
:1025F000022B2DD077A21BE07FA3EFE785A3EDE7A9
:102600008BA3EBE791A3E9E797A3E7E79DA3E5E7B2
:10261000A2A3E3E7A8A3E1E7AEA3DFE7B4A3DDE766
:10262000BAA3DBE7C0A3D9E7C6A300E0CBA3D2A23D
:102630000321284602F006FCD4E9021220798DE835
:102640000700E378D34A0321284602F0FBFB3EBD96
:10265000D1A3ECE7506172616D65746572733A0DD8
:102660000A000000680000204461746120726174F7
:102670006520756E6B6E6F776E206F72206465706B
:10268000726563617465643A20256C750A0D0000FB
:102690004E52465F524144494F5F4D4F44455F4E55
:1026A00052465F314D424954000000004E52465F91
:1026B000524144494F5F4D4F44455F4E52465F3251
:1026C0004D424954000000004461746120726174FD
:1026D000653A2025730D0A004E52465F5241444927
:1026E0004F5F4D4F44455F424C455F314D42495429
:1026F000000000004E52465F524144494F5F4D4F2B
:1027000044455F424C455F324D4249540000000051
:102710004E52465F524144494F5F4D4F44455F42E0
:102720004C455F4C523132354B4249540000000059
:102730004E52465F524144494F5F4D4F44455F42C0
:102740004C455F4C523530304B424954000000003C
:102750004E52465F524144494F5F4D4F44455F4999
:102760004545453830323135345F3235304B42499A
:1027700054000000545820706F77657220756E6B9E
:102780006E6F776E3A202564000000004E52465F5F
:10279000524144494F5F5458504F5745525F504F34
:1027A000533844424D0000004E52465F5241444966
:1027B0004F5F5458504F5745525F504F5337444224
:1027C0004D000000545820706F7765723A202573D1
:1027D0000D0A00005472616E736D697373696F6ED8
:1027E000207061747465726E20756E6B6E6F776E9B
:1027F0003A202564000000004E52465F5241444991
:102800004F5F5458504F5745525F504F53364442D4
:102810004D0000004E52465F524144494F5F5458AC
:10282000504F5745525F504F533544424D000000C2
:102830004E52465F524144494F5F5458504F57459E
:10284000525F504F533244424D0000004E52465F9B
:10285000524144494F5F5458504F5745525F504F73
:10286000533444424D0000004E52465F52414449A9
:102870004F5F5458504F5745525F504F5333444267
:102880004D0000004E52465F524144494F5F54583C
:10289000504F5745525F3044424D00004E52465F04
:1028A000524144494F5F5458504F5745525F4E452F
:1028B000473444424D0000004E52465F5241444965
:1028C0004F5F5458504F5745525F4E45473844422A
:1028D0004D0000004E52465F524144494F5F5458EC
:1028E000504F5745525F4E4547313244424D0000EC
:1028F0004E52465F524144494F5F5458504F5745DE
:10290000525F4E4547313644424D00004E52465FBD
:10291000524144494F5F5458504F5745525F4E45BE
:1029200047323044424D00004E52465F52414449C6
:102930004F5F5458504F5745525F4E4547343044CF
:10294000424D00005452414E534D49545F50415442
:102950005445524E5F52414E444F4D005452414EE9
:10296000534D49545F5041545445524E5F313131BB
:1029700031303030300000005472616E736D697315
:1029800073696F6E207061747465726E3A2025737E
:102990000D0A0000F08F00005452414E534D49542F
:1029A0005F5041545445524E5F31313030313130F7
:1029B000300000003EB5054602F0AAFB28B1002217
:1029C0001146284602F066FA3EBD002000900190B4
:1029D0000290684604F0AEFC0CA20321284602F0E7
:1029E00031FA002407E000980DA20321035D284678
:1029F00002F028FA641C0198A042F4D80BA203212B
:102A00002846029B02F01EFA3EBD00005265636537
:102A100069766564207061796C6F61643A0D0A00B3
:102A2000446174613A2025640D0A00004E756D62A0
:102A30006572206F66207061636B6574733A202540
:102A4000640D0A0070B5064602F062FB30B13046F4
:102A5000BDE870400022114602F01CBA0E4C002561
:102A6000207810B104F0B0FC25700B4C3046241DCA
:102A7000E17801F03DF80948022105604560856074
:102A8000C560017061784170E17841712178017110
:102A9000BDE8704004F0F0BC640000207006002027
:102AA00010B5044602F034FB30B120460022BDE8E8
:102AB0001040114602F0EEB90E4900200E4A08609F
:102AC0004860C8600420087050784870D078087159
:102AD0001079487190688860084604F0CDFC06497A
:102AE0000120091F05A208702046BDE810400321FF
:102AF00002F0A8B970060020680000205258207328
:102B0000776565700D0A000070B514460D460646DF
:102B1000012902D002F0FCFA30B13046BDE8704025
:102B20000022114602F0B6B9022D03D90CA20221EF
:102B3000236810E06068FDF716FD0346502806D9AB
:102B40003046BDE870400DA2022102F07BB9144866
:102B500014A20321C3703046BDE8704002F072B980
:102B600025733A2062616420706172616D657465DD
:102B7000727320636F756E742E0D0A004368616E68
:102B80006E656C206D757374206265206265747764
:102B900065656E203020616E642038302E0D0A008D
:102BA000680000205374617274206368616E6E6502
:102BB0006C2073657420746F3A2025642E0D0A0012
:102BC00070B514460D460646012902D002F0A0FA5F
:102BD00030B13046BDE870400022114602F05AB9CB
:102BE000022D03D90CA20221236810E06068FDF7D2
:102BF000BAFC0346632806D93046BDE870400DA2F2
:102C0000022102F01FB9164816A203218360304644
:102C1000BDE8704002F016B925733A206261642065
:102C2000706172616D657465727320636F756E7427
:102C30002E0D0A0044656C61792074696D65206D04
:102C4000757374206265206265747765656E2030E7
:102C500020616E64203939206D732E0D0A0000004A
:102C60006800002044656C61792074696D6520738B
:102C7000657420746F3A2025642E0D0A0000000050
:102C80007FB514460D460646012902D002F040FAEF
:102C900038B104B03046BDE870400022114602F061
:102CA000F9B8022D05D912A202213046236802F09C
:102CB000C9F86068FDF757FC0446012804D913A23F
:102CC0000221304602F0BEF8E0B204F0F9FE174BE4
:102CD0001B68164A0832126815A11FA08DE80F0064
:102CE00028A32EA20321304602F0ACF87FBD0000DD
:102CF00025733A2062616420706172616D6574654C
:102D0000727320636F756E740D0A0000496E7661F0
:102D10006C696420444344432076616C756520707F
:102D2000726F76696465640A0D00000078050040E2
:102D300057726974652027312720746F20746F677C
:102D4000676C65207374617465206F66204443442A
:102D5000432052454731000057726974652027307F
:102D60002720746F20746F67676C652073746174BB
:102D700065206F66204443444320524547300D0A86
:102D800000000000444344432052454731207374FF
:102D900061746520256C750D0A00000044434443AE
:102DA000205245473020737461746520256C750D81
:102DB0000A00000070B514460D460646012902D0EF
:102DC00002F0A6F930B13046BDE87040002211464D
:102DD00002F060B8022D02D906A2236802E008D1F1
:102DE00063680BA23046BDE870404FF0020102F06C
:102DF00029B870BD25733A206261642070617261E8
:102E00006D657465727320636F756E742E0D0A00A4
:102E1000556B6E6F776E20617267756D656E743A73
:102E20002025732E0D0A00002DE9F0418568064625
:102E3000002495F82000002811D0A046FDF7E2FA02
:102E40000746006804F1200104F10104695CE4B262
:102E5000415CC90705D0002CF4D185F82080BDE87D
:102E6000F081641E14F0FF040FD0A87F021B04F150
:102E70002000291805F12000521CFDF715FBB16850
:102E8000887F001B8877B168C877B2683D68937FF8
:102E9000D0181F300446002102E0491CC9B2401E70
:102EA0000778EF5DFF07F8D18442D8D05B1A203352
:102EB00002F80380B268907F401A9077B168C877B3
:102EC000CDE7000070B5064602F022F930B1304679
:102ED000BDE870400022114601F0DCBF114C002516
:102EE000207810B104F070FA25700E4C3046241D85
:102EF000E17800F0FDFD0C490D604D608D60CD6006
:102F00000D7060784870A0780871E07848710846C4
:102F100004F0B2FA3046BDE8704004A2032101F08B
:102F200091BF00006400002070060020537461729D
:102F300074207468652054582063617272696572E8
:102F40002E0D0A002DE9F04717468846814602F00B
:102F5000DFF830B14846BDE8F0470022114601F0E5
:102F600099BF174C0026207810B104F02DFA267076
:102F7000134D48462D1DE97800F0BAFD114C012093
:102F8000B8F1020F26606660A660E660207068787F
:102F90006070A8782071E878A0712878607105D1F8
:102FA0007868FDF7E0FAA0600748E060054804F0A3
:102FB00063FA4846BDE8F04704A2032101F042BF8E
:102FC0006400002070060020397B00005374617299
:102FD0007420746865206D6F64756C61746564201D
:102FE000545820636172726965722E0D0A000000E8
:102FF00010B5044602F08CF830B120460022BDE83E
:103000001040114601F046BF0F4900200F4A0860EA
:103010004860C8600320087050784870D0784871C4
:10302000107988719068886090780871084604F07B
:1030300023FA06490120091F05A208702046BDE8B1
:103040001040032101F0FEBE700600206800002041
:1030500054582073776565700D0A000010B5D0E9EB
:103060000234D1E90220D11AA04101D3012010BDC0
:10307000002010BD2DE9F0410446806815460F463A
:10308000827FC17F531A2A44DEB27F2A37D8002DAF
:1030900035D0084400F1200105F120021044721CD3
:1030A000FDF702FAA0682A46C17F0844394620305D
:1030B000FDF7FAF9A0682030FEF7ECFAA16811A23A
:1030C0008877A068C17F431808212046203301F08B
:1030D000B9FEA068C17F2944C177204600F073F88B
:1030E00018B9204600F04DFB10B1204600F08AF8D8
:1030F000002E04D02046BDE8F04100F01BB9BDE829
:10310000F081000025730000002904D00A46006900
:1031100001A102F087B970471B5B256442000000E3
:1031200070B5054601F07AFA044600786178884265
:1031300003D1A078E17888421AD0E178A078814262
:1031400004D9081AC1B22846FFF7DEFF207861785B
:10315000884205D9401AC1B2284600F047F804E079
:10316000081AC1B2284600F01BF9A868817FC17710
:1031700070BD70B5054601F051FA044601788079BA
:10318000401C814202D1A07801281BD0A0780128E0
:1031900004D9401EC1B2284600F00EF92078A1796A
:1031A000884206D9401A401EC1B2284600F01EF8D7
:1031B00005E0081A401CC1B2284600F0F1F8A968E1
:1031C0000020C87770BD10B504460068FEF762FAAB
:1031D0000146A068C27F407E1144B1FBF0F200FBC3
:1031E000121008B1002010BD012010BD002904D02C
:1031F0000A46006901A102F015B970471B5B2564FE
:1032000044000000006901A102F00CB90A000000AE
:103210002DE9FC47002604468DF804608068354699
:10322000B146B0468021A030FDF765F940492069DC
:1032300002F0F8F8206902F002F900276B4601223B
:1032400001A92046FEF7D0F80098D8B19DF80400F7
:103250001B2806D0A16891F8A0101B29EED1522896
:103260001FD0A26808F1A001505408F1010000F03D
:10327000FF08B8F1090F0AD9A168042081F8A090CD
:10328000BDE8FC872A494FF6C010103188470098E6
:103290000028D3D17F1CBFB2B7F57A7FCED30D20E3
:1032A000EEE7A16808F1A0004A4601F80090A16885
:1032B00091F8A1005B2803D081F8A0200B20DFE764
:1032C00002206FF02F0309E005EB850503EB4505B0
:1032D000401C3D44C0B2ADB2802808D200F1A00726
:1032E000CF5D3B2FF0D1401CC0B2802809D30C2009
:1032F000C6E700BF06EB860603EB46063E44B6B2C1
:10330000F1E700F1A007CF5D002FF3D1FA20FA2EEC
:1033100001D9087500E00E75FA2D02D9A1688875EB
:1033200001E0A0688575A06880F8A0200020A7E7CC
:10333000A185000070B5054601F070F9044680785B
:10334000E178884201D1012600E000262846FFF7F7
:103350003AFF18B9284600F014FA10B12846FFF7D2
:1033600051FF1EB160782178401A12E0E078A17810
:10337000401AC1B2284600F01FF8207861788842D0
:1033800006D9401AC1B22846BDE8704000F008B81E
:10339000081AC1B22846BDE87040FFF727BF0000F9
:1033A000002904D00A46006901A102F03BB8704729
:1033B0001B5B256443000000002904D00A46006915
:1033C00001A102F02FB870471B5B2564410000008B
:1033D00010B50021024801F0AAF980F3100010BDD9
:1033E000FC0E00204FF480328A400168C1F8482367
:1033F0000068C0F8082370474FF4A07202EB810107
:1034000089B200F03AB92DE9F04105460E464FF475
:10341000A07000EB860081B228684FF48034B4407D
:10342000984622F07F47C0F808432868C0F8484310
:10343000286803F075F8286800EB8600C0F840752E
:103440002868C0F84443B8F1000F02D02868C0F8DB
:103450000443BDE8F0810068D0F80405704700001F
:1034600070B54379274C2A4D44F823204279231D17
:1034700003EBC202254C1679234A121BD40846B12D
:103480006888082602283AD3022000EB044021A1D4
:1034900033E006680A88C6F8082590F90420897880
:1034A000002A4FEA411104DB02F1E02282F8001405
:1034B00005E002F00F0202F1E02282F8141D90F9FB
:1034C00004100122002909DB01F01F0602FA06F6AA
:1034D0004909890001F1E021C1F800614179002624
:1034E00003EBC1010A71417943F831006888032870
:1034F00005D3032000EB04400FA102F091FB3046FE
:1035000070BD0000EC000020F8990000B0990000A8
:103510002002002052544320696E7374616E63650B
:1035200020616C726561647920696E697469616C8F
:10353000697A65642E0000005254433A20696E692E
:103540007469616C697A65642E00000090F904006A
:10355000002809DB00F01F02012191404009800092
:1035600000F1E020C0F8001270470A46022100F086
:103570007BB84FF4827100F080B8006801210160CF
:10358000704700680121416070472DE9F05F0746F0
:103590000C464FF4A07000EB84001FFA80FA3868E4
:1035A0004FF48036A6409B4622F07F45C0F8486322
:1035B0003868C0F808633868D0F8048500EB8402E6
:1035C000D2F84095C2F840855146386802F0A8FF0D
:1035D000A9EB080020F07F40012806D1102003F05D
:1035E0002FF85146386802F09BFF3868D0F8048500
:1035F000C0F84463A5EB080121F07F413868012938
:1036000000EB840010D0C0F840553868D0F804159D
:103610006FF07F4C6A1A521E22F07F42ACEB0B0314
:10362000934217D362B118E06D1CC0F840551020CA
:1036300003F006F83868D0F8040540450AD10CE0DC
:1036400000EB84006D1CC0F840553868D0F80405C4
:10365000884202D00D20BDE8F09F01223146384655
:1036600000F002F80020F6E70368C3F84413002ACC
:1036700002D00068C0F80413704710B500684258C3
:103680001AB102F04DFF012010BD002010BD000056
:103690002DE9F05F17460E00814670D013B1F9B2E4
:1036A000FFF77EFE0024FCF7ADFE8246006800E0D6
:1036B000641C315D415CC907FAD100253046FDF735
:1036C000E9FFD9F80810001B4A7ED11B814228D39C
:1036D00006EB040805E000BF18F805100A290CD015
:1036E0006D1C8542F8D33119D9F8100001F09AFE0B
:1036F0004846BDE8F05FFFF785BDD9F8100001F03E
:103700009EFE414600232A464846FEF7FFF92C4418
:103710004846641CFFF776FDF9B24846FFF740FEC5
:10372000E1E78B46DAF8001006EB040818F805000C
:103730000B5CDB0702D0AB460A2804D0E8199042A4
:1037400001D26D1CF2E7D9F8100001F078FE414675
:1037500000235A464846FEF7D9F95C44DAF80000DF
:1037600000E0641C315D415CC907FAD14846FFF7AF
:1037700049FDF9B24846FFF713FE9EE7FFE7BDE8B3
:10378000F09F10B504460068FDF784FF0146A0686D
:10379000827F407E1144B1FBF0F200FB121008B1B1
:1037A000002010BD012010BDF8B50C46054603F001
:1037B00081FC134B0F2D0AD0FF2018700020114AF6
:1037C000014634B1022C0DD0012C0DD00FE07E202B
:1037D000F3E71160156800951568002DFCD00A4DBF
:1037E0002D6802E0CC2500E0F0251E187570401C05
:1037F000C0B2FF28E5D3054901480860F8BD0000C4
:103800008006002000D1004008D50040041500408B
:1038100010B50B48FFF71FFE094A083AD2E90434F5
:10382000C018D2E9063244F10001C31A71EB02025A
:1038300004D24FF08072801841F1000110BD0000E9
:10384000B8000020FEB500260446009601960296B8
:103850008068E9B3D0E957128A4272D0D0F8580193
:1038600000286ED02046FFF784FCA068D0F8605195
:10387000002D69D0002309226946284602F0B5FBD5
:10388000A1689DF808500098C1F86001A068002365
:103890000922D0F86001694602F0A7FBA1689DF8F3
:1038A00008200923D1F860012031521C02F09DFB51
:1038B000A1689DF80800C877A1689DF8080088777E
:1038C0009DF80800A84202D22046FDF7CBFB00E09D
:1038D0000BE0A3682BA208212046203301F0B2FAA6
:1038E0002046FFF770FC68BB43E0D0F86001002879
:1038F00047D02046FFF73DFCA06800230922D0F8FE
:103900006001694602F071FBA0680199C0F860117E
:10391000A0680029857FB9D1A030FDF7BBFE002843
:10392000A06805D000F1A0012030FCF704FE01E002
:1039300080F82060A0682030FDF7ACFE8DF808000C
:10394000B6E71EE01AE0FFE72030FDF7A3FE10F017
:10395000FF05A068D0F85811C0F86011A06805D024
:1039600000F12001A030FCF7E6FD8FE780F8A060B1
:103970008CE72046FFF705FF002802D02046FFF71E
:1039800041FCFEBD25730000FEB50D46816804466E
:103990000026D1F8580138B300230922694602F005
:1039A00024FB0195A06800230922D0F8580169463C
:1039B00002F023FB0196A068D0F858110091807F97
:1039C0008DF80800A068C0F8585100230922694604
:1039D000284602F012FBA168092328468A7F20317D
:1039E000521C02F00AFBFEBDC1F85851A068C0F895
:1039F0005C5100960196A068807F8DF80800E4E78E
:103A0000FEB504468068D0F85C61002E28D0002303
:103A100009226946304602F0E8FAA16801980025BB
:103A2000C1F85C01009501952B4609226946304694
:103A3000029502F0E2FA304602F0A9FAA168D1F844
:103A40005C0170B100230922694602F0CEFA0095AC
:103A5000A06800230922D0F85C01694602F0CDFA83
:103A6000FEBDC1F85851FEBDFEB504468068203049
:103A7000FDF710FE10F0FF05A0684FF00006C0F83B
:103A8000606133D0A068D0F85801E0B1002309226A
:103A9000694602F0AAFA9DF80820AA4213D1A0684C
:103AA000092300F1A001D0F85801521C02F09DFA40
:103AB000A06800F1A0012030FCF72FFD0028A068CD
:103AC00080F8A06012D000260A352946606902F00D
:103AD0002EFA0100204604D003B0BDE8F040FFF705
:103AE00053BFFFF78DFF761C082EEED3FEBD0000FE
:103AF0001CB504460D4840780F2815D10B39102904
:103B000012D31A210B20CDE9000109A311A2022131
:103B1000204601F097F902B020460B23BDE8104083
:103B200019A2032101F08EB91CBD0000680000201D
:103B3000524144494F5F4D4F44455F4D4F44455FAF
:103B4000496565653830323135345F3235304B6226
:103B500069740000466F72202573206D6F646520C4
:103B60006368616E6E656C206D757374206265208C
:103B70006265747765656E20256420616E6420251A
:103B8000642E0D0A000000004368616E6E656C20B3
:103B900073657420746F2025642E0D0A00000000E8
:103BA0002DE9FC5F0E008346DDE90C47C6F10000FD
:103BB00098469246814600D40846012503E000BF9E
:103BC00090FBFAF06D1C5045FADAA84500D945463D
:103BD00024B1002E01DB780700D5641EB80702D59A
:103BE000B8F1000F0AD0F80708D13CB1A54205D2C0
:103BF00020215846641EFDF7CBF8F6E7002E02DAC6
:103C00004E462D2102E0780703D52B215846FDF7BB
:103C1000BFF807F0030002280BD1B8F1000F08D15C
:103C20003CB1A54205D230215846641EFDF7B0F8DC
:103C3000F6E7CDE90047434652463146584604F080
:103C400057F9BDE8FC9F000070B50D4604460068BA
:103C50004FF4887102F0B0FC4FF49071206802F0CC
:103C6000ABFC4FF49271206802F0A6FC4FF4A271F5
:103C7000206802F0A1FC4FF4AC71206802F09CFCBB
:103C800020681249C0F804132068690740F3073020
:103C9000090E002804DB00F1E02080F8001405E0A4
:103CA00000F00F0000F1E02080F8141D206840F3C0
:103CB0000730002809DB00F01F0201219140400974
:103CC000800000F1E020C0F8001170BD1003420038
:103CD000024600201268530713D502F003000128A2
:103CE00002D002280CD105E0C2F383100B68801CBF
:103CF000184404E00223086803EB92521044086061
:103D00000120704710B5FCF71FFC08B1002010BD62
:103D1000012010BD0268134602E08A4204D01268F6
:103D2000002AFAD10B60016070470000014B00F0DF
:103D3000BFBD0000F93E0000014B00F0B9BD00001E
:103D4000C5400000014B00F0B3BD0000CD400000B5
:103D5000014B00F0ADBD0000AD4100007CB5144644
:103D60000546012902D001F0D9F938B102B0284640
:103D7000BDE870400022114601F08CB8616805A0D2
:103D8000CDE9000109A202212846236801F05AF872
:103D90007CBD000020756E6B6E6F776E2070617257
:103DA000616D657465723A200000000025733A2544
:103DB0007325730D0A0000002DE9FC41074601F050
:103DC000ADF938B102B03846BDE8F04100221146E5
:103DD00001F060B81248134E801B050900241AE058
:103DE00006EB0410C2681179FF2903D0527942B161
:103DF0000DA207E083680EA20821384601F022F8E0
:103E000008E013A2CDE90021836814A208213846F6
:103E100001F018F8641CAC42E2D3BDE8FC8100005C
:103E2000B099000090990000656E61626C65640055
:103E300025730D0A092D205374617475733A20643B
:103E4000656163746976617465640D0A0D0A00002A
:103E500064697361626C65640000000025730D0A7B
:103E6000092D205374617475733A2025730D0A0966
:103E70002D2049443A2025640D0A0D0A0000000057
:103E800010B5044601F04AF930B120460022BDE8E1
:103E90001040114600F0FEBF2046BDE8104002A2CF
:103EA000022100F0CFBF00004E6F74207375707058
:103EB0006F727465642E0D0A0000000010B5044690
:103EC00001F02CF930B120460022BDE81040114627
:103ED00000F0E0BF2046BDE8104002A2022100F041
:103EE000B1BF00004E6F7420737570706F7274658F
:103EF000642E0D0A000000002DE9FF4FC86881B054
:103F00001D46007917004FF00006009057D0072299
:103F100045A12868FCF718FB78B1082244A128685D
:103F2000FCF712FB00282FD02B6843A2019805B0A4
:103F30000221BDE8F04F00F085BF012F02D0022F13
:103F400008D008E0019805B041A2BDE8F04F022179
:103F500000F078BF0126DFF8108100240A2258F80B
:103F600024106868FCF7F0FA10B1641C052CF5D336
:103F7000052C06D004F0FF090224002E51D00024A5
:103F800019E03AA26B68D1E7012F4FF00009F6D093
:103F9000012446E04A462146009800F005FB48B956
:103FA0000021204601F046FF034638A20221019875
:103FB00000F048FF641C01F0E7FEA042EAD805B01B
:103FC000BDE8F08F4FF0000A55F824B001F0DCFE98
:103FD0008046002609E00021304601F02BFF202218
:103FE0005946FCF7B1FA58B1761C4645F3D346451D
:103FF00008D04A465146009800F0D6FA30B10FE09A
:10400000B246F4E755F8243029A205E000215046D5
:1040100001F010FF03461DA20221019800F012FFDB
:10402000641CBC42CED3CAE7656E61626C65000059
:1040300064697361626C6500556E6B6E6F776E209C
:104040006F7074696F6E3A2025730D0A00000000CE
:1040500042616420706172616D6574657220636F86
:10406000756E742E0D0A000020010020556E6B6ED7
:104070006F776E207365766572697479206C6576EA
:10408000656C3A2025730D0A000000004C657665CA
:104090006C20756E617661696C61626C6520666F1B
:1040A00072206D6F64756C653A2025730D0A0000EF
:1040B000556E6B6E6F776E206D6F64756C653A250B
:1040C000730D0A00C968012048717047C968002053
:1040D0004871704730B41346C4680A46214630BC64
:1040E000FFF70ABFC0680121C06841717047C0680E
:1040F0000021C0684171704730B41346C4680A4655
:10410000214630BC00F052B82DE9FF41002624487A
:1041100000F0F1FA2248001F074600F0ECFA214CAB
:104120002149A06800900D6800E000986946284089
:1041300004EB80000C30FFF7CBFD0028F5D101AA7D
:10414000009901EA050304EB8303491CDB6842F88C
:104150002030401C00910228F2D3019800F00300A7
:1041600001280BD0022810D10198032101EB9050B7
:104170000099BDF80A6001EB900005E00198BDF8D8
:104180000A60C0F3831008440090384600F0B0FA8B
:1041900008B10098A06004B03046BDE8F08100008E
:1041A000F80E0020E00A00201C0100202DE9FE4F3F
:1041B0008846824601F0E8FD0746D8F80C004079B1
:1041C00020B922A20221504600F03CFE24A327A2DF
:1041D0000821504600F036FE2CA20821504600F07F
:1041E00031FE00242DE000BFD8F80C0001231A4650
:1041F00005792146284601F0D1FD814600230122A0
:104200002146284601F0CAFD0546032801D206468C
:1042100000E003260121204601F00CFE0346AE42D9
:1042200001D22AA200E028A2294850F8261050F80E
:1042300029008DE8070027A20821504600F002FE61
:10424000641CBC42D0D3BDE8FE8F00004C6F677386
:10425000206172652068616C746564210D0A00003C
:104260006D6F64756C655F6E616D6500252D343012
:1042700073207C2063757272656E74207C20627579
:10428000696C742D696E200D0A0000002D2D2D2DF6
:104290002D2D2D2D2D2D2D2D2D2D2D2D2D2D2D2D4E
:1042A0002D2D2D2D2D2D2D2D2D2D2D2D2D2D2D2D3E
:1042B0002D2D2D2D2D2D2D2D2D2D2D2D2D2D2D2D2E
:1042C0002D2D2D2D2D2D0D0A000000002A0000009F
:1042D00020010020252D343073207C20252D3773BC
:1042E000207C20257325730D0A0000008AB04FF44E
:1042F00080412A4801F0F8FC08B1FCF7E7FB00F028
:10430000FFFF08B1FCF7E2FB002001F017F8FCF713
:10431000FBFB08B1FCF7DAFB4FF080400024C0F84B
:1043200000410121C0F80010D0F800110029FBD095
:1043300002F0BAFE20221A4901A8FCF7B5F80620BF
:1043400001900820029003200090154801238DF869
:1043500018401A4601A9183800F0E6FE08B1FCF72B
:10436000B5FB0F48183800F097FF08B1FCF7AEFB1B
:104370000C484088032809D30B480C49401AC00850
:10438000052101EB00400AA101F04AFC01F00EFBFF
:104390000348183800F046FFF8E70000E50A00007F
:1043A0009080000038020020289A0000B099000098
:1043B000526164696F2074657374206578616D70F3
:1043C0006C6520737461727465642E0D0A000000C0
:1043D0002DE9FF4F4FF0000881B014468B4681460F
:1043E000C246C0F800802578002D71D0FCF70AF88D
:1043F00000900068405DC00702D004F801AB84E083
:10440000D9F800008300401CC9F800004BF80340B5
:1044100015E02678002E78D0B8F1000F05D1222EB5
:1044200010D0272E0ED05C2E1ED0B04514D12046C1
:10443000FDF730F90246611C2046FCF735F84FF0D5
:104440000008E6E72046FDF725F90246611C2046F4
:10445000FCF72AF8B046DCE7B8F1000F50D05C2E2C
:1044600061D16078404508D12046FDF713F9024636
:10447000611C2046FCF718F855E030281CD10027B5
:104480000225605DA0F13001072906D86D1C41EAC4
:10449000C701EDB2CFB2052DF3D3022D0CD92046C2
:1044A000FDF7F8F8421B61192046491E921CFBF7E4
:1044B000FBFF04F8017BACE778281ED1002702251A
:1044C000605DA0F13001092903D841EA07100DE031
:1044D00021E0A0F16101052901D8573804E0A0F1DD
:1044E0004101052907D8373840EA07106D1CEDB2A5
:1044F000C7B2042DE4D3022DD1D8B8F1000F12D1E8
:1045000000980068805DC0070DD0D9F800100498AD
:104510008142FFF468AFD9F8002040464BF822A052
:1045200005B0BDE8F08F641C73E72DE9F047C5883E
:104530001E1DB6FBF5F78946B6FBF5F1044605FBF3
:10454000176C407916686843DDF820A0F718001F43
:10455000874200D9C61A166001E02468491E002966
:10456000FBD1A5EB0C078846B74216D818E004EB40
:104570000C00001D09EB0803BAF1000F3A4602D007
:104580000146184600E01946FBF78EFF2468F61B2B
:104590004FF0000CB844B54201D9374600E02F4631
:1045A000002EE4D1BDE8F08770B5144600230D4617
:1045B00006461A4601F0F2FB844201D9002070BD84
:1045C00022462946304601F00DFC012070BD000056
:1045D00030B5024651B101F0D7FB0021074C08E08D
:1045E00034F821301568AB4202D11160002030BD93
:1045F000491C8142F4D3052030BD0000FC0100209D
:1046000010B50C460021E16061600349A160012101
:1046100001F010FC206010BD5086000070B5846869
:10462000006804F11405FDF735F8C1B2A971E07F07
:104630006A790844B0FBF2F302FB13035B1C2B7096
:10464000E07F0844B0FBF2F35B1CAB70A07F084432
:10465000B0FBF2F35B1CEB70A07F0844B0FBF2F1FF
:1046600002FB1101491C6970284670BD10B531B1BB
:10467000B2FBF3F403FB14241CB1092010BD0E207F
:1046800010BD01600021416081608281C3810846C4
:1046900010BD70B50C460546FBF7BCFD002802D0E6
:1046A00021882868084470BD10B50A8849888A4264
:1046B00003D1FBF7F1FD012010BD002010BD70B546
:1046C0000C460546FBF7CBFD002802D06188286820
:1046D000084470BD10B50A8849888A4203D1FBF7A7
:1046E000B5FD012010BD002010BD002100F00FB865
:1046F000002100F012B8012100F01EB8012100F0E5
:1047000011B808B56A46FBF71CFE009808BD08B54D
:104710006A46FBF7FCFD009808BD08B56A46FBF742
:10472000F6FD08BD08B56A46FBF7E4FD08BD08B50F
:104730006A46FBF7D3FD08BD08B56A46FBF7DAFD0C
:10474000009808BD08B56A46FBF708FE009808BD4A
:1047500070B5044600252846FCF724FA21686268F3
:10476000086890420ED9401E08600178238BE268E9
:1047700001FB0325227A2168101AC0B20A7982420D
:1047800000D208710020FCF70FFA284670BD70B502
:1047900005460C460020FCF705FAE868298B201A2C
:1047A000B0FBF1F12A681068431C13600170BDE88A
:1047B00070400020FCF7F8B910B530B1017A4268BA
:1047C0000368891AC9B21A6006E00E2010BD03689A
:1047D0001A68541C1C601170491EC9B2F7D20068D7
:1047E00000210171084610BD2DE9F047064680689A
:1047F00088B0D0F86401C0F3400038B108B030464A
:10480000BDE8F0470022114600F044BB012907D95A
:1048100008B03046BDE8F0471DA2022100F012BBEF
:104820002049DFF884A0A1EB0A001C21B0FBF1F5C0
:10483000002428E0C4EBC4010AEB81034FF0000917
:104840001F68D3E901103A793F78411AB3F818800C
:10485000C01B5B69C0B2642712FB07F7B7FBF1FC12
:10486000642710FB07F7B7FBF1F7CDE90621CDE987
:10487000041CCDE902700D4A08213046CDE90089BB
:1048800000F0E0FA641CAC42D4D308B0BDE8F08775
:1048900042616420617267756D656E7420636F7527
:1048A0006E740000689A0000309A0000A490000026
:1048B0002DE9FF5F8B46164814499A46091A0F09DD
:1048C000914652F8046C0025804607E008EB051479
:1048D0003046A168FBF721FE18B16D1CBD42F5D32F
:1048E0000BE0210009D0009804B04B465A46D4464C
:1048F000BDE8F04F5DF804EB6047009804B0334624
:10490000BDE8F05F03A2022100F09CBAB09900005C
:1049100090990000496E76616C6964206261636BF6
:10492000656E643A2025730D0A00000070B51546C7
:104930008268D2F86441C4F3400424B11A4629467F
:1049400000F0A8FA05E031B1536804A2022100F09A
:1049500079FA012070BD002070BD000025733A2057
:1049600077726F6E6720706172616D657465722019
:10497000636F756E740A000010B5044602290CD1ED
:10498000A068D0F86401C0F3400030B12046002296
:10499000BDE81040114600F07DBA064A06A1206924
:1049A00000F040FD034A2069BDE81040093202A131
:1049B00000F038BD9D85000025730000012907D057
:1049C000022909D18168D1F86411C1F3400119B1FC
:1049D0000022114600F05EBA01A2022100F032BAB4
:1049E000506C6561736520737065636966792061D9
:1049F00020737562636F6D6D616E642E0A00000036
:104A00001CB5012905D002290BD014D94FF00101A2
:104A100012E002B04FF00002BDE81040114600F075
:104A200039BA536808A1CDE9001313680CA202211A
:104A300000F008FA1CBD002102B00023BDE81040C0
:104A40001A46FFF773BF000020756E6B6E6F776EAE
:104A500020706172616D657465723A20000000001B
:104A600025733A257325730A0000000010B504462B
:104A7000012901D0012100E0002100231A46FFF79F
:104A800055FF002809D1A168C1F85401E0684068C9
:104A90000068BDE8104001F018BB10BD3EB50546EA
:104AA000012901D0012100E0002100231A46FFF76F
:104AB0003DFF002818D1E86840680468204601F0EE
:104AC00001FBC0B2642110FB01F2A168B2FBF1F25C
:104AD000D2B20092CDE90101A86804A20021D0F869
:104AE0005431284600F0AEF93EBD00004C6F73749F
:104AF000206C6F67733A2025750A4D6178206C6FC2
:104B000067207175657565207574696C697A617463
:104B1000696F6E3A2025752525205B25752F257533
:104B20005D0A00007CB514460546012903D0022920
:104B300008D0012107E002B00022BDE87040114614
:104B400000F0A8B9002100231A46FFF7EFFE002865
:104B500009D1616804A0CDE9000109A2022128461B
:104B6000236800F06FF97CBD20756E6B6E6F776EF9
:104B700020706172616D657465723A2000000000FA
:104B800025733A257325730A0000000010B504460A
:104B9000012901D0012100E0002100231A46FFF77E
:104BA000C5FE002806D1A068D0F8641121F00401E8
:104BB000C0F8641110BD10B50446012901D00121CF
:104BC00000E0002100231A46FFF7B0FE002806D1BE
:104BD000A068D0F8641141F00401C0F8641110BD60
:104BE0007CB514460D460646022901D9012100E094
:104BF000002100231A46FFF799FE002811D1022D4B
:104C000005D03046FCF734FB60B10BA30BE06168C4
:104C10000AA0CDE900010FA202213046236800F06E
:104C200011F97CBD0EA302B03046BDE870400DA264
:104C3000002100F007B900006F6E000020756E6B58
:104C40006E6F776E20706172616D657465723A2067
:104C50000000000025733A257325730A0000000048
:104C60006F6666004563686F207374617475733A8C
:104C70002025730A0000000010B50446012901D068
:104C8000012100E0002100231A46FFF74FFE002813
:104C900006D1A068D0F8641121F00801C0F86411B1
:104CA00010BD10B50446012901D0012100E000210A
:104CB00000231A46FFF73AFE002806D1A068D0F874
:104CC000641141F00801C0F8641110BD7FB50446BD
:104CD000012901D0012100E0002100231A46FFF73D
:104CE00025FE002827D1A0680026D0F85C51F5B138
:104CF00001E0082E1BD20023092201A9284601F059
:104D000074F99DF80C20A16809232846A031521C93
:104D100001F06BF9A0683346A0300090029D761C2C
:104D200005A20021204600F08DF8002DE1D1A168F8
:104D3000002081F8A0007FBD5B2533645D202573D2
:104D40000A0000007CB515460446012903D002295B
:104D500017D9012116E0A16801F11802193102F0FA
:104D600095FD00281ED0A16850200FA24876A168AA
:104D70001820087602B02046BDE87040042100F0FB
:104D800061B8002100231A46FFF7D0FD002809D1A1
:104D9000696814A0CDE9000118A2022120462B6801
:104DA00000F050F87CBD00004E6F20726573706F8C
:104DB0006E73652066726F6D20746865207465720D
:104DC0006D696E616C2C20617373756D656420383C
:104DD000307832342073637265656E2073697A654A
:104DE0000A00000020756E6B6E6F776E2070617226
:104DF000616D657465723A200000000025733A25E4
:104E00007325730A0000000010B50446012901D083
:104E1000012100E0002100231A46FFF787FD00284A
:104E20000AD1064A06A1206900F0FCFAA1685020C8
:104E30004876A1681820087610BD0000B6850000ED
:104E4000257300000FB438B5044607A80090A06889
:104E5000D0F86421520717D5C27E8A4214D0B0F828
:104E60001B50204603F0BCF86A462069069900F002
:104E7000F2FAE9B2204603F0B3F8290A204603F01B
:104E800091F838BC5DF814FB6A462069069900F079
:104E9000E2FAF6E72DE9F04F804689B017460C4656
:104EA0008648FCF7F7FB054684483638FCF7F2FBEA
:104EB000281A1FFA80F9814881A223380090D8F877
:104EC0000800082143684046FFF7BCFFD8F80800F7
:104ED0004068FCF7DFFB054678482338FCF7DAFB2F
:104EE000284482B2D8F80800002381684046FEF7C3
:104EF000CFFB75A200214046FFF7A4FF0FB304B318
:104F000000251CE005EB450A04EB8A0BDBF80400E6
:104F1000FCF7C0FB064654F82A00FCF7BBFB31182F
:104F200049450BD9DBF80400FCF7B4FB064654F8FE
:104F30002A00FCF7AFFB30441FFA80F96D1CBD421C
:104F4000E0D35E483638FCF7A5FB4844801C1FFAC6
:104F500080F95A4800904B465EA208214046FFF770
:104F600071FF09F1030086B20790002332465BA16E
:104F70004046FEF78DFB002C52D000254EE000BFCE
:104F800005EB450A04EB8A0B54F82A00DBF80430E1
:104F90006BB350B3494956A23639CDE90010082108
:104FA0004046FFF74FFF09F102000090DBF80400D4
:104FB000FCF770FB064654F82A00FCF76BFB06442E
:104FC0003E483638FCF766FB31180098401A801EC0
:104FD000C1B24046FEF7E4F93A224849D8F8100039
:104FE00000F020FA0098401C0AE0009301E040B174
:104FF00000904B4637A208214046FFF723FF079851
:1050000086B2DBF8081029B1002332464046FEF78D
:105010003FFB02E04046FEF7F5F86D1CBD42AFD302
:10502000D8F80800C068002845D081460020044612
:10503000064603AD02903246761C02AB012148467B
:105040000095FCF769FF029850B10068FCF722FB5D
:10505000A042F0D902980068FCF71CFB84B2EAE792
:10506000012E28D026A200214046FFF7EBFE0026A5
:105070003246761C02AB012148460095FCF74CFFF6
:105080000298002817D0A11C8FB2006800903B4600
:1050900010A208214046FFF7D5FE0298FF1CBAB2C5
:1050A000416821B100234046FEF7F2FAE0E74046AE
:1050B000FEF7A8F8DCE709B0BDE8F08FBC8500007A
:1050C00025732573000000004F7074696F6E733A8A
:1050D0000A0000002020252D2A733A0053686F77BC
:1050E00020636F6D6D616E642068656C702E0000CA
:1050F0002020257325732573000000006010000038
:10510000537562636F6D6D616E64733A0A000000DF
:105110008068D0F86401C0F3400070478068D0F820
:105120006401C0F3400070472DE9F0411E4605467A
:10513000069F00F013F804000DD166B13946E86807
:1051400000F010FB002802DA0420BDE8F081E868D6
:105150000121C06841712046F7E7000070B50446A0
:10516000C068154623464068846060680268166817
:10517000254AB047002845D1606900F025FF002886
:1051800040D1A168C1F85801A168C1F85C014FF491
:10519000B471A068FBF7AFF9A068D0F8641141F0D2
:1051A0002001C0F86411A068D0F8641165F3820191
:1051B000C0F86411A068D0F8641141F00801C0F88B
:1051C0006411A1680120124B0870A1685020114A97
:1051D0004876A1681820087600210C48D21A06E00B
:1051E00003EBC1046468246840F82140491CB1EB1A
:1051F000D20FF5D3072A04D9D108074B0422FBF7B5
:1052000005F9002070BD0000B9190000A0010020C0
:10521000D898000090990000857800000023FCF7E2
:1052200075BC000010B504468068102100F5B2700E
:10523000FFF782FAA0680078F8B101281DD0022893
:105240001BD12046FCF7D7F800212046FCF716F8C2
:1052500098B110A2032120462368FFF7F3FD2046F2
:10526000FCF706F848B1A3680AA2082120462033BB
:10527000FFF7E8FD2046FEF75DF8206900F0DFF853
:10528000A068BDE810406FF0100100F5B270FFF7A4
:105290003EBA00002573000070B5044680680078AF
:1052A000012801D0082070BD606801688A6800216B
:1052B000904705000FD10821204602F091FE012100
:1052C000204602F06FFE05A1206900F0ABF8022134
:1052D0002046FCF7CBF9284670BD00000A0A000002
:1052E00000F180400068002800D00120704708B518
:1052F00000F18040002101600068009008BD0000BE
:1053000070B50C4C0125207808B185260BE00020F3
:10531000A06060602061E060074801F071F9064616
:1053200001F058F9257001F04DF900B1A570304633
:1053300070BD0000800800208D1B000070B5104D6E
:105340000446A87838B114B161680120884700206C
:10535000FBF728FC0CE00020FBF724FC24B10848F4
:1053600021461030FEF7D6FCE86808B901F058F97C
:10537000E868401CE860BDE870400020FBF714BC02
:1053800080080020F0B505460478154889B0164617
:1053900040F82420124A08690832A2F10C0742F8AA
:1053A0002400487F385520226846FBF77DF8049496
:1053B0002878385C48B10EB10A4A00E000226946FC
:1053C000281D01F0DFFB09B0F0BD0EB1064A00E078
:1053D0000022694605F10C0001F01EFAF3E7000017
:1053E0008C000020AD7D0000F57B000030B4037818
:1053F000054CE35C1BB130BC001D01F091BC30BC1E
:105400000C3001F0F3BA0000880000200178044A53
:10541000515C11B1001D01F0E7BC0C3001F04ABB3A
:10542000880000200FB408B50399002904D004AA0D
:1054300000926A4600F00FF801B05DF814FB10B559
:1054400082680446002A05D0D4E9040321689847FD
:105450000020A06010BD2DE9FC4791460C0080465D
:1054600076D014F8011B39B125290ED04046FBF740
:105470008FFC20780028F4D198F80C00002867D021
:105480004046BDE8FC47FFF7DABF00200122217843
:105490002B291BD02D2902D0302908D102E040F061
:1054A000010001E040F00200641C002AEFD1002559
:1054B0002A290ED02178A1F130020A2A11D205EB57
:1054C000850201EB4205641C303DF1E740F0040029
:1054D000EAE7D9F800100B1DC9F800300968641C10
:1054E0000D44217800232E290BD114F8011FA1F1BE
:1054F00030020A2A05D203EB830201EB4203303B60
:10550000F3E76C290DD068290BD0692921D00BDC79
:10551000252918D0582931D063290ED0642915D1F6
:1055200017E014F8011FECE7702969D0732932D015
:1055300075291BD0782909D120E0D9F80000011D78
:10554000C9F8001001784046FBF722FC641C90E784
:105550006CE0D9F800100A1DC9F800200968CDE9EF
:1055600000500A224046FEF71BFBEFE7D9F8001077
:105570000A1DC9F8002009680A2206E0D9F80010BF
:105580000A1DC9F8002009681022CDE900504046E4
:1055900002F0AEFCDAE7D9F8001000270A1DC9F8BE
:1055A00000200E68C00705D112E04046761C7F1C23
:1055B000FBF7EEFB31780029F7D104E020214046CB
:1055C0006D1EFBF7E5FBBD42C0D9002DF6D1BDE74E
:1055D0004EB13046FAF79AFF074604E020214046D4
:1055E0006D1EFBF7D5FBBD4206D9002DF6D103E0B9
:1055F0004046761CFBF7CCFB31780029F8D1A5E7B3
:10560000D9F80000011DC9F8001005683021404696
:10561000FBF7BEFB78214046FBF7BAFB08200021D0
:10562000CDE90001034610222946B0E7BDE8FC871A
:105630002DE9FF411C46DDE90A7815460E4668460D
:1056400000F060F846EA450141EA840141EA072298
:1056500042EA0841009A00EB8200C0F80017BDE85A
:10566000FF812DE9FF411C46DDE90A7815460E460B
:10567000684600F055F846EA450141EA840141EAEE
:10568000072242EA0841009A00EB8200C0F80017A6
:10569000BDE8FF811CB5002100910B46012201915C
:1056A000FFF7C6FF1CBD1CB5002100910B4601226F
:1056B0000191FFF7D6FF1CBD1CB500220B460092DE
:1056C00011460192FFF7B4FF1CBD1CB500220B462A
:1056D000009211460192FFF7C4FF1CBD1CB50021CA
:1056E00000910B46012201911146FFF7A1FF1CBD5D
:1056F0001CB5002100910B46012201911146FFF7D4
:10570000B0FF1CBD0168202902D24FF0A0407047B5
:1057100001F01F01016001487047000000030050C4
:105720000168202902D24FF0A040704701F01F010C
:1057300001600148704700000003005001B5684651
:10574000FFF7E0FF009A01219140C0F8081508BD5D
:1057500001B56846FFF7E4FF009A01219140C0F8C7
:10576000081508BD2DE9F041054620480E460024E5
:10577000D0F8103419460AE0CA681179A14205D15F
:10578000641C0A2CF6DB4FF0FF342BE01168002973
:10579000F2D1611C26D0E9680C71D0F8101459B10F
:1057A000C968EA6809681160D0F81004C06805602B
:1057B0000027DFF83C8011E0C0F81054E9680020B1
:1057C0000860F5E708EBC700C279B24200D3324661
:1057D000E8683946007900F005FB7F1C00F0D4FA38
:1057E000B842EFD82046BDE8F0810000E00A002072
:1057F000B0990000406801218068FBF73FBD10B5FB
:1058000040688468606801688A680121904718B11F
:105810000420A168087010BD0320FAE72DE9F341C8
:105820004468A668B068007804281ED0032807D012
:10583000002501A9206800F053FC85F0010709E06C
:105840000125F6E739463046FBF718FD01A9206827
:1058500000F046FC0028F5D1019800F0B1FB002DC6
:1058600003D000213046FBF709FDBDE8FC81F0B50F
:1058700095B01C4615460F4608461A9E00F0A0FB40
:10588000182109A8FAF737FE0E96CDE9095400232E
:10589000082203A9384600F0A8FB05980690BDF839
:1058A0001000ADF81C00BDF81200ADF81E0000207D
:1058B0008DF821000398082600F00300012802D08B
:1058C000022818D032E003983346850AC0F3C2009C
:1058D0008DF8200003980FA9C0F38314A200384666
:1058E00000F083FB09A8009006AB22460FA92846CA
:1058F00000F0C2FA1AE00398840DC0F3C2008DF8DC
:105900002000082C01D2254600E0082533462A460F
:105910000FA9384600F069FB2E44641B09AB06AAA8
:1059200029460FA800F088F9002CEAD1384600F08B
:105930004DFB15B0F0BD7047084810B50178084A16
:10594000515C19B1001D01F04FFA02E00C3001F07A
:10595000B1F8BDE81040002002F06AB90001002053
:105960008800002008B5034A00924023024AFFF74E
:105970007EFF08BD81770000480900200A4A0129FE
:1059800002EBC00007D0022907D0032907D0042961
:1059900007D000207047022070470420704700792C
:1059A0007047407970470000B09900002DE9FF5F13
:1059B000FBF706FA18B1002004B0BDE8F09F8C4C4C
:1059C0000020C4F81804BFF34F8F8A49A0680090E4
:1059D0000D684FF00009284004EB80000CE000BF88
:1059E000D4F8180470B961680098814201D8A160A8
:1059F000E1E7284004EB80000C306946FEF768F9C7
:105A00000028EDD1002001A9A046009A02EA050372
:105A100008EB8303521CDB6841F82030401C0092E5
:105A20000228F2D3019800F00300022802D00128D6
:105A300050D0BEE001985022810D8A46B2EB905FB3
:105A400000D850210C4664F39F50C0F3C207019068
:105A50000831694800F06BFA0600EAD000F0B0FAAD
:105A60004B46082201A9304600F0C7FA009909F117
:105A7000080B2940681A8000001D844223D95C4D20
:105A80000C3530B1C2B208EB8101201A91460C31BD
:105A900004E02946E2B2002591462846C4B25B469E
:105AA000304600F0AAFA0BEB09032DB12246294635
:105AB0004FEA060000F0A1FA00990AF1030001EB99
:105AC000900000903DE008EB81015B4622463046A5
:105AD0000C31EFE70198C0F38310062800D30620AD
:105AE000019960F38911C1F38310C1F3C207801CCF
:105AF00001918100404800F01AFA060059D000F0E8
:105B00005FFA4B46082201A9304600F076FA09F107
:105B1000080900240FE000984B4600EA0501401CEC
:105B200008EB81010090042230460C3100F065FA48
:105B300009F10409641C0198C0F38310A042EAD85B
:105B4000B6B3D8F81044D8F818044546F8B1304632
:105B500000F03CFA46E0E0684179012915D101796D
:105B6000BDF80800254A01EB410152F82000072248
:105B70008A401040C840052F00D10327B84204D303
:105B800022682046314612689047E0680468002C7D
:105B9000E1D1304600F01AFA0020FBF703F8D5F8FF
:105BA000180408B90098A8600020FAF7FDFF19E072
:105BB000FFE7D8F8104405E0216820468968884747
:105BC000E0680468002CF7D10D484088022809D30A
:105BD0000C480D49401AC008022101EB00400BA1FE
:105BE00000F01EF8FBF7ECF880F00100E4E600009E
:105BF000E00A00201C0100204C9A00003C0200201A
:105C000038020020289A0000B09900004261636BBE
:105C1000656E647320666C757368656400000000CF
:105C200000231A4601F0E4BD08B5012300926A463C
:105C300001F0DEFD08BD00002DE9F0470E4680466C
:105C40001C469246082940D894F80C9000202073F6
:105C50001946104601F0B2F90025B54206D218F8EF
:105C600005201BA12046FFF7DDFB03E01AA120461B
:105C7000FFF7D8FB6D1C082DEFD318A12046FFF7C6
:105C8000D1FB0025B54212D218F805707E2F08D836
:105C9000FAF7B8FB0068C05D10F03E0F01D03A463D
:105CA00000E02E220EA12046FFF7BCFB03E00DA171
:105CB0002046FFF7B7FB6D1C082DE3D301222146D8
:105CC000504601F05DF984F80C90BDE8F0870000C3
:105CD0002025303278000000202020007C000000C9
:105CE00025630000200000002DE9F0471F494FF018
:105CF00000081F4881F8008000F066F9002832D1C2
:105D00001C4800F0E7FB1C49DFF87090DFF870A03A
:105D1000A1EB0900C608002414E000273D460CE072
:105D2000AC4209D059F8340059F835101422FAF76A
:105D30000BFC002800DD7F1C6D1CB542F0D32AF857
:105D40002470641CB442E8D30020414654460D4DF3
:105D500006E000BF04EB8002518045F82010401C93
:105D6000B042F7D30020BDE8F0870000E00A002031
:105D70004C9A000060860000309A0000B099000044
:105D8000FC0100203C02002002480349401AC008E0
:105D900070470000309A0000B09900007FB50546BA
:105DA0001146002401A873B1FEF712FC98B90B4804
:105DB0000199072250F8210005EB45018A40104067
:105DC000C840C4B207E0FEF703FC20B904480199BB
:105DD00000EBC100847904B0204670BD3C02002075
:105DE000B099000070B5114B00EB400003EB81044B
:105DF0000F4B02F0070203EB8101072303FA00F6C1
:105E00000D688240B5432A4300200A604FEA000132
:105E100003FA01F51540CD40ADB2854200D92846C0
:105E2000C91C0A29F4D3608070BD0000FC01002069
:105E30003C02002013B56846FEF7CAFB08B10020FB
:105E40001CBD0248009950F831001CBDB0990000FB
:105E500070B508480125D0F81044057007E0E068E7
:105E600045712168204649688847E0680468002C2D
:105E7000F5D170BDE00A00202DE9FF4781460C9D59
:105E800000200C462F7B2873984616462946184654
:105E900001F094F8072E42D2DFE806F004090F164D
:105EA0001F2A360049462846FFF7BCFA37E0494624
:105EB00028462268FFF7B6FA31E0D4E900234946C4
:105EC0002846FFF7AFFA2AE0A0680090D4E9002343
:105ED00049462846FFF7A6FA21E0D4E90201CDE9B8
:105EE0000001D4E9002349462846FFF79BFA16E053
:105EF00004F1080007C88DE80700D4E900234946EB
:105F00002846FFF78FFA0AE004F108000FC88DE871
:105F10000F00D4E9002349462846FFF783FA002200
:105F20002946404601F02CF82F73BDE8FF872DE984
:105F3000F041058B80462D1F4819C01CB0FBF5F0C1
:105F4000C6B24046FEF704FC041E19D000202071A2
:105F500001206071E58000272546761EC4F8008088
:105F60000BE04046FEF7F4FB60B16179491C6171BA
:105F7000286005467F1CC0F80080B742F1D3204658
:105F8000BDE8F081204600F002F80020F8E72DE996
:105F9000F041457901466B1E002201E00968521C60
:105FA0009A42FBD30F680146002605E038460C688C
:105FB000FEF7EDFB2146761CAE42F7D3BDE8F0813B
:105FC0000121001DFEF79DBBFEF7F6BB10B5044690
:105FD0000121001DFEF7B6FB10F0FF0F04D1204693
:105FE000BDE81040FFF7D3BF10BD1CB501920122E0
:105FF000009201AAFEF799FA1CBD1CB5019200227D
:10600000009201AAFEF791FA1CBD70472DE9F041FC
:106010000446002790460E463846FAF7C3FD204650
:1060200000F038F830B105270020FAF7BDFD3846FA
:10603000BDE8F08120680568B8F1000F05D101685E
:10604000204600F046F821680860E268012A0CD07A
:10605000022A0ED0042A11D06068082A13D005FB4A
:1060600002013046FAF720FADEE76068405D3070E2
:10607000DAE7606830F815003080D5E7606850F8DE
:1060800025003060D0E700EBC500D0E90010C6E97C
:106090000010C9E7016808684968884201D10120F9
:1060A00070470020704701680A6849688068884224
:1060B00001D9491C00E00021914201D10120704723
:1060C0000020704700688068704700680021816088
:1060D00070478068884201D9481C7047002070478B
:1060E0002DE9F04104464FF000080E464046FAF70D
:1060F00059FD2046FFF7D7FF070009D0207C38B1B3
:106100004FF004080020FAF74FFD4046BDE8F0814B
:106110002068456841682046FFF7DBFF216848603A
:1061200037B1206801682046FFF7D3FF2168086077
:10613000E268012A14D0022A16D0042A19D0082AAB
:106140001CD06068314605FB0200FAF7ADF9204625
:1061500000F08CFF21688A688242D3D28860D1E740
:10616000616830784855F2E76168308821F8150099
:10617000EDE76168306841F82500E8E7D6E90001FD
:10618000626802EBC502C2E90001E0E72DE9F04FC9
:106190008146806889B0D0F86401C0F3400038B10E
:1061A00009B04846BDE8F04F00221146FEF772BE26
:1061B000012907D909B04846BDE8F04F1DA20221C8
:1061C000FEF740BE2049DFF884B0A1EB0B001C2194
:1061D000B0FBF1F8002526E0C5EBC5010BEB81040F
:1061E0002068D4E9026A8768204600F03FF86421FD
:1061F000794364224243B1FBF6F1B2FBF6F26369E4
:10620000247CACB112A400BFCDE90664CDF800A097
:106210000597CDE90120CDE90361104A08214846E0
:10622000FEF710FE6D1C4545D6D309B0BDE8F08FD2
:106230000BA4E9E742616420617267756D656E7455
:1062400020636F756E740000849A0000689A0000E5
:106250004E6F206F766572666C6F77001894000041
:106260004F766572666C6F770000000010B50446CB
:106270000020FAF797FC204600F0F8FE04460020C4
:10628000FAF792FC204610BD02494058002800D081
:106290000120704700100040034908B5084400225F
:1062A00002600068009008BD00100040B0F5166F55
:1062B00004D2A0F6381040F4807001E0A0F516601A
:1062C0000149086070470000081500400349D1F8F3
:1062D00000220243C1F80022704700000010004075
:1062E0002DE9F0411F0015460E46044606D0A06871
:1062F000FEF704FA10B11120BDE8F081A068D0E9E2
:1063000003316068A3EB010C421C944507D10020C7
:10631000286017B1A068FEF7E8F90020ECE703EA6F
:10632000000201EA0007BA4201D3831A01E0181AF9
:106330000B1A28685B1C984200D203462B60206829
:1063400010443060A0682A68C1681144C160E4E765
:106350002DE9F0410546806817468846001DFEF786
:10636000CDF910B11120BDE8F081A86881680069FD
:106370000C1A3868A04200D204463C60AA686968DA
:106380001069926808400A40824201D9161A01E059
:106390000E1A761CB44208D9296832460144404698
:1063A000FAF782F8A41B0020B04429682246014471
:1063B0004046FAF779F8A8683A6801691144016122
:1063C000A868001DFEF791F90020CCE72DE9F04107
:1063D0000546174688468068FEF790F910B11120EF
:1063E000BDE8F081A86881680069081A69680C1A1C
:1063F0003868641CA04200D204463C60A868696802
:10640000806808400E1A761CB44208D929683246C2
:1064100008444146FAF748F8A41B0020B044296814
:10642000224608444146FAF73FF8A8683A6881686E
:1064300011448160A868FEF758F90020D0E710B534
:10644000826894681369E41AA14201D9042010BD3E
:1064500019441161826851618068001DFEF745F999
:10646000002010BD2DE9F0411E0014460F460546E0
:1064700007D0A868001DFEF741F910B11120BDE852
:10648000F081A868816840690A1A09D06B681840D1
:10649000194081420DD9266896420AD9226010E03F
:1064A000002020601EB1A868001DFEF71EF9002024
:1064B000E5E7814205D8191A2268491C8A4200D9A9
:1064C0002160296808443860A8682268416911443D
:1064D0004161ECE782680021916082681161826805
:1064E00051618268D1608268516080680160704744
:1064F00070B58268456894681369E31AEB1A5B1CEF
:10650000994201D9042070BD214491608268D16014
:106510008068FEF7EDF808B1002070BD082070BD5E
:1065200008B5002242504058009008BD70B50D4695
:106530000646446804E0B2682946904718B12468CA
:1065400020680028F7D120682860256070BD406869
:106550000068704741680868002801D002680A6036
:10656000704702460020526806E08B4203D108685B
:106570001060012070471A461368002BF5D1704750
:1065800008B5002242504058009008BD40580028ED
:1065900000D00120704708B50022425040580090BA
:1065A00008BDD0F80403084000D0012070474058CF
:1065B000002800D00120704708B500224250405802
:1065C000009008BD02480068002800D001207047F4
:1065D0000004014008480068012110F0010F06D1B5
:1065E0004FF0E020C02280F800248430C1670349C6
:1065F000012008607047000000E100E0180500403D
:106600000649024600200B790BB1852070470A60CD
:1066100001220A7100224A71704700009C0000208C
:1066200010B54FF48270FEF762FE02204107C1F8F8
:10663000040302490120086010BD0000080000406A
:10664000002802D00149800108477047D18300002B
:106650000121B1EB507F01D101207047002070472C
:1066600070B50D4600F0F6FC04000FD00020FAF7DC
:1066700099FA207920B10020FAF796FA112070BD1E
:106680000120256020710020FAF78EFA002070BDED
:1066900010B500F0DFFC002802D00021016001717C
:1066A00010BD00680121C16070472DE9F041064628
:1066B0000D464FF4803400681746AC404BB14FF4A0
:1066C000A07101EB8501FFF75BFF3068C0F8044360
:1066D00001E0C0F80843306800EB8500C0F8407561
:1066E000BDE8F0810268012111610079034A00EBE5
:1066F000400002EB80000172704700009408002007
:10670000016801220A600079034A00EB400002EBB5
:10671000800002210172704794080020F0B40468E0
:10672000049E40F20115D4F800728D40AF43C4F8C6
:1067300000720468D4F800521D43C4F80052334676
:10674000F0BCFFF7B2BF00002DE9F04104460E4651
:1067500000792C4900EB400001EB8007387A10B13A
:106760000820BDE8F0813A60706800254FF4A078F9
:10677000786006E008EB85012068FFF701FF6D1CDB
:10678000EDB26079A842F5D82068F17840F307307F
:1067900000284FEA411104DB00F1E02080F80014EA
:1067A00005E000F00F0000F1E02080F8141D2068E3
:1067B000012140F30730002809DB00F01F0201FA35
:1067C00002F24009800000F1E020C0F800212068BA
:1067D0007278D0F8043562F30103C0F804352068FC
:1067E000B278D0F8083562F30103C0F808352068A4
:1067F0003278D0F8103562F30303C0F810353972DF
:106800000020AEE7940800200149024801F038BAA0
:10681000A0080020002000402DE9F0410546007945
:1068200016460F4600EB40012D4A01EBC00102EB7A
:10683000810494F82A1011B10820BDE8F08129499B
:1068400051F820102868FFF70BFF08B11120F4E77A
:1068500039462846FAF7BCF966603869206030008E
:106860004FF001062FD03F7F4FF48E712868FFF75D
:1068700092FE4FF4A2712868FFF78DFE28681A492E
:10688000C0F8041328684FEA471140F30730002886
:1068900004DB00F1E02080F8001405E000F00F00B8
:1068A00000F1E02080F8141D286840F3073000282C
:1068B00009DB00F01F0106FA01F14009800000F138
:1068C000E020C0F8001128680421C0F8001500205D
:1068D000A061E06184F8290044F8140FA675ACE7C4
:1068E000A0080020A8830000800002002DE9F05FCE
:1068F000054600794FF4017600EB400303EBC0003E
:10690000344B03EB80040020636813B12B68C3F899
:106910000863A3694FF000096BB1E06938B16068A2
:1069200010B12868C0F804631120BDE8F09FE2614F
:106930000120216105E0C4F82490A261E160C4F85F
:106940001C9094F82910014302D1284600F0DDFE86
:1069500060680028286803D0C0F804630020E4E7DA
:106960004FF4A2763146FFF716FEB2464FF4927B03
:1069700059462868FFF70AFE06464FF484712868D6
:10698000FFF704FE804651462868FFF7FFFD0746E3
:1069900048EA07003043EBD056EA070007D121460A
:1069A000286800F083FEA169606A8142E0D8C4F8DB
:1069B00018900EB10320B8E70FB10F20B5E794F897
:1069C000291001200029296801D00860C6E7486025
:1069D000C4E70000A008002001684FF40172C1F86C
:1069E0000823006801214160704700002DE9F05F35
:1069F000054600790B4600EB400101EBC00024493D
:106A000001EB8004284600F045F810B11120BDE8E4
:106A1000F09F62614FF00009C4F82090A36084F8F1
:106A200028904FF48E784E4641462868FFF7B3FD14
:106A300028684FF0010AC0F808A02146286801F034
:106A400051F8606808BBD5F800B067690FE000BF77
:106A500094F8280008B10F2615E041465846FFF784
:106A600095FD0028F4D02146584601F03BF8206AF5
:106A7000B842F2D3574641462868FFF787FD002801
:106A8000F9D02868C760C4F814903046BFE700000A
:106A9000A0080020007900EB400101EBC000044990
:106AA00001EB80004069002800D001207047000001
:106AB000A00800202DE9F047044600794FF00009B6
:106AC00000EB400101EBC000284901EB8007206882
:106AD000C0F800957868B0B120682549C0F808135F
:106AE000206840F3073000280DDB00F01F02012171
:106AF00091404009800000F1E020C0F88011BFF310
:106B00004F8FBFF36F8F2068D0F80C25D0F8148515
:106B1000D0F80865D0F810554FF0FF31C0F81415C3
:106B2000C0F80C152068C0F80815C0F81015501CE6
:106B300002D01046FEF7AEFDB8F1FF3F02D040464E
:106B4000FEF7A8FD681C02D02846FEF7A3FD701CC6
:106B500002D03046FEF79EFD2068FFF799FD87F8CA
:106B60002A90C7F80490BDE8F0870000A008002034
:106B7000840202000149024801F030B9CC0800202B
:106B8000002000402DE9F0410546164600790F46E9
:106B9000154A00EBC00102EB810494F8201011B1FA
:106BA0000820BDE8F081114951F820102868FFF74E
:106BB00057FD08B11120F4E739462846FAF743F8A3
:106BC0006660386920601EB1397F2846FDF73CF8C1
:106BD00028680821C0F800150020A061E06160610C
:106BE000012184F82010DCE7CC080020AC830000F1
:106BF0002DE9F05F044600790E4600EBC001DFF896
:106C0000F0A017460AEB81053046FFF721FDB0B131
:106C100068684FF000084FF4047910B12168C1F89A
:106C20000893A8694FF0000B80B1E86948B1686823
:106C300010B12068C0F804931120BDE8F09F102027
:106C4000FBE7EF614FF001082E6102E0EE60C5E95D
:106C5000067B00254FF488712068FFF7ADFC4FF4E8
:106C6000A2712068FFF7A8FC2068C0F83465C0F85E
:106C700038752068B8F1000F12D0D0F8001241F03A
:106C80002001C0F800122079D04600EBC0010AEBC9
:106C90008100406838B12068C0F804932846CCE7EA
:106CA00001210160EFE74FF4887A4FF4A279514651
:106CB0002068FFF77CFC074649462068FFF777FC11
:106CC00006464FF492712068FFF771FC014647EACF
:106CD00006000843EBD0227902EBC20308EB8302E3
:106CE000C2F818B001B10325002ED7D00F25D5E783
:106CF000CC0800200179094A01EBC10102EB8101B6
:106D0000C96931B10168D1F8002222F02002C1F82E
:106D1000002200680121416070470000CC0800207B
:106D20002DE9F04704460E460079274900EBC000E4
:106D300001EB800517463046FFF78AFC30B120464C
:106D400000F044F820B11120BDE8F0871020FBE7E7
:106D50006F61AE604FF490774FF0000839462068BD
:106D6000FFF72AFC4FF4AC7631462068FFF724FC8D
:106D70002068AA686969C0F84425C0F848152068E9
:106D80004FF00109C0F808906868D0B9BA4651467A
:106D90002068FFF70CFC074631462068FFF707FC28
:106DA0000743F4D010B14FF00F0808E02068C0F896
:106DB0000C9031462068FFF7FAFB0028F9D000203C
:106DC00068614046C0E70000CC0800200079054912
:106DD00000EBC00001EB80004069002800D00120DA
:106DE00070470000CC0800202DE9F04706460079E6
:106DF0003D4900EBC00001EB80053468686801275D
:106E0000A8B13A49C4F80813306840F307300028A5
:106E10000DDB00F01F0107FA01F14009800000F1CD
:106E2000E020C0F88011BFF34F8FBFF36F8FD4F80D
:106E3000000220F02000C4F80002A8694FF4A278F4
:106E400020B141462046FFF7B7FB67604FF4AC79AD
:106E500049462046FFF7B0FBE760474649462046D3
:106E6000FFF7A5FB0028F9D0A86928B139462046CC
:106E7000FFF79DFB0028F1D04FF0000AC4F800A5F1
:106E80003068D0F80C25D0F81495D0F80885D0F8E3
:106E900010754FF0FF31C0F80C15C0F814153068AC
:106EA000C0F80815C0F81015501C02D01046FEF7A7
:106EB000FAFBB9F1FF3F02D04846FEF7F4FB781C1D
:106EC00002D03846FEF7EFFBB8F1FF3F02D0404654
:106ED000FEF7E9FB2046FFF7DBFB85F820A0C5F8AD
:106EE00004A0BDE8F0870000CC0800201003420099
:106EF0002DE9F84317460C0005462BD0DFF87080CB
:106F00004646D8F80000FAF7C5FB3844C7B23068E7
:106F1000FAF7C0FBA968497E081AB0FBF7F0C6B2C1
:106F20002046FAF7B7FBA968381AC7B2487FB0FB0A
:106F3000F6F206FB1202401C487782B123460DA2EE
:106F400007212846FDF77EFF39462846BDE8F8436D
:106F5000FCF726BAA96800204877BDE8F8830094BA
:106F600005A207212846D8F80030FDF76BFFEBE7B4
:106F7000F8000020257300000A2573257300000027
:106F800010B50C46017A052908D0407A38B1084876
:106F900008A102682046FEF745FA00E01AB106A1F2
:106FA0002046FEF73FFA2046BDE81040FEF747BAFC
:106FB00074010020257300000D0A000038B5C38855
:106FC0000D46044633B114A0009015A216A1284620
:106FD000FEF728FA217A05291CD0607A48B1A088EA
:106FE000FEF7CCFC164951F8202016A12846FEF7E2
:106FF00019FAA0880021FEF71DFF03461049207AE8
:10700000143951F8202001B02846BDE830400EA1C7
:10701000FEF708BA38BD00001B5B306D00000000B1
:107020001B5B313B33316D0025734C6F67732064FC
:10703000726F70706564202825642925730D0A001D
:1070400074010020257300003C25733E2025733A0F
:10705000200000000349884201D103487047002006
:107060007047000000200040A400002001680A686A
:107070004968914201D3881A70478068801A084491
:10708000401C70470F2803D001F51660FFF70EB9BA
:10709000A1F10B000F2804D801EB810000F62E109F
:1070A000F4E740F66510F1E7014800F097B90000F9
:1070B000700600202DE9F043484E4FF40072326014
:1070C000DFF81C810023C8F8003008F10409C9F872
:1070D0000030434A083A1360A8F1040401222260F8
:1070E0003F4A3F4C103A183CF1B3012952D00229D3
:1070F00049D1CC2111604FF0CC3121601C460822CF
:10710000214662F30701FF251A4665F3070263F380
:107110000F22042565F31742012565F31F62042839
:1071200059D002257F2740F2012C05283DD00628A2
:107130003BD00F2832D063F30F24080E01D04FF458
:1071400080100143E0B241EA8050C4F3072140EAD5
:107150000160C4F3074109B14FF080610843210E7B
:1071600040EA41701E4900E00FE02039086022F03B
:107170007F40110E01D04FF080710843184940F054
:1071800000701C390860BDE8F083AB2111604FF03E
:10719000AB31B2E76A2111601249AEE765F30F2403
:1071A00067F30702C6F800C0C7E7032060F30F24A7
:1071B00067F3070265F3070463F31F6260F31F645C
:1071C00060F31742C6F800C040F20310C8F8000090
:1071D000C9F80030B1E765F30F24AEE75016004060
:1071E000341500401B81FE580D4810B50021C0F831
:1071F0000012491EC0F808134FF488742046FFF7A8
:107200004BF807490120103108602046FFF73CF891
:107210000028FAD02046BDE81040FFF73DB8000036
:10722000001000402DE9F8430546294890461F46C6
:10723000405D0E464FF4837210FB02F00899C1F1D5
:1072400064024243B2FBF1F10C180020F9F7AAFCEA
:10725000FFF7CAFF39462846FCF7A6FA1D48056025
:107260000320FFF733F81B48001F066041462846FD
:10727000FFF708FF16481038FFF734FA16484FF0AA
:10728000FF31D0F800220022C0F80022C0F8081315
:107290000F4810380068D0F81005210FC2B2200145
:1072A000F9F7A0F8024601200146009008480223A1
:1072B0001038FFF733FA06481038FFF7F2F90448A0
:1072C0001038FFF71DFABDE8F8430020F9F76CBC51
:1072D00098830000101500400080004070B51646ED
:1072E0000D460446FFF780FF0E4804602120FEF79C
:1072F000EDFF0C490C480C39086031462046FFF779
:10730000D9FE29462046FFF7BDFE08490020C86087
:1073100007494FF48050C1F804030120091D08609B
:1073200070BD00001015004080070020780000208C
:10733000001000400849096801F00F010F2908D02A
:107340004FF48071054AC0E900210549C968816090
:1073500070477F21F6E700001015004080070020ED
:107360007800002038B50C46144908701448FFF71F
:10737000B9F914484FF0FF31D0F800220022C0F8CC
:107380000022C0F808130E480068D0F81005C2B2F9
:107390004FF47A50A4FB0001F9F724F802460120CB
:1073A0000346009000210648FFF7B8F90448FFF7AC
:1073B00078F9BDE838400248FFF7A2B9780000200C
:1073C000888300000080004010B50348FFF78AF969
:1073D000BDE81040FFF708BF888300007CB5154E5C
:1073E00004467068002823D113480125056013481E
:1073F000C0F840551248134A69468068CDE9000438
:107400000F48FFF7A1F902000BD00F48408840B1A8
:107410000E480F49401AC00805EB00400DA1FEF7C9
:1074200003FC4FF0E0210220C1F8000162B6746055
:107430007CBD00007800002000D0004000E001404A
:10744000888300004D79000038020020289A00004F
:10745000B09900006E7266785F74696D65725F69DD
:107460006E6974206661696C656420776974683A36
:107470002025640A00000000F8B5017806293AD2F8
:10748000DFE801F0030A3C43464C42790179407839
:10749000BDE8F84000F054B844780579867947791A
:1074A000FFF7A2FE39462046FCF77EF9052C23D0D3
:1074B00003DD062C20D00F2C1ED02120FEF706FF66
:1074C0001B480460001F056031462046FFF7DAFDC7
:1074D000184900204FF4867488602046FEF7DCFED1
:1074E00015490820C1F80403012008602046FEF772
:1074F000CBFE0028FAD0F8BD1048DFE702794179C9
:107500004078BDE8F840FFF7E9BE8168407901E0C6
:1075100081680079BDE8F840FFF724BF81680091D9
:107520004379827901794078FFF77CFEF8BD00004D
:1075300010150040780000200010004001002000DD
:1075400070B516460D460446FFF74EFE0748046028
:107550000120FEF7BBFE0548001F056031462046AE
:10756000FFF790FD02480121016070BD1015004039
:107570000010004070B50546FBF7FBFF134C40B10F
:10758000D4E904024FF08071411842F10000C4E9CF
:10759000041000212846FBF72FFF30B1606820B1AE
:1075A000606800F0A3F90020606001212846FBF725
:1075B00023FF18B1FCF72CF9C4E90601284600F0B6
:1075C00025FA2846BDE8704000F034B8B00000202D
:1075D00070B5054600200C460870FCF719F9D5E98E
:1075E0000223101A63EB010300263146361A994133
:1075F00012DAB0F5350F03D3F9F774FA0B494218D4
:107600004FF4960300210A48FBF7BFFF10B10D2885
:1076100006D009E0012070BD00210548FBF7E2FE1D
:10762000284600F063F92070002070BDFFFFB40011
:10763000B8000020F8B51B4C074600261A48FEF794
:1076400086FFD8B1616879B1D0E902106268D2E9E9
:107650000232C91A904121D2606890F8200018B116
:1076600061681148FEF762FF00F0BCF80546694604
:10767000FFF7AEFF98B1606840B10AE0606800288B
:107680000CD13846BDE8F840FBF77BBF3846FBF726
:1076900074FF65609DF800000028CFD1F8BD6660DA
:1076A000CCE70000B0000020B883000070B50546AC
:1076B00088690C4600284FF4847128460AD0FEF7EA
:1076C0006AFFD5F81805626AE1688854606A401C50
:1076D000606270BDFEF75FFFD5F8180570BD1FB57D
:1076E00001238DF80030CDE90121D0E90012684670
:1076F00090471FBD1FB501238DF80030CDE9012152
:10770000D0E90012684690471FBD10B504460068D6
:107710004FF49271FEF73FFF4FF484712068FEF73B
:107720003AFF20680121016010BD00007CB50446CD
:10773000FF20009001236A4601A9E068FEF7D0FD12
:10774000002819D1009A002A16D060690B4D0199C2
:107750000378D2B2EB5C1BB1001DFFF749FA02E0DF
:107760000C30FFF7C3F8002806D1A068224640F28B
:1077700066610068F9F7F6F97CBD0000880000201A
:1077800070B50D4C0020D2B22070201D0B4D037837
:10779000EB5C1BB1001DFFF7C3FA02E00C30FFF7F2
:1077A00025F908B1F9F792F96078002802D021781C
:1077B0000029FAD070BD0000FC00002088000020E5
:1077C0000022CA604A60054A8A60052803D2044A3A
:1077D00052F8200000E0002008607047508600004A
:1077E000340100200148FEF7B5BE0000B883000058
:1077F0002DE9F84F074621489146884605681E4600
:10780000012269461846F9F77DFADFF874A060B3E3
:10781000009800210446801C0AE000BF00EA05022F
:1078200059F821C00AEB8202401C491CC2F80CC066
:10783000B142F3D34FEA1749FBF7CAFD611C294057
:107840000AEB810149EA00422C40CA600AEB84013C
:10785000C86867F3C50066F3891068F39F2020F0BD
:107860000300401C20F00400C8609AF8000001E00A
:10787000FEF79CF80028FBD1BDE8F88F1C01002022
:10788000E00A002009680068F8F747BE2DE9F041DA
:1078900015460E460446FBF7BBFC78B9A068FA21F2
:1078A000077D90F816802046FBF77AFDFA212046E6
:1078B000FBF72AFC2046FBF7ABFC10B10620BDE825
:1078C000F081A068007D3070A068807D28703078DD
:1078D000C01BC1B22046FBF789FC2978A1EB080048
:1078E000C1B22046FBF768FD0020E8E770B504460A
:1078F00014480025007810B30CB394F82000F0B1C0
:10790000FBF786FFD4E90223801A994112D320693C
:10791000002608B984F82060D4E90510884720695A
:1079200068B194F8201051B1D4E9022110187141C6
:10793000C4E9020121460448FEF7F8FD0125284666
:1079400070BD0000B0000020B883000070B50123B6
:107950000C46B0F5A07F05D0B0F5A27F01D1184844
:10796000036070BD174D22782978032A10D0042AAD
:1079700017D0154840880028F3D014481449BDE8B2
:107980007040401AC00803EB004012A1FEF74CB94A
:1079900023790A4660781946FFF7D2FD6079A1790C
:1079A00005E022796078FFF799FC207961792A78DF
:1079B000521CD2B22A708A42D3D9287070BD0000FE
:1079C000001000407800002038020020289A0000B3
:1079D000B0990000556E65787065637465642074B5
:1079E00065737420747970653A2025640A0000007C
:1079F0004069054A0178515C11B1001DFFF77AB961
:107A00000C30FEF7E9BF000088000020F8B51C4CE0
:107A100069462068FCF753FE00260127194D2CE02B
:107A2000017821B101290ED002291ED116E041684A
:107A300091F82020CAB981F82070416810480830B8
:107A4000FEF774FD11E041686868814201D16E6003
:107A50000BE00B480830FEF784FD06E0FFF7C2FE9E
:107A600010B180F82060F9E72F7069462068FCF7B4
:107A70001BFE69462068FCF722FE0028D0D1F8BD25
:107A8000B0830000B0000020F8B50B4C0D46064650
:107A900069462068FCF7FDFD58B1067045606946EF
:107AA0002068FCF717FE10B10448FBF74FFD0020DB
:107AB000F8BD0420F8BD0000B0830000B80000202D
:107AC00030B1012808D10648016831B1002102E037
:107AD00003480830F8E7016070470121FBE7000028
:107AE0007805004070B50C4605464FF48E71FEF7E0
:107AF00052FD216AA068415C206A401C2062C5F8E2
:107B00001C1570BD1FB500228DF800200291816800
:107B100001914261D0E90012684690471FBD1FB530
:107B200000228DF800200291816801914261D0E924
:107B30000012684690471FBD07484088032809D3B4
:107B400006480749401AC008032101EB004005A17F
:107B5000FEF766B87047000038020020289A00003F
:107B6000B0990000546865206D6F64756C61746530
:107B700064205458206861732066696E6973686573
:107B8000640A00007CB5FF260546009600780C4686
:107B9000B8B1012806D0022812D1297AE068FEF790
:107BA000A7FC0AE0297AE068FEF7A2FC287A20B157
:107BB0006068D0E90021002090472046FFF7B6FD1D
:107BC0007CBD297A2069FEF73AFC009601236A46BB
:107BD00001A92069FEF746FC009820B1C2B2606995
:107BE0000199FDF703FC6068D0E90021012090476E
:107BF0007CBD00001FB50A4601788DF80010416871
:107C00000191017A8DF80810C0680390044850F87B
:107C10002210083850F82220684690471FBD000007
:107C2000940000200149012008707047FC000020EA
:107C300010B588B0044620220E496846F8F734FC97
:107C400006200090C01F0190029003904FF0EB704F
:107C500006900CB1084A00E0002269460748FDF78B
:107C600091FB08B1F8F732FF0448001F447008B0D8
:107C700010BD000030860000257C000000010020BF
:107C80002DE9FF470C4605464FF40071FEF789FCCD
:107C900001274FF40178002618B34FF49279494632
:107CA0002846FEF773FCE0B149462846FEF773FC10
:107CB000C5F8088394F8290000B96F6002208DF898
:107CC0000000D5F88004C5F880040390A0690290F4
:107CD000E0680190A661E661D4E900126846904729
:107CE00028E004212846FEF75CFC18B34FF48471A9
:107CF0002846FEF74BFCE8B121462846FFF7D6FCA4
:107D0000616AA069884215D1E06938B1E268616AA8
:107D1000A0612069E6616662E06008E094F82900ED
:107D200000B96F60C5F80883A661E268616A204601
:107D3000FFF7D5FC4FF48E7841462846FEF726FC27
:107D400080B16069216A814202D294F8280028B388
:107D500041462846FEF71FFC606918B1616920465C
:107D6000FFF7D0FE4FF4A27841462846FEF70EFCFE
:107D7000002818D041462846FEF70DFC94F829004B
:107D800000B12F60A06900280DD0A661E268616A89
:107D900004B02046BDE8F047FFF7A1BC21462846C5
:107DA000FFF7A0FEDEE7BDE8FF8700001FB50A462B
:107DB00001788DF8001041680191017A8DF8081062
:107DC000C0680390044850F82210083850F8222068
:107DD000684690471FBD0000940000202DE9FF4138
:107DE0000C464FF4927705463946FEF7E0FB002635
:107DF000B8B139462846FEF7DFFB02208DF80000B7
:107E0000D5F88004C5F880040390D5F83C050290AD
:107E1000E0680190A661E661D4E9001268469047E7
:107E200023E04FF4887739462846FEF7C0FBE0B1DF
:107E300039462846FEF7C0FBD5F83C15A0698842B4
:107E400013D1E06960B1E268D5F8000220F02000AB
:107E5000C5F80002E069A0612069E661E06001E028
:107E6000A661E2682046FFF745FC4FF4A277394649
:107E70002846FEF79CFB68B139462846FEF79CFB76
:107E8000A06938B1A661E661D5F83C152046E268E4
:107E9000FFF730FC4FF4907631462846FEF787FB1B
:107EA00060B131462846FEF787FB0120E860606933
:107EB00020B1D5F84C152046FFF731FE4FF4AC76D3
:107EC00031462846FEF773FB00280ED0314628467F
:107ED000FEF772FB6069002807D0D5F84C1504B096
:107EE0002046BDE8F041FFF71ABEBDE8FF81000063
:107EF0002DE9F05F8346DDE90A4A994690460D4632
:107F00000846012703E000BFB0FBF8F07F1C4045A6
:107F1000FAD2B94500D94F465FEACA7012D18CB186
:107F20005FEA8A7002D5B9F1000F01D0202607E080
:107F3000302605E031465846641EF8F729FF0CB19B
:107F4000A742F7D35FF00106B9F1010F02D9A9F1F9
:107F5000010903E0B5FBF6F0404502D306FB08F645
:107F6000F2E7DFF83C9000BFB5FBF6F000FB1655DA
:107F700019F800105846F8F70BFFB6FBF8F6002E7C
:107F8000F2D15FEACA7009D0002C07D0A74205D20F
:107F900020215846641EF8F7FBFEF5E7BDE8F09F88
:107FA000DC8500001CB5002913D08268127F8A424C
:107FB0000FD008A3D3E90023CDE9002301F12F025C
:107FC0008DF803208268117700696A4603A1FDF7E6
:107FD00029FA1CBD1B5B34006D00000025730000F6
:107FE0001CB5826899B1D27E8A420FD00CA2D2E928
:107FF0000032CDE9003201F12F028DF805208268B0
:10800000D17600696A4608A1FDF70CFA1CBDD1764D
:10801000006902B0054ABDE8104003A1FDF702BAAD
:108020001B5B313B33006D00257300008D85000024
:10803000000000207C0200203F000000BC02002065
:10804000D40200200F000000E40200200000000025
:108050000020004000000000002000400000000060
:10806000C8850000FC020020308000004080000035
:10807000348000004C8000004488000060800000D4
:10808000280300209099000028000020309A00006A
:10809000FFFFFFFFFFFFFFFFFFFFFFFFFFFFFFFFF0
:1080A00000000000000000000000D60106010000F2
:1080B00000000000B880000074890000C48800003F
:1080C00000000000612100008C890000EC880000A5
:1080D00000000000A12100006889000098890000CC
:1080E00000000000A91B000080890000B889000082
:1080F00000000000E91B0000588900008C88000087
:1081000000000000711C0000348900005488000049
:1081100000000000B51C0000448900001489000024
:1081200000000000291C000000000000000000000A
:10813000000000000000000000000000408100007E
:10814000848B0000D88A000000000000F1240000A9
:10815000748B0000C48A000000000000B1240000FD
:108160006C8B00009C8A000000000000712400005D
:10817000588B0000888A00000000000031240000B5
:10818000388B0000248A00000000000071230000EA
:10819000408B00004C8A000000000000B12300006A
:1081A000508B0000608A000000000000F1230000F6
:1081B000248B0000D8890000000000003523000057
:1081C000488B0000748A000000000000E1200000DD
:1081D0007C8B0000EC8A00000000000021210000E0
:1081E0002C8B0000388A000000000000A11F000056
:1081F000608B0000B08A000000000000E11F00005A
:10820000008B0000E8890000000000002120000031
:108210000C8B0000FC8900000000000061200000C1
:10822000188B0000108A000000000000A120000050
:10823000000000000000000000000000000000003E
:108240000000000048820000348C0000E48B000035
:1082500000000000ED2200000C8C00008C8B000060
:1082600000000000A1220000208C0000B88B00005C
:108270000000000055220000000000000000000087
:108280000000000000000000988C0000448C0000FA
:1082900000000000092B0000D08C0000A88C00001A
:1082A00000000000611E0000148D0000DC8C000046
:1082B00000000000C12B0000248D00002C8D000068
:1082C00000000000F91C0000648D00004C8D0000CF
:1082D000B0800000191D0000888D0000708D000026
:1082E00000000000C52E0000C88D00009C8D00001D
:1082F00000000000452F0000008E0000E48D00000B
:1083000038810000E1210000308E0000108E000056
:1083100040820000B52D0000908E0000448E0000C9
:10832000000000008D1D0000D88E0000B08E0000FF
:108330000000000031250000FC8E0000EC8E0000E3
:1083400000000000A12A00001C8F00000C8F00001C
:1083500000000000F12F0000388F00002C8F00007B
:1083600000000000452A0000B88F0000448F000084
:1083700000000000812C0000E48F0000CC8F000082
:1083800000000000B529000000800040000400004B
:108390000400020600000000080420080440100049
:1083A000000000000000002009680000756B00005C
:1083B000D00000200100060000000000E4000020C2
:1083C0005D30000000000000000000000000000020
:1083D0000338FDD87047000000000000E083000073
:1083E000749000005090000000000000E947000079
:1083F000000000000000000000000000000000007D
:108400007C90000084900000D8830000E9470000C1
:108410001D580000FF570000F55700000000000045
:1084200024840000649100004C91000000000000D2
:108430008D4B0000689100003491000000000000A6
:10844000B74B00000000000000000000000000002A
:1084500000000000000000005C8400006491000047
:108460006C91000000000000794C00006891000051
:10847000C891000000000000A34C000000000000B4
:1084800000000000000000000000000000000000EC
:108490009484000034920000089200000000000064
:1084A0006D4A00003C920000DC91000000000000DA
:1084B0009D4A0000000000000000000000000000D5
:1084C0000000000000000000CC8400008892000042
:1084D000689200001C840000254B00008092000080
:1084E0004492000054840000E14B00009092000090
:1084F000589200008C840000014A00000000000037
:10850000000000000000000000000000000000006B
:1085100014850000DC92000098920000000000002A
:10852000094E0000000000000000000000000000F4
:1085300000000000F4920000E4920000000000003F
:108540007949000020930000FC920000C4840000E0
:10855000BD49000038930000249300000000000093
:10856000CD4C0000E0930000409300000C8500001B
:10857000454D000000000000000000000000000069
:108580001B37001B38002C20001B5B4A001B5B6D57
:1085900000082008001B5B4B00202D20001B5B48BF
:1085A000001B5B366E001B5B324A000000000000BF
:1085B0000338FDD870471B5B3F336C002D682C20BF
:1085C0002D2D68656C700000391A00008F1A0000AC
:1085D000CD190000A51A0000851A00003031323391
:1085E00034353637383941424344454600000000AF
:1085F000F485000074900000EC930000000000007F
:108600008D6100000000000000000000000000007C
:10861000000000001094000084900000EC85000031
:108620008D6100006559000039590000375900007C
:10863000FFFFFFFFFFFFFFFFFFFFFFFFFFFFFFFF4A
:1086400000000000000000000000D601060100004C
:1086500001000000014600000000000074860000D8
:10866000480A00207F000000C80A00200100000026
:10867000C1770000B49500004095000050860000CE
:108680002D3D0000AC950000BC9400006C860000FD
:108690002D3D0000DC950000BC95000000000000AE
:1086A000393D0000F0950000CC950000000000006E
:1086B000453D000074900000E095000000000000BF
:1086C000513D00000000000000000000000000001C
:1086D0000000000001000000BD0C000000000000D0
:1086E000E486000060960000F8950000000000009D
:1086F000813E0000689600002C96000000000000FB
:10870000BD3E00000000000000000000000000006E
:1087100000000000000000001C870000A49600007C
:1087200070960000D486000000000000AC960000A7
:10873000B4960000DC86000000000000B495000044
:108740004095000050860000D5400000AC95000028
:10875000BC9400006C860000D5400000DC95000051
:10876000BC95000000000000E5400000F09500000E
:10877000CC95000000000000EF400000D096000003
:108780008C96000000000000B93D000074900000CD
:10879000E095000000000000F9400000000000002B
:1087A000000000000000000000000000E096000053
:1087B000E4960000148700005D3D0000004040404A
:1087C00040404040404041414141414040404040A4
:1087D0004040404040404040404040404005020250
:1087E000020202020202020202020202022020200F
:1087F000202020202020200202020202020290906B
:108800009090909010101010101010101010101068
:1088100010101010101010100202020202028888BC
:1088200088888888080808080808080808080808C8
:1088300008080808080808080202020240000000B0
:10884000BD870000756172745F636C693A7E242095
:10885000000000004C6F6E672072616E6765203506
:108860003030206B6269742F732054582C203132C1
:1088700035206B6269742F7320616E64203530304F
:10888000206B6269742F7320525800004C6F6E6722
:108890002072616E676520313235206B6269742FFA
:1088A000732054582C20313235206B6269742F7339
:1088B00020616E6420353030206B6269742F732024
:1088C0005258000031204D6269742F73204E6F7230
:1088D0006469632070726F70726965746172792067
:1088E000726164696F206D6F6465000032204D62B3
:1088F00069742F73204E6F726469632070726F7099
:108900007269657461727920726164696F206D6F3C
:108910006465000049454545203830322E31352EFA
:10892000342D3230303620323530206B6269742F6E
:1089300073000000626C655F6C723530304B6269A9
:1089400074000000696565653830323135345F3256
:1089500035304B6269740000626C655F6C72323551
:10896000304B626974000000626C655F314D626972
:10897000740000006E72665F314D62697400000021
:10898000626C655F324D6269740000006E72665FF2
:10899000324D62697400000031204D6269742F739A
:1089A00020426C7565746F6F7468204C6F7720453A
:1089B0006E6572677900000032204D6269742F7312
:1089C00020426C7565746F6F7468204C6F7720451A
:1089D0006E65726779000000545820706F77657279
:1089E0003A20302064426D00545820706F776572D1
:1089F0003A202D32302064426D000000545820701F
:108A00006F7765723A202D33302064426D0000008C
:108A1000545820706F7765723A202D3430206442AC
:108A20006D000000545820706F7765723A202B3229
:108A30002064426D00000000545820706F7765720A
:108A40003A202D31322064426D00000054582070CD
:108A50006F7765723A202B332064426D000000006E
:108A6000545820706F7765723A202B342064426D21
:108A700000000000545820706F7765723A202D3442
:108A80002064426D00000000545820706F776572BA
:108A90003A202B352064426D0000000054582070AD
:108AA0006F7765723A202B362064426D000000001B
:108AB000545820706F7765723A202D313620644209
:108AC0006D000000545820706F7765723A202B3784
:108AD0002064426D00000000545820706F7765726A
:108AE0003A202B382064426D00000000545820705A
:108AF0006F7765723A202D382064426D00000000C7
:108B00006E6567323064426D000000006E65673349
:108B10003064426D000000006E6567343064426D61
:108B200000000000706F733064426D006E65673145
:108B30003264426D00000000706F733264426D0059
:108B4000706F733364426D006E65673464426D000C
:108B5000706F733464426D00706F733564426D00E2
:108B60006E6567313664426D00000000706F7336C9
:108B700064426D00706F733764426D006E656738D4
:108B800064426D00706F733864426D0053657420E9
:108B9000746865207472616E736D697373696F6E4A
:108BA000207061747465726E20746F2031313131C0
:108BB000303030302E00000053657420746865201A
:108BC0007472616E736D697373696F6E2070617416
:108BD0007465726E20746F20313031303130313035
:108BE0002E00000053657420746865207472616EF5
:108BF000736D697373696F6E207061747465726EE2
:108C000020746F2072616E646F6D2E0070617474D9
:108C100065726E5F3131313130303030000000002C
:108C20007061747465726E5F313130303131303063
:108C3000000000007061747465726E5F72616E6432
:108C40006F6D0000537461727420746865206368EE
:108C5000616E6E656C20666F722074686520737734
:108C6000656570206F7220746865206368616E6E40
:108C7000656C20666F722074686520636F6E737414
:108C8000616E742063617272696572203C63686111
:108C90006E6E656C3E00000073746172745F636891
:108CA000616E6E656C000000456E6420746865201E
:108CB0006368616E6E656C20666F722074686520F3
:108CC0007377656570203C6368616E6E656C3E000D
:108CD000656E645F6368616E6E656C0054696D6596
:108CE000206F6E2065616368206368616E6E656CDD
:108CF00020286265747765656E2031206D73206170
:108D00006E64203939206D7329203C74696D653E8D
:108D10000000000074696D655F6F6E5F6368616E6F
:108D20006E656C0063616E63656C000043616E6329
:108D3000656C20746865207377656570206F72209C
:108D4000746865206361727269657200536574208E
:108D5000646174612072617465203C7375625F6345
:108D60006D643E00646174615F726174650000004F
:108D70005374617274207468652054582063617262
:108D8000726965720000000073746172745F7478B8
:108D90005F636172726965720000000053746172F2
:108DA0007420746865206D6F64756C6174656420EF
:108DB00054582063617272696572205B7061636BE5
:108DC00065745F6E756D5D0073746172745F747845
:108DD0005F6D6F64756C617465645F636172726905
:108DE000657200004F757470757420706F776572CE
:108DF00020736574203C7375625F636D643E000090
:108E00006F75747075745F706F7765720000000025
:108E100053657420746865207472616E736D697334
:108E200073696F6E207061747465726E000000006B
:108E30007472616E736D69745F7061747465726E63
:108E40000000000044757479206379636C652069C3
:108E50006E2070657263656E74202874776F20646D
:108E60006563696D616C206469676974732C206245
:108E700065747765656E20303120616E6420393904
:108E800029203C647574795F6379636C653E0000EA
:108E900073746172745F647574795F6379636C6510
:108EA0005F6D6F64756C617465645F747800000059
:108EB0005072696E742063757272656E7420646599
:108EC0006C61792C206368616E6E656C20616E64E4
:108ED00020736F206F6E0000706172616D65746544
:108EE00072735F7072696E74000000005374617277
:108EF0007420525820737765657000007374617236
:108F0000745F72785F737765657000005374617287
:108F10007420545820737765657000007374617213
:108F2000745F74785F737765657000005374617265
:108F3000742052580000000073746172745F72787C
:108F400000000000546F67676C6520444344432071
:108F50007374617465203C73746174653E2C206980
:108F600066207374617465203D2031207468656EDD
:108F700020746F67676C652044432F44432052453B
:108F800047312073746174652C206F7220696620EC
:108F90007374617465203D2030207468656E2074A0
:108FA0006F67676C652044432F4443205245473028
:108FB0002073746174650000746F67676C655F642B
:108FC0006364635F73746174650000005072696E5E
:108FD00074207265636569766564207061796C6F71
:108FE000616400007072696E745F72780000000046
:108FF0005374617274204368616E6E656C3A092522
:109000006C750D0A456E64204368616E6E656C3A3E
:1090100009256C750D0A54696D65206F6E206561B8
:109020006368206368616E6E656C3A20256C7520FC
:109030006D730D0A44757479206379636C653A0920
:10904000256C752070657263656E740D0A000000F2
:109050005072696E7420737461747573206F66202A
:1090600062616C6C6F6320696E7374616E636573AB
:109070002E000000737461747573000062616C6C83
:109080006F630000436F6D6D616E647320666F7275
:109090002042414C4C4F43206D616E6167656D65A8
:1090A0006E74000025730D0A092D20456C656D65F1
:1090B0006E742073697A653A092564202B20256433
:1090C000206279746573206F66206465627567201D
:1090D000696E666F726D6174696F6E0D0A092D207D
:1090E00055736167653A0925752525202825752062
:1090F0006F7574206F6620257520656C656D656ED3
:109100007473290D0A092D204D6178696D756D3ACA
:10911000092575252520282575206F7574206F6613
:1091200020257520656C656D656E7473290D0A0DBB
:109130000A000000456E61626C6520636F6C6F729F
:1091400065642073796E7461782E000044697361E0
:10915000626C6520636F6C6F7265642073796E74E6
:1091600061782E006F6666006F6E0000446973615F
:10917000626C6520434C49206563686F2E20417204
:10918000726F777320616E6420627574746F6E7392
:109190003A204261636B73706163652C2044656C97
:1091A0006574652C20456E642C20486F6D652C20FD
:1091B000496E7365727420617265206E6F742068E9
:1091C000616E646C65642E00456E61626C6520435F
:1091D0004C49206563686F2E0000000047657420CD
:1091E000434C4920737461746973746963732066B6
:1091F0006F7220746865204C6F67676572206D6FB1
:1092000064756C652E000000526573657420434CD4
:1092100049207374617469737469637320666F7233
:1092200020746865204C6F67676572206D6F647588
:109230006C652E00726573657400000073686F774B
:1092400000000000546F67676C6520434C4920653F
:1092500063686F2E00000000434C492073746174F2
:109260006973746963732E00546F67676C6520635C
:109270006F6C6F7265642073796E7461782E000074
:109280006563686F00000000636F6C6F72730000AD
:109290007374617473000000417373756D652038D9
:1092A000302063686172732073637265656E207726
:1092B0006964746820616E642073656E64207468EC
:1092C00069732073657474696E6720746F207468A5
:1092D00065207465726D696E616C2E0064656661EF
:1092E000756C7400436C6561722073637265656EA2
:1092F0002E000000636C65617200000055736566A6
:10930000756C2C206E6F7420556E69782D6C696BAE
:109310006520434C4920636F6D6D616E64732E0050
:10932000636C6900436F6D6D616E6420686973746E
:109330006F72792E00000000686973746F72790093
:10934000436F6E736F6C652067657473207465720C
:109350006D696E616C2073637265656E2073697AE6
:1093600065206F7220617373756D657320383020CE
:10937000696E20636173652074686520726561643D
:109380006F7574206661696C732E204974206D7549
:109390007374206265206578656375746564206107
:1093A000667465722065616368207465726D696EAC
:1093B000616C207769647468206368616E676520FA
:1093C000746F20656E7375726520636F727265636A
:1093D00074207465787420646973706C61792E00F0
:1093E000726573697A650000202000005072696E12
:1093F0007420737461747573206F66207175657560
:109400006520696E7374616E6365732E00000000E1
:10941000717565756500000025730D0A092D2045DD
:109420006C656D656E742073697A653A0925640D03
:109430000A092D2055736167653A09257525252090
:10944000282575206F7574206F6620257520656C42
:10945000656D656E7473290D0A092D204D6178695B
:109460006D756D3A092575252520282575206F75A0
:1094700074206F6620257520656C656D656E74734C
:10948000290D0A092D204D6F64653A090925730DD0
:109490000A0D0A006E6F6E65000000007761726E43
:1094A000696E67006465627567000000696E666FCB
:1094B000000000006572726F72000000276C6F6719
:1094C00020656E61626C65203C6C6576656C3E2043
:1094D0003C6D6F64756C655F303E202E2E2E202013
:1094E0003C6D6F64756C655F6E3E2720656E6162D2
:1094F0006C6573206C6F677320757020746F2067C4
:109500006976656E206C6576656C20696E20737077
:1095100065636966696564206D6F64756C65732049
:1095200028616C6C206966206E6F206D6F64756CAD
:10953000657320737065636966696564292E000030
:10954000276C6F672064697361626C65203C6D6F86
:1095500064756C655F303E202E2E203C6D6F647507
:109560006C655F6E3E272064697361626C65732071
:109570006C6F677320696E207370656369666965D7
:1095800064206D6F64756C65732028616C6C206954
:1095900066206E6F206D6F64756C657320737065E7
:1095A000636966696564292E00000000656E61626A
:1095B0006C65000064697361626C65005265737567
:1095C0006D65206C6F6767696E67000048616C7439
:1095D000206C6F6767696E6700000000676F0000AE
:1095E0004C6F676765722073746174757300000057
:1095F00068616C74000000004C6F616420636F6EE2
:1096000066696775726174696F6E2073746F7265D5
:109610006420696E206E6F6E2D766F6C6174696C5C
:1096200065206D656D6F72792E00000053746F7246
:10963000652063757272656E7420636F6E6669670C
:1096400075726174696F6E20696E206E6F6E2D7613
:109650006F6C6174696C65206D656D6F72792E0039
:109660006C6F61640000000073746F72650000002D
:109670004C6F67676572206261636B656E6473200F
:10968000636F6D6D616E64732E0000004C697374BE
:1096900073206C6F67676572206261636B656E64CF
:1096A000732E00006261636B656E6400636F6E66AB
:1096B000696700004D616E616765206C6F67676563
:1096C0007220636F6E66696775726174696F6E0090
:1096D0006C6973745F6261636B656E647300000034
:1096E0006C6F6700436F6D6D616E647320666F729F
:1096F00020636F6E74726F6C6C696E67206C6F673D
:10970000676572001B5B313B33306D001B5B306D56
:10971000000000001B5B313B33316D001B5B313BB4
:1097200033326D001B5B313B33336D001B5B313BD0
:1097300033346D001B5B313B33356D001B5B313BBC
:1097400033366D001B5B313B33376D006170705FEA
:1097500074696D65722E6D5F636C695F756172749B
:109760005F7472616E73706F72745F74696D65722D
:109770000000000071756575652E6D5F636C695F33
:10978000756172745F6C6F675F6261636B656E6455
:109790005F7175657565000062616C6C6F632E6D3D
:1097A0005F636C695F756172745F636D645F686944
:1097B00073745F6D656D6F626A0000006D5F636C4E
:1097C000695F756172745F6C6F675F6261636B651F
:1097D0006E645F7175657565000000006D5F636C98
:1097E000695F756172745F6C6F675F6261636B65FF
:1097F0006E6400006D5F636C695F756172745F63B6
:109800006D645F686973745F6D656D6F626A000097
:10981000636C6F636B000000434C4F434B000000D0
:109820005052530054494D45520000005541525486
:109830000000000055415254450000006170705F07
:1098400074696D657200000061746669666F2E6DE3
:109850005F7265715F6669666F000000636C695FC7
:1098600075617274000000007077725F6D676D74CF
:1098700000000000736F72746C6973740000000064
:10988000756172745F6C6F675F6261636B656E6454
:109890000000000062616C6C6F632E6C6F675F6D1F
:1098A000656D706F6F6C0000617070006C6F675F4A
:1098B0006D656D706F6F6C00849A00000000002071
:1098C0007C020000CE060000FC9A00007C02002012
:1098D000842C0000280A000000000000888200009C
:1098E000000000009882000000000000A882000034
:1098F00000000000B882000000000000C8820000E4
:1099000000000000D882000000000000E882000093
:1099100000000000F8820000000000000883000042
:1099200000000000188300000000000028830000F1
:1099300000000000388300000000000048830000A1
:109940000000000058830000000000006883000051
:109950000000000078830000000000000084000088
:109960000000000034850000000000004485000075
:109970000000000054850000000000006485000025
:10998000000000001486000000000000AC8700000A
:109990001084000040000020DC9700004C000020F4
:1099A00024860000000000008098000014010020C0
:1099B0004C970000000000037497000000000003B3
:1099C00098970000000000031098000000000000BD
:1099D000189800000000000020980000000000001F
:1099E00024980000000000002C98000000000000F7
:1099F00034980000000000003C98000000000000C7
:109A000048980000000000035C980000000000007F
:109A1000689800000000000074980000000000003A
:109A20009498000000000003A898000000000303C1
:109A30005C000020540000205C000020F0040020A6
:109A400004020020F49700003000000050010020C4
:109A50004801002050010020880900203402002025
:109A6000AC98000018000000E404002090040020DE
:109A7000140000000400000001000000BC9700007A
:109A800000020020011C13FC018220134804B320B3
:109A900032237880231D52E3689A0218FF22033292
:109AA00050320AA948013915100140110221048BD6
:109AB0002402C4C1B3E8931220BA400859C829044B
:109AC0002394941AB4041A9C041AAC045AA40429CA
:109AD0001429102920291C011CE940230C971A0481
:109AE000041A14041A1C041A24041A2C041A340428
:0C9AF0001A3C041A44041104E090D00356
:0400000500000201F4
:00000001FF
